{
  "transactions": [
    {
      "hash": "0x3183ff98b87c3a95da296a83ecf2d376372e37a3a29bedc08260edb3b104a547",
      "transactionType": "CREATE",
      "contractName": "ChaosRouter",
      "contractAddress": "0x51017d5d1d2056e58c8e2226a0938d58d54e77dc",
      "function": null,
      "arguments": [
        "0x000000000004444c5dc75cB358380D2e3dE08A90"
      ],
      "transaction": {
        "from": "0x70997970c51812dc3a010c7d01b50e0d17dc79c8",
        "value": "0x0",
        "input": "0x60a034607357601f610abf38819003918201601f19168301916001600160401b03831184841017607757808492602094604052833981010312607357516001600160a01b0381168103607357608052604051610a33908161008c8239608051818181608b0152818161040601526105ab0152f35b5f80fd5b634e487b7160e01b5f52604160045260245ffdfe60806040526004361015610011575f80fd5b5f3560e01c80631e2817de14610435578063481c6a75146103f1576391dd73461461003a575f80fd5b346103ad5760203660031901126103ad5760043567ffffffffffffffff81116103ad57366023820112156103ad57806004013567ffffffffffffffff81116103ad578101903660248301116103ad577f00000000000000000000000000000000000000000000000000000000000000006001600160a01b0381169290338490036103c357610120838303126103ad576040516100d5816106a2565b6100e1602485016106fc565b815260a0601f1985850301126103ad57604051926100fe846106be565b61010a604486016106fc565b8452610118606486016106fc565b6020850152608485013562ffffff811681036103ad57604085015260a48501358060020b81036103ad57606085015260c48501356001600160a01b03811681036103ad5760808501526020820193845260609085900360bf1901126103ad5760405193610184856106a2565b60e48101359081151582036103ad5790855261010481013560208601526101240135936001600160a01b03851685036103ad57610237955f9560408301526040830191808352855191610210602098899461024b6040516101e588826106da565b838152601f1988013689830137604051633cf3645360e21b81529d8e97889687956004870190610734565b8051151560a4860152602081015160c4860152604001516001600160a01b031660e4850152565b610120610104840152610124830190610710565b03925af19586156103b8575f96610385575b5051511561030d578460801d600f0b5f81126102dd575b5084600f0b915f83136102b5575b505050505b604051918183015280825261029d6040836106da565b6102b1604051928284938452830190610710565b0390f35b925184015190516102d4936001600160a01b0391821692909116610997565b5f808080610282565b8351518251610307926001600160a01b039283169290911690859061030190610786565b926107c2565b5f610274565b84600f0b5f8112610359575b508460801d600f0b915f8313610333575b50505050610287565b9251519051610350936001600160a01b0391821692909116610997565b5f80808061032a565b8351850151825161037f926001600160a01b039283169290911690859061030190610786565b5f610319565b9095508481813d83116103b1575b61039d81836106da565b810103126103ad5751945f61025d565b5f80fd5b503d610393565b6040513d5f823e3d90fd5b60405162461bcd60e51b81526020600482015260066024820152654e6f7420504d60d01b6044820152606490fd5b346103ad575f3660031901126103ad576040517f00000000000000000000000000000000000000000000000000000000000000006001600160a01b03168152602090f35b346103ad57366003190161010081126103ad5760a0136103ad5760405161045b816106be565b6004356001600160a01b03811681036103ad5781526024356001600160a01b03811681036103ad57602082015260443562ffffff811681036103ad5760408201526064358060020b81036103ad5760608201526084356001600160a01b03811681036103ad57608082015260603660a31901126103ad576040516104de816106a2565b60a43580151581036103ad57815260c435602082015260e435916001600160a01b03831683036103ad57610573826105a69460405f95015260408051610523816106a2565b338152602081019485520190815261054960405193336020860152516040850190610734565b518051151560e08401526020810151610100840152604001516001600160a01b0316610120830152565b6101208152610584610140826106da565b604051809381926348c8949160e01b8352602060048401526024830190610710565b0381837f00000000000000000000000000000000000000000000000000000000000000006001600160a01b03165af19081156103b8575f91610604575b50602081519181808201938492010103126103ad5760209051604051908152f35b90503d805f833e61061581836106da565b8101906020818303126103ad5780519067ffffffffffffffff82116103ad570181601f820112156103ad5780519067ffffffffffffffff821161068e576040519261066a601f8401601f1916602001856106da565b828452602083830101116103ad57815f9260208093018386015e83010152816105e3565b634e487b7160e01b5f52604160045260245ffd5b6060810190811067ffffffffffffffff82111761068e57604052565b60a0810190811067ffffffffffffffff82111761068e57604052565b90601f8019910116810190811067ffffffffffffffff82111761068e57604052565b35906001600160a01b03821682036103ad57565b805180835260209291819084018484015e5f828201840152601f01601f1916010190565b80516001600160a01b03908116835260208083015182169084015260408083015162ffffff169084015260608083015160020b9084015260809182015116910152565b908160209103126103ad575190565b600160ff1b8114610796575f0390565b634e487b7160e01b5f52601160045260245ffd5b908160209103126103ad575180151581036103ad5790565b9192916001600160a01b0316806108305750604051630476982d60e21b81529250602091839160049183916001600160a01b03165af180156103b8576108055750565b6108269060203d602011610829575b61081e81836106da565b810190610777565b50565b503d610814565b6001600160a01b0390911691823b156103ad57604051632961046560e21b815260048101839052935a945f816024818389819bf180156103b857610982575b506001600160a01b031684308214610927576020929160649160405195869485936323b872dd60e01b8552600485015288602485015260448401525af1801561091c579160209184936108ef575b505b600460405180958193630476982d60e21b83525af19081156108e357506108055750565b604051903d90823e3d90fd5b61090e90833d8511610915575b61090681836106da565b8101906107aa565b505f6108bd565b503d6108fc565b6040513d85823e3d90fd5b9290506044602092604051948593849263a9059cbb60e01b845288600485015260248401525af1801561091c57916020918493610965575b506108bf565b61097b90833d85116109155761090681836106da565b505f61095f565b61098f9195505f906106da565b5f935f61086f565b91906001600160a01b0316803b156103ad57604051630b0d9c0960e01b81526001600160a01b03938416600482015291909216602482015260448101929092525f908290606490829084905af180156103b8576109f15750565b5f6109fb916106da565b56fea264697066735822122061b4309e3cfd83596a2c06dabf1fd7990e81c05486a6c0b1f8f0512b0925445664736f6c634300081a0033000000000000000000000000000000000004444c5dc75cb358380d2e3de08a90",
        "nonce": "0xfa3",
        "chainId": "0x1"
      },
      "additionalContracts": [],
      "isFixedGasLimit": false
    },
    {
      "hash": "0x5747bc95cc4942cb45fa9f47f60dcf1dc3f3d6daab3635d139427036d479543e",
      "transactionType": "CALL",
      "contractName": null,
      "contractAddress": "0xd1620dac6d79be34f8500756b47cf91b1fa5cc8c",
      "function": "approve(address,uint256)",
      "arguments": [
        "0x51017D5d1D2056E58C8E2226a0938D58d54e77DC",
        "115792089237316195423570985008687907853269984665640564039457584007913129639935"
      ],
      "transaction": {
        "from": "0x70997970c51812dc3a010c7d01b50e0d17dc79c8",
        "to": "0xd1620dac6d79be34f8500756b47cf91b1fa5cc8c",
        "value": "0x0",
        "input": "0x095ea7b300000000000000000000000051017d5d1d2056e58c8e2226a0938d58d54e77dcffffffffffffffffffffffffffffffffffffffffffffffffffffffffffffffff",
        "nonce": "0xfa4",
        "chainId": "0x1"
      },
      "additionalContracts": [],
      "isFixedGasLimit": false
    },
    {
      "hash": "0x5262ba9e997b64b28fad75ad3d8b845c69a1bc9fd18fc83806c2ffbe968ebac7",
      "transactionType": "CALL",
      "contractName": null,
      "contractAddress": "0x9ed4f4724b521326a9d9d2420252440bd05556c4",
      "function": "approve(address,uint256)",
      "arguments": [
        "0x51017D5d1D2056E58C8E2226a0938D58d54e77DC",
        "115792089237316195423570985008687907853269984665640564039457584007913129639935"
      ],
      "transaction": {
        "from": "0x70997970c51812dc3a010c7d01b50e0d17dc79c8",
        "to": "0x9ed4f4724b521326a9d9d2420252440bd05556c4",
        "value": "0x0",
        "input": "0x095ea7b300000000000000000000000051017d5d1d2056e58c8e2226a0938d58d54e77dcffffffffffffffffffffffffffffffffffffffffffffffffffffffffffffffff",
        "nonce": "0xfa5",
        "chainId": "0x1"
      },
      "additionalContracts": [],
      "isFixedGasLimit": false
    },
    {
      "hash": "0xba0446e22db0ed76ebc8044326772c20c182b559ad685975e1b7f925cbf7f495",
      "transactionType": "CALL",
      "contractName": null,
      "contractAddress": "0xd1620dac6d79be34f8500756b47cf91b1fa5cc8c",
      "function": "approve(address,uint256)",
      "arguments": [
        "0x000000000004444c5dc75cB358380D2e3dE08A90",
        "115792089237316195423570985008687907853269984665640564039457584007913129639935"
      ],
      "transaction": {
        "from": "0x70997970c51812dc3a010c7d01b50e0d17dc79c8",
        "to": "0xd1620dac6d79be34f8500756b47cf91b1fa5cc8c",
        "value": "0x0",
        "input": "0x095ea7b3000000000000000000000000000000000004444c5dc75cb358380d2e3de08a90ffffffffffffffffffffffffffffffffffffffffffffffffffffffffffffffff",
        "nonce": "0xfa6",
        "chainId": "0x1"
      },
      "additionalContracts": [],
      "isFixedGasLimit": false
    },
    {
      "hash": "0xf0dc8461af2243b385bcaa0cc7484654050765793d7cbeed26e41027234b7025",
      "transactionType": "CALL",
      "contractName": null,
      "contractAddress": "0x9ed4f4724b521326a9d9d2420252440bd05556c4",
      "function": "approve(address,uint256)",
      "arguments": [
        "0x000000000004444c5dc75cB358380D2e3dE08A90",
        "115792089237316195423570985008687907853269984665640564039457584007913129639935"
      ],
      "transaction": {
        "from": "0x70997970c51812dc3a010c7d01b50e0d17dc79c8",
        "to": "0x9ed4f4724b521326a9d9d2420252440bd05556c4",
        "value": "0x0",
        "input": "0x095ea7b3000000000000000000000000000000000004444c5dc75cb358380d2e3de08a90ffffffffffffffffffffffffffffffffffffffffffffffffffffffffffffffff",
        "nonce": "0xfa7",
        "chainId": "0x1"
      },
      "additionalContracts": [],
      "isFixedGasLimit": false
    },
    {
      "hash": "0x5936e36e69791a9203c8407e0730bd5cae5acbd9f7838de5ef1fd0e1d147f2c0",
      "transactionType": "CALL",
      "contractName": "ChaosRouter",
      "contractAddress": "0x51017d5d1d2056e58c8e2226a0938d58d54e77dc",
      "function": "swap((address,address,uint24,int24,address),(bool,int256,uint160))",
      "arguments": [
        "(0x9ed4F4724b521326a9d9d2420252440bD05556c4, 0xD1620Dac6d79BE34F8500756B47cf91B1fA5Cc8C, 500, 5, 0x7e0C07EEabb2459D70dba5b8d100Dca44c652aC0)",
        "(false, 482435255, 1461446703485210103287273052203988822378723970341)"
      ],
      "transaction": {
        "from": "0x70997970c51812dc3a010c7d01b50e0d17dc79c8",
        "to": "0x51017d5d1d2056e58c8e2226a0938d58d54e77dc",
        "value": "0x0",
        "input": "0x1e2817de0000000000000000000000009ed4f4724b521326a9d9d2420252440bd05556c4000000000000000000000000d1620dac6d79be34f8500756b47cf91b1fa5cc8c00000000000000000000000000000000000000000000000000000000000001f400000000000000000000000000000000000000000000000000000000000000050000000000000000000000007e0c07eeabb2459d70dba5b8d100dca44c652ac00000000000000000000000000000000000000000000000000000000000000000000000000000000000000000000000000000000000000000000000001cc160b7000000000000000000000000fffd8963efd1fc6a506488495d951d5263988d25",
        "nonce": "0xfa8",
        "chainId": "0x1"
      },
      "additionalContracts": [],
      "isFixedGasLimit": false
    },
    {
      "hash": "0x446dde33f898a46ff6320c95bd2f5458d44a2b062f5410e4b7e2386a0fde34d6",
      "transactionType": "CALL",
      "contractName": "ChaosRouter",
      "contractAddress": "0x51017d5d1d2056e58c8e2226a0938d58d54e77dc",
      "function": "swap((address,address,uint24,int24,address),(bool,int256,uint160))",
      "arguments": [
        "(0x9ed4F4724b521326a9d9d2420252440bD05556c4, 0xD1620Dac6d79BE34F8500756B47cf91B1fA5Cc8C, 500, 5, 0x7e0C07EEabb2459D70dba5b8d100Dca44c652aC0)",
        "(true, -367882392, 4295128740)"
      ],
      "transaction": {
        "from": "0x70997970c51812dc3a010c7d01b50e0d17dc79c8",
        "to": "0x51017d5d1d2056e58c8e2226a0938d58d54e77dc",
        "value": "0x0",
        "input": "0x1e2817de0000000000000000000000009ed4f4724b521326a9d9d2420252440bd05556c4000000000000000000000000d1620dac6d79be34f8500756b47cf91b1fa5cc8c00000000000000000000000000000000000000000000000000000000000001f400000000000000000000000000000000000000000000000000000000000000050000000000000000000000007e0c07eeabb2459d70dba5b8d100dca44c652ac00000000000000000000000000000000000000000000000000000000000000001ffffffffffffffffffffffffffffffffffffffffffffffffffffffffea128f6800000000000000000000000000000000000000000000000000000001000276a4",
        "nonce": "0xfa9",
        "chainId": "0x1"
      },
      "additionalContracts": [],
      "isFixedGasLimit": false
    },
    {
      "hash": "0x152d03de68c2ccf1a5cbc7df8109325a4bd18cefd106a0241f2a826600dec838",
      "transactionType": "CALL",
      "contractName": "ChaosRouter",
      "contractAddress": "0x51017d5d1d2056e58c8e2226a0938d58d54e77dc",
      "function": "swap((address,address,uint24,int24,address),(bool,int256,uint160))",
      "arguments": [
        "(0x9ed4F4724b521326a9d9d2420252440bD05556c4, 0xD1620Dac6d79BE34F8500756B47cf91B1fA5Cc8C, 500, 5, 0x7e0C07EEabb2459D70dba5b8d100Dca44c652aC0)",
        "(true, 967950473, 4295128740)"
      ],
      "transaction": {
        "from": "0x70997970c51812dc3a010c7d01b50e0d17dc79c8",
        "to": "0x51017d5d1d2056e58c8e2226a0938d58d54e77dc",
        "value": "0x0",
        "input": "0x1e2817de0000000000000000000000009ed4f4724b521326a9d9d2420252440bd05556c4000000000000000000000000d1620dac6d79be34f8500756b47cf91b1fa5cc8c00000000000000000000000000000000000000000000000000000000000001f400000000000000000000000000000000000000000000000000000000000000050000000000000000000000007e0c07eeabb2459d70dba5b8d100dca44c652ac000000000000000000000000000000000000000000000000000000000000000010000000000000000000000000000000000000000000000000000000039b1c08900000000000000000000000000000000000000000000000000000001000276a4",
        "nonce": "0xfaa",
        "chainId": "0x1"
      },
      "additionalContracts": [],
      "isFixedGasLimit": false
    },
    {
      "hash": null,
      "transactionType": "CALL",
      "contractName": "ChaosRouter",
      "contractAddress": "0x51017d5d1d2056e58c8e2226a0938d58d54e77dc",
      "function": "swap((address,address,uint24,int24,address),(bool,int256,uint160))",
      "arguments": [
        "(0x9ed4F4724b521326a9d9d2420252440bD05556c4, 0xD1620Dac6d79BE34F8500756B47cf91B1fA5Cc8C, 500, 5, 0x7e0C07EEabb2459D70dba5b8d100Dca44c652aC0)",
        "(true, -581039294, 4295128740)"
      ],
      "transaction": {
        "from": "0x70997970c51812dc3a010c7d01b50e0d17dc79c8",
        "to": "0x51017d5d1d2056e58c8e2226a0938d58d54e77dc",
        "value": "0x0",
        "input": "0x1e2817de0000000000000000000000009ed4f4724b521326a9d9d2420252440bd05556c4000000000000000000000000d1620dac6d79be34f8500756b47cf91b1fa5cc8c00000000000000000000000000000000000000000000000000000000000001f400000000000000000000000000000000000000000000000000000000000000050000000000000000000000007e0c07eeabb2459d70dba5b8d100dca44c652ac00000000000000000000000000000000000000000000000000000000000000001ffffffffffffffffffffffffffffffffffffffffffffffffffffffffdd5e0b4200000000000000000000000000000000000000000000000000000001000276a4",
        "nonce": "0xfab",
        "chainId": "0x1"
      },
      "additionalContracts": [],
      "isFixedGasLimit": false
    },
    {
      "hash": null,
      "transactionType": "CALL",
      "contractName": "ChaosRouter",
      "contractAddress": "0x51017d5d1d2056e58c8e2226a0938d58d54e77dc",
      "function": "swap((address,address,uint24,int24,address),(bool,int256,uint160))",
      "arguments": [
        "(0x9ed4F4724b521326a9d9d2420252440bD05556c4, 0xD1620Dac6d79BE34F8500756B47cf91B1fA5Cc8C, 500, 5, 0x7e0C07EEabb2459D70dba5b8d100Dca44c652aC0)",
        "(false, 51289952, 1461446703485210103287273052203988822378723970341)"
      ],
      "transaction": {
        "from": "0x70997970c51812dc3a010c7d01b50e0d17dc79c8",
        "to": "0x51017d5d1d2056e58c8e2226a0938d58d54e77dc",
        "value": "0x0",
        "input": "0x1e2817de0000000000000000000000009ed4f4724b521326a9d9d2420252440bd05556c4000000000000000000000000d1620dac6d79be34f8500756b47cf91b1fa5cc8c00000000000000000000000000000000000000000000000000000000000001f400000000000000000000000000000000000000000000000000000000000000050000000000000000000000007e0c07eeabb2459d70dba5b8d100dca44c652ac0000000000000000000000000000000000000000000000000000000000000000000000000000000000000000000000000000000000000000000000000030e9f60000000000000000000000000fffd8963efd1fc6a506488495d951d5263988d25",
        "nonce": "0xfac",
        "chainId": "0x1"
      },
      "additionalContracts": [],
      "isFixedGasLimit": false
    },
    {
      "hash": null,
      "transactionType": "CALL",
      "contractName": "ChaosRouter",
      "contractAddress": "0x51017d5d1d2056e58c8e2226a0938d58d54e77dc",
      "function": "swap((address,address,uint24,int24,address),(bool,int256,uint160))",
      "arguments": [
        "(0x9ed4F4724b521326a9d9d2420252440bD05556c4, 0xD1620Dac6d79BE34F8500756B47cf91B1fA5Cc8C, 500, 5, 0x7e0C07EEabb2459D70dba5b8d100Dca44c652aC0)",
        "(true, -1000000, 4295128740)"
      ],
      "transaction": {
        "from": "0x70997970c51812dc3a010c7d01b50e0d17dc79c8",
        "to": "0x51017d5d1d2056e58c8e2226a0938d58d54e77dc",
        "value": "0x0",
        "input": "0x1e2817de0000000000000000000000009ed4f4724b521326a9d9d2420252440bd05556c4000000000000000000000000d1620dac6d79be34f8500756b47cf91b1fa5cc8c00000000000000000000000000000000000000000000000000000000000001f400000000000000000000000000000000000000000000000000000000000000050000000000000000000000007e0c07eeabb2459d70dba5b8d100dca44c652ac00000000000000000000000000000000000000000000000000000000000000001fffffffffffffffffffffffffffffffffffffffffffffffffffffffffff0bdc000000000000000000000000000000000000000000000000000000001000276a4",
        "nonce": "0xfad",
        "chainId": "0x1"
      },
      "additionalContracts": [],
      "isFixedGasLimit": false
    },
    {
      "hash": null,
      "transactionType": "CALL",
      "contractName": "ChaosRouter",
      "contractAddress": "0x51017d5d1d2056e58c8e2226a0938d58d54e77dc",
      "function": "swap((address,address,uint24,int24,address),(bool,int256,uint160))",
      "arguments": [
        "(0x9ed4F4724b521326a9d9d2420252440bD05556c4, 0xD1620Dac6d79BE34F8500756B47cf91B1fA5Cc8C, 500, 5, 0x7e0C07EEabb2459D70dba5b8d100Dca44c652aC0)",
        "(true, 520610843, 4295128740)"
      ],
      "transaction": {
        "from": "0x70997970c51812dc3a010c7d01b50e0d17dc79c8",
        "to": "0x51017d5d1d2056e58c8e2226a0938d58d54e77dc",
        "value": "0x0",
        "input": "0x1e2817de0000000000000000000000009ed4f4724b521326a9d9d2420252440bd05556c4000000000000000000000000d1620dac6d79be34f8500756b47cf91b1fa5cc8c00000000000000000000000000000000000000000000000000000000000001f400000000000000000000000000000000000000000000000000000000000000050000000000000000000000007e0c07eeabb2459d70dba5b8d100dca44c652ac00000000000000000000000000000000000000000000000000000000000000001000000000000000000000000000000000000000000000000000000001f07e41b00000000000000000000000000000000000000000000000000000001000276a4",
        "nonce": "0xfae",
        "chainId": "0x1"
      },
      "additionalContracts": [],
      "isFixedGasLimit": false
    },
    {
      "hash": null,
      "transactionType": "CALL",
      "contractName": "ChaosRouter",
      "contractAddress": "0x51017d5d1d2056e58c8e2226a0938d58d54e77dc",
      "function": "swap((address,address,uint24,int24,address),(bool,int256,uint160))",
      "arguments": [
        "(0x9ed4F4724b521326a9d9d2420252440bD05556c4, 0xD1620Dac6d79BE34F8500756B47cf91B1fA5Cc8C, 500, 5, 0x7e0C07EEabb2459D70dba5b8d100Dca44c652aC0)",
        "(true, -139592334, 4295128740)"
      ],
      "transaction": {
        "from": "0x70997970c51812dc3a010c7d01b50e0d17dc79c8",
        "to": "0x51017d5d1d2056e58c8e2226a0938d58d54e77dc",
        "value": "0x0",
        "input": "0x1e2817de0000000000000000000000009ed4f4724b521326a9d9d2420252440bd05556c4000000000000000000000000d1620dac6d79be34f8500756b47cf91b1fa5cc8c00000000000000000000000000000000000000000000000000000000000001f400000000000000000000000000000000000000000000000000000000000000050000000000000000000000007e0c07eeabb2459d70dba5b8d100dca44c652ac00000000000000000000000000000000000000000000000000000000000000001fffffffffffffffffffffffffffffffffffffffffffffffffffffffff7adfd7200000000000000000000000000000000000000000000000000000001000276a4",
        "nonce": "0xfaf",
        "chainId": "0x1"
      },
      "additionalContracts": [],
      "isFixedGasLimit": false
    },
    {
      "hash": null,
      "transactionType": "CALL",
      "contractName": "ChaosRouter",
      "contractAddress": "0x51017d5d1d2056e58c8e2226a0938d58d54e77dc",
      "function": "swap((address,address,uint24,int24,address),(bool,int256,uint160))",
      "arguments": [
        "(0x9ed4F4724b521326a9d9d2420252440bD05556c4, 0xD1620Dac6d79BE34F8500756B47cf91B1fA5Cc8C, 500, 5, 0x7e0C07EEabb2459D70dba5b8d100Dca44c652aC0)",
        "(false, -423705047, 1461446703485210103287273052203988822378723970341)"
      ],
      "transaction": {
        "from": "0x70997970c51812dc3a010c7d01b50e0d17dc79c8",
        "to": "0x51017d5d1d2056e58c8e2226a0938d58d54e77dc",
        "value": "0x0",
        "input": "0x1e2817de0000000000000000000000009ed4f4724b521326a9d9d2420252440bd05556c4000000000000000000000000d1620dac6d79be34f8500756b47cf91b1fa5cc8c00000000000000000000000000000000000000000000000000000000000001f400000000000000000000000000000000000000000000000000000000000000050000000000000000000000007e0c07eeabb2459d70dba5b8d100dca44c652ac00000000000000000000000000000000000000000000000000000000000000000ffffffffffffffffffffffffffffffffffffffffffffffffffffffffe6bec629000000000000000000000000fffd8963efd1fc6a506488495d951d5263988d25",
        "nonce": "0xfb0",
        "chainId": "0x1"
      },
      "additionalContracts": [],
      "isFixedGasLimit": false
    },
    {
      "hash": null,
      "transactionType": "CALL",
      "contractName": "ChaosRouter",
      "contractAddress": "0x51017d5d1d2056e58c8e2226a0938d58d54e77dc",
      "function": "swap((address,address,uint24,int24,address),(bool,int256,uint160))",
      "arguments": [
        "(0x9ed4F4724b521326a9d9d2420252440bD05556c4, 0xD1620Dac6d79BE34F8500756B47cf91B1fA5Cc8C, 500, 5, 0x7e0C07EEabb2459D70dba5b8d100Dca44c652aC0)",
        "(false, 99127110, 1461446703485210103287273052203988822378723970341)"
      ],
      "transaction": {
        "from": "0x70997970c51812dc3a010c7d01b50e0d17dc79c8",
        "to": "0x51017d5d1d2056e58c8e2226a0938d58d54e77dc",
        "value": "0x0",
        "input": "0x1e2817de0000000000000000000000009ed4f4724b521326a9d9d2420252440bd05556c4000000000000000000000000d1620dac6d79be34f8500756b47cf91b1fa5cc8c00000000000000000000000000000000000000000000000000000000000001f400000000000000000000000000000000000000000000000000000000000000050000000000000000000000007e0c07eeabb2459d70dba5b8d100dca44c652ac000000000000000000000000000000000000000000000000000000000000000000000000000000000000000000000000000000000000000000000000005e88f46000000000000000000000000fffd8963efd1fc6a506488495d951d5263988d25",
        "nonce": "0xfb1",
        "chainId": "0x1"
      },
      "additionalContracts": [],
      "isFixedGasLimit": false
    },
    {
      "hash": null,
      "transactionType": "CALL",
      "contractName": "ChaosRouter",
      "contractAddress": "0x51017d5d1d2056e58c8e2226a0938d58d54e77dc",
      "function": "swap((address,address,uint24,int24,address),(bool,int256,uint160))",
      "arguments": [
        "(0x9ed4F4724b521326a9d9d2420252440bD05556c4, 0xD1620Dac6d79BE34F8500756B47cf91B1fA5Cc8C, 500, 5, 0x7e0C07EEabb2459D70dba5b8d100Dca44c652aC0)",
        "(true, 354912941, 4295128740)"
      ],
      "transaction": {
        "from": "0x70997970c51812dc3a010c7d01b50e0d17dc79c8",
        "to": "0x51017d5d1d2056e58c8e2226a0938d58d54e77dc",
        "value": "0x0",
        "input": "0x1e2817de0000000000000000000000009ed4f4724b521326a9d9d2420252440bd05556c4000000000000000000000000d1620dac6d79be34f8500756b47cf91b1fa5cc8c00000000000000000000000000000000000000000000000000000000000001f400000000000000000000000000000000000000000000000000000000000000050000000000000000000000007e0c07eeabb2459d70dba5b8d100dca44c652ac000000000000000000000000000000000000000000000000000000000000000010000000000000000000000000000000000000000000000000000000015278aad00000000000000000000000000000000000000000000000000000001000276a4",
        "nonce": "0xfb2",
        "chainId": "0x1"
      },
      "additionalContracts": [],
      "isFixedGasLimit": false
    },
    {
      "hash": null,
      "transactionType": "CALL",
      "contractName": "ChaosRouter",
      "contractAddress": "0x51017d5d1d2056e58c8e2226a0938d58d54e77dc",
      "function": "swap((address,address,uint24,int24,address),(bool,int256,uint160))",
      "arguments": [
        "(0x9ed4F4724b521326a9d9d2420252440bD05556c4, 0xD1620Dac6d79BE34F8500756B47cf91B1fA5Cc8C, 500, 5, 0x7e0C07EEabb2459D70dba5b8d100Dca44c652aC0)",
        "(false, 774536079, 1461446703485210103287273052203988822378723970341)"
      ],
      "transaction": {
        "from": "0x70997970c51812dc3a010c7d01b50e0d17dc79c8",
        "to": "0x51017d5d1d2056e58c8e2226a0938d58d54e77dc",
        "value": "0x0",
        "input": "0x1e2817de0000000000000000000000009ed4f4724b521326a9d9d2420252440bd05556c4000000000000000000000000d1620dac6d79be34f8500756b47cf91b1fa5cc8c00000000000000000000000000000000000000000000000000000000000001f400000000000000000000000000000000000000000000000000000000000000050000000000000000000000007e0c07eeabb2459d70dba5b8d100dca44c652ac00000000000000000000000000000000000000000000000000000000000000000000000000000000000000000000000000000000000000000000000002e2a7b8f000000000000000000000000fffd8963efd1fc6a506488495d951d5263988d25",
        "nonce": "0xfb3",
        "chainId": "0x1"
      },
      "additionalContracts": [],
      "isFixedGasLimit": false
    },
    {
      "hash": null,
      "transactionType": "CALL",
      "contractName": "ChaosRouter",
      "contractAddress": "0x51017d5d1d2056e58c8e2226a0938d58d54e77dc",
      "function": "swap((address,address,uint24,int24,address),(bool,int256,uint160))",
      "arguments": [
        "(0x9ed4F4724b521326a9d9d2420252440bD05556c4, 0xD1620Dac6d79BE34F8500756B47cf91B1fA5Cc8C, 500, 5, 0x7e0C07EEabb2459D70dba5b8d100Dca44c652aC0)",
        "(true, -1000000, 4295128740)"
      ],
      "transaction": {
        "from": "0x70997970c51812dc3a010c7d01b50e0d17dc79c8",
        "to": "0x51017d5d1d2056e58c8e2226a0938d58d54e77dc",
        "value": "0x0",
        "input": "0x1e2817de0000000000000000000000009ed4f4724b521326a9d9d2420252440bd05556c4000000000000000000000000d1620dac6d79be34f8500756b47cf91b1fa5cc8c00000000000000000000000000000000000000000000000000000000000001f400000000000000000000000000000000000000000000000000000000000000050000000000000000000000007e0c07eeabb2459d70dba5b8d100dca44c652ac00000000000000000000000000000000000000000000000000000000000000001fffffffffffffffffffffffffffffffffffffffffffffffffffffffffff0bdc000000000000000000000000000000000000000000000000000000001000276a4",
        "nonce": "0xfb4",
        "chainId": "0x1"
      },
      "additionalContracts": [],
      "isFixedGasLimit": false
    },
    {
      "hash": null,
      "transactionType": "CALL",
      "contractName": "ChaosRouter",
      "contractAddress": "0x51017d5d1d2056e58c8e2226a0938d58d54e77dc",
      "function": "swap((address,address,uint24,int24,address),(bool,int256,uint160))",
      "arguments": [
        "(0x9ed4F4724b521326a9d9d2420252440bD05556c4, 0xD1620Dac6d79BE34F8500756B47cf91B1fA5Cc8C, 500, 5, 0x7e0C07EEabb2459D70dba5b8d100Dca44c652aC0)",
        "(false, 377190365, 1461446703485210103287273052203988822378723970341)"
      ],
      "transaction": {
        "from": "0x70997970c51812dc3a010c7d01b50e0d17dc79c8",
        "to": "0x51017d5d1d2056e58c8e2226a0938d58d54e77dc",
        "value": "0x0",
        "input": "0x1e2817de0000000000000000000000009ed4f4724b521326a9d9d2420252440bd05556c4000000000000000000000000d1620dac6d79be34f8500756b47cf91b1fa5cc8c00000000000000000000000000000000000000000000000000000000000001f400000000000000000000000000000000000000000000000000000000000000050000000000000000000000007e0c07eeabb2459d70dba5b8d100dca44c652ac0000000000000000000000000000000000000000000000000000000000000000000000000000000000000000000000000000000000000000000000000167b77dd000000000000000000000000fffd8963efd1fc6a506488495d951d5263988d25",
        "nonce": "0xfb5",
        "chainId": "0x1"
      },
      "additionalContracts": [],
      "isFixedGasLimit": false
    },
    {
      "hash": null,
      "transactionType": "CALL",
      "contractName": "ChaosRouter",
      "contractAddress": "0x51017d5d1d2056e58c8e2226a0938d58d54e77dc",
      "function": "swap((address,address,uint24,int24,address),(bool,int256,uint160))",
      "arguments": [
        "(0x9ed4F4724b521326a9d9d2420252440bD05556c4, 0xD1620Dac6d79BE34F8500756B47cf91B1fA5Cc8C, 500, 5, 0x7e0C07EEabb2459D70dba5b8d100Dca44c652aC0)",
        "(true, -100524534, 4295128740)"
      ],
      "transaction": {
        "from": "0x70997970c51812dc3a010c7d01b50e0d17dc79c8",
        "to": "0x51017d5d1d2056e58c8e2226a0938d58d54e77dc",
        "value": "0x0",
        "input": "0x1e2817de0000000000000000000000009ed4f4724b521326a9d9d2420252440bd05556c4000000000000000000000000d1620dac6d79be34f8500756b47cf91b1fa5cc8c00000000000000000000000000000000000000000000000000000000000001f400000000000000000000000000000000000000000000000000000000000000050000000000000000000000007e0c07eeabb2459d70dba5b8d100dca44c652ac00000000000000000000000000000000000000000000000000000000000000001fffffffffffffffffffffffffffffffffffffffffffffffffffffffffa021e0a00000000000000000000000000000000000000000000000000000001000276a4",
        "nonce": "0xfb6",
        "chainId": "0x1"
      },
      "additionalContracts": [],
      "isFixedGasLimit": false
    },
    {
      "hash": null,
      "transactionType": "CALL",
      "contractName": "ChaosRouter",
      "contractAddress": "0x51017d5d1d2056e58c8e2226a0938d58d54e77dc",
      "function": "swap((address,address,uint24,int24,address),(bool,int256,uint160))",
      "arguments": [
        "(0x9ed4F4724b521326a9d9d2420252440bD05556c4, 0xD1620Dac6d79BE34F8500756B47cf91B1fA5Cc8C, 500, 5, 0x7e0C07EEabb2459D70dba5b8d100Dca44c652aC0)",
        "(false, 112885880, 1461446703485210103287273052203988822378723970341)"
      ],
      "transaction": {
        "from": "0x70997970c51812dc3a010c7d01b50e0d17dc79c8",
        "to": "0x51017d5d1d2056e58c8e2226a0938d58d54e77dc",
        "value": "0x0",
        "input": "0x1e2817de0000000000000000000000009ed4f4724b521326a9d9d2420252440bd05556c4000000000000000000000000d1620dac6d79be34f8500756b47cf91b1fa5cc8c00000000000000000000000000000000000000000000000000000000000001f400000000000000000000000000000000000000000000000000000000000000050000000000000000000000007e0c07eeabb2459d70dba5b8d100dca44c652ac000000000000000000000000000000000000000000000000000000000000000000000000000000000000000000000000000000000000000000000000006ba8078000000000000000000000000fffd8963efd1fc6a506488495d951d5263988d25",
        "nonce": "0xfb7",
        "chainId": "0x1"
      },
      "additionalContracts": [],
      "isFixedGasLimit": false
    },
    {
      "hash": null,
      "transactionType": "CALL",
      "contractName": "ChaosRouter",
      "contractAddress": "0x51017d5d1d2056e58c8e2226a0938d58d54e77dc",
      "function": "swap((address,address,uint24,int24,address),(bool,int256,uint160))",
      "arguments": [
        "(0x9ed4F4724b521326a9d9d2420252440bD05556c4, 0xD1620Dac6d79BE34F8500756B47cf91B1fA5Cc8C, 500, 5, 0x7e0C07EEabb2459D70dba5b8d100Dca44c652aC0)",
        "(true, 955474937, 4295128740)"
      ],
      "transaction": {
        "from": "0x70997970c51812dc3a010c7d01b50e0d17dc79c8",
        "to": "0x51017d5d1d2056e58c8e2226a0938d58d54e77dc",
        "value": "0x0",
        "input": "0x1e2817de0000000000000000000000009ed4f4724b521326a9d9d2420252440bd05556c4000000000000000000000000d1620dac6d79be34f8500756b47cf91b1fa5cc8c00000000000000000000000000000000000000000000000000000000000001f400000000000000000000000000000000000000000000000000000000000000050000000000000000000000007e0c07eeabb2459d70dba5b8d100dca44c652ac000000000000000000000000000000000000000000000000000000000000000010000000000000000000000000000000000000000000000000000000038f363f900000000000000000000000000000000000000000000000000000001000276a4",
        "nonce": "0xfb8",
        "chainId": "0x1"
      },
      "additionalContracts": [],
      "isFixedGasLimit": false
    },
    {
      "hash": null,
      "transactionType": "CALL",
      "contractName": "ChaosRouter",
      "contractAddress": "0x51017d5d1d2056e58c8e2226a0938d58d54e77dc",
      "function": "swap((address,address,uint24,int24,address),(bool,int256,uint160))",
      "arguments": [
        "(0x9ed4F4724b521326a9d9d2420252440bD05556c4, 0xD1620Dac6d79BE34F8500756B47cf91B1fA5Cc8C, 500, 5, 0x7e0C07EEabb2459D70dba5b8d100Dca44c652aC0)",
        "(true, 501807895, 4295128740)"
      ],
      "transaction": {
        "from": "0x70997970c51812dc3a010c7d01b50e0d17dc79c8",
        "to": "0x51017d5d1d2056e58c8e2226a0938d58d54e77dc",
        "value": "0x0",
        "input": "0x1e2817de0000000000000000000000009ed4f4724b521326a9d9d2420252440bd05556c4000000000000000000000000d1620dac6d79be34f8500756b47cf91b1fa5cc8c00000000000000000000000000000000000000000000000000000000000001f400000000000000000000000000000000000000000000000000000000000000050000000000000000000000007e0c07eeabb2459d70dba5b8d100dca44c652ac00000000000000000000000000000000000000000000000000000000000000001000000000000000000000000000000000000000000000000000000001de8fb1700000000000000000000000000000000000000000000000000000001000276a4",
        "nonce": "0xfb9",
        "chainId": "0x1"
      },
      "additionalContracts": [],
      "isFixedGasLimit": false
    },
    {
      "hash": null,
      "transactionType": "CALL",
      "contractName": "ChaosRouter",
      "contractAddress": "0x51017d5d1d2056e58c8e2226a0938d58d54e77dc",
      "function": "swap((address,address,uint24,int24,address),(bool,int256,uint160))",
      "arguments": [
        "(0x9ed4F4724b521326a9d9d2420252440bD05556c4, 0xD1620Dac6d79BE34F8500756B47cf91B1fA5Cc8C, 500, 5, 0x7e0C07EEabb2459D70dba5b8d100Dca44c652aC0)",
        "(false, -852661799, 1461446703485210103287273052203988822378723970341)"
      ],
      "transaction": {
        "from": "0x70997970c51812dc3a010c7d01b50e0d17dc79c8",
        "to": "0x51017d5d1d2056e58c8e2226a0938d58d54e77dc",
        "value": "0x0",
        "input": "0x1e2817de0000000000000000000000009ed4f4724b521326a9d9d2420252440bd05556c4000000000000000000000000d1620dac6d79be34f8500756b47cf91b1fa5cc8c00000000000000000000000000000000000000000000000000000000000001f400000000000000000000000000000000000000000000000000000000000000050000000000000000000000007e0c07eeabb2459d70dba5b8d100dca44c652ac00000000000000000000000000000000000000000000000000000000000000000ffffffffffffffffffffffffffffffffffffffffffffffffffffffffcd2d69d9000000000000000000000000fffd8963efd1fc6a506488495d951d5263988d25",
        "nonce": "0xfba",
        "chainId": "0x1"
      },
      "additionalContracts": [],
      "isFixedGasLimit": false
    },
    {
      "hash": null,
      "transactionType": "CALL",
      "contractName": "ChaosRouter",
      "contractAddress": "0x51017d5d1d2056e58c8e2226a0938d58d54e77dc",
      "function": "swap((address,address,uint24,int24,address),(bool,int256,uint160))",
      "arguments": [
        "(0x9ed4F4724b521326a9d9d2420252440bD05556c4, 0xD1620Dac6d79BE34F8500756B47cf91B1fA5Cc8C, 500, 5, 0x7e0C07EEabb2459D70dba5b8d100Dca44c652aC0)",
        "(false, -318678936, 1461446703485210103287273052203988822378723970341)"
      ],
      "transaction": {
        "from": "0x70997970c51812dc3a010c7d01b50e0d17dc79c8",
        "to": "0x51017d5d1d2056e58c8e2226a0938d58d54e77dc",
        "value": "0x0",
        "input": "0x1e2817de0000000000000000000000009ed4f4724b521326a9d9d2420252440bd05556c4000000000000000000000000d1620dac6d79be34f8500756b47cf91b1fa5cc8c00000000000000000000000000000000000000000000000000000000000001f400000000000000000000000000000000000000000000000000000000000000050000000000000000000000007e0c07eeabb2459d70dba5b8d100dca44c652ac00000000000000000000000000000000000000000000000000000000000000000ffffffffffffffffffffffffffffffffffffffffffffffffffffffffed015868000000000000000000000000fffd8963efd1fc6a506488495d951d5263988d25",
        "nonce": "0xfbb",
        "chainId": "0x1"
      },
      "additionalContracts": [],
      "isFixedGasLimit": false
    },
    {
      "hash": null,
      "transactionType": "CALL",
      "contractName": "ChaosRouter",
      "contractAddress": "0x51017d5d1d2056e58c8e2226a0938d58d54e77dc",
      "function": "swap((address,address,uint24,int24,address),(bool,int256,uint160))",
      "arguments": [
        "(0x9ed4F4724b521326a9d9d2420252440bD05556c4, 0xD1620Dac6d79BE34F8500756B47cf91B1fA5Cc8C, 500, 5, 0x7e0C07EEabb2459D70dba5b8d100Dca44c652aC0)",
        "(false, 411353886, 1461446703485210103287273052203988822378723970341)"
      ],
      "transaction": {
        "from": "0x70997970c51812dc3a010c7d01b50e0d17dc79c8",
        "to": "0x51017d5d1d2056e58c8e2226a0938d58d54e77dc",
        "value": "0x0",
        "input": "0x1e2817de0000000000000000000000009ed4f4724b521326a9d9d2420252440bd05556c4000000000000000000000000d1620dac6d79be34f8500756b47cf91b1fa5cc8c00000000000000000000000000000000000000000000000000000000000001f400000000000000000000000000000000000000000000000000000000000000050000000000000000000000007e0c07eeabb2459d70dba5b8d100dca44c652ac00000000000000000000000000000000000000000000000000000000000000000000000000000000000000000000000000000000000000000000000001884c31e000000000000000000000000fffd8963efd1fc6a506488495d951d5263988d25",
        "nonce": "0xfbc",
        "chainId": "0x1"
      },
      "additionalContracts": [],
      "isFixedGasLimit": false
    },
    {
      "hash": null,
      "transactionType": "CALL",
      "contractName": "ChaosRouter",
      "contractAddress": "0x51017d5d1d2056e58c8e2226a0938d58d54e77dc",
      "function": "swap((address,address,uint24,int24,address),(bool,int256,uint160))",
      "arguments": [
        "(0x9ed4F4724b521326a9d9d2420252440bD05556c4, 0xD1620Dac6d79BE34F8500756B47cf91B1fA5Cc8C, 500, 5, 0x7e0C07EEabb2459D70dba5b8d100Dca44c652aC0)",
        "(true, -647462654, 4295128740)"
      ],
      "transaction": {
        "from": "0x70997970c51812dc3a010c7d01b50e0d17dc79c8",
        "to": "0x51017d5d1d2056e58c8e2226a0938d58d54e77dc",
        "value": "0x0",
        "input": "0x1e2817de0000000000000000000000009ed4f4724b521326a9d9d2420252440bd05556c4000000000000000000000000d1620dac6d79be34f8500756b47cf91b1fa5cc8c00000000000000000000000000000000000000000000000000000000000001f400000000000000000000000000000000000000000000000000000000000000050000000000000000000000007e0c07eeabb2459d70dba5b8d100dca44c652ac00000000000000000000000000000000000000000000000000000000000000001ffffffffffffffffffffffffffffffffffffffffffffffffffffffffd968810200000000000000000000000000000000000000000000000000000001000276a4",
        "nonce": "0xfbd",
        "chainId": "0x1"
      },
      "additionalContracts": [],
      "isFixedGasLimit": false
    },
    {
      "hash": null,
      "transactionType": "CALL",
      "contractName": "ChaosRouter",
      "contractAddress": "0x51017d5d1d2056e58c8e2226a0938d58d54e77dc",
      "function": "swap((address,address,uint24,int24,address),(bool,int256,uint160))",
      "arguments": [
        "(0x9ed4F4724b521326a9d9d2420252440bD05556c4, 0xD1620Dac6d79BE34F8500756B47cf91B1fA5Cc8C, 500, 5, 0x7e0C07EEabb2459D70dba5b8d100Dca44c652aC0)",
        "(true, -473263156, 4295128740)"
      ],
      "transaction": {
        "from": "0x70997970c51812dc3a010c7d01b50e0d17dc79c8",
        "to": "0x51017d5d1d2056e58c8e2226a0938d58d54e77dc",
        "value": "0x0",
        "input": "0x1e2817de0000000000000000000000009ed4f4724b521326a9d9d2420252440bd05556c4000000000000000000000000d1620dac6d79be34f8500756b47cf91b1fa5cc8c00000000000000000000000000000000000000000000000000000000000001f400000000000000000000000000000000000000000000000000000000000000050000000000000000000000007e0c07eeabb2459d70dba5b8d100dca44c652ac00000000000000000000000000000000000000000000000000000000000000001ffffffffffffffffffffffffffffffffffffffffffffffffffffffffe3ca93cc00000000000000000000000000000000000000000000000000000001000276a4",
        "nonce": "0xfbe",
        "chainId": "0x1"
      },
      "additionalContracts": [],
      "isFixedGasLimit": false
    },
    {
      "hash": null,
      "transactionType": "CALL",
      "contractName": "ChaosRouter",
      "contractAddress": "0x51017d5d1d2056e58c8e2226a0938d58d54e77dc",
      "function": "swap((address,address,uint24,int24,address),(bool,int256,uint160))",
      "arguments": [
        "(0x9ed4F4724b521326a9d9d2420252440bD05556c4, 0xD1620Dac6d79BE34F8500756B47cf91B1fA5Cc8C, 500, 5, 0x7e0C07EEabb2459D70dba5b8d100Dca44c652aC0)",
        "(false, 832879279, 1461446703485210103287273052203988822378723970341)"
      ],
      "transaction": {
        "from": "0x70997970c51812dc3a010c7d01b50e0d17dc79c8",
        "to": "0x51017d5d1d2056e58c8e2226a0938d58d54e77dc",
        "value": "0x0",
        "input": "0x1e2817de0000000000000000000000009ed4f4724b521326a9d9d2420252440bd05556c4000000000000000000000000d1620dac6d79be34f8500756b47cf91b1fa5cc8c00000000000000000000000000000000000000000000000000000000000001f400000000000000000000000000000000000000000000000000000000000000050000000000000000000000007e0c07eeabb2459d70dba5b8d100dca44c652ac000000000000000000000000000000000000000000000000000000000000000000000000000000000000000000000000000000000000000000000000031a4baaf000000000000000000000000fffd8963efd1fc6a506488495d951d5263988d25",
        "nonce": "0xfbf",
        "chainId": "0x1"
      },
      "additionalContracts": [],
      "isFixedGasLimit": false
    },
    {
      "hash": null,
      "transactionType": "CALL",
      "contractName": "ChaosRouter",
      "contractAddress": "0x51017d5d1d2056e58c8e2226a0938d58d54e77dc",
      "function": "swap((address,address,uint24,int24,address),(bool,int256,uint160))",
      "arguments": [
        "(0x9ed4F4724b521326a9d9d2420252440bD05556c4, 0xD1620Dac6d79BE34F8500756B47cf91B1fA5Cc8C, 500, 5, 0x7e0C07EEabb2459D70dba5b8d100Dca44c652aC0)",
        "(false, 491629608, 1461446703485210103287273052203988822378723970341)"
      ],
      "transaction": {
        "from": "0x70997970c51812dc3a010c7d01b50e0d17dc79c8",
        "to": "0x51017d5d1d2056e58c8e2226a0938d58d54e77dc",
        "value": "0x0",
        "input": "0x1e2817de0000000000000000000000009ed4f4724b521326a9d9d2420252440bd05556c4000000000000000000000000d1620dac6d79be34f8500756b47cf91b1fa5cc8c00000000000000000000000000000000000000000000000000000000000001f400000000000000000000000000000000000000000000000000000000000000050000000000000000000000007e0c07eeabb2459d70dba5b8d100dca44c652ac00000000000000000000000000000000000000000000000000000000000000000000000000000000000000000000000000000000000000000000000001d4dac28000000000000000000000000fffd8963efd1fc6a506488495d951d5263988d25",
        "nonce": "0xfc0",
        "chainId": "0x1"
      },
      "additionalContracts": [],
      "isFixedGasLimit": false
    },
    {
      "hash": null,
      "transactionType": "CALL",
      "contractName": "ChaosRouter",
      "contractAddress": "0x51017d5d1d2056e58c8e2226a0938d58d54e77dc",
      "function": "swap((address,address,uint24,int24,address),(bool,int256,uint160))",
      "arguments": [
        "(0x9ed4F4724b521326a9d9d2420252440bD05556c4, 0xD1620Dac6d79BE34F8500756B47cf91B1fA5Cc8C, 500, 5, 0x7e0C07EEabb2459D70dba5b8d100Dca44c652aC0)",
        "(false, 88178235, 1461446703485210103287273052203988822378723970341)"
      ],
      "transaction": {
        "from": "0x70997970c51812dc3a010c7d01b50e0d17dc79c8",
        "to": "0x51017d5d1d2056e58c8e2226a0938d58d54e77dc",
        "value": "0x0",
        "input": "0x1e2817de0000000000000000000000009ed4f4724b521326a9d9d2420252440bd05556c4000000000000000000000000d1620dac6d79be34f8500756b47cf91b1fa5cc8c00000000000000000000000000000000000000000000000000000000000001f400000000000000000000000000000000000000000000000000000000000000050000000000000000000000007e0c07eeabb2459d70dba5b8d100dca44c652ac000000000000000000000000000000000000000000000000000000000000000000000000000000000000000000000000000000000000000000000000005417e3b000000000000000000000000fffd8963efd1fc6a506488495d951d5263988d25",
        "nonce": "0xfc1",
        "chainId": "0x1"
      },
      "additionalContracts": [],
      "isFixedGasLimit": false
    },
    {
      "hash": null,
      "transactionType": "CALL",
      "contractName": "ChaosRouter",
      "contractAddress": "0x51017d5d1d2056e58c8e2226a0938d58d54e77dc",
      "function": "swap((address,address,uint24,int24,address),(bool,int256,uint160))",
      "arguments": [
        "(0x9ed4F4724b521326a9d9d2420252440bD05556c4, 0xD1620Dac6d79BE34F8500756B47cf91B1fA5Cc8C, 500, 5, 0x7e0C07EEabb2459D70dba5b8d100Dca44c652aC0)",
        "(false, 330142801, 1461446703485210103287273052203988822378723970341)"
      ],
      "transaction": {
        "from": "0x70997970c51812dc3a010c7d01b50e0d17dc79c8",
        "to": "0x51017d5d1d2056e58c8e2226a0938d58d54e77dc",
        "value": "0x0",
        "input": "0x1e2817de0000000000000000000000009ed4f4724b521326a9d9d2420252440bd05556c4000000000000000000000000d1620dac6d79be34f8500756b47cf91b1fa5cc8c00000000000000000000000000000000000000000000000000000000000001f400000000000000000000000000000000000000000000000000000000000000050000000000000000000000007e0c07eeabb2459d70dba5b8d100dca44c652ac000000000000000000000000000000000000000000000000000000000000000000000000000000000000000000000000000000000000000000000000013ad9451000000000000000000000000fffd8963efd1fc6a506488495d951d5263988d25",
        "nonce": "0xfc2",
        "chainId": "0x1"
      },
      "additionalContracts": [],
      "isFixedGasLimit": false
    },
    {
      "hash": null,
      "transactionType": "CALL",
      "contractName": "ChaosRouter",
      "contractAddress": "0x51017d5d1d2056e58c8e2226a0938d58d54e77dc",
      "function": "swap((address,address,uint24,int24,address),(bool,int256,uint160))",
      "arguments": [
        "(0x9ed4F4724b521326a9d9d2420252440bD05556c4, 0xD1620Dac6d79BE34F8500756B47cf91B1fA5Cc8C, 500, 5, 0x7e0C07EEabb2459D70dba5b8d100Dca44c652aC0)",
        "(false, -59088842, 1461446703485210103287273052203988822378723970341)"
      ],
      "transaction": {
        "from": "0x70997970c51812dc3a010c7d01b50e0d17dc79c8",
        "to": "0x51017d5d1d2056e58c8e2226a0938d58d54e77dc",
        "value": "0x0",
        "input": "0x1e2817de0000000000000000000000009ed4f4724b521326a9d9d2420252440bd05556c4000000000000000000000000d1620dac6d79be34f8500756b47cf91b1fa5cc8c00000000000000000000000000000000000000000000000000000000000001f400000000000000000000000000000000000000000000000000000000000000050000000000000000000000007e0c07eeabb2459d70dba5b8d100dca44c652ac00000000000000000000000000000000000000000000000000000000000000000fffffffffffffffffffffffffffffffffffffffffffffffffffffffffc7a6036000000000000000000000000fffd8963efd1fc6a506488495d951d5263988d25",
        "nonce": "0xfc3",
        "chainId": "0x1"
      },
      "additionalContracts": [],
      "isFixedGasLimit": false
    },
    {
      "hash": null,
      "transactionType": "CALL",
      "contractName": "ChaosRouter",
      "contractAddress": "0x51017d5d1d2056e58c8e2226a0938d58d54e77dc",
      "function": "swap((address,address,uint24,int24,address),(bool,int256,uint160))",
      "arguments": [
        "(0x9ed4F4724b521326a9d9d2420252440bD05556c4, 0xD1620Dac6d79BE34F8500756B47cf91B1fA5Cc8C, 500, 5, 0x7e0C07EEabb2459D70dba5b8d100Dca44c652aC0)",
        "(false, -833840550, 1461446703485210103287273052203988822378723970341)"
      ],
      "transaction": {
        "from": "0x70997970c51812dc3a010c7d01b50e0d17dc79c8",
        "to": "0x51017d5d1d2056e58c8e2226a0938d58d54e77dc",
        "value": "0x0",
        "input": "0x1e2817de0000000000000000000000009ed4f4724b521326a9d9d2420252440bd05556c4000000000000000000000000d1620dac6d79be34f8500756b47cf91b1fa5cc8c00000000000000000000000000000000000000000000000000000000000001f400000000000000000000000000000000000000000000000000000000000000050000000000000000000000007e0c07eeabb2459d70dba5b8d100dca44c652ac00000000000000000000000000000000000000000000000000000000000000000ffffffffffffffffffffffffffffffffffffffffffffffffffffffffce4c9a5a000000000000000000000000fffd8963efd1fc6a506488495d951d5263988d25",
        "nonce": "0xfc4",
        "chainId": "0x1"
      },
      "additionalContracts": [],
      "isFixedGasLimit": false
    },
    {
      "hash": null,
      "transactionType": "CALL",
      "contractName": "ChaosRouter",
      "contractAddress": "0x51017d5d1d2056e58c8e2226a0938d58d54e77dc",
      "function": "swap((address,address,uint24,int24,address),(bool,int256,uint160))",
      "arguments": [
        "(0x9ed4F4724b521326a9d9d2420252440bD05556c4, 0xD1620Dac6d79BE34F8500756B47cf91B1fA5Cc8C, 500, 5, 0x7e0C07EEabb2459D70dba5b8d100Dca44c652aC0)",
        "(false, 673743879, 1461446703485210103287273052203988822378723970341)"
      ],
      "transaction": {
        "from": "0x70997970c51812dc3a010c7d01b50e0d17dc79c8",
        "to": "0x51017d5d1d2056e58c8e2226a0938d58d54e77dc",
        "value": "0x0",
        "input": "0x1e2817de0000000000000000000000009ed4f4724b521326a9d9d2420252440bd05556c4000000000000000000000000d1620dac6d79be34f8500756b47cf91b1fa5cc8c00000000000000000000000000000000000000000000000000000000000001f400000000000000000000000000000000000000000000000000000000000000050000000000000000000000007e0c07eeabb2459d70dba5b8d100dca44c652ac000000000000000000000000000000000000000000000000000000000000000000000000000000000000000000000000000000000000000000000000028288407000000000000000000000000fffd8963efd1fc6a506488495d951d5263988d25",
        "nonce": "0xfc5",
        "chainId": "0x1"
      },
      "additionalContracts": [],
      "isFixedGasLimit": false
    },
    {
      "hash": null,
      "transactionType": "CALL",
      "contractName": "ChaosRouter",
      "contractAddress": "0x51017d5d1d2056e58c8e2226a0938d58d54e77dc",
      "function": "swap((address,address,uint24,int24,address),(bool,int256,uint160))",
      "arguments": [
        "(0x9ed4F4724b521326a9d9d2420252440bD05556c4, 0xD1620Dac6d79BE34F8500756B47cf91B1fA5Cc8C, 500, 5, 0x7e0C07EEabb2459D70dba5b8d100Dca44c652aC0)",
        "(false, -294690788, 1461446703485210103287273052203988822378723970341)"
      ],
      "transaction": {
        "from": "0x70997970c51812dc3a010c7d01b50e0d17dc79c8",
        "to": "0x51017d5d1d2056e58c8e2226a0938d58d54e77dc",
        "value": "0x0",
        "input": "0x1e2817de0000000000000000000000009ed4f4724b521326a9d9d2420252440bd05556c4000000000000000000000000d1620dac6d79be34f8500756b47cf91b1fa5cc8c00000000000000000000000000000000000000000000000000000000000001f400000000000000000000000000000000000000000000000000000000000000050000000000000000000000007e0c07eeabb2459d70dba5b8d100dca44c652ac00000000000000000000000000000000000000000000000000000000000000000ffffffffffffffffffffffffffffffffffffffffffffffffffffffffee6f601c000000000000000000000000fffd8963efd1fc6a506488495d951d5263988d25",
        "nonce": "0xfc6",
        "chainId": "0x1"
      },
      "additionalContracts": [],
      "isFixedGasLimit": false
    },
    {
      "hash": null,
      "transactionType": "CALL",
      "contractName": "ChaosRouter",
      "contractAddress": "0x51017d5d1d2056e58c8e2226a0938d58d54e77dc",
      "function": "swap((address,address,uint24,int24,address),(bool,int256,uint160))",
      "arguments": [
        "(0x9ed4F4724b521326a9d9d2420252440bD05556c4, 0xD1620Dac6d79BE34F8500756B47cf91B1fA5Cc8C, 500, 5, 0x7e0C07EEabb2459D70dba5b8d100Dca44c652aC0)",
        "(true, -448743235, 4295128740)"
      ],
      "transaction": {
        "from": "0x70997970c51812dc3a010c7d01b50e0d17dc79c8",
        "to": "0x51017d5d1d2056e58c8e2226a0938d58d54e77dc",
        "value": "0x0",
        "input": "0x1e2817de0000000000000000000000009ed4f4724b521326a9d9d2420252440bd05556c4000000000000000000000000d1620dac6d79be34f8500756b47cf91b1fa5cc8c00000000000000000000000000000000000000000000000000000000000001f400000000000000000000000000000000000000000000000000000000000000050000000000000000000000007e0c07eeabb2459d70dba5b8d100dca44c652ac00000000000000000000000000000000000000000000000000000000000000001ffffffffffffffffffffffffffffffffffffffffffffffffffffffffe540b8bd00000000000000000000000000000000000000000000000000000001000276a4",
        "nonce": "0xfc7",
        "chainId": "0x1"
      },
      "additionalContracts": [],
      "isFixedGasLimit": false
    },
    {
      "hash": null,
      "transactionType": "CALL",
      "contractName": "ChaosRouter",
      "contractAddress": "0x51017d5d1d2056e58c8e2226a0938d58d54e77dc",
      "function": "swap((address,address,uint24,int24,address),(bool,int256,uint160))",
      "arguments": [
        "(0x9ed4F4724b521326a9d9d2420252440bD05556c4, 0xD1620Dac6d79BE34F8500756B47cf91B1fA5Cc8C, 500, 5, 0x7e0C07EEabb2459D70dba5b8d100Dca44c652aC0)",
        "(false, -645927701, 1461446703485210103287273052203988822378723970341)"
      ],
      "transaction": {
        "from": "0x70997970c51812dc3a010c7d01b50e0d17dc79c8",
        "to": "0x51017d5d1d2056e58c8e2226a0938d58d54e77dc",
        "value": "0x0",
        "input": "0x1e2817de0000000000000000000000009ed4f4724b521326a9d9d2420252440bd05556c4000000000000000000000000d1620dac6d79be34f8500756b47cf91b1fa5cc8c00000000000000000000000000000000000000000000000000000000000001f400000000000000000000000000000000000000000000000000000000000000050000000000000000000000007e0c07eeabb2459d70dba5b8d100dca44c652ac00000000000000000000000000000000000000000000000000000000000000000ffffffffffffffffffffffffffffffffffffffffffffffffffffffffd97feceb000000000000000000000000fffd8963efd1fc6a506488495d951d5263988d25",
        "nonce": "0xfc8",
        "chainId": "0x1"
      },
      "additionalContracts": [],
      "isFixedGasLimit": false
    },
    {
      "hash": null,
      "transactionType": "CALL",
      "contractName": "ChaosRouter",
      "contractAddress": "0x51017d5d1d2056e58c8e2226a0938d58d54e77dc",
      "function": "swap((address,address,uint24,int24,address),(bool,int256,uint160))",
      "arguments": [
        "(0x9ed4F4724b521326a9d9d2420252440bD05556c4, 0xD1620Dac6d79BE34F8500756B47cf91B1fA5Cc8C, 500, 5, 0x7e0C07EEabb2459D70dba5b8d100Dca44c652aC0)",
        "(true, -590435584, 4295128740)"
      ],
      "transaction": {
        "from": "0x70997970c51812dc3a010c7d01b50e0d17dc79c8",
        "to": "0x51017d5d1d2056e58c8e2226a0938d58d54e77dc",
        "value": "0x0",
        "input": "0x1e2817de0000000000000000000000009ed4f4724b521326a9d9d2420252440bd05556c4000000000000000000000000d1620dac6d79be34f8500756b47cf91b1fa5cc8c00000000000000000000000000000000000000000000000000000000000001f400000000000000000000000000000000000000000000000000000000000000050000000000000000000000007e0c07eeabb2459d70dba5b8d100dca44c652ac00000000000000000000000000000000000000000000000000000000000000001ffffffffffffffffffffffffffffffffffffffffffffffffffffffffdcceab0000000000000000000000000000000000000000000000000000000001000276a4",
        "nonce": "0xfc9",
        "chainId": "0x1"
      },
      "additionalContracts": [],
      "isFixedGasLimit": false
    },
    {
      "hash": null,
      "transactionType": "CALL",
      "contractName": "ChaosRouter",
      "contractAddress": "0x51017d5d1d2056e58c8e2226a0938d58d54e77dc",
      "function": "swap((address,address,uint24,int24,address),(bool,int256,uint160))",
      "arguments": [
        "(0x9ed4F4724b521326a9d9d2420252440bD05556c4, 0xD1620Dac6d79BE34F8500756B47cf91B1fA5Cc8C, 500, 5, 0x7e0C07EEabb2459D70dba5b8d100Dca44c652aC0)",
        "(true, -4655281345, 4295128740)"
      ],
      "transaction": {
        "from": "0x70997970c51812dc3a010c7d01b50e0d17dc79c8",
        "to": "0x51017d5d1d2056e58c8e2226a0938d58d54e77dc",
        "value": "0x0",
        "input": "0x1e2817de0000000000000000000000009ed4f4724b521326a9d9d2420252440bd05556c4000000000000000000000000d1620dac6d79be34f8500756b47cf91b1fa5cc8c00000000000000000000000000000000000000000000000000000000000001f400000000000000000000000000000000000000000000000000000000000000050000000000000000000000007e0c07eeabb2459d70dba5b8d100dca44c652ac00000000000000000000000000000000000000000000000000000000000000001fffffffffffffffffffffffffffffffffffffffffffffffffffffffeea860b3f00000000000000000000000000000000000000000000000000000001000276a4",
        "nonce": "0xfca",
        "chainId": "0x1"
      },
      "additionalContracts": [],
      "isFixedGasLimit": false
    },
    {
      "hash": null,
      "transactionType": "CALL",
      "contractName": "ChaosRouter",
      "contractAddress": "0x51017d5d1d2056e58c8e2226a0938d58d54e77dc",
      "function": "swap((address,address,uint24,int24,address),(bool,int256,uint160))",
      "arguments": [
        "(0x9ed4F4724b521326a9d9d2420252440bD05556c4, 0xD1620Dac6d79BE34F8500756B47cf91B1fA5Cc8C, 500, 5, 0x7e0C07EEabb2459D70dba5b8d100Dca44c652aC0)",
        "(false, 400451759, 1461446703485210103287273052203988822378723970341)"
      ],
      "transaction": {
        "from": "0x70997970c51812dc3a010c7d01b50e0d17dc79c8",
        "to": "0x51017d5d1d2056e58c8e2226a0938d58d54e77dc",
        "value": "0x0",
        "input": "0x1e2817de0000000000000000000000009ed4f4724b521326a9d9d2420252440bd05556c4000000000000000000000000d1620dac6d79be34f8500756b47cf91b1fa5cc8c00000000000000000000000000000000000000000000000000000000000001f400000000000000000000000000000000000000000000000000000000000000050000000000000000000000007e0c07eeabb2459d70dba5b8d100dca44c652ac000000000000000000000000000000000000000000000000000000000000000000000000000000000000000000000000000000000000000000000000017de68af000000000000000000000000fffd8963efd1fc6a506488495d951d5263988d25",
        "nonce": "0xfcb",
        "chainId": "0x1"
      },
      "additionalContracts": [],
      "isFixedGasLimit": false
    },
    {
      "hash": null,
      "transactionType": "CALL",
      "contractName": "ChaosRouter",
      "contractAddress": "0x51017d5d1d2056e58c8e2226a0938d58d54e77dc",
      "function": "swap((address,address,uint24,int24,address),(bool,int256,uint160))",
      "arguments": [
        "(0x9ed4F4724b521326a9d9d2420252440bD05556c4, 0xD1620Dac6d79BE34F8500756B47cf91B1fA5Cc8C, 500, 5, 0x7e0C07EEabb2459D70dba5b8d100Dca44c652aC0)",
        "(true, -754688416, 4295128740)"
      ],
      "transaction": {
        "from": "0x70997970c51812dc3a010c7d01b50e0d17dc79c8",
        "to": "0x51017d5d1d2056e58c8e2226a0938d58d54e77dc",
        "value": "0x0",
        "input": "0x1e2817de0000000000000000000000009ed4f4724b521326a9d9d2420252440bd05556c4000000000000000000000000d1620dac6d79be34f8500756b47cf91b1fa5cc8c00000000000000000000000000000000000000000000000000000000000001f400000000000000000000000000000000000000000000000000000000000000050000000000000000000000007e0c07eeabb2459d70dba5b8d100dca44c652ac00000000000000000000000000000000000000000000000000000000000000001ffffffffffffffffffffffffffffffffffffffffffffffffffffffffd3045e6000000000000000000000000000000000000000000000000000000001000276a4",
        "nonce": "0xfcc",
        "chainId": "0x1"
      },
      "additionalContracts": [],
      "isFixedGasLimit": false
    },
    {
      "hash": null,
      "transactionType": "CALL",
      "contractName": "ChaosRouter",
      "contractAddress": "0x51017d5d1d2056e58c8e2226a0938d58d54e77dc",
      "function": "swap((address,address,uint24,int24,address),(bool,int256,uint160))",
      "arguments": [
        "(0x9ed4F4724b521326a9d9d2420252440bD05556c4, 0xD1620Dac6d79BE34F8500756B47cf91B1fA5Cc8C, 500, 5, 0x7e0C07EEabb2459D70dba5b8d100Dca44c652aC0)",
        "(false, -761068162, 1461446703485210103287273052203988822378723970341)"
      ],
      "transaction": {
        "from": "0x70997970c51812dc3a010c7d01b50e0d17dc79c8",
        "to": "0x51017d5d1d2056e58c8e2226a0938d58d54e77dc",
        "value": "0x0",
        "input": "0x1e2817de0000000000000000000000009ed4f4724b521326a9d9d2420252440bd05556c4000000000000000000000000d1620dac6d79be34f8500756b47cf91b1fa5cc8c00000000000000000000000000000000000000000000000000000000000001f400000000000000000000000000000000000000000000000000000000000000050000000000000000000000007e0c07eeabb2459d70dba5b8d100dca44c652ac00000000000000000000000000000000000000000000000000000000000000000ffffffffffffffffffffffffffffffffffffffffffffffffffffffffd2a3057e000000000000000000000000fffd8963efd1fc6a506488495d951d5263988d25",
        "nonce": "0xfcd",
        "chainId": "0x1"
      },
      "additionalContracts": [],
      "isFixedGasLimit": false
    },
    {
      "hash": null,
      "transactionType": "CALL",
      "contractName": "ChaosRouter",
      "contractAddress": "0x51017d5d1d2056e58c8e2226a0938d58d54e77dc",
      "function": "swap((address,address,uint24,int24,address),(bool,int256,uint160))",
      "arguments": [
        "(0x9ed4F4724b521326a9d9d2420252440bD05556c4, 0xD1620Dac6d79BE34F8500756B47cf91B1fA5Cc8C, 500, 5, 0x7e0C07EEabb2459D70dba5b8d100Dca44c652aC0)",
        "(true, -297057955, 4295128740)"
      ],
      "transaction": {
        "from": "0x70997970c51812dc3a010c7d01b50e0d17dc79c8",
        "to": "0x51017d5d1d2056e58c8e2226a0938d58d54e77dc",
        "value": "0x0",
        "input": "0x1e2817de0000000000000000000000009ed4f4724b521326a9d9d2420252440bd05556c4000000000000000000000000d1620dac6d79be34f8500756b47cf91b1fa5cc8c00000000000000000000000000000000000000000000000000000000000001f400000000000000000000000000000000000000000000000000000000000000050000000000000000000000007e0c07eeabb2459d70dba5b8d100dca44c652ac00000000000000000000000000000000000000000000000000000000000000001ffffffffffffffffffffffffffffffffffffffffffffffffffffffffee4b415d00000000000000000000000000000000000000000000000000000001000276a4",
        "nonce": "0xfce",
        "chainId": "0x1"
      },
      "additionalContracts": [],
      "isFixedGasLimit": false
    },
    {
      "hash": null,
      "transactionType": "CALL",
      "contractName": "ChaosRouter",
      "contractAddress": "0x51017d5d1d2056e58c8e2226a0938d58d54e77dc",
      "function": "swap((address,address,uint24,int24,address),(bool,int256,uint160))",
      "arguments": [
        "(0x9ed4F4724b521326a9d9d2420252440bD05556c4, 0xD1620Dac6d79BE34F8500756B47cf91B1fA5Cc8C, 500, 5, 0x7e0C07EEabb2459D70dba5b8d100Dca44c652aC0)",
        "(false, -226184294, 1461446703485210103287273052203988822378723970341)"
      ],
      "transaction": {
        "from": "0x70997970c51812dc3a010c7d01b50e0d17dc79c8",
        "to": "0x51017d5d1d2056e58c8e2226a0938d58d54e77dc",
        "value": "0x0",
        "input": "0x1e2817de0000000000000000000000009ed4f4724b521326a9d9d2420252440bd05556c4000000000000000000000000d1620dac6d79be34f8500756b47cf91b1fa5cc8c00000000000000000000000000000000000000000000000000000000000001f400000000000000000000000000000000000000000000000000000000000000050000000000000000000000007e0c07eeabb2459d70dba5b8d100dca44c652ac00000000000000000000000000000000000000000000000000000000000000000fffffffffffffffffffffffffffffffffffffffffffffffffffffffff284b39a000000000000000000000000fffd8963efd1fc6a506488495d951d5263988d25",
        "nonce": "0xfcf",
        "chainId": "0x1"
      },
      "additionalContracts": [],
      "isFixedGasLimit": false
    },
    {
      "hash": null,
      "transactionType": "CALL",
      "contractName": "ChaosRouter",
      "contractAddress": "0x51017d5d1d2056e58c8e2226a0938d58d54e77dc",
      "function": "swap((address,address,uint24,int24,address),(bool,int256,uint160))",
      "arguments": [
        "(0x9ed4F4724b521326a9d9d2420252440bD05556c4, 0xD1620Dac6d79BE34F8500756B47cf91B1fA5Cc8C, 500, 5, 0x7e0C07EEabb2459D70dba5b8d100Dca44c652aC0)",
        "(true, 529439133, 4295128740)"
      ],
      "transaction": {
        "from": "0x70997970c51812dc3a010c7d01b50e0d17dc79c8",
        "to": "0x51017d5d1d2056e58c8e2226a0938d58d54e77dc",
        "value": "0x0",
        "input": "0x1e2817de0000000000000000000000009ed4f4724b521326a9d9d2420252440bd05556c4000000000000000000000000d1620dac6d79be34f8500756b47cf91b1fa5cc8c00000000000000000000000000000000000000000000000000000000000001f400000000000000000000000000000000000000000000000000000000000000050000000000000000000000007e0c07eeabb2459d70dba5b8d100dca44c652ac00000000000000000000000000000000000000000000000000000000000000001000000000000000000000000000000000000000000000000000000001f8e999d00000000000000000000000000000000000000000000000000000001000276a4",
        "nonce": "0xfd0",
        "chainId": "0x1"
      },
      "additionalContracts": [],
      "isFixedGasLimit": false
    },
    {
      "hash": null,
      "transactionType": "CALL",
      "contractName": "ChaosRouter",
      "contractAddress": "0x51017d5d1d2056e58c8e2226a0938d58d54e77dc",
      "function": "swap((address,address,uint24,int24,address),(bool,int256,uint160))",
      "arguments": [
        "(0x9ed4F4724b521326a9d9d2420252440bD05556c4, 0xD1620Dac6d79BE34F8500756B47cf91B1fA5Cc8C, 500, 5, 0x7e0C07EEabb2459D70dba5b8d100Dca44c652aC0)",
        "(false, 267368733, 1461446703485210103287273052203988822378723970341)"
      ],
      "transaction": {
        "from": "0x70997970c51812dc3a010c7d01b50e0d17dc79c8",
        "to": "0x51017d5d1d2056e58c8e2226a0938d58d54e77dc",
        "value": "0x0",
        "input": "0x1e2817de0000000000000000000000009ed4f4724b521326a9d9d2420252440bd05556c4000000000000000000000000d1620dac6d79be34f8500756b47cf91b1fa5cc8c00000000000000000000000000000000000000000000000000000000000001f400000000000000000000000000000000000000000000000000000000000000050000000000000000000000007e0c07eeabb2459d70dba5b8d100dca44c652ac00000000000000000000000000000000000000000000000000000000000000000000000000000000000000000000000000000000000000000000000000fefb91d000000000000000000000000fffd8963efd1fc6a506488495d951d5263988d25",
        "nonce": "0xfd1",
        "chainId": "0x1"
      },
      "additionalContracts": [],
      "isFixedGasLimit": false
    },
    {
      "hash": null,
      "transactionType": "CALL",
      "contractName": "ChaosRouter",
      "contractAddress": "0x51017d5d1d2056e58c8e2226a0938d58d54e77dc",
      "function": "swap((address,address,uint24,int24,address),(bool,int256,uint160))",
      "arguments": [
        "(0x9ed4F4724b521326a9d9d2420252440bD05556c4, 0xD1620Dac6d79BE34F8500756B47cf91B1fA5Cc8C, 500, 5, 0x7e0C07EEabb2459D70dba5b8d100Dca44c652aC0)",
        "(false, -680613473, 1461446703485210103287273052203988822378723970341)"
      ],
      "transaction": {
        "from": "0x70997970c51812dc3a010c7d01b50e0d17dc79c8",
        "to": "0x51017d5d1d2056e58c8e2226a0938d58d54e77dc",
        "value": "0x0",
        "input": "0x1e2817de0000000000000000000000009ed4f4724b521326a9d9d2420252440bd05556c4000000000000000000000000d1620dac6d79be34f8500756b47cf91b1fa5cc8c00000000000000000000000000000000000000000000000000000000000001f400000000000000000000000000000000000000000000000000000000000000050000000000000000000000007e0c07eeabb2459d70dba5b8d100dca44c652ac00000000000000000000000000000000000000000000000000000000000000000ffffffffffffffffffffffffffffffffffffffffffffffffffffffffd76ea99f000000000000000000000000fffd8963efd1fc6a506488495d951d5263988d25",
        "nonce": "0xfd2",
        "chainId": "0x1"
      },
      "additionalContracts": [],
      "isFixedGasLimit": false
    },
    {
      "hash": null,
      "transactionType": "CALL",
      "contractName": "ChaosRouter",
      "contractAddress": "0x51017d5d1d2056e58c8e2226a0938d58d54e77dc",
      "function": "swap((address,address,uint24,int24,address),(bool,int256,uint160))",
      "arguments": [
        "(0x9ed4F4724b521326a9d9d2420252440bD05556c4, 0xD1620Dac6d79BE34F8500756B47cf91B1fA5Cc8C, 500, 5, 0x7e0C07EEabb2459D70dba5b8d100Dca44c652aC0)",
        "(true, -233204821, 4295128740)"
      ],
      "transaction": {
        "from": "0x70997970c51812dc3a010c7d01b50e0d17dc79c8",
        "to": "0x51017d5d1d2056e58c8e2226a0938d58d54e77dc",
        "value": "0x0",
        "input": "0x1e2817de0000000000000000000000009ed4f4724b521326a9d9d2420252440bd05556c4000000000000000000000000d1620dac6d79be34f8500756b47cf91b1fa5cc8c00000000000000000000000000000000000000000000000000000000000001f400000000000000000000000000000000000000000000000000000000000000050000000000000000000000007e0c07eeabb2459d70dba5b8d100dca44c652ac00000000000000000000000000000000000000000000000000000000000000001fffffffffffffffffffffffffffffffffffffffffffffffffffffffff21993ab00000000000000000000000000000000000000000000000000000001000276a4",
        "nonce": "0xfd3",
        "chainId": "0x1"
      },
      "additionalContracts": [],
      "isFixedGasLimit": false
    },
    {
      "hash": null,
      "transactionType": "CALL",
      "contractName": "ChaosRouter",
      "contractAddress": "0x51017d5d1d2056e58c8e2226a0938d58d54e77dc",
      "function": "swap((address,address,uint24,int24,address),(bool,int256,uint160))",
      "arguments": [
        "(0x9ed4F4724b521326a9d9d2420252440bD05556c4, 0xD1620Dac6d79BE34F8500756B47cf91B1fA5Cc8C, 500, 5, 0x7e0C07EEabb2459D70dba5b8d100Dca44c652aC0)",
        "(false, -560954550, 1461446703485210103287273052203988822378723970341)"
      ],
      "transaction": {
        "from": "0x70997970c51812dc3a010c7d01b50e0d17dc79c8",
        "to": "0x51017d5d1d2056e58c8e2226a0938d58d54e77dc",
        "value": "0x0",
        "input": "0x1e2817de0000000000000000000000009ed4f4724b521326a9d9d2420252440bd05556c4000000000000000000000000d1620dac6d79be34f8500756b47cf91b1fa5cc8c00000000000000000000000000000000000000000000000000000000000001f400000000000000000000000000000000000000000000000000000000000000050000000000000000000000007e0c07eeabb2459d70dba5b8d100dca44c652ac00000000000000000000000000000000000000000000000000000000000000000ffffffffffffffffffffffffffffffffffffffffffffffffffffffffde90834a000000000000000000000000fffd8963efd1fc6a506488495d951d5263988d25",
        "nonce": "0xfd4",
        "chainId": "0x1"
      },
      "additionalContracts": [],
      "isFixedGasLimit": false
    },
    {
      "hash": null,
      "transactionType": "CALL",
      "contractName": "ChaosRouter",
      "contractAddress": "0x51017d5d1d2056e58c8e2226a0938d58d54e77dc",
      "function": "swap((address,address,uint24,int24,address),(bool,int256,uint160))",
      "arguments": [
        "(0x9ed4F4724b521326a9d9d2420252440bD05556c4, 0xD1620Dac6d79BE34F8500756B47cf91B1fA5Cc8C, 500, 5, 0x7e0C07EEabb2459D70dba5b8d100Dca44c652aC0)",
        "(false, -1000000, 1461446703485210103287273052203988822378723970341)"
      ],
      "transaction": {
        "from": "0x70997970c51812dc3a010c7d01b50e0d17dc79c8",
        "to": "0x51017d5d1d2056e58c8e2226a0938d58d54e77dc",
        "value": "0x0",
        "input": "0x1e2817de0000000000000000000000009ed4f4724b521326a9d9d2420252440bd05556c4000000000000000000000000d1620dac6d79be34f8500756b47cf91b1fa5cc8c00000000000000000000000000000000000000000000000000000000000001f400000000000000000000000000000000000000000000000000000000000000050000000000000000000000007e0c07eeabb2459d70dba5b8d100dca44c652ac00000000000000000000000000000000000000000000000000000000000000000fffffffffffffffffffffffffffffffffffffffffffffffffffffffffff0bdc0000000000000000000000000fffd8963efd1fc6a506488495d951d5263988d25",
        "nonce": "0xfd5",
        "chainId": "0x1"
      },
      "additionalContracts": [],
      "isFixedGasLimit": false
    },
    {
      "hash": null,
      "transactionType": "CALL",
      "contractName": "ChaosRouter",
      "contractAddress": "0x51017d5d1d2056e58c8e2226a0938d58d54e77dc",
      "function": "swap((address,address,uint24,int24,address),(bool,int256,uint160))",
      "arguments": [
        "(0x9ed4F4724b521326a9d9d2420252440bD05556c4, 0xD1620Dac6d79BE34F8500756B47cf91B1fA5Cc8C, 500, 5, 0x7e0C07EEabb2459D70dba5b8d100Dca44c652aC0)",
        "(false, -644953897, 1461446703485210103287273052203988822378723970341)"
      ],
      "transaction": {
        "from": "0x70997970c51812dc3a010c7d01b50e0d17dc79c8",
        "to": "0x51017d5d1d2056e58c8e2226a0938d58d54e77dc",
        "value": "0x0",
        "input": "0x1e2817de0000000000000000000000009ed4f4724b521326a9d9d2420252440bd05556c4000000000000000000000000d1620dac6d79be34f8500756b47cf91b1fa5cc8c00000000000000000000000000000000000000000000000000000000000001f400000000000000000000000000000000000000000000000000000000000000050000000000000000000000007e0c07eeabb2459d70dba5b8d100dca44c652ac00000000000000000000000000000000000000000000000000000000000000000ffffffffffffffffffffffffffffffffffffffffffffffffffffffffd98ec8d7000000000000000000000000fffd8963efd1fc6a506488495d951d5263988d25",
        "nonce": "0xfd6",
        "chainId": "0x1"
      },
      "additionalContracts": [],
      "isFixedGasLimit": false
    },
    {
      "hash": null,
      "transactionType": "CALL",
      "contractName": "ChaosRouter",
      "contractAddress": "0x51017d5d1d2056e58c8e2226a0938d58d54e77dc",
      "function": "swap((address,address,uint24,int24,address),(bool,int256,uint160))",
      "arguments": [
        "(0x9ed4F4724b521326a9d9d2420252440bD05556c4, 0xD1620Dac6d79BE34F8500756B47cf91B1fA5Cc8C, 500, 5, 0x7e0C07EEabb2459D70dba5b8d100Dca44c652aC0)",
        "(true, -917481342, 4295128740)"
      ],
      "transaction": {
        "from": "0x70997970c51812dc3a010c7d01b50e0d17dc79c8",
        "to": "0x51017d5d1d2056e58c8e2226a0938d58d54e77dc",
        "value": "0x0",
        "input": "0x1e2817de0000000000000000000000009ed4f4724b521326a9d9d2420252440bd05556c4000000000000000000000000d1620dac6d79be34f8500756b47cf91b1fa5cc8c00000000000000000000000000000000000000000000000000000000000001f400000000000000000000000000000000000000000000000000000000000000050000000000000000000000007e0c07eeabb2459d70dba5b8d100dca44c652ac00000000000000000000000000000000000000000000000000000000000000001ffffffffffffffffffffffffffffffffffffffffffffffffffffffffc950588200000000000000000000000000000000000000000000000000000001000276a4",
        "nonce": "0xfd7",
        "chainId": "0x1"
      },
      "additionalContracts": [],
      "isFixedGasLimit": false
    },
    {
      "hash": null,
      "transactionType": "CALL",
      "contractName": "ChaosRouter",
      "contractAddress": "0x51017d5d1d2056e58c8e2226a0938d58d54e77dc",
      "function": "swap((address,address,uint24,int24,address),(bool,int256,uint160))",
      "arguments": [
        "(0x9ed4F4724b521326a9d9d2420252440bD05556c4, 0xD1620Dac6d79BE34F8500756B47cf91B1fA5Cc8C, 500, 5, 0x7e0C07EEabb2459D70dba5b8d100Dca44c652aC0)",
        "(true, -580363139, 4295128740)"
      ],
      "transaction": {
        "from": "0x70997970c51812dc3a010c7d01b50e0d17dc79c8",
        "to": "0x51017d5d1d2056e58c8e2226a0938d58d54e77dc",
        "value": "0x0",
        "input": "0x1e2817de0000000000000000000000009ed4f4724b521326a9d9d2420252440bd05556c4000000000000000000000000d1620dac6d79be34f8500756b47cf91b1fa5cc8c00000000000000000000000000000000000000000000000000000000000001f400000000000000000000000000000000000000000000000000000000000000050000000000000000000000007e0c07eeabb2459d70dba5b8d100dca44c652ac00000000000000000000000000000000000000000000000000000000000000001ffffffffffffffffffffffffffffffffffffffffffffffffffffffffdd685c7d00000000000000000000000000000000000000000000000000000001000276a4",
        "nonce": "0xfd8",
        "chainId": "0x1"
      },
      "additionalContracts": [],
      "isFixedGasLimit": false
    },
    {
      "hash": null,
      "transactionType": "CALL",
      "contractName": "ChaosRouter",
      "contractAddress": "0x51017d5d1d2056e58c8e2226a0938d58d54e77dc",
      "function": "swap((address,address,uint24,int24,address),(bool,int256,uint160))",
      "arguments": [
        "(0x9ed4F4724b521326a9d9d2420252440bD05556c4, 0xD1620Dac6d79BE34F8500756B47cf91B1fA5Cc8C, 500, 5, 0x7e0C07EEabb2459D70dba5b8d100Dca44c652aC0)",
        "(false, -767069387, 1461446703485210103287273052203988822378723970341)"
      ],
      "transaction": {
        "from": "0x70997970c51812dc3a010c7d01b50e0d17dc79c8",
        "to": "0x51017d5d1d2056e58c8e2226a0938d58d54e77dc",
        "value": "0x0",
        "input": "0x1e2817de0000000000000000000000009ed4f4724b521326a9d9d2420252440bd05556c4000000000000000000000000d1620dac6d79be34f8500756b47cf91b1fa5cc8c00000000000000000000000000000000000000000000000000000000000001f400000000000000000000000000000000000000000000000000000000000000050000000000000000000000007e0c07eeabb2459d70dba5b8d100dca44c652ac00000000000000000000000000000000000000000000000000000000000000000ffffffffffffffffffffffffffffffffffffffffffffffffffffffffd2477335000000000000000000000000fffd8963efd1fc6a506488495d951d5263988d25",
        "nonce": "0xfd9",
        "chainId": "0x1"
      },
      "additionalContracts": [],
      "isFixedGasLimit": false
    },
    {
      "hash": null,
      "transactionType": "CALL",
      "contractName": "ChaosRouter",
      "contractAddress": "0x51017d5d1d2056e58c8e2226a0938d58d54e77dc",
      "function": "swap((address,address,uint24,int24,address),(bool,int256,uint160))",
      "arguments": [
        "(0x9ed4F4724b521326a9d9d2420252440bD05556c4, 0xD1620Dac6d79BE34F8500756B47cf91B1fA5Cc8C, 500, 5, 0x7e0C07EEabb2459D70dba5b8d100Dca44c652aC0)",
        "(false, -742093829, 1461446703485210103287273052203988822378723970341)"
      ],
      "transaction": {
        "from": "0x70997970c51812dc3a010c7d01b50e0d17dc79c8",
        "to": "0x51017d5d1d2056e58c8e2226a0938d58d54e77dc",
        "value": "0x0",
        "input": "0x1e2817de0000000000000000000000009ed4f4724b521326a9d9d2420252440bd05556c4000000000000000000000000d1620dac6d79be34f8500756b47cf91b1fa5cc8c00000000000000000000000000000000000000000000000000000000000001f400000000000000000000000000000000000000000000000000000000000000050000000000000000000000007e0c07eeabb2459d70dba5b8d100dca44c652ac00000000000000000000000000000000000000000000000000000000000000000ffffffffffffffffffffffffffffffffffffffffffffffffffffffffd3c48bfb000000000000000000000000fffd8963efd1fc6a506488495d951d5263988d25",
        "nonce": "0xfda",
        "chainId": "0x1"
      },
      "additionalContracts": [],
      "isFixedGasLimit": false
    },
    {
      "hash": null,
      "transactionType": "CALL",
      "contractName": "ChaosRouter",
      "contractAddress": "0x51017d5d1d2056e58c8e2226a0938d58d54e77dc",
      "function": "swap((address,address,uint24,int24,address),(bool,int256,uint160))",
      "arguments": [
        "(0x9ed4F4724b521326a9d9d2420252440bD05556c4, 0xD1620Dac6d79BE34F8500756B47cf91B1fA5Cc8C, 500, 5, 0x7e0C07EEabb2459D70dba5b8d100Dca44c652aC0)",
        "(false, 1000000, 1461446703485210103287273052203988822378723970341)"
      ],
      "transaction": {
        "from": "0x70997970c51812dc3a010c7d01b50e0d17dc79c8",
        "to": "0x51017d5d1d2056e58c8e2226a0938d58d54e77dc",
        "value": "0x0",
        "input": "0x1e2817de0000000000000000000000009ed4f4724b521326a9d9d2420252440bd05556c4000000000000000000000000d1620dac6d79be34f8500756b47cf91b1fa5cc8c00000000000000000000000000000000000000000000000000000000000001f400000000000000000000000000000000000000000000000000000000000000050000000000000000000000007e0c07eeabb2459d70dba5b8d100dca44c652ac0000000000000000000000000000000000000000000000000000000000000000000000000000000000000000000000000000000000000000000000000000f4240000000000000000000000000fffd8963efd1fc6a506488495d951d5263988d25",
        "nonce": "0xfdb",
        "chainId": "0x1"
      },
      "additionalContracts": [],
      "isFixedGasLimit": false
    },
    {
      "hash": null,
      "transactionType": "CALL",
      "contractName": "ChaosRouter",
      "contractAddress": "0x51017d5d1d2056e58c8e2226a0938d58d54e77dc",
      "function": "swap((address,address,uint24,int24,address),(bool,int256,uint160))",
      "arguments": [
        "(0x9ed4F4724b521326a9d9d2420252440bD05556c4, 0xD1620Dac6d79BE34F8500756B47cf91B1fA5Cc8C, 500, 5, 0x7e0C07EEabb2459D70dba5b8d100Dca44c652aC0)",
        "(true, -762755439, 4295128740)"
      ],
      "transaction": {
        "from": "0x70997970c51812dc3a010c7d01b50e0d17dc79c8",
        "to": "0x51017d5d1d2056e58c8e2226a0938d58d54e77dc",
        "value": "0x0",
        "input": "0x1e2817de0000000000000000000000009ed4f4724b521326a9d9d2420252440bd05556c4000000000000000000000000d1620dac6d79be34f8500756b47cf91b1fa5cc8c00000000000000000000000000000000000000000000000000000000000001f400000000000000000000000000000000000000000000000000000000000000050000000000000000000000007e0c07eeabb2459d70dba5b8d100dca44c652ac00000000000000000000000000000000000000000000000000000000000000001ffffffffffffffffffffffffffffffffffffffffffffffffffffffffd289469100000000000000000000000000000000000000000000000000000001000276a4",
        "nonce": "0xfdc",
        "chainId": "0x1"
      },
      "additionalContracts": [],
      "isFixedGasLimit": false
    },
    {
      "hash": null,
      "transactionType": "CALL",
      "contractName": "ChaosRouter",
      "contractAddress": "0x51017d5d1d2056e58c8e2226a0938d58d54e77dc",
      "function": "swap((address,address,uint24,int24,address),(bool,int256,uint160))",
      "arguments": [
        "(0x9ed4F4724b521326a9d9d2420252440bD05556c4, 0xD1620Dac6d79BE34F8500756B47cf91B1fA5Cc8C, 500, 5, 0x7e0C07EEabb2459D70dba5b8d100Dca44c652aC0)",
        "(false, -33522185, 1461446703485210103287273052203988822378723970341)"
      ],
      "transaction": {
        "from": "0x70997970c51812dc3a010c7d01b50e0d17dc79c8",
        "to": "0x51017d5d1d2056e58c8e2226a0938d58d54e77dc",
        "value": "0x0",
        "input": "0x1e2817de0000000000000000000000009ed4f4724b521326a9d9d2420252440bd05556c4000000000000000000000000d1620dac6d79be34f8500756b47cf91b1fa5cc8c00000000000000000000000000000000000000000000000000000000000001f400000000000000000000000000000000000000000000000000000000000000050000000000000000000000007e0c07eeabb2459d70dba5b8d100dca44c652ac00000000000000000000000000000000000000000000000000000000000000000fffffffffffffffffffffffffffffffffffffffffffffffffffffffffe007df7000000000000000000000000fffd8963efd1fc6a506488495d951d5263988d25",
        "nonce": "0xfdd",
        "chainId": "0x1"
      },
      "additionalContracts": [],
      "isFixedGasLimit": false
    },
    {
      "hash": null,
      "transactionType": "CALL",
      "contractName": "ChaosRouter",
      "contractAddress": "0x51017d5d1d2056e58c8e2226a0938d58d54e77dc",
      "function": "swap((address,address,uint24,int24,address),(bool,int256,uint160))",
      "arguments": [
        "(0x9ed4F4724b521326a9d9d2420252440bD05556c4, 0xD1620Dac6d79BE34F8500756B47cf91B1fA5Cc8C, 500, 5, 0x7e0C07EEabb2459D70dba5b8d100Dca44c652aC0)",
        "(false, 722206032, 1461446703485210103287273052203988822378723970341)"
      ],
      "transaction": {
        "from": "0x70997970c51812dc3a010c7d01b50e0d17dc79c8",
        "to": "0x51017d5d1d2056e58c8e2226a0938d58d54e77dc",
        "value": "0x0",
        "input": "0x1e2817de0000000000000000000000009ed4f4724b521326a9d9d2420252440bd05556c4000000000000000000000000d1620dac6d79be34f8500756b47cf91b1fa5cc8c00000000000000000000000000000000000000000000000000000000000001f400000000000000000000000000000000000000000000000000000000000000050000000000000000000000007e0c07eeabb2459d70dba5b8d100dca44c652ac00000000000000000000000000000000000000000000000000000000000000000000000000000000000000000000000000000000000000000000000002b0bfd50000000000000000000000000fffd8963efd1fc6a506488495d951d5263988d25",
        "nonce": "0xfde",
        "chainId": "0x1"
      },
      "additionalContracts": [],
      "isFixedGasLimit": false
    },
    {
      "hash": null,
      "transactionType": "CALL",
      "contractName": "ChaosRouter",
      "contractAddress": "0x51017d5d1d2056e58c8e2226a0938d58d54e77dc",
      "function": "swap((address,address,uint24,int24,address),(bool,int256,uint160))",
      "arguments": [
        "(0x9ed4F4724b521326a9d9d2420252440bD05556c4, 0xD1620Dac6d79BE34F8500756B47cf91B1fA5Cc8C, 500, 5, 0x7e0C07EEabb2459D70dba5b8d100Dca44c652aC0)",
        "(false, 1000000, 1461446703485210103287273052203988822378723970341)"
      ],
      "transaction": {
        "from": "0x70997970c51812dc3a010c7d01b50e0d17dc79c8",
        "to": "0x51017d5d1d2056e58c8e2226a0938d58d54e77dc",
        "value": "0x0",
        "input": "0x1e2817de0000000000000000000000009ed4f4724b521326a9d9d2420252440bd05556c4000000000000000000000000d1620dac6d79be34f8500756b47cf91b1fa5cc8c00000000000000000000000000000000000000000000000000000000000001f400000000000000000000000000000000000000000000000000000000000000050000000000000000000000007e0c07eeabb2459d70dba5b8d100dca44c652ac0000000000000000000000000000000000000000000000000000000000000000000000000000000000000000000000000000000000000000000000000000f4240000000000000000000000000fffd8963efd1fc6a506488495d951d5263988d25",
        "nonce": "0xfdf",
        "chainId": "0x1"
      },
      "additionalContracts": [],
      "isFixedGasLimit": false
    },
    {
      "hash": null,
      "transactionType": "CALL",
      "contractName": "ChaosRouter",
      "contractAddress": "0x51017d5d1d2056e58c8e2226a0938d58d54e77dc",
      "function": "swap((address,address,uint24,int24,address),(bool,int256,uint160))",
      "arguments": [
        "(0x9ed4F4724b521326a9d9d2420252440bD05556c4, 0xD1620Dac6d79BE34F8500756B47cf91B1fA5Cc8C, 500, 5, 0x7e0C07EEabb2459D70dba5b8d100Dca44c652aC0)",
        "(true, -354189691, 4295128740)"
      ],
      "transaction": {
        "from": "0x70997970c51812dc3a010c7d01b50e0d17dc79c8",
        "to": "0x51017d5d1d2056e58c8e2226a0938d58d54e77dc",
        "value": "0x0",
        "input": "0x1e2817de0000000000000000000000009ed4f4724b521326a9d9d2420252440bd05556c4000000000000000000000000d1620dac6d79be34f8500756b47cf91b1fa5cc8c00000000000000000000000000000000000000000000000000000000000001f400000000000000000000000000000000000000000000000000000000000000050000000000000000000000007e0c07eeabb2459d70dba5b8d100dca44c652ac00000000000000000000000000000000000000000000000000000000000000001ffffffffffffffffffffffffffffffffffffffffffffffffffffffffeae37e8500000000000000000000000000000000000000000000000000000001000276a4",
        "nonce": "0xfe0",
        "chainId": "0x1"
      },
      "additionalContracts": [],
      "isFixedGasLimit": false
    },
    {
      "hash": null,
      "transactionType": "CALL",
      "contractName": "ChaosRouter",
      "contractAddress": "0x51017d5d1d2056e58c8e2226a0938d58d54e77dc",
      "function": "swap((address,address,uint24,int24,address),(bool,int256,uint160))",
      "arguments": [
        "(0x9ed4F4724b521326a9d9d2420252440bD05556c4, 0xD1620Dac6d79BE34F8500756B47cf91B1fA5Cc8C, 500, 5, 0x7e0C07EEabb2459D70dba5b8d100Dca44c652aC0)",
        "(false, 733116501, 1461446703485210103287273052203988822378723970341)"
      ],
      "transaction": {
        "from": "0x70997970c51812dc3a010c7d01b50e0d17dc79c8",
        "to": "0x51017d5d1d2056e58c8e2226a0938d58d54e77dc",
        "value": "0x0",
        "input": "0x1e2817de0000000000000000000000009ed4f4724b521326a9d9d2420252440bd05556c4000000000000000000000000d1620dac6d79be34f8500756b47cf91b1fa5cc8c00000000000000000000000000000000000000000000000000000000000001f400000000000000000000000000000000000000000000000000000000000000050000000000000000000000007e0c07eeabb2459d70dba5b8d100dca44c652ac00000000000000000000000000000000000000000000000000000000000000000000000000000000000000000000000000000000000000000000000002bb27855000000000000000000000000fffd8963efd1fc6a506488495d951d5263988d25",
        "nonce": "0xfe1",
        "chainId": "0x1"
      },
      "additionalContracts": [],
      "isFixedGasLimit": false
    },
    {
      "hash": null,
      "transactionType": "CALL",
      "contractName": "ChaosRouter",
      "contractAddress": "0x51017d5d1d2056e58c8e2226a0938d58d54e77dc",
      "function": "swap((address,address,uint24,int24,address),(bool,int256,uint160))",
      "arguments": [
        "(0x9ed4F4724b521326a9d9d2420252440bD05556c4, 0xD1620Dac6d79BE34F8500756B47cf91B1fA5Cc8C, 500, 5, 0x7e0C07EEabb2459D70dba5b8d100Dca44c652aC0)",
        "(true, -148546804, 4295128740)"
      ],
      "transaction": {
        "from": "0x70997970c51812dc3a010c7d01b50e0d17dc79c8",
        "to": "0x51017d5d1d2056e58c8e2226a0938d58d54e77dc",
        "value": "0x0",
        "input": "0x1e2817de0000000000000000000000009ed4f4724b521326a9d9d2420252440bd05556c4000000000000000000000000d1620dac6d79be34f8500756b47cf91b1fa5cc8c00000000000000000000000000000000000000000000000000000000000001f400000000000000000000000000000000000000000000000000000000000000050000000000000000000000007e0c07eeabb2459d70dba5b8d100dca44c652ac00000000000000000000000000000000000000000000000000000000000000001fffffffffffffffffffffffffffffffffffffffffffffffffffffffff7255b0c00000000000000000000000000000000000000000000000000000001000276a4",
        "nonce": "0xfe2",
        "chainId": "0x1"
      },
      "additionalContracts": [],
      "isFixedGasLimit": false
    },
    {
      "hash": null,
      "transactionType": "CALL",
      "contractName": "ChaosRouter",
      "contractAddress": "0x51017d5d1d2056e58c8e2226a0938d58d54e77dc",
      "function": "swap((address,address,uint24,int24,address),(bool,int256,uint160))",
      "arguments": [
        "(0x9ed4F4724b521326a9d9d2420252440bD05556c4, 0xD1620Dac6d79BE34F8500756B47cf91B1fA5Cc8C, 500, 5, 0x7e0C07EEabb2459D70dba5b8d100Dca44c652aC0)",
        "(false, -4773897495, 1461446703485210103287273052203988822378723970341)"
      ],
      "transaction": {
        "from": "0x70997970c51812dc3a010c7d01b50e0d17dc79c8",
        "to": "0x51017d5d1d2056e58c8e2226a0938d58d54e77dc",
        "value": "0x0",
        "input": "0x1e2817de0000000000000000000000009ed4f4724b521326a9d9d2420252440bd05556c4000000000000000000000000d1620dac6d79be34f8500756b47cf91b1fa5cc8c00000000000000000000000000000000000000000000000000000000000001f400000000000000000000000000000000000000000000000000000000000000050000000000000000000000007e0c07eeabb2459d70dba5b8d100dca44c652ac00000000000000000000000000000000000000000000000000000000000000000fffffffffffffffffffffffffffffffffffffffffffffffffffffffee3741ae9000000000000000000000000fffd8963efd1fc6a506488495d951d5263988d25",
        "nonce": "0xfe3",
        "chainId": "0x1"
      },
      "additionalContracts": [],
      "isFixedGasLimit": false
    },
    {
      "hash": null,
      "transactionType": "CALL",
      "contractName": "ChaosRouter",
      "contractAddress": "0x51017d5d1d2056e58c8e2226a0938d58d54e77dc",
      "function": "swap((address,address,uint24,int24,address),(bool,int256,uint160))",
      "arguments": [
        "(0x9ed4F4724b521326a9d9d2420252440bD05556c4, 0xD1620Dac6d79BE34F8500756B47cf91B1fA5Cc8C, 500, 5, 0x7e0C07EEabb2459D70dba5b8d100Dca44c652aC0)",
        "(false, 949484337, 1461446703485210103287273052203988822378723970341)"
      ],
      "transaction": {
        "from": "0x70997970c51812dc3a010c7d01b50e0d17dc79c8",
        "to": "0x51017d5d1d2056e58c8e2226a0938d58d54e77dc",
        "value": "0x0",
        "input": "0x1e2817de0000000000000000000000009ed4f4724b521326a9d9d2420252440bd05556c4000000000000000000000000d1620dac6d79be34f8500756b47cf91b1fa5cc8c00000000000000000000000000000000000000000000000000000000000001f400000000000000000000000000000000000000000000000000000000000000050000000000000000000000007e0c07eeabb2459d70dba5b8d100dca44c652ac00000000000000000000000000000000000000000000000000000000000000000000000000000000000000000000000000000000000000000000000003897fb31000000000000000000000000fffd8963efd1fc6a506488495d951d5263988d25",
        "nonce": "0xfe4",
        "chainId": "0x1"
      },
      "additionalContracts": [],
      "isFixedGasLimit": false
    },
    {
      "hash": null,
      "transactionType": "CALL",
      "contractName": "ChaosRouter",
      "contractAddress": "0x51017d5d1d2056e58c8e2226a0938d58d54e77dc",
      "function": "swap((address,address,uint24,int24,address),(bool,int256,uint160))",
      "arguments": [
        "(0x9ed4F4724b521326a9d9d2420252440bD05556c4, 0xD1620Dac6d79BE34F8500756B47cf91B1fA5Cc8C, 500, 5, 0x7e0C07EEabb2459D70dba5b8d100Dca44c652aC0)",
        "(true, 4905800820, 4295128740)"
      ],
      "transaction": {
        "from": "0x70997970c51812dc3a010c7d01b50e0d17dc79c8",
        "to": "0x51017d5d1d2056e58c8e2226a0938d58d54e77dc",
        "value": "0x0",
        "input": "0x1e2817de0000000000000000000000009ed4f4724b521326a9d9d2420252440bd05556c4000000000000000000000000d1620dac6d79be34f8500756b47cf91b1fa5cc8c00000000000000000000000000000000000000000000000000000000000001f400000000000000000000000000000000000000000000000000000000000000050000000000000000000000007e0c07eeabb2459d70dba5b8d100dca44c652ac00000000000000000000000000000000000000000000000000000000000000001000000000000000000000000000000000000000000000000000000012468947400000000000000000000000000000000000000000000000000000001000276a4",
        "nonce": "0xfe5",
        "chainId": "0x1"
      },
      "additionalContracts": [],
      "isFixedGasLimit": false
    },
    {
      "hash": null,
      "transactionType": "CALL",
      "contractName": "ChaosRouter",
      "contractAddress": "0x51017d5d1d2056e58c8e2226a0938d58d54e77dc",
      "function": "swap((address,address,uint24,int24,address),(bool,int256,uint160))",
      "arguments": [
        "(0x9ed4F4724b521326a9d9d2420252440bD05556c4, 0xD1620Dac6d79BE34F8500756B47cf91B1fA5Cc8C, 500, 5, 0x7e0C07EEabb2459D70dba5b8d100Dca44c652aC0)",
        "(false, 70724621, 1461446703485210103287273052203988822378723970341)"
      ],
      "transaction": {
        "from": "0x70997970c51812dc3a010c7d01b50e0d17dc79c8",
        "to": "0x51017d5d1d2056e58c8e2226a0938d58d54e77dc",
        "value": "0x0",
        "input": "0x1e2817de0000000000000000000000009ed4f4724b521326a9d9d2420252440bd05556c4000000000000000000000000d1620dac6d79be34f8500756b47cf91b1fa5cc8c00000000000000000000000000000000000000000000000000000000000001f400000000000000000000000000000000000000000000000000000000000000050000000000000000000000007e0c07eeabb2459d70dba5b8d100dca44c652ac000000000000000000000000000000000000000000000000000000000000000000000000000000000000000000000000000000000000000000000000004372c0d000000000000000000000000fffd8963efd1fc6a506488495d951d5263988d25",
        "nonce": "0xfe6",
        "chainId": "0x1"
      },
      "additionalContracts": [],
      "isFixedGasLimit": false
    },
    {
      "hash": null,
      "transactionType": "CALL",
      "contractName": "ChaosRouter",
      "contractAddress": "0x51017d5d1d2056e58c8e2226a0938d58d54e77dc",
      "function": "swap((address,address,uint24,int24,address),(bool,int256,uint160))",
      "arguments": [
        "(0x9ed4F4724b521326a9d9d2420252440bD05556c4, 0xD1620Dac6d79BE34F8500756B47cf91B1fA5Cc8C, 500, 5, 0x7e0C07EEabb2459D70dba5b8d100Dca44c652aC0)",
        "(false, -617373346, 1461446703485210103287273052203988822378723970341)"
      ],
      "transaction": {
        "from": "0x70997970c51812dc3a010c7d01b50e0d17dc79c8",
        "to": "0x51017d5d1d2056e58c8e2226a0938d58d54e77dc",
        "value": "0x0",
        "input": "0x1e2817de0000000000000000000000009ed4f4724b521326a9d9d2420252440bd05556c4000000000000000000000000d1620dac6d79be34f8500756b47cf91b1fa5cc8c00000000000000000000000000000000000000000000000000000000000001f400000000000000000000000000000000000000000000000000000000000000050000000000000000000000007e0c07eeabb2459d70dba5b8d100dca44c652ac00000000000000000000000000000000000000000000000000000000000000000ffffffffffffffffffffffffffffffffffffffffffffffffffffffffdb33a15e000000000000000000000000fffd8963efd1fc6a506488495d951d5263988d25",
        "nonce": "0xfe7",
        "chainId": "0x1"
      },
      "additionalContracts": [],
      "isFixedGasLimit": false
    },
    {
      "hash": null,
      "transactionType": "CALL",
      "contractName": "ChaosRouter",
      "contractAddress": "0x51017d5d1d2056e58c8e2226a0938d58d54e77dc",
      "function": "swap((address,address,uint24,int24,address),(bool,int256,uint160))",
      "arguments": [
        "(0x9ed4F4724b521326a9d9d2420252440bD05556c4, 0xD1620Dac6d79BE34F8500756B47cf91B1fA5Cc8C, 500, 5, 0x7e0C07EEabb2459D70dba5b8d100Dca44c652aC0)",
        "(false, 92668539, 1461446703485210103287273052203988822378723970341)"
      ],
      "transaction": {
        "from": "0x70997970c51812dc3a010c7d01b50e0d17dc79c8",
        "to": "0x51017d5d1d2056e58c8e2226a0938d58d54e77dc",
        "value": "0x0",
        "input": "0x1e2817de0000000000000000000000009ed4f4724b521326a9d9d2420252440bd05556c4000000000000000000000000d1620dac6d79be34f8500756b47cf91b1fa5cc8c00000000000000000000000000000000000000000000000000000000000001f400000000000000000000000000000000000000000000000000000000000000050000000000000000000000007e0c07eeabb2459d70dba5b8d100dca44c652ac00000000000000000000000000000000000000000000000000000000000000000000000000000000000000000000000000000000000000000000000000586027b000000000000000000000000fffd8963efd1fc6a506488495d951d5263988d25",
        "nonce": "0xfe8",
        "chainId": "0x1"
      },
      "additionalContracts": [],
      "isFixedGasLimit": false
    },
    {
      "hash": null,
      "transactionType": "CALL",
      "contractName": "ChaosRouter",
      "contractAddress": "0x51017d5d1d2056e58c8e2226a0938d58d54e77dc",
      "function": "swap((address,address,uint24,int24,address),(bool,int256,uint160))",
      "arguments": [
        "(0x9ed4F4724b521326a9d9d2420252440bD05556c4, 0xD1620Dac6d79BE34F8500756B47cf91B1fA5Cc8C, 500, 5, 0x7e0C07EEabb2459D70dba5b8d100Dca44c652aC0)",
        "(true, -119075178, 4295128740)"
      ],
      "transaction": {
        "from": "0x70997970c51812dc3a010c7d01b50e0d17dc79c8",
        "to": "0x51017d5d1d2056e58c8e2226a0938d58d54e77dc",
        "value": "0x0",
        "input": "0x1e2817de0000000000000000000000009ed4f4724b521326a9d9d2420252440bd05556c4000000000000000000000000d1620dac6d79be34f8500756b47cf91b1fa5cc8c00000000000000000000000000000000000000000000000000000000000001f400000000000000000000000000000000000000000000000000000000000000050000000000000000000000007e0c07eeabb2459d70dba5b8d100dca44c652ac00000000000000000000000000000000000000000000000000000000000000001fffffffffffffffffffffffffffffffffffffffffffffffffffffffff8e70e9600000000000000000000000000000000000000000000000000000001000276a4",
        "nonce": "0xfe9",
        "chainId": "0x1"
      },
      "additionalContracts": [],
      "isFixedGasLimit": false
    },
    {
      "hash": null,
      "transactionType": "CALL",
      "contractName": "ChaosRouter",
      "contractAddress": "0x51017d5d1d2056e58c8e2226a0938d58d54e77dc",
      "function": "swap((address,address,uint24,int24,address),(bool,int256,uint160))",
      "arguments": [
        "(0x9ed4F4724b521326a9d9d2420252440bD05556c4, 0xD1620Dac6d79BE34F8500756B47cf91B1fA5Cc8C, 500, 5, 0x7e0C07EEabb2459D70dba5b8d100Dca44c652aC0)",
        "(false, 361369945, 1461446703485210103287273052203988822378723970341)"
      ],
      "transaction": {
        "from": "0x70997970c51812dc3a010c7d01b50e0d17dc79c8",
        "to": "0x51017d5d1d2056e58c8e2226a0938d58d54e77dc",
        "value": "0x0",
        "input": "0x1e2817de0000000000000000000000009ed4f4724b521326a9d9d2420252440bd05556c4000000000000000000000000d1620dac6d79be34f8500756b47cf91b1fa5cc8c00000000000000000000000000000000000000000000000000000000000001f400000000000000000000000000000000000000000000000000000000000000050000000000000000000000007e0c07eeabb2459d70dba5b8d100dca44c652ac0000000000000000000000000000000000000000000000000000000000000000000000000000000000000000000000000000000000000000000000000158a1159000000000000000000000000fffd8963efd1fc6a506488495d951d5263988d25",
        "nonce": "0xfea",
        "chainId": "0x1"
      },
      "additionalContracts": [],
      "isFixedGasLimit": false
    },
    {
      "hash": null,
      "transactionType": "CALL",
      "contractName": "ChaosRouter",
      "contractAddress": "0x51017d5d1d2056e58c8e2226a0938d58d54e77dc",
      "function": "swap((address,address,uint24,int24,address),(bool,int256,uint160))",
      "arguments": [
        "(0x9ed4F4724b521326a9d9d2420252440bD05556c4, 0xD1620Dac6d79BE34F8500756B47cf91B1fA5Cc8C, 500, 5, 0x7e0C07EEabb2459D70dba5b8d100Dca44c652aC0)",
        "(true, 1000000, 4295128740)"
      ],
      "transaction": {
        "from": "0x70997970c51812dc3a010c7d01b50e0d17dc79c8",
        "to": "0x51017d5d1d2056e58c8e2226a0938d58d54e77dc",
        "value": "0x0",
        "input": "0x1e2817de0000000000000000000000009ed4f4724b521326a9d9d2420252440bd05556c4000000000000000000000000d1620dac6d79be34f8500756b47cf91b1fa5cc8c00000000000000000000000000000000000000000000000000000000000001f400000000000000000000000000000000000000000000000000000000000000050000000000000000000000007e0c07eeabb2459d70dba5b8d100dca44c652ac0000000000000000000000000000000000000000000000000000000000000000100000000000000000000000000000000000000000000000000000000000f424000000000000000000000000000000000000000000000000000000001000276a4",
        "nonce": "0xfeb",
        "chainId": "0x1"
      },
      "additionalContracts": [],
      "isFixedGasLimit": false
    },
    {
      "hash": null,
      "transactionType": "CALL",
      "contractName": "ChaosRouter",
      "contractAddress": "0x51017d5d1d2056e58c8e2226a0938d58d54e77dc",
      "function": "swap((address,address,uint24,int24,address),(bool,int256,uint160))",
      "arguments": [
        "(0x9ed4F4724b521326a9d9d2420252440bD05556c4, 0xD1620Dac6d79BE34F8500756B47cf91B1fA5Cc8C, 500, 5, 0x7e0C07EEabb2459D70dba5b8d100Dca44c652aC0)",
        "(false, 1000000, 1461446703485210103287273052203988822378723970341)"
      ],
      "transaction": {
        "from": "0x70997970c51812dc3a010c7d01b50e0d17dc79c8",
        "to": "0x51017d5d1d2056e58c8e2226a0938d58d54e77dc",
        "value": "0x0",
        "input": "0x1e2817de0000000000000000000000009ed4f4724b521326a9d9d2420252440bd05556c4000000000000000000000000d1620dac6d79be34f8500756b47cf91b1fa5cc8c00000000000000000000000000000000000000000000000000000000000001f400000000000000000000000000000000000000000000000000000000000000050000000000000000000000007e0c07eeabb2459d70dba5b8d100dca44c652ac0000000000000000000000000000000000000000000000000000000000000000000000000000000000000000000000000000000000000000000000000000f4240000000000000000000000000fffd8963efd1fc6a506488495d951d5263988d25",
        "nonce": "0xfec",
        "chainId": "0x1"
      },
      "additionalContracts": [],
      "isFixedGasLimit": false
    },
    {
      "hash": null,
      "transactionType": "CALL",
      "contractName": "ChaosRouter",
      "contractAddress": "0x51017d5d1d2056e58c8e2226a0938d58d54e77dc",
      "function": "swap((address,address,uint24,int24,address),(bool,int256,uint160))",
      "arguments": [
        "(0x9ed4F4724b521326a9d9d2420252440bD05556c4, 0xD1620Dac6d79BE34F8500756B47cf91B1fA5Cc8C, 500, 5, 0x7e0C07EEabb2459D70dba5b8d100Dca44c652aC0)",
        "(false, -11842571, 1461446703485210103287273052203988822378723970341)"
      ],
      "transaction": {
        "from": "0x70997970c51812dc3a010c7d01b50e0d17dc79c8",
        "to": "0x51017d5d1d2056e58c8e2226a0938d58d54e77dc",
        "value": "0x0",
        "input": "0x1e2817de0000000000000000000000009ed4f4724b521326a9d9d2420252440bd05556c4000000000000000000000000d1620dac6d79be34f8500756b47cf91b1fa5cc8c00000000000000000000000000000000000000000000000000000000000001f400000000000000000000000000000000000000000000000000000000000000050000000000000000000000007e0c07eeabb2459d70dba5b8d100dca44c652ac00000000000000000000000000000000000000000000000000000000000000000ffffffffffffffffffffffffffffffffffffffffffffffffffffffffff4b4bf5000000000000000000000000fffd8963efd1fc6a506488495d951d5263988d25",
        "nonce": "0xfed",
        "chainId": "0x1"
      },
      "additionalContracts": [],
      "isFixedGasLimit": false
    },
    {
      "hash": null,
      "transactionType": "CALL",
      "contractName": "ChaosRouter",
      "contractAddress": "0x51017d5d1d2056e58c8e2226a0938d58d54e77dc",
      "function": "swap((address,address,uint24,int24,address),(bool,int256,uint160))",
      "arguments": [
        "(0x9ed4F4724b521326a9d9d2420252440bD05556c4, 0xD1620Dac6d79BE34F8500756B47cf91B1fA5Cc8C, 500, 5, 0x7e0C07EEabb2459D70dba5b8d100Dca44c652aC0)",
        "(true, 4353537025, 4295128740)"
      ],
      "transaction": {
        "from": "0x70997970c51812dc3a010c7d01b50e0d17dc79c8",
        "to": "0x51017d5d1d2056e58c8e2226a0938d58d54e77dc",
        "value": "0x0",
        "input": "0x1e2817de0000000000000000000000009ed4f4724b521326a9d9d2420252440bd05556c4000000000000000000000000d1620dac6d79be34f8500756b47cf91b1fa5cc8c00000000000000000000000000000000000000000000000000000000000001f400000000000000000000000000000000000000000000000000000000000000050000000000000000000000007e0c07eeabb2459d70dba5b8d100dca44c652ac0000000000000000000000000000000000000000000000000000000000000000100000000000000000000000000000000000000000000000000000001037db40100000000000000000000000000000000000000000000000000000001000276a4",
        "nonce": "0xfee",
        "chainId": "0x1"
      },
      "additionalContracts": [],
      "isFixedGasLimit": false
    },
    {
      "hash": null,
      "transactionType": "CALL",
      "contractName": "ChaosRouter",
      "contractAddress": "0x51017d5d1d2056e58c8e2226a0938d58d54e77dc",
      "function": "swap((address,address,uint24,int24,address),(bool,int256,uint160))",
      "arguments": [
        "(0x9ed4F4724b521326a9d9d2420252440bD05556c4, 0xD1620Dac6d79BE34F8500756B47cf91B1fA5Cc8C, 500, 5, 0x7e0C07EEabb2459D70dba5b8d100Dca44c652aC0)",
        "(true, 522264853, 4295128740)"
      ],
      "transaction": {
        "from": "0x70997970c51812dc3a010c7d01b50e0d17dc79c8",
        "to": "0x51017d5d1d2056e58c8e2226a0938d58d54e77dc",
        "value": "0x0",
        "input": "0x1e2817de0000000000000000000000009ed4f4724b521326a9d9d2420252440bd05556c4000000000000000000000000d1620dac6d79be34f8500756b47cf91b1fa5cc8c00000000000000000000000000000000000000000000000000000000000001f400000000000000000000000000000000000000000000000000000000000000050000000000000000000000007e0c07eeabb2459d70dba5b8d100dca44c652ac00000000000000000000000000000000000000000000000000000000000000001000000000000000000000000000000000000000000000000000000001f21211500000000000000000000000000000000000000000000000000000001000276a4",
        "nonce": "0xfef",
        "chainId": "0x1"
      },
      "additionalContracts": [],
      "isFixedGasLimit": false
    },
    {
      "hash": null,
      "transactionType": "CALL",
      "contractName": "ChaosRouter",
      "contractAddress": "0x51017d5d1d2056e58c8e2226a0938d58d54e77dc",
      "function": "swap((address,address,uint24,int24,address),(bool,int256,uint160))",
      "arguments": [
        "(0x9ed4F4724b521326a9d9d2420252440bD05556c4, 0xD1620Dac6d79BE34F8500756B47cf91B1fA5Cc8C, 500, 5, 0x7e0C07EEabb2459D70dba5b8d100Dca44c652aC0)",
        "(true, 401195848, 4295128740)"
      ],
      "transaction": {
        "from": "0x70997970c51812dc3a010c7d01b50e0d17dc79c8",
        "to": "0x51017d5d1d2056e58c8e2226a0938d58d54e77dc",
        "value": "0x0",
        "input": "0x1e2817de0000000000000000000000009ed4f4724b521326a9d9d2420252440bd05556c4000000000000000000000000d1620dac6d79be34f8500756b47cf91b1fa5cc8c00000000000000000000000000000000000000000000000000000000000001f400000000000000000000000000000000000000000000000000000000000000050000000000000000000000007e0c07eeabb2459d70dba5b8d100dca44c652ac000000000000000000000000000000000000000000000000000000000000000010000000000000000000000000000000000000000000000000000000017e9c34800000000000000000000000000000000000000000000000000000001000276a4",
        "nonce": "0xff0",
        "chainId": "0x1"
      },
      "additionalContracts": [],
      "isFixedGasLimit": false
    },
    {
      "hash": null,
      "transactionType": "CALL",
      "contractName": "ChaosRouter",
      "contractAddress": "0x51017d5d1d2056e58c8e2226a0938d58d54e77dc",
      "function": "swap((address,address,uint24,int24,address),(bool,int256,uint160))",
      "arguments": [
        "(0x9ed4F4724b521326a9d9d2420252440bD05556c4, 0xD1620Dac6d79BE34F8500756B47cf91B1fA5Cc8C, 500, 5, 0x7e0C07EEabb2459D70dba5b8d100Dca44c652aC0)",
        "(false, -139063506, 1461446703485210103287273052203988822378723970341)"
      ],
      "transaction": {
        "from": "0x70997970c51812dc3a010c7d01b50e0d17dc79c8",
        "to": "0x51017d5d1d2056e58c8e2226a0938d58d54e77dc",
        "value": "0x0",
        "input": "0x1e2817de0000000000000000000000009ed4f4724b521326a9d9d2420252440bd05556c4000000000000000000000000d1620dac6d79be34f8500756b47cf91b1fa5cc8c00000000000000000000000000000000000000000000000000000000000001f400000000000000000000000000000000000000000000000000000000000000050000000000000000000000007e0c07eeabb2459d70dba5b8d100dca44c652ac00000000000000000000000000000000000000000000000000000000000000000fffffffffffffffffffffffffffffffffffffffffffffffffffffffff7b60f2e000000000000000000000000fffd8963efd1fc6a506488495d951d5263988d25",
        "nonce": "0xff1",
        "chainId": "0x1"
      },
      "additionalContracts": [],
      "isFixedGasLimit": false
    },
    {
      "hash": null,
      "transactionType": "CALL",
      "contractName": "ChaosRouter",
      "contractAddress": "0x51017d5d1d2056e58c8e2226a0938d58d54e77dc",
      "function": "swap((address,address,uint24,int24,address),(bool,int256,uint160))",
      "arguments": [
        "(0x9ed4F4724b521326a9d9d2420252440bD05556c4, 0xD1620Dac6d79BE34F8500756B47cf91B1fA5Cc8C, 500, 5, 0x7e0C07EEabb2459D70dba5b8d100Dca44c652aC0)",
        "(false, -337409982, 1461446703485210103287273052203988822378723970341)"
      ],
      "transaction": {
        "from": "0x70997970c51812dc3a010c7d01b50e0d17dc79c8",
        "to": "0x51017d5d1d2056e58c8e2226a0938d58d54e77dc",
        "value": "0x0",
        "input": "0x1e2817de0000000000000000000000009ed4f4724b521326a9d9d2420252440bd05556c4000000000000000000000000d1620dac6d79be34f8500756b47cf91b1fa5cc8c00000000000000000000000000000000000000000000000000000000000001f400000000000000000000000000000000000000000000000000000000000000050000000000000000000000007e0c07eeabb2459d70dba5b8d100dca44c652ac00000000000000000000000000000000000000000000000000000000000000000ffffffffffffffffffffffffffffffffffffffffffffffffffffffffebe38842000000000000000000000000fffd8963efd1fc6a506488495d951d5263988d25",
        "nonce": "0xff2",
        "chainId": "0x1"
      },
      "additionalContracts": [],
      "isFixedGasLimit": false
    },
    {
      "hash": null,
      "transactionType": "CALL",
      "contractName": "ChaosRouter",
      "contractAddress": "0x51017d5d1d2056e58c8e2226a0938d58d54e77dc",
      "function": "swap((address,address,uint24,int24,address),(bool,int256,uint160))",
      "arguments": [
        "(0x9ed4F4724b521326a9d9d2420252440bD05556c4, 0xD1620Dac6d79BE34F8500756B47cf91B1fA5Cc8C, 500, 5, 0x7e0C07EEabb2459D70dba5b8d100Dca44c652aC0)",
        "(true, -636276987, 4295128740)"
      ],
      "transaction": {
        "from": "0x70997970c51812dc3a010c7d01b50e0d17dc79c8",
        "to": "0x51017d5d1d2056e58c8e2226a0938d58d54e77dc",
        "value": "0x0",
        "input": "0x1e2817de0000000000000000000000009ed4f4724b521326a9d9d2420252440bd05556c4000000000000000000000000d1620dac6d79be34f8500756b47cf91b1fa5cc8c00000000000000000000000000000000000000000000000000000000000001f400000000000000000000000000000000000000000000000000000000000000050000000000000000000000007e0c07eeabb2459d70dba5b8d100dca44c652ac00000000000000000000000000000000000000000000000000000000000000001ffffffffffffffffffffffffffffffffffffffffffffffffffffffffda132f0500000000000000000000000000000000000000000000000000000001000276a4",
        "nonce": "0xff3",
        "chainId": "0x1"
      },
      "additionalContracts": [],
      "isFixedGasLimit": false
    },
    {
      "hash": null,
      "transactionType": "CALL",
      "contractName": "ChaosRouter",
      "contractAddress": "0x51017d5d1d2056e58c8e2226a0938d58d54e77dc",
      "function": "swap((address,address,uint24,int24,address),(bool,int256,uint160))",
      "arguments": [
        "(0x9ed4F4724b521326a9d9d2420252440bD05556c4, 0xD1620Dac6d79BE34F8500756B47cf91B1fA5Cc8C, 500, 5, 0x7e0C07EEabb2459D70dba5b8d100Dca44c652aC0)",
        "(false, -983851371, 1461446703485210103287273052203988822378723970341)"
      ],
      "transaction": {
        "from": "0x70997970c51812dc3a010c7d01b50e0d17dc79c8",
        "to": "0x51017d5d1d2056e58c8e2226a0938d58d54e77dc",
        "value": "0x0",
        "input": "0x1e2817de0000000000000000000000009ed4f4724b521326a9d9d2420252440bd05556c4000000000000000000000000d1620dac6d79be34f8500756b47cf91b1fa5cc8c00000000000000000000000000000000000000000000000000000000000001f400000000000000000000000000000000000000000000000000000000000000050000000000000000000000007e0c07eeabb2459d70dba5b8d100dca44c652ac00000000000000000000000000000000000000000000000000000000000000000ffffffffffffffffffffffffffffffffffffffffffffffffffffffffc55b9e95000000000000000000000000fffd8963efd1fc6a506488495d951d5263988d25",
        "nonce": "0xff4",
        "chainId": "0x1"
      },
      "additionalContracts": [],
      "isFixedGasLimit": false
    },
    {
      "hash": null,
      "transactionType": "CALL",
      "contractName": "ChaosRouter",
      "contractAddress": "0x51017d5d1d2056e58c8e2226a0938d58d54e77dc",
      "function": "swap((address,address,uint24,int24,address),(bool,int256,uint160))",
      "arguments": [
        "(0x9ed4F4724b521326a9d9d2420252440bD05556c4, 0xD1620Dac6d79BE34F8500756B47cf91B1fA5Cc8C, 500, 5, 0x7e0C07EEabb2459D70dba5b8d100Dca44c652aC0)",
        "(false, -771436139, 1461446703485210103287273052203988822378723970341)"
      ],
      "transaction": {
        "from": "0x70997970c51812dc3a010c7d01b50e0d17dc79c8",
        "to": "0x51017d5d1d2056e58c8e2226a0938d58d54e77dc",
        "value": "0x0",
        "input": "0x1e2817de0000000000000000000000009ed4f4724b521326a9d9d2420252440bd05556c4000000000000000000000000d1620dac6d79be34f8500756b47cf91b1fa5cc8c00000000000000000000000000000000000000000000000000000000000001f400000000000000000000000000000000000000000000000000000000000000050000000000000000000000007e0c07eeabb2459d70dba5b8d100dca44c652ac00000000000000000000000000000000000000000000000000000000000000000ffffffffffffffffffffffffffffffffffffffffffffffffffffffffd204d195000000000000000000000000fffd8963efd1fc6a506488495d951d5263988d25",
        "nonce": "0xff5",
        "chainId": "0x1"
      },
      "additionalContracts": [],
      "isFixedGasLimit": false
    },
    {
      "hash": null,
      "transactionType": "CALL",
      "contractName": "ChaosRouter",
      "contractAddress": "0x51017d5d1d2056e58c8e2226a0938d58d54e77dc",
      "function": "swap((address,address,uint24,int24,address),(bool,int256,uint160))",
      "arguments": [
        "(0x9ed4F4724b521326a9d9d2420252440bD05556c4, 0xD1620Dac6d79BE34F8500756B47cf91B1fA5Cc8C, 500, 5, 0x7e0C07EEabb2459D70dba5b8d100Dca44c652aC0)",
        "(true, 252052813, 4295128740)"
      ],
      "transaction": {
        "from": "0x70997970c51812dc3a010c7d01b50e0d17dc79c8",
        "to": "0x51017d5d1d2056e58c8e2226a0938d58d54e77dc",
        "value": "0x0",
        "input": "0x1e2817de0000000000000000000000009ed4f4724b521326a9d9d2420252440bd05556c4000000000000000000000000d1620dac6d79be34f8500756b47cf91b1fa5cc8c00000000000000000000000000000000000000000000000000000000000001f400000000000000000000000000000000000000000000000000000000000000050000000000000000000000007e0c07eeabb2459d70dba5b8d100dca44c652ac00000000000000000000000000000000000000000000000000000000000000001000000000000000000000000000000000000000000000000000000000f06054d00000000000000000000000000000000000000000000000000000001000276a4",
        "nonce": "0xff6",
        "chainId": "0x1"
      },
      "additionalContracts": [],
      "isFixedGasLimit": false
    },
    {
      "hash": null,
      "transactionType": "CALL",
      "contractName": "ChaosRouter",
      "contractAddress": "0x51017d5d1d2056e58c8e2226a0938d58d54e77dc",
      "function": "swap((address,address,uint24,int24,address),(bool,int256,uint160))",
      "arguments": [
        "(0x9ed4F4724b521326a9d9d2420252440bD05556c4, 0xD1620Dac6d79BE34F8500756B47cf91B1fA5Cc8C, 500, 5, 0x7e0C07EEabb2459D70dba5b8d100Dca44c652aC0)",
        "(false, 789171147, 1461446703485210103287273052203988822378723970341)"
      ],
      "transaction": {
        "from": "0x70997970c51812dc3a010c7d01b50e0d17dc79c8",
        "to": "0x51017d5d1d2056e58c8e2226a0938d58d54e77dc",
        "value": "0x0",
        "input": "0x1e2817de0000000000000000000000009ed4f4724b521326a9d9d2420252440bd05556c4000000000000000000000000d1620dac6d79be34f8500756b47cf91b1fa5cc8c00000000000000000000000000000000000000000000000000000000000001f400000000000000000000000000000000000000000000000000000000000000050000000000000000000000007e0c07eeabb2459d70dba5b8d100dca44c652ac00000000000000000000000000000000000000000000000000000000000000000000000000000000000000000000000000000000000000000000000002f09cbcb000000000000000000000000fffd8963efd1fc6a506488495d951d5263988d25",
        "nonce": "0xff7",
        "chainId": "0x1"
      },
      "additionalContracts": [],
      "isFixedGasLimit": false
    },
    {
      "hash": null,
      "transactionType": "CALL",
      "contractName": "ChaosRouter",
      "contractAddress": "0x51017d5d1d2056e58c8e2226a0938d58d54e77dc",
      "function": "swap((address,address,uint24,int24,address),(bool,int256,uint160))",
      "arguments": [
        "(0x9ed4F4724b521326a9d9d2420252440bD05556c4, 0xD1620Dac6d79BE34F8500756B47cf91B1fA5Cc8C, 500, 5, 0x7e0C07EEabb2459D70dba5b8d100Dca44c652aC0)",
        "(true, 450961525, 4295128740)"
      ],
      "transaction": {
        "from": "0x70997970c51812dc3a010c7d01b50e0d17dc79c8",
        "to": "0x51017d5d1d2056e58c8e2226a0938d58d54e77dc",
        "value": "0x0",
        "input": "0x1e2817de0000000000000000000000009ed4f4724b521326a9d9d2420252440bd05556c4000000000000000000000000d1620dac6d79be34f8500756b47cf91b1fa5cc8c00000000000000000000000000000000000000000000000000000000000001f400000000000000000000000000000000000000000000000000000000000000050000000000000000000000007e0c07eeabb2459d70dba5b8d100dca44c652ac00000000000000000000000000000000000000000000000000000000000000001000000000000000000000000000000000000000000000000000000001ae1207500000000000000000000000000000000000000000000000000000001000276a4",
        "nonce": "0xff8",
        "chainId": "0x1"
      },
      "additionalContracts": [],
      "isFixedGasLimit": false
    },
    {
      "hash": null,
      "transactionType": "CALL",
      "contractName": "ChaosRouter",
      "contractAddress": "0x51017d5d1d2056e58c8e2226a0938d58d54e77dc",
      "function": "swap((address,address,uint24,int24,address),(bool,int256,uint160))",
      "arguments": [
        "(0x9ed4F4724b521326a9d9d2420252440bD05556c4, 0xD1620Dac6d79BE34F8500756B47cf91B1fA5Cc8C, 500, 5, 0x7e0C07EEabb2459D70dba5b8d100Dca44c652aC0)",
        "(false, 550690964, 1461446703485210103287273052203988822378723970341)"
      ],
      "transaction": {
        "from": "0x70997970c51812dc3a010c7d01b50e0d17dc79c8",
        "to": "0x51017d5d1d2056e58c8e2226a0938d58d54e77dc",
        "value": "0x0",
        "input": "0x1e2817de0000000000000000000000009ed4f4724b521326a9d9d2420252440bd05556c4000000000000000000000000d1620dac6d79be34f8500756b47cf91b1fa5cc8c00000000000000000000000000000000000000000000000000000000000001f400000000000000000000000000000000000000000000000000000000000000050000000000000000000000007e0c07eeabb2459d70dba5b8d100dca44c652ac000000000000000000000000000000000000000000000000000000000000000000000000000000000000000000000000000000000000000000000000020d2e094000000000000000000000000fffd8963efd1fc6a506488495d951d5263988d25",
        "nonce": "0xff9",
        "chainId": "0x1"
      },
      "additionalContracts": [],
      "isFixedGasLimit": false
    },
    {
      "hash": null,
      "transactionType": "CALL",
      "contractName": "ChaosRouter",
      "contractAddress": "0x51017d5d1d2056e58c8e2226a0938d58d54e77dc",
      "function": "swap((address,address,uint24,int24,address),(bool,int256,uint160))",
      "arguments": [
        "(0x9ed4F4724b521326a9d9d2420252440bD05556c4, 0xD1620Dac6d79BE34F8500756B47cf91B1fA5Cc8C, 500, 5, 0x7e0C07EEabb2459D70dba5b8d100Dca44c652aC0)",
        "(false, -104364318, 1461446703485210103287273052203988822378723970341)"
      ],
      "transaction": {
        "from": "0x70997970c51812dc3a010c7d01b50e0d17dc79c8",
        "to": "0x51017d5d1d2056e58c8e2226a0938d58d54e77dc",
        "value": "0x0",
        "input": "0x1e2817de0000000000000000000000009ed4f4724b521326a9d9d2420252440bd05556c4000000000000000000000000d1620dac6d79be34f8500756b47cf91b1fa5cc8c00000000000000000000000000000000000000000000000000000000000001f400000000000000000000000000000000000000000000000000000000000000050000000000000000000000007e0c07eeabb2459d70dba5b8d100dca44c652ac00000000000000000000000000000000000000000000000000000000000000000fffffffffffffffffffffffffffffffffffffffffffffffffffffffff9c786e2000000000000000000000000fffd8963efd1fc6a506488495d951d5263988d25",
        "nonce": "0xffa",
        "chainId": "0x1"
      },
      "additionalContracts": [],
      "isFixedGasLimit": false
    },
    {
      "hash": null,
      "transactionType": "CALL",
      "contractName": "ChaosRouter",
      "contractAddress": "0x51017d5d1d2056e58c8e2226a0938d58d54e77dc",
      "function": "swap((address,address,uint24,int24,address),(bool,int256,uint160))",
      "arguments": [
        "(0x9ed4F4724b521326a9d9d2420252440bD05556c4, 0xD1620Dac6d79BE34F8500756B47cf91B1fA5Cc8C, 500, 5, 0x7e0C07EEabb2459D70dba5b8d100Dca44c652aC0)",
        "(false, -690335185, 1461446703485210103287273052203988822378723970341)"
      ],
      "transaction": {
        "from": "0x70997970c51812dc3a010c7d01b50e0d17dc79c8",
        "to": "0x51017d5d1d2056e58c8e2226a0938d58d54e77dc",
        "value": "0x0",
        "input": "0x1e2817de0000000000000000000000009ed4f4724b521326a9d9d2420252440bd05556c4000000000000000000000000d1620dac6d79be34f8500756b47cf91b1fa5cc8c00000000000000000000000000000000000000000000000000000000000001f400000000000000000000000000000000000000000000000000000000000000050000000000000000000000007e0c07eeabb2459d70dba5b8d100dca44c652ac00000000000000000000000000000000000000000000000000000000000000000ffffffffffffffffffffffffffffffffffffffffffffffffffffffffd6da522f000000000000000000000000fffd8963efd1fc6a506488495d951d5263988d25",
        "nonce": "0xffb",
        "chainId": "0x1"
      },
      "additionalContracts": [],
      "isFixedGasLimit": false
    },
    {
      "hash": null,
      "transactionType": "CALL",
      "contractName": "ChaosRouter",
      "contractAddress": "0x51017d5d1d2056e58c8e2226a0938d58d54e77dc",
      "function": "swap((address,address,uint24,int24,address),(bool,int256,uint160))",
      "arguments": [
        "(0x9ed4F4724b521326a9d9d2420252440bD05556c4, 0xD1620Dac6d79BE34F8500756B47cf91B1fA5Cc8C, 500, 5, 0x7e0C07EEabb2459D70dba5b8d100Dca44c652aC0)",
        "(true, -335706945, 4295128740)"
      ],
      "transaction": {
        "from": "0x70997970c51812dc3a010c7d01b50e0d17dc79c8",
        "to": "0x51017d5d1d2056e58c8e2226a0938d58d54e77dc",
        "value": "0x0",
        "input": "0x1e2817de0000000000000000000000009ed4f4724b521326a9d9d2420252440bd05556c4000000000000000000000000d1620dac6d79be34f8500756b47cf91b1fa5cc8c00000000000000000000000000000000000000000000000000000000000001f400000000000000000000000000000000000000000000000000000000000000050000000000000000000000007e0c07eeabb2459d70dba5b8d100dca44c652ac00000000000000000000000000000000000000000000000000000000000000001ffffffffffffffffffffffffffffffffffffffffffffffffffffffffebfd84bf00000000000000000000000000000000000000000000000000000001000276a4",
        "nonce": "0xffc",
        "chainId": "0x1"
      },
      "additionalContracts": [],
      "isFixedGasLimit": false
    },
    {
      "hash": null,
      "transactionType": "CALL",
      "contractName": "ChaosRouter",
      "contractAddress": "0x51017d5d1d2056e58c8e2226a0938d58d54e77dc",
      "function": "swap((address,address,uint24,int24,address),(bool,int256,uint160))",
      "arguments": [
        "(0x9ed4F4724b521326a9d9d2420252440bD05556c4, 0xD1620Dac6d79BE34F8500756B47cf91B1fA5Cc8C, 500, 5, 0x7e0C07EEabb2459D70dba5b8d100Dca44c652aC0)",
        "(true, -96184410, 4295128740)"
      ],
      "transaction": {
        "from": "0x70997970c51812dc3a010c7d01b50e0d17dc79c8",
        "to": "0x51017d5d1d2056e58c8e2226a0938d58d54e77dc",
        "value": "0x0",
        "input": "0x1e2817de0000000000000000000000009ed4f4724b521326a9d9d2420252440bd05556c4000000000000000000000000d1620dac6d79be34f8500756b47cf91b1fa5cc8c00000000000000000000000000000000000000000000000000000000000001f400000000000000000000000000000000000000000000000000000000000000050000000000000000000000007e0c07eeabb2459d70dba5b8d100dca44c652ac00000000000000000000000000000000000000000000000000000000000000001fffffffffffffffffffffffffffffffffffffffffffffffffffffffffa4457a600000000000000000000000000000000000000000000000000000001000276a4",
        "nonce": "0xffd",
        "chainId": "0x1"
      },
      "additionalContracts": [],
      "isFixedGasLimit": false
    },
    {
      "hash": null,
      "transactionType": "CALL",
      "contractName": "ChaosRouter",
      "contractAddress": "0x51017d5d1d2056e58c8e2226a0938d58d54e77dc",
      "function": "swap((address,address,uint24,int24,address),(bool,int256,uint160))",
      "arguments": [
        "(0x9ed4F4724b521326a9d9d2420252440bD05556c4, 0xD1620Dac6d79BE34F8500756B47cf91B1fA5Cc8C, 500, 5, 0x7e0C07EEabb2459D70dba5b8d100Dca44c652aC0)",
        "(true, -346512329, 4295128740)"
      ],
      "transaction": {
        "from": "0x70997970c51812dc3a010c7d01b50e0d17dc79c8",
        "to": "0x51017d5d1d2056e58c8e2226a0938d58d54e77dc",
        "value": "0x0",
        "input": "0x1e2817de0000000000000000000000009ed4f4724b521326a9d9d2420252440bd05556c4000000000000000000000000d1620dac6d79be34f8500756b47cf91b1fa5cc8c00000000000000000000000000000000000000000000000000000000000001f400000000000000000000000000000000000000000000000000000000000000050000000000000000000000007e0c07eeabb2459d70dba5b8d100dca44c652ac00000000000000000000000000000000000000000000000000000000000000001ffffffffffffffffffffffffffffffffffffffffffffffffffffffffeb58a43700000000000000000000000000000000000000000000000000000001000276a4",
        "nonce": "0xffe",
        "chainId": "0x1"
      },
      "additionalContracts": [],
      "isFixedGasLimit": false
    },
    {
      "hash": null,
      "transactionType": "CALL",
      "contractName": "ChaosRouter",
      "contractAddress": "0x51017d5d1d2056e58c8e2226a0938d58d54e77dc",
      "function": "swap((address,address,uint24,int24,address),(bool,int256,uint160))",
      "arguments": [
        "(0x9ed4F4724b521326a9d9d2420252440bD05556c4, 0xD1620Dac6d79BE34F8500756B47cf91B1fA5Cc8C, 500, 5, 0x7e0C07EEabb2459D70dba5b8d100Dca44c652aC0)",
        "(false, 952758356, 1461446703485210103287273052203988822378723970341)"
      ],
      "transaction": {
        "from": "0x70997970c51812dc3a010c7d01b50e0d17dc79c8",
        "to": "0x51017d5d1d2056e58c8e2226a0938d58d54e77dc",
        "value": "0x0",
        "input": "0x1e2817de0000000000000000000000009ed4f4724b521326a9d9d2420252440bd05556c4000000000000000000000000d1620dac6d79be34f8500756b47cf91b1fa5cc8c00000000000000000000000000000000000000000000000000000000000001f400000000000000000000000000000000000000000000000000000000000000050000000000000000000000007e0c07eeabb2459d70dba5b8d100dca44c652ac000000000000000000000000000000000000000000000000000000000000000000000000000000000000000000000000000000000000000000000000038c9f054000000000000000000000000fffd8963efd1fc6a506488495d951d5263988d25",
        "nonce": "0xfff",
        "chainId": "0x1"
      },
      "additionalContracts": [],
      "isFixedGasLimit": false
    },
    {
      "hash": null,
      "transactionType": "CALL",
      "contractName": "ChaosRouter",
      "contractAddress": "0x51017d5d1d2056e58c8e2226a0938d58d54e77dc",
      "function": "swap((address,address,uint24,int24,address),(bool,int256,uint160))",
      "arguments": [
        "(0x9ed4F4724b521326a9d9d2420252440bD05556c4, 0xD1620Dac6d79BE34F8500756B47cf91B1fA5Cc8C, 500, 5, 0x7e0C07EEabb2459D70dba5b8d100Dca44c652aC0)",
        "(false, 831325893, 1461446703485210103287273052203988822378723970341)"
      ],
      "transaction": {
        "from": "0x70997970c51812dc3a010c7d01b50e0d17dc79c8",
        "to": "0x51017d5d1d2056e58c8e2226a0938d58d54e77dc",
        "value": "0x0",
        "input": "0x1e2817de0000000000000000000000009ed4f4724b521326a9d9d2420252440bd05556c4000000000000000000000000d1620dac6d79be34f8500756b47cf91b1fa5cc8c00000000000000000000000000000000000000000000000000000000000001f400000000000000000000000000000000000000000000000000000000000000050000000000000000000000007e0c07eeabb2459d70dba5b8d100dca44c652ac0000000000000000000000000000000000000000000000000000000000000000000000000000000000000000000000000000000000000000000000000318d06c5000000000000000000000000fffd8963efd1fc6a506488495d951d5263988d25",
        "nonce": "0x1000",
        "chainId": "0x1"
      },
      "additionalContracts": [],
      "isFixedGasLimit": false
    },
    {
      "hash": null,
      "transactionType": "CALL",
      "contractName": "ChaosRouter",
      "contractAddress": "0x51017d5d1d2056e58c8e2226a0938d58d54e77dc",
      "function": "swap((address,address,uint24,int24,address),(bool,int256,uint160))",
      "arguments": [
        "(0x9ed4F4724b521326a9d9d2420252440bD05556c4, 0xD1620Dac6d79BE34F8500756B47cf91B1fA5Cc8C, 500, 5, 0x7e0C07EEabb2459D70dba5b8d100Dca44c652aC0)",
        "(false, 112801636, 1461446703485210103287273052203988822378723970341)"
      ],
      "transaction": {
        "from": "0x70997970c51812dc3a010c7d01b50e0d17dc79c8",
        "to": "0x51017d5d1d2056e58c8e2226a0938d58d54e77dc",
        "value": "0x0",
        "input": "0x1e2817de0000000000000000000000009ed4f4724b521326a9d9d2420252440bd05556c4000000000000000000000000d1620dac6d79be34f8500756b47cf91b1fa5cc8c00000000000000000000000000000000000000000000000000000000000001f400000000000000000000000000000000000000000000000000000000000000050000000000000000000000007e0c07eeabb2459d70dba5b8d100dca44c652ac000000000000000000000000000000000000000000000000000000000000000000000000000000000000000000000000000000000000000000000000006b93764000000000000000000000000fffd8963efd1fc6a506488495d951d5263988d25",
        "nonce": "0x1001",
        "chainId": "0x1"
      },
      "additionalContracts": [],
      "isFixedGasLimit": false
    },
    {
      "hash": null,
      "transactionType": "CALL",
      "contractName": "ChaosRouter",
      "contractAddress": "0x51017d5d1d2056e58c8e2226a0938d58d54e77dc",
      "function": "swap((address,address,uint24,int24,address),(bool,int256,uint160))",
      "arguments": [
        "(0x9ed4F4724b521326a9d9d2420252440bD05556c4, 0xD1620Dac6d79BE34F8500756B47cf91B1fA5Cc8C, 500, 5, 0x7e0C07EEabb2459D70dba5b8d100Dca44c652aC0)",
        "(false, -4683370740, 1461446703485210103287273052203988822378723970341)"
      ],
      "transaction": {
        "from": "0x70997970c51812dc3a010c7d01b50e0d17dc79c8",
        "to": "0x51017d5d1d2056e58c8e2226a0938d58d54e77dc",
        "value": "0x0",
        "input": "0x1e2817de0000000000000000000000009ed4f4724b521326a9d9d2420252440bd05556c4000000000000000000000000d1620dac6d79be34f8500756b47cf91b1fa5cc8c00000000000000000000000000000000000000000000000000000000000001f400000000000000000000000000000000000000000000000000000000000000050000000000000000000000007e0c07eeabb2459d70dba5b8d100dca44c652ac00000000000000000000000000000000000000000000000000000000000000000fffffffffffffffffffffffffffffffffffffffffffffffffffffffee8d96f0c000000000000000000000000fffd8963efd1fc6a506488495d951d5263988d25",
        "nonce": "0x1002",
        "chainId": "0x1"
      },
      "additionalContracts": [],
      "isFixedGasLimit": false
    },
    {
      "hash": null,
      "transactionType": "CALL",
      "contractName": "ChaosRouter",
      "contractAddress": "0x51017d5d1d2056e58c8e2226a0938d58d54e77dc",
      "function": "swap((address,address,uint24,int24,address),(bool,int256,uint160))",
      "arguments": [
        "(0x9ed4F4724b521326a9d9d2420252440bD05556c4, 0xD1620Dac6d79BE34F8500756B47cf91B1fA5Cc8C, 500, 5, 0x7e0C07EEabb2459D70dba5b8d100Dca44c652aC0)",
        "(false, -757673122, 1461446703485210103287273052203988822378723970341)"
      ],
      "transaction": {
        "from": "0x70997970c51812dc3a010c7d01b50e0d17dc79c8",
        "to": "0x51017d5d1d2056e58c8e2226a0938d58d54e77dc",
        "value": "0x0",
        "input": "0x1e2817de0000000000000000000000009ed4f4724b521326a9d9d2420252440bd05556c4000000000000000000000000d1620dac6d79be34f8500756b47cf91b1fa5cc8c00000000000000000000000000000000000000000000000000000000000001f400000000000000000000000000000000000000000000000000000000000000050000000000000000000000007e0c07eeabb2459d70dba5b8d100dca44c652ac00000000000000000000000000000000000000000000000000000000000000000ffffffffffffffffffffffffffffffffffffffffffffffffffffffffd2d6d35e000000000000000000000000fffd8963efd1fc6a506488495d951d5263988d25",
        "nonce": "0x1003",
        "chainId": "0x1"
      },
      "additionalContracts": [],
      "isFixedGasLimit": false
    },
    {
      "hash": null,
      "transactionType": "CALL",
      "contractName": "ChaosRouter",
      "contractAddress": "0x51017d5d1d2056e58c8e2226a0938d58d54e77dc",
      "function": "swap((address,address,uint24,int24,address),(bool,int256,uint160))",
      "arguments": [
        "(0x9ed4F4724b521326a9d9d2420252440bD05556c4, 0xD1620Dac6d79BE34F8500756B47cf91B1fA5Cc8C, 500, 5, 0x7e0C07EEabb2459D70dba5b8d100Dca44c652aC0)",
        "(true, -267745323, 4295128740)"
      ],
      "transaction": {
        "from": "0x70997970c51812dc3a010c7d01b50e0d17dc79c8",
        "to": "0x51017d5d1d2056e58c8e2226a0938d58d54e77dc",
        "value": "0x0",
        "input": "0x1e2817de0000000000000000000000009ed4f4724b521326a9d9d2420252440bd05556c4000000000000000000000000d1620dac6d79be34f8500756b47cf91b1fa5cc8c00000000000000000000000000000000000000000000000000000000000001f400000000000000000000000000000000000000000000000000000000000000050000000000000000000000007e0c07eeabb2459d70dba5b8d100dca44c652ac00000000000000000000000000000000000000000000000000000000000000001fffffffffffffffffffffffffffffffffffffffffffffffffffffffff00a87d500000000000000000000000000000000000000000000000000000001000276a4",
        "nonce": "0x1004",
        "chainId": "0x1"
      },
      "additionalContracts": [],
      "isFixedGasLimit": false
    },
    {
      "hash": null,
      "transactionType": "CALL",
      "contractName": "ChaosRouter",
      "contractAddress": "0x51017d5d1d2056e58c8e2226a0938d58d54e77dc",
      "function": "swap((address,address,uint24,int24,address),(bool,int256,uint160))",
      "arguments": [
        "(0x9ed4F4724b521326a9d9d2420252440bD05556c4, 0xD1620Dac6d79BE34F8500756B47cf91B1fA5Cc8C, 500, 5, 0x7e0C07EEabb2459D70dba5b8d100Dca44c652aC0)",
        "(false, -669951488, 1461446703485210103287273052203988822378723970341)"
      ],
      "transaction": {
        "from": "0x70997970c51812dc3a010c7d01b50e0d17dc79c8",
        "to": "0x51017d5d1d2056e58c8e2226a0938d58d54e77dc",
        "value": "0x0",
        "input": "0x1e2817de0000000000000000000000009ed4f4724b521326a9d9d2420252440bd05556c4000000000000000000000000d1620dac6d79be34f8500756b47cf91b1fa5cc8c00000000000000000000000000000000000000000000000000000000000001f400000000000000000000000000000000000000000000000000000000000000050000000000000000000000007e0c07eeabb2459d70dba5b8d100dca44c652ac00000000000000000000000000000000000000000000000000000000000000000ffffffffffffffffffffffffffffffffffffffffffffffffffffffffd8115a00000000000000000000000000fffd8963efd1fc6a506488495d951d5263988d25",
        "nonce": "0x1005",
        "chainId": "0x1"
      },
      "additionalContracts": [],
      "isFixedGasLimit": false
    },
    {
      "hash": null,
      "transactionType": "CALL",
      "contractName": "ChaosRouter",
      "contractAddress": "0x51017d5d1d2056e58c8e2226a0938d58d54e77dc",
      "function": "swap((address,address,uint24,int24,address),(bool,int256,uint160))",
      "arguments": [
        "(0x9ed4F4724b521326a9d9d2420252440bD05556c4, 0xD1620Dac6d79BE34F8500756B47cf91B1fA5Cc8C, 500, 5, 0x7e0C07EEabb2459D70dba5b8d100Dca44c652aC0)",
        "(true, -311659401, 4295128740)"
      ],
      "transaction": {
        "from": "0x70997970c51812dc3a010c7d01b50e0d17dc79c8",
        "to": "0x51017d5d1d2056e58c8e2226a0938d58d54e77dc",
        "value": "0x0",
        "input": "0x1e2817de0000000000000000000000009ed4f4724b521326a9d9d2420252440bd05556c4000000000000000000000000d1620dac6d79be34f8500756b47cf91b1fa5cc8c00000000000000000000000000000000000000000000000000000000000001f400000000000000000000000000000000000000000000000000000000000000050000000000000000000000007e0c07eeabb2459d70dba5b8d100dca44c652ac00000000000000000000000000000000000000000000000000000000000000001ffffffffffffffffffffffffffffffffffffffffffffffffffffffffed6c747700000000000000000000000000000000000000000000000000000001000276a4",
        "nonce": "0x1006",
        "chainId": "0x1"
      },
      "additionalContracts": [],
      "isFixedGasLimit": false
    },
    {
      "hash": null,
      "transactionType": "CALL",
      "contractName": "ChaosRouter",
      "contractAddress": "0x51017d5d1d2056e58c8e2226a0938d58d54e77dc",
      "function": "swap((address,address,uint24,int24,address),(bool,int256,uint160))",
      "arguments": [
        "(0x9ed4F4724b521326a9d9d2420252440bD05556c4, 0xD1620Dac6d79BE34F8500756B47cf91B1fA5Cc8C, 500, 5, 0x7e0C07EEabb2459D70dba5b8d100Dca44c652aC0)",
        "(false, 699674517, 1461446703485210103287273052203988822378723970341)"
      ],
      "transaction": {
        "from": "0x70997970c51812dc3a010c7d01b50e0d17dc79c8",
        "to": "0x51017d5d1d2056e58c8e2226a0938d58d54e77dc",
        "value": "0x0",
        "input": "0x1e2817de0000000000000000000000009ed4f4724b521326a9d9d2420252440bd05556c4000000000000000000000000d1620dac6d79be34f8500756b47cf91b1fa5cc8c00000000000000000000000000000000000000000000000000000000000001f400000000000000000000000000000000000000000000000000000000000000050000000000000000000000007e0c07eeabb2459d70dba5b8d100dca44c652ac000000000000000000000000000000000000000000000000000000000000000000000000000000000000000000000000000000000000000000000000029b42f95000000000000000000000000fffd8963efd1fc6a506488495d951d5263988d25",
        "nonce": "0x1007",
        "chainId": "0x1"
      },
      "additionalContracts": [],
      "isFixedGasLimit": false
    },
    {
      "hash": null,
      "transactionType": "CALL",
      "contractName": "ChaosRouter",
      "contractAddress": "0x51017d5d1d2056e58c8e2226a0938d58d54e77dc",
      "function": "swap((address,address,uint24,int24,address),(bool,int256,uint160))",
      "arguments": [
        "(0x9ed4F4724b521326a9d9d2420252440bD05556c4, 0xD1620Dac6d79BE34F8500756B47cf91B1fA5Cc8C, 500, 5, 0x7e0C07EEabb2459D70dba5b8d100Dca44c652aC0)",
        "(true, -158785727, 4295128740)"
      ],
      "transaction": {
        "from": "0x70997970c51812dc3a010c7d01b50e0d17dc79c8",
        "to": "0x51017d5d1d2056e58c8e2226a0938d58d54e77dc",
        "value": "0x0",
        "input": "0x1e2817de0000000000000000000000009ed4f4724b521326a9d9d2420252440bd05556c4000000000000000000000000d1620dac6d79be34f8500756b47cf91b1fa5cc8c00000000000000000000000000000000000000000000000000000000000001f400000000000000000000000000000000000000000000000000000000000000050000000000000000000000007e0c07eeabb2459d70dba5b8d100dca44c652ac00000000000000000000000000000000000000000000000000000000000000001fffffffffffffffffffffffffffffffffffffffffffffffffffffffff6891f4100000000000000000000000000000000000000000000000000000001000276a4",
        "nonce": "0x1008",
        "chainId": "0x1"
      },
      "additionalContracts": [],
      "isFixedGasLimit": false
    },
    {
      "hash": null,
      "transactionType": "CALL",
      "contractName": "ChaosRouter",
      "contractAddress": "0x51017d5d1d2056e58c8e2226a0938d58d54e77dc",
      "function": "swap((address,address,uint24,int24,address),(bool,int256,uint160))",
      "arguments": [
        "(0x9ed4F4724b521326a9d9d2420252440bD05556c4, 0xD1620Dac6d79BE34F8500756B47cf91B1fA5Cc8C, 500, 5, 0x7e0C07EEabb2459D70dba5b8d100Dca44c652aC0)",
        "(false, -725594663, 1461446703485210103287273052203988822378723970341)"
      ],
      "transaction": {
        "from": "0x70997970c51812dc3a010c7d01b50e0d17dc79c8",
        "to": "0x51017d5d1d2056e58c8e2226a0938d58d54e77dc",
        "value": "0x0",
        "input": "0x1e2817de0000000000000000000000009ed4f4724b521326a9d9d2420252440bd05556c4000000000000000000000000d1620dac6d79be34f8500756b47cf91b1fa5cc8c00000000000000000000000000000000000000000000000000000000000001f400000000000000000000000000000000000000000000000000000000000000050000000000000000000000007e0c07eeabb2459d70dba5b8d100dca44c652ac00000000000000000000000000000000000000000000000000000000000000000ffffffffffffffffffffffffffffffffffffffffffffffffffffffffd4c04dd9000000000000000000000000fffd8963efd1fc6a506488495d951d5263988d25",
        "nonce": "0x1009",
        "chainId": "0x1"
      },
      "additionalContracts": [],
      "isFixedGasLimit": false
    },
    {
      "hash": null,
      "transactionType": "CALL",
      "contractName": "ChaosRouter",
      "contractAddress": "0x51017d5d1d2056e58c8e2226a0938d58d54e77dc",
      "function": "swap((address,address,uint24,int24,address),(bool,int256,uint160))",
      "arguments": [
        "(0x9ed4F4724b521326a9d9d2420252440bD05556c4, 0xD1620Dac6d79BE34F8500756B47cf91B1fA5Cc8C, 500, 5, 0x7e0C07EEabb2459D70dba5b8d100Dca44c652aC0)",
        "(true, 693141134, 4295128740)"
      ],
      "transaction": {
        "from": "0x70997970c51812dc3a010c7d01b50e0d17dc79c8",
        "to": "0x51017d5d1d2056e58c8e2226a0938d58d54e77dc",
        "value": "0x0",
        "input": "0x1e2817de0000000000000000000000009ed4f4724b521326a9d9d2420252440bd05556c4000000000000000000000000d1620dac6d79be34f8500756b47cf91b1fa5cc8c00000000000000000000000000000000000000000000000000000000000001f400000000000000000000000000000000000000000000000000000000000000050000000000000000000000007e0c07eeabb2459d70dba5b8d100dca44c652ac000000000000000000000000000000000000000000000000000000000000000010000000000000000000000000000000000000000000000000000000029507e8e00000000000000000000000000000000000000000000000000000001000276a4",
        "nonce": "0x100a",
        "chainId": "0x1"
      },
      "additionalContracts": [],
      "isFixedGasLimit": false
    },
    {
      "hash": null,
      "transactionType": "CALL",
      "contractName": "ChaosRouter",
      "contractAddress": "0x51017d5d1d2056e58c8e2226a0938d58d54e77dc",
      "function": "swap((address,address,uint24,int24,address),(bool,int256,uint160))",
      "arguments": [
        "(0x9ed4F4724b521326a9d9d2420252440bD05556c4, 0xD1620Dac6d79BE34F8500756B47cf91B1fA5Cc8C, 500, 5, 0x7e0C07EEabb2459D70dba5b8d100Dca44c652aC0)",
        "(false, 1000000, 1461446703485210103287273052203988822378723970341)"
      ],
      "transaction": {
        "from": "0x70997970c51812dc3a010c7d01b50e0d17dc79c8",
        "to": "0x51017d5d1d2056e58c8e2226a0938d58d54e77dc",
        "value": "0x0",
        "input": "0x1e2817de0000000000000000000000009ed4f4724b521326a9d9d2420252440bd05556c4000000000000000000000000d1620dac6d79be34f8500756b47cf91b1fa5cc8c00000000000000000000000000000000000000000000000000000000000001f400000000000000000000000000000000000000000000000000000000000000050000000000000000000000007e0c07eeabb2459d70dba5b8d100dca44c652ac0000000000000000000000000000000000000000000000000000000000000000000000000000000000000000000000000000000000000000000000000000f4240000000000000000000000000fffd8963efd1fc6a506488495d951d5263988d25",
        "nonce": "0x100b",
        "chainId": "0x1"
      },
      "additionalContracts": [],
      "isFixedGasLimit": false
    }
  ],
  "receipts": [
    {
      "status": "0x1",
      "cumulativeGasUsed": "0x972e3",
      "logs": [],
      "logsBloom": "0x00000000000000000000000000000000000000000000000000000000000000000000000000000000000000000000000000000000000000000000000000000000000000000000000000000000000000000000000000000000000000000000000000000000000000000000000000000000000000000000000000000000000000000000000000000000000000000000000000000000000000000000000000000000000000000000000000000000000000000000000000000000000000000000000000000000000000000000000000000000000000000000000000000000000000000000000000000000000000000000000000000000000000000000000000000000",
      "type": "0x2",
      "transactionHash": "0x3183ff98b87c3a95da296a83ecf2d376372e37a3a29bedc08260edb3b104a547",
      "transactionIndex": "0x0",
      "blockHash": "0x5600906a6db2df367d0d2941faad6fe883aa41f54d71e24b1fa090ce2de427d3",
      "blockNumber": "0x173c1d8",
      "gasUsed": "0x972e3",
      "effectiveGasPrice": "0x5e4",
      "blobGasPrice": "0x1",
      "from": "0x70997970c51812dc3a010c7d01b50e0d17dc79c8",
      "to": null,
      "contractAddress": "0x51017d5d1d2056e58c8e2226a0938d58d54e77dc"
    },
    {
      "status": "0x1",
      "cumulativeGasUsed": "0xb4bf",
      "logs": [
        {
          "address": "0xd1620dac6d79be34f8500756b47cf91b1fa5cc8c",
          "topics": [
            "0x8c5be1e5ebec7d5bd14f71427d1e84f3dd0314c0f7b2291e5b200ac8c7c3b925",
            "0x00000000000000000000000070997970c51812dc3a010c7d01b50e0d17dc79c8",
            "0x00000000000000000000000051017d5d1d2056e58c8e2226a0938d58d54e77dc"
          ],
          "data": "0xffffffffffffffffffffffffffffffffffffffffffffffffffffffffffffffff",
          "blockHash": "0xeae618fb5b3a24c3336a6172a77fe84b5b766324289996d7c467d030bd80f7cc",
          "blockNumber": "0x173c1d9",
          "blockTimestamp": "0x697fa38e",
          "transactionHash": "0x5747bc95cc4942cb45fa9f47f60dcf1dc3f3d6daab3635d139427036d479543e",
          "transactionIndex": "0x0",
          "logIndex": "0x0",
          "removed": false
        }
      ],
      "logsBloom": "0x00000000000000008002000000000000000000000000000000000000000000000000000000000000000000000000000000080000000080000000000000200000000000000000000000000000000000000000000000000000000000004000000000000800000000000000000000008000000000000000000000000000000000000000002000000000000000000000000000000000000000000000000000000000020000000000000000000000000000000000000000000000000000000000000000000000000000000000000000000000000000000000000000000000000000000010000000000000000000000000000001000000000000000000000000000000",
      "type": "0x2",
      "transactionHash": "0x5747bc95cc4942cb45fa9f47f60dcf1dc3f3d6daab3635d139427036d479543e",
      "transactionIndex": "0x0",
      "blockHash": "0xeae618fb5b3a24c3336a6172a77fe84b5b766324289996d7c467d030bd80f7cc",
      "blockNumber": "0x173c1d9",
      "gasUsed": "0xb4bf",
      "effectiveGasPrice": "0x5e4",
      "blobGasPrice": "0x1",
      "from": "0x70997970c51812dc3a010c7d01b50e0d17dc79c8",
      "to": "0xd1620dac6d79be34f8500756b47cf91b1fa5cc8c",
      "contractAddress": null
    },
    {
      "status": "0x1",
      "cumulativeGasUsed": "0xb4a9",
      "logs": [
        {
          "address": "0x9ed4f4724b521326a9d9d2420252440bd05556c4",
          "topics": [
            "0x8c5be1e5ebec7d5bd14f71427d1e84f3dd0314c0f7b2291e5b200ac8c7c3b925",
            "0x00000000000000000000000070997970c51812dc3a010c7d01b50e0d17dc79c8",
            "0x00000000000000000000000051017d5d1d2056e58c8e2226a0938d58d54e77dc"
          ],
          "data": "0xffffffffffffffffffffffffffffffffffffffffffffffffffffffffffffffff",
          "blockHash": "0xf9fb47dd41a175befdbb6bfb315b80501ce464a2bea50090e58bdb46615527e1",
          "blockNumber": "0x173c1da",
          "blockTimestamp": "0x697fa38e",
          "transactionHash": "0x5262ba9e997b64b28fad75ad3d8b845c69a1bc9fd18fc83806c2ffbe968ebac7",
          "transactionIndex": "0x0",
          "logIndex": "0x0",
          "removed": false
        }
      ],
      "logsBloom": "0x00000000004000000006000000000000000000000000000000000000000000000000000000000000000000000000000000080000000080000000000000200000000000000000000000000000000000000000000000000000000000000000000000000800000000000000000000008000000000000000000000000000000000000000020000000000000000000000000000000000000000000000000000000000020000000000000000000000000000000000000000000000000000000000000000000000000000000000000000000000000000000000000000000000000000000010000000000000000000000000000001000000000000000000000000000000",
      "type": "0x2",
      "transactionHash": "0x5262ba9e997b64b28fad75ad3d8b845c69a1bc9fd18fc83806c2ffbe968ebac7",
      "transactionIndex": "0x0",
      "blockHash": "0xf9fb47dd41a175befdbb6bfb315b80501ce464a2bea50090e58bdb46615527e1",
      "blockNumber": "0x173c1da",
      "gasUsed": "0xb4a9",
      "effectiveGasPrice": "0x5e4",
      "blobGasPrice": "0x1",
      "from": "0x70997970c51812dc3a010c7d01b50e0d17dc79c8",
      "to": "0x9ed4f4724b521326a9d9d2420252440bd05556c4",
      "contractAddress": null
    },
    {
      "status": "0x1",
      "cumulativeGasUsed": "0x66c7",
      "logs": [
        {
          "address": "0xd1620dac6d79be34f8500756b47cf91b1fa5cc8c",
          "topics": [
            "0x8c5be1e5ebec7d5bd14f71427d1e84f3dd0314c0f7b2291e5b200ac8c7c3b925",
            "0x00000000000000000000000070997970c51812dc3a010c7d01b50e0d17dc79c8",
            "0x000000000000000000000000000000000004444c5dc75cb358380d2e3de08a90"
          ],
          "data": "0xffffffffffffffffffffffffffffffffffffffffffffffffffffffffffffffff",
          "blockHash": "0xab9523d6faa9a9000a0870f5cb396458a2238463ee68e80c007579fb7c4fd63d",
          "blockNumber": "0x173c1db",
          "blockTimestamp": "0x697fa38e",
          "transactionHash": "0xba0446e22db0ed76ebc8044326772c20c182b559ad685975e1b7f925cbf7f495",
          "transactionIndex": "0x0",
          "logIndex": "0x0",
          "removed": false
        }
      ],
      "logsBloom": "0x00000000000000008002000000000000000000000000000000000000000000000000000000000000001000000000000000000000000000000000000000200000000000000000000000000000000000000000000000000000000000004000000000000800000000000000000000000000000000000000000000000000000000000000002800000000000000000000000000000000000000000000000000000000020000000000000000000000000000000000000000000000000000000000000000000000000000000000000000000000000000400000000000000000000000000010000000000000000000000000000001000000000000000000000000000000",
      "type": "0x2",
      "transactionHash": "0xba0446e22db0ed76ebc8044326772c20c182b559ad685975e1b7f925cbf7f495",
      "transactionIndex": "0x0",
      "blockHash": "0xab9523d6faa9a9000a0870f5cb396458a2238463ee68e80c007579fb7c4fd63d",
      "blockNumber": "0x173c1db",
      "gasUsed": "0x66c7",
      "effectiveGasPrice": "0x5e4",
      "blobGasPrice": "0x1",
      "from": "0x70997970c51812dc3a010c7d01b50e0d17dc79c8",
      "to": "0xd1620dac6d79be34f8500756b47cf91b1fa5cc8c",
      "contractAddress": null
    },
    {
      "status": "0x1",
      "cumulativeGasUsed": "0x66b1",
      "logs": [
        {
          "address": "0x9ed4f4724b521326a9d9d2420252440bd05556c4",
          "topics": [
            "0x8c5be1e5ebec7d5bd14f71427d1e84f3dd0314c0f7b2291e5b200ac8c7c3b925",
            "0x00000000000000000000000070997970c51812dc3a010c7d01b50e0d17dc79c8",
            "0x000000000000000000000000000000000004444c5dc75cb358380d2e3de08a90"
          ],
          "data": "0xffffffffffffffffffffffffffffffffffffffffffffffffffffffffffffffff",
          "blockHash": "0x8dea56c4479add9c39f62c22f991eb16e2cff0c1623a7f7df8f4960fe243bd71",
          "blockNumber": "0x173c1dc",
          "blockTimestamp": "0x697fa38e",
          "transactionHash": "0xf0dc8461af2243b385bcaa0cc7484654050765793d7cbeed26e41027234b7025",
          "transactionIndex": "0x0",
          "logIndex": "0x0",
          "removed": false
        }
      ],
      "logsBloom": "0x00000000004000000006000000000000000000000000000000000000000000000000000000000000001000000000000000000000000000000000000000200000000000000000000000000000000000000000000000000000000000000000000000000800000000000000000000000000000000000000000000000000000000000000020800000000000000000000000000000000000000000000000000000000020000000000000000000000000000000000000000000000000000000000000000000000000000000000000000000000000000400000000000000000000000000010000000000000000000000000000001000000000000000000000000000000",
      "type": "0x2",
      "transactionHash": "0xf0dc8461af2243b385bcaa0cc7484654050765793d7cbeed26e41027234b7025",
      "transactionIndex": "0x0",
      "blockHash": "0x8dea56c4479add9c39f62c22f991eb16e2cff0c1623a7f7df8f4960fe243bd71",
      "blockNumber": "0x173c1dc",
      "gasUsed": "0x66b1",
      "effectiveGasPrice": "0x5e4",
      "blobGasPrice": "0x1",
      "from": "0x70997970c51812dc3a010c7d01b50e0d17dc79c8",
      "to": "0x9ed4f4724b521326a9d9d2420252440bd05556c4",
      "contractAddress": null
    },
    {
      "status": "0x1",
      "cumulativeGasUsed": "0x2307c",
      "logs": [
        {
          "address": "0x000000000004444c5dc75cb358380d2e3de08a90",
          "topics": [
            "0x40e9cecb9f5f1f1c5b9c97dec2917b7ee92e57ba5563708daca94dd84ad7112f",
            "0x3509745444ed1275bf3cc6196dcab60943ac6b87c5b249d3e64fa8e35e5b5f69",
            "0x00000000000000000000000051017d5d1d2056e58c8e2226a0938d58d54e77dc"
          ],
          "data": "0x000000000000000000000000000000000000000000000000000000001cc160b7ffffffffffffffffffffffffffffffffffffffffffffffffffffffff74acc645000000000000000000000000000000000000000235ade8322058d0b2155941720000000000000000000000000000000000000000000000000000001e1717e9e30000000000000000000000000000000000000000000000000000000000003df100000000000000000000000000000000000000000000000000000000000001f4",
          "blockHash": "0x4464bff8eb30903e00083d9dcf1e8da17ff52f721a2d72b539ef94bde9521bcd",
          "blockNumber": "0x173c1dd",
          "blockTimestamp": "0x697fa38e",
          "transactionHash": "0x5936e36e69791a9203c8407e0730bd5cae5acbd9f7838de5ef1fd0e1d147f2c0",
          "transactionIndex": "0x0",
          "logIndex": "0x0",
          "removed": false
        },
        {
          "address": "0xd1620dac6d79be34f8500756b47cf91b1fa5cc8c",
          "topics": [
            "0xddf252ad1be2c89b69c2b068fc378daa952ba7f163c4a11628f55a4df523b3ef",
            "0x00000000000000000000000070997970c51812dc3a010c7d01b50e0d17dc79c8",
            "0x000000000000000000000000000000000004444c5dc75cb358380d2e3de08a90"
          ],
          "data": "0x000000000000000000000000000000000000000000000000000000008b5339bb",
          "blockHash": "0x4464bff8eb30903e00083d9dcf1e8da17ff52f721a2d72b539ef94bde9521bcd",
          "blockNumber": "0x173c1dd",
          "blockTimestamp": "0x697fa38e",
          "transactionHash": "0x5936e36e69791a9203c8407e0730bd5cae5acbd9f7838de5ef1fd0e1d147f2c0",
          "transactionIndex": "0x0",
          "logIndex": "0x1",
          "removed": false
        },
        {
          "address": "0x9ed4f4724b521326a9d9d2420252440bd05556c4",
          "topics": [
            "0xddf252ad1be2c89b69c2b068fc378daa952ba7f163c4a11628f55a4df523b3ef",
            "0x000000000000000000000000000000000004444c5dc75cb358380d2e3de08a90",
            "0x00000000000000000000000070997970c51812dc3a010c7d01b50e0d17dc79c8"
          ],
          "data": "0x000000000000000000000000000000000000000000000000000000001cc160b7",
          "blockHash": "0x4464bff8eb30903e00083d9dcf1e8da17ff52f721a2d72b539ef94bde9521bcd",
          "blockNumber": "0x173c1dd",
          "blockTimestamp": "0x697fa38e",
          "transactionHash": "0x5936e36e69791a9203c8407e0730bd5cae5acbd9f7838de5ef1fd0e1d147f2c0",
          "transactionIndex": "0x0",
          "logIndex": "0x2",
          "removed": false
        }
      ],
      "logsBloom": "0x00000000004000008006000000000000000000000000000000000000000000000000000020000000001000000000000000080000040080000000000000008000000000000000000000000008000000000000000000000020000000004000000000000800000000008000000000008000000000000000000000000010000000000000022800000000000000000000000000000000000000000000000000000000000000000000000000000000100000000000000000000000000000000000000000000802000000000000000000000000000000400000000000000000000000000000000000000000004000000000000001000100000000000000000000000000",
      "type": "0x2",
      "transactionHash": "0x5936e36e69791a9203c8407e0730bd5cae5acbd9f7838de5ef1fd0e1d147f2c0",
      "transactionIndex": "0x0",
      "blockHash": "0x4464bff8eb30903e00083d9dcf1e8da17ff52f721a2d72b539ef94bde9521bcd",
      "blockNumber": "0x173c1dd",
      "gasUsed": "0x2307c",
      "effectiveGasPrice": "0x5e4",
      "blobGasPrice": "0x1",
      "from": "0x70997970c51812dc3a010c7d01b50e0d17dc79c8",
      "to": "0x51017d5d1d2056e58c8e2226a0938d58d54e77dc",
      "contractAddress": null
    },
    {
      "status": "0x1",
      "cumulativeGasUsed": "0x213e7",
      "logs": [
        {
          "address": "0x000000000004444c5dc75cb358380d2e3de08a90",
          "topics": [
            "0x40e9cecb9f5f1f1c5b9c97dec2917b7ee92e57ba5563708daca94dd84ad7112f",
            "0x3509745444ed1275bf3cc6196dcab60943ac6b87c5b249d3e64fa8e35e5b5f69",
            "0x00000000000000000000000051017d5d1d2056e58c8e2226a0938d58d54e77dc"
          ],
          "data": "0xffffffffffffffffffffffffffffffffffffffffffffffffffffffffea128f68000000000000000000000000000000000000000000000000000000006a57ec960000000000000000000000000000000000000002322529d48061bc00da690bfe0000000000000000000000000000000000000000000000000000001e1717e9e30000000000000000000000000000000000000000000000000000000000003d7400000000000000000000000000000000000000000000000000000000000001f4",
          "blockHash": "0x6f79b5c52c2702a8566c92723a9f9061e49ce4a93e186a9a750329633a34462a",
          "blockNumber": "0x173c1de",
          "blockTimestamp": "0x697fa38e",
          "transactionHash": "0x446dde33f898a46ff6320c95bd2f5458d44a2b062f5410e4b7e2386a0fde34d6",
          "transactionIndex": "0x0",
          "logIndex": "0x0",
          "removed": false
        },
        {
          "address": "0x9ed4f4724b521326a9d9d2420252440bd05556c4",
          "topics": [
            "0xddf252ad1be2c89b69c2b068fc378daa952ba7f163c4a11628f55a4df523b3ef",
            "0x00000000000000000000000070997970c51812dc3a010c7d01b50e0d17dc79c8",
            "0x000000000000000000000000000000000004444c5dc75cb358380d2e3de08a90"
          ],
          "data": "0x0000000000000000000000000000000000000000000000000000000015ed7098",
          "blockHash": "0x6f79b5c52c2702a8566c92723a9f9061e49ce4a93e186a9a750329633a34462a",
          "blockNumber": "0x173c1de",
          "blockTimestamp": "0x697fa38e",
          "transactionHash": "0x446dde33f898a46ff6320c95bd2f5458d44a2b062f5410e4b7e2386a0fde34d6",
          "transactionIndex": "0x0",
          "logIndex": "0x1",
          "removed": false
        },
        {
          "address": "0xd1620dac6d79be34f8500756b47cf91b1fa5cc8c",
          "topics": [
            "0xddf252ad1be2c89b69c2b068fc378daa952ba7f163c4a11628f55a4df523b3ef",
            "0x000000000000000000000000000000000004444c5dc75cb358380d2e3de08a90",
            "0x00000000000000000000000070997970c51812dc3a010c7d01b50e0d17dc79c8"
          ],
          "data": "0x000000000000000000000000000000000000000000000000000000006a57ec96",
          "blockHash": "0x6f79b5c52c2702a8566c92723a9f9061e49ce4a93e186a9a750329633a34462a",
          "blockNumber": "0x173c1de",
          "blockTimestamp": "0x697fa38e",
          "transactionHash": "0x446dde33f898a46ff6320c95bd2f5458d44a2b062f5410e4b7e2386a0fde34d6",
          "transactionIndex": "0x0",
          "logIndex": "0x2",
          "removed": false
        }
      ],
      "logsBloom": "0x00000000004000008006000000000000000000000000000000000000000000000000000020000000001000000000000000080000040080000000000000008000000000000000000000000008000000000000000000000020000000004000000000000800000000008000000000008000000000000000000000000010000000000000022800000000000000000000000000000000000000000000000000000000000000000000000000000000100000000000000000000000000000000000000000000802000000000000000000000000000000400000000000000000000000000000000000000000004000000000000001000100000000000000000000000000",
      "type": "0x2",
      "transactionHash": "0x446dde33f898a46ff6320c95bd2f5458d44a2b062f5410e4b7e2386a0fde34d6",
      "transactionIndex": "0x0",
      "blockHash": "0x6f79b5c52c2702a8566c92723a9f9061e49ce4a93e186a9a750329633a34462a",
      "blockNumber": "0x173c1de",
      "gasUsed": "0x213e7",
      "effectiveGasPrice": "0x5e4",
      "blobGasPrice": "0x1",
      "from": "0x70997970c51812dc3a010c7d01b50e0d17dc79c8",
      "to": "0x51017d5d1d2056e58c8e2226a0938d58d54e77dc",
      "contractAddress": null
    },
    {
      "status": "0x1",
      "cumulativeGasUsed": "0x2114e",
      "logs": [
        {
          "address": "0x000000000004444c5dc75cb358380d2e3de08a90",
          "topics": [
            "0x40e9cecb9f5f1f1c5b9c97dec2917b7ee92e57ba5563708daca94dd84ad7112f",
            "0x3509745444ed1275bf3cc6196dcab60943ac6b87c5b249d3e64fa8e35e5b5f69",
            "0x00000000000000000000000051017d5d1d2056e58c8e2226a0938d58d54e77dc"
          ],
          "data": "0xfffffffffffffffffffffffffffffffffffffffffffffffffffffffff3fcea160000000000000000000000000000000000000000000000000000000039b1c0890000000000000000000000000000000000000002303a507551b5a2b0c50099ff0000000000000000000000000000000000000000000000000000001e1717e9e30000000000000000000000000000000000000000000000000000000000003d3000000000000000000000000000000000000000000000000000000000000001f4",
          "blockHash": "0x2a3407a24d221fa28a8caae28de15b2283a3c213a976dbb226759e29d9bed7a2",
          "blockNumber": "0x173c1df",
          "blockTimestamp": "0x697fa38e",
          "transactionHash": "0x152d03de68c2ccf1a5cbc7df8109325a4bd18cefd106a0241f2a826600dec838",
          "transactionIndex": "0x0",
          "logIndex": "0x0",
          "removed": false
        },
        {
          "address": "0x9ed4f4724b521326a9d9d2420252440bd05556c4",
          "topics": [
            "0xddf252ad1be2c89b69c2b068fc378daa952ba7f163c4a11628f55a4df523b3ef",
            "0x00000000000000000000000070997970c51812dc3a010c7d01b50e0d17dc79c8",
            "0x000000000000000000000000000000000004444c5dc75cb358380d2e3de08a90"
          ],
          "data": "0x000000000000000000000000000000000000000000000000000000000c0315ea",
          "blockHash": "0x2a3407a24d221fa28a8caae28de15b2283a3c213a976dbb226759e29d9bed7a2",
          "blockNumber": "0x173c1df",
          "blockTimestamp": "0x697fa38e",
          "transactionHash": "0x152d03de68c2ccf1a5cbc7df8109325a4bd18cefd106a0241f2a826600dec838",
          "transactionIndex": "0x0",
          "logIndex": "0x1",
          "removed": false
        },
        {
          "address": "0xd1620dac6d79be34f8500756b47cf91b1fa5cc8c",
          "topics": [
            "0xddf252ad1be2c89b69c2b068fc378daa952ba7f163c4a11628f55a4df523b3ef",
            "0x000000000000000000000000000000000004444c5dc75cb358380d2e3de08a90",
            "0x00000000000000000000000070997970c51812dc3a010c7d01b50e0d17dc79c8"
          ],
          "data": "0x0000000000000000000000000000000000000000000000000000000039b1c089",
          "blockHash": "0x2a3407a24d221fa28a8caae28de15b2283a3c213a976dbb226759e29d9bed7a2",
          "blockNumber": "0x173c1df",
          "blockTimestamp": "0x697fa38e",
          "transactionHash": "0x152d03de68c2ccf1a5cbc7df8109325a4bd18cefd106a0241f2a826600dec838",
          "transactionIndex": "0x0",
          "logIndex": "0x2",
          "removed": false
        }
      ],
      "logsBloom": "0x00000000004000008006000000000000000000000000000000000000000000000000000020000000001000000000000000080000040080000000000000008000000000000000000000000008000000000000000000000020000000004000000000000800000000008000000000008000000000000000000000000010000000000000022800000000000000000000000000000000000000000000000000000000000000000000000000000000100000000000000000000000000000000000000000000802000000000000000000000000000000400000000000000000000000000000000000000000004000000000000001000100000000000000000000000000",
      "type": "0x2",
      "transactionHash": "0x152d03de68c2ccf1a5cbc7df8109325a4bd18cefd106a0241f2a826600dec838",
      "transactionIndex": "0x0",
      "blockHash": "0x2a3407a24d221fa28a8caae28de15b2283a3c213a976dbb226759e29d9bed7a2",
      "blockNumber": "0x173c1df",
      "gasUsed": "0x2114e",
      "effectiveGasPrice": "0x5e4",
      "blobGasPrice": "0x1",
      "from": "0x70997970c51812dc3a010c7d01b50e0d17dc79c8",
      "to": "0x51017d5d1d2056e58c8e2226a0938d58d54e77dc",
      "contractAddress": null
    }
  ],
  "libraries": [],
  "pending": [],
  "returns": {},
  "timestamp": 1770030646882,
  "chain": 1,
  "commit": "290e97f"
}