{
  "transactions": [
    {
      "hash": "0xe11df7304806685e980c3953df0d1845152c3d16a396e64bd778cc1e9ede4475",
      "transactionType": "CREATE",
      "contractName": "ChaosRouter",
      "contractAddress": "0x40f26937cfa04d9667c15c811b8fcb1ccb359846",
      "function": null,
      "arguments": [
        "0x000000000004444c5dc75cB358380D2e3dE08A90"
      ],
      "transaction": {
        "from": "0x70997970c51812dc3a010c7d01b50e0d17dc79c8",
        "value": "0x0",
        "input": "0x60a034607357601f610abf38819003918201601f19168301916001600160401b03831184841017607757808492602094604052833981010312607357516001600160a01b0381168103607357608052604051610a33908161008c8239608051818181608b0152818161040601526105ab0152f35b5f80fd5b634e487b7160e01b5f52604160045260245ffdfe60806040526004361015610011575f80fd5b5f3560e01c80631e2817de14610435578063481c6a75146103f1576391dd73461461003a575f80fd5b346103ad5760203660031901126103ad5760043567ffffffffffffffff81116103ad57366023820112156103ad57806004013567ffffffffffffffff81116103ad578101903660248301116103ad577f00000000000000000000000000000000000000000000000000000000000000006001600160a01b0381169290338490036103c357610120838303126103ad576040516100d5816106a2565b6100e1602485016106fc565b815260a0601f1985850301126103ad57604051926100fe846106be565b61010a604486016106fc565b8452610118606486016106fc565b6020850152608485013562ffffff811681036103ad57604085015260a48501358060020b81036103ad57606085015260c48501356001600160a01b03811681036103ad5760808501526020820193845260609085900360bf1901126103ad5760405193610184856106a2565b60e48101359081151582036103ad5790855261010481013560208601526101240135936001600160a01b03851685036103ad57610237955f9560408301526040830191808352855191610210602098899461024b6040516101e588826106da565b838152601f1988013689830137604051633cf3645360e21b81529d8e97889687956004870190610734565b8051151560a4860152602081015160c4860152604001516001600160a01b031660e4850152565b610120610104840152610124830190610710565b03925af19586156103b8575f96610385575b5051511561030d578460801d600f0b5f81126102dd575b5084600f0b915f83136102b5575b505050505b604051918183015280825261029d6040836106da565b6102b1604051928284938452830190610710565b0390f35b925184015190516102d4936001600160a01b0391821692909116610997565b5f808080610282565b8351518251610307926001600160a01b039283169290911690859061030190610786565b926107c2565b5f610274565b84600f0b5f8112610359575b508460801d600f0b915f8313610333575b50505050610287565b9251519051610350936001600160a01b0391821692909116610997565b5f80808061032a565b8351850151825161037f926001600160a01b039283169290911690859061030190610786565b5f610319565b9095508481813d83116103b1575b61039d81836106da565b810103126103ad5751945f61025d565b5f80fd5b503d610393565b6040513d5f823e3d90fd5b60405162461bcd60e51b81526020600482015260066024820152654e6f7420504d60d01b6044820152606490fd5b346103ad575f3660031901126103ad576040517f00000000000000000000000000000000000000000000000000000000000000006001600160a01b03168152602090f35b346103ad57366003190161010081126103ad5760a0136103ad5760405161045b816106be565b6004356001600160a01b03811681036103ad5781526024356001600160a01b03811681036103ad57602082015260443562ffffff811681036103ad5760408201526064358060020b81036103ad5760608201526084356001600160a01b03811681036103ad57608082015260603660a31901126103ad576040516104de816106a2565b60a43580151581036103ad57815260c435602082015260e435916001600160a01b03831683036103ad57610573826105a69460405f95015260408051610523816106a2565b338152602081019485520190815261054960405193336020860152516040850190610734565b518051151560e08401526020810151610100840152604001516001600160a01b0316610120830152565b6101208152610584610140826106da565b604051809381926348c8949160e01b8352602060048401526024830190610710565b0381837f00000000000000000000000000000000000000000000000000000000000000006001600160a01b03165af19081156103b8575f91610604575b50602081519181808201938492010103126103ad5760209051604051908152f35b90503d805f833e61061581836106da565b8101906020818303126103ad5780519067ffffffffffffffff82116103ad570181601f820112156103ad5780519067ffffffffffffffff821161068e576040519261066a601f8401601f1916602001856106da565b828452602083830101116103ad57815f9260208093018386015e83010152816105e3565b634e487b7160e01b5f52604160045260245ffd5b6060810190811067ffffffffffffffff82111761068e57604052565b60a0810190811067ffffffffffffffff82111761068e57604052565b90601f8019910116810190811067ffffffffffffffff82111761068e57604052565b35906001600160a01b03821682036103ad57565b805180835260209291819084018484015e5f828201840152601f01601f1916010190565b80516001600160a01b03908116835260208083015182169084015260408083015162ffffff169084015260608083015160020b9084015260809182015116910152565b908160209103126103ad575190565b600160ff1b8114610796575f0390565b634e487b7160e01b5f52601160045260245ffd5b908160209103126103ad575180151581036103ad5790565b9192916001600160a01b0316806108305750604051630476982d60e21b81529250602091839160049183916001600160a01b03165af180156103b8576108055750565b6108269060203d602011610829575b61081e81836106da565b810190610777565b50565b503d610814565b6001600160a01b0390911691823b156103ad57604051632961046560e21b815260048101839052935a945f816024818389819bf180156103b857610982575b506001600160a01b031684308214610927576020929160649160405195869485936323b872dd60e01b8552600485015288602485015260448401525af1801561091c579160209184936108ef575b505b600460405180958193630476982d60e21b83525af19081156108e357506108055750565b604051903d90823e3d90fd5b61090e90833d8511610915575b61090681836106da565b8101906107aa565b505f6108bd565b503d6108fc565b6040513d85823e3d90fd5b9290506044602092604051948593849263a9059cbb60e01b845288600485015260248401525af1801561091c57916020918493610965575b506108bf565b61097b90833d85116109155761090681836106da565b505f61095f565b61098f9195505f906106da565b5f935f61086f565b91906001600160a01b0316803b156103ad57604051630b0d9c0960e01b81526001600160a01b03938416600482015291909216602482015260448101929092525f908290606490829084905af180156103b8576109f15750565b5f6109fb916106da565b56fea264697066735822122061b4309e3cfd83596a2c06dabf1fd7990e81c05486a6c0b1f8f0512b0925445664736f6c634300081a0033000000000000000000000000000000000004444c5dc75cb358380d2e3de08a90",
        "nonce": "0xf9e",
        "chainId": "0x1"
      },
      "additionalContracts": [],
      "isFixedGasLimit": false
    },
    {
      "hash": "0x8ddaac834cb9a95542a81036378f2ef2fea28dab5e2ce28d509225fd7d38ef0e",
      "transactionType": "CALL",
      "contractName": null,
      "contractAddress": "0xd1620dac6d79be34f8500756b47cf91b1fa5cc8c",
      "function": "approve(address,uint256)",
      "arguments": [
        "0x40f26937cfa04D9667C15C811B8FCb1CCB359846",
        "115792089237316195423570985008687907853269984665640564039457584007913129639935"
      ],
      "transaction": {
        "from": "0x70997970c51812dc3a010c7d01b50e0d17dc79c8",
        "to": "0xd1620dac6d79be34f8500756b47cf91b1fa5cc8c",
        "value": "0x0",
        "input": "0x095ea7b300000000000000000000000040f26937cfa04d9667c15c811b8fcb1ccb359846ffffffffffffffffffffffffffffffffffffffffffffffffffffffffffffffff",
        "nonce": "0xf9f",
        "chainId": "0x1"
      },
      "additionalContracts": [],
      "isFixedGasLimit": false
    },
    {
      "hash": "0x0b91703c57e9367b83729bb04c343b0d2b6441cea9e5d7433515d2b2e722ce8a",
      "transactionType": "CALL",
      "contractName": null,
      "contractAddress": "0x9ed4f4724b521326a9d9d2420252440bd05556c4",
      "function": "approve(address,uint256)",
      "arguments": [
        "0x40f26937cfa04D9667C15C811B8FCb1CCB359846",
        "115792089237316195423570985008687907853269984665640564039457584007913129639935"
      ],
      "transaction": {
        "from": "0x70997970c51812dc3a010c7d01b50e0d17dc79c8",
        "to": "0x9ed4f4724b521326a9d9d2420252440bd05556c4",
        "value": "0x0",
        "input": "0x095ea7b300000000000000000000000040f26937cfa04d9667c15c811b8fcb1ccb359846ffffffffffffffffffffffffffffffffffffffffffffffffffffffffffffffff",
        "nonce": "0xfa0",
        "chainId": "0x1"
      },
      "additionalContracts": [],
      "isFixedGasLimit": false
    },
    {
      "hash": "0xf5e23c3b56809ad825a44cf6da82213ebf36e1840a22c3c6ff79ae2eef5fde91",
      "transactionType": "CALL",
      "contractName": null,
      "contractAddress": "0xd1620dac6d79be34f8500756b47cf91b1fa5cc8c",
      "function": "approve(address,uint256)",
      "arguments": [
        "0x000000000004444c5dc75cB358380D2e3dE08A90",
        "115792089237316195423570985008687907853269984665640564039457584007913129639935"
      ],
      "transaction": {
        "from": "0x70997970c51812dc3a010c7d01b50e0d17dc79c8",
        "to": "0xd1620dac6d79be34f8500756b47cf91b1fa5cc8c",
        "value": "0x0",
        "input": "0x095ea7b3000000000000000000000000000000000004444c5dc75cb358380d2e3de08a90ffffffffffffffffffffffffffffffffffffffffffffffffffffffffffffffff",
        "nonce": "0xfa1",
        "chainId": "0x1"
      },
      "additionalContracts": [],
      "isFixedGasLimit": false
    },
    {
      "hash": "0xc32ba8968649640b81698ea6d729322dff75acfede086f86af6c0d9053d624e1",
      "transactionType": "CALL",
      "contractName": null,
      "contractAddress": "0x9ed4f4724b521326a9d9d2420252440bd05556c4",
      "function": "approve(address,uint256)",
      "arguments": [
        "0x000000000004444c5dc75cB358380D2e3dE08A90",
        "115792089237316195423570985008687907853269984665640564039457584007913129639935"
      ],
      "transaction": {
        "from": "0x70997970c51812dc3a010c7d01b50e0d17dc79c8",
        "to": "0x9ed4f4724b521326a9d9d2420252440bd05556c4",
        "value": "0x0",
        "input": "0x095ea7b3000000000000000000000000000000000004444c5dc75cb358380d2e3de08a90ffffffffffffffffffffffffffffffffffffffffffffffffffffffffffffffff",
        "nonce": "0xfa2",
        "chainId": "0x1"
      },
      "additionalContracts": [],
      "isFixedGasLimit": false
    },
    {
      "hash": null,
      "transactionType": "CALL",
      "contractName": "ChaosRouter",
      "contractAddress": "0x40f26937cfa04d9667c15c811b8fcb1ccb359846",
      "function": "swap((address,address,uint24,int24,address),(bool,int256,uint160))",
      "arguments": [
        "(0x9ed4F4724b521326a9d9d2420252440bD05556c4, 0xD1620Dac6d79BE34F8500756B47cf91B1fA5Cc8C, 500, 5, 0x7e0C07EEabb2459D70dba5b8d100Dca44c652aC0)",
        "(true, 976059304, 4295128740)"
      ],
      "transaction": {
        "from": "0x70997970c51812dc3a010c7d01b50e0d17dc79c8",
        "to": "0x40f26937cfa04d9667c15c811b8fcb1ccb359846",
        "value": "0x0",
        "input": "0x1e2817de0000000000000000000000009ed4f4724b521326a9d9d2420252440bd05556c4000000000000000000000000d1620dac6d79be34f8500756b47cf91b1fa5cc8c00000000000000000000000000000000000000000000000000000000000001f400000000000000000000000000000000000000000000000000000000000000050000000000000000000000007e0c07eeabb2459d70dba5b8d100dca44c652ac00000000000000000000000000000000000000000000000000000000000000001000000000000000000000000000000000000000000000000000000003a2d7ba800000000000000000000000000000000000000000000000000000001000276a4",
        "nonce": "0xfa3",
        "chainId": "0x1"
      },
      "additionalContracts": [],
      "isFixedGasLimit": false
    },
    {
      "hash": null,
      "transactionType": "CALL",
      "contractName": "ChaosRouter",
      "contractAddress": "0x40f26937cfa04d9667c15c811b8fcb1ccb359846",
      "function": "swap((address,address,uint24,int24,address),(bool,int256,uint160))",
      "arguments": [
        "(0x9ed4F4724b521326a9d9d2420252440bD05556c4, 0xD1620Dac6d79BE34F8500756B47cf91B1fA5Cc8C, 500, 5, 0x7e0C07EEabb2459D70dba5b8d100Dca44c652aC0)",
        "(false, 657554637, 1461446703485210103287273052203988822378723970341)"
      ],
      "transaction": {
        "from": "0x70997970c51812dc3a010c7d01b50e0d17dc79c8",
        "to": "0x40f26937cfa04d9667c15c811b8fcb1ccb359846",
        "value": "0x0",
        "input": "0x1e2817de0000000000000000000000009ed4f4724b521326a9d9d2420252440bd05556c4000000000000000000000000d1620dac6d79be34f8500756b47cf91b1fa5cc8c00000000000000000000000000000000000000000000000000000000000001f400000000000000000000000000000000000000000000000000000000000000050000000000000000000000007e0c07eeabb2459d70dba5b8d100dca44c652ac000000000000000000000000000000000000000000000000000000000000000000000000000000000000000000000000000000000000000000000000027317ccd000000000000000000000000fffd8963efd1fc6a506488495d951d5263988d25",
        "nonce": "0xfa4",
        "chainId": "0x1"
      },
      "additionalContracts": [],
      "isFixedGasLimit": false
    },
    {
      "hash": null,
      "transactionType": "CALL",
      "contractName": "ChaosRouter",
      "contractAddress": "0x40f26937cfa04d9667c15c811b8fcb1ccb359846",
      "function": "swap((address,address,uint24,int24,address),(bool,int256,uint160))",
      "arguments": [
        "(0x9ed4F4724b521326a9d9d2420252440bD05556c4, 0xD1620Dac6d79BE34F8500756B47cf91B1fA5Cc8C, 500, 5, 0x7e0C07EEabb2459D70dba5b8d100Dca44c652aC0)",
        "(true, 309233629, 4295128740)"
      ],
      "transaction": {
        "from": "0x70997970c51812dc3a010c7d01b50e0d17dc79c8",
        "to": "0x40f26937cfa04d9667c15c811b8fcb1ccb359846",
        "value": "0x0",
        "input": "0x1e2817de0000000000000000000000009ed4f4724b521326a9d9d2420252440bd05556c4000000000000000000000000d1620dac6d79be34f8500756b47cf91b1fa5cc8c00000000000000000000000000000000000000000000000000000000000001f400000000000000000000000000000000000000000000000000000000000000050000000000000000000000007e0c07eeabb2459d70dba5b8d100dca44c652ac0000000000000000000000000000000000000000000000000000000000000000100000000000000000000000000000000000000000000000000000000126e87dd00000000000000000000000000000000000000000000000000000001000276a4",
        "nonce": "0xfa5",
        "chainId": "0x1"
      },
      "additionalContracts": [],
      "isFixedGasLimit": false
    },
    {
      "hash": null,
      "transactionType": "CALL",
      "contractName": "ChaosRouter",
      "contractAddress": "0x40f26937cfa04d9667c15c811b8fcb1ccb359846",
      "function": "swap((address,address,uint24,int24,address),(bool,int256,uint160))",
      "arguments": [
        "(0x9ed4F4724b521326a9d9d2420252440bD05556c4, 0xD1620Dac6d79BE34F8500756B47cf91B1fA5Cc8C, 500, 5, 0x7e0C07EEabb2459D70dba5b8d100Dca44c652aC0)",
        "(true, 726639058, 4295128740)"
      ],
      "transaction": {
        "from": "0x70997970c51812dc3a010c7d01b50e0d17dc79c8",
        "to": "0x40f26937cfa04d9667c15c811b8fcb1ccb359846",
        "value": "0x0",
        "input": "0x1e2817de0000000000000000000000009ed4f4724b521326a9d9d2420252440bd05556c4000000000000000000000000d1620dac6d79be34f8500756b47cf91b1fa5cc8c00000000000000000000000000000000000000000000000000000000000001f400000000000000000000000000000000000000000000000000000000000000050000000000000000000000007e0c07eeabb2459d70dba5b8d100dca44c652ac00000000000000000000000000000000000000000000000000000000000000001000000000000000000000000000000000000000000000000000000002b4fa1d200000000000000000000000000000000000000000000000000000001000276a4",
        "nonce": "0xfa6",
        "chainId": "0x1"
      },
      "additionalContracts": [],
      "isFixedGasLimit": false
    },
    {
      "hash": null,
      "transactionType": "CALL",
      "contractName": "ChaosRouter",
      "contractAddress": "0x40f26937cfa04d9667c15c811b8fcb1ccb359846",
      "function": "swap((address,address,uint24,int24,address),(bool,int256,uint160))",
      "arguments": [
        "(0x9ed4F4724b521326a9d9d2420252440bD05556c4, 0xD1620Dac6d79BE34F8500756B47cf91B1fA5Cc8C, 500, 5, 0x7e0C07EEabb2459D70dba5b8d100Dca44c652aC0)",
        "(true, 825822307, 4295128740)"
      ],
      "transaction": {
        "from": "0x70997970c51812dc3a010c7d01b50e0d17dc79c8",
        "to": "0x40f26937cfa04d9667c15c811b8fcb1ccb359846",
        "value": "0x0",
        "input": "0x1e2817de0000000000000000000000009ed4f4724b521326a9d9d2420252440bd05556c4000000000000000000000000d1620dac6d79be34f8500756b47cf91b1fa5cc8c00000000000000000000000000000000000000000000000000000000000001f400000000000000000000000000000000000000000000000000000000000000050000000000000000000000007e0c07eeabb2459d70dba5b8d100dca44c652ac000000000000000000000000000000000000000000000000000000000000000010000000000000000000000000000000000000000000000000000000031390c6300000000000000000000000000000000000000000000000000000001000276a4",
        "nonce": "0xfa7",
        "chainId": "0x1"
      },
      "additionalContracts": [],
      "isFixedGasLimit": false
    },
    {
      "hash": null,
      "transactionType": "CALL",
      "contractName": "ChaosRouter",
      "contractAddress": "0x40f26937cfa04d9667c15c811b8fcb1ccb359846",
      "function": "swap((address,address,uint24,int24,address),(bool,int256,uint160))",
      "arguments": [
        "(0x9ed4F4724b521326a9d9d2420252440bD05556c4, 0xD1620Dac6d79BE34F8500756B47cf91B1fA5Cc8C, 500, 5, 0x7e0C07EEabb2459D70dba5b8d100Dca44c652aC0)",
        "(true, -269119410, 4295128740)"
      ],
      "transaction": {
        "from": "0x70997970c51812dc3a010c7d01b50e0d17dc79c8",
        "to": "0x40f26937cfa04d9667c15c811b8fcb1ccb359846",
        "value": "0x0",
        "input": "0x1e2817de0000000000000000000000009ed4f4724b521326a9d9d2420252440bd05556c4000000000000000000000000d1620dac6d79be34f8500756b47cf91b1fa5cc8c00000000000000000000000000000000000000000000000000000000000001f400000000000000000000000000000000000000000000000000000000000000050000000000000000000000007e0c07eeabb2459d70dba5b8d100dca44c652ac00000000000000000000000000000000000000000000000000000000000000001ffffffffffffffffffffffffffffffffffffffffffffffffffffffffeff5904e00000000000000000000000000000000000000000000000000000001000276a4",
        "nonce": "0xfa8",
        "chainId": "0x1"
      },
      "additionalContracts": [],
      "isFixedGasLimit": false
    },
    {
      "hash": null,
      "transactionType": "CALL",
      "contractName": "ChaosRouter",
      "contractAddress": "0x40f26937cfa04d9667c15c811b8fcb1ccb359846",
      "function": "swap((address,address,uint24,int24,address),(bool,int256,uint160))",
      "arguments": [
        "(0x9ed4F4724b521326a9d9d2420252440bD05556c4, 0xD1620Dac6d79BE34F8500756B47cf91B1fA5Cc8C, 500, 5, 0x7e0C07EEabb2459D70dba5b8d100Dca44c652aC0)",
        "(true, -928741938, 4295128740)"
      ],
      "transaction": {
        "from": "0x70997970c51812dc3a010c7d01b50e0d17dc79c8",
        "to": "0x40f26937cfa04d9667c15c811b8fcb1ccb359846",
        "value": "0x0",
        "input": "0x1e2817de0000000000000000000000009ed4f4724b521326a9d9d2420252440bd05556c4000000000000000000000000d1620dac6d79be34f8500756b47cf91b1fa5cc8c00000000000000000000000000000000000000000000000000000000000001f400000000000000000000000000000000000000000000000000000000000000050000000000000000000000007e0c07eeabb2459d70dba5b8d100dca44c652ac00000000000000000000000000000000000000000000000000000000000000001ffffffffffffffffffffffffffffffffffffffffffffffffffffffffc8a485ce00000000000000000000000000000000000000000000000000000001000276a4",
        "nonce": "0xfa9",
        "chainId": "0x1"
      },
      "additionalContracts": [],
      "isFixedGasLimit": false
    },
    {
      "hash": null,
      "transactionType": "CALL",
      "contractName": "ChaosRouter",
      "contractAddress": "0x40f26937cfa04d9667c15c811b8fcb1ccb359846",
      "function": "swap((address,address,uint24,int24,address),(bool,int256,uint160))",
      "arguments": [
        "(0x9ed4F4724b521326a9d9d2420252440bD05556c4, 0xD1620Dac6d79BE34F8500756B47cf91B1fA5Cc8C, 500, 5, 0x7e0C07EEabb2459D70dba5b8d100Dca44c652aC0)",
        "(false, 933355099, 1461446703485210103287273052203988822378723970341)"
      ],
      "transaction": {
        "from": "0x70997970c51812dc3a010c7d01b50e0d17dc79c8",
        "to": "0x40f26937cfa04d9667c15c811b8fcb1ccb359846",
        "value": "0x0",
        "input": "0x1e2817de0000000000000000000000009ed4f4724b521326a9d9d2420252440bd05556c4000000000000000000000000d1620dac6d79be34f8500756b47cf91b1fa5cc8c00000000000000000000000000000000000000000000000000000000000001f400000000000000000000000000000000000000000000000000000000000000050000000000000000000000007e0c07eeabb2459d70dba5b8d100dca44c652ac000000000000000000000000000000000000000000000000000000000000000000000000000000000000000000000000000000000000000000000000037a1de5b000000000000000000000000fffd8963efd1fc6a506488495d951d5263988d25",
        "nonce": "0xfaa",
        "chainId": "0x1"
      },
      "additionalContracts": [],
      "isFixedGasLimit": false
    },
    {
      "hash": null,
      "transactionType": "CALL",
      "contractName": "ChaosRouter",
      "contractAddress": "0x40f26937cfa04d9667c15c811b8fcb1ccb359846",
      "function": "swap((address,address,uint24,int24,address),(bool,int256,uint160))",
      "arguments": [
        "(0x9ed4F4724b521326a9d9d2420252440bD05556c4, 0xD1620Dac6d79BE34F8500756B47cf91B1fA5Cc8C, 500, 5, 0x7e0C07EEabb2459D70dba5b8d100Dca44c652aC0)",
        "(true, -739108400, 4295128740)"
      ],
      "transaction": {
        "from": "0x70997970c51812dc3a010c7d01b50e0d17dc79c8",
        "to": "0x40f26937cfa04d9667c15c811b8fcb1ccb359846",
        "value": "0x0",
        "input": "0x1e2817de0000000000000000000000009ed4f4724b521326a9d9d2420252440bd05556c4000000000000000000000000d1620dac6d79be34f8500756b47cf91b1fa5cc8c00000000000000000000000000000000000000000000000000000000000001f400000000000000000000000000000000000000000000000000000000000000050000000000000000000000007e0c07eeabb2459d70dba5b8d100dca44c652ac00000000000000000000000000000000000000000000000000000000000000001ffffffffffffffffffffffffffffffffffffffffffffffffffffffffd3f219d000000000000000000000000000000000000000000000000000000001000276a4",
        "nonce": "0xfab",
        "chainId": "0x1"
      },
      "additionalContracts": [],
      "isFixedGasLimit": false
    },
    {
      "hash": null,
      "transactionType": "CALL",
      "contractName": "ChaosRouter",
      "contractAddress": "0x40f26937cfa04d9667c15c811b8fcb1ccb359846",
      "function": "swap((address,address,uint24,int24,address),(bool,int256,uint160))",
      "arguments": [
        "(0x9ed4F4724b521326a9d9d2420252440bD05556c4, 0xD1620Dac6d79BE34F8500756B47cf91B1fA5Cc8C, 500, 5, 0x7e0C07EEabb2459D70dba5b8d100Dca44c652aC0)",
        "(false, -294487229, 1461446703485210103287273052203988822378723970341)"
      ],
      "transaction": {
        "from": "0x70997970c51812dc3a010c7d01b50e0d17dc79c8",
        "to": "0x40f26937cfa04d9667c15c811b8fcb1ccb359846",
        "value": "0x0",
        "input": "0x1e2817de0000000000000000000000009ed4f4724b521326a9d9d2420252440bd05556c4000000000000000000000000d1620dac6d79be34f8500756b47cf91b1fa5cc8c00000000000000000000000000000000000000000000000000000000000001f400000000000000000000000000000000000000000000000000000000000000050000000000000000000000007e0c07eeabb2459d70dba5b8d100dca44c652ac00000000000000000000000000000000000000000000000000000000000000000ffffffffffffffffffffffffffffffffffffffffffffffffffffffffee727b43000000000000000000000000fffd8963efd1fc6a506488495d951d5263988d25",
        "nonce": "0xfac",
        "chainId": "0x1"
      },
      "additionalContracts": [],
      "isFixedGasLimit": false
    },
    {
      "hash": null,
      "transactionType": "CALL",
      "contractName": "ChaosRouter",
      "contractAddress": "0x40f26937cfa04d9667c15c811b8fcb1ccb359846",
      "function": "swap((address,address,uint24,int24,address),(bool,int256,uint160))",
      "arguments": [
        "(0x9ed4F4724b521326a9d9d2420252440bD05556c4, 0xD1620Dac6d79BE34F8500756B47cf91B1fA5Cc8C, 500, 5, 0x7e0C07EEabb2459D70dba5b8d100Dca44c652aC0)",
        "(false, -479453563, 1461446703485210103287273052203988822378723970341)"
      ],
      "transaction": {
        "from": "0x70997970c51812dc3a010c7d01b50e0d17dc79c8",
        "to": "0x40f26937cfa04d9667c15c811b8fcb1ccb359846",
        "value": "0x0",
        "input": "0x1e2817de0000000000000000000000009ed4f4724b521326a9d9d2420252440bd05556c4000000000000000000000000d1620dac6d79be34f8500756b47cf91b1fa5cc8c00000000000000000000000000000000000000000000000000000000000001f400000000000000000000000000000000000000000000000000000000000000050000000000000000000000007e0c07eeabb2459d70dba5b8d100dca44c652ac00000000000000000000000000000000000000000000000000000000000000000ffffffffffffffffffffffffffffffffffffffffffffffffffffffffe36c1e85000000000000000000000000fffd8963efd1fc6a506488495d951d5263988d25",
        "nonce": "0xfad",
        "chainId": "0x1"
      },
      "additionalContracts": [],
      "isFixedGasLimit": false
    },
    {
      "hash": null,
      "transactionType": "CALL",
      "contractName": "ChaosRouter",
      "contractAddress": "0x40f26937cfa04d9667c15c811b8fcb1ccb359846",
      "function": "swap((address,address,uint24,int24,address),(bool,int256,uint160))",
      "arguments": [
        "(0x9ed4F4724b521326a9d9d2420252440bD05556c4, 0xD1620Dac6d79BE34F8500756B47cf91B1fA5Cc8C, 500, 5, 0x7e0C07EEabb2459D70dba5b8d100Dca44c652aC0)",
        "(false, -39864123, 1461446703485210103287273052203988822378723970341)"
      ],
      "transaction": {
        "from": "0x70997970c51812dc3a010c7d01b50e0d17dc79c8",
        "to": "0x40f26937cfa04d9667c15c811b8fcb1ccb359846",
        "value": "0x0",
        "input": "0x1e2817de0000000000000000000000009ed4f4724b521326a9d9d2420252440bd05556c4000000000000000000000000d1620dac6d79be34f8500756b47cf91b1fa5cc8c00000000000000000000000000000000000000000000000000000000000001f400000000000000000000000000000000000000000000000000000000000000050000000000000000000000007e0c07eeabb2459d70dba5b8d100dca44c652ac00000000000000000000000000000000000000000000000000000000000000000fffffffffffffffffffffffffffffffffffffffffffffffffffffffffd9fb8c5000000000000000000000000fffd8963efd1fc6a506488495d951d5263988d25",
        "nonce": "0xfae",
        "chainId": "0x1"
      },
      "additionalContracts": [],
      "isFixedGasLimit": false
    },
    {
      "hash": null,
      "transactionType": "CALL",
      "contractName": "ChaosRouter",
      "contractAddress": "0x40f26937cfa04d9667c15c811b8fcb1ccb359846",
      "function": "swap((address,address,uint24,int24,address),(bool,int256,uint160))",
      "arguments": [
        "(0x9ed4F4724b521326a9d9d2420252440bD05556c4, 0xD1620Dac6d79BE34F8500756B47cf91B1fA5Cc8C, 500, 5, 0x7e0C07EEabb2459D70dba5b8d100Dca44c652aC0)",
        "(false, 62320572, 1461446703485210103287273052203988822378723970341)"
      ],
      "transaction": {
        "from": "0x70997970c51812dc3a010c7d01b50e0d17dc79c8",
        "to": "0x40f26937cfa04d9667c15c811b8fcb1ccb359846",
        "value": "0x0",
        "input": "0x1e2817de0000000000000000000000009ed4f4724b521326a9d9d2420252440bd05556c4000000000000000000000000d1620dac6d79be34f8500756b47cf91b1fa5cc8c00000000000000000000000000000000000000000000000000000000000001f400000000000000000000000000000000000000000000000000000000000000050000000000000000000000007e0c07eeabb2459d70dba5b8d100dca44c652ac000000000000000000000000000000000000000000000000000000000000000000000000000000000000000000000000000000000000000000000000003b6efbc000000000000000000000000fffd8963efd1fc6a506488495d951d5263988d25",
        "nonce": "0xfaf",
        "chainId": "0x1"
      },
      "additionalContracts": [],
      "isFixedGasLimit": false
    },
    {
      "hash": null,
      "transactionType": "CALL",
      "contractName": "ChaosRouter",
      "contractAddress": "0x40f26937cfa04d9667c15c811b8fcb1ccb359846",
      "function": "swap((address,address,uint24,int24,address),(bool,int256,uint160))",
      "arguments": [
        "(0x9ed4F4724b521326a9d9d2420252440bD05556c4, 0xD1620Dac6d79BE34F8500756B47cf91B1fA5Cc8C, 500, 5, 0x7e0C07EEabb2459D70dba5b8d100Dca44c652aC0)",
        "(false, -739603683, 1461446703485210103287273052203988822378723970341)"
      ],
      "transaction": {
        "from": "0x70997970c51812dc3a010c7d01b50e0d17dc79c8",
        "to": "0x40f26937cfa04d9667c15c811b8fcb1ccb359846",
        "value": "0x0",
        "input": "0x1e2817de0000000000000000000000009ed4f4724b521326a9d9d2420252440bd05556c4000000000000000000000000d1620dac6d79be34f8500756b47cf91b1fa5cc8c00000000000000000000000000000000000000000000000000000000000001f400000000000000000000000000000000000000000000000000000000000000050000000000000000000000007e0c07eeabb2459d70dba5b8d100dca44c652ac00000000000000000000000000000000000000000000000000000000000000000ffffffffffffffffffffffffffffffffffffffffffffffffffffffffd3ea8b1d000000000000000000000000fffd8963efd1fc6a506488495d951d5263988d25",
        "nonce": "0xfb0",
        "chainId": "0x1"
      },
      "additionalContracts": [],
      "isFixedGasLimit": false
    },
    {
      "hash": null,
      "transactionType": "CALL",
      "contractName": "ChaosRouter",
      "contractAddress": "0x40f26937cfa04d9667c15c811b8fcb1ccb359846",
      "function": "swap((address,address,uint24,int24,address),(bool,int256,uint160))",
      "arguments": [
        "(0x9ed4F4724b521326a9d9d2420252440bD05556c4, 0xD1620Dac6d79BE34F8500756B47cf91B1fA5Cc8C, 500, 5, 0x7e0C07EEabb2459D70dba5b8d100Dca44c652aC0)",
        "(false, -256459163, 1461446703485210103287273052203988822378723970341)"
      ],
      "transaction": {
        "from": "0x70997970c51812dc3a010c7d01b50e0d17dc79c8",
        "to": "0x40f26937cfa04d9667c15c811b8fcb1ccb359846",
        "value": "0x0",
        "input": "0x1e2817de0000000000000000000000009ed4f4724b521326a9d9d2420252440bd05556c4000000000000000000000000d1620dac6d79be34f8500756b47cf91b1fa5cc8c00000000000000000000000000000000000000000000000000000000000001f400000000000000000000000000000000000000000000000000000000000000050000000000000000000000007e0c07eeabb2459d70dba5b8d100dca44c652ac00000000000000000000000000000000000000000000000000000000000000000fffffffffffffffffffffffffffffffffffffffffffffffffffffffff0b6be65000000000000000000000000fffd8963efd1fc6a506488495d951d5263988d25",
        "nonce": "0xfb1",
        "chainId": "0x1"
      },
      "additionalContracts": [],
      "isFixedGasLimit": false
    },
    {
      "hash": null,
      "transactionType": "CALL",
      "contractName": "ChaosRouter",
      "contractAddress": "0x40f26937cfa04d9667c15c811b8fcb1ccb359846",
      "function": "swap((address,address,uint24,int24,address),(bool,int256,uint160))",
      "arguments": [
        "(0x9ed4F4724b521326a9d9d2420252440bD05556c4, 0xD1620Dac6d79BE34F8500756B47cf91B1fA5Cc8C, 500, 5, 0x7e0C07EEabb2459D70dba5b8d100Dca44c652aC0)",
        "(false, -840482945, 1461446703485210103287273052203988822378723970341)"
      ],
      "transaction": {
        "from": "0x70997970c51812dc3a010c7d01b50e0d17dc79c8",
        "to": "0x40f26937cfa04d9667c15c811b8fcb1ccb359846",
        "value": "0x0",
        "input": "0x1e2817de0000000000000000000000009ed4f4724b521326a9d9d2420252440bd05556c4000000000000000000000000d1620dac6d79be34f8500756b47cf91b1fa5cc8c00000000000000000000000000000000000000000000000000000000000001f400000000000000000000000000000000000000000000000000000000000000050000000000000000000000007e0c07eeabb2459d70dba5b8d100dca44c652ac00000000000000000000000000000000000000000000000000000000000000000ffffffffffffffffffffffffffffffffffffffffffffffffffffffffcde73f7f000000000000000000000000fffd8963efd1fc6a506488495d951d5263988d25",
        "nonce": "0xfb2",
        "chainId": "0x1"
      },
      "additionalContracts": [],
      "isFixedGasLimit": false
    },
    {
      "hash": null,
      "transactionType": "CALL",
      "contractName": "ChaosRouter",
      "contractAddress": "0x40f26937cfa04d9667c15c811b8fcb1ccb359846",
      "function": "swap((address,address,uint24,int24,address),(bool,int256,uint160))",
      "arguments": [
        "(0x9ed4F4724b521326a9d9d2420252440bD05556c4, 0xD1620Dac6d79BE34F8500756B47cf91B1fA5Cc8C, 500, 5, 0x7e0C07EEabb2459D70dba5b8d100Dca44c652aC0)",
        "(false, 86644229, 1461446703485210103287273052203988822378723970341)"
      ],
      "transaction": {
        "from": "0x70997970c51812dc3a010c7d01b50e0d17dc79c8",
        "to": "0x40f26937cfa04d9667c15c811b8fcb1ccb359846",
        "value": "0x0",
        "input": "0x1e2817de0000000000000000000000009ed4f4724b521326a9d9d2420252440bd05556c4000000000000000000000000d1620dac6d79be34f8500756b47cf91b1fa5cc8c00000000000000000000000000000000000000000000000000000000000001f400000000000000000000000000000000000000000000000000000000000000050000000000000000000000007e0c07eeabb2459d70dba5b8d100dca44c652ac0000000000000000000000000000000000000000000000000000000000000000000000000000000000000000000000000000000000000000000000000052a1605000000000000000000000000fffd8963efd1fc6a506488495d951d5263988d25",
        "nonce": "0xfb3",
        "chainId": "0x1"
      },
      "additionalContracts": [],
      "isFixedGasLimit": false
    },
    {
      "hash": null,
      "transactionType": "CALL",
      "contractName": "ChaosRouter",
      "contractAddress": "0x40f26937cfa04d9667c15c811b8fcb1ccb359846",
      "function": "swap((address,address,uint24,int24,address),(bool,int256,uint160))",
      "arguments": [
        "(0x9ed4F4724b521326a9d9d2420252440bD05556c4, 0xD1620Dac6d79BE34F8500756B47cf91B1fA5Cc8C, 500, 5, 0x7e0C07EEabb2459D70dba5b8d100Dca44c652aC0)",
        "(true, -107767945, 4295128740)"
      ],
      "transaction": {
        "from": "0x70997970c51812dc3a010c7d01b50e0d17dc79c8",
        "to": "0x40f26937cfa04d9667c15c811b8fcb1ccb359846",
        "value": "0x0",
        "input": "0x1e2817de0000000000000000000000009ed4f4724b521326a9d9d2420252440bd05556c4000000000000000000000000d1620dac6d79be34f8500756b47cf91b1fa5cc8c00000000000000000000000000000000000000000000000000000000000001f400000000000000000000000000000000000000000000000000000000000000050000000000000000000000007e0c07eeabb2459d70dba5b8d100dca44c652ac00000000000000000000000000000000000000000000000000000000000000001fffffffffffffffffffffffffffffffffffffffffffffffffffffffff993977700000000000000000000000000000000000000000000000000000001000276a4",
        "nonce": "0xfb4",
        "chainId": "0x1"
      },
      "additionalContracts": [],
      "isFixedGasLimit": false
    },
    {
      "hash": null,
      "transactionType": "CALL",
      "contractName": "ChaosRouter",
      "contractAddress": "0x40f26937cfa04d9667c15c811b8fcb1ccb359846",
      "function": "swap((address,address,uint24,int24,address),(bool,int256,uint160))",
      "arguments": [
        "(0x9ed4F4724b521326a9d9d2420252440bD05556c4, 0xD1620Dac6d79BE34F8500756B47cf91B1fA5Cc8C, 500, 5, 0x7e0C07EEabb2459D70dba5b8d100Dca44c652aC0)",
        "(true, -621949193, 4295128740)"
      ],
      "transaction": {
        "from": "0x70997970c51812dc3a010c7d01b50e0d17dc79c8",
        "to": "0x40f26937cfa04d9667c15c811b8fcb1ccb359846",
        "value": "0x0",
        "input": "0x1e2817de0000000000000000000000009ed4f4724b521326a9d9d2420252440bd05556c4000000000000000000000000d1620dac6d79be34f8500756b47cf91b1fa5cc8c00000000000000000000000000000000000000000000000000000000000001f400000000000000000000000000000000000000000000000000000000000000050000000000000000000000007e0c07eeabb2459d70dba5b8d100dca44c652ac00000000000000000000000000000000000000000000000000000000000000001ffffffffffffffffffffffffffffffffffffffffffffffffffffffffdaedcef700000000000000000000000000000000000000000000000000000001000276a4",
        "nonce": "0xfb5",
        "chainId": "0x1"
      },
      "additionalContracts": [],
      "isFixedGasLimit": false
    },
    {
      "hash": null,
      "transactionType": "CALL",
      "contractName": "ChaosRouter",
      "contractAddress": "0x40f26937cfa04d9667c15c811b8fcb1ccb359846",
      "function": "swap((address,address,uint24,int24,address),(bool,int256,uint160))",
      "arguments": [
        "(0x9ed4F4724b521326a9d9d2420252440bD05556c4, 0xD1620Dac6d79BE34F8500756B47cf91B1fA5Cc8C, 500, 5, 0x7e0C07EEabb2459D70dba5b8d100Dca44c652aC0)",
        "(true, 532971141, 4295128740)"
      ],
      "transaction": {
        "from": "0x70997970c51812dc3a010c7d01b50e0d17dc79c8",
        "to": "0x40f26937cfa04d9667c15c811b8fcb1ccb359846",
        "value": "0x0",
        "input": "0x1e2817de0000000000000000000000009ed4f4724b521326a9d9d2420252440bd05556c4000000000000000000000000d1620dac6d79be34f8500756b47cf91b1fa5cc8c00000000000000000000000000000000000000000000000000000000000001f400000000000000000000000000000000000000000000000000000000000000050000000000000000000000007e0c07eeabb2459d70dba5b8d100dca44c652ac00000000000000000000000000000000000000000000000000000000000000001000000000000000000000000000000000000000000000000000000001fc47e8500000000000000000000000000000000000000000000000000000001000276a4",
        "nonce": "0xfb6",
        "chainId": "0x1"
      },
      "additionalContracts": [],
      "isFixedGasLimit": false
    },
    {
      "hash": null,
      "transactionType": "CALL",
      "contractName": "ChaosRouter",
      "contractAddress": "0x40f26937cfa04d9667c15c811b8fcb1ccb359846",
      "function": "swap((address,address,uint24,int24,address),(bool,int256,uint160))",
      "arguments": [
        "(0x9ed4F4724b521326a9d9d2420252440bD05556c4, 0xD1620Dac6d79BE34F8500756B47cf91B1fA5Cc8C, 500, 5, 0x7e0C07EEabb2459D70dba5b8d100Dca44c652aC0)",
        "(true, 784577706, 4295128740)"
      ],
      "transaction": {
        "from": "0x70997970c51812dc3a010c7d01b50e0d17dc79c8",
        "to": "0x40f26937cfa04d9667c15c811b8fcb1ccb359846",
        "value": "0x0",
        "input": "0x1e2817de0000000000000000000000009ed4f4724b521326a9d9d2420252440bd05556c4000000000000000000000000d1620dac6d79be34f8500756b47cf91b1fa5cc8c00000000000000000000000000000000000000000000000000000000000001f400000000000000000000000000000000000000000000000000000000000000050000000000000000000000007e0c07eeabb2459d70dba5b8d100dca44c652ac00000000000000000000000000000000000000000000000000000000000000001000000000000000000000000000000000000000000000000000000002ec3b4aa00000000000000000000000000000000000000000000000000000001000276a4",
        "nonce": "0xfb7",
        "chainId": "0x1"
      },
      "additionalContracts": [],
      "isFixedGasLimit": false
    },
    {
      "hash": null,
      "transactionType": "CALL",
      "contractName": "ChaosRouter",
      "contractAddress": "0x40f26937cfa04d9667c15c811b8fcb1ccb359846",
      "function": "swap((address,address,uint24,int24,address),(bool,int256,uint160))",
      "arguments": [
        "(0x9ed4F4724b521326a9d9d2420252440bD05556c4, 0xD1620Dac6d79BE34F8500756B47cf91B1fA5Cc8C, 500, 5, 0x7e0C07EEabb2459D70dba5b8d100Dca44c652aC0)",
        "(true, -414956358, 4295128740)"
      ],
      "transaction": {
        "from": "0x70997970c51812dc3a010c7d01b50e0d17dc79c8",
        "to": "0x40f26937cfa04d9667c15c811b8fcb1ccb359846",
        "value": "0x0",
        "input": "0x1e2817de0000000000000000000000009ed4f4724b521326a9d9d2420252440bd05556c4000000000000000000000000d1620dac6d79be34f8500756b47cf91b1fa5cc8c00000000000000000000000000000000000000000000000000000000000001f400000000000000000000000000000000000000000000000000000000000000050000000000000000000000007e0c07eeabb2459d70dba5b8d100dca44c652ac00000000000000000000000000000000000000000000000000000000000000001ffffffffffffffffffffffffffffffffffffffffffffffffffffffffe74444ba00000000000000000000000000000000000000000000000000000001000276a4",
        "nonce": "0xfb8",
        "chainId": "0x1"
      },
      "additionalContracts": [],
      "isFixedGasLimit": false
    },
    {
      "hash": null,
      "transactionType": "CALL",
      "contractName": "ChaosRouter",
      "contractAddress": "0x40f26937cfa04d9667c15c811b8fcb1ccb359846",
      "function": "swap((address,address,uint24,int24,address),(bool,int256,uint160))",
      "arguments": [
        "(0x9ed4F4724b521326a9d9d2420252440bD05556c4, 0xD1620Dac6d79BE34F8500756B47cf91B1fA5Cc8C, 500, 5, 0x7e0C07EEabb2459D70dba5b8d100Dca44c652aC0)",
        "(true, -712295701, 4295128740)"
      ],
      "transaction": {
        "from": "0x70997970c51812dc3a010c7d01b50e0d17dc79c8",
        "to": "0x40f26937cfa04d9667c15c811b8fcb1ccb359846",
        "value": "0x0",
        "input": "0x1e2817de0000000000000000000000009ed4f4724b521326a9d9d2420252440bd05556c4000000000000000000000000d1620dac6d79be34f8500756b47cf91b1fa5cc8c00000000000000000000000000000000000000000000000000000000000001f400000000000000000000000000000000000000000000000000000000000000050000000000000000000000007e0c07eeabb2459d70dba5b8d100dca44c652ac00000000000000000000000000000000000000000000000000000000000000001ffffffffffffffffffffffffffffffffffffffffffffffffffffffffd58b3aeb00000000000000000000000000000000000000000000000000000001000276a4",
        "nonce": "0xfb9",
        "chainId": "0x1"
      },
      "additionalContracts": [],
      "isFixedGasLimit": false
    },
    {
      "hash": null,
      "transactionType": "CALL",
      "contractName": "ChaosRouter",
      "contractAddress": "0x40f26937cfa04d9667c15c811b8fcb1ccb359846",
      "function": "swap((address,address,uint24,int24,address),(bool,int256,uint160))",
      "arguments": [
        "(0x9ed4F4724b521326a9d9d2420252440bD05556c4, 0xD1620Dac6d79BE34F8500756B47cf91B1fA5Cc8C, 500, 5, 0x7e0C07EEabb2459D70dba5b8d100Dca44c652aC0)",
        "(false, 841820163, 1461446703485210103287273052203988822378723970341)"
      ],
      "transaction": {
        "from": "0x70997970c51812dc3a010c7d01b50e0d17dc79c8",
        "to": "0x40f26937cfa04d9667c15c811b8fcb1ccb359846",
        "value": "0x0",
        "input": "0x1e2817de0000000000000000000000009ed4f4724b521326a9d9d2420252440bd05556c4000000000000000000000000d1620dac6d79be34f8500756b47cf91b1fa5cc8c00000000000000000000000000000000000000000000000000000000000001f400000000000000000000000000000000000000000000000000000000000000050000000000000000000000007e0c07eeabb2459d70dba5b8d100dca44c652ac0000000000000000000000000000000000000000000000000000000000000000000000000000000000000000000000000000000000000000000000000322d2803000000000000000000000000fffd8963efd1fc6a506488495d951d5263988d25",
        "nonce": "0xfba",
        "chainId": "0x1"
      },
      "additionalContracts": [],
      "isFixedGasLimit": false
    },
    {
      "hash": null,
      "transactionType": "CALL",
      "contractName": "ChaosRouter",
      "contractAddress": "0x40f26937cfa04d9667c15c811b8fcb1ccb359846",
      "function": "swap((address,address,uint24,int24,address),(bool,int256,uint160))",
      "arguments": [
        "(0x9ed4F4724b521326a9d9d2420252440bD05556c4, 0xD1620Dac6d79BE34F8500756B47cf91B1fA5Cc8C, 500, 5, 0x7e0C07EEabb2459D70dba5b8d100Dca44c652aC0)",
        "(false, 13888429, 1461446703485210103287273052203988822378723970341)"
      ],
      "transaction": {
        "from": "0x70997970c51812dc3a010c7d01b50e0d17dc79c8",
        "to": "0x40f26937cfa04d9667c15c811b8fcb1ccb359846",
        "value": "0x0",
        "input": "0x1e2817de0000000000000000000000009ed4f4724b521326a9d9d2420252440bd05556c4000000000000000000000000d1620dac6d79be34f8500756b47cf91b1fa5cc8c00000000000000000000000000000000000000000000000000000000000001f400000000000000000000000000000000000000000000000000000000000000050000000000000000000000007e0c07eeabb2459d70dba5b8d100dca44c652ac000000000000000000000000000000000000000000000000000000000000000000000000000000000000000000000000000000000000000000000000000d3ebad000000000000000000000000fffd8963efd1fc6a506488495d951d5263988d25",
        "nonce": "0xfbb",
        "chainId": "0x1"
      },
      "additionalContracts": [],
      "isFixedGasLimit": false
    },
    {
      "hash": null,
      "transactionType": "CALL",
      "contractName": "ChaosRouter",
      "contractAddress": "0x40f26937cfa04d9667c15c811b8fcb1ccb359846",
      "function": "swap((address,address,uint24,int24,address),(bool,int256,uint160))",
      "arguments": [
        "(0x9ed4F4724b521326a9d9d2420252440bD05556c4, 0xD1620Dac6d79BE34F8500756B47cf91B1fA5Cc8C, 500, 5, 0x7e0C07EEabb2459D70dba5b8d100Dca44c652aC0)",
        "(true, -557355379, 4295128740)"
      ],
      "transaction": {
        "from": "0x70997970c51812dc3a010c7d01b50e0d17dc79c8",
        "to": "0x40f26937cfa04d9667c15c811b8fcb1ccb359846",
        "value": "0x0",
        "input": "0x1e2817de0000000000000000000000009ed4f4724b521326a9d9d2420252440bd05556c4000000000000000000000000d1620dac6d79be34f8500756b47cf91b1fa5cc8c00000000000000000000000000000000000000000000000000000000000001f400000000000000000000000000000000000000000000000000000000000000050000000000000000000000007e0c07eeabb2459d70dba5b8d100dca44c652ac00000000000000000000000000000000000000000000000000000000000000001ffffffffffffffffffffffffffffffffffffffffffffffffffffffffdec76e8d00000000000000000000000000000000000000000000000000000001000276a4",
        "nonce": "0xfbc",
        "chainId": "0x1"
      },
      "additionalContracts": [],
      "isFixedGasLimit": false
    },
    {
      "hash": null,
      "transactionType": "CALL",
      "contractName": "ChaosRouter",
      "contractAddress": "0x40f26937cfa04d9667c15c811b8fcb1ccb359846",
      "function": "swap((address,address,uint24,int24,address),(bool,int256,uint160))",
      "arguments": [
        "(0x9ed4F4724b521326a9d9d2420252440bD05556c4, 0xD1620Dac6d79BE34F8500756B47cf91B1fA5Cc8C, 500, 5, 0x7e0C07EEabb2459D70dba5b8d100Dca44c652aC0)",
        "(false, 324294995, 1461446703485210103287273052203988822378723970341)"
      ],
      "transaction": {
        "from": "0x70997970c51812dc3a010c7d01b50e0d17dc79c8",
        "to": "0x40f26937cfa04d9667c15c811b8fcb1ccb359846",
        "value": "0x0",
        "input": "0x1e2817de0000000000000000000000009ed4f4724b521326a9d9d2420252440bd05556c4000000000000000000000000d1620dac6d79be34f8500756b47cf91b1fa5cc8c00000000000000000000000000000000000000000000000000000000000001f400000000000000000000000000000000000000000000000000000000000000050000000000000000000000007e0c07eeabb2459d70dba5b8d100dca44c652ac000000000000000000000000000000000000000000000000000000000000000000000000000000000000000000000000000000000000000000000000013545953000000000000000000000000fffd8963efd1fc6a506488495d951d5263988d25",
        "nonce": "0xfbd",
        "chainId": "0x1"
      },
      "additionalContracts": [],
      "isFixedGasLimit": false
    },
    {
      "hash": null,
      "transactionType": "CALL",
      "contractName": "ChaosRouter",
      "contractAddress": "0x40f26937cfa04d9667c15c811b8fcb1ccb359846",
      "function": "swap((address,address,uint24,int24,address),(bool,int256,uint160))",
      "arguments": [
        "(0x9ed4F4724b521326a9d9d2420252440bD05556c4, 0xD1620Dac6d79BE34F8500756B47cf91B1fA5Cc8C, 500, 5, 0x7e0C07EEabb2459D70dba5b8d100Dca44c652aC0)",
        "(false, 204624362, 1461446703485210103287273052203988822378723970341)"
      ],
      "transaction": {
        "from": "0x70997970c51812dc3a010c7d01b50e0d17dc79c8",
        "to": "0x40f26937cfa04d9667c15c811b8fcb1ccb359846",
        "value": "0x0",
        "input": "0x1e2817de0000000000000000000000009ed4f4724b521326a9d9d2420252440bd05556c4000000000000000000000000d1620dac6d79be34f8500756b47cf91b1fa5cc8c00000000000000000000000000000000000000000000000000000000000001f400000000000000000000000000000000000000000000000000000000000000050000000000000000000000007e0c07eeabb2459d70dba5b8d100dca44c652ac00000000000000000000000000000000000000000000000000000000000000000000000000000000000000000000000000000000000000000000000000c3251ea000000000000000000000000fffd8963efd1fc6a506488495d951d5263988d25",
        "nonce": "0xfbe",
        "chainId": "0x1"
      },
      "additionalContracts": [],
      "isFixedGasLimit": false
    },
    {
      "hash": null,
      "transactionType": "CALL",
      "contractName": "ChaosRouter",
      "contractAddress": "0x40f26937cfa04d9667c15c811b8fcb1ccb359846",
      "function": "swap((address,address,uint24,int24,address),(bool,int256,uint160))",
      "arguments": [
        "(0x9ed4F4724b521326a9d9d2420252440bD05556c4, 0xD1620Dac6d79BE34F8500756B47cf91B1fA5Cc8C, 500, 5, 0x7e0C07EEabb2459D70dba5b8d100Dca44c652aC0)",
        "(false, -948471984, 1461446703485210103287273052203988822378723970341)"
      ],
      "transaction": {
        "from": "0x70997970c51812dc3a010c7d01b50e0d17dc79c8",
        "to": "0x40f26937cfa04d9667c15c811b8fcb1ccb359846",
        "value": "0x0",
        "input": "0x1e2817de0000000000000000000000009ed4f4724b521326a9d9d2420252440bd05556c4000000000000000000000000d1620dac6d79be34f8500756b47cf91b1fa5cc8c00000000000000000000000000000000000000000000000000000000000001f400000000000000000000000000000000000000000000000000000000000000050000000000000000000000007e0c07eeabb2459d70dba5b8d100dca44c652ac00000000000000000000000000000000000000000000000000000000000000000ffffffffffffffffffffffffffffffffffffffffffffffffffffffffc7777750000000000000000000000000fffd8963efd1fc6a506488495d951d5263988d25",
        "nonce": "0xfbf",
        "chainId": "0x1"
      },
      "additionalContracts": [],
      "isFixedGasLimit": false
    },
    {
      "hash": null,
      "transactionType": "CALL",
      "contractName": "ChaosRouter",
      "contractAddress": "0x40f26937cfa04d9667c15c811b8fcb1ccb359846",
      "function": "swap((address,address,uint24,int24,address),(bool,int256,uint160))",
      "arguments": [
        "(0x9ed4F4724b521326a9d9d2420252440bD05556c4, 0xD1620Dac6d79BE34F8500756B47cf91B1fA5Cc8C, 500, 5, 0x7e0C07EEabb2459D70dba5b8d100Dca44c652aC0)",
        "(false, -806838556, 1461446703485210103287273052203988822378723970341)"
      ],
      "transaction": {
        "from": "0x70997970c51812dc3a010c7d01b50e0d17dc79c8",
        "to": "0x40f26937cfa04d9667c15c811b8fcb1ccb359846",
        "value": "0x0",
        "input": "0x1e2817de0000000000000000000000009ed4f4724b521326a9d9d2420252440bd05556c4000000000000000000000000d1620dac6d79be34f8500756b47cf91b1fa5cc8c00000000000000000000000000000000000000000000000000000000000001f400000000000000000000000000000000000000000000000000000000000000050000000000000000000000007e0c07eeabb2459d70dba5b8d100dca44c652ac00000000000000000000000000000000000000000000000000000000000000000ffffffffffffffffffffffffffffffffffffffffffffffffffffffffcfe89ee4000000000000000000000000fffd8963efd1fc6a506488495d951d5263988d25",
        "nonce": "0xfc0",
        "chainId": "0x1"
      },
      "additionalContracts": [],
      "isFixedGasLimit": false
    },
    {
      "hash": null,
      "transactionType": "CALL",
      "contractName": "ChaosRouter",
      "contractAddress": "0x40f26937cfa04d9667c15c811b8fcb1ccb359846",
      "function": "swap((address,address,uint24,int24,address),(bool,int256,uint160))",
      "arguments": [
        "(0x9ed4F4724b521326a9d9d2420252440bD05556c4, 0xD1620Dac6d79BE34F8500756B47cf91B1fA5Cc8C, 500, 5, 0x7e0C07EEabb2459D70dba5b8d100Dca44c652aC0)",
        "(true, 262051138, 4295128740)"
      ],
      "transaction": {
        "from": "0x70997970c51812dc3a010c7d01b50e0d17dc79c8",
        "to": "0x40f26937cfa04d9667c15c811b8fcb1ccb359846",
        "value": "0x0",
        "input": "0x1e2817de0000000000000000000000009ed4f4724b521326a9d9d2420252440bd05556c4000000000000000000000000d1620dac6d79be34f8500756b47cf91b1fa5cc8c00000000000000000000000000000000000000000000000000000000000001f400000000000000000000000000000000000000000000000000000000000000050000000000000000000000007e0c07eeabb2459d70dba5b8d100dca44c652ac00000000000000000000000000000000000000000000000000000000000000001000000000000000000000000000000000000000000000000000000000f9e954200000000000000000000000000000000000000000000000000000001000276a4",
        "nonce": "0xfc1",
        "chainId": "0x1"
      },
      "additionalContracts": [],
      "isFixedGasLimit": false
    },
    {
      "hash": null,
      "transactionType": "CALL",
      "contractName": "ChaosRouter",
      "contractAddress": "0x40f26937cfa04d9667c15c811b8fcb1ccb359846",
      "function": "swap((address,address,uint24,int24,address),(bool,int256,uint160))",
      "arguments": [
        "(0x9ed4F4724b521326a9d9d2420252440bD05556c4, 0xD1620Dac6d79BE34F8500756B47cf91B1fA5Cc8C, 500, 5, 0x7e0C07EEabb2459D70dba5b8d100Dca44c652aC0)",
        "(true, -327958114, 4295128740)"
      ],
      "transaction": {
        "from": "0x70997970c51812dc3a010c7d01b50e0d17dc79c8",
        "to": "0x40f26937cfa04d9667c15c811b8fcb1ccb359846",
        "value": "0x0",
        "input": "0x1e2817de0000000000000000000000009ed4f4724b521326a9d9d2420252440bd05556c4000000000000000000000000d1620dac6d79be34f8500756b47cf91b1fa5cc8c00000000000000000000000000000000000000000000000000000000000001f400000000000000000000000000000000000000000000000000000000000000050000000000000000000000007e0c07eeabb2459d70dba5b8d100dca44c652ac00000000000000000000000000000000000000000000000000000000000000001ffffffffffffffffffffffffffffffffffffffffffffffffffffffffec73c19e00000000000000000000000000000000000000000000000000000001000276a4",
        "nonce": "0xfc2",
        "chainId": "0x1"
      },
      "additionalContracts": [],
      "isFixedGasLimit": false
    },
    {
      "hash": null,
      "transactionType": "CALL",
      "contractName": "ChaosRouter",
      "contractAddress": "0x40f26937cfa04d9667c15c811b8fcb1ccb359846",
      "function": "swap((address,address,uint24,int24,address),(bool,int256,uint160))",
      "arguments": [
        "(0x9ed4F4724b521326a9d9d2420252440bD05556c4, 0xD1620Dac6d79BE34F8500756B47cf91B1fA5Cc8C, 500, 5, 0x7e0C07EEabb2459D70dba5b8d100Dca44c652aC0)",
        "(true, 1000000, 4295128740)"
      ],
      "transaction": {
        "from": "0x70997970c51812dc3a010c7d01b50e0d17dc79c8",
        "to": "0x40f26937cfa04d9667c15c811b8fcb1ccb359846",
        "value": "0x0",
        "input": "0x1e2817de0000000000000000000000009ed4f4724b521326a9d9d2420252440bd05556c4000000000000000000000000d1620dac6d79be34f8500756b47cf91b1fa5cc8c00000000000000000000000000000000000000000000000000000000000001f400000000000000000000000000000000000000000000000000000000000000050000000000000000000000007e0c07eeabb2459d70dba5b8d100dca44c652ac0000000000000000000000000000000000000000000000000000000000000000100000000000000000000000000000000000000000000000000000000000f424000000000000000000000000000000000000000000000000000000001000276a4",
        "nonce": "0xfc3",
        "chainId": "0x1"
      },
      "additionalContracts": [],
      "isFixedGasLimit": false
    },
    {
      "hash": null,
      "transactionType": "CALL",
      "contractName": "ChaosRouter",
      "contractAddress": "0x40f26937cfa04d9667c15c811b8fcb1ccb359846",
      "function": "swap((address,address,uint24,int24,address),(bool,int256,uint160))",
      "arguments": [
        "(0x9ed4F4724b521326a9d9d2420252440bD05556c4, 0xD1620Dac6d79BE34F8500756B47cf91B1fA5Cc8C, 500, 5, 0x7e0C07EEabb2459D70dba5b8d100Dca44c652aC0)",
        "(true, -39787557, 4295128740)"
      ],
      "transaction": {
        "from": "0x70997970c51812dc3a010c7d01b50e0d17dc79c8",
        "to": "0x40f26937cfa04d9667c15c811b8fcb1ccb359846",
        "value": "0x0",
        "input": "0x1e2817de0000000000000000000000009ed4f4724b521326a9d9d2420252440bd05556c4000000000000000000000000d1620dac6d79be34f8500756b47cf91b1fa5cc8c00000000000000000000000000000000000000000000000000000000000001f400000000000000000000000000000000000000000000000000000000000000050000000000000000000000007e0c07eeabb2459d70dba5b8d100dca44c652ac00000000000000000000000000000000000000000000000000000000000000001fffffffffffffffffffffffffffffffffffffffffffffffffffffffffda0e3db00000000000000000000000000000000000000000000000000000001000276a4",
        "nonce": "0xfc4",
        "chainId": "0x1"
      },
      "additionalContracts": [],
      "isFixedGasLimit": false
    },
    {
      "hash": null,
      "transactionType": "CALL",
      "contractName": "ChaosRouter",
      "contractAddress": "0x40f26937cfa04d9667c15c811b8fcb1ccb359846",
      "function": "swap((address,address,uint24,int24,address),(bool,int256,uint160))",
      "arguments": [
        "(0x9ed4F4724b521326a9d9d2420252440bD05556c4, 0xD1620Dac6d79BE34F8500756B47cf91B1fA5Cc8C, 500, 5, 0x7e0C07EEabb2459D70dba5b8d100Dca44c652aC0)",
        "(false, 729406323, 1461446703485210103287273052203988822378723970341)"
      ],
      "transaction": {
        "from": "0x70997970c51812dc3a010c7d01b50e0d17dc79c8",
        "to": "0x40f26937cfa04d9667c15c811b8fcb1ccb359846",
        "value": "0x0",
        "input": "0x1e2817de0000000000000000000000009ed4f4724b521326a9d9d2420252440bd05556c4000000000000000000000000d1620dac6d79be34f8500756b47cf91b1fa5cc8c00000000000000000000000000000000000000000000000000000000000001f400000000000000000000000000000000000000000000000000000000000000050000000000000000000000007e0c07eeabb2459d70dba5b8d100dca44c652ac00000000000000000000000000000000000000000000000000000000000000000000000000000000000000000000000000000000000000000000000002b79db73000000000000000000000000fffd8963efd1fc6a506488495d951d5263988d25",
        "nonce": "0xfc5",
        "chainId": "0x1"
      },
      "additionalContracts": [],
      "isFixedGasLimit": false
    },
    {
      "hash": null,
      "transactionType": "CALL",
      "contractName": "ChaosRouter",
      "contractAddress": "0x40f26937cfa04d9667c15c811b8fcb1ccb359846",
      "function": "swap((address,address,uint24,int24,address),(bool,int256,uint160))",
      "arguments": [
        "(0x9ed4F4724b521326a9d9d2420252440bD05556c4, 0xD1620Dac6d79BE34F8500756B47cf91B1fA5Cc8C, 500, 5, 0x7e0C07EEabb2459D70dba5b8d100Dca44c652aC0)",
        "(true, 384936219, 4295128740)"
      ],
      "transaction": {
        "from": "0x70997970c51812dc3a010c7d01b50e0d17dc79c8",
        "to": "0x40f26937cfa04d9667c15c811b8fcb1ccb359846",
        "value": "0x0",
        "input": "0x1e2817de0000000000000000000000009ed4f4724b521326a9d9d2420252440bd05556c4000000000000000000000000d1620dac6d79be34f8500756b47cf91b1fa5cc8c00000000000000000000000000000000000000000000000000000000000001f400000000000000000000000000000000000000000000000000000000000000050000000000000000000000007e0c07eeabb2459d70dba5b8d100dca44c652ac000000000000000000000000000000000000000000000000000000000000000010000000000000000000000000000000000000000000000000000000016f1a91b00000000000000000000000000000000000000000000000000000001000276a4",
        "nonce": "0xfc6",
        "chainId": "0x1"
      },
      "additionalContracts": [],
      "isFixedGasLimit": false
    },
    {
      "hash": null,
      "transactionType": "CALL",
      "contractName": "ChaosRouter",
      "contractAddress": "0x40f26937cfa04d9667c15c811b8fcb1ccb359846",
      "function": "swap((address,address,uint24,int24,address),(bool,int256,uint160))",
      "arguments": [
        "(0x9ed4F4724b521326a9d9d2420252440bD05556c4, 0xD1620Dac6d79BE34F8500756B47cf91B1fA5Cc8C, 500, 5, 0x7e0C07EEabb2459D70dba5b8d100Dca44c652aC0)",
        "(true, -814914295, 4295128740)"
      ],
      "transaction": {
        "from": "0x70997970c51812dc3a010c7d01b50e0d17dc79c8",
        "to": "0x40f26937cfa04d9667c15c811b8fcb1ccb359846",
        "value": "0x0",
        "input": "0x1e2817de0000000000000000000000009ed4f4724b521326a9d9d2420252440bd05556c4000000000000000000000000d1620dac6d79be34f8500756b47cf91b1fa5cc8c00000000000000000000000000000000000000000000000000000000000001f400000000000000000000000000000000000000000000000000000000000000050000000000000000000000007e0c07eeabb2459d70dba5b8d100dca44c652ac00000000000000000000000000000000000000000000000000000000000000001ffffffffffffffffffffffffffffffffffffffffffffffffffffffffcf6d650900000000000000000000000000000000000000000000000000000001000276a4",
        "nonce": "0xfc7",
        "chainId": "0x1"
      },
      "additionalContracts": [],
      "isFixedGasLimit": false
    },
    {
      "hash": null,
      "transactionType": "CALL",
      "contractName": "ChaosRouter",
      "contractAddress": "0x40f26937cfa04d9667c15c811b8fcb1ccb359846",
      "function": "swap((address,address,uint24,int24,address),(bool,int256,uint160))",
      "arguments": [
        "(0x9ed4F4724b521326a9d9d2420252440bD05556c4, 0xD1620Dac6d79BE34F8500756B47cf91B1fA5Cc8C, 500, 5, 0x7e0C07EEabb2459D70dba5b8d100Dca44c652aC0)",
        "(true, -171842591, 4295128740)"
      ],
      "transaction": {
        "from": "0x70997970c51812dc3a010c7d01b50e0d17dc79c8",
        "to": "0x40f26937cfa04d9667c15c811b8fcb1ccb359846",
        "value": "0x0",
        "input": "0x1e2817de0000000000000000000000009ed4f4724b521326a9d9d2420252440bd05556c4000000000000000000000000d1620dac6d79be34f8500756b47cf91b1fa5cc8c00000000000000000000000000000000000000000000000000000000000001f400000000000000000000000000000000000000000000000000000000000000050000000000000000000000007e0c07eeabb2459d70dba5b8d100dca44c652ac00000000000000000000000000000000000000000000000000000000000000001fffffffffffffffffffffffffffffffffffffffffffffffffffffffff5c1e3e100000000000000000000000000000000000000000000000000000001000276a4",
        "nonce": "0xfc8",
        "chainId": "0x1"
      },
      "additionalContracts": [],
      "isFixedGasLimit": false
    },
    {
      "hash": null,
      "transactionType": "CALL",
      "contractName": "ChaosRouter",
      "contractAddress": "0x40f26937cfa04d9667c15c811b8fcb1ccb359846",
      "function": "swap((address,address,uint24,int24,address),(bool,int256,uint160))",
      "arguments": [
        "(0x9ed4F4724b521326a9d9d2420252440bD05556c4, 0xD1620Dac6d79BE34F8500756B47cf91B1fA5Cc8C, 500, 5, 0x7e0C07EEabb2459D70dba5b8d100Dca44c652aC0)",
        "(true, -653678415, 4295128740)"
      ],
      "transaction": {
        "from": "0x70997970c51812dc3a010c7d01b50e0d17dc79c8",
        "to": "0x40f26937cfa04d9667c15c811b8fcb1ccb359846",
        "value": "0x0",
        "input": "0x1e2817de0000000000000000000000009ed4f4724b521326a9d9d2420252440bd05556c4000000000000000000000000d1620dac6d79be34f8500756b47cf91b1fa5cc8c00000000000000000000000000000000000000000000000000000000000001f400000000000000000000000000000000000000000000000000000000000000050000000000000000000000007e0c07eeabb2459d70dba5b8d100dca44c652ac00000000000000000000000000000000000000000000000000000000000000001ffffffffffffffffffffffffffffffffffffffffffffffffffffffffd909a8b100000000000000000000000000000000000000000000000000000001000276a4",
        "nonce": "0xfc9",
        "chainId": "0x1"
      },
      "additionalContracts": [],
      "isFixedGasLimit": false
    },
    {
      "hash": null,
      "transactionType": "CALL",
      "contractName": "ChaosRouter",
      "contractAddress": "0x40f26937cfa04d9667c15c811b8fcb1ccb359846",
      "function": "swap((address,address,uint24,int24,address),(bool,int256,uint160))",
      "arguments": [
        "(0x9ed4F4724b521326a9d9d2420252440bD05556c4, 0xD1620Dac6d79BE34F8500756B47cf91B1fA5Cc8C, 500, 5, 0x7e0C07EEabb2459D70dba5b8d100Dca44c652aC0)",
        "(true, -771638733, 4295128740)"
      ],
      "transaction": {
        "from": "0x70997970c51812dc3a010c7d01b50e0d17dc79c8",
        "to": "0x40f26937cfa04d9667c15c811b8fcb1ccb359846",
        "value": "0x0",
        "input": "0x1e2817de0000000000000000000000009ed4f4724b521326a9d9d2420252440bd05556c4000000000000000000000000d1620dac6d79be34f8500756b47cf91b1fa5cc8c00000000000000000000000000000000000000000000000000000000000001f400000000000000000000000000000000000000000000000000000000000000050000000000000000000000007e0c07eeabb2459d70dba5b8d100dca44c652ac00000000000000000000000000000000000000000000000000000000000000001ffffffffffffffffffffffffffffffffffffffffffffffffffffffffd201ba3300000000000000000000000000000000000000000000000000000001000276a4",
        "nonce": "0xfca",
        "chainId": "0x1"
      },
      "additionalContracts": [],
      "isFixedGasLimit": false
    },
    {
      "hash": null,
      "transactionType": "CALL",
      "contractName": "ChaosRouter",
      "contractAddress": "0x40f26937cfa04d9667c15c811b8fcb1ccb359846",
      "function": "swap((address,address,uint24,int24,address),(bool,int256,uint160))",
      "arguments": [
        "(0x9ed4F4724b521326a9d9d2420252440bD05556c4, 0xD1620Dac6d79BE34F8500756B47cf91B1fA5Cc8C, 500, 5, 0x7e0C07EEabb2459D70dba5b8d100Dca44c652aC0)",
        "(false, -2352221800, 1461446703485210103287273052203988822378723970341)"
      ],
      "transaction": {
        "from": "0x70997970c51812dc3a010c7d01b50e0d17dc79c8",
        "to": "0x40f26937cfa04d9667c15c811b8fcb1ccb359846",
        "value": "0x0",
        "input": "0x1e2817de0000000000000000000000009ed4f4724b521326a9d9d2420252440bd05556c4000000000000000000000000d1620dac6d79be34f8500756b47cf91b1fa5cc8c00000000000000000000000000000000000000000000000000000000000001f400000000000000000000000000000000000000000000000000000000000000050000000000000000000000007e0c07eeabb2459d70dba5b8d100dca44c652ac00000000000000000000000000000000000000000000000000000000000000000ffffffffffffffffffffffffffffffffffffffffffffffffffffffff73cbf198000000000000000000000000fffd8963efd1fc6a506488495d951d5263988d25",
        "nonce": "0xfcb",
        "chainId": "0x1"
      },
      "additionalContracts": [],
      "isFixedGasLimit": false
    },
    {
      "hash": null,
      "transactionType": "CALL",
      "contractName": "ChaosRouter",
      "contractAddress": "0x40f26937cfa04d9667c15c811b8fcb1ccb359846",
      "function": "swap((address,address,uint24,int24,address),(bool,int256,uint160))",
      "arguments": [
        "(0x9ed4F4724b521326a9d9d2420252440bD05556c4, 0xD1620Dac6d79BE34F8500756B47cf91B1fA5Cc8C, 500, 5, 0x7e0C07EEabb2459D70dba5b8d100Dca44c652aC0)",
        "(true, 553994100, 4295128740)"
      ],
      "transaction": {
        "from": "0x70997970c51812dc3a010c7d01b50e0d17dc79c8",
        "to": "0x40f26937cfa04d9667c15c811b8fcb1ccb359846",
        "value": "0x0",
        "input": "0x1e2817de0000000000000000000000009ed4f4724b521326a9d9d2420252440bd05556c4000000000000000000000000d1620dac6d79be34f8500756b47cf91b1fa5cc8c00000000000000000000000000000000000000000000000000000000000001f400000000000000000000000000000000000000000000000000000000000000050000000000000000000000007e0c07eeabb2459d70dba5b8d100dca44c652ac00000000000000000000000000000000000000000000000000000000000000001000000000000000000000000000000000000000000000000000000002105477400000000000000000000000000000000000000000000000000000001000276a4",
        "nonce": "0xfcc",
        "chainId": "0x1"
      },
      "additionalContracts": [],
      "isFixedGasLimit": false
    },
    {
      "hash": null,
      "transactionType": "CALL",
      "contractName": "ChaosRouter",
      "contractAddress": "0x40f26937cfa04d9667c15c811b8fcb1ccb359846",
      "function": "swap((address,address,uint24,int24,address),(bool,int256,uint160))",
      "arguments": [
        "(0x9ed4F4724b521326a9d9d2420252440bD05556c4, 0xD1620Dac6d79BE34F8500756B47cf91B1fA5Cc8C, 500, 5, 0x7e0C07EEabb2459D70dba5b8d100Dca44c652aC0)",
        "(false, -928099264, 1461446703485210103287273052203988822378723970341)"
      ],
      "transaction": {
        "from": "0x70997970c51812dc3a010c7d01b50e0d17dc79c8",
        "to": "0x40f26937cfa04d9667c15c811b8fcb1ccb359846",
        "value": "0x0",
        "input": "0x1e2817de0000000000000000000000009ed4f4724b521326a9d9d2420252440bd05556c4000000000000000000000000d1620dac6d79be34f8500756b47cf91b1fa5cc8c00000000000000000000000000000000000000000000000000000000000001f400000000000000000000000000000000000000000000000000000000000000050000000000000000000000007e0c07eeabb2459d70dba5b8d100dca44c652ac00000000000000000000000000000000000000000000000000000000000000000ffffffffffffffffffffffffffffffffffffffffffffffffffffffffc8ae5440000000000000000000000000fffd8963efd1fc6a506488495d951d5263988d25",
        "nonce": "0xfcd",
        "chainId": "0x1"
      },
      "additionalContracts": [],
      "isFixedGasLimit": false
    },
    {
      "hash": null,
      "transactionType": "CALL",
      "contractName": "ChaosRouter",
      "contractAddress": "0x40f26937cfa04d9667c15c811b8fcb1ccb359846",
      "function": "swap((address,address,uint24,int24,address),(bool,int256,uint160))",
      "arguments": [
        "(0x9ed4F4724b521326a9d9d2420252440bD05556c4, 0xD1620Dac6d79BE34F8500756B47cf91B1fA5Cc8C, 500, 5, 0x7e0C07EEabb2459D70dba5b8d100Dca44c652aC0)",
        "(true, 539128200, 4295128740)"
      ],
      "transaction": {
        "from": "0x70997970c51812dc3a010c7d01b50e0d17dc79c8",
        "to": "0x40f26937cfa04d9667c15c811b8fcb1ccb359846",
        "value": "0x0",
        "input": "0x1e2817de0000000000000000000000009ed4f4724b521326a9d9d2420252440bd05556c4000000000000000000000000d1620dac6d79be34f8500756b47cf91b1fa5cc8c00000000000000000000000000000000000000000000000000000000000001f400000000000000000000000000000000000000000000000000000000000000050000000000000000000000007e0c07eeabb2459d70dba5b8d100dca44c652ac00000000000000000000000000000000000000000000000000000000000000001000000000000000000000000000000000000000000000000000000002022718800000000000000000000000000000000000000000000000000000001000276a4",
        "nonce": "0xfce",
        "chainId": "0x1"
      },
      "additionalContracts": [],
      "isFixedGasLimit": false
    },
    {
      "hash": null,
      "transactionType": "CALL",
      "contractName": "ChaosRouter",
      "contractAddress": "0x40f26937cfa04d9667c15c811b8fcb1ccb359846",
      "function": "swap((address,address,uint24,int24,address),(bool,int256,uint160))",
      "arguments": [
        "(0x9ed4F4724b521326a9d9d2420252440bD05556c4, 0xD1620Dac6d79BE34F8500756B47cf91B1fA5Cc8C, 500, 5, 0x7e0C07EEabb2459D70dba5b8d100Dca44c652aC0)",
        "(true, -626791291, 4295128740)"
      ],
      "transaction": {
        "from": "0x70997970c51812dc3a010c7d01b50e0d17dc79c8",
        "to": "0x40f26937cfa04d9667c15c811b8fcb1ccb359846",
        "value": "0x0",
        "input": "0x1e2817de0000000000000000000000009ed4f4724b521326a9d9d2420252440bd05556c4000000000000000000000000d1620dac6d79be34f8500756b47cf91b1fa5cc8c00000000000000000000000000000000000000000000000000000000000001f400000000000000000000000000000000000000000000000000000000000000050000000000000000000000007e0c07eeabb2459d70dba5b8d100dca44c652ac00000000000000000000000000000000000000000000000000000000000000001ffffffffffffffffffffffffffffffffffffffffffffffffffffffffdaa3ec8500000000000000000000000000000000000000000000000000000001000276a4",
        "nonce": "0xfcf",
        "chainId": "0x1"
      },
      "additionalContracts": [],
      "isFixedGasLimit": false
    },
    {
      "hash": null,
      "transactionType": "CALL",
      "contractName": "ChaosRouter",
      "contractAddress": "0x40f26937cfa04d9667c15c811b8fcb1ccb359846",
      "function": "swap((address,address,uint24,int24,address),(bool,int256,uint160))",
      "arguments": [
        "(0x9ed4F4724b521326a9d9d2420252440bD05556c4, 0xD1620Dac6d79BE34F8500756B47cf91B1fA5Cc8C, 500, 5, 0x7e0C07EEabb2459D70dba5b8d100Dca44c652aC0)",
        "(false, 732428298, 1461446703485210103287273052203988822378723970341)"
      ],
      "transaction": {
        "from": "0x70997970c51812dc3a010c7d01b50e0d17dc79c8",
        "to": "0x40f26937cfa04d9667c15c811b8fcb1ccb359846",
        "value": "0x0",
        "input": "0x1e2817de0000000000000000000000009ed4f4724b521326a9d9d2420252440bd05556c4000000000000000000000000d1620dac6d79be34f8500756b47cf91b1fa5cc8c00000000000000000000000000000000000000000000000000000000000001f400000000000000000000000000000000000000000000000000000000000000050000000000000000000000007e0c07eeabb2459d70dba5b8d100dca44c652ac00000000000000000000000000000000000000000000000000000000000000000000000000000000000000000000000000000000000000000000000002ba7f80a000000000000000000000000fffd8963efd1fc6a506488495d951d5263988d25",
        "nonce": "0xfd0",
        "chainId": "0x1"
      },
      "additionalContracts": [],
      "isFixedGasLimit": false
    },
    {
      "hash": null,
      "transactionType": "CALL",
      "contractName": "ChaosRouter",
      "contractAddress": "0x40f26937cfa04d9667c15c811b8fcb1ccb359846",
      "function": "swap((address,address,uint24,int24,address),(bool,int256,uint160))",
      "arguments": [
        "(0x9ed4F4724b521326a9d9d2420252440bD05556c4, 0xD1620Dac6d79BE34F8500756B47cf91B1fA5Cc8C, 500, 5, 0x7e0C07EEabb2459D70dba5b8d100Dca44c652aC0)",
        "(false, -970399349, 1461446703485210103287273052203988822378723970341)"
      ],
      "transaction": {
        "from": "0x70997970c51812dc3a010c7d01b50e0d17dc79c8",
        "to": "0x40f26937cfa04d9667c15c811b8fcb1ccb359846",
        "value": "0x0",
        "input": "0x1e2817de0000000000000000000000009ed4f4724b521326a9d9d2420252440bd05556c4000000000000000000000000d1620dac6d79be34f8500756b47cf91b1fa5cc8c00000000000000000000000000000000000000000000000000000000000001f400000000000000000000000000000000000000000000000000000000000000050000000000000000000000007e0c07eeabb2459d70dba5b8d100dca44c652ac00000000000000000000000000000000000000000000000000000000000000000ffffffffffffffffffffffffffffffffffffffffffffffffffffffffc628e18b000000000000000000000000fffd8963efd1fc6a506488495d951d5263988d25",
        "nonce": "0xfd1",
        "chainId": "0x1"
      },
      "additionalContracts": [],
      "isFixedGasLimit": false
    },
    {
      "hash": null,
      "transactionType": "CALL",
      "contractName": "ChaosRouter",
      "contractAddress": "0x40f26937cfa04d9667c15c811b8fcb1ccb359846",
      "function": "swap((address,address,uint24,int24,address),(bool,int256,uint160))",
      "arguments": [
        "(0x9ed4F4724b521326a9d9d2420252440bD05556c4, 0xD1620Dac6d79BE34F8500756B47cf91B1fA5Cc8C, 500, 5, 0x7e0C07EEabb2459D70dba5b8d100Dca44c652aC0)",
        "(true, -4562336780, 4295128740)"
      ],
      "transaction": {
        "from": "0x70997970c51812dc3a010c7d01b50e0d17dc79c8",
        "to": "0x40f26937cfa04d9667c15c811b8fcb1ccb359846",
        "value": "0x0",
        "input": "0x1e2817de0000000000000000000000009ed4f4724b521326a9d9d2420252440bd05556c4000000000000000000000000d1620dac6d79be34f8500756b47cf91b1fa5cc8c00000000000000000000000000000000000000000000000000000000000001f400000000000000000000000000000000000000000000000000000000000000050000000000000000000000007e0c07eeabb2459d70dba5b8d100dca44c652ac00000000000000000000000000000000000000000000000000000000000000001fffffffffffffffffffffffffffffffffffffffffffffffffffffffef01043f400000000000000000000000000000000000000000000000000000001000276a4",
        "nonce": "0xfd2",
        "chainId": "0x1"
      },
      "additionalContracts": [],
      "isFixedGasLimit": false
    },
    {
      "hash": null,
      "transactionType": "CALL",
      "contractName": "ChaosRouter",
      "contractAddress": "0x40f26937cfa04d9667c15c811b8fcb1ccb359846",
      "function": "swap((address,address,uint24,int24,address),(bool,int256,uint160))",
      "arguments": [
        "(0x9ed4F4724b521326a9d9d2420252440bD05556c4, 0xD1620Dac6d79BE34F8500756B47cf91B1fA5Cc8C, 500, 5, 0x7e0C07EEabb2459D70dba5b8d100Dca44c652aC0)",
        "(false, 611632458, 1461446703485210103287273052203988822378723970341)"
      ],
      "transaction": {
        "from": "0x70997970c51812dc3a010c7d01b50e0d17dc79c8",
        "to": "0x40f26937cfa04d9667c15c811b8fcb1ccb359846",
        "value": "0x0",
        "input": "0x1e2817de0000000000000000000000009ed4f4724b521326a9d9d2420252440bd05556c4000000000000000000000000d1620dac6d79be34f8500756b47cf91b1fa5cc8c00000000000000000000000000000000000000000000000000000000000001f400000000000000000000000000000000000000000000000000000000000000050000000000000000000000007e0c07eeabb2459d70dba5b8d100dca44c652ac00000000000000000000000000000000000000000000000000000000000000000000000000000000000000000000000000000000000000000000000002474c54a000000000000000000000000fffd8963efd1fc6a506488495d951d5263988d25",
        "nonce": "0xfd3",
        "chainId": "0x1"
      },
      "additionalContracts": [],
      "isFixedGasLimit": false
    },
    {
      "hash": null,
      "transactionType": "CALL",
      "contractName": "ChaosRouter",
      "contractAddress": "0x40f26937cfa04d9667c15c811b8fcb1ccb359846",
      "function": "swap((address,address,uint24,int24,address),(bool,int256,uint160))",
      "arguments": [
        "(0x9ed4F4724b521326a9d9d2420252440bD05556c4, 0xD1620Dac6d79BE34F8500756B47cf91B1fA5Cc8C, 500, 5, 0x7e0C07EEabb2459D70dba5b8d100Dca44c652aC0)",
        "(false, 3232920450, 1461446703485210103287273052203988822378723970341)"
      ],
      "transaction": {
        "from": "0x70997970c51812dc3a010c7d01b50e0d17dc79c8",
        "to": "0x40f26937cfa04d9667c15c811b8fcb1ccb359846",
        "value": "0x0",
        "input": "0x1e2817de0000000000000000000000009ed4f4724b521326a9d9d2420252440bd05556c4000000000000000000000000d1620dac6d79be34f8500756b47cf91b1fa5cc8c00000000000000000000000000000000000000000000000000000000000001f400000000000000000000000000000000000000000000000000000000000000050000000000000000000000007e0c07eeabb2459d70dba5b8d100dca44c652ac0000000000000000000000000000000000000000000000000000000000000000000000000000000000000000000000000000000000000000000000000c0b27382000000000000000000000000fffd8963efd1fc6a506488495d951d5263988d25",
        "nonce": "0xfd4",
        "chainId": "0x1"
      },
      "additionalContracts": [],
      "isFixedGasLimit": false
    },
    {
      "hash": null,
      "transactionType": "CALL",
      "contractName": "ChaosRouter",
      "contractAddress": "0x40f26937cfa04d9667c15c811b8fcb1ccb359846",
      "function": "swap((address,address,uint24,int24,address),(bool,int256,uint160))",
      "arguments": [
        "(0x9ed4F4724b521326a9d9d2420252440bD05556c4, 0xD1620Dac6d79BE34F8500756B47cf91B1fA5Cc8C, 500, 5, 0x7e0C07EEabb2459D70dba5b8d100Dca44c652aC0)",
        "(true, 383546350, 4295128740)"
      ],
      "transaction": {
        "from": "0x70997970c51812dc3a010c7d01b50e0d17dc79c8",
        "to": "0x40f26937cfa04d9667c15c811b8fcb1ccb359846",
        "value": "0x0",
        "input": "0x1e2817de0000000000000000000000009ed4f4724b521326a9d9d2420252440bd05556c4000000000000000000000000d1620dac6d79be34f8500756b47cf91b1fa5cc8c00000000000000000000000000000000000000000000000000000000000001f400000000000000000000000000000000000000000000000000000000000000050000000000000000000000007e0c07eeabb2459d70dba5b8d100dca44c652ac000000000000000000000000000000000000000000000000000000000000000010000000000000000000000000000000000000000000000000000000016dc73ee00000000000000000000000000000000000000000000000000000001000276a4",
        "nonce": "0xfd5",
        "chainId": "0x1"
      },
      "additionalContracts": [],
      "isFixedGasLimit": false
    },
    {
      "hash": null,
      "transactionType": "CALL",
      "contractName": "ChaosRouter",
      "contractAddress": "0x40f26937cfa04d9667c15c811b8fcb1ccb359846",
      "function": "swap((address,address,uint24,int24,address),(bool,int256,uint160))",
      "arguments": [
        "(0x9ed4F4724b521326a9d9d2420252440bD05556c4, 0xD1620Dac6d79BE34F8500756B47cf91B1fA5Cc8C, 500, 5, 0x7e0C07EEabb2459D70dba5b8d100Dca44c652aC0)",
        "(false, -3247716785, 1461446703485210103287273052203988822378723970341)"
      ],
      "transaction": {
        "from": "0x70997970c51812dc3a010c7d01b50e0d17dc79c8",
        "to": "0x40f26937cfa04d9667c15c811b8fcb1ccb359846",
        "value": "0x0",
        "input": "0x1e2817de0000000000000000000000009ed4f4724b521326a9d9d2420252440bd05556c4000000000000000000000000d1620dac6d79be34f8500756b47cf91b1fa5cc8c00000000000000000000000000000000000000000000000000000000000001f400000000000000000000000000000000000000000000000000000000000000050000000000000000000000007e0c07eeabb2459d70dba5b8d100dca44c652ac00000000000000000000000000000000000000000000000000000000000000000ffffffffffffffffffffffffffffffffffffffffffffffffffffffff3e6bc64f000000000000000000000000fffd8963efd1fc6a506488495d951d5263988d25",
        "nonce": "0xfd6",
        "chainId": "0x1"
      },
      "additionalContracts": [],
      "isFixedGasLimit": false
    },
    {
      "hash": null,
      "transactionType": "CALL",
      "contractName": "ChaosRouter",
      "contractAddress": "0x40f26937cfa04d9667c15c811b8fcb1ccb359846",
      "function": "swap((address,address,uint24,int24,address),(bool,int256,uint160))",
      "arguments": [
        "(0x9ed4F4724b521326a9d9d2420252440bD05556c4, 0xD1620Dac6d79BE34F8500756B47cf91B1fA5Cc8C, 500, 5, 0x7e0C07EEabb2459D70dba5b8d100Dca44c652aC0)",
        "(false, -860527909, 1461446703485210103287273052203988822378723970341)"
      ],
      "transaction": {
        "from": "0x70997970c51812dc3a010c7d01b50e0d17dc79c8",
        "to": "0x40f26937cfa04d9667c15c811b8fcb1ccb359846",
        "value": "0x0",
        "input": "0x1e2817de0000000000000000000000009ed4f4724b521326a9d9d2420252440bd05556c4000000000000000000000000d1620dac6d79be34f8500756b47cf91b1fa5cc8c00000000000000000000000000000000000000000000000000000000000001f400000000000000000000000000000000000000000000000000000000000000050000000000000000000000007e0c07eeabb2459d70dba5b8d100dca44c652ac00000000000000000000000000000000000000000000000000000000000000000ffffffffffffffffffffffffffffffffffffffffffffffffffffffffccb562db000000000000000000000000fffd8963efd1fc6a506488495d951d5263988d25",
        "nonce": "0xfd7",
        "chainId": "0x1"
      },
      "additionalContracts": [],
      "isFixedGasLimit": false
    },
    {
      "hash": null,
      "transactionType": "CALL",
      "contractName": "ChaosRouter",
      "contractAddress": "0x40f26937cfa04d9667c15c811b8fcb1ccb359846",
      "function": "swap((address,address,uint24,int24,address),(bool,int256,uint160))",
      "arguments": [
        "(0x9ed4F4724b521326a9d9d2420252440bD05556c4, 0xD1620Dac6d79BE34F8500756B47cf91B1fA5Cc8C, 500, 5, 0x7e0C07EEabb2459D70dba5b8d100Dca44c652aC0)",
        "(false, -489498983, 1461446703485210103287273052203988822378723970341)"
      ],
      "transaction": {
        "from": "0x70997970c51812dc3a010c7d01b50e0d17dc79c8",
        "to": "0x40f26937cfa04d9667c15c811b8fcb1ccb359846",
        "value": "0x0",
        "input": "0x1e2817de0000000000000000000000009ed4f4724b521326a9d9d2420252440bd05556c4000000000000000000000000d1620dac6d79be34f8500756b47cf91b1fa5cc8c00000000000000000000000000000000000000000000000000000000000001f400000000000000000000000000000000000000000000000000000000000000050000000000000000000000007e0c07eeabb2459d70dba5b8d100dca44c652ac00000000000000000000000000000000000000000000000000000000000000000ffffffffffffffffffffffffffffffffffffffffffffffffffffffffe2d2d699000000000000000000000000fffd8963efd1fc6a506488495d951d5263988d25",
        "nonce": "0xfd8",
        "chainId": "0x1"
      },
      "additionalContracts": [],
      "isFixedGasLimit": false
    },
    {
      "hash": null,
      "transactionType": "CALL",
      "contractName": "ChaosRouter",
      "contractAddress": "0x40f26937cfa04d9667c15c811b8fcb1ccb359846",
      "function": "swap((address,address,uint24,int24,address),(bool,int256,uint160))",
      "arguments": [
        "(0x9ed4F4724b521326a9d9d2420252440bD05556c4, 0xD1620Dac6d79BE34F8500756B47cf91B1fA5Cc8C, 500, 5, 0x7e0C07EEabb2459D70dba5b8d100Dca44c652aC0)",
        "(false, -406710490, 1461446703485210103287273052203988822378723970341)"
      ],
      "transaction": {
        "from": "0x70997970c51812dc3a010c7d01b50e0d17dc79c8",
        "to": "0x40f26937cfa04d9667c15c811b8fcb1ccb359846",
        "value": "0x0",
        "input": "0x1e2817de0000000000000000000000009ed4f4724b521326a9d9d2420252440bd05556c4000000000000000000000000d1620dac6d79be34f8500756b47cf91b1fa5cc8c00000000000000000000000000000000000000000000000000000000000001f400000000000000000000000000000000000000000000000000000000000000050000000000000000000000007e0c07eeabb2459d70dba5b8d100dca44c652ac00000000000000000000000000000000000000000000000000000000000000000ffffffffffffffffffffffffffffffffffffffffffffffffffffffffe7c21726000000000000000000000000fffd8963efd1fc6a506488495d951d5263988d25",
        "nonce": "0xfd9",
        "chainId": "0x1"
      },
      "additionalContracts": [],
      "isFixedGasLimit": false
    },
    {
      "hash": null,
      "transactionType": "CALL",
      "contractName": "ChaosRouter",
      "contractAddress": "0x40f26937cfa04d9667c15c811b8fcb1ccb359846",
      "function": "swap((address,address,uint24,int24,address),(bool,int256,uint160))",
      "arguments": [
        "(0x9ed4F4724b521326a9d9d2420252440bD05556c4, 0xD1620Dac6d79BE34F8500756B47cf91B1fA5Cc8C, 500, 5, 0x7e0C07EEabb2459D70dba5b8d100Dca44c652aC0)",
        "(true, -559323591, 4295128740)"
      ],
      "transaction": {
        "from": "0x70997970c51812dc3a010c7d01b50e0d17dc79c8",
        "to": "0x40f26937cfa04d9667c15c811b8fcb1ccb359846",
        "value": "0x0",
        "input": "0x1e2817de0000000000000000000000009ed4f4724b521326a9d9d2420252440bd05556c4000000000000000000000000d1620dac6d79be34f8500756b47cf91b1fa5cc8c00000000000000000000000000000000000000000000000000000000000001f400000000000000000000000000000000000000000000000000000000000000050000000000000000000000007e0c07eeabb2459d70dba5b8d100dca44c652ac00000000000000000000000000000000000000000000000000000000000000001ffffffffffffffffffffffffffffffffffffffffffffffffffffffffdea9663900000000000000000000000000000000000000000000000000000001000276a4",
        "nonce": "0xfda",
        "chainId": "0x1"
      },
      "additionalContracts": [],
      "isFixedGasLimit": false
    },
    {
      "hash": null,
      "transactionType": "CALL",
      "contractName": "ChaosRouter",
      "contractAddress": "0x40f26937cfa04d9667c15c811b8fcb1ccb359846",
      "function": "swap((address,address,uint24,int24,address),(bool,int256,uint160))",
      "arguments": [
        "(0x9ed4F4724b521326a9d9d2420252440bD05556c4, 0xD1620Dac6d79BE34F8500756B47cf91B1fA5Cc8C, 500, 5, 0x7e0C07EEabb2459D70dba5b8d100Dca44c652aC0)",
        "(true, 617436426, 4295128740)"
      ],
      "transaction": {
        "from": "0x70997970c51812dc3a010c7d01b50e0d17dc79c8",
        "to": "0x40f26937cfa04d9667c15c811b8fcb1ccb359846",
        "value": "0x0",
        "input": "0x1e2817de0000000000000000000000009ed4f4724b521326a9d9d2420252440bd05556c4000000000000000000000000d1620dac6d79be34f8500756b47cf91b1fa5cc8c00000000000000000000000000000000000000000000000000000000000001f400000000000000000000000000000000000000000000000000000000000000050000000000000000000000007e0c07eeabb2459d70dba5b8d100dca44c652ac000000000000000000000000000000000000000000000000000000000000000010000000000000000000000000000000000000000000000000000000024cd550a00000000000000000000000000000000000000000000000000000001000276a4",
        "nonce": "0xfdb",
        "chainId": "0x1"
      },
      "additionalContracts": [],
      "isFixedGasLimit": false
    },
    {
      "hash": null,
      "transactionType": "CALL",
      "contractName": "ChaosRouter",
      "contractAddress": "0x40f26937cfa04d9667c15c811b8fcb1ccb359846",
      "function": "swap((address,address,uint24,int24,address),(bool,int256,uint160))",
      "arguments": [
        "(0x9ed4F4724b521326a9d9d2420252440bD05556c4, 0xD1620Dac6d79BE34F8500756B47cf91B1fA5Cc8C, 500, 5, 0x7e0C07EEabb2459D70dba5b8d100Dca44c652aC0)",
        "(false, 25049218, 1461446703485210103287273052203988822378723970341)"
      ],
      "transaction": {
        "from": "0x70997970c51812dc3a010c7d01b50e0d17dc79c8",
        "to": "0x40f26937cfa04d9667c15c811b8fcb1ccb359846",
        "value": "0x0",
        "input": "0x1e2817de0000000000000000000000009ed4f4724b521326a9d9d2420252440bd05556c4000000000000000000000000d1620dac6d79be34f8500756b47cf91b1fa5cc8c00000000000000000000000000000000000000000000000000000000000001f400000000000000000000000000000000000000000000000000000000000000050000000000000000000000007e0c07eeabb2459d70dba5b8d100dca44c652ac0000000000000000000000000000000000000000000000000000000000000000000000000000000000000000000000000000000000000000000000000017e3882000000000000000000000000fffd8963efd1fc6a506488495d951d5263988d25",
        "nonce": "0xfdc",
        "chainId": "0x1"
      },
      "additionalContracts": [],
      "isFixedGasLimit": false
    },
    {
      "hash": null,
      "transactionType": "CALL",
      "contractName": "ChaosRouter",
      "contractAddress": "0x40f26937cfa04d9667c15c811b8fcb1ccb359846",
      "function": "swap((address,address,uint24,int24,address),(bool,int256,uint160))",
      "arguments": [
        "(0x9ed4F4724b521326a9d9d2420252440bD05556c4, 0xD1620Dac6d79BE34F8500756B47cf91B1fA5Cc8C, 500, 5, 0x7e0C07EEabb2459D70dba5b8d100Dca44c652aC0)",
        "(false, 19002357, 1461446703485210103287273052203988822378723970341)"
      ],
      "transaction": {
        "from": "0x70997970c51812dc3a010c7d01b50e0d17dc79c8",
        "to": "0x40f26937cfa04d9667c15c811b8fcb1ccb359846",
        "value": "0x0",
        "input": "0x1e2817de0000000000000000000000009ed4f4724b521326a9d9d2420252440bd05556c4000000000000000000000000d1620dac6d79be34f8500756b47cf91b1fa5cc8c00000000000000000000000000000000000000000000000000000000000001f400000000000000000000000000000000000000000000000000000000000000050000000000000000000000007e0c07eeabb2459d70dba5b8d100dca44c652ac00000000000000000000000000000000000000000000000000000000000000000000000000000000000000000000000000000000000000000000000000121f3f5000000000000000000000000fffd8963efd1fc6a506488495d951d5263988d25",
        "nonce": "0xfdd",
        "chainId": "0x1"
      },
      "additionalContracts": [],
      "isFixedGasLimit": false
    },
    {
      "hash": null,
      "transactionType": "CALL",
      "contractName": "ChaosRouter",
      "contractAddress": "0x40f26937cfa04d9667c15c811b8fcb1ccb359846",
      "function": "swap((address,address,uint24,int24,address),(bool,int256,uint160))",
      "arguments": [
        "(0x9ed4F4724b521326a9d9d2420252440bD05556c4, 0xD1620Dac6d79BE34F8500756B47cf91B1fA5Cc8C, 500, 5, 0x7e0C07EEabb2459D70dba5b8d100Dca44c652aC0)",
        "(false, -392126127, 1461446703485210103287273052203988822378723970341)"
      ],
      "transaction": {
        "from": "0x70997970c51812dc3a010c7d01b50e0d17dc79c8",
        "to": "0x40f26937cfa04d9667c15c811b8fcb1ccb359846",
        "value": "0x0",
        "input": "0x1e2817de0000000000000000000000009ed4f4724b521326a9d9d2420252440bd05556c4000000000000000000000000d1620dac6d79be34f8500756b47cf91b1fa5cc8c00000000000000000000000000000000000000000000000000000000000001f400000000000000000000000000000000000000000000000000000000000000050000000000000000000000007e0c07eeabb2459d70dba5b8d100dca44c652ac00000000000000000000000000000000000000000000000000000000000000000ffffffffffffffffffffffffffffffffffffffffffffffffffffffffe8a0a151000000000000000000000000fffd8963efd1fc6a506488495d951d5263988d25",
        "nonce": "0xfde",
        "chainId": "0x1"
      },
      "additionalContracts": [],
      "isFixedGasLimit": false
    },
    {
      "hash": null,
      "transactionType": "CALL",
      "contractName": "ChaosRouter",
      "contractAddress": "0x40f26937cfa04d9667c15c811b8fcb1ccb359846",
      "function": "swap((address,address,uint24,int24,address),(bool,int256,uint160))",
      "arguments": [
        "(0x9ed4F4724b521326a9d9d2420252440bD05556c4, 0xD1620Dac6d79BE34F8500756B47cf91B1fA5Cc8C, 500, 5, 0x7e0C07EEabb2459D70dba5b8d100Dca44c652aC0)",
        "(true, 268933016, 4295128740)"
      ],
      "transaction": {
        "from": "0x70997970c51812dc3a010c7d01b50e0d17dc79c8",
        "to": "0x40f26937cfa04d9667c15c811b8fcb1ccb359846",
        "value": "0x0",
        "input": "0x1e2817de0000000000000000000000009ed4f4724b521326a9d9d2420252440bd05556c4000000000000000000000000d1620dac6d79be34f8500756b47cf91b1fa5cc8c00000000000000000000000000000000000000000000000000000000000001f400000000000000000000000000000000000000000000000000000000000000050000000000000000000000007e0c07eeabb2459d70dba5b8d100dca44c652ac00000000000000000000000000000000000000000000000000000000000000001000000000000000000000000000000000000000000000000000000001007979800000000000000000000000000000000000000000000000000000001000276a4",
        "nonce": "0xfdf",
        "chainId": "0x1"
      },
      "additionalContracts": [],
      "isFixedGasLimit": false
    },
    {
      "hash": null,
      "transactionType": "CALL",
      "contractName": "ChaosRouter",
      "contractAddress": "0x40f26937cfa04d9667c15c811b8fcb1ccb359846",
      "function": "swap((address,address,uint24,int24,address),(bool,int256,uint160))",
      "arguments": [
        "(0x9ed4F4724b521326a9d9d2420252440bD05556c4, 0xD1620Dac6d79BE34F8500756B47cf91B1fA5Cc8C, 500, 5, 0x7e0C07EEabb2459D70dba5b8d100Dca44c652aC0)",
        "(false, 400697996, 1461446703485210103287273052203988822378723970341)"
      ],
      "transaction": {
        "from": "0x70997970c51812dc3a010c7d01b50e0d17dc79c8",
        "to": "0x40f26937cfa04d9667c15c811b8fcb1ccb359846",
        "value": "0x0",
        "input": "0x1e2817de0000000000000000000000009ed4f4724b521326a9d9d2420252440bd05556c4000000000000000000000000d1620dac6d79be34f8500756b47cf91b1fa5cc8c00000000000000000000000000000000000000000000000000000000000001f400000000000000000000000000000000000000000000000000000000000000050000000000000000000000007e0c07eeabb2459d70dba5b8d100dca44c652ac000000000000000000000000000000000000000000000000000000000000000000000000000000000000000000000000000000000000000000000000017e22a8c000000000000000000000000fffd8963efd1fc6a506488495d951d5263988d25",
        "nonce": "0xfe0",
        "chainId": "0x1"
      },
      "additionalContracts": [],
      "isFixedGasLimit": false
    },
    {
      "hash": null,
      "transactionType": "CALL",
      "contractName": "ChaosRouter",
      "contractAddress": "0x40f26937cfa04d9667c15c811b8fcb1ccb359846",
      "function": "swap((address,address,uint24,int24,address),(bool,int256,uint160))",
      "arguments": [
        "(0x9ed4F4724b521326a9d9d2420252440bD05556c4, 0xD1620Dac6d79BE34F8500756B47cf91B1fA5Cc8C, 500, 5, 0x7e0C07EEabb2459D70dba5b8d100Dca44c652aC0)",
        "(false, 139443676, 1461446703485210103287273052203988822378723970341)"
      ],
      "transaction": {
        "from": "0x70997970c51812dc3a010c7d01b50e0d17dc79c8",
        "to": "0x40f26937cfa04d9667c15c811b8fcb1ccb359846",
        "value": "0x0",
        "input": "0x1e2817de0000000000000000000000009ed4f4724b521326a9d9d2420252440bd05556c4000000000000000000000000d1620dac6d79be34f8500756b47cf91b1fa5cc8c00000000000000000000000000000000000000000000000000000000000001f400000000000000000000000000000000000000000000000000000000000000050000000000000000000000007e0c07eeabb2459d70dba5b8d100dca44c652ac0000000000000000000000000000000000000000000000000000000000000000000000000000000000000000000000000000000000000000000000000084fbddc000000000000000000000000fffd8963efd1fc6a506488495d951d5263988d25",
        "nonce": "0xfe1",
        "chainId": "0x1"
      },
      "additionalContracts": [],
      "isFixedGasLimit": false
    },
    {
      "hash": null,
      "transactionType": "CALL",
      "contractName": "ChaosRouter",
      "contractAddress": "0x40f26937cfa04d9667c15c811b8fcb1ccb359846",
      "function": "swap((address,address,uint24,int24,address),(bool,int256,uint160))",
      "arguments": [
        "(0x9ed4F4724b521326a9d9d2420252440bD05556c4, 0xD1620Dac6d79BE34F8500756B47cf91B1fA5Cc8C, 500, 5, 0x7e0C07EEabb2459D70dba5b8d100Dca44c652aC0)",
        "(true, -195467524, 4295128740)"
      ],
      "transaction": {
        "from": "0x70997970c51812dc3a010c7d01b50e0d17dc79c8",
        "to": "0x40f26937cfa04d9667c15c811b8fcb1ccb359846",
        "value": "0x0",
        "input": "0x1e2817de0000000000000000000000009ed4f4724b521326a9d9d2420252440bd05556c4000000000000000000000000d1620dac6d79be34f8500756b47cf91b1fa5cc8c00000000000000000000000000000000000000000000000000000000000001f400000000000000000000000000000000000000000000000000000000000000050000000000000000000000007e0c07eeabb2459d70dba5b8d100dca44c652ac00000000000000000000000000000000000000000000000000000000000000001fffffffffffffffffffffffffffffffffffffffffffffffffffffffff45966fc00000000000000000000000000000000000000000000000000000001000276a4",
        "nonce": "0xfe2",
        "chainId": "0x1"
      },
      "additionalContracts": [],
      "isFixedGasLimit": false
    },
    {
      "hash": null,
      "transactionType": "CALL",
      "contractName": "ChaosRouter",
      "contractAddress": "0x40f26937cfa04d9667c15c811b8fcb1ccb359846",
      "function": "swap((address,address,uint24,int24,address),(bool,int256,uint160))",
      "arguments": [
        "(0x9ed4F4724b521326a9d9d2420252440bD05556c4, 0xD1620Dac6d79BE34F8500756B47cf91B1fA5Cc8C, 500, 5, 0x7e0C07EEabb2459D70dba5b8d100Dca44c652aC0)",
        "(false, -574540503, 1461446703485210103287273052203988822378723970341)"
      ],
      "transaction": {
        "from": "0x70997970c51812dc3a010c7d01b50e0d17dc79c8",
        "to": "0x40f26937cfa04d9667c15c811b8fcb1ccb359846",
        "value": "0x0",
        "input": "0x1e2817de0000000000000000000000009ed4f4724b521326a9d9d2420252440bd05556c4000000000000000000000000d1620dac6d79be34f8500756b47cf91b1fa5cc8c00000000000000000000000000000000000000000000000000000000000001f400000000000000000000000000000000000000000000000000000000000000050000000000000000000000007e0c07eeabb2459d70dba5b8d100dca44c652ac00000000000000000000000000000000000000000000000000000000000000000ffffffffffffffffffffffffffffffffffffffffffffffffffffffffddc13529000000000000000000000000fffd8963efd1fc6a506488495d951d5263988d25",
        "nonce": "0xfe3",
        "chainId": "0x1"
      },
      "additionalContracts": [],
      "isFixedGasLimit": false
    },
    {
      "hash": null,
      "transactionType": "CALL",
      "contractName": "ChaosRouter",
      "contractAddress": "0x40f26937cfa04d9667c15c811b8fcb1ccb359846",
      "function": "swap((address,address,uint24,int24,address),(bool,int256,uint160))",
      "arguments": [
        "(0x9ed4F4724b521326a9d9d2420252440bD05556c4, 0xD1620Dac6d79BE34F8500756B47cf91B1fA5Cc8C, 500, 5, 0x7e0C07EEabb2459D70dba5b8d100Dca44c652aC0)",
        "(true, 966238350, 4295128740)"
      ],
      "transaction": {
        "from": "0x70997970c51812dc3a010c7d01b50e0d17dc79c8",
        "to": "0x40f26937cfa04d9667c15c811b8fcb1ccb359846",
        "value": "0x0",
        "input": "0x1e2817de0000000000000000000000009ed4f4724b521326a9d9d2420252440bd05556c4000000000000000000000000d1620dac6d79be34f8500756b47cf91b1fa5cc8c00000000000000000000000000000000000000000000000000000000000001f400000000000000000000000000000000000000000000000000000000000000050000000000000000000000007e0c07eeabb2459d70dba5b8d100dca44c652ac00000000000000000000000000000000000000000000000000000000000000001000000000000000000000000000000000000000000000000000000003997a08e00000000000000000000000000000000000000000000000000000001000276a4",
        "nonce": "0xfe4",
        "chainId": "0x1"
      },
      "additionalContracts": [],
      "isFixedGasLimit": false
    },
    {
      "hash": null,
      "transactionType": "CALL",
      "contractName": "ChaosRouter",
      "contractAddress": "0x40f26937cfa04d9667c15c811b8fcb1ccb359846",
      "function": "swap((address,address,uint24,int24,address),(bool,int256,uint160))",
      "arguments": [
        "(0x9ed4F4724b521326a9d9d2420252440bD05556c4, 0xD1620Dac6d79BE34F8500756B47cf91B1fA5Cc8C, 500, 5, 0x7e0C07EEabb2459D70dba5b8d100Dca44c652aC0)",
        "(false, 1000000, 1461446703485210103287273052203988822378723970341)"
      ],
      "transaction": {
        "from": "0x70997970c51812dc3a010c7d01b50e0d17dc79c8",
        "to": "0x40f26937cfa04d9667c15c811b8fcb1ccb359846",
        "value": "0x0",
        "input": "0x1e2817de0000000000000000000000009ed4f4724b521326a9d9d2420252440bd05556c4000000000000000000000000d1620dac6d79be34f8500756b47cf91b1fa5cc8c00000000000000000000000000000000000000000000000000000000000001f400000000000000000000000000000000000000000000000000000000000000050000000000000000000000007e0c07eeabb2459d70dba5b8d100dca44c652ac0000000000000000000000000000000000000000000000000000000000000000000000000000000000000000000000000000000000000000000000000000f4240000000000000000000000000fffd8963efd1fc6a506488495d951d5263988d25",
        "nonce": "0xfe5",
        "chainId": "0x1"
      },
      "additionalContracts": [],
      "isFixedGasLimit": false
    },
    {
      "hash": null,
      "transactionType": "CALL",
      "contractName": "ChaosRouter",
      "contractAddress": "0x40f26937cfa04d9667c15c811b8fcb1ccb359846",
      "function": "swap((address,address,uint24,int24,address),(bool,int256,uint160))",
      "arguments": [
        "(0x9ed4F4724b521326a9d9d2420252440bD05556c4, 0xD1620Dac6d79BE34F8500756B47cf91B1fA5Cc8C, 500, 5, 0x7e0C07EEabb2459D70dba5b8d100Dca44c652aC0)",
        "(false, -755282603, 1461446703485210103287273052203988822378723970341)"
      ],
      "transaction": {
        "from": "0x70997970c51812dc3a010c7d01b50e0d17dc79c8",
        "to": "0x40f26937cfa04d9667c15c811b8fcb1ccb359846",
        "value": "0x0",
        "input": "0x1e2817de0000000000000000000000009ed4f4724b521326a9d9d2420252440bd05556c4000000000000000000000000d1620dac6d79be34f8500756b47cf91b1fa5cc8c00000000000000000000000000000000000000000000000000000000000001f400000000000000000000000000000000000000000000000000000000000000050000000000000000000000007e0c07eeabb2459d70dba5b8d100dca44c652ac00000000000000000000000000000000000000000000000000000000000000000ffffffffffffffffffffffffffffffffffffffffffffffffffffffffd2fb4d55000000000000000000000000fffd8963efd1fc6a506488495d951d5263988d25",
        "nonce": "0xfe6",
        "chainId": "0x1"
      },
      "additionalContracts": [],
      "isFixedGasLimit": false
    },
    {
      "hash": null,
      "transactionType": "CALL",
      "contractName": "ChaosRouter",
      "contractAddress": "0x40f26937cfa04d9667c15c811b8fcb1ccb359846",
      "function": "swap((address,address,uint24,int24,address),(bool,int256,uint160))",
      "arguments": [
        "(0x9ed4F4724b521326a9d9d2420252440bD05556c4, 0xD1620Dac6d79BE34F8500756B47cf91B1fA5Cc8C, 500, 5, 0x7e0C07EEabb2459D70dba5b8d100Dca44c652aC0)",
        "(true, 648726199, 4295128740)"
      ],
      "transaction": {
        "from": "0x70997970c51812dc3a010c7d01b50e0d17dc79c8",
        "to": "0x40f26937cfa04d9667c15c811b8fcb1ccb359846",
        "value": "0x0",
        "input": "0x1e2817de0000000000000000000000009ed4f4724b521326a9d9d2420252440bd05556c4000000000000000000000000d1620dac6d79be34f8500756b47cf91b1fa5cc8c00000000000000000000000000000000000000000000000000000000000001f400000000000000000000000000000000000000000000000000000000000000050000000000000000000000007e0c07eeabb2459d70dba5b8d100dca44c652ac000000000000000000000000000000000000000000000000000000000000000010000000000000000000000000000000000000000000000000000000026aac6b700000000000000000000000000000000000000000000000000000001000276a4",
        "nonce": "0xfe7",
        "chainId": "0x1"
      },
      "additionalContracts": [],
      "isFixedGasLimit": false
    },
    {
      "hash": null,
      "transactionType": "CALL",
      "contractName": "ChaosRouter",
      "contractAddress": "0x40f26937cfa04d9667c15c811b8fcb1ccb359846",
      "function": "swap((address,address,uint24,int24,address),(bool,int256,uint160))",
      "arguments": [
        "(0x9ed4F4724b521326a9d9d2420252440bD05556c4, 0xD1620Dac6d79BE34F8500756B47cf91B1fA5Cc8C, 500, 5, 0x7e0C07EEabb2459D70dba5b8d100Dca44c652aC0)",
        "(false, -52321027, 1461446703485210103287273052203988822378723970341)"
      ],
      "transaction": {
        "from": "0x70997970c51812dc3a010c7d01b50e0d17dc79c8",
        "to": "0x40f26937cfa04d9667c15c811b8fcb1ccb359846",
        "value": "0x0",
        "input": "0x1e2817de0000000000000000000000009ed4f4724b521326a9d9d2420252440bd05556c4000000000000000000000000d1620dac6d79be34f8500756b47cf91b1fa5cc8c00000000000000000000000000000000000000000000000000000000000001f400000000000000000000000000000000000000000000000000000000000000050000000000000000000000007e0c07eeabb2459d70dba5b8d100dca44c652ac00000000000000000000000000000000000000000000000000000000000000000fffffffffffffffffffffffffffffffffffffffffffffffffffffffffce1a4fd000000000000000000000000fffd8963efd1fc6a506488495d951d5263988d25",
        "nonce": "0xfe8",
        "chainId": "0x1"
      },
      "additionalContracts": [],
      "isFixedGasLimit": false
    },
    {
      "hash": null,
      "transactionType": "CALL",
      "contractName": "ChaosRouter",
      "contractAddress": "0x40f26937cfa04d9667c15c811b8fcb1ccb359846",
      "function": "swap((address,address,uint24,int24,address),(bool,int256,uint160))",
      "arguments": [
        "(0x9ed4F4724b521326a9d9d2420252440bD05556c4, 0xD1620Dac6d79BE34F8500756B47cf91B1fA5Cc8C, 500, 5, 0x7e0C07EEabb2459D70dba5b8d100Dca44c652aC0)",
        "(true, 461421870, 4295128740)"
      ],
      "transaction": {
        "from": "0x70997970c51812dc3a010c7d01b50e0d17dc79c8",
        "to": "0x40f26937cfa04d9667c15c811b8fcb1ccb359846",
        "value": "0x0",
        "input": "0x1e2817de0000000000000000000000009ed4f4724b521326a9d9d2420252440bd05556c4000000000000000000000000d1620dac6d79be34f8500756b47cf91b1fa5cc8c00000000000000000000000000000000000000000000000000000000000001f400000000000000000000000000000000000000000000000000000000000000050000000000000000000000007e0c07eeabb2459d70dba5b8d100dca44c652ac00000000000000000000000000000000000000000000000000000000000000001000000000000000000000000000000000000000000000000000000001b80bd2e00000000000000000000000000000000000000000000000000000001000276a4",
        "nonce": "0xfe9",
        "chainId": "0x1"
      },
      "additionalContracts": [],
      "isFixedGasLimit": false
    },
    {
      "hash": null,
      "transactionType": "CALL",
      "contractName": "ChaosRouter",
      "contractAddress": "0x40f26937cfa04d9667c15c811b8fcb1ccb359846",
      "function": "swap((address,address,uint24,int24,address),(bool,int256,uint160))",
      "arguments": [
        "(0x9ed4F4724b521326a9d9d2420252440bD05556c4, 0xD1620Dac6d79BE34F8500756B47cf91B1fA5Cc8C, 500, 5, 0x7e0C07EEabb2459D70dba5b8d100Dca44c652aC0)",
        "(true, -942480320, 4295128740)"
      ],
      "transaction": {
        "from": "0x70997970c51812dc3a010c7d01b50e0d17dc79c8",
        "to": "0x40f26937cfa04d9667c15c811b8fcb1ccb359846",
        "value": "0x0",
        "input": "0x1e2817de0000000000000000000000009ed4f4724b521326a9d9d2420252440bd05556c4000000000000000000000000d1620dac6d79be34f8500756b47cf91b1fa5cc8c00000000000000000000000000000000000000000000000000000000000001f400000000000000000000000000000000000000000000000000000000000000050000000000000000000000007e0c07eeabb2459d70dba5b8d100dca44c652ac00000000000000000000000000000000000000000000000000000000000000001ffffffffffffffffffffffffffffffffffffffffffffffffffffffffc7d2e44000000000000000000000000000000000000000000000000000000001000276a4",
        "nonce": "0xfea",
        "chainId": "0x1"
      },
      "additionalContracts": [],
      "isFixedGasLimit": false
    },
    {
      "hash": null,
      "transactionType": "CALL",
      "contractName": "ChaosRouter",
      "contractAddress": "0x40f26937cfa04d9667c15c811b8fcb1ccb359846",
      "function": "swap((address,address,uint24,int24,address),(bool,int256,uint160))",
      "arguments": [
        "(0x9ed4F4724b521326a9d9d2420252440bD05556c4, 0xD1620Dac6d79BE34F8500756B47cf91B1fA5Cc8C, 500, 5, 0x7e0C07EEabb2459D70dba5b8d100Dca44c652aC0)",
        "(true, 300726193, 4295128740)"
      ],
      "transaction": {
        "from": "0x70997970c51812dc3a010c7d01b50e0d17dc79c8",
        "to": "0x40f26937cfa04d9667c15c811b8fcb1ccb359846",
        "value": "0x0",
        "input": "0x1e2817de0000000000000000000000009ed4f4724b521326a9d9d2420252440bd05556c4000000000000000000000000d1620dac6d79be34f8500756b47cf91b1fa5cc8c00000000000000000000000000000000000000000000000000000000000001f400000000000000000000000000000000000000000000000000000000000000050000000000000000000000007e0c07eeabb2459d70dba5b8d100dca44c652ac000000000000000000000000000000000000000000000000000000000000000010000000000000000000000000000000000000000000000000000000011ecb7b100000000000000000000000000000000000000000000000000000001000276a4",
        "nonce": "0xfeb",
        "chainId": "0x1"
      },
      "additionalContracts": [],
      "isFixedGasLimit": false
    },
    {
      "hash": null,
      "transactionType": "CALL",
      "contractName": "ChaosRouter",
      "contractAddress": "0x40f26937cfa04d9667c15c811b8fcb1ccb359846",
      "function": "swap((address,address,uint24,int24,address),(bool,int256,uint160))",
      "arguments": [
        "(0x9ed4F4724b521326a9d9d2420252440bD05556c4, 0xD1620Dac6d79BE34F8500756B47cf91B1fA5Cc8C, 500, 5, 0x7e0C07EEabb2459D70dba5b8d100Dca44c652aC0)",
        "(true, 743006279, 4295128740)"
      ],
      "transaction": {
        "from": "0x70997970c51812dc3a010c7d01b50e0d17dc79c8",
        "to": "0x40f26937cfa04d9667c15c811b8fcb1ccb359846",
        "value": "0x0",
        "input": "0x1e2817de0000000000000000000000009ed4f4724b521326a9d9d2420252440bd05556c4000000000000000000000000d1620dac6d79be34f8500756b47cf91b1fa5cc8c00000000000000000000000000000000000000000000000000000000000001f400000000000000000000000000000000000000000000000000000000000000050000000000000000000000007e0c07eeabb2459d70dba5b8d100dca44c652ac00000000000000000000000000000000000000000000000000000000000000001000000000000000000000000000000000000000000000000000000002c49604700000000000000000000000000000000000000000000000000000001000276a4",
        "nonce": "0xfec",
        "chainId": "0x1"
      },
      "additionalContracts": [],
      "isFixedGasLimit": false
    },
    {
      "hash": null,
      "transactionType": "CALL",
      "contractName": "ChaosRouter",
      "contractAddress": "0x40f26937cfa04d9667c15c811b8fcb1ccb359846",
      "function": "swap((address,address,uint24,int24,address),(bool,int256,uint160))",
      "arguments": [
        "(0x9ed4F4724b521326a9d9d2420252440bD05556c4, 0xD1620Dac6d79BE34F8500756B47cf91B1fA5Cc8C, 500, 5, 0x7e0C07EEabb2459D70dba5b8d100Dca44c652aC0)",
        "(false, 388869532, 1461446703485210103287273052203988822378723970341)"
      ],
      "transaction": {
        "from": "0x70997970c51812dc3a010c7d01b50e0d17dc79c8",
        "to": "0x40f26937cfa04d9667c15c811b8fcb1ccb359846",
        "value": "0x0",
        "input": "0x1e2817de0000000000000000000000009ed4f4724b521326a9d9d2420252440bd05556c4000000000000000000000000d1620dac6d79be34f8500756b47cf91b1fa5cc8c00000000000000000000000000000000000000000000000000000000000001f400000000000000000000000000000000000000000000000000000000000000050000000000000000000000007e0c07eeabb2459d70dba5b8d100dca44c652ac0000000000000000000000000000000000000000000000000000000000000000000000000000000000000000000000000000000000000000000000000172dad9c000000000000000000000000fffd8963efd1fc6a506488495d951d5263988d25",
        "nonce": "0xfed",
        "chainId": "0x1"
      },
      "additionalContracts": [],
      "isFixedGasLimit": false
    },
    {
      "hash": null,
      "transactionType": "CALL",
      "contractName": "ChaosRouter",
      "contractAddress": "0x40f26937cfa04d9667c15c811b8fcb1ccb359846",
      "function": "swap((address,address,uint24,int24,address),(bool,int256,uint160))",
      "arguments": [
        "(0x9ed4F4724b521326a9d9d2420252440bD05556c4, 0xD1620Dac6d79BE34F8500756B47cf91B1fA5Cc8C, 500, 5, 0x7e0C07EEabb2459D70dba5b8d100Dca44c652aC0)",
        "(false, -422019231, 1461446703485210103287273052203988822378723970341)"
      ],
      "transaction": {
        "from": "0x70997970c51812dc3a010c7d01b50e0d17dc79c8",
        "to": "0x40f26937cfa04d9667c15c811b8fcb1ccb359846",
        "value": "0x0",
        "input": "0x1e2817de0000000000000000000000009ed4f4724b521326a9d9d2420252440bd05556c4000000000000000000000000d1620dac6d79be34f8500756b47cf91b1fa5cc8c00000000000000000000000000000000000000000000000000000000000001f400000000000000000000000000000000000000000000000000000000000000050000000000000000000000007e0c07eeabb2459d70dba5b8d100dca44c652ac00000000000000000000000000000000000000000000000000000000000000000ffffffffffffffffffffffffffffffffffffffffffffffffffffffffe6d87f61000000000000000000000000fffd8963efd1fc6a506488495d951d5263988d25",
        "nonce": "0xfee",
        "chainId": "0x1"
      },
      "additionalContracts": [],
      "isFixedGasLimit": false
    },
    {
      "hash": null,
      "transactionType": "CALL",
      "contractName": "ChaosRouter",
      "contractAddress": "0x40f26937cfa04d9667c15c811b8fcb1ccb359846",
      "function": "swap((address,address,uint24,int24,address),(bool,int256,uint160))",
      "arguments": [
        "(0x9ed4F4724b521326a9d9d2420252440bD05556c4, 0xD1620Dac6d79BE34F8500756B47cf91B1fA5Cc8C, 500, 5, 0x7e0C07EEabb2459D70dba5b8d100Dca44c652aC0)",
        "(false, -983257849, 1461446703485210103287273052203988822378723970341)"
      ],
      "transaction": {
        "from": "0x70997970c51812dc3a010c7d01b50e0d17dc79c8",
        "to": "0x40f26937cfa04d9667c15c811b8fcb1ccb359846",
        "value": "0x0",
        "input": "0x1e2817de0000000000000000000000009ed4f4724b521326a9d9d2420252440bd05556c4000000000000000000000000d1620dac6d79be34f8500756b47cf91b1fa5cc8c00000000000000000000000000000000000000000000000000000000000001f400000000000000000000000000000000000000000000000000000000000000050000000000000000000000007e0c07eeabb2459d70dba5b8d100dca44c652ac00000000000000000000000000000000000000000000000000000000000000000ffffffffffffffffffffffffffffffffffffffffffffffffffffffffc564ad07000000000000000000000000fffd8963efd1fc6a506488495d951d5263988d25",
        "nonce": "0xfef",
        "chainId": "0x1"
      },
      "additionalContracts": [],
      "isFixedGasLimit": false
    },
    {
      "hash": null,
      "transactionType": "CALL",
      "contractName": "ChaosRouter",
      "contractAddress": "0x40f26937cfa04d9667c15c811b8fcb1ccb359846",
      "function": "swap((address,address,uint24,int24,address),(bool,int256,uint160))",
      "arguments": [
        "(0x9ed4F4724b521326a9d9d2420252440bD05556c4, 0xD1620Dac6d79BE34F8500756B47cf91B1fA5Cc8C, 500, 5, 0x7e0C07EEabb2459D70dba5b8d100Dca44c652aC0)",
        "(true, 277325173, 4295128740)"
      ],
      "transaction": {
        "from": "0x70997970c51812dc3a010c7d01b50e0d17dc79c8",
        "to": "0x40f26937cfa04d9667c15c811b8fcb1ccb359846",
        "value": "0x0",
        "input": "0x1e2817de0000000000000000000000009ed4f4724b521326a9d9d2420252440bd05556c4000000000000000000000000d1620dac6d79be34f8500756b47cf91b1fa5cc8c00000000000000000000000000000000000000000000000000000000000001f400000000000000000000000000000000000000000000000000000000000000050000000000000000000000007e0c07eeabb2459d70dba5b8d100dca44c652ac00000000000000000000000000000000000000000000000000000000000000001000000000000000000000000000000000000000000000000000000001087a57500000000000000000000000000000000000000000000000000000001000276a4",
        "nonce": "0xff0",
        "chainId": "0x1"
      },
      "additionalContracts": [],
      "isFixedGasLimit": false
    },
    {
      "hash": null,
      "transactionType": "CALL",
      "contractName": "ChaosRouter",
      "contractAddress": "0x40f26937cfa04d9667c15c811b8fcb1ccb359846",
      "function": "swap((address,address,uint24,int24,address),(bool,int256,uint160))",
      "arguments": [
        "(0x9ed4F4724b521326a9d9d2420252440bD05556c4, 0xD1620Dac6d79BE34F8500756B47cf91B1fA5Cc8C, 500, 5, 0x7e0C07EEabb2459D70dba5b8d100Dca44c652aC0)",
        "(false, 789783392, 1461446703485210103287273052203988822378723970341)"
      ],
      "transaction": {
        "from": "0x70997970c51812dc3a010c7d01b50e0d17dc79c8",
        "to": "0x40f26937cfa04d9667c15c811b8fcb1ccb359846",
        "value": "0x0",
        "input": "0x1e2817de0000000000000000000000009ed4f4724b521326a9d9d2420252440bd05556c4000000000000000000000000d1620dac6d79be34f8500756b47cf91b1fa5cc8c00000000000000000000000000000000000000000000000000000000000001f400000000000000000000000000000000000000000000000000000000000000050000000000000000000000007e0c07eeabb2459d70dba5b8d100dca44c652ac00000000000000000000000000000000000000000000000000000000000000000000000000000000000000000000000000000000000000000000000002f132360000000000000000000000000fffd8963efd1fc6a506488495d951d5263988d25",
        "nonce": "0xff1",
        "chainId": "0x1"
      },
      "additionalContracts": [],
      "isFixedGasLimit": false
    },
    {
      "hash": null,
      "transactionType": "CALL",
      "contractName": "ChaosRouter",
      "contractAddress": "0x40f26937cfa04d9667c15c811b8fcb1ccb359846",
      "function": "swap((address,address,uint24,int24,address),(bool,int256,uint160))",
      "arguments": [
        "(0x9ed4F4724b521326a9d9d2420252440bD05556c4, 0xD1620Dac6d79BE34F8500756B47cf91B1fA5Cc8C, 500, 5, 0x7e0C07EEabb2459D70dba5b8d100Dca44c652aC0)",
        "(true, 708455431, 4295128740)"
      ],
      "transaction": {
        "from": "0x70997970c51812dc3a010c7d01b50e0d17dc79c8",
        "to": "0x40f26937cfa04d9667c15c811b8fcb1ccb359846",
        "value": "0x0",
        "input": "0x1e2817de0000000000000000000000009ed4f4724b521326a9d9d2420252440bd05556c4000000000000000000000000d1620dac6d79be34f8500756b47cf91b1fa5cc8c00000000000000000000000000000000000000000000000000000000000001f400000000000000000000000000000000000000000000000000000000000000050000000000000000000000007e0c07eeabb2459d70dba5b8d100dca44c652ac00000000000000000000000000000000000000000000000000000000000000001000000000000000000000000000000000000000000000000000000002a3a2c0700000000000000000000000000000000000000000000000000000001000276a4",
        "nonce": "0xff2",
        "chainId": "0x1"
      },
      "additionalContracts": [],
      "isFixedGasLimit": false
    },
    {
      "hash": null,
      "transactionType": "CALL",
      "contractName": "ChaosRouter",
      "contractAddress": "0x40f26937cfa04d9667c15c811b8fcb1ccb359846",
      "function": "swap((address,address,uint24,int24,address),(bool,int256,uint160))",
      "arguments": [
        "(0x9ed4F4724b521326a9d9d2420252440bD05556c4, 0xD1620Dac6d79BE34F8500756B47cf91B1fA5Cc8C, 500, 5, 0x7e0C07EEabb2459D70dba5b8d100Dca44c652aC0)",
        "(true, 586618753, 4295128740)"
      ],
      "transaction": {
        "from": "0x70997970c51812dc3a010c7d01b50e0d17dc79c8",
        "to": "0x40f26937cfa04d9667c15c811b8fcb1ccb359846",
        "value": "0x0",
        "input": "0x1e2817de0000000000000000000000009ed4f4724b521326a9d9d2420252440bd05556c4000000000000000000000000d1620dac6d79be34f8500756b47cf91b1fa5cc8c00000000000000000000000000000000000000000000000000000000000001f400000000000000000000000000000000000000000000000000000000000000050000000000000000000000007e0c07eeabb2459d70dba5b8d100dca44c652ac000000000000000000000000000000000000000000000000000000000000000010000000000000000000000000000000000000000000000000000000022f7178100000000000000000000000000000000000000000000000000000001000276a4",
        "nonce": "0xff3",
        "chainId": "0x1"
      },
      "additionalContracts": [],
      "isFixedGasLimit": false
    },
    {
      "hash": null,
      "transactionType": "CALL",
      "contractName": "ChaosRouter",
      "contractAddress": "0x40f26937cfa04d9667c15c811b8fcb1ccb359846",
      "function": "swap((address,address,uint24,int24,address),(bool,int256,uint160))",
      "arguments": [
        "(0x9ed4F4724b521326a9d9d2420252440bD05556c4, 0xD1620Dac6d79BE34F8500756B47cf91B1fA5Cc8C, 500, 5, 0x7e0C07EEabb2459D70dba5b8d100Dca44c652aC0)",
        "(true, -2929962280, 4295128740)"
      ],
      "transaction": {
        "from": "0x70997970c51812dc3a010c7d01b50e0d17dc79c8",
        "to": "0x40f26937cfa04d9667c15c811b8fcb1ccb359846",
        "value": "0x0",
        "input": "0x1e2817de0000000000000000000000009ed4f4724b521326a9d9d2420252440bd05556c4000000000000000000000000d1620dac6d79be34f8500756b47cf91b1fa5cc8c00000000000000000000000000000000000000000000000000000000000001f400000000000000000000000000000000000000000000000000000000000000050000000000000000000000007e0c07eeabb2459d70dba5b8d100dca44c652ac00000000000000000000000000000000000000000000000000000000000000001ffffffffffffffffffffffffffffffffffffffffffffffffffffffff515c52d800000000000000000000000000000000000000000000000000000001000276a4",
        "nonce": "0xff4",
        "chainId": "0x1"
      },
      "additionalContracts": [],
      "isFixedGasLimit": false
    },
    {
      "hash": null,
      "transactionType": "CALL",
      "contractName": "ChaosRouter",
      "contractAddress": "0x40f26937cfa04d9667c15c811b8fcb1ccb359846",
      "function": "swap((address,address,uint24,int24,address),(bool,int256,uint160))",
      "arguments": [
        "(0x9ed4F4724b521326a9d9d2420252440bD05556c4, 0xD1620Dac6d79BE34F8500756B47cf91B1fA5Cc8C, 500, 5, 0x7e0C07EEabb2459D70dba5b8d100Dca44c652aC0)",
        "(true, -82812220, 4295128740)"
      ],
      "transaction": {
        "from": "0x70997970c51812dc3a010c7d01b50e0d17dc79c8",
        "to": "0x40f26937cfa04d9667c15c811b8fcb1ccb359846",
        "value": "0x0",
        "input": "0x1e2817de0000000000000000000000009ed4f4724b521326a9d9d2420252440bd05556c4000000000000000000000000d1620dac6d79be34f8500756b47cf91b1fa5cc8c00000000000000000000000000000000000000000000000000000000000001f400000000000000000000000000000000000000000000000000000000000000050000000000000000000000007e0c07eeabb2459d70dba5b8d100dca44c652ac00000000000000000000000000000000000000000000000000000000000000001fffffffffffffffffffffffffffffffffffffffffffffffffffffffffb1062c400000000000000000000000000000000000000000000000000000001000276a4",
        "nonce": "0xff5",
        "chainId": "0x1"
      },
      "additionalContracts": [],
      "isFixedGasLimit": false
    },
    {
      "hash": null,
      "transactionType": "CALL",
      "contractName": "ChaosRouter",
      "contractAddress": "0x40f26937cfa04d9667c15c811b8fcb1ccb359846",
      "function": "swap((address,address,uint24,int24,address),(bool,int256,uint160))",
      "arguments": [
        "(0x9ed4F4724b521326a9d9d2420252440bD05556c4, 0xD1620Dac6d79BE34F8500756B47cf91B1fA5Cc8C, 500, 5, 0x7e0C07EEabb2459D70dba5b8d100Dca44c652aC0)",
        "(true, 915680028, 4295128740)"
      ],
      "transaction": {
        "from": "0x70997970c51812dc3a010c7d01b50e0d17dc79c8",
        "to": "0x40f26937cfa04d9667c15c811b8fcb1ccb359846",
        "value": "0x0",
        "input": "0x1e2817de0000000000000000000000009ed4f4724b521326a9d9d2420252440bd05556c4000000000000000000000000d1620dac6d79be34f8500756b47cf91b1fa5cc8c00000000000000000000000000000000000000000000000000000000000001f400000000000000000000000000000000000000000000000000000000000000050000000000000000000000007e0c07eeabb2459d70dba5b8d100dca44c652ac000000000000000000000000000000000000000000000000000000000000000010000000000000000000000000000000000000000000000000000000036942b1c00000000000000000000000000000000000000000000000000000001000276a4",
        "nonce": "0xff6",
        "chainId": "0x1"
      },
      "additionalContracts": [],
      "isFixedGasLimit": false
    },
    {
      "hash": null,
      "transactionType": "CALL",
      "contractName": "ChaosRouter",
      "contractAddress": "0x40f26937cfa04d9667c15c811b8fcb1ccb359846",
      "function": "swap((address,address,uint24,int24,address),(bool,int256,uint160))",
      "arguments": [
        "(0x9ed4F4724b521326a9d9d2420252440bD05556c4, 0xD1620Dac6d79BE34F8500756B47cf91B1fA5Cc8C, 500, 5, 0x7e0C07EEabb2459D70dba5b8d100Dca44c652aC0)",
        "(false, -707384363, 1461446703485210103287273052203988822378723970341)"
      ],
      "transaction": {
        "from": "0x70997970c51812dc3a010c7d01b50e0d17dc79c8",
        "to": "0x40f26937cfa04d9667c15c811b8fcb1ccb359846",
        "value": "0x0",
        "input": "0x1e2817de0000000000000000000000009ed4f4724b521326a9d9d2420252440bd05556c4000000000000000000000000d1620dac6d79be34f8500756b47cf91b1fa5cc8c00000000000000000000000000000000000000000000000000000000000001f400000000000000000000000000000000000000000000000000000000000000050000000000000000000000007e0c07eeabb2459d70dba5b8d100dca44c652ac00000000000000000000000000000000000000000000000000000000000000000ffffffffffffffffffffffffffffffffffffffffffffffffffffffffd5d62bd5000000000000000000000000fffd8963efd1fc6a506488495d951d5263988d25",
        "nonce": "0xff7",
        "chainId": "0x1"
      },
      "additionalContracts": [],
      "isFixedGasLimit": false
    },
    {
      "hash": null,
      "transactionType": "CALL",
      "contractName": "ChaosRouter",
      "contractAddress": "0x40f26937cfa04d9667c15c811b8fcb1ccb359846",
      "function": "swap((address,address,uint24,int24,address),(bool,int256,uint160))",
      "arguments": [
        "(0x9ed4F4724b521326a9d9d2420252440bD05556c4, 0xD1620Dac6d79BE34F8500756B47cf91B1fA5Cc8C, 500, 5, 0x7e0C07EEabb2459D70dba5b8d100Dca44c652aC0)",
        "(true, -857207814, 4295128740)"
      ],
      "transaction": {
        "from": "0x70997970c51812dc3a010c7d01b50e0d17dc79c8",
        "to": "0x40f26937cfa04d9667c15c811b8fcb1ccb359846",
        "value": "0x0",
        "input": "0x1e2817de0000000000000000000000009ed4f4724b521326a9d9d2420252440bd05556c4000000000000000000000000d1620dac6d79be34f8500756b47cf91b1fa5cc8c00000000000000000000000000000000000000000000000000000000000001f400000000000000000000000000000000000000000000000000000000000000050000000000000000000000007e0c07eeabb2459d70dba5b8d100dca44c652ac00000000000000000000000000000000000000000000000000000000000000001ffffffffffffffffffffffffffffffffffffffffffffffffffffffffcce80bfa00000000000000000000000000000000000000000000000000000001000276a4",
        "nonce": "0xff8",
        "chainId": "0x1"
      },
      "additionalContracts": [],
      "isFixedGasLimit": false
    },
    {
      "hash": null,
      "transactionType": "CALL",
      "contractName": "ChaosRouter",
      "contractAddress": "0x40f26937cfa04d9667c15c811b8fcb1ccb359846",
      "function": "swap((address,address,uint24,int24,address),(bool,int256,uint160))",
      "arguments": [
        "(0x9ed4F4724b521326a9d9d2420252440bD05556c4, 0xD1620Dac6d79BE34F8500756B47cf91B1fA5Cc8C, 500, 5, 0x7e0C07EEabb2459D70dba5b8d100Dca44c652aC0)",
        "(false, 855602343, 1461446703485210103287273052203988822378723970341)"
      ],
      "transaction": {
        "from": "0x70997970c51812dc3a010c7d01b50e0d17dc79c8",
        "to": "0x40f26937cfa04d9667c15c811b8fcb1ccb359846",
        "value": "0x0",
        "input": "0x1e2817de0000000000000000000000009ed4f4724b521326a9d9d2420252440bd05556c4000000000000000000000000d1620dac6d79be34f8500756b47cf91b1fa5cc8c00000000000000000000000000000000000000000000000000000000000001f400000000000000000000000000000000000000000000000000000000000000050000000000000000000000007e0c07eeabb2459d70dba5b8d100dca44c652ac000000000000000000000000000000000000000000000000000000000000000000000000000000000000000000000000000000000000000000000000032ff74a7000000000000000000000000fffd8963efd1fc6a506488495d951d5263988d25",
        "nonce": "0xff9",
        "chainId": "0x1"
      },
      "additionalContracts": [],
      "isFixedGasLimit": false
    },
    {
      "hash": null,
      "transactionType": "CALL",
      "contractName": "ChaosRouter",
      "contractAddress": "0x40f26937cfa04d9667c15c811b8fcb1ccb359846",
      "function": "swap((address,address,uint24,int24,address),(bool,int256,uint160))",
      "arguments": [
        "(0x9ed4F4724b521326a9d9d2420252440bD05556c4, 0xD1620Dac6d79BE34F8500756B47cf91B1fA5Cc8C, 500, 5, 0x7e0C07EEabb2459D70dba5b8d100Dca44c652aC0)",
        "(false, 531745667, 1461446703485210103287273052203988822378723970341)"
      ],
      "transaction": {
        "from": "0x70997970c51812dc3a010c7d01b50e0d17dc79c8",
        "to": "0x40f26937cfa04d9667c15c811b8fcb1ccb359846",
        "value": "0x0",
        "input": "0x1e2817de0000000000000000000000009ed4f4724b521326a9d9d2420252440bd05556c4000000000000000000000000d1620dac6d79be34f8500756b47cf91b1fa5cc8c00000000000000000000000000000000000000000000000000000000000001f400000000000000000000000000000000000000000000000000000000000000050000000000000000000000007e0c07eeabb2459d70dba5b8d100dca44c652ac00000000000000000000000000000000000000000000000000000000000000000000000000000000000000000000000000000000000000000000000001fb1cb83000000000000000000000000fffd8963efd1fc6a506488495d951d5263988d25",
        "nonce": "0xffa",
        "chainId": "0x1"
      },
      "additionalContracts": [],
      "isFixedGasLimit": false
    },
    {
      "hash": null,
      "transactionType": "CALL",
      "contractName": "ChaosRouter",
      "contractAddress": "0x40f26937cfa04d9667c15c811b8fcb1ccb359846",
      "function": "swap((address,address,uint24,int24,address),(bool,int256,uint160))",
      "arguments": [
        "(0x9ed4F4724b521326a9d9d2420252440bD05556c4, 0xD1620Dac6d79BE34F8500756B47cf91B1fA5Cc8C, 500, 5, 0x7e0C07EEabb2459D70dba5b8d100Dca44c652aC0)",
        "(false, 525275915, 1461446703485210103287273052203988822378723970341)"
      ],
      "transaction": {
        "from": "0x70997970c51812dc3a010c7d01b50e0d17dc79c8",
        "to": "0x40f26937cfa04d9667c15c811b8fcb1ccb359846",
        "value": "0x0",
        "input": "0x1e2817de0000000000000000000000009ed4f4724b521326a9d9d2420252440bd05556c4000000000000000000000000d1620dac6d79be34f8500756b47cf91b1fa5cc8c00000000000000000000000000000000000000000000000000000000000001f400000000000000000000000000000000000000000000000000000000000000050000000000000000000000007e0c07eeabb2459d70dba5b8d100dca44c652ac00000000000000000000000000000000000000000000000000000000000000000000000000000000000000000000000000000000000000000000000001f4f130b000000000000000000000000fffd8963efd1fc6a506488495d951d5263988d25",
        "nonce": "0xffb",
        "chainId": "0x1"
      },
      "additionalContracts": [],
      "isFixedGasLimit": false
    },
    {
      "hash": null,
      "transactionType": "CALL",
      "contractName": "ChaosRouter",
      "contractAddress": "0x40f26937cfa04d9667c15c811b8fcb1ccb359846",
      "function": "swap((address,address,uint24,int24,address),(bool,int256,uint160))",
      "arguments": [
        "(0x9ed4F4724b521326a9d9d2420252440bD05556c4, 0xD1620Dac6d79BE34F8500756B47cf91B1fA5Cc8C, 500, 5, 0x7e0C07EEabb2459D70dba5b8d100Dca44c652aC0)",
        "(false, 929551371, 1461446703485210103287273052203988822378723970341)"
      ],
      "transaction": {
        "from": "0x70997970c51812dc3a010c7d01b50e0d17dc79c8",
        "to": "0x40f26937cfa04d9667c15c811b8fcb1ccb359846",
        "value": "0x0",
        "input": "0x1e2817de0000000000000000000000009ed4f4724b521326a9d9d2420252440bd05556c4000000000000000000000000d1620dac6d79be34f8500756b47cf91b1fa5cc8c00000000000000000000000000000000000000000000000000000000000001f400000000000000000000000000000000000000000000000000000000000000050000000000000000000000007e0c07eeabb2459d70dba5b8d100dca44c652ac00000000000000000000000000000000000000000000000000000000000000000000000000000000000000000000000000000000000000000000000003767d40b000000000000000000000000fffd8963efd1fc6a506488495d951d5263988d25",
        "nonce": "0xffc",
        "chainId": "0x1"
      },
      "additionalContracts": [],
      "isFixedGasLimit": false
    },
    {
      "hash": null,
      "transactionType": "CALL",
      "contractName": "ChaosRouter",
      "contractAddress": "0x40f26937cfa04d9667c15c811b8fcb1ccb359846",
      "function": "swap((address,address,uint24,int24,address),(bool,int256,uint160))",
      "arguments": [
        "(0x9ed4F4724b521326a9d9d2420252440bD05556c4, 0xD1620Dac6d79BE34F8500756B47cf91B1fA5Cc8C, 500, 5, 0x7e0C07EEabb2459D70dba5b8d100Dca44c652aC0)",
        "(true, 750645141, 4295128740)"
      ],
      "transaction": {
        "from": "0x70997970c51812dc3a010c7d01b50e0d17dc79c8",
        "to": "0x40f26937cfa04d9667c15c811b8fcb1ccb359846",
        "value": "0x0",
        "input": "0x1e2817de0000000000000000000000009ed4f4724b521326a9d9d2420252440bd05556c4000000000000000000000000d1620dac6d79be34f8500756b47cf91b1fa5cc8c00000000000000000000000000000000000000000000000000000000000001f400000000000000000000000000000000000000000000000000000000000000050000000000000000000000007e0c07eeabb2459d70dba5b8d100dca44c652ac00000000000000000000000000000000000000000000000000000000000000001000000000000000000000000000000000000000000000000000000002cbdef9500000000000000000000000000000000000000000000000000000001000276a4",
        "nonce": "0xffd",
        "chainId": "0x1"
      },
      "additionalContracts": [],
      "isFixedGasLimit": false
    },
    {
      "hash": null,
      "transactionType": "CALL",
      "contractName": "ChaosRouter",
      "contractAddress": "0x40f26937cfa04d9667c15c811b8fcb1ccb359846",
      "function": "swap((address,address,uint24,int24,address),(bool,int256,uint160))",
      "arguments": [
        "(0x9ed4F4724b521326a9d9d2420252440bD05556c4, 0xD1620Dac6d79BE34F8500756B47cf91B1fA5Cc8C, 500, 5, 0x7e0C07EEabb2459D70dba5b8d100Dca44c652aC0)",
        "(false, -799452855, 1461446703485210103287273052203988822378723970341)"
      ],
      "transaction": {
        "from": "0x70997970c51812dc3a010c7d01b50e0d17dc79c8",
        "to": "0x40f26937cfa04d9667c15c811b8fcb1ccb359846",
        "value": "0x0",
        "input": "0x1e2817de0000000000000000000000009ed4f4724b521326a9d9d2420252440bd05556c4000000000000000000000000d1620dac6d79be34f8500756b47cf91b1fa5cc8c00000000000000000000000000000000000000000000000000000000000001f400000000000000000000000000000000000000000000000000000000000000050000000000000000000000007e0c07eeabb2459d70dba5b8d100dca44c652ac00000000000000000000000000000000000000000000000000000000000000000ffffffffffffffffffffffffffffffffffffffffffffffffffffffffd0595149000000000000000000000000fffd8963efd1fc6a506488495d951d5263988d25",
        "nonce": "0xffe",
        "chainId": "0x1"
      },
      "additionalContracts": [],
      "isFixedGasLimit": false
    },
    {
      "hash": null,
      "transactionType": "CALL",
      "contractName": "ChaosRouter",
      "contractAddress": "0x40f26937cfa04d9667c15c811b8fcb1ccb359846",
      "function": "swap((address,address,uint24,int24,address),(bool,int256,uint160))",
      "arguments": [
        "(0x9ed4F4724b521326a9d9d2420252440bD05556c4, 0xD1620Dac6d79BE34F8500756B47cf91B1fA5Cc8C, 500, 5, 0x7e0C07EEabb2459D70dba5b8d100Dca44c652aC0)",
        "(false, -399623128, 1461446703485210103287273052203988822378723970341)"
      ],
      "transaction": {
        "from": "0x70997970c51812dc3a010c7d01b50e0d17dc79c8",
        "to": "0x40f26937cfa04d9667c15c811b8fcb1ccb359846",
        "value": "0x0",
        "input": "0x1e2817de0000000000000000000000009ed4f4724b521326a9d9d2420252440bd05556c4000000000000000000000000d1620dac6d79be34f8500756b47cf91b1fa5cc8c00000000000000000000000000000000000000000000000000000000000001f400000000000000000000000000000000000000000000000000000000000000050000000000000000000000007e0c07eeabb2459d70dba5b8d100dca44c652ac00000000000000000000000000000000000000000000000000000000000000000ffffffffffffffffffffffffffffffffffffffffffffffffffffffffe82e3c28000000000000000000000000fffd8963efd1fc6a506488495d951d5263988d25",
        "nonce": "0xfff",
        "chainId": "0x1"
      },
      "additionalContracts": [],
      "isFixedGasLimit": false
    },
    {
      "hash": null,
      "transactionType": "CALL",
      "contractName": "ChaosRouter",
      "contractAddress": "0x40f26937cfa04d9667c15c811b8fcb1ccb359846",
      "function": "swap((address,address,uint24,int24,address),(bool,int256,uint160))",
      "arguments": [
        "(0x9ed4F4724b521326a9d9d2420252440bD05556c4, 0xD1620Dac6d79BE34F8500756B47cf91B1fA5Cc8C, 500, 5, 0x7e0C07EEabb2459D70dba5b8d100Dca44c652aC0)",
        "(false, -876476440, 1461446703485210103287273052203988822378723970341)"
      ],
      "transaction": {
        "from": "0x70997970c51812dc3a010c7d01b50e0d17dc79c8",
        "to": "0x40f26937cfa04d9667c15c811b8fcb1ccb359846",
        "value": "0x0",
        "input": "0x1e2817de0000000000000000000000009ed4f4724b521326a9d9d2420252440bd05556c4000000000000000000000000d1620dac6d79be34f8500756b47cf91b1fa5cc8c00000000000000000000000000000000000000000000000000000000000001f400000000000000000000000000000000000000000000000000000000000000050000000000000000000000007e0c07eeabb2459d70dba5b8d100dca44c652ac00000000000000000000000000000000000000000000000000000000000000000ffffffffffffffffffffffffffffffffffffffffffffffffffffffffcbc207e8000000000000000000000000fffd8963efd1fc6a506488495d951d5263988d25",
        "nonce": "0x1000",
        "chainId": "0x1"
      },
      "additionalContracts": [],
      "isFixedGasLimit": false
    },
    {
      "hash": null,
      "transactionType": "CALL",
      "contractName": "ChaosRouter",
      "contractAddress": "0x40f26937cfa04d9667c15c811b8fcb1ccb359846",
      "function": "swap((address,address,uint24,int24,address),(bool,int256,uint160))",
      "arguments": [
        "(0x9ed4F4724b521326a9d9d2420252440bD05556c4, 0xD1620Dac6d79BE34F8500756B47cf91B1fA5Cc8C, 500, 5, 0x7e0C07EEabb2459D70dba5b8d100Dca44c652aC0)",
        "(true, 297139946, 4295128740)"
      ],
      "transaction": {
        "from": "0x70997970c51812dc3a010c7d01b50e0d17dc79c8",
        "to": "0x40f26937cfa04d9667c15c811b8fcb1ccb359846",
        "value": "0x0",
        "input": "0x1e2817de0000000000000000000000009ed4f4724b521326a9d9d2420252440bd05556c4000000000000000000000000d1620dac6d79be34f8500756b47cf91b1fa5cc8c00000000000000000000000000000000000000000000000000000000000001f400000000000000000000000000000000000000000000000000000000000000050000000000000000000000007e0c07eeabb2459d70dba5b8d100dca44c652ac000000000000000000000000000000000000000000000000000000000000000010000000000000000000000000000000000000000000000000000000011b5feea00000000000000000000000000000000000000000000000000000001000276a4",
        "nonce": "0x1001",
        "chainId": "0x1"
      },
      "additionalContracts": [],
      "isFixedGasLimit": false
    },
    {
      "hash": null,
      "transactionType": "CALL",
      "contractName": "ChaosRouter",
      "contractAddress": "0x40f26937cfa04d9667c15c811b8fcb1ccb359846",
      "function": "swap((address,address,uint24,int24,address),(bool,int256,uint160))",
      "arguments": [
        "(0x9ed4F4724b521326a9d9d2420252440bD05556c4, 0xD1620Dac6d79BE34F8500756B47cf91B1fA5Cc8C, 500, 5, 0x7e0C07EEabb2459D70dba5b8d100Dca44c652aC0)",
        "(false, 637363539, 1461446703485210103287273052203988822378723970341)"
      ],
      "transaction": {
        "from": "0x70997970c51812dc3a010c7d01b50e0d17dc79c8",
        "to": "0x40f26937cfa04d9667c15c811b8fcb1ccb359846",
        "value": "0x0",
        "input": "0x1e2817de0000000000000000000000009ed4f4724b521326a9d9d2420252440bd05556c4000000000000000000000000d1620dac6d79be34f8500756b47cf91b1fa5cc8c00000000000000000000000000000000000000000000000000000000000001f400000000000000000000000000000000000000000000000000000000000000050000000000000000000000007e0c07eeabb2459d70dba5b8d100dca44c652ac000000000000000000000000000000000000000000000000000000000000000000000000000000000000000000000000000000000000000000000000025fd6553000000000000000000000000fffd8963efd1fc6a506488495d951d5263988d25",
        "nonce": "0x1002",
        "chainId": "0x1"
      },
      "additionalContracts": [],
      "isFixedGasLimit": false
    },
    {
      "hash": null,
      "transactionType": "CALL",
      "contractName": "ChaosRouter",
      "contractAddress": "0x40f26937cfa04d9667c15c811b8fcb1ccb359846",
      "function": "swap((address,address,uint24,int24,address),(bool,int256,uint160))",
      "arguments": [
        "(0x9ed4F4724b521326a9d9d2420252440bD05556c4, 0xD1620Dac6d79BE34F8500756B47cf91B1fA5Cc8C, 500, 5, 0x7e0C07EEabb2459D70dba5b8d100Dca44c652aC0)",
        "(true, -648483226, 4295128740)"
      ],
      "transaction": {
        "from": "0x70997970c51812dc3a010c7d01b50e0d17dc79c8",
        "to": "0x40f26937cfa04d9667c15c811b8fcb1ccb359846",
        "value": "0x0",
        "input": "0x1e2817de0000000000000000000000009ed4f4724b521326a9d9d2420252440bd05556c4000000000000000000000000d1620dac6d79be34f8500756b47cf91b1fa5cc8c00000000000000000000000000000000000000000000000000000000000001f400000000000000000000000000000000000000000000000000000000000000050000000000000000000000007e0c07eeabb2459d70dba5b8d100dca44c652ac00000000000000000000000000000000000000000000000000000000000000001ffffffffffffffffffffffffffffffffffffffffffffffffffffffffd958ee6600000000000000000000000000000000000000000000000000000001000276a4",
        "nonce": "0x1003",
        "chainId": "0x1"
      },
      "additionalContracts": [],
      "isFixedGasLimit": false
    },
    {
      "hash": null,
      "transactionType": "CALL",
      "contractName": "ChaosRouter",
      "contractAddress": "0x40f26937cfa04d9667c15c811b8fcb1ccb359846",
      "function": "swap((address,address,uint24,int24,address),(bool,int256,uint160))",
      "arguments": [
        "(0x9ed4F4724b521326a9d9d2420252440bD05556c4, 0xD1620Dac6d79BE34F8500756B47cf91B1fA5Cc8C, 500, 5, 0x7e0C07EEabb2459D70dba5b8d100Dca44c652aC0)",
        "(false, 948810466, 1461446703485210103287273052203988822378723970341)"
      ],
      "transaction": {
        "from": "0x70997970c51812dc3a010c7d01b50e0d17dc79c8",
        "to": "0x40f26937cfa04d9667c15c811b8fcb1ccb359846",
        "value": "0x0",
        "input": "0x1e2817de0000000000000000000000009ed4f4724b521326a9d9d2420252440bd05556c4000000000000000000000000d1620dac6d79be34f8500756b47cf91b1fa5cc8c00000000000000000000000000000000000000000000000000000000000001f400000000000000000000000000000000000000000000000000000000000000050000000000000000000000007e0c07eeabb2459d70dba5b8d100dca44c652ac0000000000000000000000000000000000000000000000000000000000000000000000000000000000000000000000000000000000000000000000000388db2e2000000000000000000000000fffd8963efd1fc6a506488495d951d5263988d25",
        "nonce": "0x1004",
        "chainId": "0x1"
      },
      "additionalContracts": [],
      "isFixedGasLimit": false
    },
    {
      "hash": null,
      "transactionType": "CALL",
      "contractName": "ChaosRouter",
      "contractAddress": "0x40f26937cfa04d9667c15c811b8fcb1ccb359846",
      "function": "swap((address,address,uint24,int24,address),(bool,int256,uint160))",
      "arguments": [
        "(0x9ed4F4724b521326a9d9d2420252440bD05556c4, 0xD1620Dac6d79BE34F8500756B47cf91B1fA5Cc8C, 500, 5, 0x7e0C07EEabb2459D70dba5b8d100Dca44c652aC0)",
        "(false, 903197044, 1461446703485210103287273052203988822378723970341)"
      ],
      "transaction": {
        "from": "0x70997970c51812dc3a010c7d01b50e0d17dc79c8",
        "to": "0x40f26937cfa04d9667c15c811b8fcb1ccb359846",
        "value": "0x0",
        "input": "0x1e2817de0000000000000000000000009ed4f4724b521326a9d9d2420252440bd05556c4000000000000000000000000d1620dac6d79be34f8500756b47cf91b1fa5cc8c00000000000000000000000000000000000000000000000000000000000001f400000000000000000000000000000000000000000000000000000000000000050000000000000000000000007e0c07eeabb2459d70dba5b8d100dca44c652ac000000000000000000000000000000000000000000000000000000000000000000000000000000000000000000000000000000000000000000000000035d5b174000000000000000000000000fffd8963efd1fc6a506488495d951d5263988d25",
        "nonce": "0x1005",
        "chainId": "0x1"
      },
      "additionalContracts": [],
      "isFixedGasLimit": false
    },
    {
      "hash": null,
      "transactionType": "CALL",
      "contractName": "ChaosRouter",
      "contractAddress": "0x40f26937cfa04d9667c15c811b8fcb1ccb359846",
      "function": "swap((address,address,uint24,int24,address),(bool,int256,uint160))",
      "arguments": [
        "(0x9ed4F4724b521326a9d9d2420252440bD05556c4, 0xD1620Dac6d79BE34F8500756B47cf91B1fA5Cc8C, 500, 5, 0x7e0C07EEabb2459D70dba5b8d100Dca44c652aC0)",
        "(true, 651750064, 4295128740)"
      ],
      "transaction": {
        "from": "0x70997970c51812dc3a010c7d01b50e0d17dc79c8",
        "to": "0x40f26937cfa04d9667c15c811b8fcb1ccb359846",
        "value": "0x0",
        "input": "0x1e2817de0000000000000000000000009ed4f4724b521326a9d9d2420252440bd05556c4000000000000000000000000d1620dac6d79be34f8500756b47cf91b1fa5cc8c00000000000000000000000000000000000000000000000000000000000001f400000000000000000000000000000000000000000000000000000000000000050000000000000000000000007e0c07eeabb2459d70dba5b8d100dca44c652ac000000000000000000000000000000000000000000000000000000000000000010000000000000000000000000000000000000000000000000000000026d8eab000000000000000000000000000000000000000000000000000000001000276a4",
        "nonce": "0x1006",
        "chainId": "0x1"
      },
      "additionalContracts": [],
      "isFixedGasLimit": false
    }
  ],
  "receipts": [
    {
      "status": "0x1",
      "cumulativeGasUsed": "0x972e3",
      "logs": [],
      "logsBloom": "0x00000000000000000000000000000000000000000000000000000000000000000000000000000000000000000000000000000000000000000000000000000000000000000000000000000000000000000000000000000000000000000000000000000000000000000000000000000000000000000000000000000000000000000000000000000000000000000000000000000000000000000000000000000000000000000000000000000000000000000000000000000000000000000000000000000000000000000000000000000000000000000000000000000000000000000000000000000000000000000000000000000000000000000000000000000000",
      "type": "0x2",
      "transactionHash": "0xe11df7304806685e980c3953df0d1845152c3d16a396e64bd778cc1e9ede4475",
      "transactionIndex": "0x0",
      "blockHash": "0xea9bff143b0279b93005f5bafa687cd9e8c8204fe84c11e065089e643ebf3588",
      "blockNumber": "0x173c1d3",
      "gasUsed": "0x972e3",
      "effectiveGasPrice": "0x5e9",
      "blobGasPrice": "0x1",
      "from": "0x70997970c51812dc3a010c7d01b50e0d17dc79c8",
      "to": null,
      "contractAddress": "0x40f26937cfa04d9667c15c811b8fcb1ccb359846"
    },
    {
      "status": "0x1",
      "cumulativeGasUsed": "0xb4bf",
      "logs": [
        {
          "address": "0xd1620dac6d79be34f8500756b47cf91b1fa5cc8c",
          "topics": [
            "0x8c5be1e5ebec7d5bd14f71427d1e84f3dd0314c0f7b2291e5b200ac8c7c3b925",
            "0x00000000000000000000000070997970c51812dc3a010c7d01b50e0d17dc79c8",
            "0x00000000000000000000000040f26937cfa04d9667c15c811b8fcb1ccb359846"
          ],
          "data": "0xffffffffffffffffffffffffffffffffffffffffffffffffffffffffffffffff",
          "blockHash": "0x5a069ebc89d907953cc286dfa34f33aab0144093b88739be2584d4e6df678b3e",
          "blockNumber": "0x173c1d4",
          "blockTimestamp": "0x697fa35d",
          "transactionHash": "0x8ddaac834cb9a95542a81036378f2ef2fea28dab5e2ce28d509225fd7d38ef0e",
          "transactionIndex": "0x0",
          "logIndex": "0x0",
          "removed": false
        }
      ],
      "logsBloom": "0x00000000000000008002000000000000000000000000000000000000000000000000000000000000000000000000000000000000000000000000100000200000000000000000000000000000000000000000000000000000000000004000000000000800200000000000000000000000000000000000000000000000000000000000002000000000000000000000000000000000000000000000000000000000020000000000000000000000000000000000000000000000000000000000000000000000000000000000000000000004000000000000000000000000000000000010000000000000000000000000000001000000000000000000000000000000",
      "type": "0x2",
      "transactionHash": "0x8ddaac834cb9a95542a81036378f2ef2fea28dab5e2ce28d509225fd7d38ef0e",
      "transactionIndex": "0x0",
      "blockHash": "0x5a069ebc89d907953cc286dfa34f33aab0144093b88739be2584d4e6df678b3e",
      "blockNumber": "0x173c1d4",
      "gasUsed": "0xb4bf",
      "effectiveGasPrice": "0x5e8",
      "blobGasPrice": "0x1",
      "from": "0x70997970c51812dc3a010c7d01b50e0d17dc79c8",
      "to": "0xd1620dac6d79be34f8500756b47cf91b1fa5cc8c",
      "contractAddress": null
    },
    {
      "status": "0x1",
      "cumulativeGasUsed": "0xb4a9",
      "logs": [
        {
          "address": "0x9ed4f4724b521326a9d9d2420252440bd05556c4",
          "topics": [
            "0x8c5be1e5ebec7d5bd14f71427d1e84f3dd0314c0f7b2291e5b200ac8c7c3b925",
            "0x00000000000000000000000070997970c51812dc3a010c7d01b50e0d17dc79c8",
            "0x00000000000000000000000040f26937cfa04d9667c15c811b8fcb1ccb359846"
          ],
          "data": "0xffffffffffffffffffffffffffffffffffffffffffffffffffffffffffffffff",
          "blockHash": "0x75f3258c96414fe3cd2e17ac89edd613c37f2607276c58db1ae72c675af2690e",
          "blockNumber": "0x173c1d5",
          "blockTimestamp": "0x697fa35d",
          "transactionHash": "0x0b91703c57e9367b83729bb04c343b0d2b6441cea9e5d7433515d2b2e722ce8a",
          "transactionIndex": "0x0",
          "logIndex": "0x0",
          "removed": false
        }
      ],
      "logsBloom": "0x00000000004000000006000000000000000000000000000000000000000000000000000000000000000000000000000000000000000000000000100000200000000000000000000000000000000000000000000000000000000000000000000000000800200000000000000000000000000000000000000000000000000000000000020000000000000000000000000000000000000000000000000000000000020000000000000000000000000000000000000000000000000000000000000000000000000000000000000000000004000000000000000000000000000000000010000000000000000000000000000001000000000000000000000000000000",
      "type": "0x2",
      "transactionHash": "0x0b91703c57e9367b83729bb04c343b0d2b6441cea9e5d7433515d2b2e722ce8a",
      "transactionIndex": "0x0",
      "blockHash": "0x75f3258c96414fe3cd2e17ac89edd613c37f2607276c58db1ae72c675af2690e",
      "blockNumber": "0x173c1d5",
      "gasUsed": "0xb4a9",
      "effectiveGasPrice": "0x5e7",
      "blobGasPrice": "0x1",
      "from": "0x70997970c51812dc3a010c7d01b50e0d17dc79c8",
      "to": "0x9ed4f4724b521326a9d9d2420252440bd05556c4",
      "contractAddress": null
    },
    {
      "status": "0x1",
      "cumulativeGasUsed": "0x66c7",
      "logs": [
        {
          "address": "0xd1620dac6d79be34f8500756b47cf91b1fa5cc8c",
          "topics": [
            "0x8c5be1e5ebec7d5bd14f71427d1e84f3dd0314c0f7b2291e5b200ac8c7c3b925",
            "0x00000000000000000000000070997970c51812dc3a010c7d01b50e0d17dc79c8",
            "0x000000000000000000000000000000000004444c5dc75cb358380d2e3de08a90"
          ],
          "data": "0xffffffffffffffffffffffffffffffffffffffffffffffffffffffffffffffff",
          "blockHash": "0x1803ad650a16d62a45c7b95b9852cb250be81eaff7d45811410663dbef8e4cd5",
          "blockNumber": "0x173c1d6",
          "blockTimestamp": "0x697fa35d",
          "transactionHash": "0xf5e23c3b56809ad825a44cf6da82213ebf36e1840a22c3c6ff79ae2eef5fde91",
          "transactionIndex": "0x0",
          "logIndex": "0x0",
          "removed": false
        }
      ],
      "logsBloom": "0x00000000000000008002000000000000000000000000000000000000000000000000000000000000001000000000000000000000000000000000000000200000000000000000000000000000000000000000000000000000000000004000000000000800000000000000000000000000000000000000000000000000000000000000002800000000000000000000000000000000000000000000000000000000020000000000000000000000000000000000000000000000000000000000000000000000000000000000000000000000000000400000000000000000000000000010000000000000000000000000000001000000000000000000000000000000",
      "type": "0x2",
      "transactionHash": "0xf5e23c3b56809ad825a44cf6da82213ebf36e1840a22c3c6ff79ae2eef5fde91",
      "transactionIndex": "0x0",
      "blockHash": "0x1803ad650a16d62a45c7b95b9852cb250be81eaff7d45811410663dbef8e4cd5",
      "blockNumber": "0x173c1d6",
      "gasUsed": "0x66c7",
      "effectiveGasPrice": "0x5e6",
      "blobGasPrice": "0x1",
      "from": "0x70997970c51812dc3a010c7d01b50e0d17dc79c8",
      "to": "0xd1620dac6d79be34f8500756b47cf91b1fa5cc8c",
      "contractAddress": null
    },
    {
      "status": "0x1",
      "cumulativeGasUsed": "0x66b1",
      "logs": [
        {
          "address": "0x9ed4f4724b521326a9d9d2420252440bd05556c4",
          "topics": [
            "0x8c5be1e5ebec7d5bd14f71427d1e84f3dd0314c0f7b2291e5b200ac8c7c3b925",
            "0x00000000000000000000000070997970c51812dc3a010c7d01b50e0d17dc79c8",
            "0x000000000000000000000000000000000004444c5dc75cb358380d2e3de08a90"
          ],
          "data": "0xffffffffffffffffffffffffffffffffffffffffffffffffffffffffffffffff",
          "blockHash": "0xc970496edb69b1dabe2807fd97876b8a6f144afeda3ea2d9ebf749dc8d44c254",
          "blockNumber": "0x173c1d7",
          "blockTimestamp": "0x697fa35d",
          "transactionHash": "0xc32ba8968649640b81698ea6d729322dff75acfede086f86af6c0d9053d624e1",
          "transactionIndex": "0x0",
          "logIndex": "0x0",
          "removed": false
        }
      ],
      "logsBloom": "0x00000000004000000006000000000000000000000000000000000000000000000000000000000000001000000000000000000000000000000000000000200000000000000000000000000000000000000000000000000000000000000000000000000800000000000000000000000000000000000000000000000000000000000000020800000000000000000000000000000000000000000000000000000000020000000000000000000000000000000000000000000000000000000000000000000000000000000000000000000000000000400000000000000000000000000010000000000000000000000000000001000000000000000000000000000000",
      "type": "0x2",
      "transactionHash": "0xc32ba8968649640b81698ea6d729322dff75acfede086f86af6c0d9053d624e1",
      "transactionIndex": "0x0",
      "blockHash": "0xc970496edb69b1dabe2807fd97876b8a6f144afeda3ea2d9ebf749dc8d44c254",
      "blockNumber": "0x173c1d7",
      "gasUsed": "0x66b1",
      "effectiveGasPrice": "0x5e5",
      "blobGasPrice": "0x1",
      "from": "0x70997970c51812dc3a010c7d01b50e0d17dc79c8",
      "to": "0x9ed4f4724b521326a9d9d2420252440bd05556c4",
      "contractAddress": null
    }
  ],
  "libraries": [],
  "pending": [],
  "returns": {},
  "timestamp": 1770030597922,
  "chain": 1,
  "commit": "290e97f"
}