{
  "transactions": [
    {
      "hash": "0x9b7a0f9f2f8ee35a6a52523fccf41f37f4cb160a199417758cac94f05695c770",
      "transactionType": "CALL",
      "contractName": null,
      "contractAddress": "0x67ecfe4852561df7a0d8869b06a0f82dbc655033",
      "function": "createBroker(bytes32)",
      "arguments": [
        "0x9bb9fa1fcac9bddd9c73bc220458473666a7baa8ed4e7ca06c7a10cd30d4e77e"
      ],
      "transaction": {
        "from": "0xf39fd6e51aad88f6f4ce6ab8827279cfffb92266",
        "to": "0x67ecfe4852561df7a0d8869b06a0f82dbc655033",
        "gas": "0x6e2ae",
        "value": "0x0",
        "input": "0x26f4f1239bb9fa1fcac9bddd9c73bc220458473666a7baa8ed4e7ca06c7a10cd30d4e77e",
        "nonce": "0x36a",
        "chainId": "0x1"
      },
      "additionalContracts": [
        {
          "transactionType": "CREATE2",
          "contractName": null,
          "address": "0x1963582b4d43ab16d9c57074221bca342820d414",
          "initCode": "0x3d602d80600a3d3981f3363d3d373d3d3d363d73f975a646fca589be9fc4e0c28ea426a75645fb1f5af43d82803e903d91602b57fd5bf3"
        }
      ],
      "isFixedGasLimit": false
    },
    {
      "hash": "0x638d48927d189b5f041afbdbae0cb1a2868dd4118991977a630c207831952b4a",
      "transactionType": "CALL",
      "contractName": null,
      "contractAddress": "0x2fe19128a8257182fdd77f90ea96d27ca342897a",
      "function": "transfer(address,uint256)",
      "arguments": [
        "0x1963582b4d43AB16d9C57074221BcA342820D414",
        "99998766314"
      ],
      "transaction": {
        "from": "0xf39fd6e51aad88f6f4ce6ab8827279cfffb92266",
        "to": "0x2fe19128a8257182fdd77f90ea96d27ca342897a",
        "gas": "0x109a1",
        "value": "0x0",
        "input": "0xa9059cbb0000000000000000000000001963582b4d43ab16d9c57074221bca342820d41400000000000000000000000000000000000000000000000000000017486414ea",
        "nonce": "0x36b",
        "chainId": "0x1"
      },
      "additionalContracts": [],
      "isFixedGasLimit": false
    },
    {
      "hash": "0xff24413ecdcfda239bc97e3fa4ae77635b6a0c5e2c9bc67f0bbf2e9d91bf7f9a",
      "transactionType": "CALL",
      "contractName": null,
      "contractAddress": "0x1963582b4d43ab16d9c57074221bca342820d414",
      "function": "modifyPosition(bytes32,int256,int256)",
      "arguments": [
        "0x12bd6ec818ecae6e8571bb097586328e1649ec9a036bc6a558f4dacb423e447c",
        "99998766314",
        "999987663"
      ],
      "transaction": {
        "from": "0xf39fd6e51aad88f6f4ce6ab8827279cfffb92266",
        "to": "0x1963582b4d43ab16d9c57074221bca342820d414",
        "gas": "0x78c33",
        "value": "0x0",
        "input": "0x1b89f3d412bd6ec818ecae6e8571bb097586328e1649ec9a036bc6a558f4dacb423e447c00000000000000000000000000000000000000000000000000000017486414ea000000000000000000000000000000000000000000000000000000003b9a99cf",
        "nonce": "0x36c",
        "chainId": "0x1"
      },
      "additionalContracts": [],
      "isFixedGasLimit": false
    }
  ],
  "receipts": [
    {
      "status": "0x1",
      "cumulativeGasUsed": "0x4fc27",
      "logs": [
        {
          "address": "0x67ecfe4852561df7a0d8869b06a0f82dbc655033",
          "topics": [
            "0xddf252ad1be2c89b69c2b068fc378daa952ba7f163c4a11628f55a4df523b3ef",
            "0x0000000000000000000000000000000000000000000000000000000000000000",
            "0x000000000000000000000000f39fd6e51aad88f6f4ce6ab8827279cfffb92266",
            "0x0000000000000000000000001963582b4d43ab16d9c57074221bca342820d414"
          ],
          "data": "0x",
          "blockHash": "0xc1e7fbe621c5ee97f021f422205931bc629bde14a824bf73b61d3bc5ee7a02aa",
          "blockNumber": "0x14b1900",
          "blockTimestamp": "0x6794ab48",
          "transactionHash": "0x9b7a0f9f2f8ee35a6a52523fccf41f37f4cb160a199417758cac94f05695c770",
          "transactionIndex": "0x0",
          "logIndex": "0x0",
          "removed": false
        },
        {
          "address": "0x67ecfe4852561df7a0d8869b06a0f82dbc655033",
          "topics": [
            "0xc418c83b1622e1e32aac5d6d2848134a7e89eb8e96c8514afd1757d25ee5ef71",
            "0x0000000000000000000000001963582b4d43ab16d9c57074221bca342820d414",
            "0x000000000000000000000000f39fd6e51aad88f6f4ce6ab8827279cfffb92266"
          ],
          "data": "0x0000000000000000000000001963582b4d43ab16d9c57074221bca342820d414",
          "blockHash": "0xc1e7fbe621c5ee97f021f422205931bc629bde14a824bf73b61d3bc5ee7a02aa",
          "blockNumber": "0x14b1900",
          "blockTimestamp": "0x6794ab48",
          "transactionHash": "0x9b7a0f9f2f8ee35a6a52523fccf41f37f4cb160a199417758cac94f05695c770",
          "transactionIndex": "0x0",
          "logIndex": "0x1",
          "removed": false
        }
      ],
      "logsBloom": "0x00000000000000000000100000000000002000000000000000000000000000000000000000000000000000000000000000000200000000000000000000000000800000000000000000000008000000000000000000000100000000000000000000000000020000000000000100000800000000000000000400000010000000000000000000000080000000000000000000000000000000000000000000000000000000000000000000000000000000000000000000000000000002000000000000000002000000200000000000000000000000002000000000000000000020000000000000000000000000000000000000000000000000000000000800000000",
      "type": "0x2",
      "transactionHash": "0x9b7a0f9f2f8ee35a6a52523fccf41f37f4cb160a199417758cac94f05695c770",
      "transactionIndex": "0x0",
      "blockHash": "0xc1e7fbe621c5ee97f021f422205931bc629bde14a824bf73b61d3bc5ee7a02aa",
      "blockNumber": "0x14b1900",
      "gasUsed": "0x4fc27",
      "effectiveGasPrice": "0x5a1f4a7",
      "blobGasPrice": "0x1",
      "from": "0xf39fd6e51aad88f6f4ce6ab8827279cfffb92266",
      "to": "0x67ecfe4852561df7a0d8869b06a0f82dbc655033",
      "contractAddress": null
    },
    {
      "status": "0x1",
      "cumulativeGasUsed": "0xb5a1",
      "logs": [
        {
          "address": "0x2fe19128a8257182fdd77f90ea96d27ca342897a",
          "topics": [
            "0xddf252ad1be2c89b69c2b068fc378daa952ba7f163c4a11628f55a4df523b3ef",
            "0x000000000000000000000000f39fd6e51aad88f6f4ce6ab8827279cfffb92266",
            "0x0000000000000000000000001963582b4d43ab16d9c57074221bca342820d414"
          ],
          "data": "0x00000000000000000000000000000000000000000000000000000017486414ea",
          "blockHash": "0x76c80291f3f25687eba2b697df2d53dc8303f16555e60c39b8123c3e21071893",
          "blockNumber": "0x14b1901",
          "blockTimestamp": "0x6794ab48",
          "transactionHash": "0xff24413ecdcfda239bc97e3fa4ae77635b6a0c5e2c9bc67f0bbf2e9d91bf7f9a",
          "transactionIndex": "0x0",
          "logIndex": "0x0",
          "removed": false
        }
      ],
      "logsBloom": "0x00000000000000000000000000000000002000000000000000000000000000000000000000000000000000004000000000000000000000000000000000000000000000000000000000000008000000000000000000000000000000000000000000000000000000000000000100000000000000000000000000000010000000000000000000000080000000000000000000000000000000000000000000000000000000000000000000000000000000000040000000000000000002000000000000000002000000200000000000000000000000002000000000000000000000000000000000000000000000000000000020000000000000000000000000000000",
      "type": "0x2",
      "transactionHash": "0xff24413ecdcfda239bc97e3fa4ae77635b6a0c5e2c9bc67f0bbf2e9d91bf7f9a",
      "transactionIndex": "0x0",
      "blockHash": "0x76c80291f3f25687eba2b697df2d53dc8303f16555e60c39b8123c3e21071893",
      "blockNumber": "0x14b1901",
      "gasUsed": "0xb5a1",
      "effectiveGasPrice": "0x5a1f4a7",
      "blobGasPrice": "0x1",
      "from": "0xf39fd6e51aad88f6f4ce6ab8827279cfffb92266",
      "to": "0x2fe19128a8257182fdd77f90ea96d27ca342897a",
      "contractAddress": null
    },
    {
      "status": "0x1",
      "cumulativeGasUsed": "0x5decb",
      "logs": [
        {
          "address": "0xcf6c6272e9e353fc1f3e9a747a7b7aade3c83389",
          "topics": [
            "0xddf252ad1be2c89b69c2b068fc378daa952ba7f163c4a11628f55a4df523b3ef",
            "0x0000000000000000000000000000000000000000000000000000000000000000",
            "0x0000000000000000000000001963582b4d43ab16d9c57074221bca342820d414"
          ],
          "data": "0x000000000000000000000000000000000000000000000000000000003b9a99cf",
          "blockHash": "0x76c80291f3f25687eba2b697df2d53dc8303f16555e60c39b8123c3e21071893",
          "blockNumber": "0x14b1901",
          "blockTimestamp": "0x6794ab48",
          "transactionHash": "0x638d48927d189b5f041afbdbae0cb1a2868dd4118991977a630c207831952b4a",
          "transactionIndex": "0x1",
          "logIndex": "0x1",
          "removed": false
        },
        {
          "address": "0x6b5cf024365d5d5d0786673780ca7e3f07f85b63",
          "topics": [
            "0x343ef6bfd54be4f7cb6918335f3d2788a88dfadfc586a5c32c67c2f3b61c6338",
            "0x12bd6ec818ecae6e8571bb097586328e1649ec9a036bc6a558f4dacb423e447c",
            "0x0000000000000000000000001963582b4d43ab16d9c57074221bca342820d414"
          ],
          "data": "0x00000000000000000000000000000000000000000000000000000017486414ea000000000000000000000000000000000000000000000000000000003b9a99cf",
          "blockHash": "0x76c80291f3f25687eba2b697df2d53dc8303f16555e60c39b8123c3e21071893",
          "blockNumber": "0x14b1901",
          "blockTimestamp": "0x6794ab48",
          "transactionHash": "0x638d48927d189b5f041afbdbae0cb1a2868dd4118991977a630c207831952b4a",
          "transactionIndex": "0x1",
          "logIndex": "0x2",
          "removed": false
        },
        {
          "address": "0x2fe19128a8257182fdd77f90ea96d27ca342897a",
          "topics": [
            "0x8c5be1e5ebec7d5bd14f71427d1e84f3dd0314c0f7b2291e5b200ac8c7c3b925",
            "0x0000000000000000000000001963582b4d43ab16d9c57074221bca342820d414",
            "0x0000000000000000000000006b5cf024365d5d5d0786673780ca7e3f07f85b63"
          ],
          "data": "0x00000000000000000000000000000000000000000000000000000017486414ea",
          "blockHash": "0x76c80291f3f25687eba2b697df2d53dc8303f16555e60c39b8123c3e21071893",
          "blockNumber": "0x14b1901",
          "blockTimestamp": "0x6794ab48",
          "transactionHash": "0x638d48927d189b5f041afbdbae0cb1a2868dd4118991977a630c207831952b4a",
          "transactionIndex": "0x1",
          "logIndex": "0x3",
          "removed": false
        }
      ],
      "logsBloom": "0x00000000000000000000000000000000002000000000000000000000200004000000000000000000000000004000000000000000000000000000000000200000000000800000000000000008000000000000000000000001008000000000000000000000024000000000800000200800000000000000000000000010000000000000000000200080000100000000000000000000000000000000000000000002020000000000000000000000000000000040000000000000000002000000000000000002000000000000000000000000000000010000008000000000000020300010000000000000000000000000000020000000000000000000000000000000",
      "type": "0x2",
      "transactionHash": "0x638d48927d189b5f041afbdbae0cb1a2868dd4118991977a630c207831952b4a",
      "transactionIndex": "0x1",
      "blockHash": "0x76c80291f3f25687eba2b697df2d53dc8303f16555e60c39b8123c3e21071893",
      "blockNumber": "0x14b1901",
      "gasUsed": "0x5292a",
      "effectiveGasPrice": "0x5a1f4a7",
      "blobGasPrice": "0x1",
      "from": "0xf39fd6e51aad88f6f4ce6ab8827279cfffb92266",
      "to": "0x1963582b4d43ab16d9c57074221bca342820d414",
      "contractAddress": null
    }
  ],
  "libraries": [],
  "pending": [],
  "returns": {},
  "timestamp": 1770060934613,
  "chain": 1,
  "commit": "290e97f"
}