{
  "transactions": [
    {
      "hash": "0x194cfd32225187876b309e44cfab14223de00fdaf19eeb22c0ad8a9dd2ed7cf3",
      "transactionType": "CALL",
      "contractName": null,
      "contractAddress": "0xbb20a1c05f54c9ef20a9f5a20587f345932ff236",
      "function": "createBroker(bytes32)",
      "arguments": [
        "0x515324aecbf9f22edaec0529d242ec991b7d5d334cf5ea46f3e9aa1709b0ef3c"
      ],
      "transaction": {
        "from": "0xf39fd6e51aad88f6f4ce6ab8827279cfffb92266",
        "to": "0xbb20a1c05f54c9ef20a9f5a20587f345932ff236",
        "gas": "0x74a41",
        "value": "0x0",
        "input": "0x26f4f123515324aecbf9f22edaec0529d242ec991b7d5d334cf5ea46f3e9aa1709b0ef3c",
        "nonce": "0x128f",
        "chainId": "0x1"
      },
      "additionalContracts": [
        {
          "transactionType": "CREATE2",
          "contractName": null,
          "address": "0xbc3f40107a5ccfdd2f40ec6eedcb2257de8a285f",
          "initCode": "0x3d602d80600a3d3981f3363d3d373d3d3d363d73d1df7ed77228e38c8799e56fae9e4488ab0c70f25af43d82803e903d91602b57fd5bf3"
        }
      ],
      "isFixedGasLimit": false
    },
    {
      "hash": "0x7b257db9cb84bd0d20bdd6a98d6010462ed45fb1c8de0fdc5733c9da54a0b72c",
      "transactionType": "CALL",
      "contractName": null,
      "contractAddress": "0xa1da18755de55f3929620a530968a28f16ea981d",
      "function": "transfer(address,uint256)",
      "arguments": [
        "0xbc3F40107A5ccfdd2f40Ec6EEDcb2257De8A285f",
        "49997376233"
      ],
      "transaction": {
        "from": "0xf39fd6e51aad88f6f4ce6ab8827279cfffb92266",
        "to": "0xa1da18755de55f3929620a530968a28f16ea981d",
        "gas": "0x109a1",
        "value": "0x0",
        "input": "0xa9059cbb000000000000000000000000bc3f40107a5ccfdd2f40ec6eedcb2257de8a285f0000000000000000000000000000000000000000000000000000000ba4136ae9",
        "nonce": "0x1290",
        "chainId": "0x1"
      },
      "additionalContracts": [],
      "isFixedGasLimit": false
    },
    {
      "hash": "0xb1441f4ff2e9cd569b067d2dca3274507e2a56fddd4a84e4244f4bba09c26207",
      "transactionType": "CALL",
      "contractName": null,
      "contractAddress": "0xbc3f40107a5ccfdd2f40ec6eedcb2257de8a285f",
      "function": "modifyPosition(bytes32,int256,int256)",
      "arguments": [
        "0x56d02bade54cf9cd09b965dbc4e652aed2668f83e0d1686ae3a4c285551755c3",
        "49997376233",
        "499973762"
      ],
      "transaction": {
        "from": "0xf39fd6e51aad88f6f4ce6ab8827279cfffb92266",
        "to": "0xbc3f40107a5ccfdd2f40ec6eedcb2257de8a285f",
        "gas": "0x6f8a6",
        "value": "0x0",
        "input": "0x1b89f3d456d02bade54cf9cd09b965dbc4e652aed2668f83e0d1686ae3a4c285551755c30000000000000000000000000000000000000000000000000000000ba4136ae9000000000000000000000000000000000000000000000000000000001dccfe82",
        "nonce": "0x1291",
        "chainId": "0x1"
      },
      "additionalContracts": [],
      "isFixedGasLimit": false
    }
  ],
  "receipts": [
    {
      "status": "0x1",
      "cumulativeGasUsed": "0x4fc13",
      "logs": [
        {
          "address": "0xbb20a1c05f54c9ef20a9f5a20587f345932ff236",
          "topics": [
            "0xddf252ad1be2c89b69c2b068fc378daa952ba7f163c4a11628f55a4df523b3ef",
            "0x0000000000000000000000000000000000000000000000000000000000000000",
            "0x000000000000000000000000f39fd6e51aad88f6f4ce6ab8827279cfffb92266",
            "0x000000000000000000000000bc3f40107a5ccfdd2f40ec6eedcb2257de8a285f"
          ],
          "data": "0x",
          "blockHash": "0x7a7ca094742e6a803b38e36b8e5d5e8433506a2a50daaec5482d8ba262e7826e",
          "blockNumber": "0x173c1d1",
          "blockTimestamp": "0x6980e746",
          "transactionHash": "0x194cfd32225187876b309e44cfab14223de00fdaf19eeb22c0ad8a9dd2ed7cf3",
          "transactionIndex": "0x0",
          "logIndex": "0x0",
          "removed": false
        },
        {
          "address": "0xbb20a1c05f54c9ef20a9f5a20587f345932ff236",
          "topics": [
            "0xc418c83b1622e1e32aac5d6d2848134a7e89eb8e96c8514afd1757d25ee5ef71",
            "0x000000000000000000000000bc3f40107a5ccfdd2f40ec6eedcb2257de8a285f",
            "0x000000000000000000000000f39fd6e51aad88f6f4ce6ab8827279cfffb92266"
          ],
          "data": "0x000000000000000000000000bc3f40107a5ccfdd2f40ec6eedcb2257de8a285f",
          "blockHash": "0x7a7ca094742e6a803b38e36b8e5d5e8433506a2a50daaec5482d8ba262e7826e",
          "blockNumber": "0x173c1d1",
          "blockTimestamp": "0x6980e746",
          "transactionHash": "0x194cfd32225187876b309e44cfab14223de00fdaf19eeb22c0ad8a9dd2ed7cf3",
          "transactionIndex": "0x0",
          "logIndex": "0x1",
          "removed": false
        }
      ],
      "logsBloom": "0x00000000000000000000100000000000000000000000000000000000000000000000000000000000000000000000000000000200000000000000000000000000000000000000000004000008000000000000000000000100000000000000000000000000020000000000000100000800000000000000000000000010000000000000000000000000000000000000000000108000000000000000000000000000000000000000000000000000000000000000000000000000000000000000000000000002000000200000000000000000000000002000000000000004000020000000000000000000000000000000000080000000002000000000000000000000",
      "type": "0x2",
      "transactionHash": "0x194cfd32225187876b309e44cfab14223de00fdaf19eeb22c0ad8a9dd2ed7cf3",
      "transactionIndex": "0x0",
      "blockHash": "0x7a7ca094742e6a803b38e36b8e5d5e8433506a2a50daaec5482d8ba262e7826e",
      "blockNumber": "0x173c1d1",
      "gasUsed": "0x4fc13",
      "effectiveGasPrice": "0x5ea",
      "blobGasPrice": "0x1",
      "from": "0xf39fd6e51aad88f6f4ce6ab8827279cfffb92266",
      "to": "0xbb20a1c05f54c9ef20a9f5a20587f345932ff236",
      "contractAddress": null
    },
    {
      "status": "0x1",
      "cumulativeGasUsed": "0xb5a1",
      "logs": [
        {
          "address": "0xa1da18755de55f3929620a530968a28f16ea981d",
          "topics": [
            "0xddf252ad1be2c89b69c2b068fc378daa952ba7f163c4a11628f55a4df523b3ef",
            "0x000000000000000000000000f39fd6e51aad88f6f4ce6ab8827279cfffb92266",
            "0x000000000000000000000000bc3f40107a5ccfdd2f40ec6eedcb2257de8a285f"
          ],
          "data": "0x0000000000000000000000000000000000000000000000000000000ba4136ae9",
          "blockHash": "0xb83652a940e487cf0b258c58b9474eb3203dc26c93b3f44bf1a9c769f3729bfd",
          "blockNumber": "0x173c1d2",
          "blockTimestamp": "0x6980e746",
          "transactionHash": "0x7b257db9cb84bd0d20bdd6a98d6010462ed45fb1c8de0fdc5733c9da54a0b72c",
          "transactionIndex": "0x0",
          "logIndex": "0x0",
          "removed": false
        }
      ],
      "logsBloom": "0x00000000000000000000000000000000000000000000000000000000000000000000000000000000000000000000000000000000000000000000000000000000000000000000000004000008000000000000000000000000000000000000000000000000000000000000000100000000000000000000100000000010000000000000000000000200000000000000000000000000000000000000000000000000002000000000000000000000000000000000000000000000000000000000000000000002000000200000000000000000000000002000000000000004000000000000000000000000000000000000000080000000000000000000000000000000",
      "type": "0x2",
      "transactionHash": "0x7b257db9cb84bd0d20bdd6a98d6010462ed45fb1c8de0fdc5733c9da54a0b72c",
      "transactionIndex": "0x0",
      "blockHash": "0xb83652a940e487cf0b258c58b9474eb3203dc26c93b3f44bf1a9c769f3729bfd",
      "blockNumber": "0x173c1d2",
      "gasUsed": "0xb5a1",
      "effectiveGasPrice": "0x5e9",
      "blobGasPrice": "0x1",
      "from": "0xf39fd6e51aad88f6f4ce6ab8827279cfffb92266",
      "to": "0xa1da18755de55f3929620a530968a28f16ea981d",
      "contractAddress": null
    },
    {
      "status": "0x1",
      "cumulativeGasUsed": "0x50c0f",
      "logs": [
        {
          "address": "0xc6c7c316e4cbbd73cc36280e2e290487a42c11d0",
          "topics": [
            "0xddf252ad1be2c89b69c2b068fc378daa952ba7f163c4a11628f55a4df523b3ef",
            "0x0000000000000000000000000000000000000000000000000000000000000000",
            "0x000000000000000000000000bc3f40107a5ccfdd2f40ec6eedcb2257de8a285f"
          ],
          "data": "0x000000000000000000000000000000000000000000000000000000001dccfe82",
          "blockHash": "0x4df1dbc600b844119ece41144886e617fc23952e24c6e168e2aadc08a63198c6",
          "blockNumber": "0x173c1d3",
          "blockTimestamp": "0x6980e746",
          "transactionHash": "0xb1441f4ff2e9cd569b067d2dca3274507e2a56fddd4a84e4244f4bba09c26207",
          "transactionIndex": "0x0",
          "logIndex": "0x0",
          "removed": false
        },
        {
          "address": "0x766542304e16e3585d569705b0eff4756efa6cac",
          "topics": [
            "0x343ef6bfd54be4f7cb6918335f3d2788a88dfadfc586a5c32c67c2f3b61c6338",
            "0x56d02bade54cf9cd09b965dbc4e652aed2668f83e0d1686ae3a4c285551755c3",
            "0x000000000000000000000000bc3f40107a5ccfdd2f40ec6eedcb2257de8a285f"
          ],
          "data": "0x0000000000000000000000000000000000000000000000000000000ba4136ae9000000000000000000000000000000000000000000000000000000001dccfe82",
          "blockHash": "0x4df1dbc600b844119ece41144886e617fc23952e24c6e168e2aadc08a63198c6",
          "blockNumber": "0x173c1d3",
          "blockTimestamp": "0x6980e746",
          "transactionHash": "0xb1441f4ff2e9cd569b067d2dca3274507e2a56fddd4a84e4244f4bba09c26207",
          "transactionIndex": "0x0",
          "logIndex": "0x1",
          "removed": false
        },
        {
          "address": "0xa1da18755de55f3929620a530968a28f16ea981d",
          "topics": [
            "0x8c5be1e5ebec7d5bd14f71427d1e84f3dd0314c0f7b2291e5b200ac8c7c3b925",
            "0x000000000000000000000000bc3f40107a5ccfdd2f40ec6eedcb2257de8a285f",
            "0x000000000000000000000000766542304e16e3585d569705b0eff4756efa6cac"
          ],
          "data": "0x0000000000000000000000000000000000000000000000000000000ba4136ae9",
          "blockHash": "0x4df1dbc600b844119ece41144886e617fc23952e24c6e168e2aadc08a63198c6",
          "blockNumber": "0x173c1d3",
          "blockTimestamp": "0x6980e746",
          "transactionHash": "0xb1441f4ff2e9cd569b067d2dca3274507e2a56fddd4a84e4244f4bba09c26207",
          "transactionIndex": "0x0",
          "logIndex": "0x2",
          "removed": false
        }
      ],
      "logsBloom": "0x00000000000000000001000000000000000000000000080000000000000000000000000000000000400000000000000000000000000000000000000000200100000000000100000004000008000000080000000000000000000000000000000000000000024000000000000000000800000000000000100000000010000000000000000000000200000000000004000000000000000000000000000000000002022004000000000000000100000000000000000000000000000000000000000000000002000000000000000000000000008000000000000000000014000020100010000000000000000004000000000080000000000000000000000000000000",
      "type": "0x2",
      "transactionHash": "0xb1441f4ff2e9cd569b067d2dca3274507e2a56fddd4a84e4244f4bba09c26207",
      "transactionIndex": "0x0",
      "blockHash": "0x4df1dbc600b844119ece41144886e617fc23952e24c6e168e2aadc08a63198c6",
      "blockNumber": "0x173c1d3",
      "gasUsed": "0x50c0f",
      "effectiveGasPrice": "0x5e8",
      "blobGasPrice": "0x1",
      "from": "0xf39fd6e51aad88f6f4ce6ab8827279cfffb92266",
      "to": "0xbc3f40107a5ccfdd2f40ec6eedcb2257de8a285f",
      "contractAddress": null
    }
  ],
  "libraries": [],
  "pending": [],
  "returns": {},
  "timestamp": 1770045751748,
  "chain": 1,
  "commit": "290e97f"
}