{
  "transactions": [
    {
      "hash": "0x62a446124a21d93a833c16df0e0d49a07e5dab5121af330a4c6d58f39c8022bd",
      "transactionType": "CALL",
      "contractName": null,
      "contractAddress": "0x67ecfe4852561df7a0d8869b06a0f82dbc655033",
      "function": "createBroker(bytes32)",
      "arguments": [
        "0x8d23fbb883c762977c053fb4ff700ff415d7c67c5daeae7a83a1cc1ba51581ab"
      ],
      "transaction": {
        "from": "0xf39fd6e51aad88f6f4ce6ab8827279cfffb92266",
        "to": "0x67ecfe4852561df7a0d8869b06a0f82dbc655033",
        "gas": "0x6e2ae",
        "value": "0x0",
        "input": "0x26f4f1238d23fbb883c762977c053fb4ff700ff415d7c67c5daeae7a83a1cc1ba51581ab",
        "nonce": "0x373",
        "chainId": "0x1"
      },
      "additionalContracts": [
        {
          "transactionType": "CREATE2",
          "contractName": null,
          "address": "0x7fcbcfe975b68b6914d7d3521e317fb682769aa2",
          "initCode": "0x3d602d80600a3d3981f3363d3d373d3d3d363d73f975a646fca589be9fc4e0c28ea426a75645fb1f5af43d82803e903d91602b57fd5bf3"
        }
      ],
      "isFixedGasLimit": false
    },
    {
      "hash": "0x3749d349cc26716fb2b2f28944ff6f6b86ee16dd22d213a6899e2e214116fd3f",
      "transactionType": "CALL",
      "contractName": null,
      "contractAddress": "0x2fe19128a8257182fdd77f90ea96d27ca342897a",
      "function": "transfer(address,uint256)",
      "arguments": [
        "0x7FCBCFE975b68B6914d7d3521e317Fb682769AA2",
        "149992468699"
      ],
      "transaction": {
        "from": "0xf39fd6e51aad88f6f4ce6ab8827279cfffb92266",
        "to": "0x2fe19128a8257182fdd77f90ea96d27ca342897a",
        "gas": "0x109a1",
        "value": "0x0",
        "input": "0xa9059cbb0000000000000000000000007fcbcfe975b68b6914d7d3521e317fb682769aa200000000000000000000000000000000000000000000000000000022ec3f70db",
        "nonce": "0x374",
        "chainId": "0x1"
      },
      "additionalContracts": [],
      "isFixedGasLimit": false
    },
    {
      "hash": "0x8101e7091cc3ff46b7aae3d7b00096967de1e25eb5c923e05205f2dc1d419b9e",
      "transactionType": "CALL",
      "contractName": null,
      "contractAddress": "0x7fcbcfe975b68b6914d7d3521e317fb682769aa2",
      "function": "modifyPosition(bytes32,int256,int256)",
      "arguments": [
        "0x12bd6ec818ecae6e8571bb097586328e1649ec9a036bc6a558f4dacb423e447c",
        "149992468699",
        "1499924686"
      ],
      "transaction": {
        "from": "0xf39fd6e51aad88f6f4ce6ab8827279cfffb92266",
        "to": "0x7fcbcfe975b68b6914d7d3521e317fb682769aa2",
        "gas": "0x78c33",
        "value": "0x0",
        "input": "0x1b89f3d412bd6ec818ecae6e8571bb097586328e1649ec9a036bc6a558f4dacb423e447c00000000000000000000000000000000000000000000000000000022ec3f70db00000000000000000000000000000000000000000000000000000000596708ce",
        "nonce": "0x375",
        "chainId": "0x1"
      },
      "additionalContracts": [],
      "isFixedGasLimit": false
    },
    {
      "hash": "0xdc327566013700dfbd5f7b49f60f0c9fdc86679085ab0c3e149235e6b815a7c3",
      "transactionType": "CALL",
      "contractName": null,
      "contractAddress": "0x7fcbcfe975b68b6914d7d3521e317fb682769aa2",
      "function": "withdrawPositionToken(address,uint256)",
      "arguments": [
        "0xf39Fd6e51aad88F6F4ce6aB8827279cffFb92266",
        "1499924686"
      ],
      "transaction": {
        "from": "0xf39fd6e51aad88f6f4ce6ab8827279cfffb92266",
        "to": "0x7fcbcfe975b68b6914d7d3521e317fb682769aa2",
        "gas": "0x3074a",
        "value": "0x0",
        "input": "0x14776d76000000000000000000000000f39fd6e51aad88f6f4ce6ab8827279cfffb9226600000000000000000000000000000000000000000000000000000000596708ce",
        "nonce": "0x376",
        "chainId": "0x1"
      },
      "additionalContracts": [],
      "isFixedGasLimit": false
    },
    {
      "hash": "0xacc0e18fa3cc541cf13983cfc5db1b4114df69da209901aef49cb7aeb74d224c",
      "transactionType": "CALL",
      "contractName": null,
      "contractAddress": "0xcf6c6272e9e353fc1f3e9a747a7b7aade3c83389",
      "function": "approve(address,uint256)",
      "arguments": [
        "0x7e0C07EEabb2459D70dba5b8d100Dca44c652aC0",
        "1499924686"
      ],
      "transaction": {
        "from": "0xf39fd6e51aad88f6f4ce6ab8827279cfffb92266",
        "to": "0xcf6c6272e9e353fc1f3e9a747a7b7aade3c83389",
        "gas": "0xf7a7",
        "value": "0x0",
        "input": "0x095ea7b30000000000000000000000007e0c07eeabb2459d70dba5b8d100dca44c652ac000000000000000000000000000000000000000000000000000000000596708ce",
        "nonce": "0x377",
        "chainId": "0x1"
      },
      "additionalContracts": [],
      "isFixedGasLimit": false
    },
    {
      "hash": "0xf6aa1ac93e1c43a494c7ceaeb5b96564c349733bc2873549107e9c108b64644a",
      "transactionType": "CALL",
      "contractName": null,
      "contractAddress": "0x7e0c07eeabb2459d70dba5b8d100dca44c652ac0",
      "function": "submitOrder(((address,address,uint24,int24,address),bool,uint256,uint256))",
      "arguments": [
        "((0x2fe19128A8257182fdD77f90eA96D27cA342897A, 0xcF6c6272E9e353fc1F3e9A747A7B7AADE3c83389, 500, 5, 0x7e0C07EEabb2459D70dba5b8d100Dca44c652aC0), false, 2592000, 1499924686)"
      ],
      "transaction": {
        "from": "0xf39fd6e51aad88f6f4ce6ab8827279cfffb92266",
        "to": "0x7e0c07eeabb2459d70dba5b8d100dca44c652ac0",
        "gas": "0x64009",
        "value": "0x0",
        "input": "0x676f863a0000000000000000000000002fe19128a8257182fdd77f90ea96d27ca342897a000000000000000000000000cf6c6272e9e353fc1f3e9a747a7b7aade3c8338900000000000000000000000000000000000000000000000000000000000001f400000000000000000000000000000000000000000000000000000000000000050000000000000000000000007e0c07eeabb2459d70dba5b8d100dca44c652ac000000000000000000000000000000000000000000000000000000000000000000000000000000000000000000000000000000000000000000000000000278d0000000000000000000000000000000000000000000000000000000000596708ce",
        "nonce": "0x378",
        "chainId": "0x1"
      },
      "additionalContracts": [],
      "isFixedGasLimit": false
    }
  ],
  "receipts": [
    {
      "status": "0x1",
      "cumulativeGasUsed": "0x4fc27",
      "logs": [
        {
          "address": "0x67ecfe4852561df7a0d8869b06a0f82dbc655033",
          "topics": [
            "0xddf252ad1be2c89b69c2b068fc378daa952ba7f163c4a11628f55a4df523b3ef",
            "0x0000000000000000000000000000000000000000000000000000000000000000",
            "0x000000000000000000000000f39fd6e51aad88f6f4ce6ab8827279cfffb92266",
            "0x0000000000000000000000007fcbcfe975b68b6914d7d3521e317fb682769aa2"
          ],
          "data": "0x",
          "blockHash": "0xd24f2457be5a2cb28f109f517dc900fe47a8e80e6389c62a9e405e2f4ba685f4",
          "blockNumber": "0x14b1914",
          "blockTimestamp": "0x6795000a",
          "transactionHash": "0x62a446124a21d93a833c16df0e0d49a07e5dab5121af330a4c6d58f39c8022bd",
          "transactionIndex": "0x0",
          "logIndex": "0x0",
          "removed": false
        },
        {
          "address": "0x67ecfe4852561df7a0d8869b06a0f82dbc655033",
          "topics": [
            "0xc418c83b1622e1e32aac5d6d2848134a7e89eb8e96c8514afd1757d25ee5ef71",
            "0x0000000000000000000000007fcbcfe975b68b6914d7d3521e317fb682769aa2",
            "0x000000000000000000000000f39fd6e51aad88f6f4ce6ab8827279cfffb92266"
          ],
          "data": "0x0000000000000000000000007fcbcfe975b68b6914d7d3521e317fb682769aa2",
          "blockHash": "0xd24f2457be5a2cb28f109f517dc900fe47a8e80e6389c62a9e405e2f4ba685f4",
          "blockNumber": "0x14b1914",
          "blockTimestamp": "0x6795000a",
          "transactionHash": "0x62a446124a21d93a833c16df0e0d49a07e5dab5121af330a4c6d58f39c8022bd",
          "transactionIndex": "0x0",
          "logIndex": "0x1",
          "removed": false
        }
      ],
      "logsBloom": "0x00000000000000000000100000000000000000000000000000000000000000000000000000000000000000000000000000000200000000000000000000000480800000000000000000000008000000000000000000000100800000000000000000000000020000000000000100000800000000000000000400000010000000000000000000000000000000000000000000000000000000000000000000000000000000000000000000000000000000000000000000000000000000000000000000000002000000200000000000000000000000002000000000000000000020000000000000000000000000000000000000000000000000000000000800000000",
      "type": "0x2",
      "transactionHash": "0x62a446124a21d93a833c16df0e0d49a07e5dab5121af330a4c6d58f39c8022bd",
      "transactionIndex": "0x0",
      "blockHash": "0xd24f2457be5a2cb28f109f517dc900fe47a8e80e6389c62a9e405e2f4ba685f4",
      "blockNumber": "0x14b1914",
      "gasUsed": "0x4fc27",
      "effectiveGasPrice": "0x5a1f4a7",
      "blobGasPrice": "0x1",
      "from": "0xf39fd6e51aad88f6f4ce6ab8827279cfffb92266",
      "to": "0x67ecfe4852561df7a0d8869b06a0f82dbc655033",
      "contractAddress": null
    },
    {
      "status": "0x1",
      "cumulativeGasUsed": "0xb5a1",
      "logs": [
        {
          "address": "0x2fe19128a8257182fdd77f90ea96d27ca342897a",
          "topics": [
            "0xddf252ad1be2c89b69c2b068fc378daa952ba7f163c4a11628f55a4df523b3ef",
            "0x000000000000000000000000f39fd6e51aad88f6f4ce6ab8827279cfffb92266",
            "0x0000000000000000000000007fcbcfe975b68b6914d7d3521e317fb682769aa2"
          ],
          "data": "0x00000000000000000000000000000000000000000000000000000022ec3f70db",
          "blockHash": "0xbd0f7f3dccef22a6d9a5923fca647a6a103f7a98da0294201d16811115ff561a",
          "blockNumber": "0x14b1915",
          "blockTimestamp": "0x6795000a",
          "transactionHash": "0x3749d349cc26716fb2b2f28944ff6f6b86ee16dd22d213a6899e2e214116fd3f",
          "transactionIndex": "0x0",
          "logIndex": "0x0",
          "removed": false
        }
      ],
      "logsBloom": "0x00000000000000000000000000000000000000000000000000000000000000000000000000000000000000004000000000000000000000000000000000000480000000000000000000000008000000000000000000000000800000000000000000000000000000000000000100000000000000000000000000000010000000000000000000000000000000000000000000000000000000000000000000000000000000000000000000000000000000000040000000000000000000000000000000000002000000200000000000000000000000002000000000000000000000000000000000000000000000000000000020000000000000000000000000000000",
      "type": "0x2",
      "transactionHash": "0x3749d349cc26716fb2b2f28944ff6f6b86ee16dd22d213a6899e2e214116fd3f",
      "transactionIndex": "0x0",
      "blockHash": "0xbd0f7f3dccef22a6d9a5923fca647a6a103f7a98da0294201d16811115ff561a",
      "blockNumber": "0x14b1915",
      "gasUsed": "0xb5a1",
      "effectiveGasPrice": "0x5a1f4a7",
      "blobGasPrice": "0x1",
      "from": "0xf39fd6e51aad88f6f4ce6ab8827279cfffb92266",
      "to": "0x2fe19128a8257182fdd77f90ea96d27ca342897a",
      "contractAddress": null
    },
    {
      "status": "0x1",
      "cumulativeGasUsed": "0x5292a",
      "logs": [
        {
          "address": "0xcf6c6272e9e353fc1f3e9a747a7b7aade3c83389",
          "topics": [
            "0xddf252ad1be2c89b69c2b068fc378daa952ba7f163c4a11628f55a4df523b3ef",
            "0x0000000000000000000000000000000000000000000000000000000000000000",
            "0x0000000000000000000000007fcbcfe975b68b6914d7d3521e317fb682769aa2"
          ],
          "data": "0x00000000000000000000000000000000000000000000000000000000596708ce",
          "blockHash": "0xf2cc86414f4027e723a9267e8c45ab6c53f439bd45f2caf661c56c8447b1f1f0",
          "blockNumber": "0x14b1916",
          "blockTimestamp": "0x6795000a",
          "transactionHash": "0xf6aa1ac93e1c43a494c7ceaeb5b96564c349733bc2873549107e9c108b64644a",
          "transactionIndex": "0x0",
          "logIndex": "0x0",
          "removed": false
        },
        {
          "address": "0x6b5cf024365d5d5d0786673780ca7e3f07f85b63",
          "topics": [
            "0x343ef6bfd54be4f7cb6918335f3d2788a88dfadfc586a5c32c67c2f3b61c6338",
            "0x12bd6ec818ecae6e8571bb097586328e1649ec9a036bc6a558f4dacb423e447c",
            "0x0000000000000000000000007fcbcfe975b68b6914d7d3521e317fb682769aa2"
          ],
          "data": "0x00000000000000000000000000000000000000000000000000000022ec3f70db00000000000000000000000000000000000000000000000000000000596708ce",
          "blockHash": "0xf2cc86414f4027e723a9267e8c45ab6c53f439bd45f2caf661c56c8447b1f1f0",
          "blockNumber": "0x14b1916",
          "blockTimestamp": "0x6795000a",
          "transactionHash": "0xf6aa1ac93e1c43a494c7ceaeb5b96564c349733bc2873549107e9c108b64644a",
          "transactionIndex": "0x0",
          "logIndex": "0x1",
          "removed": false
        },
        {
          "address": "0x2fe19128a8257182fdd77f90ea96d27ca342897a",
          "topics": [
            "0x8c5be1e5ebec7d5bd14f71427d1e84f3dd0314c0f7b2291e5b200ac8c7c3b925",
            "0x0000000000000000000000007fcbcfe975b68b6914d7d3521e317fb682769aa2",
            "0x0000000000000000000000006b5cf024365d5d5d0786673780ca7e3f07f85b63"
          ],
          "data": "0x00000000000000000000000000000000000000000000000000000022ec3f70db",
          "blockHash": "0xf2cc86414f4027e723a9267e8c45ab6c53f439bd45f2caf661c56c8447b1f1f0",
          "blockNumber": "0x14b1916",
          "blockTimestamp": "0x6795000a",
          "transactionHash": "0xf6aa1ac93e1c43a494c7ceaeb5b96564c349733bc2873549107e9c108b64644a",
          "transactionIndex": "0x0",
          "logIndex": "0x2",
          "removed": false
        }
      ],
      "logsBloom": "0x00000000000000000000000000000000000000000000000000000000200004000000000000000000000000004000000000000000000000000000000000200480000000800000000000000008000000000000000000000001808000000000000000000000024000000000800000200800000000000000000000000010000000000000000000200000000100000000000000000000000000000000000000000002020000000000000000000000000000000040000000000000000000000000000000000002000000000000000000000000000000010000008000000000000020300010000000000000000000000000000020000000000000000000000000000000",
      "type": "0x2",
      "transactionHash": "0xf6aa1ac93e1c43a494c7ceaeb5b96564c349733bc2873549107e9c108b64644a",
      "transactionIndex": "0x0",
      "blockHash": "0xf2cc86414f4027e723a9267e8c45ab6c53f439bd45f2caf661c56c8447b1f1f0",
      "blockNumber": "0x14b1916",
      "gasUsed": "0x5292a",
      "effectiveGasPrice": "0x5a1f4a7",
      "blobGasPrice": "0x1",
      "from": "0xf39fd6e51aad88f6f4ce6ab8827279cfffb92266",
      "to": "0x7fcbcfe975b68b6914d7d3521e317fb682769aa2",
      "contractAddress": null
    },
    {
      "status": "0x1",
      "cumulativeGasUsed": "0x75a77",
      "logs": [
        {
          "address": "0xcf6c6272e9e353fc1f3e9a747a7b7aade3c83389",
          "topics": [
            "0xddf252ad1be2c89b69c2b068fc378daa952ba7f163c4a11628f55a4df523b3ef",
            "0x0000000000000000000000007fcbcfe975b68b6914d7d3521e317fb682769aa2",
            "0x000000000000000000000000f39fd6e51aad88f6f4ce6ab8827279cfffb92266"
          ],
          "data": "0x00000000000000000000000000000000000000000000000000000000596708ce",
          "blockHash": "0xf2cc86414f4027e723a9267e8c45ab6c53f439bd45f2caf661c56c8447b1f1f0",
          "blockNumber": "0x14b1916",
          "blockTimestamp": "0x6795000a",
          "transactionHash": "0xacc0e18fa3cc541cf13983cfc5db1b4114df69da209901aef49cb7aeb74d224c",
          "transactionIndex": "0x1",
          "logIndex": "0x3",
          "removed": false
        }
      ],
      "logsBloom": "0x00000000000000000000000000000000000000000000000000000000000004000000000000000000000000000000000000000000000000000000000000000480000000000000000000000008000000000000000000000000808000000000000000000000000000000000000100000000000000000000000000000010000000000000000000200000000000000000000000000000000000000000000000000000000000000000000000000000000000000000000000000000000000000000000000000002000000200000000000000000000000002000000000000000000000000000000000000000000000000000000000000000000000000000000000000000",
      "type": "0x2",
      "transactionHash": "0xacc0e18fa3cc541cf13983cfc5db1b4114df69da209901aef49cb7aeb74d224c",
      "transactionIndex": "0x1",
      "blockHash": "0xf2cc86414f4027e723a9267e8c45ab6c53f439bd45f2caf661c56c8447b1f1f0",
      "blockNumber": "0x14b1916",
      "gasUsed": "0x2314d",
      "effectiveGasPrice": "0x5a1f4a7",
      "blobGasPrice": "0x1",
      "from": "0xf39fd6e51aad88f6f4ce6ab8827279cfffb92266",
      "to": "0x7fcbcfe975b68b6914d7d3521e317fb682769aa2",
      "contractAddress": null
    },
    {
      "status": "0x1",
      "cumulativeGasUsed": "0x80dc4",
      "logs": [
        {
          "address": "0xcf6c6272e9e353fc1f3e9a747a7b7aade3c83389",
          "topics": [
            "0x8c5be1e5ebec7d5bd14f71427d1e84f3dd0314c0f7b2291e5b200ac8c7c3b925",
            "0x000000000000000000000000f39fd6e51aad88f6f4ce6ab8827279cfffb92266",
            "0x0000000000000000000000007e0c07eeabb2459d70dba5b8d100dca44c652ac0"
          ],
          "data": "0x00000000000000000000000000000000000000000000000000000000596708ce",
          "blockHash": "0xf2cc86414f4027e723a9267e8c45ab6c53f439bd45f2caf661c56c8447b1f1f0",
          "blockNumber": "0x14b1916",
          "blockTimestamp": "0x6795000a",
          "transactionHash": "0x8101e7091cc3ff46b7aae3d7b00096967de1e25eb5c923e05205f2dc1d419b9e",
          "transactionIndex": "0x2",
          "logIndex": "0x4",
          "removed": false
        }
      ],
      "logsBloom": "0x00000000000000000000000000000000000000000000000000000000000004000000000000000000000000000000000000000000000002000000000000200000000000000000000000000000000000000000000000000000008000000000000000000000000000000000000100000000000000000000000000000000000000000000000000200000000000000000000000000000000000000000000000000000020000000000000000000000000000000000000000000000000000000000000000000000000000200000000000000000000000002000001000000000000000000010000000000000000000000000000000000000000002000000000000000000",
      "type": "0x2",
      "transactionHash": "0x8101e7091cc3ff46b7aae3d7b00096967de1e25eb5c923e05205f2dc1d419b9e",
      "transactionIndex": "0x2",
      "blockHash": "0xf2cc86414f4027e723a9267e8c45ab6c53f439bd45f2caf661c56c8447b1f1f0",
      "blockNumber": "0x14b1916",
      "gasUsed": "0xb34d",
      "effectiveGasPrice": "0x5a1f4a7",
      "blobGasPrice": "0x1",
      "from": "0xf39fd6e51aad88f6f4ce6ab8827279cfffb92266",
      "to": "0xcf6c6272e9e353fc1f3e9a747a7b7aade3c83389",
      "contractAddress": null
    },
    {
      "status": "0x1",
      "cumulativeGasUsed": "0xc53cf",
      "logs": [
        {
          "address": "0xcf6c6272e9e353fc1f3e9a747a7b7aade3c83389",
          "topics": [
            "0xddf252ad1be2c89b69c2b068fc378daa952ba7f163c4a11628f55a4df523b3ef",
            "0x000000000000000000000000f39fd6e51aad88f6f4ce6ab8827279cfffb92266",
            "0x0000000000000000000000007e0c07eeabb2459d70dba5b8d100dca44c652ac0"
          ],
          "data": "0x00000000000000000000000000000000000000000000000000000000594c5a00",
          "blockHash": "0xf2cc86414f4027e723a9267e8c45ab6c53f439bd45f2caf661c56c8447b1f1f0",
          "blockNumber": "0x14b1916",
          "blockTimestamp": "0x6795000a",
          "transactionHash": "0xdc327566013700dfbd5f7b49f60f0c9fdc86679085ab0c3e149235e6b815a7c3",
          "transactionIndex": "0x3",
          "logIndex": "0x5",
          "removed": false
        },
        {
          "address": "0x7e0c07eeabb2459d70dba5b8d100dca44c652ac0",
          "topics": [
            "0xaad1dbbd649002bdbd8281df7f1bc9398548f080a76b5ccece0b61709e2b69cc",
            "0xda100fc1dc21b46f06f5280dc915ca828c53bb63f3b33f171b40f25288da2e93",
            "0xecaef550f9d08539a275726da1263598c32b7a97163faa7b00b18f979b45befc",
            "0x000000000000000000000000f39fd6e51aad88f6f4ce6ab8827279cfffb92266"
          ],
          "data": "0x00000000000000000000000000000000000000000000000000000000596708ce0000000000000000000000000000000000000000000000000000000067bc8970000000000000000000000000000000000000000000000000000000000000000000000000000000000000000000000000000000000000000000000000000002420000000000000000000000000000000000000000000000000000000000000000",
          "blockHash": "0xf2cc86414f4027e723a9267e8c45ab6c53f439bd45f2caf661c56c8447b1f1f0",
          "blockNumber": "0x14b1916",
          "blockTimestamp": "0x6795000a",
          "transactionHash": "0xdc327566013700dfbd5f7b49f60f0c9fdc86679085ab0c3e149235e6b815a7c3",
          "transactionIndex": "0x3",
          "logIndex": "0x6",
          "removed": false
        }
      ],
      "logsBloom": "0x00000000000000020000000000001000000000000000000000000000000004000000000000000000000000000000000000000000000002000000000000000000000000000000000000000008000000000000000000000080008000002000000000000000000000000000002100000000000000000000000000000010000000000000000000200000000000000000000000000000000000000000000000000000000000000000000040000000060000000000800000000000000000000000000000000002000000200000000000000000010000002000001000000000000000000000000000000040000000000000000000000000020002000000000000000000",
      "type": "0x2",
      "transactionHash": "0xdc327566013700dfbd5f7b49f60f0c9fdc86679085ab0c3e149235e6b815a7c3",
      "transactionIndex": "0x3",
      "blockHash": "0xf2cc86414f4027e723a9267e8c45ab6c53f439bd45f2caf661c56c8447b1f1f0",
      "blockNumber": "0x14b1916",
      "gasUsed": "0x4460b",
      "effectiveGasPrice": "0x5a1f4a7",
      "blobGasPrice": "0x1",
      "from": "0xf39fd6e51aad88f6f4ce6ab8827279cfffb92266",
      "to": "0x7e0c07eeabb2459d70dba5b8d100dca44c652ac0",
      "contractAddress": null
    }
  ],
  "libraries": [],
  "pending": [],
  "returns": {},
  "timestamp": 1770061032971,
  "chain": 1,
  "commit": "290e97f"
}