{
  "transactions": [
    {
      "hash": "0xdaae1ad63861900657e87f5455d852c048ba0b6140ac3daf16fab20505d62c69",
      "transactionType": "CALL",
      "contractName": null,
      "contractAddress": "0xa0ec5dc31910a35bafa8c04e7f2735098fcb2ede",
      "function": "createBroker(bytes32)",
      "arguments": [
        "0x4ce433616787dfbe16930f48574945f5c0b1c9f2413decca704193382ddde2ac"
      ],
      "transaction": {
        "from": "0xf39fd6e51aad88f6f4ce6ab8827279cfffb92266",
        "to": "0xa0ec5dc31910a35bafa8c04e7f2735098fcb2ede",
        "gas": "0x73ed6",
        "value": "0x0",
        "input": "0x26f4f1234ce433616787dfbe16930f48574945f5c0b1c9f2413decca704193382ddde2ac",
        "nonce": "0x1296",
        "chainId": "0x1"
      },
      "additionalContracts": [
        {
          "transactionType": "CREATE2",
          "contractName": null,
          "address": "0x82be913e4ebac6cd2365c4355d08c67343dab576",
          "initCode": "0x3d602d80600a3d3981f3363d3d373d3d3d363d73d1df7ed77228e38c8799e56fae9e4488ab0c70f25af43d82803e903d91602b57fd5bf3"
        }
      ],
      "isFixedGasLimit": false
    },
    {
      "hash": "0x149886b0e45519889c621ed5dcd9d85880444d0cbf08b06e77961e7578568691",
      "transactionType": "CALL",
      "contractName": null,
      "contractAddress": "0x51d5cacc6aa178df8f28237fe21de98676cd369a",
      "function": "transfer(address,uint256)",
      "arguments": [
        "0x82BE913E4ebaC6cd2365c4355D08c67343Dab576",
        "49999999999"
      ],
      "transaction": {
        "from": "0xf39fd6e51aad88f6f4ce6ab8827279cfffb92266",
        "to": "0x51d5cacc6aa178df8f28237fe21de98676cd369a",
        "gas": "0x109a1",
        "value": "0x0",
        "input": "0xa9059cbb00000000000000000000000082be913e4ebac6cd2365c4355d08c67343dab5760000000000000000000000000000000000000000000000000000000ba43b73ff",
        "nonce": "0x1297",
        "chainId": "0x1"
      },
      "additionalContracts": [],
      "isFixedGasLimit": false
    },
    {
      "hash": "0x723bca16c6ed56d9166167175ad7b83da43c0a4f4d3babbbdacf5e2c3fed84de",
      "transactionType": "CALL",
      "contractName": null,
      "contractAddress": "0x82be913e4ebac6cd2365c4355d08c67343dab576",
      "function": "modifyPosition(bytes32,int256,int256)",
      "arguments": [
        "0x5b5b4d5011e77b70f94df37a5257d036c3d88d869873dd97159aa2c0315d0648",
        "49999999999",
        "499999999"
      ],
      "transaction": {
        "from": "0xf39fd6e51aad88f6f4ce6ab8827279cfffb92266",
        "to": "0x82be913e4ebac6cd2365c4355d08c67343dab576",
        "gas": "0x7c353",
        "value": "0x0",
        "input": "0x1b89f3d45b5b4d5011e77b70f94df37a5257d036c3d88d869873dd97159aa2c0315d06480000000000000000000000000000000000000000000000000000000ba43b73ff000000000000000000000000000000000000000000000000000000001dcd64ff",
        "nonce": "0x1298",
        "chainId": "0x1"
      },
      "additionalContracts": [],
      "isFixedGasLimit": false
    }
  ],
  "receipts": [
    {
      "status": "0x1",
      "cumulativeGasUsed": "0x53edf",
      "logs": [
        {
          "address": "0xa0ec5dc31910a35bafa8c04e7f2735098fcb2ede",
          "topics": [
            "0xddf252ad1be2c89b69c2b068fc378daa952ba7f163c4a11628f55a4df523b3ef",
            "0x0000000000000000000000000000000000000000000000000000000000000000",
            "0x000000000000000000000000f39fd6e51aad88f6f4ce6ab8827279cfffb92266",
            "0x00000000000000000000000082be913e4ebac6cd2365c4355d08c67343dab576"
          ],
          "data": "0x",
          "blockHash": "0x2480b7e1037c4ed32073b8dfa7a78078e6e1368c73ea02789865b902c698ef00",
          "blockNumber": "0x173c1de",
          "blockTimestamp": "0x6981245c",
          "transactionHash": "0xdaae1ad63861900657e87f5455d852c048ba0b6140ac3daf16fab20505d62c69",
          "transactionIndex": "0x0",
          "logIndex": "0x0",
          "removed": false
        },
        {
          "address": "0xa0ec5dc31910a35bafa8c04e7f2735098fcb2ede",
          "topics": [
            "0xc418c83b1622e1e32aac5d6d2848134a7e89eb8e96c8514afd1757d25ee5ef71",
            "0x00000000000000000000000082be913e4ebac6cd2365c4355d08c67343dab576",
            "0x000000000000000000000000f39fd6e51aad88f6f4ce6ab8827279cfffb92266"
          ],
          "data": "0x00000000000000000000000082be913e4ebac6cd2365c4355d08c67343dab576",
          "blockHash": "0x2480b7e1037c4ed32073b8dfa7a78078e6e1368c73ea02789865b902c698ef00",
          "blockNumber": "0x173c1de",
          "blockTimestamp": "0x6981245c",
          "transactionHash": "0xdaae1ad63861900657e87f5455d852c048ba0b6140ac3daf16fab20505d62c69",
          "transactionIndex": "0x0",
          "logIndex": "0x1",
          "removed": false
        }
      ],
      "logsBloom": "0x00000000000000000000100000000000000000000000000000000000000000000000000000000000100000000000000000000200000000000000000000000000000000000000000000000008000000000000000000000100000000000000000000000000020000000000000100000800000000000000000000000810000000000000000000000000000000000000000000000000020000200000000000000000000000000000000000000000000000000000000000000000000000000000000000000002000000200000000000000000000200002000000000000000000020000000000004000000000000000000000000000000000000000000000000000000",
      "type": "0x2",
      "transactionHash": "0xdaae1ad63861900657e87f5455d852c048ba0b6140ac3daf16fab20505d62c69",
      "transactionIndex": "0x0",
      "blockHash": "0x2480b7e1037c4ed32073b8dfa7a78078e6e1368c73ea02789865b902c698ef00",
      "blockNumber": "0x173c1de",
      "gasUsed": "0x53edf",
      "effectiveGasPrice": "0x5e3",
      "blobGasPrice": "0x1",
      "from": "0xf39fd6e51aad88f6f4ce6ab8827279cfffb92266",
      "to": "0xa0ec5dc31910a35bafa8c04e7f2735098fcb2ede",
      "contractAddress": null
    },
    {
      "status": "0x1",
      "cumulativeGasUsed": "0xb5a1",
      "logs": [
        {
          "address": "0x51d5cacc6aa178df8f28237fe21de98676cd369a",
          "topics": [
            "0xddf252ad1be2c89b69c2b068fc378daa952ba7f163c4a11628f55a4df523b3ef",
            "0x000000000000000000000000f39fd6e51aad88f6f4ce6ab8827279cfffb92266",
            "0x00000000000000000000000082be913e4ebac6cd2365c4355d08c67343dab576"
          ],
          "data": "0x0000000000000000000000000000000000000000000000000000000ba43b73ff",
          "blockHash": "0x7a363f6d59b6546c05fc14b3e02e15ca51366e9b3e89e736d13e8f8746fcd87c",
          "blockNumber": "0x173c1df",
          "blockTimestamp": "0x6981245c",
          "transactionHash": "0x723bca16c6ed56d9166167175ad7b83da43c0a4f4d3babbbdacf5e2c3fed84de",
          "transactionIndex": "0x0",
          "logIndex": "0x0",
          "removed": false
        }
      ],
      "logsBloom": "0x00000100000000000000000000000000000000000000000000000000000000000000000000000000000000000000000000000000000000000000000000000000000000000000000000000008000000000000000000000000000000000000000000000000000000000000000100000000000000000000000000000010000000000000000000000000000000000000000000000000020000000000000000000000000000000000000000000000000000000000000000000000000000000000080000000002000000200000000000000100000200002000000000000000000000000000000004000000000000000000000000000000000000000000000000000000",
      "type": "0x2",
      "transactionHash": "0x723bca16c6ed56d9166167175ad7b83da43c0a4f4d3babbbdacf5e2c3fed84de",
      "transactionIndex": "0x0",
      "blockHash": "0x7a363f6d59b6546c05fc14b3e02e15ca51366e9b3e89e736d13e8f8746fcd87c",
      "blockNumber": "0x173c1df",
      "gasUsed": "0xb5a1",
      "effectiveGasPrice": "0x5e3",
      "blobGasPrice": "0x1",
      "from": "0xf39fd6e51aad88f6f4ce6ab8827279cfffb92266",
      "to": "0x51d5cacc6aa178df8f28237fe21de98676cd369a",
      "contractAddress": null
    },
    {
      "status": "0x1",
      "cumulativeGasUsed": "0x6047c",
      "logs": [
        {
          "address": "0xf93ddc4186828351b8d31623cc4f3700bf579f25",
          "topics": [
            "0xddf252ad1be2c89b69c2b068fc378daa952ba7f163c4a11628f55a4df523b3ef",
            "0x0000000000000000000000000000000000000000000000000000000000000000",
            "0x00000000000000000000000082be913e4ebac6cd2365c4355d08c67343dab576"
          ],
          "data": "0x000000000000000000000000000000000000000000000000000000001dcd64ff",
          "blockHash": "0x7a363f6d59b6546c05fc14b3e02e15ca51366e9b3e89e736d13e8f8746fcd87c",
          "blockNumber": "0x173c1df",
          "blockTimestamp": "0x6981245c",
          "transactionHash": "0x149886b0e45519889c621ed5dcd9d85880444d0cbf08b06e77961e7578568691",
          "transactionIndex": "0x1",
          "logIndex": "0x1",
          "removed": false
        },
        {
          "address": "0x766542304e16e3585d569705b0eff4756efa6cac",
          "topics": [
            "0x343ef6bfd54be4f7cb6918335f3d2788a88dfadfc586a5c32c67c2f3b61c6338",
            "0x5b5b4d5011e77b70f94df37a5257d036c3d88d869873dd97159aa2c0315d0648",
            "0x00000000000000000000000082be913e4ebac6cd2365c4355d08c67343dab576"
          ],
          "data": "0x0000000000000000000000000000000000000000000000000000000ba43b73ff000000000000000000000000000000000000000000000000000000001dcd64ff",
          "blockHash": "0x7a363f6d59b6546c05fc14b3e02e15ca51366e9b3e89e736d13e8f8746fcd87c",
          "blockNumber": "0x173c1df",
          "blockTimestamp": "0x6981245c",
          "transactionHash": "0x149886b0e45519889c621ed5dcd9d85880444d0cbf08b06e77961e7578568691",
          "transactionIndex": "0x1",
          "logIndex": "0x2",
          "removed": false
        },
        {
          "address": "0x51d5cacc6aa178df8f28237fe21de98676cd369a",
          "topics": [
            "0x8c5be1e5ebec7d5bd14f71427d1e84f3dd0314c0f7b2291e5b200ac8c7c3b925",
            "0x00000000000000000000000082be913e4ebac6cd2365c4355d08c67343dab576",
            "0x000000000000000000000000766542304e16e3585d569705b0eff4756efa6cac"
          ],
          "data": "0x0000000000000000000000000000000000000000000000000000000ba43b73ff",
          "blockHash": "0x7a363f6d59b6546c05fc14b3e02e15ca51366e9b3e89e736d13e8f8746fcd87c",
          "blockNumber": "0x173c1df",
          "blockTimestamp": "0x6981245c",
          "transactionHash": "0x149886b0e45519889c621ed5dcd9d85880444d0cbf08b06e77961e7578568691",
          "transactionIndex": "0x1",
          "logIndex": "0x3",
          "removed": false
        }
      ],
      "logsBloom": "0x00000100000000000000000000000000000000000000080000000000000000000000000000000000400000000000000000000000000000000000000000200000000000000000000000000008000000080000000000000000000000000000000000000000024000000000000000000800000000000000000000000010000000000000000000000000000000000000000000000000020000000000001000000002020000000000000000000100000000000000000000040200000000100000080000000002000000000000000000000100008200000000000000000010000020100010000004000000000000000000000000020000000000040000000000000000",
      "type": "0x2",
      "transactionHash": "0x149886b0e45519889c621ed5dcd9d85880444d0cbf08b06e77961e7578568691",
      "transactionIndex": "0x1",
      "blockHash": "0x7a363f6d59b6546c05fc14b3e02e15ca51366e9b3e89e736d13e8f8746fcd87c",
      "blockNumber": "0x173c1df",
      "gasUsed": "0x54edb",
      "effectiveGasPrice": "0x5e3",
      "blobGasPrice": "0x1",
      "from": "0xf39fd6e51aad88f6f4ce6ab8827279cfffb92266",
      "to": "0x82be913e4ebac6cd2365c4355d08c67343dab576",
      "contractAddress": null
    }
  ],
  "libraries": [],
  "pending": [],
  "returns": {},
  "timestamp": 1770046989598,
  "chain": 1,
  "commit": "290e97f"
}