{
  "transactions": [
    {
      "hash": "0x49c02d0af252e42540629eae603102355597278c206aa9b6f6613c46377c1c4d",
      "transactionType": "CALL",
      "contractName": null,
      "contractAddress": "0xbb20a1c05f54c9ef20a9f5a20587f345932ff236",
      "function": "createBroker(bytes32)",
      "arguments": [
        "0xe6a039072f7bf5bccd409c03e23b5ba78cf550c26d0a813528a151c4b45242b3"
      ],
      "transaction": {
        "from": "0xf39fd6e51aad88f6f4ce6ab8827279cfffb92266",
        "to": "0xbb20a1c05f54c9ef20a9f5a20587f345932ff236",
        "gas": "0x73ed6",
        "value": "0x0",
        "input": "0x26f4f123e6a039072f7bf5bccd409c03e23b5ba78cf550c26d0a813528a151c4b45242b3",
        "nonce": "0x1288",
        "chainId": "0x1"
      },
      "additionalContracts": [
        {
          "transactionType": "CREATE2",
          "contractName": null,
          "address": "0xc7b9f5c40f06637d87358bdc5e5d255695166f2c",
          "initCode": "0x3d602d80600a3d3981f3363d3d373d3d3d363d73d1df7ed77228e38c8799e56fae9e4488ab0c70f25af43d82803e903d91602b57fd5bf3"
        }
      ],
      "isFixedGasLimit": false
    },
    {
      "hash": "0x1191c8764c98b893a706ecd0da4ed67641259fcff52cbecd1445847efe5a6392",
      "transactionType": "CALL",
      "contractName": null,
      "contractAddress": "0xa1da18755de55f3929620a530968a28f16ea981d",
      "function": "transfer(address,uint256)",
      "arguments": [
        "0xc7B9F5c40f06637D87358bDC5E5D255695166F2c",
        "499995703432"
      ],
      "transaction": {
        "from": "0xf39fd6e51aad88f6f4ce6ab8827279cfffb92266",
        "to": "0xa1da18755de55f3929620a530968a28f16ea981d",
        "gas": "0x109a1",
        "value": "0x0",
        "input": "0xa9059cbb000000000000000000000000c7b9f5c40f06637d87358bdc5e5d255695166f2c000000000000000000000000000000000000000000000000000000746a10f888",
        "nonce": "0x1289",
        "chainId": "0x1"
      },
      "additionalContracts": [],
      "isFixedGasLimit": false
    },
    {
      "hash": "0x8e3c2837efc887c9bff61c03bfdcbf6d710ca356008c031764c6775599cac255",
      "transactionType": "CALL",
      "contractName": null,
      "contractAddress": "0xc7b9f5c40f06637d87358bdc5e5d255695166f2c",
      "function": "modifyPosition(bytes32,int256,int256)",
      "arguments": [
        "0x56d02bade54cf9cd09b965dbc4e652aed2668f83e0d1686ae3a4c285551755c3",
        "499995703432",
        "4999957034"
      ],
      "transaction": {
        "from": "0xf39fd6e51aad88f6f4ce6ab8827279cfffb92266",
        "to": "0xc7b9f5c40f06637d87358bdc5e5d255695166f2c",
        "gas": "0x754fb",
        "value": "0x0",
        "input": "0x1b89f3d456d02bade54cf9cd09b965dbc4e652aed2668f83e0d1686ae3a4c285551755c3000000000000000000000000000000000000000000000000000000746a10f888000000000000000000000000000000000000000000000000000000012a054a2a",
        "nonce": "0x128a",
        "chainId": "0x1"
      },
      "additionalContracts": [],
      "isFixedGasLimit": false
    }
  ],
  "receipts": [
    {
      "status": "0x1",
      "cumulativeGasUsed": "0x53edf",
      "logs": [
        {
          "address": "0xbb20a1c05f54c9ef20a9f5a20587f345932ff236",
          "topics": [
            "0xddf252ad1be2c89b69c2b068fc378daa952ba7f163c4a11628f55a4df523b3ef",
            "0x0000000000000000000000000000000000000000000000000000000000000000",
            "0x000000000000000000000000f39fd6e51aad88f6f4ce6ab8827279cfffb92266",
            "0x000000000000000000000000c7b9f5c40f06637d87358bdc5e5d255695166f2c"
          ],
          "data": "0x",
          "blockHash": "0x1968ab93fb1644ddeb0cbc890961ac916e11fcc9014aca568e5f65fd678ae585",
          "blockNumber": "0x173c1c3",
          "blockTimestamp": "0x6980ae0d",
          "transactionHash": "0x49c02d0af252e42540629eae603102355597278c206aa9b6f6613c46377c1c4d",
          "transactionIndex": "0x0",
          "logIndex": "0x0",
          "removed": false
        },
        {
          "address": "0xbb20a1c05f54c9ef20a9f5a20587f345932ff236",
          "topics": [
            "0xc418c83b1622e1e32aac5d6d2848134a7e89eb8e96c8514afd1757d25ee5ef71",
            "0x000000000000000000000000c7b9f5c40f06637d87358bdc5e5d255695166f2c",
            "0x000000000000000000000000f39fd6e51aad88f6f4ce6ab8827279cfffb92266"
          ],
          "data": "0x000000000000000000000000c7b9f5c40f06637d87358bdc5e5d255695166f2c",
          "blockHash": "0x1968ab93fb1644ddeb0cbc890961ac916e11fcc9014aca568e5f65fd678ae585",
          "blockNumber": "0x173c1c3",
          "blockTimestamp": "0x6980ae0d",
          "transactionHash": "0x49c02d0af252e42540629eae603102355597278c206aa9b6f6613c46377c1c4d",
          "transactionIndex": "0x0",
          "logIndex": "0x1",
          "removed": false
        }
      ],
      "logsBloom": "0x00000000000000000000100000000000000000000000000000000000000000000000000000000000000000000000000000000200000000000000000000000000000000000000000000000008000000000000000000000100000000000000000000000000020000000000000100000800000100000000000000000010000000000000000000000000000000000000000000108000000000000000000000000000000000000000000000002000000000000000000000000000000000000000000000000002000000200000004000000000000000002000000000000000000020000000000000000000000000000000000000000000002000000000000000000000",
      "type": "0x2",
      "transactionHash": "0x49c02d0af252e42540629eae603102355597278c206aa9b6f6613c46377c1c4d",
      "transactionIndex": "0x0",
      "blockHash": "0x1968ab93fb1644ddeb0cbc890961ac916e11fcc9014aca568e5f65fd678ae585",
      "blockNumber": "0x173c1c3",
      "gasUsed": "0x53edf",
      "effectiveGasPrice": "0x623",
      "blobGasPrice": "0x1",
      "from": "0xf39fd6e51aad88f6f4ce6ab8827279cfffb92266",
      "to": "0xbb20a1c05f54c9ef20a9f5a20587f345932ff236",
      "contractAddress": null
    },
    {
      "status": "0x1",
      "cumulativeGasUsed": "0xb5a1",
      "logs": [
        {
          "address": "0xa1da18755de55f3929620a530968a28f16ea981d",
          "topics": [
            "0xddf252ad1be2c89b69c2b068fc378daa952ba7f163c4a11628f55a4df523b3ef",
            "0x000000000000000000000000f39fd6e51aad88f6f4ce6ab8827279cfffb92266",
            "0x000000000000000000000000c7b9f5c40f06637d87358bdc5e5d255695166f2c"
          ],
          "data": "0x000000000000000000000000000000000000000000000000000000746a10f888",
          "blockHash": "0x23493e5e126a0f5751177ece4e3d83c21b6d68ec52e0088a00dafa7f3b12114e",
          "blockNumber": "0x173c1c4",
          "blockTimestamp": "0x6980ae0d",
          "transactionHash": "0x1191c8764c98b893a706ecd0da4ed67641259fcff52cbecd1445847efe5a6392",
          "transactionIndex": "0x0",
          "logIndex": "0x0",
          "removed": false
        }
      ],
      "logsBloom": "0x00000000000000000000000000000000000000000000000000000000000000000000000000000000000000000000000000000000000000000000000000000000000000000000000000000008000000000000000000000000000000000000000000000000000000000000000100000000000100000000100000000010000000000000000000000200000000000000000000000000000000000000000000000000002000000000000000002000000000000000000000000000000000000000000000000002000000200000004000000000000000002000000000000000000000000000000000000000000000000000000000000000000000000000000000000000",
      "type": "0x2",
      "transactionHash": "0x1191c8764c98b893a706ecd0da4ed67641259fcff52cbecd1445847efe5a6392",
      "transactionIndex": "0x0",
      "blockHash": "0x23493e5e126a0f5751177ece4e3d83c21b6d68ec52e0088a00dafa7f3b12114e",
      "blockNumber": "0x173c1c4",
      "gasUsed": "0xb5a1",
      "effectiveGasPrice": "0x61b",
      "blobGasPrice": "0x1",
      "from": "0xf39fd6e51aad88f6f4ce6ab8827279cfffb92266",
      "to": "0xa1da18755de55f3929620a530968a28f16ea981d",
      "contractAddress": null
    },
    {
      "status": "0x1",
      "cumulativeGasUsed": "0x60488",
      "logs": [
        {
          "address": "0xc6c7c316e4cbbd73cc36280e2e290487a42c11d0",
          "topics": [
            "0xddf252ad1be2c89b69c2b068fc378daa952ba7f163c4a11628f55a4df523b3ef",
            "0x0000000000000000000000000000000000000000000000000000000000000000",
            "0x000000000000000000000000c7b9f5c40f06637d87358bdc5e5d255695166f2c"
          ],
          "data": "0x000000000000000000000000000000000000000000000000000000012a054a2a",
          "blockHash": "0x23493e5e126a0f5751177ece4e3d83c21b6d68ec52e0088a00dafa7f3b12114e",
          "blockNumber": "0x173c1c4",
          "blockTimestamp": "0x6980ae0d",
          "transactionHash": "0x8e3c2837efc887c9bff61c03bfdcbf6d710ca356008c031764c6775599cac255",
          "transactionIndex": "0x1",
          "logIndex": "0x1",
          "removed": false
        },
        {
          "address": "0x766542304e16e3585d569705b0eff4756efa6cac",
          "topics": [
            "0x343ef6bfd54be4f7cb6918335f3d2788a88dfadfc586a5c32c67c2f3b61c6338",
            "0x56d02bade54cf9cd09b965dbc4e652aed2668f83e0d1686ae3a4c285551755c3",
            "0x000000000000000000000000c7b9f5c40f06637d87358bdc5e5d255695166f2c"
          ],
          "data": "0x000000000000000000000000000000000000000000000000000000746a10f888000000000000000000000000000000000000000000000000000000012a054a2a",
          "blockHash": "0x23493e5e126a0f5751177ece4e3d83c21b6d68ec52e0088a00dafa7f3b12114e",
          "blockNumber": "0x173c1c4",
          "blockTimestamp": "0x6980ae0d",
          "transactionHash": "0x8e3c2837efc887c9bff61c03bfdcbf6d710ca356008c031764c6775599cac255",
          "transactionIndex": "0x1",
          "logIndex": "0x2",
          "removed": false
        },
        {
          "address": "0xa1da18755de55f3929620a530968a28f16ea981d",
          "topics": [
            "0x8c5be1e5ebec7d5bd14f71427d1e84f3dd0314c0f7b2291e5b200ac8c7c3b925",
            "0x000000000000000000000000c7b9f5c40f06637d87358bdc5e5d255695166f2c",
            "0x000000000000000000000000766542304e16e3585d569705b0eff4756efa6cac"
          ],
          "data": "0x000000000000000000000000000000000000000000000000000000746a10f888",
          "blockHash": "0x23493e5e126a0f5751177ece4e3d83c21b6d68ec52e0088a00dafa7f3b12114e",
          "blockNumber": "0x173c1c4",
          "blockTimestamp": "0x6980ae0d",
          "transactionHash": "0x8e3c2837efc887c9bff61c03bfdcbf6d710ca356008c031764c6775599cac255",
          "transactionIndex": "0x1",
          "logIndex": "0x3",
          "removed": false
        }
      ],
      "logsBloom": "0x00000000000000000001000000000000000000000000080000000000000000000000000000000000400000000000000000000000000000000000000000200100000000000100000000000008000000080000000000000000000000000000000000000000024000000000000000000800000100000000100000000010000000000000000000000200000000000004000000000000000000000000000000000002022004000000000000002100000000000000000000000000000000000000000000000002000000000000004000000000008000000000000000000010000020100010000000000000000004000000000000000000000000000000000000000000",
      "type": "0x2",
      "transactionHash": "0x8e3c2837efc887c9bff61c03bfdcbf6d710ca356008c031764c6775599cac255",
      "transactionIndex": "0x1",
      "blockHash": "0x23493e5e126a0f5751177ece4e3d83c21b6d68ec52e0088a00dafa7f3b12114e",
      "blockNumber": "0x173c1c4",
      "gasUsed": "0x54ee7",
      "effectiveGasPrice": "0x61b",
      "blobGasPrice": "0x1",
      "from": "0xf39fd6e51aad88f6f4ce6ab8827279cfffb92266",
      "to": "0xc7b9f5c40f06637d87358bdc5e5d255695166f2c",
      "contractAddress": null
    }
  ],
  "libraries": [],
  "pending": [],
  "returns": {},
  "timestamp": 1770045502543,
  "chain": 1,
  "commit": "290e97f"
}