{
  "transactions": [
    {
      "hash": "0x1a818f47601a0f7f3dc00a487f71ebf0c597e519b3f5fb457ede3f9bfc5e2a9c",
      "transactionType": "CALL",
      "contractName": null,
      "contractAddress": "0x67ecfe4852561df7a0d8869b06a0f82dbc655033",
      "function": "createBroker(bytes32)",
      "arguments": [
        "0x027149220b5df4c5e6ae879a31d95f8de5cf41daaccdbda0f282816488526b37"
      ],
      "transaction": {
        "from": "0xf39fd6e51aad88f6f4ce6ab8827279cfffb92266",
        "to": "0x67ecfe4852561df7a0d8869b06a0f82dbc655033",
        "gas": "0x6e2ae",
        "value": "0x0",
        "input": "0x26f4f123027149220b5df4c5e6ae879a31d95f8de5cf41daaccdbda0f282816488526b37",
        "nonce": "0x368",
        "chainId": "0x1"
      },
      "additionalContracts": [
        {
          "transactionType": "CREATE2",
          "contractName": null,
          "address": "0x56d943179923850548b2235be9b79cff164f2493",
          "initCode": "0x3d602d80600a3d3981f3363d3d373d3d3d363d73f975a646fca589be9fc4e0c28ea426a75645fb1f5af43d82803e903d91602b57fd5bf3"
        }
      ],
      "isFixedGasLimit": false
    },
    {
      "hash": "0x1df861aba8cab47cf81d72c9cfffb80222016e1b9c409f102610155400df4e1e",
      "transactionType": "CALL",
      "contractName": null,
      "contractAddress": "0x2fe19128a8257182fdd77f90ea96d27ca342897a",
      "function": "transfer(address,uint256)",
      "arguments": [
        "0x56D943179923850548b2235BE9B79cff164f2493",
        "49999998218"
      ],
      "transaction": {
        "from": "0xf39fd6e51aad88f6f4ce6ab8827279cfffb92266",
        "to": "0x2fe19128a8257182fdd77f90ea96d27ca342897a",
        "gas": "0x109a1",
        "value": "0x0",
        "input": "0xa9059cbb00000000000000000000000056d943179923850548b2235be9b79cff164f24930000000000000000000000000000000000000000000000000000000ba43b6d0a",
        "nonce": "0x369",
        "chainId": "0x1"
      },
      "additionalContracts": [],
      "isFixedGasLimit": false
    },
    {
      "hash": "0xf203a61dab2eb28b5916580f040c15245d3a711dda2ebbe7e068177b698e10dc",
      "transactionType": "CALL",
      "contractName": null,
      "contractAddress": "0x56d943179923850548b2235be9b79cff164f2493",
      "function": "modifyPosition(bytes32,int256,int256)",
      "arguments": [
        "0x12bd6ec818ecae6e8571bb097586328e1649ec9a036bc6a558f4dacb423e447c",
        "49999998218",
        "499999982"
      ],
      "transaction": {
        "from": "0xf39fd6e51aad88f6f4ce6ab8827279cfffb92266",
        "to": "0x56d943179923850548b2235be9b79cff164f2493",
        "gas": "0x72162",
        "value": "0x0",
        "input": "0x1b89f3d412bd6ec818ecae6e8571bb097586328e1649ec9a036bc6a558f4dacb423e447c0000000000000000000000000000000000000000000000000000000ba43b6d0a000000000000000000000000000000000000000000000000000000001dcd64ee",
        "nonce": "0x36a",
        "chainId": "0x1"
      },
      "additionalContracts": [],
      "isFixedGasLimit": false
    },
    {
      "hash": "0xb9f7fd6c7dafeb55073b70b95a5d02d893f211af835994015b3043c7fbac55f0",
      "transactionType": "CALL",
      "contractName": null,
      "contractAddress": "0x56d943179923850548b2235be9b79cff164f2493",
      "function": "submitTwammOrder(address,((address,address,uint24,int24,address),bool,uint256,uint256))",
      "arguments": [
        "0x7e0C07EEabb2459D70dba5b8d100Dca44c652aC0",
        "((0x2fe19128A8257182fdD77f90eA96D27cA342897A, 0xcF6c6272E9e353fc1F3e9A747A7B7AADE3c83389, 500, 5, 0x7e0C07EEabb2459D70dba5b8d100Dca44c652aC0), false, 2592000, 499999982)"
      ],
      "transaction": {
        "from": "0xf39fd6e51aad88f6f4ce6ab8827279cfffb92266",
        "to": "0x56d943179923850548b2235be9b79cff164f2493",
        "gas": "0xb9c09",
        "value": "0x0",
        "input": "0x4f8823d40000000000000000000000007e0c07eeabb2459d70dba5b8d100dca44c652ac00000000000000000000000002fe19128a8257182fdd77f90ea96d27ca342897a000000000000000000000000cf6c6272e9e353fc1f3e9a747a7b7aade3c8338900000000000000000000000000000000000000000000000000000000000001f400000000000000000000000000000000000000000000000000000000000000050000000000000000000000007e0c07eeabb2459d70dba5b8d100dca44c652ac000000000000000000000000000000000000000000000000000000000000000000000000000000000000000000000000000000000000000000000000000278d00000000000000000000000000000000000000000000000000000000001dcd64ee",
        "nonce": "0x36b",
        "chainId": "0x1"
      },
      "additionalContracts": [],
      "isFixedGasLimit": false
    }
  ],
  "receipts": [
    {
      "status": "0x1",
      "cumulativeGasUsed": "0x4fc27",
      "logs": [
        {
          "address": "0x67ecfe4852561df7a0d8869b06a0f82dbc655033",
          "topics": [
            "0xddf252ad1be2c89b69c2b068fc378daa952ba7f163c4a11628f55a4df523b3ef",
            "0x0000000000000000000000000000000000000000000000000000000000000000",
            "0x000000000000000000000000f39fd6e51aad88f6f4ce6ab8827279cfffb92266",
            "0x00000000000000000000000056d943179923850548b2235be9b79cff164f2493"
          ],
          "data": "0x",
          "blockHash": "0xfa60e4a3815015c06d711b1280f5e6ff6485591fa18350c56d21b09fb99305d2",
          "blockNumber": "0x14b1838",
          "blockTimestamp": "0x6794866c",
          "transactionHash": "0x1a818f47601a0f7f3dc00a487f71ebf0c597e519b3f5fb457ede3f9bfc5e2a9c",
          "transactionIndex": "0x0",
          "logIndex": "0x0",
          "removed": false
        },
        {
          "address": "0x67ecfe4852561df7a0d8869b06a0f82dbc655033",
          "topics": [
            "0xc418c83b1622e1e32aac5d6d2848134a7e89eb8e96c8514afd1757d25ee5ef71",
            "0x00000000000000000000000056d943179923850548b2235be9b79cff164f2493",
            "0x000000000000000000000000f39fd6e51aad88f6f4ce6ab8827279cfffb92266"
          ],
          "data": "0x00000000000000000000000056d943179923850548b2235be9b79cff164f2493",
          "blockHash": "0xfa60e4a3815015c06d711b1280f5e6ff6485591fa18350c56d21b09fb99305d2",
          "blockNumber": "0x14b1838",
          "blockTimestamp": "0x6794866c",
          "transactionHash": "0x1a818f47601a0f7f3dc00a487f71ebf0c597e519b3f5fb457ede3f9bfc5e2a9c",
          "transactionIndex": "0x0",
          "logIndex": "0x1",
          "removed": false
        }
      ],
      "logsBloom": "0x00000000000000000000100000000000000000000000000000000000000000000000000000000000000000000000000000000200000000000000000000000000800000000000000000000008000000000000000000000100000000000000000000000000020000000000000100000800000000000004000400000010000000000000000000000000000000000000000000000000000000000000000000000000000000000000000000000000000000000000000000000000000001000000000000000002000000200000000000000000000000002000000000000000000020000000020000000000000000000000000000000000000000000000000800000000",
      "type": "0x2",
      "transactionHash": "0x1a818f47601a0f7f3dc00a487f71ebf0c597e519b3f5fb457ede3f9bfc5e2a9c",
      "transactionIndex": "0x0",
      "blockHash": "0xfa60e4a3815015c06d711b1280f5e6ff6485591fa18350c56d21b09fb99305d2",
      "blockNumber": "0x14b1838",
      "gasUsed": "0x4fc27",
      "effectiveGasPrice": "0x6f60316",
      "blobGasPrice": "0x2c3cc5",
      "from": "0xf39fd6e51aad88f6f4ce6ab8827279cfffb92266",
      "to": "0x67ecfe4852561df7a0d8869b06a0f82dbc655033",
      "contractAddress": null
    },
    {
      "status": "0x1",
      "cumulativeGasUsed": "0xb5a1",
      "logs": [
        {
          "address": "0x2fe19128a8257182fdd77f90ea96d27ca342897a",
          "topics": [
            "0xddf252ad1be2c89b69c2b068fc378daa952ba7f163c4a11628f55a4df523b3ef",
            "0x000000000000000000000000f39fd6e51aad88f6f4ce6ab8827279cfffb92266",
            "0x00000000000000000000000056d943179923850548b2235be9b79cff164f2493"
          ],
          "data": "0x0000000000000000000000000000000000000000000000000000000ba43b6d0a",
          "blockHash": "0x3c0e8030894f226a530e7a319d0581da8cea6f2032f799d03e938c5c1e6f6a6a",
          "blockNumber": "0x14b1839",
          "blockTimestamp": "0x6794866c",
          "transactionHash": "0xf203a61dab2eb28b5916580f040c15245d3a711dda2ebbe7e068177b698e10dc",
          "transactionIndex": "0x0",
          "logIndex": "0x0",
          "removed": false
        }
      ],
      "logsBloom": "0x00000000000000000000000000000000000000000000000000000000000000000000000000000000000000004000000000000000000000000000000000000000000000000000000000000008000000000000000000000000000000000000000000000000000000000000000100000000000000000004000000000010000000000000000000000000000000000000000000000000000000000000000000000000000000000000000000000000000000000040000000000000000001000000000000000002000000200000000000000000000000002000000000000000000000000000020000000000000000000000000020000000000000000000000000000000",
      "type": "0x2",
      "transactionHash": "0xf203a61dab2eb28b5916580f040c15245d3a711dda2ebbe7e068177b698e10dc",
      "transactionIndex": "0x0",
      "blockHash": "0x3c0e8030894f226a530e7a319d0581da8cea6f2032f799d03e938c5c1e6f6a6a",
      "blockNumber": "0x14b1839",
      "gasUsed": "0xb5a1",
      "effectiveGasPrice": "0x6cc6dd3",
      "blobGasPrice": "0x275276",
      "from": "0xf39fd6e51aad88f6f4ce6ab8827279cfffb92266",
      "to": "0x2fe19128a8257182fdd77f90ea96d27ca342897a",
      "contractAddress": null
    },
    {
      "status": "0x1",
      "cumulativeGasUsed": "0x5df2d",
      "logs": [
        {
          "address": "0xcf6c6272e9e353fc1f3e9a747a7b7aade3c83389",
          "topics": [
            "0xddf252ad1be2c89b69c2b068fc378daa952ba7f163c4a11628f55a4df523b3ef",
            "0x0000000000000000000000000000000000000000000000000000000000000000",
            "0x00000000000000000000000056d943179923850548b2235be9b79cff164f2493"
          ],
          "data": "0x000000000000000000000000000000000000000000000000000000001dcd64ee",
          "blockHash": "0x3c0e8030894f226a530e7a319d0581da8cea6f2032f799d03e938c5c1e6f6a6a",
          "blockNumber": "0x14b1839",
          "blockTimestamp": "0x6794866c",
          "transactionHash": "0xb9f7fd6c7dafeb55073b70b95a5d02d893f211af835994015b3043c7fbac55f0",
          "transactionIndex": "0x1",
          "logIndex": "0x1",
          "removed": false
        },
        {
          "address": "0x6b5cf024365d5d5d0786673780ca7e3f07f85b63",
          "topics": [
            "0x343ef6bfd54be4f7cb6918335f3d2788a88dfadfc586a5c32c67c2f3b61c6338",
            "0x12bd6ec818ecae6e8571bb097586328e1649ec9a036bc6a558f4dacb423e447c",
            "0x00000000000000000000000056d943179923850548b2235be9b79cff164f2493"
          ],
          "data": "0x0000000000000000000000000000000000000000000000000000000ba43b6d0a000000000000000000000000000000000000000000000000000000001dcd64ee",
          "blockHash": "0x3c0e8030894f226a530e7a319d0581da8cea6f2032f799d03e938c5c1e6f6a6a",
          "blockNumber": "0x14b1839",
          "blockTimestamp": "0x6794866c",
          "transactionHash": "0xb9f7fd6c7dafeb55073b70b95a5d02d893f211af835994015b3043c7fbac55f0",
          "transactionIndex": "0x1",
          "logIndex": "0x2",
          "removed": false
        },
        {
          "address": "0x2fe19128a8257182fdd77f90ea96d27ca342897a",
          "topics": [
            "0x8c5be1e5ebec7d5bd14f71427d1e84f3dd0314c0f7b2291e5b200ac8c7c3b925",
            "0x00000000000000000000000056d943179923850548b2235be9b79cff164f2493",
            "0x0000000000000000000000006b5cf024365d5d5d0786673780ca7e3f07f85b63"
          ],
          "data": "0x0000000000000000000000000000000000000000000000000000000ba43b6d0a",
          "blockHash": "0x3c0e8030894f226a530e7a319d0581da8cea6f2032f799d03e938c5c1e6f6a6a",
          "blockNumber": "0x14b1839",
          "blockTimestamp": "0x6794866c",
          "transactionHash": "0xb9f7fd6c7dafeb55073b70b95a5d02d893f211af835994015b3043c7fbac55f0",
          "transactionIndex": "0x1",
          "logIndex": "0x3",
          "removed": false
        }
      ],
      "logsBloom": "0x00000000000000000000000000000000000000000000000000000000200004000000000000000000000000004000000000000000000000000000000000200000000000800000000000000008000000000000000000000001008000000000000000000000024000000000800000200800000000000004000000000010000000000000000000200000000100000000000000000000000000000000000000000002020000000000000000000000000000000040000000000000000001000000000000000002000000000000000000000000000000010000008000000000000020300010020000000000000000000000000020000000000000000000000000000000",
      "type": "0x2",
      "transactionHash": "0xb9f7fd6c7dafeb55073b70b95a5d02d893f211af835994015b3043c7fbac55f0",
      "transactionIndex": "0x1",
      "blockHash": "0x3c0e8030894f226a530e7a319d0581da8cea6f2032f799d03e938c5c1e6f6a6a",
      "blockNumber": "0x14b1839",
      "gasUsed": "0x5298c",
      "effectiveGasPrice": "0x6cc6dd3",
      "blobGasPrice": "0x275276",
      "from": "0xf39fd6e51aad88f6f4ce6ab8827279cfffb92266",
      "to": "0x56d943179923850548b2235be9b79cff164f2493",
      "contractAddress": null
    },
    {
      "status": "0x1",
      "cumulativeGasUsed": "0xdcf57",
      "logs": [
        {
          "address": "0xcf6c6272e9e353fc1f3e9a747a7b7aade3c83389",
          "topics": [
            "0x8c5be1e5ebec7d5bd14f71427d1e84f3dd0314c0f7b2291e5b200ac8c7c3b925",
            "0x00000000000000000000000056d943179923850548b2235be9b79cff164f2493",
            "0x0000000000000000000000007e0c07eeabb2459d70dba5b8d100dca44c652ac0"
          ],
          "data": "0x000000000000000000000000000000000000000000000000000000001dcd64ee",
          "blockHash": "0x3c0e8030894f226a530e7a319d0581da8cea6f2032f799d03e938c5c1e6f6a6a",
          "blockNumber": "0x14b1839",
          "blockTimestamp": "0x6794866c",
          "transactionHash": "0x1df861aba8cab47cf81d72c9cfffb80222016e1b9c409f102610155400df4e1e",
          "transactionIndex": "0x2",
          "logIndex": "0x4",
          "removed": false
        },
        {
          "address": "0xcf6c6272e9e353fc1f3e9a747a7b7aade3c83389",
          "topics": [
            "0xddf252ad1be2c89b69c2b068fc378daa952ba7f163c4a11628f55a4df523b3ef",
            "0x00000000000000000000000056d943179923850548b2235be9b79cff164f2493",
            "0x0000000000000000000000007e0c07eeabb2459d70dba5b8d100dca44c652ac0"
          ],
          "data": "0x000000000000000000000000000000000000000000000000000000001da9c000",
          "blockHash": "0x3c0e8030894f226a530e7a319d0581da8cea6f2032f799d03e938c5c1e6f6a6a",
          "blockNumber": "0x14b1839",
          "blockTimestamp": "0x6794866c",
          "transactionHash": "0x1df861aba8cab47cf81d72c9cfffb80222016e1b9c409f102610155400df4e1e",
          "transactionIndex": "0x2",
          "logIndex": "0x5",
          "removed": false
        },
        {
          "address": "0x7e0c07eeabb2459d70dba5b8d100dca44c652ac0",
          "topics": [
            "0xaad1dbbd649002bdbd8281df7f1bc9398548f080a76b5ccece0b61709e2b69cc",
            "0xda100fc1dc21b46f06f5280dc915ca828c53bb63f3b33f171b40f25288da2e93",
            "0xdcaef7a84673bcad2ba615c2bab0040678b18faacaaf83e6c031060dda4564aa",
            "0x00000000000000000000000056d943179923850548b2235be9b79cff164f2493"
          ],
          "data": "0x000000000000000000000000000000000000000000000000000000001dcd64ee0000000000000000000000000000000000000000000000000000000067bc0ae0000000000000000000000000000000000000000000000000000000000000000000000000000000000000000000000000000000000000000000000000000000c00000000000000000000000000000000000000000000000000000000000000000",
          "blockHash": "0x3c0e8030894f226a530e7a319d0581da8cea6f2032f799d03e938c5c1e6f6a6a",
          "blockNumber": "0x14b1839",
          "blockTimestamp": "0x6794866c",
          "transactionHash": "0x1df861aba8cab47cf81d72c9cfffb80222016e1b9c409f102610155400df4e1e",
          "transactionIndex": "0x2",
          "logIndex": "0x6",
          "removed": false
        },
        {
          "address": "0xcf6c6272e9e353fc1f3e9a747a7b7aade3c83389",
          "topics": [
            "0x8c5be1e5ebec7d5bd14f71427d1e84f3dd0314c0f7b2291e5b200ac8c7c3b925",
            "0x00000000000000000000000056d943179923850548b2235be9b79cff164f2493",
            "0x0000000000000000000000007e0c07eeabb2459d70dba5b8d100dca44c652ac0"
          ],
          "data": "0x0000000000000000000000000000000000000000000000000000000000000000",
          "blockHash": "0x3c0e8030894f226a530e7a319d0581da8cea6f2032f799d03e938c5c1e6f6a6a",
          "blockNumber": "0x14b1839",
          "blockTimestamp": "0x6794866c",
          "transactionHash": "0x1df861aba8cab47cf81d72c9cfffb80222016e1b9c409f102610155400df4e1e",
          "transactionIndex": "0x2",
          "logIndex": "0x7",
          "removed": false
        }
      ],
      "logsBloom": "0x00000000000000020000000000000000000000000000000000000000000004000000000000000000000000000000000000000000000002000000000000200000000800000000000000000008000000000000000000000080008000002000000000000000000000000000002000000000000000000004000000000010000000000000000000200000000000000000000000000000000000000000000000000000020000000000000040000000060002000000000000000000000001000000000000000002000000000000000000000000010000000000001000000000000004000010020000000040000000000000000000000000000002000000000000000000",
      "type": "0x2",
      "transactionHash": "0x1df861aba8cab47cf81d72c9cfffb80222016e1b9c409f102610155400df4e1e",
      "transactionIndex": "0x2",
      "blockHash": "0x3c0e8030894f226a530e7a319d0581da8cea6f2032f799d03e938c5c1e6f6a6a",
      "blockNumber": "0x14b1839",
      "gasUsed": "0x7f02a",
      "effectiveGasPrice": "0x6cc6dd3",
      "blobGasPrice": "0x275276",
      "from": "0xf39fd6e51aad88f6f4ce6ab8827279cfffb92266",
      "to": "0x56d943179923850548b2235be9b79cff164f2493",
      "contractAddress": null
    }
  ],
  "libraries": [],
  "pending": [],
  "returns": {},
  "timestamp": 1770061970164,
  "chain": 1,
  "commit": "290e97f"
}