{
  "transactions": [
    {
      "hash": "0x36b3624e1d59c0edb04c2949cc6d2dca5dfe516efba283467e831a459cb78359",
      "transactionType": "CALL",
      "contractName": null,
      "contractAddress": "0x67ecfe4852561df7a0d8869b06a0f82dbc655033",
      "function": "createBroker(bytes32)",
      "arguments": [
        "0xb849601ca26cd21d386502e3a2060f4e25f8d1401ad5a36f137d0968f18fef31"
      ],
      "transaction": {
        "from": "0xf39fd6e51aad88f6f4ce6ab8827279cfffb92266",
        "to": "0x67ecfe4852561df7a0d8869b06a0f82dbc655033",
        "gas": "0x6e2ae",
        "value": "0x0",
        "input": "0x26f4f123b849601ca26cd21d386502e3a2060f4e25f8d1401ad5a36f137d0968f18fef31",
        "nonce": "0x36e",
        "chainId": "0x1"
      },
      "additionalContracts": [
        {
          "transactionType": "CREATE2",
          "contractName": null,
          "address": "0x6a6b539d3f7112a02f4a3721527d9b266d7786f0",
          "initCode": "0x3d602d80600a3d3981f3363d3d373d3d3d363d73f975a646fca589be9fc4e0c28ea426a75645fb1f5af43d82803e903d91602b57fd5bf3"
        }
      ],
      "isFixedGasLimit": false
    },
    {
      "hash": "0xaedc2faa511bbce0796ba229488af26242e5e6bbf27545bb9dcf2b4db2b74eaf",
      "transactionType": "CALL",
      "contractName": null,
      "contractAddress": "0x2fe19128a8257182fdd77f90ea96d27ca342897a",
      "function": "transfer(address,uint256)",
      "arguments": [
        "0x6A6B539d3f7112A02F4A3721527d9B266D7786f0",
        "99998363156"
      ],
      "transaction": {
        "from": "0xf39fd6e51aad88f6f4ce6ab8827279cfffb92266",
        "to": "0x2fe19128a8257182fdd77f90ea96d27ca342897a",
        "gas": "0x109a1",
        "value": "0x0",
        "input": "0xa9059cbb0000000000000000000000006a6b539d3f7112a02f4a3721527d9b266d7786f000000000000000000000000000000000000000000000000000000017485dee14",
        "nonce": "0x36f",
        "chainId": "0x1"
      },
      "additionalContracts": [],
      "isFixedGasLimit": false
    },
    {
      "hash": "0x57a8881eda31445d546e13e950ba14db1b6eb1f4b05da02788b48eee52bd98dd",
      "transactionType": "CALL",
      "contractName": null,
      "contractAddress": "0x6a6b539d3f7112a02f4a3721527d9b266d7786f0",
      "function": "modifyPosition(bytes32,int256,int256)",
      "arguments": [
        "0x12bd6ec818ecae6e8571bb097586328e1649ec9a036bc6a558f4dacb423e447c",
        "99998363156",
        "883868554"
      ],
      "transaction": {
        "from": "0xf39fd6e51aad88f6f4ce6ab8827279cfffb92266",
        "to": "0x6a6b539d3f7112a02f4a3721527d9b266d7786f0",
        "gas": "0x72162",
        "value": "0x0",
        "input": "0x1b89f3d412bd6ec818ecae6e8571bb097586328e1649ec9a036bc6a558f4dacb423e447c00000000000000000000000000000000000000000000000000000017485dee140000000000000000000000000000000000000000000000000000000034aec38a",
        "nonce": "0x370",
        "chainId": "0x1"
      },
      "additionalContracts": [],
      "isFixedGasLimit": false
    },
    {
      "hash": "0x1653ae5df597a5a9fbdc72643147a76c592fd880ae6b457c891a1a76de7f15f7",
      "transactionType": "CALL",
      "contractName": null,
      "contractAddress": "0x6a6b539d3f7112a02f4a3721527d9b266d7786f0",
      "function": "submitTwammOrder(address,((address,address,uint24,int24,address),bool,uint256,uint256))",
      "arguments": [
        "0x7e0C07EEabb2459D70dba5b8d100Dca44c652aC0",
        "((0x2fe19128A8257182fdD77f90eA96D27cA342897A, 0xcF6c6272E9e353fc1F3e9A747A7B7AADE3c83389, 500, 5, 0x7e0C07EEabb2459D70dba5b8d100Dca44c652aC0), false, 31536000, 883868554)"
      ],
      "transaction": {
        "from": "0xf39fd6e51aad88f6f4ce6ab8827279cfffb92266",
        "to": "0x6a6b539d3f7112a02f4a3721527d9b266d7786f0",
        "gas": "0xab3d6",
        "value": "0x0",
        "input": "0x4f8823d40000000000000000000000007e0c07eeabb2459d70dba5b8d100dca44c652ac00000000000000000000000002fe19128a8257182fdd77f90ea96d27ca342897a000000000000000000000000cf6c6272e9e353fc1f3e9a747a7b7aade3c8338900000000000000000000000000000000000000000000000000000000000001f400000000000000000000000000000000000000000000000000000000000000050000000000000000000000007e0c07eeabb2459d70dba5b8d100dca44c652ac000000000000000000000000000000000000000000000000000000000000000000000000000000000000000000000000000000000000000000000000001e133800000000000000000000000000000000000000000000000000000000034aec38a",
        "nonce": "0x371",
        "chainId": "0x1"
      },
      "additionalContracts": [],
      "isFixedGasLimit": false
    }
  ],
  "receipts": [
    {
      "status": "0x1",
      "cumulativeGasUsed": "0x4fc27",
      "logs": [
        {
          "address": "0x67ecfe4852561df7a0d8869b06a0f82dbc655033",
          "topics": [
            "0xddf252ad1be2c89b69c2b068fc378daa952ba7f163c4a11628f55a4df523b3ef",
            "0x0000000000000000000000000000000000000000000000000000000000000000",
            "0x000000000000000000000000f39fd6e51aad88f6f4ce6ab8827279cfffb92266",
            "0x0000000000000000000000006a6b539d3f7112a02f4a3721527d9b266d7786f0"
          ],
          "data": "0x",
          "blockHash": "0x628f6d5df9657b97d42c877092d3fd46d90d627efe0fe7a4518b2e4201a4dcb9",
          "blockNumber": "0x14b1840",
          "blockTimestamp": "0x6794a4dc",
          "transactionHash": "0x36b3624e1d59c0edb04c2949cc6d2dca5dfe516efba283467e831a459cb78359",
          "transactionIndex": "0x0",
          "logIndex": "0x0",
          "removed": false
        },
        {
          "address": "0x67ecfe4852561df7a0d8869b06a0f82dbc655033",
          "topics": [
            "0xc418c83b1622e1e32aac5d6d2848134a7e89eb8e96c8514afd1757d25ee5ef71",
            "0x0000000000000000000000006a6b539d3f7112a02f4a3721527d9b266d7786f0",
            "0x000000000000000000000000f39fd6e51aad88f6f4ce6ab8827279cfffb92266"
          ],
          "data": "0x0000000000000000000000006a6b539d3f7112a02f4a3721527d9b266d7786f0",
          "blockHash": "0x628f6d5df9657b97d42c877092d3fd46d90d627efe0fe7a4518b2e4201a4dcb9",
          "blockNumber": "0x14b1840",
          "blockTimestamp": "0x6794a4dc",
          "transactionHash": "0x36b3624e1d59c0edb04c2949cc6d2dca5dfe516efba283467e831a459cb78359",
          "transactionIndex": "0x0",
          "logIndex": "0x1",
          "removed": false
        }
      ],
      "logsBloom": "0x00000000000000000000100000000000000000000000000000000000000000000000000000000000000000000000000000000200000000000000000000000000800000000000000000000008000000000000000000000100000000000000000000000000020000000000000100000800000000000000000400000010000000000000000000000000000000000000000000000000000000000000000000000000000000000000000000000000000000000000000000000000000000000000000000000002008000200000000000000000000000002000000000000000000020000000000000000000000000000100000000000000000000000000000800008000",
      "type": "0x2",
      "transactionHash": "0x36b3624e1d59c0edb04c2949cc6d2dca5dfe516efba283467e831a459cb78359",
      "transactionIndex": "0x0",
      "blockHash": "0x628f6d5df9657b97d42c877092d3fd46d90d627efe0fe7a4518b2e4201a4dcb9",
      "blockNumber": "0x14b1840",
      "gasUsed": "0x4fc27",
      "effectiveGasPrice": "0x618aba5",
      "blobGasPrice": "0x113dc3",
      "from": "0xf39fd6e51aad88f6f4ce6ab8827279cfffb92266",
      "to": "0x67ecfe4852561df7a0d8869b06a0f82dbc655033",
      "contractAddress": null
    },
    {
      "status": "0x1",
      "cumulativeGasUsed": "0xb5a1",
      "logs": [
        {
          "address": "0x2fe19128a8257182fdd77f90ea96d27ca342897a",
          "topics": [
            "0xddf252ad1be2c89b69c2b068fc378daa952ba7f163c4a11628f55a4df523b3ef",
            "0x000000000000000000000000f39fd6e51aad88f6f4ce6ab8827279cfffb92266",
            "0x0000000000000000000000006a6b539d3f7112a02f4a3721527d9b266d7786f0"
          ],
          "data": "0x00000000000000000000000000000000000000000000000000000017485dee14",
          "blockHash": "0x2cd2020351aa9bd560d67b27ccb17158c488379aa3511115d437cb5a27f2dace",
          "blockNumber": "0x14b1841",
          "blockTimestamp": "0x6794a4dc",
          "transactionHash": "0x57a8881eda31445d546e13e950ba14db1b6eb1f4b05da02788b48eee52bd98dd",
          "transactionIndex": "0x0",
          "logIndex": "0x0",
          "removed": false
        }
      ],
      "logsBloom": "0x00000000000000000000000000000000000000000000000000000000000000000000000000000000000000004000000000000000000000000000000000000000000000000000000000000008000000000000000000000000000000000000000000000000000000000000000100000000000000000000000000000010000000000000000000000000000000000000000000000000000000000000000000000000000000000000000000000000000000000040000000000000000000000000000000000002008000200000000000000000000000002000000000000000000000000000000000000000000000000100000020000000000000000000000000008000",
      "type": "0x2",
      "transactionHash": "0x57a8881eda31445d546e13e950ba14db1b6eb1f4b05da02788b48eee52bd98dd",
      "transactionIndex": "0x0",
      "blockHash": "0x2cd2020351aa9bd560d67b27ccb17158c488379aa3511115d437cb5a27f2dace",
      "blockNumber": "0x14b1841",
      "gasUsed": "0xb5a1",
      "effectiveGasPrice": "0x60a2759",
      "blobGasPrice": "0xf5358",
      "from": "0xf39fd6e51aad88f6f4ce6ab8827279cfffb92266",
      "to": "0x2fe19128a8257182fdd77f90ea96d27ca342897a",
      "contractAddress": null
    },
    {
      "status": "0x1",
      "cumulativeGasUsed": "0x5298c",
      "logs": [
        {
          "address": "0xcf6c6272e9e353fc1f3e9a747a7b7aade3c83389",
          "topics": [
            "0xddf252ad1be2c89b69c2b068fc378daa952ba7f163c4a11628f55a4df523b3ef",
            "0x0000000000000000000000000000000000000000000000000000000000000000",
            "0x0000000000000000000000006a6b539d3f7112a02f4a3721527d9b266d7786f0"
          ],
          "data": "0x0000000000000000000000000000000000000000000000000000000034aec38a",
          "blockHash": "0xf3b8e2e2479084a627119658d275e6f5d472540dd2d2fea4e8b02667fbbc7b3c",
          "blockNumber": "0x14b1842",
          "blockTimestamp": "0x6794a4dc",
          "transactionHash": "0xaedc2faa511bbce0796ba229488af26242e5e6bbf27545bb9dcf2b4db2b74eaf",
          "transactionIndex": "0x0",
          "logIndex": "0x0",
          "removed": false
        },
        {
          "address": "0x6b5cf024365d5d5d0786673780ca7e3f07f85b63",
          "topics": [
            "0x343ef6bfd54be4f7cb6918335f3d2788a88dfadfc586a5c32c67c2f3b61c6338",
            "0x12bd6ec818ecae6e8571bb097586328e1649ec9a036bc6a558f4dacb423e447c",
            "0x0000000000000000000000006a6b539d3f7112a02f4a3721527d9b266d7786f0"
          ],
          "data": "0x00000000000000000000000000000000000000000000000000000017485dee140000000000000000000000000000000000000000000000000000000034aec38a",
          "blockHash": "0xf3b8e2e2479084a627119658d275e6f5d472540dd2d2fea4e8b02667fbbc7b3c",
          "blockNumber": "0x14b1842",
          "blockTimestamp": "0x6794a4dc",
          "transactionHash": "0xaedc2faa511bbce0796ba229488af26242e5e6bbf27545bb9dcf2b4db2b74eaf",
          "transactionIndex": "0x0",
          "logIndex": "0x1",
          "removed": false
        },
        {
          "address": "0x2fe19128a8257182fdd77f90ea96d27ca342897a",
          "topics": [
            "0x8c5be1e5ebec7d5bd14f71427d1e84f3dd0314c0f7b2291e5b200ac8c7c3b925",
            "0x0000000000000000000000006a6b539d3f7112a02f4a3721527d9b266d7786f0",
            "0x0000000000000000000000006b5cf024365d5d5d0786673780ca7e3f07f85b63"
          ],
          "data": "0x00000000000000000000000000000000000000000000000000000017485dee14",
          "blockHash": "0xf3b8e2e2479084a627119658d275e6f5d472540dd2d2fea4e8b02667fbbc7b3c",
          "blockNumber": "0x14b1842",
          "blockTimestamp": "0x6794a4dc",
          "transactionHash": "0xaedc2faa511bbce0796ba229488af26242e5e6bbf27545bb9dcf2b4db2b74eaf",
          "transactionIndex": "0x0",
          "logIndex": "0x2",
          "removed": false
        }
      ],
      "logsBloom": "0x00000000000000000000000000000000000000000000000000000000200004000000000000000000000000004000000000000000000000000000000000200000000000800000000000000008000000000000000000000001008000000000000000000000024000000000800000200800000000000000000000000010000000000000000000200000000100000000000000000000000000000000000000000002020000000000000000000000000000000040000000000000000000000000000000000002008000000000000000000000000000010000008000000000000020300010000000000000000000000100000020000000000000000000000000008000",
      "type": "0x2",
      "transactionHash": "0xaedc2faa511bbce0796ba229488af26242e5e6bbf27545bb9dcf2b4db2b74eaf",
      "transactionIndex": "0x0",
      "blockHash": "0xf3b8e2e2479084a627119658d275e6f5d472540dd2d2fea4e8b02667fbbc7b3c",
      "blockNumber": "0x14b1842",
      "gasUsed": "0x5298c",
      "effectiveGasPrice": "0x5fd2b53",
      "blobGasPrice": "0xd9f6b",
      "from": "0xf39fd6e51aad88f6f4ce6ab8827279cfffb92266",
      "to": "0x6a6b539d3f7112a02f4a3721527d9b266d7786f0",
      "contractAddress": null
    },
    {
      "status": "0x1",
      "cumulativeGasUsed": "0x7bf98",
      "logs": [
        {
          "address": "0xcf6c6272e9e353fc1f3e9a747a7b7aade3c83389",
          "topics": [
            "0x8c5be1e5ebec7d5bd14f71427d1e84f3dd0314c0f7b2291e5b200ac8c7c3b925",
            "0x0000000000000000000000006a6b539d3f7112a02f4a3721527d9b266d7786f0",
            "0x0000000000000000000000007e0c07eeabb2459d70dba5b8d100dca44c652ac0"
          ],
          "data": "0x0000000000000000000000000000000000000000000000000000000034aec38a",
          "blockHash": "0x81f7732a5f3509a858cec4a875854dc46f83619d520f2fa3fa35a7d1fc4c1c0d",
          "blockNumber": "0x14b1843",
          "blockTimestamp": "0x6794a4dc",
          "transactionHash": "0x1653ae5df597a5a9fbdc72643147a76c592fd880ae6b457c891a1a76de7f15f7",
          "transactionIndex": "0x0",
          "logIndex": "0x0",
          "removed": false
        },
        {
          "address": "0xcf6c6272e9e353fc1f3e9a747a7b7aade3c83389",
          "topics": [
            "0xddf252ad1be2c89b69c2b068fc378daa952ba7f163c4a11628f55a4df523b3ef",
            "0x0000000000000000000000006a6b539d3f7112a02f4a3721527d9b266d7786f0",
            "0x0000000000000000000000007e0c07eeabb2459d70dba5b8d100dca44c652ac0"
          ],
          "data": "0x0000000000000000000000000000000000000000000000000000000034a1a200",
          "blockHash": "0x81f7732a5f3509a858cec4a875854dc46f83619d520f2fa3fa35a7d1fc4c1c0d",
          "blockNumber": "0x14b1843",
          "blockTimestamp": "0x6794a4dc",
          "transactionHash": "0x1653ae5df597a5a9fbdc72643147a76c592fd880ae6b457c891a1a76de7f15f7",
          "transactionIndex": "0x0",
          "logIndex": "0x1",
          "removed": false
        },
        {
          "address": "0x7e0c07eeabb2459d70dba5b8d100dca44c652ac0",
          "topics": [
            "0xaad1dbbd649002bdbd8281df7f1bc9398548f080a76b5ccece0b61709e2b69cc",
            "0xda100fc1dc21b46f06f5280dc915ca828c53bb63f3b33f171b40f25288da2e93",
            "0x1777e6e1be18d9ddf2af6c774aa915c6f3ba93e3fca048372bba827ea3f59e16",
            "0x0000000000000000000000006a6b539d3f7112a02f4a3721527d9b266d7786f0"
          ],
          "data": "0x0000000000000000000000000000000000000000000000000000000034aec38a000000000000000000000000000000000000000000000000000000006975cd800000000000000000000000000000000000000000000000000000000000000000000000000000000000000000000000000000000000000000000000000000001c0000000000000000000000000000000000012391322c2568e3bacdcbdbeadffd",
          "blockHash": "0x81f7732a5f3509a858cec4a875854dc46f83619d520f2fa3fa35a7d1fc4c1c0d",
          "blockNumber": "0x14b1843",
          "blockTimestamp": "0x6794a4dc",
          "transactionHash": "0x1653ae5df597a5a9fbdc72643147a76c592fd880ae6b457c891a1a76de7f15f7",
          "transactionIndex": "0x0",
          "logIndex": "0x2",
          "removed": false
        },
        {
          "address": "0xcf6c6272e9e353fc1f3e9a747a7b7aade3c83389",
          "topics": [
            "0x8c5be1e5ebec7d5bd14f71427d1e84f3dd0314c0f7b2291e5b200ac8c7c3b925",
            "0x0000000000000000000000006a6b539d3f7112a02f4a3721527d9b266d7786f0",
            "0x0000000000000000000000007e0c07eeabb2459d70dba5b8d100dca44c652ac0"
          ],
          "data": "0x0000000000000000000000000000000000000000000000000000000000000000",
          "blockHash": "0x81f7732a5f3509a858cec4a875854dc46f83619d520f2fa3fa35a7d1fc4c1c0d",
          "blockNumber": "0x14b1843",
          "blockTimestamp": "0x6794a4dc",
          "transactionHash": "0x1653ae5df597a5a9fbdc72643147a76c592fd880ae6b457c891a1a76de7f15f7",
          "transactionIndex": "0x0",
          "logIndex": "0x3",
          "removed": false
        }
      ],
      "logsBloom": "0x00000000000000020000000000000000000000000000000000000000000004000000000000000000000000000000000000000000000002000000000000200000000000000000000000000008000000000000000000000080008000002000000000000000000000000000002000000000000010000000000000000010000000000000000000200000000000000000000000000000000000000000000000000000020010000000000040000000060000000000000000000000000000000000000000000002008000000000000000000000010000000000001000000000000000000010000000000040000000000100000000000000000002000000001000008000",
      "type": "0x2",
      "transactionHash": "0x1653ae5df597a5a9fbdc72643147a76c592fd880ae6b457c891a1a76de7f15f7",
      "transactionIndex": "0x0",
      "blockHash": "0x81f7732a5f3509a858cec4a875854dc46f83619d520f2fa3fa35a7d1fc4c1c0d",
      "blockNumber": "0x14b1843",
      "gasUsed": "0x7bf98",
      "effectiveGasPrice": "0x5f20632",
      "blobGasPrice": "0xc1bed",
      "from": "0xf39fd6e51aad88f6f4ce6ab8827279cfffb92266",
      "to": "0x6a6b539d3f7112a02f4a3721527d9b266d7786f0",
      "contractAddress": null
    }
  ],
  "libraries": [],
  "pending": [],
  "returns": {},
  "timestamp": 1770062562906,
  "chain": 1,
  "commit": "290e97f"
}