{
  "transactions": [
    {
      "hash": "0x8df9e5bcb94ddb8873c6ffebe7a160a0f471dcb4f18fd759fb9d062140e332f7",
      "transactionType": "CREATE",
      "contractName": "ShortRouter",
      "contractAddress": "0x42599facdc09d2b3a497269f5eaca0afa1710697",
      "function": null,
      "arguments": [
        "0x000000000004444c5dc75cB358380D2e3dE08A90"
      ],
      "transaction": {
        "from": "0x3c44cdddb6a900fa2b585dd299e03d12fa4293bc",
        "value": "0x0",
        "input": "0x60a034607357601f610abf38819003918201601f19168301916001600160401b03831184841017607757808492602094604052833981010312607357516001600160a01b0381168103607357608052604051610a33908161008c8239608051818181608b0152818161040601526105ab0152f35b5f80fd5b634e487b7160e01b5f52604160045260245ffdfe60806040526004361015610011575f80fd5b5f3560e01c80631e2817de14610435578063481c6a75146103f1576391dd73461461003a575f80fd5b346103ad5760203660031901126103ad5760043567ffffffffffffffff81116103ad57366023820112156103ad57806004013567ffffffffffffffff81116103ad578101903660248301116103ad577f00000000000000000000000000000000000000000000000000000000000000006001600160a01b0381169290338490036103c357610120838303126103ad576040516100d5816106a2565b6100e1602485016106fc565b815260a0601f1985850301126103ad57604051926100fe846106be565b61010a604486016106fc565b8452610118606486016106fc565b6020850152608485013562ffffff811681036103ad57604085015260a48501358060020b81036103ad57606085015260c48501356001600160a01b03811681036103ad5760808501526020820193845260609085900360bf1901126103ad5760405193610184856106a2565b60e48101359081151582036103ad5790855261010481013560208601526101240135936001600160a01b03851685036103ad57610237955f9560408301526040830191808352855191610210602098899461024b6040516101e588826106da565b838152601f1988013689830137604051633cf3645360e21b81529d8e97889687956004870190610734565b8051151560a4860152602081015160c4860152604001516001600160a01b031660e4850152565b610120610104840152610124830190610710565b03925af19586156103b8575f96610385575b5051511561030d578460801d600f0b5f81126102dd575b5084600f0b915f83136102b5575b505050505b604051918183015280825261029d6040836106da565b6102b1604051928284938452830190610710565b0390f35b925184015190516102d4936001600160a01b0391821692909116610997565b5f808080610282565b8351518251610307926001600160a01b039283169290911690859061030190610786565b926107c2565b5f610274565b84600f0b5f8112610359575b508460801d600f0b915f8313610333575b50505050610287565b9251519051610350936001600160a01b0391821692909116610997565b5f80808061032a565b8351850151825161037f926001600160a01b039283169290911690859061030190610786565b5f610319565b9095508481813d83116103b1575b61039d81836106da565b810103126103ad5751945f61025d565b5f80fd5b503d610393565b6040513d5f823e3d90fd5b60405162461bcd60e51b81526020600482015260066024820152654e6f7420504d60d01b6044820152606490fd5b346103ad575f3660031901126103ad576040517f00000000000000000000000000000000000000000000000000000000000000006001600160a01b03168152602090f35b346103ad57366003190161010081126103ad5760a0136103ad5760405161045b816106be565b6004356001600160a01b03811681036103ad5781526024356001600160a01b03811681036103ad57602082015260443562ffffff811681036103ad5760408201526064358060020b81036103ad5760608201526084356001600160a01b03811681036103ad57608082015260603660a31901126103ad576040516104de816106a2565b60a43580151581036103ad57815260c435602082015260e435916001600160a01b03831683036103ad57610573826105a69460405f95015260408051610523816106a2565b338152602081019485520190815261054960405193336020860152516040850190610734565b518051151560e08401526020810151610100840152604001516001600160a01b0316610120830152565b6101208152610584610140826106da565b604051809381926348c8949160e01b8352602060048401526024830190610710565b0381837f00000000000000000000000000000000000000000000000000000000000000006001600160a01b03165af19081156103b8575f91610604575b50602081519181808201938492010103126103ad5760209051604051908152f35b90503d805f833e61061581836106da565b8101906020818303126103ad5780519067ffffffffffffffff82116103ad570181601f820112156103ad5780519067ffffffffffffffff821161068e576040519261066a601f8401601f1916602001856106da565b828452602083830101116103ad57815f9260208093018386015e83010152816105e3565b634e487b7160e01b5f52604160045260245ffd5b6060810190811067ffffffffffffffff82111761068e57604052565b60a0810190811067ffffffffffffffff82111761068e57604052565b90601f8019910116810190811067ffffffffffffffff82111761068e57604052565b35906001600160a01b03821682036103ad57565b805180835260209291819084018484015e5f828201840152601f01601f1916010190565b80516001600160a01b03908116835260208083015182169084015260408083015162ffffff169084015260608083015160020b9084015260809182015116910152565b908160209103126103ad575190565b600160ff1b8114610796575f0390565b634e487b7160e01b5f52601160045260245ffd5b908160209103126103ad575180151581036103ad5790565b9192916001600160a01b0316806108305750604051630476982d60e21b81529250602091839160049183916001600160a01b03165af180156103b8576108055750565b6108269060203d602011610829575b61081e81836106da565b810190610777565b50565b503d610814565b6001600160a01b0390911691823b156103ad57604051632961046560e21b815260048101839052935a945f816024818389819bf180156103b857610982575b506001600160a01b031684308214610927576020929160649160405195869485936323b872dd60e01b8552600485015288602485015260448401525af1801561091c579160209184936108ef575b505b600460405180958193630476982d60e21b83525af19081156108e357506108055750565b604051903d90823e3d90fd5b61090e90833d8511610915575b61090681836106da565b8101906107aa565b505f6108bd565b503d6108fc565b6040513d85823e3d90fd5b9290506044602092604051948593849263a9059cbb60e01b845288600485015260248401525af1801561091c57916020918493610965575b506108bf565b61097b90833d85116109155761090681836106da565b505f61095f565b61098f9195505f906106da565b5f935f61086f565b91906001600160a01b0316803b156103ad57604051630b0d9c0960e01b81526001600160a01b03938416600482015291909216602482015260448101929092525f908290606490829084905af180156103b8576109f15750565b5f6109fb916106da565b56fea2646970667358221220662069c861c5f809cdb58212a724ae9dec0c469590dc2d32a9ef57efac3a564364736f6c634300081a0033000000000000000000000000000000000004444c5dc75cb358380d2e3de08a90",
        "nonce": "0x979",
        "chainId": "0x1"
      },
      "additionalContracts": [],
      "isFixedGasLimit": false
    },
    {
      "hash": "0xace2e4b9aca9f8f4e149a58868b3a995577d67fd59e5fbc73319d7c5cf0a3a53",
      "transactionType": "CALL",
      "contractName": null,
      "contractAddress": "0xd1620dac6d79be34f8500756b47cf91b1fa5cc8c",
      "function": "approve(address,uint256)",
      "arguments": [
        "0x42599FAcdC09D2B3A497269f5EACa0afa1710697",
        "115792089237316195423570985008687907853269984665640564039457584007913129639935"
      ],
      "transaction": {
        "from": "0x3c44cdddb6a900fa2b585dd299e03d12fa4293bc",
        "to": "0xd1620dac6d79be34f8500756b47cf91b1fa5cc8c",
        "value": "0x0",
        "input": "0x095ea7b300000000000000000000000042599facdc09d2b3a497269f5eaca0afa1710697ffffffffffffffffffffffffffffffffffffffffffffffffffffffffffffffff",
        "nonce": "0x97a",
        "chainId": "0x1"
      },
      "additionalContracts": [],
      "isFixedGasLimit": false
    },
    {
      "hash": "0x832cda87cbd5faa655131e5eaa199850baba7e6abb62f9764ec05475d4c4087b",
      "transactionType": "CALL",
      "contractName": null,
      "contractAddress": "0x9ed4f4724b521326a9d9d2420252440bd05556c4",
      "function": "approve(address,uint256)",
      "arguments": [
        "0x42599FAcdC09D2B3A497269f5EACa0afa1710697",
        "115792089237316195423570985008687907853269984665640564039457584007913129639935"
      ],
      "transaction": {
        "from": "0x3c44cdddb6a900fa2b585dd299e03d12fa4293bc",
        "to": "0x9ed4f4724b521326a9d9d2420252440bd05556c4",
        "value": "0x0",
        "input": "0x095ea7b300000000000000000000000042599facdc09d2b3a497269f5eaca0afa1710697ffffffffffffffffffffffffffffffffffffffffffffffffffffffffffffffff",
        "nonce": "0x97b",
        "chainId": "0x1"
      },
      "additionalContracts": [],
      "isFixedGasLimit": false
    },
    {
      "hash": "0xf29732f24afd97e110e6edac208bd1fc7122a68c7c9d3d3e499d4d488d2b8257",
      "transactionType": "CALL",
      "contractName": null,
      "contractAddress": "0xd1620dac6d79be34f8500756b47cf91b1fa5cc8c",
      "function": "approve(address,uint256)",
      "arguments": [
        "0x000000000004444c5dc75cB358380D2e3dE08A90",
        "115792089237316195423570985008687907853269984665640564039457584007913129639935"
      ],
      "transaction": {
        "from": "0x3c44cdddb6a900fa2b585dd299e03d12fa4293bc",
        "to": "0xd1620dac6d79be34f8500756b47cf91b1fa5cc8c",
        "value": "0x0",
        "input": "0x095ea7b3000000000000000000000000000000000004444c5dc75cb358380d2e3de08a90ffffffffffffffffffffffffffffffffffffffffffffffffffffffffffffffff",
        "nonce": "0x97c",
        "chainId": "0x1"
      },
      "additionalContracts": [],
      "isFixedGasLimit": false
    },
    {
      "hash": "0x00a307f5320066262dbecb13773a909fd3c28c0e524af705f016b6e987b23972",
      "transactionType": "CALL",
      "contractName": null,
      "contractAddress": "0x9ed4f4724b521326a9d9d2420252440bd05556c4",
      "function": "approve(address,uint256)",
      "arguments": [
        "0x000000000004444c5dc75cB358380D2e3dE08A90",
        "115792089237316195423570985008687907853269984665640564039457584007913129639935"
      ],
      "transaction": {
        "from": "0x3c44cdddb6a900fa2b585dd299e03d12fa4293bc",
        "to": "0x9ed4f4724b521326a9d9d2420252440bd05556c4",
        "value": "0x0",
        "input": "0x095ea7b3000000000000000000000000000000000004444c5dc75cb358380d2e3de08a90ffffffffffffffffffffffffffffffffffffffffffffffffffffffffffffffff",
        "nonce": "0x97d",
        "chainId": "0x1"
      },
      "additionalContracts": [],
      "isFixedGasLimit": false
    },
    {
      "hash": "0x17d6499b4ea03b253626437f4baab5837e6436a0cc41bb9abf6e9e40ede4b630",
      "transactionType": "CALL",
      "contractName": null,
      "contractAddress": "0x9554b52516f306360a239746f70f88c23d187b63",
      "function": "createBroker(bytes32)",
      "arguments": [
        "0xd5027ebdd29823cbe230501c2039eb98fe7c17a4c95e8572368df4d9c5826650"
      ],
      "transaction": {
        "from": "0x3c44cdddb6a900fa2b585dd299e03d12fa4293bc",
        "to": "0x9554b52516f306360a239746f70f88c23d187b63",
        "value": "0x0",
        "input": "0x26f4f123d5027ebdd29823cbe230501c2039eb98fe7c17a4c95e8572368df4d9c5826650",
        "nonce": "0x97e",
        "chainId": "0x1"
      },
      "additionalContracts": [],
      "isFixedGasLimit": false
    },
    {
      "hash": "0x72df160f0a82f4504f71541e8b93c29c88fc50317f5db2963f1e8a9a14cafdd3",
      "transactionType": "CALL",
      "contractName": null,
      "contractAddress": "0xd1620dac6d79be34f8500756b47cf91b1fa5cc8c",
      "function": "transfer(address,uint256)",
      "arguments": [
        "0xEeb1eCBEdE1dE2f020229e28FF468eec78Af1e0a",
        "49999568230"
      ],
      "transaction": {
        "from": "0x3c44cdddb6a900fa2b585dd299e03d12fa4293bc",
        "to": "0xd1620dac6d79be34f8500756b47cf91b1fa5cc8c",
        "value": "0x0",
        "input": "0xa9059cbb000000000000000000000000eeb1ecbede1de2f020229e28ff468eec78af1e0a0000000000000000000000000000000000000000000000000000000ba434dd66",
        "nonce": "0x97f",
        "chainId": "0x1"
      },
      "additionalContracts": [],
      "isFixedGasLimit": false
    },
    {
      "hash": "0x55aa2ff2cb31501973755afb69b5e9047fb9e85d8b8132159738c7b2a2a8149d",
      "transactionType": "CALL",
      "contractName": null,
      "contractAddress": "0xeeb1ecbede1de2f020229e28ff468eec78af1e0a",
      "function": "modifyPosition(bytes32,int256,int256)",
      "arguments": [
        "0x5b171c28fb0eebf8c4f6bebf3f5a0f12611acb1d4a0734c51fbae996b6e9dfdf",
        "49999568230",
        "3999965458"
      ],
      "transaction": {
        "from": "0x3c44cdddb6a900fa2b585dd299e03d12fa4293bc",
        "to": "0xeeb1ecbede1de2f020229e28ff468eec78af1e0a",
        "value": "0x0",
        "input": "0x1b89f3d45b171c28fb0eebf8c4f6bebf3f5a0f12611acb1d4a0734c51fbae996b6e9dfdf0000000000000000000000000000000000000000000000000000000ba434dd6600000000000000000000000000000000000000000000000000000000ee6aa112",
        "nonce": "0x980",
        "chainId": "0x1"
      },
      "additionalContracts": [],
      "isFixedGasLimit": false
    },
    {
      "hash": "0xde9f7592d9a92a72811ffa9e5e3e51a28a4fbc3342ee681144e86db7e4b2ceea",
      "transactionType": "CALL",
      "contractName": null,
      "contractAddress": "0xeeb1ecbede1de2f020229e28ff468eec78af1e0a",
      "function": "withdrawPositionToken(address,uint256)",
      "arguments": [
        "0x3C44CdDdB6a900fa2b585dd299e03d12FA4293BC",
        "3999965458"
      ],
      "transaction": {
        "from": "0x3c44cdddb6a900fa2b585dd299e03d12fa4293bc",
        "to": "0xeeb1ecbede1de2f020229e28ff468eec78af1e0a",
        "value": "0x0",
        "input": "0x14776d760000000000000000000000003c44cdddb6a900fa2b585dd299e03d12fa4293bc00000000000000000000000000000000000000000000000000000000ee6aa112",
        "nonce": "0x981",
        "chainId": "0x1"
      },
      "additionalContracts": [],
      "isFixedGasLimit": false
    },
    {
      "hash": "0xe310a2c213c3692a54efb9f4d729ba58c0e1e08ad8ad5b34e17879b84ca05d92",
      "transactionType": "CALL",
      "contractName": "ShortRouter",
      "contractAddress": "0x42599facdc09d2b3a497269f5eaca0afa1710697",
      "function": "swap((address,address,uint24,int24,address),(bool,int256,uint160))",
      "arguments": [
        "(0x9ed4F4724b521326a9d9d2420252440bD05556c4, 0xD1620Dac6d79BE34F8500756B47cf91B1fA5Cc8C, 500, 5, 0x7e0C07EEabb2459D70dba5b8d100Dca44c652aC0)",
        "(true, 3999965458, 4295128740)"
      ],
      "transaction": {
        "from": "0x3c44cdddb6a900fa2b585dd299e03d12fa4293bc",
        "to": "0x42599facdc09d2b3a497269f5eaca0afa1710697",
        "value": "0x0",
        "input": "0x1e2817de0000000000000000000000009ed4f4724b521326a9d9d2420252440bd05556c4000000000000000000000000d1620dac6d79be34f8500756b47cf91b1fa5cc8c00000000000000000000000000000000000000000000000000000000000001f400000000000000000000000000000000000000000000000000000000000000050000000000000000000000007e0c07eeabb2459d70dba5b8d100dca44c652ac0000000000000000000000000000000000000000000000000000000000000000100000000000000000000000000000000000000000000000000000000ee6aa11200000000000000000000000000000000000000000000000000000001000276a4",
        "nonce": "0x982",
        "chainId": "0x1"
      },
      "additionalContracts": [],
      "isFixedGasLimit": false
    },
    {
      "hash": "0x1e69061bac04a60bb2713d2b7882ac70c8c26b3d15eb9ae0d7ecada9888b56a7",
      "transactionType": "CALL",
      "contractName": null,
      "contractAddress": "0xd1620dac6d79be34f8500756b47cf91b1fa5cc8c",
      "function": "transfer(address,uint256)",
      "arguments": [
        "0xEeb1eCBEdE1dE2f020229e28FF468eec78Af1e0a",
        "3999965458"
      ],
      "transaction": {
        "from": "0x3c44cdddb6a900fa2b585dd299e03d12fa4293bc",
        "to": "0xd1620dac6d79be34f8500756b47cf91b1fa5cc8c",
        "value": "0x0",
        "input": "0xa9059cbb000000000000000000000000eeb1ecbede1de2f020229e28ff468eec78af1e0a00000000000000000000000000000000000000000000000000000000ee6aa112",
        "nonce": "0x983",
        "chainId": "0x1"
      },
      "additionalContracts": [],
      "isFixedGasLimit": false
    },
    {
      "hash": "0x73639b432f0250932fc7d8fd83db5eb9967c97ff8cb865b4439b1f51d07bf2aa",
      "transactionType": "CALL",
      "contractName": null,
      "contractAddress": "0xeeb1ecbede1de2f020229e28ff468eec78af1e0a",
      "function": "modifyPosition(bytes32,int256,int256)",
      "arguments": [
        "0x5b171c28fb0eebf8c4f6bebf3f5a0f12611acb1d4a0734c51fbae996b6e9dfdf",
        "3999965458",
        "0"
      ],
      "transaction": {
        "from": "0x3c44cdddb6a900fa2b585dd299e03d12fa4293bc",
        "to": "0xeeb1ecbede1de2f020229e28ff468eec78af1e0a",
        "value": "0x0",
        "input": "0x1b89f3d45b171c28fb0eebf8c4f6bebf3f5a0f12611acb1d4a0734c51fbae996b6e9dfdf00000000000000000000000000000000000000000000000000000000ee6aa1120000000000000000000000000000000000000000000000000000000000000000",
        "nonce": "0x984",
        "chainId": "0x1"
      },
      "additionalContracts": [],
      "isFixedGasLimit": false
    }
  ],
  "receipts": [
    {
      "status": "0x1",
      "cumulativeGasUsed": "0x972e3",
      "logs": [],
      "logsBloom": "0x00000000000000000000000000000000000000000000000000000000000000000000000000000000000000000000000000000000000000000000000000000000000000000000000000000000000000000000000000000000000000000000000000000000000000000000000000000000000000000000000000000000000000000000000000000000000000000000000000000000000000000000000000000000000000000000000000000000000000000000000000000000000000000000000000000000000000000000000000000000000000000000000000000000000000000000000000000000000000000000000000000000000000000000000000000000",
      "type": "0x2",
      "transactionHash": "0x8df9e5bcb94ddb8873c6ffebe7a160a0f471dcb4f18fd759fb9d062140e332f7",
      "transactionIndex": "0x0",
      "blockHash": "0xa5856e88e07cd72fcc97cda9f20af3620be0e18ac9cba24c8f5c3385d800c6d6",
      "blockNumber": "0x173c15d",
      "gasUsed": "0x972e3",
      "effectiveGasPrice": "0x314196e",
      "blobGasPrice": "0x1",
      "from": "0x3c44cdddb6a900fa2b585dd299e03d12fa4293bc",
      "to": null,
      "contractAddress": "0x42599facdc09d2b3a497269f5eaca0afa1710697"
    },
    {
      "status": "0x1",
      "cumulativeGasUsed": "0xb4bf",
      "logs": [
        {
          "address": "0xd1620dac6d79be34f8500756b47cf91b1fa5cc8c",
          "topics": [
            "0x8c5be1e5ebec7d5bd14f71427d1e84f3dd0314c0f7b2291e5b200ac8c7c3b925",
            "0x0000000000000000000000003c44cdddb6a900fa2b585dd299e03d12fa4293bc",
            "0x00000000000000000000000042599facdc09d2b3a497269f5eaca0afa1710697"
          ],
          "data": "0xffffffffffffffffffffffffffffffffffffffffffffffffffffffffffffffff",
          "blockHash": "0x11314cee7068d25a59fa678de10af4b8fcc733f6ea69d244be0086dccc23014a",
          "blockNumber": "0x173c15e",
          "blockTimestamp": "0x697fdac2",
          "transactionHash": "0xace2e4b9aca9f8f4e149a58868b3a995577d67fd59e5fbc73319d7c5cf0a3a53",
          "transactionIndex": "0x0",
          "logIndex": "0x0",
          "removed": false
        }
      ],
      "logsBloom": "0x00000000000000008000000000800000000000000000000000000000000000000000000000000000000000000000000000000000000000000000000000300000000000080000000000000000000000000000000000000000000000004000000000000000000000000000000000000000000800000000000000000000000000000000002000000000000000000000000000000000000000000000000000000000020000000000200000000000000000000000000000000000008000000000000000000000000000000000000000000000000000000000000000000000000000000010000000000000000000000000000000000000000000000000000000000000",
      "type": "0x2",
      "transactionHash": "0xace2e4b9aca9f8f4e149a58868b3a995577d67fd59e5fbc73319d7c5cf0a3a53",
      "transactionIndex": "0x0",
      "blockHash": "0x11314cee7068d25a59fa678de10af4b8fcc733f6ea69d244be0086dccc23014a",
      "blockNumber": "0x173c15e",
      "gasUsed": "0xb4bf",
      "effectiveGasPrice": "0x2b39f86",
      "blobGasPrice": "0x1",
      "from": "0x3c44cdddb6a900fa2b585dd299e03d12fa4293bc",
      "to": "0xd1620dac6d79be34f8500756b47cf91b1fa5cc8c",
      "contractAddress": null
    },
    {
      "status": "0x1",
      "cumulativeGasUsed": "0xb4a9",
      "logs": [
        {
          "address": "0x9ed4f4724b521326a9d9d2420252440bd05556c4",
          "topics": [
            "0x8c5be1e5ebec7d5bd14f71427d1e84f3dd0314c0f7b2291e5b200ac8c7c3b925",
            "0x0000000000000000000000003c44cdddb6a900fa2b585dd299e03d12fa4293bc",
            "0x00000000000000000000000042599facdc09d2b3a497269f5eaca0afa1710697"
          ],
          "data": "0xffffffffffffffffffffffffffffffffffffffffffffffffffffffffffffffff",
          "blockHash": "0xd91fab418197ecac0d4af3a597bb8db9f41f19c50f9134fe5f4d7bba93abd1f6",
          "blockNumber": "0x173c15f",
          "blockTimestamp": "0x697fdac2",
          "transactionHash": "0x832cda87cbd5faa655131e5eaa199850baba7e6abb62f9764ec05475d4c4087b",
          "transactionIndex": "0x0",
          "logIndex": "0x0",
          "removed": false
        }
      ],
      "logsBloom": "0x00000000004000000004000000800000000000000000000000000000000000000000000000000000000000000000000000000000000000000000000000300000000000080000000000000000000000000000000000000000000000000000000000000000000000000000000000000000000800000000000000000000000000000000020000000000000000000000000000000000000000000000000000000000020000000000200000000000000000000000000000000000008000000000000000000000000000000000000000000000000000000000000000000000000000000010000000000000000000000000000000000000000000000000000000000000",
      "type": "0x2",
      "transactionHash": "0x832cda87cbd5faa655131e5eaa199850baba7e6abb62f9764ec05475d4c4087b",
      "transactionIndex": "0x0",
      "blockHash": "0xd91fab418197ecac0d4af3a597bb8db9f41f19c50f9134fe5f4d7bba93abd1f6",
      "blockNumber": "0x173c15f",
      "gasUsed": "0xb4a9",
      "effectiveGasPrice": "0x25d4e74",
      "blobGasPrice": "0x1",
      "from": "0x3c44cdddb6a900fa2b585dd299e03d12fa4293bc",
      "to": "0x9ed4f4724b521326a9d9d2420252440bd05556c4",
      "contractAddress": null
    },
    {
      "status": "0x1",
      "cumulativeGasUsed": "0xb483",
      "logs": [
        {
          "address": "0xd1620dac6d79be34f8500756b47cf91b1fa5cc8c",
          "topics": [
            "0x8c5be1e5ebec7d5bd14f71427d1e84f3dd0314c0f7b2291e5b200ac8c7c3b925",
            "0x0000000000000000000000003c44cdddb6a900fa2b585dd299e03d12fa4293bc",
            "0x000000000000000000000000000000000004444c5dc75cb358380d2e3de08a90"
          ],
          "data": "0xffffffffffffffffffffffffffffffffffffffffffffffffffffffffffffffff",
          "blockHash": "0x8d3e6de784d03f18e126bea65fd87dbcd13f49973058b3f13c3a73c19db54c1b",
          "blockNumber": "0x173c160",
          "blockTimestamp": "0x697fdac2",
          "transactionHash": "0xf29732f24afd97e110e6edac208bd1fc7122a68c7c9d3d3e499d4d488d2b8257",
          "transactionIndex": "0x0",
          "logIndex": "0x0",
          "removed": false
        }
      ],
      "logsBloom": "0x00000000000000008000000000000000000000000000000000000000000000000000000000000000001000000000000000000000000000000000000000300000000000000000000000000000000000000000000000000000000000004000000000000000000000000000000000000000000800000000000000000000000000000000002800000000000000000000000000000000000000000000000000000000020000000000200000000000000000000000000000000000000000000000000000000000000000000000000000000000000000400000000000000000000000000010000000000000000000000000000000000000000000000000000000000000",
      "type": "0x2",
      "transactionHash": "0xf29732f24afd97e110e6edac208bd1fc7122a68c7c9d3d3e499d4d488d2b8257",
      "transactionIndex": "0x0",
      "blockHash": "0x8d3e6de784d03f18e126bea65fd87dbcd13f49973058b3f13c3a73c19db54c1b",
      "blockNumber": "0x173c160",
      "gasUsed": "0xb483",
      "effectiveGasPrice": "0x211c33e",
      "blobGasPrice": "0x1",
      "from": "0x3c44cdddb6a900fa2b585dd299e03d12fa4293bc",
      "to": "0xd1620dac6d79be34f8500756b47cf91b1fa5cc8c",
      "contractAddress": null
    },
    {
      "status": "0x1",
      "cumulativeGasUsed": "0xb46d",
      "logs": [
        {
          "address": "0x9ed4f4724b521326a9d9d2420252440bd05556c4",
          "topics": [
            "0x8c5be1e5ebec7d5bd14f71427d1e84f3dd0314c0f7b2291e5b200ac8c7c3b925",
            "0x0000000000000000000000003c44cdddb6a900fa2b585dd299e03d12fa4293bc",
            "0x000000000000000000000000000000000004444c5dc75cb358380d2e3de08a90"
          ],
          "data": "0xffffffffffffffffffffffffffffffffffffffffffffffffffffffffffffffff",
          "blockHash": "0xd79559d5e514e76e19fc40eef258f76fdc2177bac0023e8d5510ad7c3d6dcca6",
          "blockNumber": "0x173c161",
          "blockTimestamp": "0x697fdac2",
          "transactionHash": "0x00a307f5320066262dbecb13773a909fd3c28c0e524af705f016b6e987b23972",
          "transactionIndex": "0x0",
          "logIndex": "0x0",
          "removed": false
        }
      ],
      "logsBloom": "0x00000000004000000004000000000000000000000000000000000000000000000000000000000000001000000000000000000000000000000000000000300000000000000000000000000000000000000000000000000000000000000000000000000000000000000000000000000000000800000000000000000000000000000000020800000000000000000000000000000000000000000000000000000000020000000000200000000000000000000000000000000000000000000000000000000000000000000000000000000000000000400000000000000000000000000010000000000000000000000000000000000000000000000000000000000000",
      "type": "0x2",
      "transactionHash": "0x00a307f5320066262dbecb13773a909fd3c28c0e524af705f016b6e987b23972",
      "transactionIndex": "0x0",
      "blockHash": "0xd79559d5e514e76e19fc40eef258f76fdc2177bac0023e8d5510ad7c3d6dcca6",
      "blockNumber": "0x173c161",
      "gasUsed": "0xb46d",
      "effectiveGasPrice": "0x1cfa5af",
      "blobGasPrice": "0x1",
      "from": "0x3c44cdddb6a900fa2b585dd299e03d12fa4293bc",
      "to": "0x9ed4f4724b521326a9d9d2420252440bd05556c4",
      "contractAddress": null
    },
    {
      "status": "0x1",
      "cumulativeGasUsed": "0x53edf",
      "logs": [
        {
          "address": "0x9554b52516f306360a239746f70f88c23d187b63",
          "topics": [
            "0xddf252ad1be2c89b69c2b068fc378daa952ba7f163c4a11628f55a4df523b3ef",
            "0x0000000000000000000000000000000000000000000000000000000000000000",
            "0x0000000000000000000000003c44cdddb6a900fa2b585dd299e03d12fa4293bc",
            "0x000000000000000000000000eeb1ecbede1de2f020229e28ff468eec78af1e0a"
          ],
          "data": "0x",
          "blockHash": "0x785eaa4050c0e67a90e9bfdbe157e5b42326ec285a98a71d5411c1ba599444ad",
          "blockNumber": "0x173c162",
          "blockTimestamp": "0x697fdac2",
          "transactionHash": "0x17d6499b4ea03b253626437f4baab5837e6436a0cc41bb9abf6e9e40ede4b630",
          "transactionIndex": "0x0",
          "logIndex": "0x0",
          "removed": false
        },
        {
          "address": "0x9554b52516f306360a239746f70f88c23d187b63",
          "topics": [
            "0xc418c83b1622e1e32aac5d6d2848134a7e89eb8e96c8514afd1757d25ee5ef71",
            "0x000000000000000000000000eeb1ecbede1de2f020229e28ff468eec78af1e0a",
            "0x0000000000000000000000003c44cdddb6a900fa2b585dd299e03d12fa4293bc"
          ],
          "data": "0x000000000000000000000000eeb1ecbede1de2f020229e28ff468eec78af1e0a",
          "blockHash": "0x785eaa4050c0e67a90e9bfdbe157e5b42326ec285a98a71d5411c1ba599444ad",
          "blockNumber": "0x173c162",
          "blockTimestamp": "0x697fdac2",
          "transactionHash": "0x17d6499b4ea03b253626437f4baab5837e6436a0cc41bb9abf6e9e40ede4b630",
          "transactionIndex": "0x0",
          "logIndex": "0x1",
          "removed": false
        }
      ],
      "logsBloom": "0x00000000000000000000100020000000000000000000000000000000000000000000000000000000000000000000000000000200000000000000000000100000000000000000000000000008000000000000000000000100008000000000000000000000020000000000000000008800000800400000000000000010000000000000000000000000000000000000000000100000000000000000000000000000000000000000200400000000000000000000000000000000000000000000000000000002000000000000000000000000000000000000000000000000000020000000000000000000000000000000000000000000000000000000000000000000",
      "type": "0x2",
      "transactionHash": "0x17d6499b4ea03b253626437f4baab5837e6436a0cc41bb9abf6e9e40ede4b630",
      "transactionIndex": "0x0",
      "blockHash": "0x785eaa4050c0e67a90e9bfdbe157e5b42326ec285a98a71d5411c1ba599444ad",
      "blockNumber": "0x173c162",
      "gasUsed": "0x53edf",
      "effectiveGasPrice": "0x195c88d",
      "blobGasPrice": "0x1",
      "from": "0x3c44cdddb6a900fa2b585dd299e03d12fa4293bc",
      "to": "0x9554b52516f306360a239746f70f88c23d187b63",
      "contractAddress": null
    },
    {
      "status": "0x1",
      "cumulativeGasUsed": "0xb5a1",
      "logs": [
        {
          "address": "0xd1620dac6d79be34f8500756b47cf91b1fa5cc8c",
          "topics": [
            "0xddf252ad1be2c89b69c2b068fc378daa952ba7f163c4a11628f55a4df523b3ef",
            "0x0000000000000000000000003c44cdddb6a900fa2b585dd299e03d12fa4293bc",
            "0x000000000000000000000000eeb1ecbede1de2f020229e28ff468eec78af1e0a"
          ],
          "data": "0x0000000000000000000000000000000000000000000000000000000ba434dd66",
          "blockHash": "0x044d61ef6c24ed1ca69184079fc92d6a6b3a68f07835b09a40a979dde699fdca",
          "blockNumber": "0x173c163",
          "blockTimestamp": "0x697fdac2",
          "transactionHash": "0x72df160f0a82f4504f71541e8b93c29c88fc50317f5db2963f1e8a9a14cafdd3",
          "transactionIndex": "0x0",
          "logIndex": "0x0",
          "removed": false
        }
      ],
      "logsBloom": "0x00000000000000008000000000000000000000000000000000000000000000000000000000000000000000000000000000000000000000000000000000100000000000000000000000000008000000000000000000000000000000004000000000000000000000000000000000000000000800400000000000000010000000000000002000000000000000000000000000100000000000000000000000000000000000000000200400000000000000000000000000000000000000000000000000000002000000000000000000000000000000000000000000000000000000000000000000000000000000000000000000000000000000000000000000000000",
      "type": "0x2",
      "transactionHash": "0x72df160f0a82f4504f71541e8b93c29c88fc50317f5db2963f1e8a9a14cafdd3",
      "transactionIndex": "0x0",
      "blockHash": "0x044d61ef6c24ed1ca69184079fc92d6a6b3a68f07835b09a40a979dde699fdca",
      "blockNumber": "0x173c163",
      "gasUsed": "0xb5a1",
      "effectiveGasPrice": "0x163a502",
      "blobGasPrice": "0x1",
      "from": "0x3c44cdddb6a900fa2b585dd299e03d12fa4293bc",
      "to": "0xd1620dac6d79be34f8500756b47cf91b1fa5cc8c",
      "contractAddress": null
    },
    {
      "status": "0x1",
      "cumulativeGasUsed": "0x50be9",
      "logs": [
        {
          "address": "0x9ed4f4724b521326a9d9d2420252440bd05556c4",
          "topics": [
            "0xddf252ad1be2c89b69c2b068fc378daa952ba7f163c4a11628f55a4df523b3ef",
            "0x0000000000000000000000000000000000000000000000000000000000000000",
            "0x000000000000000000000000eeb1ecbede1de2f020229e28ff468eec78af1e0a"
          ],
          "data": "0x00000000000000000000000000000000000000000000000000000000ee6aa112",
          "blockHash": "0x09d6478ca29bb2356791ac9237a6676c1a75de39bd45dd1c9a86216cfa006eca",
          "blockNumber": "0x173c164",
          "blockTimestamp": "0x697fdac2",
          "transactionHash": "0x55aa2ff2cb31501973755afb69b5e9047fb9e85d8b8132159738c7b2a2a8149d",
          "transactionIndex": "0x0",
          "logIndex": "0x0",
          "removed": false
        },
        {
          "address": "0x766542304e16e3585d569705b0eff4756efa6cac",
          "topics": [
            "0x343ef6bfd54be4f7cb6918335f3d2788a88dfadfc586a5c32c67c2f3b61c6338",
            "0x5b171c28fb0eebf8c4f6bebf3f5a0f12611acb1d4a0734c51fbae996b6e9dfdf",
            "0x000000000000000000000000eeb1ecbede1de2f020229e28ff468eec78af1e0a"
          ],
          "data": "0x0000000000000000000000000000000000000000000000000000000ba434dd6600000000000000000000000000000000000000000000000000000000ee6aa112",
          "blockHash": "0x09d6478ca29bb2356791ac9237a6676c1a75de39bd45dd1c9a86216cfa006eca",
          "blockNumber": "0x173c164",
          "blockTimestamp": "0x697fdac2",
          "transactionHash": "0x55aa2ff2cb31501973755afb69b5e9047fb9e85d8b8132159738c7b2a2a8149d",
          "transactionIndex": "0x0",
          "logIndex": "0x1",
          "removed": false
        },
        {
          "address": "0xd1620dac6d79be34f8500756b47cf91b1fa5cc8c",
          "topics": [
            "0x8c5be1e5ebec7d5bd14f71427d1e84f3dd0314c0f7b2291e5b200ac8c7c3b925",
            "0x000000000000000000000000eeb1ecbede1de2f020229e28ff468eec78af1e0a",
            "0x000000000000000000000000766542304e16e3585d569705b0eff4756efa6cac"
          ],
          "data": "0x0000000000000000000000000000000000000000000000000000000ba434dd66",
          "blockHash": "0x09d6478ca29bb2356791ac9237a6676c1a75de39bd45dd1c9a86216cfa006eca",
          "blockNumber": "0x173c164",
          "blockTimestamp": "0x697fdac2",
          "transactionHash": "0x55aa2ff2cb31501973755afb69b5e9047fb9e85d8b8132159738c7b2a2a8149d",
          "transactionIndex": "0x0",
          "logIndex": "0x2",
          "removed": false
        }
      ],
      "logsBloom": "0x00000000004000008004000000000000000000000000080000000000000000000000000000000000400000100000000000000000000000080000000000200000000000000000000000000008000000080000000000000000000000004000000000000000024000000000000000000800000000400000000000000010000000000000022000000000000000000000000000100000000000000000000000000002020000000000000400000100000000000000000000000000000000000000000000000002000000000000000000000000008000000000000000000010000020100010000000010000000000000000000000000000000000000000000000000000",
      "type": "0x2",
      "transactionHash": "0x55aa2ff2cb31501973755afb69b5e9047fb9e85d8b8132159738c7b2a2a8149d",
      "transactionIndex": "0x0",
      "blockHash": "0x09d6478ca29bb2356791ac9237a6676c1a75de39bd45dd1c9a86216cfa006eca",
      "blockNumber": "0x173c164",
      "gasUsed": "0x50be9",
      "effectiveGasPrice": "0x13742c1",
      "blobGasPrice": "0x1",
      "from": "0x3c44cdddb6a900fa2b585dd299e03d12fa4293bc",
      "to": "0xeeb1ecbede1de2f020229e28ff468eec78af1e0a",
      "contractAddress": null
    },
    {
      "status": "0x1",
      "cumulativeGasUsed": "0x25fbf",
      "logs": [
        {
          "address": "0x9ed4f4724b521326a9d9d2420252440bd05556c4",
          "topics": [
            "0xddf252ad1be2c89b69c2b068fc378daa952ba7f163c4a11628f55a4df523b3ef",
            "0x000000000000000000000000eeb1ecbede1de2f020229e28ff468eec78af1e0a",
            "0x0000000000000000000000003c44cdddb6a900fa2b585dd299e03d12fa4293bc"
          ],
          "data": "0x00000000000000000000000000000000000000000000000000000000ee6aa112",
          "blockHash": "0xc025d0337f34b075f47ed59e5e300a9f6f49465947248078e4451a694306f84d",
          "blockNumber": "0x173c165",
          "blockTimestamp": "0x697fdac2",
          "transactionHash": "0xde9f7592d9a92a72811ffa9e5e3e51a28a4fbc3342ee681144e86db7e4b2ceea",
          "transactionIndex": "0x0",
          "logIndex": "0x0",
          "removed": false
        }
      ],
      "logsBloom": "0x00000000004000000004000000000000000000000000000000000000000000000000000000000000000000000000000000000000000000000000000000100000000000000000000000000008000000000000000000000000000000000000000000000000000000000000000000000000000800400000000000000010000000000000020000000000000000000000000000100000000000000000000000000000000000000000200400000000000000000000000000000000000000000000000000000002000000000000000000000000000000000000000000000000000000000000000000000000000000000000000000000000000000000000000000000000",
      "type": "0x2",
      "transactionHash": "0xde9f7592d9a92a72811ffa9e5e3e51a28a4fbc3342ee681144e86db7e4b2ceea",
      "transactionIndex": "0x0",
      "blockHash": "0xc025d0337f34b075f47ed59e5e300a9f6f49465947248078e4451a694306f84d",
      "blockNumber": "0x173c165",
      "gasUsed": "0x25fbf",
      "effectiveGasPrice": "0x110c8f1",
      "blobGasPrice": "0x1",
      "from": "0x3c44cdddb6a900fa2b585dd299e03d12fa4293bc",
      "to": "0xeeb1ecbede1de2f020229e28ff468eec78af1e0a",
      "contractAddress": null
    },
    {
      "status": "0x1",
      "cumulativeGasUsed": "0x2af29",
      "logs": [
        {
          "address": "0x000000000004444c5dc75cb358380d2e3de08a90",
          "topics": [
            "0x40e9cecb9f5f1f1c5b9c97dec2917b7ee92e57ba5563708daca94dd84ad7112f",
            "0x3509745444ed1275bf3cc6196dcab60943ac6b87c5b249d3e64fa8e35e5b5f69",
            "0x00000000000000000000000042599facdc09d2b3a497269f5eaca0afa1710697"
          ],
          "data": "0xffffffffffffffffffffffffffffffffffffffffffffffffffffffffcd73c59000000000000000000000000000000000000000000000000000000000ee6aa1120000000000000000000000000000000000000002282b3ba833efb14bc62cfaf90000000000000000000000000000000000000000000000000000001e1717e9e30000000000000000000000000000000000000000000000000000000000003c0e00000000000000000000000000000000000000000000000000000000000001f4",
          "blockHash": "0x15c9bfacd9af32818c8746c902850a1e3013610915e0e1ce0621c85f026fea33",
          "blockNumber": "0x173c166",
          "blockTimestamp": "0x697fdac2",
          "transactionHash": "0xe310a2c213c3692a54efb9f4d729ba58c0e1e08ad8ad5b34e17879b84ca05d92",
          "transactionIndex": "0x0",
          "logIndex": "0x0",
          "removed": false
        },
        {
          "address": "0x9ed4f4724b521326a9d9d2420252440bd05556c4",
          "topics": [
            "0xddf252ad1be2c89b69c2b068fc378daa952ba7f163c4a11628f55a4df523b3ef",
            "0x0000000000000000000000003c44cdddb6a900fa2b585dd299e03d12fa4293bc",
            "0x000000000000000000000000000000000004444c5dc75cb358380d2e3de08a90"
          ],
          "data": "0x00000000000000000000000000000000000000000000000000000000328c3a70",
          "blockHash": "0x15c9bfacd9af32818c8746c902850a1e3013610915e0e1ce0621c85f026fea33",
          "blockNumber": "0x173c166",
          "blockTimestamp": "0x697fdac2",
          "transactionHash": "0xe310a2c213c3692a54efb9f4d729ba58c0e1e08ad8ad5b34e17879b84ca05d92",
          "transactionIndex": "0x0",
          "logIndex": "0x1",
          "removed": false
        },
        {
          "address": "0xd1620dac6d79be34f8500756b47cf91b1fa5cc8c",
          "topics": [
            "0xddf252ad1be2c89b69c2b068fc378daa952ba7f163c4a11628f55a4df523b3ef",
            "0x000000000000000000000000000000000004444c5dc75cb358380d2e3de08a90",
            "0x0000000000000000000000003c44cdddb6a900fa2b585dd299e03d12fa4293bc"
          ],
          "data": "0x00000000000000000000000000000000000000000000000000000000ee6aa112",
          "blockHash": "0x15c9bfacd9af32818c8746c902850a1e3013610915e0e1ce0621c85f026fea33",
          "blockNumber": "0x173c166",
          "blockTimestamp": "0x697fdac2",
          "transactionHash": "0xe310a2c213c3692a54efb9f4d729ba58c0e1e08ad8ad5b34e17879b84ca05d92",
          "transactionIndex": "0x0",
          "logIndex": "0x2",
          "removed": false
        }
      ],
      "logsBloom": "0x00000000004000008004000000800000000000000000000000000000000000000000000020000000001000000000000000000000040000000000000000108000000000080000000000000008000000000000000000000020000000004000000000000000000000008000000000000000000800000000000000000010000000000000022800000000000000000000000000000000000000000000000000000000000000000000200000000000100000000000000000000000008000000000000000000802000000000000000000000000000000400000000000000000000000000000000000000000004000000000000000000100000000000000000000000000",
      "type": "0x2",
      "transactionHash": "0xe310a2c213c3692a54efb9f4d729ba58c0e1e08ad8ad5b34e17879b84ca05d92",
      "transactionIndex": "0x0",
      "blockHash": "0x15c9bfacd9af32818c8746c902850a1e3013610915e0e1ce0621c85f026fea33",
      "blockNumber": "0x173c166",
      "gasUsed": "0x2af29",
      "effectiveGasPrice": "0xeeddd3",
      "blobGasPrice": "0x1",
      "from": "0x3c44cdddb6a900fa2b585dd299e03d12fa4293bc",
      "to": "0x42599facdc09d2b3a497269f5eaca0afa1710697",
      "contractAddress": null
    },
    {
      "status": "0x1",
      "cumulativeGasUsed": "0x72c9",
      "logs": [
        {
          "address": "0xd1620dac6d79be34f8500756b47cf91b1fa5cc8c",
          "topics": [
            "0xddf252ad1be2c89b69c2b068fc378daa952ba7f163c4a11628f55a4df523b3ef",
            "0x0000000000000000000000003c44cdddb6a900fa2b585dd299e03d12fa4293bc",
            "0x000000000000000000000000eeb1ecbede1de2f020229e28ff468eec78af1e0a"
          ],
          "data": "0x00000000000000000000000000000000000000000000000000000000ee6aa112",
          "blockHash": "0x75d2146d46b2c86967957e6a989ef96c9752ca98acc1c8bca19bbe1039313089",
          "blockNumber": "0x173c167",
          "blockTimestamp": "0x697fdac2",
          "transactionHash": "0x1e69061bac04a60bb2713d2b7882ac70c8c26b3d15eb9ae0d7ecada9888b56a7",
          "transactionIndex": "0x0",
          "logIndex": "0x0",
          "removed": false
        }
      ],
      "logsBloom": "0x00000000000000008000000000000000000000000000000000000000000000000000000000000000000000000000000000000000000000000000000000100000000000000000000000000008000000000000000000000000000000004000000000000000000000000000000000000000000800400000000000000010000000000000002000000000000000000000000000100000000000000000000000000000000000000000200400000000000000000000000000000000000000000000000000000002000000000000000000000000000000000000000000000000000000000000000000000000000000000000000000000000000000000000000000000000",
      "type": "0x2",
      "transactionHash": "0x1e69061bac04a60bb2713d2b7882ac70c8c26b3d15eb9ae0d7ecada9888b56a7",
      "transactionIndex": "0x0",
      "blockHash": "0x75d2146d46b2c86967957e6a989ef96c9752ca98acc1c8bca19bbe1039313089",
      "blockNumber": "0x173c167",
      "gasUsed": "0x72c9",
      "effectiveGasPrice": "0xd12fa6",
      "blobGasPrice": "0x1",
      "from": "0x3c44cdddb6a900fa2b585dd299e03d12fa4293bc",
      "to": "0xd1620dac6d79be34f8500756b47cf91b1fa5cc8c",
      "contractAddress": null
    },
    {
      "status": "0x1",
      "cumulativeGasUsed": "0x26713",
      "logs": [
        {
          "address": "0x766542304e16e3585d569705b0eff4756efa6cac",
          "topics": [
            "0x343ef6bfd54be4f7cb6918335f3d2788a88dfadfc586a5c32c67c2f3b61c6338",
            "0x5b171c28fb0eebf8c4f6bebf3f5a0f12611acb1d4a0734c51fbae996b6e9dfdf",
            "0x000000000000000000000000eeb1ecbede1de2f020229e28ff468eec78af1e0a"
          ],
          "data": "0x00000000000000000000000000000000000000000000000000000000ee6aa1120000000000000000000000000000000000000000000000000000000000000000",
          "blockHash": "0x07bb02480981cac88cc2f9f77af0f1a030a719abf15242d3b43e2eb127b6e9ed",
          "blockNumber": "0x173c168",
          "blockTimestamp": "0x697fdac2",
          "transactionHash": "0x73639b432f0250932fc7d8fd83db5eb9967c97ff8cb865b4439b1f51d07bf2aa",
          "transactionIndex": "0x0",
          "logIndex": "0x0",
          "removed": false
        },
        {
          "address": "0xd1620dac6d79be34f8500756b47cf91b1fa5cc8c",
          "topics": [
            "0x8c5be1e5ebec7d5bd14f71427d1e84f3dd0314c0f7b2291e5b200ac8c7c3b925",
            "0x000000000000000000000000eeb1ecbede1de2f020229e28ff468eec78af1e0a",
            "0x000000000000000000000000766542304e16e3585d569705b0eff4756efa6cac"
          ],
          "data": "0x00000000000000000000000000000000000000000000000000000000ee6aa112",
          "blockHash": "0x07bb02480981cac88cc2f9f77af0f1a030a719abf15242d3b43e2eb127b6e9ed",
          "blockNumber": "0x173c168",
          "blockTimestamp": "0x697fdac2",
          "transactionHash": "0x73639b432f0250932fc7d8fd83db5eb9967c97ff8cb865b4439b1f51d07bf2aa",
          "transactionIndex": "0x0",
          "logIndex": "0x1",
          "removed": false
        }
      ],
      "logsBloom": "0x00000000000000008000000000000000000000000000080000000000000000000000000000000000400000100000000000000000000000080000000000200000000000000000000000000000000000080000000000000000000000004000000000000000004000000000000000000000000000400000000000000000000000000000002000000000000000000000000000100000000000000000000000000002020000000000000400000100000000000000000000000000000000000000000000000000000000000000000000000000008000000000000000000010000000100010000000010000000000000000000000000000000000000000000000000000",
      "type": "0x2",
      "transactionHash": "0x73639b432f0250932fc7d8fd83db5eb9967c97ff8cb865b4439b1f51d07bf2aa",
      "transactionIndex": "0x0",
      "blockHash": "0x07bb02480981cac88cc2f9f77af0f1a030a719abf15242d3b43e2eb127b6e9ed",
      "blockNumber": "0x173c168",
      "gasUsed": "0x26713",
      "effectiveGasPrice": "0xb710fc",
      "blobGasPrice": "0x1",
      "from": "0x3c44cdddb6a900fa2b585dd299e03d12fa4293bc",
      "to": "0xeeb1ecbede1de2f020229e28ff468eec78af1e0a",
      "contractAddress": null
    }
  ],
  "libraries": [],
  "pending": [],
  "returns": {},
  "timestamp": 1770032864613,
  "chain": 1,
  "commit": "290e97f"
}