{
  "transactions": [
    {
      "hash": "0xd07e4af8e42912fa5fe5e03e306e8ec035d5e2c79c0af12e39da2b2f43e4f81c",
      "transactionType": "CREATE",
      "contractName": "ShortRouter",
      "contractAddress": "0xe5529ba08bd8b2bc3b1a4e640c56aa83da90220c",
      "function": null,
      "arguments": [
        "0x000000000004444c5dc75cB358380D2e3dE08A90"
      ],
      "transaction": {
        "from": "0x3c44cdddb6a900fa2b585dd299e03d12fa4293bc",
        "value": "0x0",
        "input": "0x60a034607357601f610abf38819003918201601f19168301916001600160401b03831184841017607757808492602094604052833981010312607357516001600160a01b0381168103607357608052604051610a33908161008c8239608051818181608b0152818161040601526105ab0152f35b5f80fd5b634e487b7160e01b5f52604160045260245ffdfe60806040526004361015610011575f80fd5b5f3560e01c80631e2817de14610435578063481c6a75146103f1576391dd73461461003a575f80fd5b346103ad5760203660031901126103ad5760043567ffffffffffffffff81116103ad57366023820112156103ad57806004013567ffffffffffffffff81116103ad578101903660248301116103ad577f00000000000000000000000000000000000000000000000000000000000000006001600160a01b0381169290338490036103c357610120838303126103ad576040516100d5816106a2565b6100e1602485016106fc565b815260a0601f1985850301126103ad57604051926100fe846106be565b61010a604486016106fc565b8452610118606486016106fc565b6020850152608485013562ffffff811681036103ad57604085015260a48501358060020b81036103ad57606085015260c48501356001600160a01b03811681036103ad5760808501526020820193845260609085900360bf1901126103ad5760405193610184856106a2565b60e48101359081151582036103ad5790855261010481013560208601526101240135936001600160a01b03851685036103ad57610237955f9560408301526040830191808352855191610210602098899461024b6040516101e588826106da565b838152601f1988013689830137604051633cf3645360e21b81529d8e97889687956004870190610734565b8051151560a4860152602081015160c4860152604001516001600160a01b031660e4850152565b610120610104840152610124830190610710565b03925af19586156103b8575f96610385575b5051511561030d578460801d600f0b5f81126102dd575b5084600f0b915f83136102b5575b505050505b604051918183015280825261029d6040836106da565b6102b1604051928284938452830190610710565b0390f35b925184015190516102d4936001600160a01b0391821692909116610997565b5f808080610282565b8351518251610307926001600160a01b039283169290911690859061030190610786565b926107c2565b5f610274565b84600f0b5f8112610359575b508460801d600f0b915f8313610333575b50505050610287565b9251519051610350936001600160a01b0391821692909116610997565b5f80808061032a565b8351850151825161037f926001600160a01b039283169290911690859061030190610786565b5f610319565b9095508481813d83116103b1575b61039d81836106da565b810103126103ad5751945f61025d565b5f80fd5b503d610393565b6040513d5f823e3d90fd5b60405162461bcd60e51b81526020600482015260066024820152654e6f7420504d60d01b6044820152606490fd5b346103ad575f3660031901126103ad576040517f00000000000000000000000000000000000000000000000000000000000000006001600160a01b03168152602090f35b346103ad57366003190161010081126103ad5760a0136103ad5760405161045b816106be565b6004356001600160a01b03811681036103ad5781526024356001600160a01b03811681036103ad57602082015260443562ffffff811681036103ad5760408201526064358060020b81036103ad5760608201526084356001600160a01b03811681036103ad57608082015260603660a31901126103ad576040516104de816106a2565b60a43580151581036103ad57815260c435602082015260e435916001600160a01b03831683036103ad57610573826105a69460405f95015260408051610523816106a2565b338152602081019485520190815261054960405193336020860152516040850190610734565b518051151560e08401526020810151610100840152604001516001600160a01b0316610120830152565b6101208152610584610140826106da565b604051809381926348c8949160e01b8352602060048401526024830190610710565b0381837f00000000000000000000000000000000000000000000000000000000000000006001600160a01b03165af19081156103b8575f91610604575b50602081519181808201938492010103126103ad5760209051604051908152f35b90503d805f833e61061581836106da565b8101906020818303126103ad5780519067ffffffffffffffff82116103ad570181601f820112156103ad5780519067ffffffffffffffff821161068e576040519261066a601f8401601f1916602001856106da565b828452602083830101116103ad57815f9260208093018386015e83010152816105e3565b634e487b7160e01b5f52604160045260245ffd5b6060810190811067ffffffffffffffff82111761068e57604052565b60a0810190811067ffffffffffffffff82111761068e57604052565b90601f8019910116810190811067ffffffffffffffff82111761068e57604052565b35906001600160a01b03821682036103ad57565b805180835260209291819084018484015e5f828201840152601f01601f1916010190565b80516001600160a01b03908116835260208083015182169084015260408083015162ffffff169084015260608083015160020b9084015260809182015116910152565b908160209103126103ad575190565b600160ff1b8114610796575f0390565b634e487b7160e01b5f52601160045260245ffd5b908160209103126103ad575180151581036103ad5790565b9192916001600160a01b0316806108305750604051630476982d60e21b81529250602091839160049183916001600160a01b03165af180156103b8576108055750565b6108269060203d602011610829575b61081e81836106da565b810190610777565b50565b503d610814565b6001600160a01b0390911691823b156103ad57604051632961046560e21b815260048101839052935a945f816024818389819bf180156103b857610982575b506001600160a01b031684308214610927576020929160649160405195869485936323b872dd60e01b8552600485015288602485015260448401525af1801561091c579160209184936108ef575b505b600460405180958193630476982d60e21b83525af19081156108e357506108055750565b604051903d90823e3d90fd5b61090e90833d8511610915575b61090681836106da565b8101906107aa565b505f6108bd565b503d6108fc565b6040513d85823e3d90fd5b9290506044602092604051948593849263a9059cbb60e01b845288600485015260248401525af1801561091c57916020918493610965575b506108bf565b61097b90833d85116109155761090681836106da565b505f61095f565b61098f9195505f906106da565b5f935f61086f565b91906001600160a01b0316803b156103ad57604051630b0d9c0960e01b81526001600160a01b03938416600482015291909216602482015260448101929092525f908290606490829084905af180156103b8576109f15750565b5f6109fb916106da565b56fea2646970667358221220662069c861c5f809cdb58212a724ae9dec0c469590dc2d32a9ef57efac3a564364736f6c634300081a0033000000000000000000000000000000000004444c5dc75cb358380d2e3de08a90",
        "nonce": "0x989",
        "chainId": "0x1"
      },
      "additionalContracts": [],
      "isFixedGasLimit": false
    },
    {
      "hash": "0x96e524bbc9892cb8d622cbd67f8d99deffa98cec81cd30ad5a7dfb0c4f96759d",
      "transactionType": "CALL",
      "contractName": null,
      "contractAddress": "0xd1620dac6d79be34f8500756b47cf91b1fa5cc8c",
      "function": "approve(address,uint256)",
      "arguments": [
        "0xE5529Ba08Bd8b2BC3b1A4E640c56AA83Da90220C",
        "115792089237316195423570985008687907853269984665640564039457584007913129639935"
      ],
      "transaction": {
        "from": "0x3c44cdddb6a900fa2b585dd299e03d12fa4293bc",
        "to": "0xd1620dac6d79be34f8500756b47cf91b1fa5cc8c",
        "value": "0x0",
        "input": "0x095ea7b3000000000000000000000000e5529ba08bd8b2bc3b1a4e640c56aa83da90220cffffffffffffffffffffffffffffffffffffffffffffffffffffffffffffffff",
        "nonce": "0x98a",
        "chainId": "0x1"
      },
      "additionalContracts": [],
      "isFixedGasLimit": false
    },
    {
      "hash": "0x125647038222c89ab15a25fa7cf86db9a9ec09d7fb2133fc69e1addc4bc6abc3",
      "transactionType": "CALL",
      "contractName": null,
      "contractAddress": "0x9ed4f4724b521326a9d9d2420252440bd05556c4",
      "function": "approve(address,uint256)",
      "arguments": [
        "0xE5529Ba08Bd8b2BC3b1A4E640c56AA83Da90220C",
        "115792089237316195423570985008687907853269984665640564039457584007913129639935"
      ],
      "transaction": {
        "from": "0x3c44cdddb6a900fa2b585dd299e03d12fa4293bc",
        "to": "0x9ed4f4724b521326a9d9d2420252440bd05556c4",
        "value": "0x0",
        "input": "0x095ea7b3000000000000000000000000e5529ba08bd8b2bc3b1a4e640c56aa83da90220cffffffffffffffffffffffffffffffffffffffffffffffffffffffffffffffff",
        "nonce": "0x98b",
        "chainId": "0x1"
      },
      "additionalContracts": [],
      "isFixedGasLimit": false
    },
    {
      "hash": "0x9219d4e63168f79ddc1506efe2cc8e6b026eda06b5ead255ee47a6864896fca4",
      "transactionType": "CALL",
      "contractName": null,
      "contractAddress": "0xd1620dac6d79be34f8500756b47cf91b1fa5cc8c",
      "function": "approve(address,uint256)",
      "arguments": [
        "0x000000000004444c5dc75cB358380D2e3dE08A90",
        "115792089237316195423570985008687907853269984665640564039457584007913129639935"
      ],
      "transaction": {
        "from": "0x3c44cdddb6a900fa2b585dd299e03d12fa4293bc",
        "to": "0xd1620dac6d79be34f8500756b47cf91b1fa5cc8c",
        "value": "0x0",
        "input": "0x095ea7b3000000000000000000000000000000000004444c5dc75cb358380d2e3de08a90ffffffffffffffffffffffffffffffffffffffffffffffffffffffffffffffff",
        "nonce": "0x98c",
        "chainId": "0x1"
      },
      "additionalContracts": [],
      "isFixedGasLimit": false
    },
    {
      "hash": "0x9e01dedf27b2db1af4a91ae726f8068591e40c5af9aef41b253171777b3983a1",
      "transactionType": "CALL",
      "contractName": null,
      "contractAddress": "0x9ed4f4724b521326a9d9d2420252440bd05556c4",
      "function": "approve(address,uint256)",
      "arguments": [
        "0x000000000004444c5dc75cB358380D2e3dE08A90",
        "115792089237316195423570985008687907853269984665640564039457584007913129639935"
      ],
      "transaction": {
        "from": "0x3c44cdddb6a900fa2b585dd299e03d12fa4293bc",
        "to": "0x9ed4f4724b521326a9d9d2420252440bd05556c4",
        "value": "0x0",
        "input": "0x095ea7b3000000000000000000000000000000000004444c5dc75cb358380d2e3de08a90ffffffffffffffffffffffffffffffffffffffffffffffffffffffffffffffff",
        "nonce": "0x98d",
        "chainId": "0x1"
      },
      "additionalContracts": [],
      "isFixedGasLimit": false
    },
    {
      "hash": "0xae0d1f27e29ec051501a7a9269a71ead0ab1e29a34c4a2057841eca996053bed",
      "transactionType": "CALL",
      "contractName": null,
      "contractAddress": "0x9554b52516f306360a239746f70f88c23d187b63",
      "function": "createBroker(bytes32)",
      "arguments": [
        "0x0cb3956739a76ce4450a63f897b65a4e684911569aa4b89da4e8eb73230c5f5a"
      ],
      "transaction": {
        "from": "0x3c44cdddb6a900fa2b585dd299e03d12fa4293bc",
        "to": "0x9554b52516f306360a239746f70f88c23d187b63",
        "value": "0x0",
        "input": "0x26f4f1230cb3956739a76ce4450a63f897b65a4e684911569aa4b89da4e8eb73230c5f5a",
        "nonce": "0x98e",
        "chainId": "0x1"
      },
      "additionalContracts": [],
      "isFixedGasLimit": false
    },
    {
      "hash": "0xde08809c09da96241f9cdd0b11d5be9d24e89eb5b36eefba2321fda235b4c9e2",
      "transactionType": "CALL",
      "contractName": null,
      "contractAddress": "0xd1620dac6d79be34f8500756b47cf91b1fa5cc8c",
      "function": "transfer(address,uint256)",
      "arguments": [
        "0x58Ff9f45EAAf61a0aAadF450E5adF7EA59820CbA",
        "49998687365"
      ],
      "transaction": {
        "from": "0x3c44cdddb6a900fa2b585dd299e03d12fa4293bc",
        "to": "0xd1620dac6d79be34f8500756b47cf91b1fa5cc8c",
        "value": "0x0",
        "input": "0xa9059cbb00000000000000000000000058ff9f45eaaf61a0aaadf450e5adf7ea59820cba0000000000000000000000000000000000000000000000000000000ba4276c85",
        "nonce": "0x98f",
        "chainId": "0x1"
      },
      "additionalContracts": [],
      "isFixedGasLimit": false
    },
    {
      "hash": "0xcd96a6d0130304d8296f269c6fdc3fd4de002d9cded1a8e89b720f61cdfb4bd4",
      "transactionType": "CALL",
      "contractName": null,
      "contractAddress": "0x58ff9f45eaaf61a0aaadf450e5adf7ea59820cba",
      "function": "modifyPosition(bytes32,int256,int256)",
      "arguments": [
        "0x5b171c28fb0eebf8c4f6bebf3f5a0f12611acb1d4a0734c51fbae996b6e9dfdf",
        "49998687365",
        "3999894989"
      ],
      "transaction": {
        "from": "0x3c44cdddb6a900fa2b585dd299e03d12fa4293bc",
        "to": "0x58ff9f45eaaf61a0aaadf450e5adf7ea59820cba",
        "value": "0x0",
        "input": "0x1b89f3d45b171c28fb0eebf8c4f6bebf3f5a0f12611acb1d4a0734c51fbae996b6e9dfdf0000000000000000000000000000000000000000000000000000000ba4276c8500000000000000000000000000000000000000000000000000000000ee698dcd",
        "nonce": "0x990",
        "chainId": "0x1"
      },
      "additionalContracts": [],
      "isFixedGasLimit": false
    },
    {
      "hash": "0x2840f73a89eb07e3fb50a25b43b1d6c23cedbddb7d4711598b73bb84a804f162",
      "transactionType": "CALL",
      "contractName": null,
      "contractAddress": "0x58ff9f45eaaf61a0aaadf450e5adf7ea59820cba",
      "function": "withdrawPositionToken(address,uint256)",
      "arguments": [
        "0x3C44CdDdB6a900fa2b585dd299e03d12FA4293BC",
        "3999894989"
      ],
      "transaction": {
        "from": "0x3c44cdddb6a900fa2b585dd299e03d12fa4293bc",
        "to": "0x58ff9f45eaaf61a0aaadf450e5adf7ea59820cba",
        "value": "0x0",
        "input": "0x14776d760000000000000000000000003c44cdddb6a900fa2b585dd299e03d12fa4293bc00000000000000000000000000000000000000000000000000000000ee698dcd",
        "nonce": "0x991",
        "chainId": "0x1"
      },
      "additionalContracts": [],
      "isFixedGasLimit": false
    },
    {
      "hash": "0x2f32ff71e8db616ce1ebbd3987b7892931c27c3a2afbeea1add0d0dc720163a2",
      "transactionType": "CALL",
      "contractName": "ShortRouter",
      "contractAddress": "0xe5529ba08bd8b2bc3b1a4e640c56aa83da90220c",
      "function": "swap((address,address,uint24,int24,address),(bool,int256,uint160))",
      "arguments": [
        "(0x9ed4F4724b521326a9d9d2420252440bD05556c4, 0xD1620Dac6d79BE34F8500756B47cf91B1fA5Cc8C, 500, 5, 0x7e0C07EEabb2459D70dba5b8d100Dca44c652aC0)",
        "(true, 7151809647, 4295128740)"
      ],
      "transaction": {
        "from": "0x3c44cdddb6a900fa2b585dd299e03d12fa4293bc",
        "to": "0xe5529ba08bd8b2bc3b1a4e640c56aa83da90220c",
        "value": "0x0",
        "input": "0x1e2817de0000000000000000000000009ed4f4724b521326a9d9d2420252440bd05556c4000000000000000000000000d1620dac6d79be34f8500756b47cf91b1fa5cc8c00000000000000000000000000000000000000000000000000000000000001f400000000000000000000000000000000000000000000000000000000000000050000000000000000000000007e0c07eeabb2459d70dba5b8d100dca44c652ac0000000000000000000000000000000000000000000000000000000000000000100000000000000000000000000000000000000000000000000000001aa47f46f00000000000000000000000000000000000000000000000000000001000276a4",
        "nonce": "0x992",
        "chainId": "0x1"
      },
      "additionalContracts": [],
      "isFixedGasLimit": false
    },
    {
      "hash": "0x427f08e36cff767ff78946a06d28b9514e784b8f23e7c8088fae1b73e644424b",
      "transactionType": "CALL",
      "contractName": null,
      "contractAddress": "0xd1620dac6d79be34f8500756b47cf91b1fa5cc8c",
      "function": "transfer(address,uint256)",
      "arguments": [
        "0x58Ff9f45EAAf61a0aAadF450E5adF7EA59820CbA",
        "7151809647"
      ],
      "transaction": {
        "from": "0x3c44cdddb6a900fa2b585dd299e03d12fa4293bc",
        "to": "0xd1620dac6d79be34f8500756b47cf91b1fa5cc8c",
        "value": "0x0",
        "input": "0xa9059cbb00000000000000000000000058ff9f45eaaf61a0aaadf450e5adf7ea59820cba00000000000000000000000000000000000000000000000000000001aa47f46f",
        "nonce": "0x993",
        "chainId": "0x1"
      },
      "additionalContracts": [],
      "isFixedGasLimit": false
    },
    {
      "hash": "0xdb60a942ee945950bd84509d8e1499601dc5e418f8f37440150741a86e3851cf",
      "transactionType": "CALL",
      "contractName": null,
      "contractAddress": "0x58ff9f45eaaf61a0aaadf450e5adf7ea59820cba",
      "function": "modifyPosition(bytes32,int256,int256)",
      "arguments": [
        "0x5b171c28fb0eebf8c4f6bebf3f5a0f12611acb1d4a0734c51fbae996b6e9dfdf",
        "7151809647",
        "572144771"
      ],
      "transaction": {
        "from": "0x3c44cdddb6a900fa2b585dd299e03d12fa4293bc",
        "to": "0x58ff9f45eaaf61a0aaadf450e5adf7ea59820cba",
        "value": "0x0",
        "input": "0x1b89f3d45b171c28fb0eebf8c4f6bebf3f5a0f12611acb1d4a0734c51fbae996b6e9dfdf00000000000000000000000000000000000000000000000000000001aa47f46f00000000000000000000000000000000000000000000000000000000221a3c83",
        "nonce": "0x994",
        "chainId": "0x1"
      },
      "additionalContracts": [],
      "isFixedGasLimit": false
    },
    {
      "hash": "0x40d1913b0cb1eba42345d5ccfe9957118a04459ce8587e196539242ff39f515c",
      "transactionType": "CALL",
      "contractName": null,
      "contractAddress": "0x58ff9f45eaaf61a0aaadf450e5adf7ea59820cba",
      "function": "withdrawPositionToken(address,uint256)",
      "arguments": [
        "0x3C44CdDdB6a900fa2b585dd299e03d12FA4293BC",
        "572144771"
      ],
      "transaction": {
        "from": "0x3c44cdddb6a900fa2b585dd299e03d12fa4293bc",
        "to": "0x58ff9f45eaaf61a0aaadf450e5adf7ea59820cba",
        "value": "0x0",
        "input": "0x14776d760000000000000000000000003c44cdddb6a900fa2b585dd299e03d12fa4293bc00000000000000000000000000000000000000000000000000000000221a3c83",
        "nonce": "0x995",
        "chainId": "0x1"
      },
      "additionalContracts": [],
      "isFixedGasLimit": false
    },
    {
      "hash": "0xadcd6300366c013de354ad975db78954018f831383f6e05db45611b79694bb16",
      "transactionType": "CALL",
      "contractName": "ShortRouter",
      "contractAddress": "0xe5529ba08bd8b2bc3b1a4e640c56aa83da90220c",
      "function": "swap((address,address,uint24,int24,address),(bool,int256,uint160))",
      "arguments": [
        "(0x9ed4F4724b521326a9d9d2420252440bD05556c4, 0xD1620Dac6d79BE34F8500756B47cf91B1fA5Cc8C, 500, 5, 0x7e0C07EEabb2459D70dba5b8d100Dca44c652aC0)",
        "(true, 6145408658, 4295128740)"
      ],
      "transaction": {
        "from": "0x3c44cdddb6a900fa2b585dd299e03d12fa4293bc",
        "to": "0xe5529ba08bd8b2bc3b1a4e640c56aa83da90220c",
        "value": "0x0",
        "input": "0x1e2817de0000000000000000000000009ed4f4724b521326a9d9d2420252440bd05556c4000000000000000000000000d1620dac6d79be34f8500756b47cf91b1fa5cc8c00000000000000000000000000000000000000000000000000000000000001f400000000000000000000000000000000000000000000000000000000000000050000000000000000000000007e0c07eeabb2459d70dba5b8d100dca44c652ac00000000000000000000000000000000000000000000000000000000000000001000000000000000000000000000000000000000000000000000000016e4b7e9200000000000000000000000000000000000000000000000000000001000276a4",
        "nonce": "0x996",
        "chainId": "0x1"
      },
      "additionalContracts": [],
      "isFixedGasLimit": false
    },
    {
      "hash": "0x568806d439285c75d57021f4cd00a92014009197ab9a781853f3421afa237051",
      "transactionType": "CALL",
      "contractName": null,
      "contractAddress": "0xd1620dac6d79be34f8500756b47cf91b1fa5cc8c",
      "function": "transfer(address,uint256)",
      "arguments": [
        "0x58Ff9f45EAAf61a0aAadF450E5adF7EA59820CbA",
        "6145408658"
      ],
      "transaction": {
        "from": "0x3c44cdddb6a900fa2b585dd299e03d12fa4293bc",
        "to": "0xd1620dac6d79be34f8500756b47cf91b1fa5cc8c",
        "value": "0x0",
        "input": "0xa9059cbb00000000000000000000000058ff9f45eaaf61a0aaadf450e5adf7ea59820cba000000000000000000000000000000000000000000000000000000016e4b7e92",
        "nonce": "0x997",
        "chainId": "0x1"
      },
      "additionalContracts": [],
      "isFixedGasLimit": false
    },
    {
      "hash": "0x2e9c32a5808a05019490f0be3763fed5c8830c8ec91f8fd28413e1a8e9628820",
      "transactionType": "CALL",
      "contractName": null,
      "contractAddress": "0x58ff9f45eaaf61a0aaadf450e5adf7ea59820cba",
      "function": "modifyPosition(bytes32,int256,int256)",
      "arguments": [
        "0x5b171c28fb0eebf8c4f6bebf3f5a0f12611acb1d4a0734c51fbae996b6e9dfdf",
        "6145408658",
        "491632692"
      ],
      "transaction": {
        "from": "0x3c44cdddb6a900fa2b585dd299e03d12fa4293bc",
        "to": "0x58ff9f45eaaf61a0aaadf450e5adf7ea59820cba",
        "value": "0x0",
        "input": "0x1b89f3d45b171c28fb0eebf8c4f6bebf3f5a0f12611acb1d4a0734c51fbae996b6e9dfdf000000000000000000000000000000000000000000000000000000016e4b7e92000000000000000000000000000000000000000000000000000000001d4db834",
        "nonce": "0x998",
        "chainId": "0x1"
      },
      "additionalContracts": [],
      "isFixedGasLimit": false
    },
    {
      "hash": "0xd3e837a983d4d359b9278decd47eb71449573e2d350df4d40b58f15e9795a736",
      "transactionType": "CALL",
      "contractName": null,
      "contractAddress": "0x58ff9f45eaaf61a0aaadf450e5adf7ea59820cba",
      "function": "withdrawPositionToken(address,uint256)",
      "arguments": [
        "0x3C44CdDdB6a900fa2b585dd299e03d12FA4293BC",
        "491632692"
      ],
      "transaction": {
        "from": "0x3c44cdddb6a900fa2b585dd299e03d12fa4293bc",
        "to": "0x58ff9f45eaaf61a0aaadf450e5adf7ea59820cba",
        "value": "0x0",
        "input": "0x14776d760000000000000000000000003c44cdddb6a900fa2b585dd299e03d12fa4293bc000000000000000000000000000000000000000000000000000000001d4db834",
        "nonce": "0x999",
        "chainId": "0x1"
      },
      "additionalContracts": [],
      "isFixedGasLimit": false
    },
    {
      "hash": "0x5bfd28d1ca924d5b641b1da8bce5175be2fdfb0388c787a6ab3b34fe8dce415d",
      "transactionType": "CALL",
      "contractName": "ShortRouter",
      "contractAddress": "0xe5529ba08bd8b2bc3b1a4e640c56aa83da90220c",
      "function": "swap((address,address,uint24,int24,address),(bool,int256,uint160))",
      "arguments": [
        "(0x9ed4F4724b521326a9d9d2420252440bD05556c4, 0xD1620Dac6d79BE34F8500756B47cf91B1fA5Cc8C, 500, 5, 0x7e0C07EEabb2459D70dba5b8d100Dca44c652aC0)",
        "(true, 5212682282, 4295128740)"
      ],
      "transaction": {
        "from": "0x3c44cdddb6a900fa2b585dd299e03d12fa4293bc",
        "to": "0xe5529ba08bd8b2bc3b1a4e640c56aa83da90220c",
        "value": "0x0",
        "input": "0x1e2817de0000000000000000000000009ed4f4724b521326a9d9d2420252440bd05556c4000000000000000000000000d1620dac6d79be34f8500756b47cf91b1fa5cc8c00000000000000000000000000000000000000000000000000000000000001f400000000000000000000000000000000000000000000000000000000000000050000000000000000000000007e0c07eeabb2459d70dba5b8d100dca44c652ac000000000000000000000000000000000000000000000000000000000000000010000000000000000000000000000000000000000000000000000000136b3382a00000000000000000000000000000000000000000000000000000001000276a4",
        "nonce": "0x99a",
        "chainId": "0x1"
      },
      "additionalContracts": [],
      "isFixedGasLimit": false
    },
    {
      "hash": "0xc4856a0956b972cc9a310ec613073bc74e6c9f59c3f850117e8557b03e518f61",
      "transactionType": "CALL",
      "contractName": null,
      "contractAddress": "0xd1620dac6d79be34f8500756b47cf91b1fa5cc8c",
      "function": "transfer(address,uint256)",
      "arguments": [
        "0x58Ff9f45EAAf61a0aAadF450E5adF7EA59820CbA",
        "5212682282"
      ],
      "transaction": {
        "from": "0x3c44cdddb6a900fa2b585dd299e03d12fa4293bc",
        "to": "0xd1620dac6d79be34f8500756b47cf91b1fa5cc8c",
        "value": "0x0",
        "input": "0xa9059cbb00000000000000000000000058ff9f45eaaf61a0aaadf450e5adf7ea59820cba0000000000000000000000000000000000000000000000000000000136b3382a",
        "nonce": "0x99b",
        "chainId": "0x1"
      },
      "additionalContracts": [],
      "isFixedGasLimit": false
    },
    {
      "hash": "0xe5fd1878f3158a454c4bd914e56d777574bed732bd025bbcb3b63d0139c67301",
      "transactionType": "CALL",
      "contractName": null,
      "contractAddress": "0x58ff9f45eaaf61a0aaadf450e5adf7ea59820cba",
      "function": "modifyPosition(bytes32,int256,int256)",
      "arguments": [
        "0x5b171c28fb0eebf8c4f6bebf3f5a0f12611acb1d4a0734c51fbae996b6e9dfdf",
        "5212682282",
        "0"
      ],
      "transaction": {
        "from": "0x3c44cdddb6a900fa2b585dd299e03d12fa4293bc",
        "to": "0x58ff9f45eaaf61a0aaadf450e5adf7ea59820cba",
        "value": "0x0",
        "input": "0x1b89f3d45b171c28fb0eebf8c4f6bebf3f5a0f12611acb1d4a0734c51fbae996b6e9dfdf0000000000000000000000000000000000000000000000000000000136b3382a0000000000000000000000000000000000000000000000000000000000000000",
        "nonce": "0x99c",
        "chainId": "0x1"
      },
      "additionalContracts": [],
      "isFixedGasLimit": false
    }
  ],
  "receipts": [
    {
      "status": "0x1",
      "cumulativeGasUsed": "0x972e3",
      "logs": [],
      "logsBloom": "0x00000000000000000000000000000000000000000000000000000000000000000000000000000000000000000000000000000000000000000000000000000000000000000000000000000000000000000000000000000000000000000000000000000000000000000000000000000000000000000000000000000000000000000000000000000000000000000000000000000000000000000000000000000000000000000000000000000000000000000000000000000000000000000000000000000000000000000000000000000000000000000000000000000000000000000000000000000000000000000000000000000000000000000000000000000000",
      "type": "0x2",
      "transactionHash": "0xd07e4af8e42912fa5fe5e03e306e8ec035d5e2c79c0af12e39da2b2f43e4f81c",
      "transactionIndex": "0x0",
      "blockHash": "0xb8d31720f78462ae98b47614e87dc07e5ccb7a38ecef4fcbc602f430229be819",
      "blockNumber": "0x173c16f",
      "gasUsed": "0x972e3",
      "effectiveGasPrice": "0x481dcf",
      "blobGasPrice": "0x1",
      "from": "0x3c44cdddb6a900fa2b585dd299e03d12fa4293bc",
      "to": null,
      "contractAddress": "0xe5529ba08bd8b2bc3b1a4e640c56aa83da90220c"
    },
    {
      "status": "0x1",
      "cumulativeGasUsed": "0xb4bf",
      "logs": [
        {
          "address": "0xd1620dac6d79be34f8500756b47cf91b1fa5cc8c",
          "topics": [
            "0x8c5be1e5ebec7d5bd14f71427d1e84f3dd0314c0f7b2291e5b200ac8c7c3b925",
            "0x0000000000000000000000003c44cdddb6a900fa2b585dd299e03d12fa4293bc",
            "0x000000000000000000000000e5529ba08bd8b2bc3b1a4e640c56aa83da90220c"
          ],
          "data": "0xffffffffffffffffffffffffffffffffffffffffffffffffffffffffffffffff",
          "blockHash": "0x69f402757e96112b114ad662214a0204f9d2ce07b04c94243056d1f8296bc500",
          "blockNumber": "0x173c170",
          "blockTimestamp": "0x697ff6f0",
          "transactionHash": "0x96e524bbc9892cb8d622cbd67f8d99deffa98cec81cd30ad5a7dfb0c4f96759d",
          "transactionIndex": "0x0",
          "logIndex": "0x0",
          "removed": false
        }
      ],
      "logsBloom": "0x00000000000000008000000000000000000000000000000000000000000000000000000000000000000000000000000000000000000000000000000000300000000000000000000000400000000000000000000000000000000000004000000000000000000000000000000000000000000800000000000000000000000000000000002000000000000000000000000000000000000000000000000000000000020000000000200000000000000000000000000000000000000000001000000000000000000000000000000000000000000000000000000000000000000000000010000000000000000000000008000000000000000000000000000000000000",
      "type": "0x2",
      "transactionHash": "0x96e524bbc9892cb8d622cbd67f8d99deffa98cec81cd30ad5a7dfb0c4f96759d",
      "transactionIndex": "0x0",
      "blockHash": "0x69f402757e96112b114ad662214a0204f9d2ce07b04c94243056d1f8296bc500",
      "blockNumber": "0x173c170",
      "gasUsed": "0xb4bf",
      "effectiveGasPrice": "0x3f4a70",
      "blobGasPrice": "0x1",
      "from": "0x3c44cdddb6a900fa2b585dd299e03d12fa4293bc",
      "to": "0xd1620dac6d79be34f8500756b47cf91b1fa5cc8c",
      "contractAddress": null
    },
    {
      "status": "0x1",
      "cumulativeGasUsed": "0xb4a9",
      "logs": [
        {
          "address": "0x9ed4f4724b521326a9d9d2420252440bd05556c4",
          "topics": [
            "0x8c5be1e5ebec7d5bd14f71427d1e84f3dd0314c0f7b2291e5b200ac8c7c3b925",
            "0x0000000000000000000000003c44cdddb6a900fa2b585dd299e03d12fa4293bc",
            "0x000000000000000000000000e5529ba08bd8b2bc3b1a4e640c56aa83da90220c"
          ],
          "data": "0xffffffffffffffffffffffffffffffffffffffffffffffffffffffffffffffff",
          "blockHash": "0x9942010dfa3400d9be6ff3accb8df93a5540fcc379a2e97d0adb8beaab9034e3",
          "blockNumber": "0x173c171",
          "blockTimestamp": "0x697ff6f0",
          "transactionHash": "0x125647038222c89ab15a25fa7cf86db9a9ec09d7fb2133fc69e1addc4bc6abc3",
          "transactionIndex": "0x0",
          "logIndex": "0x0",
          "removed": false
        }
      ],
      "logsBloom": "0x00000000004000000004000000000000000000000000000000000000000000000000000000000000000000000000000000000000000000000000000000300000000000000000000000400000000000000000000000000000000000000000000000000000000000000000000000000000000800000000000000000000000000000000020000000000000000000000000000000000000000000000000000000000020000000000200000000000000000000000000000000000000000001000000000000000000000000000000000000000000000000000000000000000000000000010000000000000000000000008000000000000000000000000000000000000",
      "type": "0x2",
      "transactionHash": "0x125647038222c89ab15a25fa7cf86db9a9ec09d7fb2133fc69e1addc4bc6abc3",
      "transactionIndex": "0x0",
      "blockHash": "0x9942010dfa3400d9be6ff3accb8df93a5540fcc379a2e97d0adb8beaab9034e3",
      "blockNumber": "0x173c171",
      "gasUsed": "0xb4a9",
      "effectiveGasPrice": "0x3764fd",
      "blobGasPrice": "0x1",
      "from": "0x3c44cdddb6a900fa2b585dd299e03d12fa4293bc",
      "to": "0x9ed4f4724b521326a9d9d2420252440bd05556c4",
      "contractAddress": null
    },
    {
      "status": "0x1",
      "cumulativeGasUsed": "0x66c7",
      "logs": [
        {
          "address": "0xd1620dac6d79be34f8500756b47cf91b1fa5cc8c",
          "topics": [
            "0x8c5be1e5ebec7d5bd14f71427d1e84f3dd0314c0f7b2291e5b200ac8c7c3b925",
            "0x0000000000000000000000003c44cdddb6a900fa2b585dd299e03d12fa4293bc",
            "0x000000000000000000000000000000000004444c5dc75cb358380d2e3de08a90"
          ],
          "data": "0xffffffffffffffffffffffffffffffffffffffffffffffffffffffffffffffff",
          "blockHash": "0x64cd2a598c664fb40dd464cce79e1755a8ba91859c6e9e741d35d1cf13e3f7a7",
          "blockNumber": "0x173c172",
          "blockTimestamp": "0x697ff6f0",
          "transactionHash": "0x9219d4e63168f79ddc1506efe2cc8e6b026eda06b5ead255ee47a6864896fca4",
          "transactionIndex": "0x0",
          "logIndex": "0x0",
          "removed": false
        }
      ],
      "logsBloom": "0x00000000000000008000000000000000000000000000000000000000000000000000000000000000001000000000000000000000000000000000000000300000000000000000000000000000000000000000000000000000000000004000000000000000000000000000000000000000000800000000000000000000000000000000002800000000000000000000000000000000000000000000000000000000020000000000200000000000000000000000000000000000000000000000000000000000000000000000000000000000000000400000000000000000000000000010000000000000000000000000000000000000000000000000000000000000",
      "type": "0x2",
      "transactionHash": "0x9219d4e63168f79ddc1506efe2cc8e6b026eda06b5ead255ee47a6864896fca4",
      "transactionIndex": "0x0",
      "blockHash": "0x64cd2a598c664fb40dd464cce79e1755a8ba91859c6e9e741d35d1cf13e3f7a7",
      "blockNumber": "0x173c172",
      "gasUsed": "0x66c7",
      "effectiveGasPrice": "0x307bd5",
      "blobGasPrice": "0x1",
      "from": "0x3c44cdddb6a900fa2b585dd299e03d12fa4293bc",
      "to": "0xd1620dac6d79be34f8500756b47cf91b1fa5cc8c",
      "contractAddress": null
    },
    {
      "status": "0x1",
      "cumulativeGasUsed": "0x66b1",
      "logs": [
        {
          "address": "0x9ed4f4724b521326a9d9d2420252440bd05556c4",
          "topics": [
            "0x8c5be1e5ebec7d5bd14f71427d1e84f3dd0314c0f7b2291e5b200ac8c7c3b925",
            "0x0000000000000000000000003c44cdddb6a900fa2b585dd299e03d12fa4293bc",
            "0x000000000000000000000000000000000004444c5dc75cb358380d2e3de08a90"
          ],
          "data": "0xffffffffffffffffffffffffffffffffffffffffffffffffffffffffffffffff",
          "blockHash": "0x84b532daadecffaa1878763320eb7829457a3abec0a1f8ed36a76580d58c4133",
          "blockNumber": "0x173c173",
          "blockTimestamp": "0x697ff6f0",
          "transactionHash": "0x9e01dedf27b2db1af4a91ae726f8068591e40c5af9aef41b253171777b3983a1",
          "transactionIndex": "0x0",
          "logIndex": "0x0",
          "removed": false
        }
      ],
      "logsBloom": "0x00000000004000000004000000000000000000000000000000000000000000000000000000000000001000000000000000000000000000000000000000300000000000000000000000000000000000000000000000000000000000000000000000000000000000000000000000000000000800000000000000000000000000000000020800000000000000000000000000000000000000000000000000000000020000000000200000000000000000000000000000000000000000000000000000000000000000000000000000000000000000400000000000000000000000000010000000000000000000000000000000000000000000000000000000000000",
      "type": "0x2",
      "transactionHash": "0x9e01dedf27b2db1af4a91ae726f8068591e40c5af9aef41b253171777b3983a1",
      "transactionIndex": "0x0",
      "blockHash": "0x84b532daadecffaa1878763320eb7829457a3abec0a1f8ed36a76580d58c4133",
      "blockNumber": "0x173c173",
      "gasUsed": "0x66b1",
      "effectiveGasPrice": "0x2a6e73",
      "blobGasPrice": "0x1",
      "from": "0x3c44cdddb6a900fa2b585dd299e03d12fa4293bc",
      "to": "0x9ed4f4724b521326a9d9d2420252440bd05556c4",
      "contractAddress": null
    },
    {
      "status": "0x1",
      "cumulativeGasUsed": "0x4fc13",
      "logs": [
        {
          "address": "0x9554b52516f306360a239746f70f88c23d187b63",
          "topics": [
            "0xddf252ad1be2c89b69c2b068fc378daa952ba7f163c4a11628f55a4df523b3ef",
            "0x0000000000000000000000000000000000000000000000000000000000000000",
            "0x0000000000000000000000003c44cdddb6a900fa2b585dd299e03d12fa4293bc",
            "0x00000000000000000000000058ff9f45eaaf61a0aaadf450e5adf7ea59820cba"
          ],
          "data": "0x",
          "blockHash": "0x66fa84520502205bf8b5f6af0fb6ed9e0a1f2f632847be134f8f9d5e6d8e75b8",
          "blockNumber": "0x173c174",
          "blockTimestamp": "0x697ff6f0",
          "transactionHash": "0xae0d1f27e29ec051501a7a9269a71ead0ab1e29a34c4a2057841eca996053bed",
          "transactionIndex": "0x0",
          "logIndex": "0x0",
          "removed": false
        },
        {
          "address": "0x9554b52516f306360a239746f70f88c23d187b63",
          "topics": [
            "0xc418c83b1622e1e32aac5d6d2848134a7e89eb8e96c8514afd1757d25ee5ef71",
            "0x00000000000000000000000058ff9f45eaaf61a0aaadf450e5adf7ea59820cba",
            "0x0000000000000000000000003c44cdddb6a900fa2b585dd299e03d12fa4293bc"
          ],
          "data": "0x00000000000000000000000058ff9f45eaaf61a0aaadf450e5adf7ea59820cba",
          "blockHash": "0x66fa84520502205bf8b5f6af0fb6ed9e0a1f2f632847be134f8f9d5e6d8e75b8",
          "blockNumber": "0x173c174",
          "blockTimestamp": "0x697ff6f0",
          "transactionHash": "0xae0d1f27e29ec051501a7a9269a71ead0ab1e29a34c4a2057841eca996053bed",
          "transactionIndex": "0x0",
          "logIndex": "0x1",
          "removed": false
        }
      ],
      "logsBloom": "0x00000000000000000000100020000000000000000000000000000000000000000000000000000000000000000000000000000200000000000040000000100000000000000000000000000008000000000000000000000140008000000000000000000000020000000000000000008800000808000000000000000010000000000000000000000000000000000000000000000000000000000000000000000000000000000000200000000000000000000000000000000000000000000000000000000002000000000000000000000000000000000000000000000000000020000000000000000000000000000000000000000000000000000000000000000000",
      "type": "0x2",
      "transactionHash": "0xae0d1f27e29ec051501a7a9269a71ead0ab1e29a34c4a2057841eca996053bed",
      "transactionIndex": "0x0",
      "blockHash": "0x66fa84520502205bf8b5f6af0fb6ed9e0a1f2f632847be134f8f9d5e6d8e75b8",
      "blockNumber": "0x173c174",
      "gasUsed": "0x4fc13",
      "effectiveGasPrice": "0x252291",
      "blobGasPrice": "0x1",
      "from": "0x3c44cdddb6a900fa2b585dd299e03d12fa4293bc",
      "to": "0x9554b52516f306360a239746f70f88c23d187b63",
      "contractAddress": null
    },
    {
      "status": "0x1",
      "cumulativeGasUsed": "0xb5a1",
      "logs": [
        {
          "address": "0xd1620dac6d79be34f8500756b47cf91b1fa5cc8c",
          "topics": [
            "0xddf252ad1be2c89b69c2b068fc378daa952ba7f163c4a11628f55a4df523b3ef",
            "0x0000000000000000000000003c44cdddb6a900fa2b585dd299e03d12fa4293bc",
            "0x00000000000000000000000058ff9f45eaaf61a0aaadf450e5adf7ea59820cba"
          ],
          "data": "0x0000000000000000000000000000000000000000000000000000000ba4276c85",
          "blockHash": "0xac4e348cd31b4f28f9522d8daef1fd82c8aa1060837e35fa24cbe23eba9afa70",
          "blockNumber": "0x173c175",
          "blockTimestamp": "0x697ff6f0",
          "transactionHash": "0xde08809c09da96241f9cdd0b11d5be9d24e89eb5b36eefba2321fda235b4c9e2",
          "transactionIndex": "0x0",
          "logIndex": "0x0",
          "removed": false
        }
      ],
      "logsBloom": "0x00000000000000008000000000000000000000000000000000000000000000000000000000000000000000000000000000000000000000000040000000100000000000000000000000000008000000000000000000000040000000004000000000000000000000000000000000000000000808000000000000000010000000000000002000000000000000000000000000000000000000000000000000000000000000000000200000000000000000000000000000000000000000000000000000000002000000000000000000000000000000000000000000000000000000000000000000000000000000000000000000000000000000000000000000000000",
      "type": "0x2",
      "transactionHash": "0xde08809c09da96241f9cdd0b11d5be9d24e89eb5b36eefba2321fda235b4c9e2",
      "transactionIndex": "0x0",
      "blockHash": "0xac4e348cd31b4f28f9522d8daef1fd82c8aa1060837e35fa24cbe23eba9afa70",
      "blockNumber": "0x173c175",
      "gasUsed": "0xb5a1",
      "effectiveGasPrice": "0x208be9",
      "blobGasPrice": "0x1",
      "from": "0x3c44cdddb6a900fa2b585dd299e03d12fa4293bc",
      "to": "0xd1620dac6d79be34f8500756b47cf91b1fa5cc8c",
      "contractAddress": null
    },
    {
      "status": "0x1",
      "cumulativeGasUsed": "0x50bc9",
      "logs": [
        {
          "address": "0x9ed4f4724b521326a9d9d2420252440bd05556c4",
          "topics": [
            "0xddf252ad1be2c89b69c2b068fc378daa952ba7f163c4a11628f55a4df523b3ef",
            "0x0000000000000000000000000000000000000000000000000000000000000000",
            "0x00000000000000000000000058ff9f45eaaf61a0aaadf450e5adf7ea59820cba"
          ],
          "data": "0x00000000000000000000000000000000000000000000000000000000ee698dcd",
          "blockHash": "0x39e9a431e573812210ce7c2743b81b80dd0f28bf39bd623c7a7fcb1235af30f3",
          "blockNumber": "0x173c176",
          "blockTimestamp": "0x697ff6f0",
          "transactionHash": "0xcd96a6d0130304d8296f269c6fdc3fd4de002d9cded1a8e89b720f61cdfb4bd4",
          "transactionIndex": "0x0",
          "logIndex": "0x0",
          "removed": false
        },
        {
          "address": "0x766542304e16e3585d569705b0eff4756efa6cac",
          "topics": [
            "0x343ef6bfd54be4f7cb6918335f3d2788a88dfadfc586a5c32c67c2f3b61c6338",
            "0x5b171c28fb0eebf8c4f6bebf3f5a0f12611acb1d4a0734c51fbae996b6e9dfdf",
            "0x00000000000000000000000058ff9f45eaaf61a0aaadf450e5adf7ea59820cba"
          ],
          "data": "0x0000000000000000000000000000000000000000000000000000000ba4276c8500000000000000000000000000000000000000000000000000000000ee698dcd",
          "blockHash": "0x39e9a431e573812210ce7c2743b81b80dd0f28bf39bd623c7a7fcb1235af30f3",
          "blockNumber": "0x173c176",
          "blockTimestamp": "0x697ff6f0",
          "transactionHash": "0xcd96a6d0130304d8296f269c6fdc3fd4de002d9cded1a8e89b720f61cdfb4bd4",
          "transactionIndex": "0x0",
          "logIndex": "0x1",
          "removed": false
        },
        {
          "address": "0xd1620dac6d79be34f8500756b47cf91b1fa5cc8c",
          "topics": [
            "0x8c5be1e5ebec7d5bd14f71427d1e84f3dd0314c0f7b2291e5b200ac8c7c3b925",
            "0x00000000000000000000000058ff9f45eaaf61a0aaadf450e5adf7ea59820cba",
            "0x000000000000000000000000766542304e16e3585d569705b0eff4756efa6cac"
          ],
          "data": "0x0000000000000000000000000000000000000000000000000000000ba4276c85",
          "blockHash": "0x39e9a431e573812210ce7c2743b81b80dd0f28bf39bd623c7a7fcb1235af30f3",
          "blockNumber": "0x173c176",
          "blockTimestamp": "0x697ff6f0",
          "transactionHash": "0xcd96a6d0130304d8296f269c6fdc3fd4de002d9cded1a8e89b720f61cdfb4bd4",
          "transactionIndex": "0x0",
          "logIndex": "0x2",
          "removed": false
        }
      ],
      "logsBloom": "0x00000000004000008004000000000000000000000000080000000000000000000000000000000000400000100000000000000000000000080040000000200000000000000000000000000008000000080000000000000040000000004000000000000000024000000000000000000800000008000000000000000010000000000000022000000000000000000000000000000000000000000000000000000002020000000000000000000100000000000000000000000000000000000000000000000002000000000000000000000000008000000000000000000010000020100010000000010000000000000000000000000000000000000000000000000000",
      "type": "0x2",
      "transactionHash": "0xcd96a6d0130304d8296f269c6fdc3fd4de002d9cded1a8e89b720f61cdfb4bd4",
      "transactionIndex": "0x0",
      "blockHash": "0x39e9a431e573812210ce7c2743b81b80dd0f28bf39bd623c7a7fcb1235af30f3",
      "blockNumber": "0x173c176",
      "gasUsed": "0x50bc9",
      "effectiveGasPrice": "0x1c7cc5",
      "blobGasPrice": "0x1",
      "from": "0x3c44cdddb6a900fa2b585dd299e03d12fa4293bc",
      "to": "0x58ff9f45eaaf61a0aaadf450e5adf7ea59820cba",
      "contractAddress": null
    },
    {
      "status": "0x1",
      "cumulativeGasUsed": "0x21cf3",
      "logs": [
        {
          "address": "0x9ed4f4724b521326a9d9d2420252440bd05556c4",
          "topics": [
            "0xddf252ad1be2c89b69c2b068fc378daa952ba7f163c4a11628f55a4df523b3ef",
            "0x00000000000000000000000058ff9f45eaaf61a0aaadf450e5adf7ea59820cba",
            "0x0000000000000000000000003c44cdddb6a900fa2b585dd299e03d12fa4293bc"
          ],
          "data": "0x00000000000000000000000000000000000000000000000000000000ee698dcd",
          "blockHash": "0x7105239ae35ae5fd109a55bc1b36290ef4b59d5f1c35da57114cb2ffd60a90ad",
          "blockNumber": "0x173c177",
          "blockTimestamp": "0x697ff6f0",
          "transactionHash": "0x2840f73a89eb07e3fb50a25b43b1d6c23cedbddb7d4711598b73bb84a804f162",
          "transactionIndex": "0x0",
          "logIndex": "0x0",
          "removed": false
        }
      ],
      "logsBloom": "0x00000000004000000004000000000000000000000000000000000000000000000000000000000000000000000000000000000000000000000040000000100000000000000000000000000008000000000000000000000040000000000000000000000000000000000000000000000000000808000000000000000010000000000000020000000000000000000000000000000000000000000000000000000000000000000000200000000000000000000000000000000000000000000000000000000002000000000000000000000000000000000000000000000000000000000000000000000000000000000000000000000000000000000000000000000000",
      "type": "0x2",
      "transactionHash": "0x2840f73a89eb07e3fb50a25b43b1d6c23cedbddb7d4711598b73bb84a804f162",
      "transactionIndex": "0x0",
      "blockHash": "0x7105239ae35ae5fd109a55bc1b36290ef4b59d5f1c35da57114cb2ffd60a90ad",
      "blockNumber": "0x173c177",
      "gasUsed": "0x21cf3",
      "effectiveGasPrice": "0x18f7f3",
      "blobGasPrice": "0x1",
      "from": "0x3c44cdddb6a900fa2b585dd299e03d12fa4293bc",
      "to": "0x58ff9f45eaaf61a0aaadf450e5adf7ea59820cba",
      "contractAddress": null
    },
    {
      "status": "0x1",
      "cumulativeGasUsed": "0x28416",
      "logs": [
        {
          "address": "0x000000000004444c5dc75cb358380d2e3de08a90",
          "topics": [
            "0x40e9cecb9f5f1f1c5b9c97dec2917b7ee92e57ba5563708daca94dd84ad7112f",
            "0x3509745444ed1275bf3cc6196dcab60943ac6b87c5b249d3e64fa8e35e5b5f69",
            "0x000000000000000000000000e5529ba08bd8b2bc3b1a4e640c56aa83da90220c"
          ],
          "data": "0xffffffffffffffffffffffffffffffffffffffffffffffffffffffffa1e94da000000000000000000000000000000000000000000000000000000001aa47f46f00000000000000000000000000000000000000021a008a332c9837b0b5288f560000000000000000000000000000000000000000000000000000001e1717e9e30000000000000000000000000000000000000000000000000000000000003a0600000000000000000000000000000000000000000000000000000000000001f4",
          "blockHash": "0xdcf8f8a9d94fdc3f74a46e4c4b108b4cb39cb93dad4598aafd47c6d4c8f260ec",
          "blockNumber": "0x173c178",
          "blockTimestamp": "0x697ff6f0",
          "transactionHash": "0x2f32ff71e8db616ce1ebbd3987b7892931c27c3a2afbeea1add0d0dc720163a2",
          "transactionIndex": "0x0",
          "logIndex": "0x0",
          "removed": false
        },
        {
          "address": "0x9ed4f4724b521326a9d9d2420252440bd05556c4",
          "topics": [
            "0xddf252ad1be2c89b69c2b068fc378daa952ba7f163c4a11628f55a4df523b3ef",
            "0x0000000000000000000000003c44cdddb6a900fa2b585dd299e03d12fa4293bc",
            "0x000000000000000000000000000000000004444c5dc75cb358380d2e3de08a90"
          ],
          "data": "0x000000000000000000000000000000000000000000000000000000005e16b260",
          "blockHash": "0xdcf8f8a9d94fdc3f74a46e4c4b108b4cb39cb93dad4598aafd47c6d4c8f260ec",
          "blockNumber": "0x173c178",
          "blockTimestamp": "0x697ff6f0",
          "transactionHash": "0x2f32ff71e8db616ce1ebbd3987b7892931c27c3a2afbeea1add0d0dc720163a2",
          "transactionIndex": "0x0",
          "logIndex": "0x1",
          "removed": false
        },
        {
          "address": "0xd1620dac6d79be34f8500756b47cf91b1fa5cc8c",
          "topics": [
            "0xddf252ad1be2c89b69c2b068fc378daa952ba7f163c4a11628f55a4df523b3ef",
            "0x000000000000000000000000000000000004444c5dc75cb358380d2e3de08a90",
            "0x0000000000000000000000003c44cdddb6a900fa2b585dd299e03d12fa4293bc"
          ],
          "data": "0x00000000000000000000000000000000000000000000000000000001aa47f46f",
          "blockHash": "0xdcf8f8a9d94fdc3f74a46e4c4b108b4cb39cb93dad4598aafd47c6d4c8f260ec",
          "blockNumber": "0x173c178",
          "blockTimestamp": "0x697ff6f0",
          "transactionHash": "0x2f32ff71e8db616ce1ebbd3987b7892931c27c3a2afbeea1add0d0dc720163a2",
          "transactionIndex": "0x0",
          "logIndex": "0x2",
          "removed": false
        }
      ],
      "logsBloom": "0x00000000004000008004000000000000000000000000000000000000000000000000000020000000001000000000000000000000040000000000000000108000000000000000000000400008000000000000000000000020000000004000000000000000000000008000000000000000000800000000000000000010000000000000022800000000000000000000000000000000000000000000000000000000000000000000200000000000100000000000000000000000000000001000000000000802000000000000000000000000000000400000000000000000000000000000000000000000004000000008000000000100000000000000000000000000",
      "type": "0x2",
      "transactionHash": "0x2f32ff71e8db616ce1ebbd3987b7892931c27c3a2afbeea1add0d0dc720163a2",
      "transactionIndex": "0x0",
      "blockHash": "0xdcf8f8a9d94fdc3f74a46e4c4b108b4cb39cb93dad4598aafd47c6d4c8f260ec",
      "blockNumber": "0x173c178",
      "gasUsed": "0x28416",
      "effectiveGasPrice": "0x15dd60",
      "blobGasPrice": "0x1",
      "from": "0x3c44cdddb6a900fa2b585dd299e03d12fa4293bc",
      "to": "0xe5529ba08bd8b2bc3b1a4e640c56aa83da90220c",
      "contractAddress": null
    },
    {
      "status": "0x1",
      "cumulativeGasUsed": "0x72d5",
      "logs": [
        {
          "address": "0xd1620dac6d79be34f8500756b47cf91b1fa5cc8c",
          "topics": [
            "0xddf252ad1be2c89b69c2b068fc378daa952ba7f163c4a11628f55a4df523b3ef",
            "0x0000000000000000000000003c44cdddb6a900fa2b585dd299e03d12fa4293bc",
            "0x00000000000000000000000058ff9f45eaaf61a0aaadf450e5adf7ea59820cba"
          ],
          "data": "0x00000000000000000000000000000000000000000000000000000001aa47f46f",
          "blockHash": "0xdb04dc8f0014be331633d8d410371739c0a34b337c7045f2d00e93bb1abd6f3f",
          "blockNumber": "0x173c179",
          "blockTimestamp": "0x697ff6f0",
          "transactionHash": "0x427f08e36cff767ff78946a06d28b9514e784b8f23e7c8088fae1b73e644424b",
          "transactionIndex": "0x0",
          "logIndex": "0x0",
          "removed": false
        }
      ],
      "logsBloom": "0x00000000000000008000000000000000000000000000000000000000000000000000000000000000000000000000000000000000000000000040000000100000000000000000000000000008000000000000000000000040000000004000000000000000000000000000000000000000000808000000000000000010000000000000002000000000000000000000000000000000000000000000000000000000000000000000200000000000000000000000000000000000000000000000000000000002000000000000000000000000000000000000000000000000000000000000000000000000000000000000000000000000000000000000000000000000",
      "type": "0x2",
      "transactionHash": "0x427f08e36cff767ff78946a06d28b9514e784b8f23e7c8088fae1b73e644424b",
      "transactionIndex": "0x0",
      "blockHash": "0xdb04dc8f0014be331633d8d410371739c0a34b337c7045f2d00e93bb1abd6f3f",
      "blockNumber": "0x173c179",
      "gasUsed": "0x72d5",
      "effectiveGasPrice": "0x132647",
      "blobGasPrice": "0x1",
      "from": "0x3c44cdddb6a900fa2b585dd299e03d12fa4293bc",
      "to": "0xd1620dac6d79be34f8500756b47cf91b1fa5cc8c",
      "contractAddress": null
    },
    {
      "status": "0x1",
      "cumulativeGasUsed": "0x33b7b",
      "logs": [
        {
          "address": "0x9ed4f4724b521326a9d9d2420252440bd05556c4",
          "topics": [
            "0xddf252ad1be2c89b69c2b068fc378daa952ba7f163c4a11628f55a4df523b3ef",
            "0x0000000000000000000000000000000000000000000000000000000000000000",
            "0x00000000000000000000000058ff9f45eaaf61a0aaadf450e5adf7ea59820cba"
          ],
          "data": "0x00000000000000000000000000000000000000000000000000000000221a3c83",
          "blockHash": "0xbf2992e15a14be34a7a3f1eb41d66caa03d2c29cdeff8954d81f9e4bff192047",
          "blockNumber": "0x173c17a",
          "blockTimestamp": "0x697ff6f0",
          "transactionHash": "0xdb60a942ee945950bd84509d8e1499601dc5e418f8f37440150741a86e3851cf",
          "transactionIndex": "0x0",
          "logIndex": "0x0",
          "removed": false
        },
        {
          "address": "0x766542304e16e3585d569705b0eff4756efa6cac",
          "topics": [
            "0x343ef6bfd54be4f7cb6918335f3d2788a88dfadfc586a5c32c67c2f3b61c6338",
            "0x5b171c28fb0eebf8c4f6bebf3f5a0f12611acb1d4a0734c51fbae996b6e9dfdf",
            "0x00000000000000000000000058ff9f45eaaf61a0aaadf450e5adf7ea59820cba"
          ],
          "data": "0x00000000000000000000000000000000000000000000000000000001aa47f46f00000000000000000000000000000000000000000000000000000000221a3c83",
          "blockHash": "0xbf2992e15a14be34a7a3f1eb41d66caa03d2c29cdeff8954d81f9e4bff192047",
          "blockNumber": "0x173c17a",
          "blockTimestamp": "0x697ff6f0",
          "transactionHash": "0xdb60a942ee945950bd84509d8e1499601dc5e418f8f37440150741a86e3851cf",
          "transactionIndex": "0x0",
          "logIndex": "0x1",
          "removed": false
        },
        {
          "address": "0xd1620dac6d79be34f8500756b47cf91b1fa5cc8c",
          "topics": [
            "0x8c5be1e5ebec7d5bd14f71427d1e84f3dd0314c0f7b2291e5b200ac8c7c3b925",
            "0x00000000000000000000000058ff9f45eaaf61a0aaadf450e5adf7ea59820cba",
            "0x000000000000000000000000766542304e16e3585d569705b0eff4756efa6cac"
          ],
          "data": "0x00000000000000000000000000000000000000000000000000000001aa47f46f",
          "blockHash": "0xbf2992e15a14be34a7a3f1eb41d66caa03d2c29cdeff8954d81f9e4bff192047",
          "blockNumber": "0x173c17a",
          "blockTimestamp": "0x697ff6f0",
          "transactionHash": "0xdb60a942ee945950bd84509d8e1499601dc5e418f8f37440150741a86e3851cf",
          "transactionIndex": "0x0",
          "logIndex": "0x2",
          "removed": false
        }
      ],
      "logsBloom": "0x00000000004000008004000000000000000000000000080000000000000000000000000000000000400000100000000000000000000000080040000000200000000000000000000000000008000000080000000000000040000000004000000000000000024000000000000000000800000008000000000000000010000000000000022000000000000000000000000000000000000000000000000000000002020000000000000000000100000000000000000000000000000000000000000000000002000000000000000000000000008000000000000000000010000020100010000000010000000000000000000000000000000000000000000000000000",
      "type": "0x2",
      "transactionHash": "0xdb60a942ee945950bd84509d8e1499601dc5e418f8f37440150741a86e3851cf",
      "transactionIndex": "0x0",
      "blockHash": "0xbf2992e15a14be34a7a3f1eb41d66caa03d2c29cdeff8954d81f9e4bff192047",
      "blockNumber": "0x173c17a",
      "gasUsed": "0x33b7b",
      "effectiveGasPrice": "0x10c2d4",
      "blobGasPrice": "0x1",
      "from": "0x3c44cdddb6a900fa2b585dd299e03d12fa4293bc",
      "to": "0x58ff9f45eaaf61a0aaadf450e5adf7ea59820cba",
      "contractAddress": null
    },
    {
      "status": "0x1",
      "cumulativeGasUsed": "0x21cf3",
      "logs": [
        {
          "address": "0x9ed4f4724b521326a9d9d2420252440bd05556c4",
          "topics": [
            "0xddf252ad1be2c89b69c2b068fc378daa952ba7f163c4a11628f55a4df523b3ef",
            "0x00000000000000000000000058ff9f45eaaf61a0aaadf450e5adf7ea59820cba",
            "0x0000000000000000000000003c44cdddb6a900fa2b585dd299e03d12fa4293bc"
          ],
          "data": "0x00000000000000000000000000000000000000000000000000000000221a3c83",
          "blockHash": "0x23c91088e58e4a042b7b7a528c94f5a97a309bfeb013d309bb9cb2c033dbba2a",
          "blockNumber": "0x173c17b",
          "blockTimestamp": "0x697ff6f0",
          "transactionHash": "0x40d1913b0cb1eba42345d5ccfe9957118a04459ce8587e196539242ff39f515c",
          "transactionIndex": "0x0",
          "logIndex": "0x0",
          "removed": false
        }
      ],
      "logsBloom": "0x00000000004000000004000000000000000000000000000000000000000000000000000000000000000000000000000000000000000000000040000000100000000000000000000000000008000000000000000000000040000000000000000000000000000000000000000000000000000808000000000000000010000000000000020000000000000000000000000000000000000000000000000000000000000000000000200000000000000000000000000000000000000000000000000000000002000000000000000000000000000000000000000000000000000000000000000000000000000000000000000000000000000000000000000000000000",
      "type": "0x2",
      "transactionHash": "0x40d1913b0cb1eba42345d5ccfe9957118a04459ce8587e196539242ff39f515c",
      "transactionIndex": "0x0",
      "blockHash": "0x23c91088e58e4a042b7b7a528c94f5a97a309bfeb013d309bb9cb2c033dbba2a",
      "blockNumber": "0x173c17b",
      "gasUsed": "0x21cf3",
      "effectiveGasPrice": "0xeaefe",
      "blobGasPrice": "0x1",
      "from": "0x3c44cdddb6a900fa2b585dd299e03d12fa4293bc",
      "to": "0x58ff9f45eaaf61a0aaadf450e5adf7ea59820cba",
      "contractAddress": null
    },
    {
      "status": "0x1",
      "cumulativeGasUsed": "0x25446",
      "logs": [
        {
          "address": "0x000000000004444c5dc75cb358380d2e3de08a90",
          "topics": [
            "0x40e9cecb9f5f1f1c5b9c97dec2917b7ee92e57ba5563708daca94dd84ad7112f",
            "0x3509745444ed1275bf3cc6196dcab60943ac6b87c5b249d3e64fa8e35e5b5f69",
            "0x000000000000000000000000e5529ba08bd8b2bc3b1a4e640c56aa83da90220c"
          ],
          "data": "0xffffffffffffffffffffffffffffffffffffffffffffffffffffffffab1a0164000000000000000000000000000000000000000000000000000000016e4b7e9200000000000000000000000000000000000000020dd431aecebc280e5b9ff5410000000000000000000000000000000000000000000000000000001e1717e9e3000000000000000000000000000000000000000000000000000000000000383c00000000000000000000000000000000000000000000000000000000000001f4",
          "blockHash": "0x0f5f60351daf5fd6cb30af42fd63ba3650beefa611363d419e071e52abbc8d55",
          "blockNumber": "0x173c17c",
          "blockTimestamp": "0x697ff6f0",
          "transactionHash": "0xadcd6300366c013de354ad975db78954018f831383f6e05db45611b79694bb16",
          "transactionIndex": "0x0",
          "logIndex": "0x0",
          "removed": false
        },
        {
          "address": "0x9ed4f4724b521326a9d9d2420252440bd05556c4",
          "topics": [
            "0xddf252ad1be2c89b69c2b068fc378daa952ba7f163c4a11628f55a4df523b3ef",
            "0x0000000000000000000000003c44cdddb6a900fa2b585dd299e03d12fa4293bc",
            "0x000000000000000000000000000000000004444c5dc75cb358380d2e3de08a90"
          ],
          "data": "0x0000000000000000000000000000000000000000000000000000000054e5fe9c",
          "blockHash": "0x0f5f60351daf5fd6cb30af42fd63ba3650beefa611363d419e071e52abbc8d55",
          "blockNumber": "0x173c17c",
          "blockTimestamp": "0x697ff6f0",
          "transactionHash": "0xadcd6300366c013de354ad975db78954018f831383f6e05db45611b79694bb16",
          "transactionIndex": "0x0",
          "logIndex": "0x1",
          "removed": false
        },
        {
          "address": "0xd1620dac6d79be34f8500756b47cf91b1fa5cc8c",
          "topics": [
            "0xddf252ad1be2c89b69c2b068fc378daa952ba7f163c4a11628f55a4df523b3ef",
            "0x000000000000000000000000000000000004444c5dc75cb358380d2e3de08a90",
            "0x0000000000000000000000003c44cdddb6a900fa2b585dd299e03d12fa4293bc"
          ],
          "data": "0x000000000000000000000000000000000000000000000000000000016e4b7e92",
          "blockHash": "0x0f5f60351daf5fd6cb30af42fd63ba3650beefa611363d419e071e52abbc8d55",
          "blockNumber": "0x173c17c",
          "blockTimestamp": "0x697ff6f0",
          "transactionHash": "0xadcd6300366c013de354ad975db78954018f831383f6e05db45611b79694bb16",
          "transactionIndex": "0x0",
          "logIndex": "0x2",
          "removed": false
        }
      ],
      "logsBloom": "0x00000000004000008004000000000000000000000000000000000000000000000000000020000000001000000000000000000000040000000000000000108000000000000000000000400008000000000000000000000020000000004000000000000000000000008000000000000000000800000000000000000010000000000000022800000000000000000000000000000000000000000000000000000000000000000000200000000000100000000000000000000000000000001000000000000802000000000000000000000000000000400000000000000000000000000000000000000000004000000008000000000100000000000000000000000000",
      "type": "0x2",
      "transactionHash": "0xadcd6300366c013de354ad975db78954018f831383f6e05db45611b79694bb16",
      "transactionIndex": "0x0",
      "blockHash": "0x0f5f60351daf5fd6cb30af42fd63ba3650beefa611363d419e071e52abbc8d55",
      "blockNumber": "0x173c17c",
      "gasUsed": "0x25446",
      "effectiveGasPrice": "0xcdc05",
      "blobGasPrice": "0x1",
      "from": "0x3c44cdddb6a900fa2b585dd299e03d12fa4293bc",
      "to": "0xe5529ba08bd8b2bc3b1a4e640c56aa83da90220c",
      "contractAddress": null
    },
    {
      "status": "0x1",
      "cumulativeGasUsed": "0x72d5",
      "logs": [
        {
          "address": "0xd1620dac6d79be34f8500756b47cf91b1fa5cc8c",
          "topics": [
            "0xddf252ad1be2c89b69c2b068fc378daa952ba7f163c4a11628f55a4df523b3ef",
            "0x0000000000000000000000003c44cdddb6a900fa2b585dd299e03d12fa4293bc",
            "0x00000000000000000000000058ff9f45eaaf61a0aaadf450e5adf7ea59820cba"
          ],
          "data": "0x000000000000000000000000000000000000000000000000000000016e4b7e92",
          "blockHash": "0xf6ba6b365aea224d1f46726883a6290085c067fb2bf691bacc02c05f7a0c8788",
          "blockNumber": "0x173c17d",
          "blockTimestamp": "0x697ff6f0",
          "transactionHash": "0x568806d439285c75d57021f4cd00a92014009197ab9a781853f3421afa237051",
          "transactionIndex": "0x0",
          "logIndex": "0x0",
          "removed": false
        }
      ],
      "logsBloom": "0x00000000000000008000000000000000000000000000000000000000000000000000000000000000000000000000000000000000000000000040000000100000000000000000000000000008000000000000000000000040000000004000000000000000000000000000000000000000000808000000000000000010000000000000002000000000000000000000000000000000000000000000000000000000000000000000200000000000000000000000000000000000000000000000000000000002000000000000000000000000000000000000000000000000000000000000000000000000000000000000000000000000000000000000000000000000",
      "type": "0x2",
      "transactionHash": "0x568806d439285c75d57021f4cd00a92014009197ab9a781853f3421afa237051",
      "transactionIndex": "0x0",
      "blockHash": "0xf6ba6b365aea224d1f46726883a6290085c067fb2bf691bacc02c05f7a0c8788",
      "blockNumber": "0x173c17d",
      "gasUsed": "0x72d5",
      "effectiveGasPrice": "0xb4357",
      "blobGasPrice": "0x1",
      "from": "0x3c44cdddb6a900fa2b585dd299e03d12fa4293bc",
      "to": "0xd1620dac6d79be34f8500756b47cf91b1fa5cc8c",
      "contractAddress": null
    },
    {
      "status": "0x1",
      "cumulativeGasUsed": "0x33b7b",
      "logs": [
        {
          "address": "0x9ed4f4724b521326a9d9d2420252440bd05556c4",
          "topics": [
            "0xddf252ad1be2c89b69c2b068fc378daa952ba7f163c4a11628f55a4df523b3ef",
            "0x0000000000000000000000000000000000000000000000000000000000000000",
            "0x00000000000000000000000058ff9f45eaaf61a0aaadf450e5adf7ea59820cba"
          ],
          "data": "0x000000000000000000000000000000000000000000000000000000001d4db834",
          "blockHash": "0xbf67471965cf848cdbd92e35623607a3b1953b9c57870381e4b67e2624913baf",
          "blockNumber": "0x173c17e",
          "blockTimestamp": "0x697ff6f0",
          "transactionHash": "0x2e9c32a5808a05019490f0be3763fed5c8830c8ec91f8fd28413e1a8e9628820",
          "transactionIndex": "0x0",
          "logIndex": "0x0",
          "removed": false
        },
        {
          "address": "0x766542304e16e3585d569705b0eff4756efa6cac",
          "topics": [
            "0x343ef6bfd54be4f7cb6918335f3d2788a88dfadfc586a5c32c67c2f3b61c6338",
            "0x5b171c28fb0eebf8c4f6bebf3f5a0f12611acb1d4a0734c51fbae996b6e9dfdf",
            "0x00000000000000000000000058ff9f45eaaf61a0aaadf450e5adf7ea59820cba"
          ],
          "data": "0x000000000000000000000000000000000000000000000000000000016e4b7e92000000000000000000000000000000000000000000000000000000001d4db834",
          "blockHash": "0xbf67471965cf848cdbd92e35623607a3b1953b9c57870381e4b67e2624913baf",
          "blockNumber": "0x173c17e",
          "blockTimestamp": "0x697ff6f0",
          "transactionHash": "0x2e9c32a5808a05019490f0be3763fed5c8830c8ec91f8fd28413e1a8e9628820",
          "transactionIndex": "0x0",
          "logIndex": "0x1",
          "removed": false
        },
        {
          "address": "0xd1620dac6d79be34f8500756b47cf91b1fa5cc8c",
          "topics": [
            "0x8c5be1e5ebec7d5bd14f71427d1e84f3dd0314c0f7b2291e5b200ac8c7c3b925",
            "0x00000000000000000000000058ff9f45eaaf61a0aaadf450e5adf7ea59820cba",
            "0x000000000000000000000000766542304e16e3585d569705b0eff4756efa6cac"
          ],
          "data": "0x000000000000000000000000000000000000000000000000000000016e4b7e92",
          "blockHash": "0xbf67471965cf848cdbd92e35623607a3b1953b9c57870381e4b67e2624913baf",
          "blockNumber": "0x173c17e",
          "blockTimestamp": "0x697ff6f0",
          "transactionHash": "0x2e9c32a5808a05019490f0be3763fed5c8830c8ec91f8fd28413e1a8e9628820",
          "transactionIndex": "0x0",
          "logIndex": "0x2",
          "removed": false
        }
      ],
      "logsBloom": "0x00000000004000008004000000000000000000000000080000000000000000000000000000000000400000100000000000000000000000080040000000200000000000000000000000000008000000080000000000000040000000004000000000000000024000000000000000000800000008000000000000000010000000000000022000000000000000000000000000000000000000000000000000000002020000000000000000000100000000000000000000000000000000000000000000000002000000000000000000000000008000000000000000000010000020100010000000010000000000000000000000000000000000000000000000000000",
      "type": "0x2",
      "transactionHash": "0x2e9c32a5808a05019490f0be3763fed5c8830c8ec91f8fd28413e1a8e9628820",
      "transactionIndex": "0x0",
      "blockHash": "0xbf67471965cf848cdbd92e35623607a3b1953b9c57870381e4b67e2624913baf",
      "blockNumber": "0x173c17e",
      "gasUsed": "0x33b7b",
      "effectiveGasPrice": "0x9dc02",
      "blobGasPrice": "0x1",
      "from": "0x3c44cdddb6a900fa2b585dd299e03d12fa4293bc",
      "to": "0x58ff9f45eaaf61a0aaadf450e5adf7ea59820cba",
      "contractAddress": null
    },
    {
      "status": "0x1",
      "cumulativeGasUsed": "0x21cf3",
      "logs": [
        {
          "address": "0x9ed4f4724b521326a9d9d2420252440bd05556c4",
          "topics": [
            "0xddf252ad1be2c89b69c2b068fc378daa952ba7f163c4a11628f55a4df523b3ef",
            "0x00000000000000000000000058ff9f45eaaf61a0aaadf450e5adf7ea59820cba",
            "0x0000000000000000000000003c44cdddb6a900fa2b585dd299e03d12fa4293bc"
          ],
          "data": "0x000000000000000000000000000000000000000000000000000000001d4db834",
          "blockHash": "0x85638ec480d995d69ae36595fa23a2669cc9fd3c046517e79cc09608d39ffb83",
          "blockNumber": "0x173c17f",
          "blockTimestamp": "0x697ff6f0",
          "transactionHash": "0xd3e837a983d4d359b9278decd47eb71449573e2d350df4d40b58f15e9795a736",
          "transactionIndex": "0x0",
          "logIndex": "0x0",
          "removed": false
        }
      ],
      "logsBloom": "0x00000000004000000004000000000000000000000000000000000000000000000000000000000000000000000000000000000000000000000040000000100000000000000000000000000008000000000000000000000040000000000000000000000000000000000000000000000000000808000000000000000010000000000000020000000000000000000000000000000000000000000000000000000000000000000000200000000000000000000000000000000000000000000000000000000002000000000000000000000000000000000000000000000000000000000000000000000000000000000000000000000000000000000000000000000000",
      "type": "0x2",
      "transactionHash": "0xd3e837a983d4d359b9278decd47eb71449573e2d350df4d40b58f15e9795a736",
      "transactionIndex": "0x0",
      "blockHash": "0x85638ec480d995d69ae36595fa23a2669cc9fd3c046517e79cc09608d39ffb83",
      "blockNumber": "0x173c17f",
      "gasUsed": "0x21cf3",
      "effectiveGasPrice": "0x8a377",
      "blobGasPrice": "0x1",
      "from": "0x3c44cdddb6a900fa2b585dd299e03d12fa4293bc",
      "to": "0x58ff9f45eaaf61a0aaadf450e5adf7ea59820cba",
      "contractAddress": null
    },
    {
      "status": "0x1",
      "cumulativeGasUsed": "0x26882",
      "logs": [
        {
          "address": "0x000000000004444c5dc75cb358380d2e3de08a90",
          "topics": [
            "0x40e9cecb9f5f1f1c5b9c97dec2917b7ee92e57ba5563708daca94dd84ad7112f",
            "0x3509745444ed1275bf3cc6196dcab60943ac6b87c5b249d3e64fa8e35e5b5f69",
            "0x000000000000000000000000e5529ba08bd8b2bc3b1a4e640c56aa83da90220c"
          ],
          "data": "0xffffffffffffffffffffffffffffffffffffffffffffffffffffffffb4d81bf80000000000000000000000000000000000000000000000000000000136b3382a00000000000000000000000000000000000000020380d5d1071617a3f28d1da90000000000000000000000000000000000000000000000000000001e1717e9e300000000000000000000000000000000000000000000000000000000000036b000000000000000000000000000000000000000000000000000000000000001f4",
          "blockHash": "0x8c1698e6eca2d6cace168fa7ebd0df8a80e241c6a8b907b0e595f49577208b12",
          "blockNumber": "0x173c180",
          "blockTimestamp": "0x697ff6f0",
          "transactionHash": "0x5bfd28d1ca924d5b641b1da8bce5175be2fdfb0388c787a6ab3b34fe8dce415d",
          "transactionIndex": "0x0",
          "logIndex": "0x0",
          "removed": false
        },
        {
          "address": "0x9ed4f4724b521326a9d9d2420252440bd05556c4",
          "topics": [
            "0xddf252ad1be2c89b69c2b068fc378daa952ba7f163c4a11628f55a4df523b3ef",
            "0x0000000000000000000000003c44cdddb6a900fa2b585dd299e03d12fa4293bc",
            "0x000000000000000000000000000000000004444c5dc75cb358380d2e3de08a90"
          ],
          "data": "0x000000000000000000000000000000000000000000000000000000004b27e408",
          "blockHash": "0x8c1698e6eca2d6cace168fa7ebd0df8a80e241c6a8b907b0e595f49577208b12",
          "blockNumber": "0x173c180",
          "blockTimestamp": "0x697ff6f0",
          "transactionHash": "0x5bfd28d1ca924d5b641b1da8bce5175be2fdfb0388c787a6ab3b34fe8dce415d",
          "transactionIndex": "0x0",
          "logIndex": "0x1",
          "removed": false
        },
        {
          "address": "0xd1620dac6d79be34f8500756b47cf91b1fa5cc8c",
          "topics": [
            "0xddf252ad1be2c89b69c2b068fc378daa952ba7f163c4a11628f55a4df523b3ef",
            "0x000000000000000000000000000000000004444c5dc75cb358380d2e3de08a90",
            "0x0000000000000000000000003c44cdddb6a900fa2b585dd299e03d12fa4293bc"
          ],
          "data": "0x0000000000000000000000000000000000000000000000000000000136b3382a",
          "blockHash": "0x8c1698e6eca2d6cace168fa7ebd0df8a80e241c6a8b907b0e595f49577208b12",
          "blockNumber": "0x173c180",
          "blockTimestamp": "0x697ff6f0",
          "transactionHash": "0x5bfd28d1ca924d5b641b1da8bce5175be2fdfb0388c787a6ab3b34fe8dce415d",
          "transactionIndex": "0x0",
          "logIndex": "0x2",
          "removed": false
        }
      ],
      "logsBloom": "0x00000000004000008004000000000000000000000000000000000000000000000000000020000000001000000000000000000000040000000000000000108000000000000000000000400008000000000000000000000020000000004000000000000000000000008000000000000000000800000000000000000010000000000000022800000000000000000000000000000000000000000000000000000000000000000000200000000000100000000000000000000000000000001000000000000802000000000000000000000000000000400000000000000000000000000000000000000000004000000008000000000100000000000000000000000000",
      "type": "0x2",
      "transactionHash": "0x5bfd28d1ca924d5b641b1da8bce5175be2fdfb0388c787a6ab3b34fe8dce415d",
      "transactionIndex": "0x0",
      "blockHash": "0x8c1698e6eca2d6cace168fa7ebd0df8a80e241c6a8b907b0e595f49577208b12",
      "blockNumber": "0x173c180",
      "gasUsed": "0x26882",
      "effectiveGasPrice": "0x7910a",
      "blobGasPrice": "0x1",
      "from": "0x3c44cdddb6a900fa2b585dd299e03d12fa4293bc",
      "to": "0xe5529ba08bd8b2bc3b1a4e640c56aa83da90220c",
      "contractAddress": null
    },
    {
      "status": "0x1",
      "cumulativeGasUsed": "0x72d5",
      "logs": [
        {
          "address": "0xd1620dac6d79be34f8500756b47cf91b1fa5cc8c",
          "topics": [
            "0xddf252ad1be2c89b69c2b068fc378daa952ba7f163c4a11628f55a4df523b3ef",
            "0x0000000000000000000000003c44cdddb6a900fa2b585dd299e03d12fa4293bc",
            "0x00000000000000000000000058ff9f45eaaf61a0aaadf450e5adf7ea59820cba"
          ],
          "data": "0x0000000000000000000000000000000000000000000000000000000136b3382a",
          "blockHash": "0x4a2997c3f54344fd125d065390e255539553829155429870e48bbebee2ffd082",
          "blockNumber": "0x173c181",
          "blockTimestamp": "0x697ff6f0",
          "transactionHash": "0xc4856a0956b972cc9a310ec613073bc74e6c9f59c3f850117e8557b03e518f61",
          "transactionIndex": "0x0",
          "logIndex": "0x0",
          "removed": false
        }
      ],
      "logsBloom": "0x00000000000000008000000000000000000000000000000000000000000000000000000000000000000000000000000000000000000000000040000000100000000000000000000000000008000000000000000000000040000000004000000000000000000000000000000000000000000808000000000000000010000000000000002000000000000000000000000000000000000000000000000000000000000000000000200000000000000000000000000000000000000000000000000000000002000000000000000000000000000000000000000000000000000000000000000000000000000000000000000000000000000000000000000000000000",
      "type": "0x2",
      "transactionHash": "0xc4856a0956b972cc9a310ec613073bc74e6c9f59c3f850117e8557b03e518f61",
      "transactionIndex": "0x0",
      "blockHash": "0x4a2997c3f54344fd125d065390e255539553829155429870e48bbebee2ffd082",
      "blockNumber": "0x173c181",
      "gasUsed": "0x72d5",
      "effectiveGasPrice": "0x6a0ea",
      "blobGasPrice": "0x1",
      "from": "0x3c44cdddb6a900fa2b585dd299e03d12fa4293bc",
      "to": "0xd1620dac6d79be34f8500756b47cf91b1fa5cc8c",
      "contractAddress": null
    },
    {
      "status": "0x1",
      "cumulativeGasUsed": "0x2671f",
      "logs": [
        {
          "address": "0x766542304e16e3585d569705b0eff4756efa6cac",
          "topics": [
            "0x343ef6bfd54be4f7cb6918335f3d2788a88dfadfc586a5c32c67c2f3b61c6338",
            "0x5b171c28fb0eebf8c4f6bebf3f5a0f12611acb1d4a0734c51fbae996b6e9dfdf",
            "0x00000000000000000000000058ff9f45eaaf61a0aaadf450e5adf7ea59820cba"
          ],
          "data": "0x0000000000000000000000000000000000000000000000000000000136b3382a0000000000000000000000000000000000000000000000000000000000000000",
          "blockHash": "0x04067c933f55f879a900dcbbd650481d83f927d1a8e82baf64222879e9a1241a",
          "blockNumber": "0x173c182",
          "blockTimestamp": "0x697ff6f0",
          "transactionHash": "0xe5fd1878f3158a454c4bd914e56d777574bed732bd025bbcb3b63d0139c67301",
          "transactionIndex": "0x0",
          "logIndex": "0x0",
          "removed": false
        },
        {
          "address": "0xd1620dac6d79be34f8500756b47cf91b1fa5cc8c",
          "topics": [
            "0x8c5be1e5ebec7d5bd14f71427d1e84f3dd0314c0f7b2291e5b200ac8c7c3b925",
            "0x00000000000000000000000058ff9f45eaaf61a0aaadf450e5adf7ea59820cba",
            "0x000000000000000000000000766542304e16e3585d569705b0eff4756efa6cac"
          ],
          "data": "0x0000000000000000000000000000000000000000000000000000000136b3382a",
          "blockHash": "0x04067c933f55f879a900dcbbd650481d83f927d1a8e82baf64222879e9a1241a",
          "blockNumber": "0x173c182",
          "blockTimestamp": "0x697ff6f0",
          "transactionHash": "0xe5fd1878f3158a454c4bd914e56d777574bed732bd025bbcb3b63d0139c67301",
          "transactionIndex": "0x0",
          "logIndex": "0x1",
          "removed": false
        }
      ],
      "logsBloom": "0x00000000000000008000000000000000000000000000080000000000000000000000000000000000400000100000000000000000000000080040000000200000000000000000000000000000000000080000000000000040000000004000000000000000004000000000000000000000000008000000000000000000000000000000002000000000000000000000000000000000000000000000000000000002020000000000000000000100000000000000000000000000000000000000000000000000000000000000000000000000008000000000000000000010000000100010000000010000000000000000000000000000000000000000000000000000",
      "type": "0x2",
      "transactionHash": "0xe5fd1878f3158a454c4bd914e56d777574bed732bd025bbcb3b63d0139c67301",
      "transactionIndex": "0x0",
      "blockHash": "0x04067c933f55f879a900dcbbd650481d83f927d1a8e82baf64222879e9a1241a",
      "blockNumber": "0x173c182",
      "gasUsed": "0x2671f",
      "effectiveGasPrice": "0x5cdbe",
      "blobGasPrice": "0x1",
      "from": "0x3c44cdddb6a900fa2b585dd299e03d12fa4293bc",
      "to": "0x58ff9f45eaaf61a0aaadf450e5adf7ea59820cba",
      "contractAddress": null
    }
  ],
  "libraries": [],
  "pending": [],
  "returns": {},
  "timestamp": 1770032878954,
  "chain": 1,
  "commit": "290e97f"
}