{
  "transactions": [
    {
      "hash": "0xfaf0824601955e022b74b51b69d2f14bb11eb063ee91e58b968d48745c487f29",
      "transactionType": "CREATE",
      "contractName": "ShortRouter",
      "contractAddress": "0xde37b79c9cfbc7514caf00ea404752931a3591e6",
      "function": null,
      "arguments": [
        "0x000000000004444c5dc75cB358380D2e3dE08A90"
      ],
      "transaction": {
        "from": "0x3c44cdddb6a900fa2b585dd299e03d12fa4293bc",
        "value": "0x0",
        "input": "0x60a034607357601f610abf38819003918201601f19168301916001600160401b03831184841017607757808492602094604052833981010312607357516001600160a01b0381168103607357608052604051610a33908161008c8239608051818181608b0152818161040601526105ab0152f35b5f80fd5b634e487b7160e01b5f52604160045260245ffdfe60806040526004361015610011575f80fd5b5f3560e01c80631e2817de14610435578063481c6a75146103f1576391dd73461461003a575f80fd5b346103ad5760203660031901126103ad5760043567ffffffffffffffff81116103ad57366023820112156103ad57806004013567ffffffffffffffff81116103ad578101903660248301116103ad577f00000000000000000000000000000000000000000000000000000000000000006001600160a01b0381169290338490036103c357610120838303126103ad576040516100d5816106a2565b6100e1602485016106fc565b815260a0601f1985850301126103ad57604051926100fe846106be565b61010a604486016106fc565b8452610118606486016106fc565b6020850152608485013562ffffff811681036103ad57604085015260a48501358060020b81036103ad57606085015260c48501356001600160a01b03811681036103ad5760808501526020820193845260609085900360bf1901126103ad5760405193610184856106a2565b60e48101359081151582036103ad5790855261010481013560208601526101240135936001600160a01b03851685036103ad57610237955f9560408301526040830191808352855191610210602098899461024b6040516101e588826106da565b838152601f1988013689830137604051633cf3645360e21b81529d8e97889687956004870190610734565b8051151560a4860152602081015160c4860152604001516001600160a01b031660e4850152565b610120610104840152610124830190610710565b03925af19586156103b8575f96610385575b5051511561030d578460801d600f0b5f81126102dd575b5084600f0b915f83136102b5575b505050505b604051918183015280825261029d6040836106da565b6102b1604051928284938452830190610710565b0390f35b925184015190516102d4936001600160a01b0391821692909116610997565b5f808080610282565b8351518251610307926001600160a01b039283169290911690859061030190610786565b926107c2565b5f610274565b84600f0b5f8112610359575b508460801d600f0b915f8313610333575b50505050610287565b9251519051610350936001600160a01b0391821692909116610997565b5f80808061032a565b8351850151825161037f926001600160a01b039283169290911690859061030190610786565b5f610319565b9095508481813d83116103b1575b61039d81836106da565b810103126103ad5751945f61025d565b5f80fd5b503d610393565b6040513d5f823e3d90fd5b60405162461bcd60e51b81526020600482015260066024820152654e6f7420504d60d01b6044820152606490fd5b346103ad575f3660031901126103ad576040517f00000000000000000000000000000000000000000000000000000000000000006001600160a01b03168152602090f35b346103ad57366003190161010081126103ad5760a0136103ad5760405161045b816106be565b6004356001600160a01b03811681036103ad5781526024356001600160a01b03811681036103ad57602082015260443562ffffff811681036103ad5760408201526064358060020b81036103ad5760608201526084356001600160a01b03811681036103ad57608082015260603660a31901126103ad576040516104de816106a2565b60a43580151581036103ad57815260c435602082015260e435916001600160a01b03831683036103ad57610573826105a69460405f95015260408051610523816106a2565b338152602081019485520190815261054960405193336020860152516040850190610734565b518051151560e08401526020810151610100840152604001516001600160a01b0316610120830152565b6101208152610584610140826106da565b604051809381926348c8949160e01b8352602060048401526024830190610710565b0381837f00000000000000000000000000000000000000000000000000000000000000006001600160a01b03165af19081156103b8575f91610604575b50602081519181808201938492010103126103ad5760209051604051908152f35b90503d805f833e61061581836106da565b8101906020818303126103ad5780519067ffffffffffffffff82116103ad570181601f820112156103ad5780519067ffffffffffffffff821161068e576040519261066a601f8401601f1916602001856106da565b828452602083830101116103ad57815f9260208093018386015e83010152816105e3565b634e487b7160e01b5f52604160045260245ffd5b6060810190811067ffffffffffffffff82111761068e57604052565b60a0810190811067ffffffffffffffff82111761068e57604052565b90601f8019910116810190811067ffffffffffffffff82111761068e57604052565b35906001600160a01b03821682036103ad57565b805180835260209291819084018484015e5f828201840152601f01601f1916010190565b80516001600160a01b03908116835260208083015182169084015260408083015162ffffff169084015260608083015160020b9084015260809182015116910152565b908160209103126103ad575190565b600160ff1b8114610796575f0390565b634e487b7160e01b5f52601160045260245ffd5b908160209103126103ad575180151581036103ad5790565b9192916001600160a01b0316806108305750604051630476982d60e21b81529250602091839160049183916001600160a01b03165af180156103b8576108055750565b6108269060203d602011610829575b61081e81836106da565b810190610777565b50565b503d610814565b6001600160a01b0390911691823b156103ad57604051632961046560e21b815260048101839052935a945f816024818389819bf180156103b857610982575b506001600160a01b031684308214610927576020929160649160405195869485936323b872dd60e01b8552600485015288602485015260448401525af1801561091c579160209184936108ef575b505b600460405180958193630476982d60e21b83525af19081156108e357506108055750565b604051903d90823e3d90fd5b61090e90833d8511610915575b61090681836106da565b8101906107aa565b505f6108bd565b503d6108fc565b6040513d85823e3d90fd5b9290506044602092604051948593849263a9059cbb60e01b845288600485015260248401525af1801561091c57916020918493610965575b506108bf565b61097b90833d85116109155761090681836106da565b505f61095f565b61098f9195505f906106da565b5f935f61086f565b91906001600160a01b0316803b156103ad57604051630b0d9c0960e01b81526001600160a01b03938416600482015291909216602482015260448101929092525f908290606490829084905af180156103b8576109f15750565b5f6109fb916106da565b56fea2646970667358221220662069c861c5f809cdb58212a724ae9dec0c469590dc2d32a9ef57efac3a564364736f6c634300081a0033000000000000000000000000000000000004444c5dc75cb358380d2e3de08a90",
        "nonce": "0x991",
        "chainId": "0x1"
      },
      "additionalContracts": [],
      "isFixedGasLimit": false
    },
    {
      "hash": "0xef81cf43b0a1ec9e2d9d402d86f9baa4fde6da43ae5e62cb439a65c09e0251ee",
      "transactionType": "CALL",
      "contractName": null,
      "contractAddress": "0xd1620dac6d79be34f8500756b47cf91b1fa5cc8c",
      "function": "approve(address,uint256)",
      "arguments": [
        "0xDE37b79c9Cfbc7514CAF00ea404752931a3591e6",
        "115792089237316195423570985008687907853269984665640564039457584007913129639935"
      ],
      "transaction": {
        "from": "0x3c44cdddb6a900fa2b585dd299e03d12fa4293bc",
        "to": "0xd1620dac6d79be34f8500756b47cf91b1fa5cc8c",
        "value": "0x0",
        "input": "0x095ea7b3000000000000000000000000de37b79c9cfbc7514caf00ea404752931a3591e6ffffffffffffffffffffffffffffffffffffffffffffffffffffffffffffffff",
        "nonce": "0x992",
        "chainId": "0x1"
      },
      "additionalContracts": [],
      "isFixedGasLimit": false
    },
    {
      "hash": "0x1bd32c2becb22020d27be868d2f941fc6cdf4a7e7ac514a3129bd9e7bef0bbbb",
      "transactionType": "CALL",
      "contractName": null,
      "contractAddress": "0x9ed4f4724b521326a9d9d2420252440bd05556c4",
      "function": "approve(address,uint256)",
      "arguments": [
        "0xDE37b79c9Cfbc7514CAF00ea404752931a3591e6",
        "115792089237316195423570985008687907853269984665640564039457584007913129639935"
      ],
      "transaction": {
        "from": "0x3c44cdddb6a900fa2b585dd299e03d12fa4293bc",
        "to": "0x9ed4f4724b521326a9d9d2420252440bd05556c4",
        "value": "0x0",
        "input": "0x095ea7b3000000000000000000000000de37b79c9cfbc7514caf00ea404752931a3591e6ffffffffffffffffffffffffffffffffffffffffffffffffffffffffffffffff",
        "nonce": "0x993",
        "chainId": "0x1"
      },
      "additionalContracts": [],
      "isFixedGasLimit": false
    },
    {
      "hash": "0x1837e965ac4b9b7a37b8a2011fe55ffd9cced9e199df5040f0d942503b01401a",
      "transactionType": "CALL",
      "contractName": null,
      "contractAddress": "0xd1620dac6d79be34f8500756b47cf91b1fa5cc8c",
      "function": "approve(address,uint256)",
      "arguments": [
        "0x000000000004444c5dc75cB358380D2e3dE08A90",
        "115792089237316195423570985008687907853269984665640564039457584007913129639935"
      ],
      "transaction": {
        "from": "0x3c44cdddb6a900fa2b585dd299e03d12fa4293bc",
        "to": "0xd1620dac6d79be34f8500756b47cf91b1fa5cc8c",
        "value": "0x0",
        "input": "0x095ea7b3000000000000000000000000000000000004444c5dc75cb358380d2e3de08a90ffffffffffffffffffffffffffffffffffffffffffffffffffffffffffffffff",
        "nonce": "0x994",
        "chainId": "0x1"
      },
      "additionalContracts": [],
      "isFixedGasLimit": false
    },
    {
      "hash": "0xa741407713b92deaaaa28e2566147c28b7794e6a6cb2be8d16b1a8d99210696d",
      "transactionType": "CALL",
      "contractName": null,
      "contractAddress": "0x9ed4f4724b521326a9d9d2420252440bd05556c4",
      "function": "approve(address,uint256)",
      "arguments": [
        "0x000000000004444c5dc75cB358380D2e3dE08A90",
        "115792089237316195423570985008687907853269984665640564039457584007913129639935"
      ],
      "transaction": {
        "from": "0x3c44cdddb6a900fa2b585dd299e03d12fa4293bc",
        "to": "0x9ed4f4724b521326a9d9d2420252440bd05556c4",
        "value": "0x0",
        "input": "0x095ea7b3000000000000000000000000000000000004444c5dc75cb358380d2e3de08a90ffffffffffffffffffffffffffffffffffffffffffffffffffffffffffffffff",
        "nonce": "0x995",
        "chainId": "0x1"
      },
      "additionalContracts": [],
      "isFixedGasLimit": false
    },
    {
      "hash": "0xbefdb23e06da51f0b4350a997dc21a4e83277aad501cda62ba5c0c633df460ac",
      "transactionType": "CALL",
      "contractName": null,
      "contractAddress": "0x9554b52516f306360a239746f70f88c23d187b63",
      "function": "createBroker(bytes32)",
      "arguments": [
        "0x5825af1d12c613570f002f0053e98c336807eb1f07c7e95b2dc58d2165cbd4e0"
      ],
      "transaction": {
        "from": "0x3c44cdddb6a900fa2b585dd299e03d12fa4293bc",
        "to": "0x9554b52516f306360a239746f70f88c23d187b63",
        "value": "0x0",
        "input": "0x26f4f1235825af1d12c613570f002f0053e98c336807eb1f07c7e95b2dc58d2165cbd4e0",
        "nonce": "0x996",
        "chainId": "0x1"
      },
      "additionalContracts": [],
      "isFixedGasLimit": false
    },
    {
      "hash": "0xac2abbb4474e1a0f01f3fcef50c80eab7eebedb1fa308b58f59d631bcec66bd6",
      "transactionType": "CALL",
      "contractName": null,
      "contractAddress": "0xd1620dac6d79be34f8500756b47cf91b1fa5cc8c",
      "function": "transfer(address,uint256)",
      "arguments": [
        "0x636c8D1011678625BFBB95fF608BF12c4314946F",
        "49999136535"
      ],
      "transaction": {
        "from": "0x3c44cdddb6a900fa2b585dd299e03d12fa4293bc",
        "to": "0xd1620dac6d79be34f8500756b47cf91b1fa5cc8c",
        "value": "0x0",
        "input": "0xa9059cbb000000000000000000000000636c8d1011678625bfbb95ff608bf12c4314946f0000000000000000000000000000000000000000000000000000000ba42e4717",
        "nonce": "0x997",
        "chainId": "0x1"
      },
      "additionalContracts": [],
      "isFixedGasLimit": false
    },
    {
      "hash": "0x048c234ebf8057dc41b16018fa74a87f3cea8146f100f51523a563a494667e5e",
      "transactionType": "CALL",
      "contractName": null,
      "contractAddress": "0x636c8d1011678625bfbb95ff608bf12c4314946f",
      "function": "modifyPosition(bytes32,int256,int256)",
      "arguments": [
        "0x5b171c28fb0eebf8c4f6bebf3f5a0f12611acb1d4a0734c51fbae996b6e9dfdf",
        "49999136535",
        "3999930922"
      ],
      "transaction": {
        "from": "0x3c44cdddb6a900fa2b585dd299e03d12fa4293bc",
        "to": "0x636c8d1011678625bfbb95ff608bf12c4314946f",
        "value": "0x0",
        "input": "0x1b89f3d45b171c28fb0eebf8c4f6bebf3f5a0f12611acb1d4a0734c51fbae996b6e9dfdf0000000000000000000000000000000000000000000000000000000ba42e471700000000000000000000000000000000000000000000000000000000ee6a1a2a",
        "nonce": "0x998",
        "chainId": "0x1"
      },
      "additionalContracts": [],
      "isFixedGasLimit": false
    },
    {
      "hash": "0x53de9c43e1ff3bae1e6e48ccb47d1b24d6df1921ecca26e4ab4a4138e08fd4c1",
      "transactionType": "CALL",
      "contractName": null,
      "contractAddress": "0x636c8d1011678625bfbb95ff608bf12c4314946f",
      "function": "withdrawPositionToken(address,uint256)",
      "arguments": [
        "0x3C44CdDdB6a900fa2b585dd299e03d12FA4293BC",
        "3999930922"
      ],
      "transaction": {
        "from": "0x3c44cdddb6a900fa2b585dd299e03d12fa4293bc",
        "to": "0x636c8d1011678625bfbb95ff608bf12c4314946f",
        "value": "0x0",
        "input": "0x14776d760000000000000000000000003c44cdddb6a900fa2b585dd299e03d12fa4293bc00000000000000000000000000000000000000000000000000000000ee6a1a2a",
        "nonce": "0x999",
        "chainId": "0x1"
      },
      "additionalContracts": [],
      "isFixedGasLimit": false
    },
    {
      "hash": "0x1849cc8d0271ada3f67995e6f621b95ad92889978aec2a6ecab2d69abf513060",
      "transactionType": "CALL",
      "contractName": "ShortRouter",
      "contractAddress": "0xde37b79c9cfbc7514caf00ea404752931a3591e6",
      "function": "swap((address,address,uint24,int24,address),(bool,int256,uint160))",
      "arguments": [
        "(0x9ed4F4724b521326a9d9d2420252440bD05556c4, 0xD1620Dac6d79BE34F8500756B47cf91B1fA5Cc8C, 500, 5, 0x7e0C07EEabb2459D70dba5b8d100Dca44c652aC0)",
        "(true, 6326128820, 4295128740)"
      ],
      "transaction": {
        "from": "0x3c44cdddb6a900fa2b585dd299e03d12fa4293bc",
        "to": "0xde37b79c9cfbc7514caf00ea404752931a3591e6",
        "value": "0x0",
        "input": "0x1e2817de0000000000000000000000009ed4f4724b521326a9d9d2420252440bd05556c4000000000000000000000000d1620dac6d79be34f8500756b47cf91b1fa5cc8c00000000000000000000000000000000000000000000000000000000000001f400000000000000000000000000000000000000000000000000000000000000050000000000000000000000007e0c07eeabb2459d70dba5b8d100dca44c652ac0000000000000000000000000000000000000000000000000000000000000000100000000000000000000000000000000000000000000000000000001791110b400000000000000000000000000000000000000000000000000000001000276a4",
        "nonce": "0x99a",
        "chainId": "0x1"
      },
      "additionalContracts": [],
      "isFixedGasLimit": false
    },
    {
      "hash": "0xe42a6edb30f4ea55d1cd1a11f4641e674d127551a9a58efe157b1c67687213da",
      "transactionType": "CALL",
      "contractName": null,
      "contractAddress": "0xd1620dac6d79be34f8500756b47cf91b1fa5cc8c",
      "function": "transfer(address,uint256)",
      "arguments": [
        "0x636c8D1011678625BFBB95fF608BF12c4314946F",
        "6326128820"
      ],
      "transaction": {
        "from": "0x3c44cdddb6a900fa2b585dd299e03d12fa4293bc",
        "to": "0xd1620dac6d79be34f8500756b47cf91b1fa5cc8c",
        "value": "0x0",
        "input": "0xa9059cbb000000000000000000000000636c8d1011678625bfbb95ff608bf12c4314946f00000000000000000000000000000000000000000000000000000001791110b4",
        "nonce": "0x99b",
        "chainId": "0x1"
      },
      "additionalContracts": [],
      "isFixedGasLimit": false
    },
    {
      "hash": "0x2d8c338b68f47d13af25f3a630778efd42fa760e0051b4e98e1f688b0d916fcb",
      "transactionType": "CALL",
      "contractName": null,
      "contractAddress": "0x636c8d1011678625bfbb95ff608bf12c4314946f",
      "function": "modifyPosition(bytes32,int256,int256)",
      "arguments": [
        "0x5b171c28fb0eebf8c4f6bebf3f5a0f12611acb1d4a0734c51fbae996b6e9dfdf",
        "6326128820",
        "506090305"
      ],
      "transaction": {
        "from": "0x3c44cdddb6a900fa2b585dd299e03d12fa4293bc",
        "to": "0x636c8d1011678625bfbb95ff608bf12c4314946f",
        "value": "0x0",
        "input": "0x1b89f3d45b171c28fb0eebf8c4f6bebf3f5a0f12611acb1d4a0734c51fbae996b6e9dfdf00000000000000000000000000000000000000000000000000000001791110b4000000000000000000000000000000000000000000000000000000001e2a5341",
        "nonce": "0x99c",
        "chainId": "0x1"
      },
      "additionalContracts": [],
      "isFixedGasLimit": false
    },
    {
      "hash": "0x942fade91207db6a963f8bc3aad2c4aa8c3c2a579db4d990b313e076f4939731",
      "transactionType": "CALL",
      "contractName": null,
      "contractAddress": "0x636c8d1011678625bfbb95ff608bf12c4314946f",
      "function": "withdrawPositionToken(address,uint256)",
      "arguments": [
        "0x3C44CdDdB6a900fa2b585dd299e03d12FA4293BC",
        "506090305"
      ],
      "transaction": {
        "from": "0x3c44cdddb6a900fa2b585dd299e03d12fa4293bc",
        "to": "0x636c8d1011678625bfbb95ff608bf12c4314946f",
        "value": "0x0",
        "input": "0x14776d760000000000000000000000003c44cdddb6a900fa2b585dd299e03d12fa4293bc000000000000000000000000000000000000000000000000000000001e2a5341",
        "nonce": "0x99d",
        "chainId": "0x1"
      },
      "additionalContracts": [],
      "isFixedGasLimit": false
    },
    {
      "hash": "0x789d9f5a1d3ccdf99abf431b78c536638fc697a27d34be2cb54264f485dd2c56",
      "transactionType": "CALL",
      "contractName": "ShortRouter",
      "contractAddress": "0xde37b79c9cfbc7514caf00ea404752931a3591e6",
      "function": "swap((address,address,uint24,int24,address),(bool,int256,uint160))",
      "arguments": [
        "(0x9ed4F4724b521326a9d9d2420252440bD05556c4, 0xD1620Dac6d79BE34F8500756B47cf91B1fA5Cc8C, 500, 5, 0x7e0C07EEabb2459D70dba5b8d100Dca44c652aC0)",
        "(true, 5372449474, 4295128740)"
      ],
      "transaction": {
        "from": "0x3c44cdddb6a900fa2b585dd299e03d12fa4293bc",
        "to": "0xde37b79c9cfbc7514caf00ea404752931a3591e6",
        "value": "0x0",
        "input": "0x1e2817de0000000000000000000000009ed4f4724b521326a9d9d2420252440bd05556c4000000000000000000000000d1620dac6d79be34f8500756b47cf91b1fa5cc8c00000000000000000000000000000000000000000000000000000000000001f400000000000000000000000000000000000000000000000000000000000000050000000000000000000000007e0c07eeabb2459d70dba5b8d100dca44c652ac0000000000000000000000000000000000000000000000000000000000000000100000000000000000000000000000000000000000000000000000001403912c200000000000000000000000000000000000000000000000000000001000276a4",
        "nonce": "0x99e",
        "chainId": "0x1"
      },
      "additionalContracts": [],
      "isFixedGasLimit": false
    },
    {
      "hash": "0xd47dae97fa5e90620a89d440ed02d62c2e1e2b2b131adc5a7c6bcf3ea3d1238b",
      "transactionType": "CALL",
      "contractName": null,
      "contractAddress": "0xd1620dac6d79be34f8500756b47cf91b1fa5cc8c",
      "function": "transfer(address,uint256)",
      "arguments": [
        "0x636c8D1011678625BFBB95fF608BF12c4314946F",
        "5372449474"
      ],
      "transaction": {
        "from": "0x3c44cdddb6a900fa2b585dd299e03d12fa4293bc",
        "to": "0xd1620dac6d79be34f8500756b47cf91b1fa5cc8c",
        "value": "0x0",
        "input": "0xa9059cbb000000000000000000000000636c8d1011678625bfbb95ff608bf12c4314946f00000000000000000000000000000000000000000000000000000001403912c2",
        "nonce": "0x99f",
        "chainId": "0x1"
      },
      "additionalContracts": [],
      "isFixedGasLimit": false
    },
    {
      "hash": "0xaa5552ccd503ea3868927c27f54c83a3e99a44ca671cea043df5baefb210363c",
      "transactionType": "CALL",
      "contractName": null,
      "contractAddress": "0x636c8d1011678625bfbb95ff608bf12c4314946f",
      "function": "modifyPosition(bytes32,int256,int256)",
      "arguments": [
        "0x5b171c28fb0eebf8c4f6bebf3f5a0f12611acb1d4a0734c51fbae996b6e9dfdf",
        "5372449474",
        "429795957"
      ],
      "transaction": {
        "from": "0x3c44cdddb6a900fa2b585dd299e03d12fa4293bc",
        "to": "0x636c8d1011678625bfbb95ff608bf12c4314946f",
        "value": "0x0",
        "input": "0x1b89f3d45b171c28fb0eebf8c4f6bebf3f5a0f12611acb1d4a0734c51fbae996b6e9dfdf00000000000000000000000000000000000000000000000000000001403912c200000000000000000000000000000000000000000000000000000000199e2a75",
        "nonce": "0x9a0",
        "chainId": "0x1"
      },
      "additionalContracts": [],
      "isFixedGasLimit": false
    },
    {
      "hash": "0x3baf4cc5e6761ec221a9c5d3784b979783f3940733315996ba1ce24289ed8130",
      "transactionType": "CALL",
      "contractName": null,
      "contractAddress": "0x636c8d1011678625bfbb95ff608bf12c4314946f",
      "function": "withdrawPositionToken(address,uint256)",
      "arguments": [
        "0x3C44CdDdB6a900fa2b585dd299e03d12FA4293BC",
        "429795957"
      ],
      "transaction": {
        "from": "0x3c44cdddb6a900fa2b585dd299e03d12fa4293bc",
        "to": "0x636c8d1011678625bfbb95ff608bf12c4314946f",
        "value": "0x0",
        "input": "0x14776d760000000000000000000000003c44cdddb6a900fa2b585dd299e03d12fa4293bc00000000000000000000000000000000000000000000000000000000199e2a75",
        "nonce": "0x9a1",
        "chainId": "0x1"
      },
      "additionalContracts": [],
      "isFixedGasLimit": false
    },
    {
      "hash": "0x0af87da1dd30f96cd7c60fb9066b9701dfc48784dc3f1e5a14417cbf31266c04",
      "transactionType": "CALL",
      "contractName": "ShortRouter",
      "contractAddress": "0xde37b79c9cfbc7514caf00ea404752931a3591e6",
      "function": "swap((address,address,uint24,int24,address),(bool,int256,uint160))",
      "arguments": [
        "(0x9ed4F4724b521326a9d9d2420252440bD05556c4, 0xD1620Dac6d79BE34F8500756B47cf91B1fA5Cc8C, 500, 5, 0x7e0C07EEabb2459D70dba5b8d100Dca44c652aC0)",
        "(true, 4506885344, 4295128740)"
      ],
      "transaction": {
        "from": "0x3c44cdddb6a900fa2b585dd299e03d12fa4293bc",
        "to": "0xde37b79c9cfbc7514caf00ea404752931a3591e6",
        "value": "0x0",
        "input": "0x1e2817de0000000000000000000000009ed4f4724b521326a9d9d2420252440bd05556c4000000000000000000000000d1620dac6d79be34f8500756b47cf91b1fa5cc8c00000000000000000000000000000000000000000000000000000000000001f400000000000000000000000000000000000000000000000000000000000000050000000000000000000000007e0c07eeabb2459d70dba5b8d100dca44c652ac00000000000000000000000000000000000000000000000000000000000000001000000000000000000000000000000000000000000000000000000010ca19ce000000000000000000000000000000000000000000000000000000001000276a4",
        "nonce": "0x9a2",
        "chainId": "0x1"
      },
      "additionalContracts": [],
      "isFixedGasLimit": false
    },
    {
      "hash": "0x07d2370fe2c96ba2abf839c8edd6cd73aca276722b69a5abd7fb8b47943c6706",
      "transactionType": "CALL",
      "contractName": null,
      "contractAddress": "0xd1620dac6d79be34f8500756b47cf91b1fa5cc8c",
      "function": "transfer(address,uint256)",
      "arguments": [
        "0x636c8D1011678625BFBB95fF608BF12c4314946F",
        "4506885344"
      ],
      "transaction": {
        "from": "0x3c44cdddb6a900fa2b585dd299e03d12fa4293bc",
        "to": "0xd1620dac6d79be34f8500756b47cf91b1fa5cc8c",
        "value": "0x0",
        "input": "0xa9059cbb000000000000000000000000636c8d1011678625bfbb95ff608bf12c4314946f000000000000000000000000000000000000000000000000000000010ca19ce0",
        "nonce": "0x9a3",
        "chainId": "0x1"
      },
      "additionalContracts": [],
      "isFixedGasLimit": false
    },
    {
      "hash": "0xb49b589a1ddbb79b737d66b29d48f293f483fb25630845b1eec51ff7843d6e74",
      "transactionType": "CALL",
      "contractName": null,
      "contractAddress": "0x636c8d1011678625bfbb95ff608bf12c4314946f",
      "function": "modifyPosition(bytes32,int256,int256)",
      "arguments": [
        "0x5b171c28fb0eebf8c4f6bebf3f5a0f12611acb1d4a0734c51fbae996b6e9dfdf",
        "4506885344",
        "0"
      ],
      "transaction": {
        "from": "0x3c44cdddb6a900fa2b585dd299e03d12fa4293bc",
        "to": "0x636c8d1011678625bfbb95ff608bf12c4314946f",
        "value": "0x0",
        "input": "0x1b89f3d45b171c28fb0eebf8c4f6bebf3f5a0f12611acb1d4a0734c51fbae996b6e9dfdf000000000000000000000000000000000000000000000000000000010ca19ce00000000000000000000000000000000000000000000000000000000000000000",
        "nonce": "0x9a4",
        "chainId": "0x1"
      },
      "additionalContracts": [],
      "isFixedGasLimit": false
    }
  ],
  "receipts": [
    {
      "status": "0x1",
      "cumulativeGasUsed": "0x972e3",
      "logs": [],
      "logsBloom": "0x00000000000000000000000000000000000000000000000000000000000000000000000000000000000000000000000000000000000000000000000000000000000000000000000000000000000000000000000000000000000000000000000000000000000000000000000000000000000000000000000000000000000000000000000000000000000000000000000000000000000000000000000000000000000000000000000000000000000000000000000000000000000000000000000000000000000000000000000000000000000000000000000000000000000000000000000000000000000000000000000000000000000000000000000000000000",
      "type": "0x2",
      "transactionHash": "0xfaf0824601955e022b74b51b69d2f14bb11eb063ee91e58b968d48745c487f29",
      "transactionIndex": "0x0",
      "blockHash": "0x887d89a59b5a4c7e04b09324c87f0e95121683b9d7d6c0053350f0196db2c4f2",
      "blockNumber": "0x173c175",
      "gasUsed": "0x972e3",
      "effectiveGasPrice": "0x2088bb",
      "blobGasPrice": "0x1",
      "from": "0x3c44cdddb6a900fa2b585dd299e03d12fa4293bc",
      "to": null,
      "contractAddress": "0xde37b79c9cfbc7514caf00ea404752931a3591e6"
    },
    {
      "status": "0x1",
      "cumulativeGasUsed": "0xb4b3",
      "logs": [
        {
          "address": "0xd1620dac6d79be34f8500756b47cf91b1fa5cc8c",
          "topics": [
            "0x8c5be1e5ebec7d5bd14f71427d1e84f3dd0314c0f7b2291e5b200ac8c7c3b925",
            "0x0000000000000000000000003c44cdddb6a900fa2b585dd299e03d12fa4293bc",
            "0x000000000000000000000000de37b79c9cfbc7514caf00ea404752931a3591e6"
          ],
          "data": "0xffffffffffffffffffffffffffffffffffffffffffffffffffffffffffffffff",
          "blockHash": "0x8981c39fb28370e162c18a96c1c1411c4f203709ba79b0e600cce940ab833c96",
          "blockNumber": "0x173c176",
          "blockTimestamp": "0x697fd99e",
          "transactionHash": "0xef81cf43b0a1ec9e2d9d402d86f9baa4fde6da43ae5e62cb439a65c09e0251ee",
          "transactionIndex": "0x0",
          "logIndex": "0x0",
          "removed": false
        }
      ],
      "logsBloom": "0x00000000000000008000000000000000000000000000000000000000000000000000000000000000000000000000000000000000000000000000000000300002000000000000000000000000000000000000000000000000000000004010000000000000000000000000000000000000000800000000000000000000000000000000002000000000000000000000000000000000000000000000000000000000020000000000200000000000100000000000000000000000000000000000000000000000000000000000000000000000000000000000000000000000000000000010000000000000000000000000000000000000000000000000000000000000",
      "type": "0x2",
      "transactionHash": "0xef81cf43b0a1ec9e2d9d402d86f9baa4fde6da43ae5e62cb439a65c09e0251ee",
      "transactionIndex": "0x0",
      "blockHash": "0x8981c39fb28370e162c18a96c1c1411c4f203709ba79b0e600cce940ab833c96",
      "blockNumber": "0x173c176",
      "gasUsed": "0xb4b3",
      "effectiveGasPrice": "0x1c8dd9",
      "blobGasPrice": "0x1",
      "from": "0x3c44cdddb6a900fa2b585dd299e03d12fa4293bc",
      "to": "0xd1620dac6d79be34f8500756b47cf91b1fa5cc8c",
      "contractAddress": null
    },
    {
      "status": "0x1",
      "cumulativeGasUsed": "0xb49d",
      "logs": [
        {
          "address": "0x9ed4f4724b521326a9d9d2420252440bd05556c4",
          "topics": [
            "0x8c5be1e5ebec7d5bd14f71427d1e84f3dd0314c0f7b2291e5b200ac8c7c3b925",
            "0x0000000000000000000000003c44cdddb6a900fa2b585dd299e03d12fa4293bc",
            "0x000000000000000000000000de37b79c9cfbc7514caf00ea404752931a3591e6"
          ],
          "data": "0xffffffffffffffffffffffffffffffffffffffffffffffffffffffffffffffff",
          "blockHash": "0x1b4a96d76238f5377e75afda8eb66a4b20b23529e1befc8ce572a7d795f1a05e",
          "blockNumber": "0x173c177",
          "blockTimestamp": "0x697fd99e",
          "transactionHash": "0x1bd32c2becb22020d27be868d2f941fc6cdf4a7e7ac514a3129bd9e7bef0bbbb",
          "transactionIndex": "0x0",
          "logIndex": "0x0",
          "removed": false
        }
      ],
      "logsBloom": "0x00000000004000000004000000000000000000000000000000000000000000000000000000000000000000000000000000000000000000000000000000300002000000000000000000000000000000000000000000000000000000000010000000000000000000000000000000000000000800000000000000000000000000000000020000000000000000000000000000000000000000000000000000000000020000000000200000000000100000000000000000000000000000000000000000000000000000000000000000000000000000000000000000000000000000000010000000000000000000000000000000000000000000000000000000000000",
      "type": "0x2",
      "transactionHash": "0x1bd32c2becb22020d27be868d2f941fc6cdf4a7e7ac514a3129bd9e7bef0bbbb",
      "transactionIndex": "0x0",
      "blockHash": "0x1b4a96d76238f5377e75afda8eb66a4b20b23529e1befc8ce572a7d795f1a05e",
      "blockNumber": "0x173c177",
      "gasUsed": "0xb49d",
      "effectiveGasPrice": "0x18fe42",
      "blobGasPrice": "0x1",
      "from": "0x3c44cdddb6a900fa2b585dd299e03d12fa4293bc",
      "to": "0x9ed4f4724b521326a9d9d2420252440bd05556c4",
      "contractAddress": null
    },
    {
      "status": "0x1",
      "cumulativeGasUsed": "0x66c7",
      "logs": [
        {
          "address": "0xd1620dac6d79be34f8500756b47cf91b1fa5cc8c",
          "topics": [
            "0x8c5be1e5ebec7d5bd14f71427d1e84f3dd0314c0f7b2291e5b200ac8c7c3b925",
            "0x0000000000000000000000003c44cdddb6a900fa2b585dd299e03d12fa4293bc",
            "0x000000000000000000000000000000000004444c5dc75cb358380d2e3de08a90"
          ],
          "data": "0xffffffffffffffffffffffffffffffffffffffffffffffffffffffffffffffff",
          "blockHash": "0x451fb6c7cb0864a080771bc4c92a18b93d7fd0a72de0032c93a81a96db5f1307",
          "blockNumber": "0x173c178",
          "blockTimestamp": "0x697fd99e",
          "transactionHash": "0x1837e965ac4b9b7a37b8a2011fe55ffd9cced9e199df5040f0d942503b01401a",
          "transactionIndex": "0x0",
          "logIndex": "0x0",
          "removed": false
        }
      ],
      "logsBloom": "0x00000000000000008000000000000000000000000000000000000000000000000000000000000000001000000000000000000000000000000000000000300000000000000000000000000000000000000000000000000000000000004000000000000000000000000000000000000000000800000000000000000000000000000000002800000000000000000000000000000000000000000000000000000000020000000000200000000000000000000000000000000000000000000000000000000000000000000000000000000000000000400000000000000000000000000010000000000000000000000000000000000000000000000000000000000000",
      "type": "0x2",
      "transactionHash": "0x1837e965ac4b9b7a37b8a2011fe55ffd9cced9e199df5040f0d942503b01401a",
      "transactionIndex": "0x0",
      "blockHash": "0x451fb6c7cb0864a080771bc4c92a18b93d7fd0a72de0032c93a81a96db5f1307",
      "blockNumber": "0x173c178",
      "gasUsed": "0x66c7",
      "effectiveGasPrice": "0x15e071",
      "blobGasPrice": "0x1",
      "from": "0x3c44cdddb6a900fa2b585dd299e03d12fa4293bc",
      "to": "0xd1620dac6d79be34f8500756b47cf91b1fa5cc8c",
      "contractAddress": null
    },
    {
      "status": "0x1",
      "cumulativeGasUsed": "0x66b1",
      "logs": [
        {
          "address": "0x9ed4f4724b521326a9d9d2420252440bd05556c4",
          "topics": [
            "0x8c5be1e5ebec7d5bd14f71427d1e84f3dd0314c0f7b2291e5b200ac8c7c3b925",
            "0x0000000000000000000000003c44cdddb6a900fa2b585dd299e03d12fa4293bc",
            "0x000000000000000000000000000000000004444c5dc75cb358380d2e3de08a90"
          ],
          "data": "0xffffffffffffffffffffffffffffffffffffffffffffffffffffffffffffffff",
          "blockHash": "0x73ad681050947e28f3f4952315a42eb555c29cf43d6ef54ddb36351659bcc985",
          "blockNumber": "0x173c179",
          "blockTimestamp": "0x697fd99e",
          "transactionHash": "0xa741407713b92deaaaa28e2566147c28b7794e6a6cb2be8d16b1a8d99210696d",
          "transactionIndex": "0x0",
          "logIndex": "0x0",
          "removed": false
        }
      ],
      "logsBloom": "0x00000000004000000004000000000000000000000000000000000000000000000000000000000000001000000000000000000000000000000000000000300000000000000000000000000000000000000000000000000000000000000000000000000000000000000000000000000000000800000000000000000000000000000000020800000000000000000000000000000000000000000000000000000000020000000000200000000000000000000000000000000000000000000000000000000000000000000000000000000000000000400000000000000000000000000010000000000000000000000000000000000000000000000000000000000000",
      "type": "0x2",
      "transactionHash": "0xa741407713b92deaaaa28e2566147c28b7794e6a6cb2be8d16b1a8d99210696d",
      "transactionIndex": "0x0",
      "blockHash": "0x73ad681050947e28f3f4952315a42eb555c29cf43d6ef54ddb36351659bcc985",
      "blockNumber": "0x173c179",
      "gasUsed": "0x66b1",
      "effectiveGasPrice": "0x1325bc",
      "blobGasPrice": "0x1",
      "from": "0x3c44cdddb6a900fa2b585dd299e03d12fa4293bc",
      "to": "0x9ed4f4724b521326a9d9d2420252440bd05556c4",
      "contractAddress": null
    },
    {
      "status": "0x1",
      "cumulativeGasUsed": "0x4fbfb",
      "logs": [
        {
          "address": "0x9554b52516f306360a239746f70f88c23d187b63",
          "topics": [
            "0xddf252ad1be2c89b69c2b068fc378daa952ba7f163c4a11628f55a4df523b3ef",
            "0x0000000000000000000000000000000000000000000000000000000000000000",
            "0x0000000000000000000000003c44cdddb6a900fa2b585dd299e03d12fa4293bc",
            "0x000000000000000000000000636c8d1011678625bfbb95ff608bf12c4314946f"
          ],
          "data": "0x",
          "blockHash": "0x076ac1b88e1e366622b387f7b06feb57b6e3937db581de6d81d009c5a61eb9de",
          "blockNumber": "0x173c17a",
          "blockTimestamp": "0x697fd99e",
          "transactionHash": "0xbefdb23e06da51f0b4350a997dc21a4e83277aad501cda62ba5c0c633df460ac",
          "transactionIndex": "0x0",
          "logIndex": "0x0",
          "removed": false
        },
        {
          "address": "0x9554b52516f306360a239746f70f88c23d187b63",
          "topics": [
            "0xc418c83b1622e1e32aac5d6d2848134a7e89eb8e96c8514afd1757d25ee5ef71",
            "0x000000000000000000000000636c8d1011678625bfbb95ff608bf12c4314946f",
            "0x0000000000000000000000003c44cdddb6a900fa2b585dd299e03d12fa4293bc"
          ],
          "data": "0x000000000000000000000000636c8d1011678625bfbb95ff608bf12c4314946f",
          "blockHash": "0x076ac1b88e1e366622b387f7b06feb57b6e3937db581de6d81d009c5a61eb9de",
          "blockNumber": "0x173c17a",
          "blockTimestamp": "0x697fd99e",
          "transactionHash": "0xbefdb23e06da51f0b4350a997dc21a4e83277aad501cda62ba5c0c633df460ac",
          "transactionIndex": "0x0",
          "logIndex": "0x1",
          "removed": false
        }
      ],
      "logsBloom": "0x00000000000000000000100020000000000000000000000000000000000000000000000000000000000000000000000000000200000000000000400000100000000000000000000000000008000100000000000000000100008000000000000000000000020000000000000000008800000800000000000000000010000000000000000000000000000000000000040000000000000000000000000000000000000000000000200000000000000000000000000000000000000000000000000000000002000000000000000000000000000000000000000000000000000020000000000000000000000000000000000000000000000000000000000000000000",
      "type": "0x2",
      "transactionHash": "0xbefdb23e06da51f0b4350a997dc21a4e83277aad501cda62ba5c0c633df460ac",
      "transactionIndex": "0x0",
      "blockHash": "0x076ac1b88e1e366622b387f7b06feb57b6e3937db581de6d81d009c5a61eb9de",
      "blockNumber": "0x173c17a",
      "gasUsed": "0x4fbfb",
      "effectiveGasPrice": "0x10c24a",
      "blobGasPrice": "0x1",
      "from": "0x3c44cdddb6a900fa2b585dd299e03d12fa4293bc",
      "to": "0x9554b52516f306360a239746f70f88c23d187b63",
      "contractAddress": null
    },
    {
      "status": "0x1",
      "cumulativeGasUsed": "0xb5a1",
      "logs": [
        {
          "address": "0xd1620dac6d79be34f8500756b47cf91b1fa5cc8c",
          "topics": [
            "0xddf252ad1be2c89b69c2b068fc378daa952ba7f163c4a11628f55a4df523b3ef",
            "0x0000000000000000000000003c44cdddb6a900fa2b585dd299e03d12fa4293bc",
            "0x000000000000000000000000636c8d1011678625bfbb95ff608bf12c4314946f"
          ],
          "data": "0x0000000000000000000000000000000000000000000000000000000ba42e4717",
          "blockHash": "0xa3f7059b540c0358cbb3bd48c90adf86e0490d967a3bc46e4ee35546c55c4dea",
          "blockNumber": "0x173c17b",
          "blockTimestamp": "0x697fd99e",
          "transactionHash": "0xac2abbb4474e1a0f01f3fcef50c80eab7eebedb1fa308b58f59d631bcec66bd6",
          "transactionIndex": "0x0",
          "logIndex": "0x0",
          "removed": false
        }
      ],
      "logsBloom": "0x00000000000000008000000000000000000000000000000000000000000000000000000000000000000000000000000000000000000000000000400000100000000000000000000000000008000100000000000000000000000000004000000000000000000000000000000000000000000800000000000000000010000000000000002000000000000000000000040000000000000000000000000000000000000000000000200000000000000000000000000000000000000000000000000000000002000000000000000000000000000000000000000000000000000000000000000000000000000000000000000000000000000000000000000000000000",
      "type": "0x2",
      "transactionHash": "0xac2abbb4474e1a0f01f3fcef50c80eab7eebedb1fa308b58f59d631bcec66bd6",
      "transactionIndex": "0x0",
      "blockHash": "0xa3f7059b540c0358cbb3bd48c90adf86e0490d967a3bc46e4ee35546c55c4dea",
      "blockNumber": "0x173c17b",
      "gasUsed": "0xb5a1",
      "effectiveGasPrice": "0xeb092",
      "blobGasPrice": "0x1",
      "from": "0x3c44cdddb6a900fa2b585dd299e03d12fa4293bc",
      "to": "0xd1620dac6d79be34f8500756b47cf91b1fa5cc8c",
      "contractAddress": null
    },
    {
      "status": "0x1",
      "cumulativeGasUsed": "0x50bc9",
      "logs": [
        {
          "address": "0x9ed4f4724b521326a9d9d2420252440bd05556c4",
          "topics": [
            "0xddf252ad1be2c89b69c2b068fc378daa952ba7f163c4a11628f55a4df523b3ef",
            "0x0000000000000000000000000000000000000000000000000000000000000000",
            "0x000000000000000000000000636c8d1011678625bfbb95ff608bf12c4314946f"
          ],
          "data": "0x00000000000000000000000000000000000000000000000000000000ee6a1a2a",
          "blockHash": "0x0045f5db6bf23fef50336a4b682d89730afd95adbff1ddd7acb4ee2aba97fe2f",
          "blockNumber": "0x173c17c",
          "blockTimestamp": "0x697fd99e",
          "transactionHash": "0x048c234ebf8057dc41b16018fa74a87f3cea8146f100f51523a563a494667e5e",
          "transactionIndex": "0x0",
          "logIndex": "0x0",
          "removed": false
        },
        {
          "address": "0x766542304e16e3585d569705b0eff4756efa6cac",
          "topics": [
            "0x343ef6bfd54be4f7cb6918335f3d2788a88dfadfc586a5c32c67c2f3b61c6338",
            "0x5b171c28fb0eebf8c4f6bebf3f5a0f12611acb1d4a0734c51fbae996b6e9dfdf",
            "0x000000000000000000000000636c8d1011678625bfbb95ff608bf12c4314946f"
          ],
          "data": "0x0000000000000000000000000000000000000000000000000000000ba42e471700000000000000000000000000000000000000000000000000000000ee6a1a2a",
          "blockHash": "0x0045f5db6bf23fef50336a4b682d89730afd95adbff1ddd7acb4ee2aba97fe2f",
          "blockNumber": "0x173c17c",
          "blockTimestamp": "0x697fd99e",
          "transactionHash": "0x048c234ebf8057dc41b16018fa74a87f3cea8146f100f51523a563a494667e5e",
          "transactionIndex": "0x0",
          "logIndex": "0x1",
          "removed": false
        },
        {
          "address": "0xd1620dac6d79be34f8500756b47cf91b1fa5cc8c",
          "topics": [
            "0x8c5be1e5ebec7d5bd14f71427d1e84f3dd0314c0f7b2291e5b200ac8c7c3b925",
            "0x000000000000000000000000636c8d1011678625bfbb95ff608bf12c4314946f",
            "0x000000000000000000000000766542304e16e3585d569705b0eff4756efa6cac"
          ],
          "data": "0x0000000000000000000000000000000000000000000000000000000ba42e4717",
          "blockHash": "0x0045f5db6bf23fef50336a4b682d89730afd95adbff1ddd7acb4ee2aba97fe2f",
          "blockNumber": "0x173c17c",
          "blockTimestamp": "0x697fd99e",
          "transactionHash": "0x048c234ebf8057dc41b16018fa74a87f3cea8146f100f51523a563a494667e5e",
          "transactionIndex": "0x0",
          "logIndex": "0x2",
          "removed": false
        }
      ],
      "logsBloom": "0x00000000004000008004000000000000000000000000080000000000000000000000000000000000400000100000000000000000000000080000400000200000000000000000000000000008000100080000000000000000000000004000000000000000024000000000000000000800000000000000000000000010000000000000022000000000000000000000040000000000000000000000000000000002020000000000000000000100000000000000000000000000000000000000000000000002000000000000000000000000008000000000000000000010000020100010000000010000000000000000000000000000000000000000000000000000",
      "type": "0x2",
      "transactionHash": "0x048c234ebf8057dc41b16018fa74a87f3cea8146f100f51523a563a494667e5e",
      "transactionIndex": "0x0",
      "blockHash": "0x0045f5db6bf23fef50336a4b682d89730afd95adbff1ddd7acb4ee2aba97fe2f",
      "blockNumber": "0x173c17c",
      "gasUsed": "0x50bc9",
      "effectiveGasPrice": "0xcdbf6",
      "blobGasPrice": "0x1",
      "from": "0x3c44cdddb6a900fa2b585dd299e03d12fa4293bc",
      "to": "0x636c8d1011678625bfbb95ff608bf12c4314946f",
      "contractAddress": null
    },
    {
      "status": "0x1",
      "cumulativeGasUsed": "0x21cf3",
      "logs": [
        {
          "address": "0x9ed4f4724b521326a9d9d2420252440bd05556c4",
          "topics": [
            "0xddf252ad1be2c89b69c2b068fc378daa952ba7f163c4a11628f55a4df523b3ef",
            "0x000000000000000000000000636c8d1011678625bfbb95ff608bf12c4314946f",
            "0x0000000000000000000000003c44cdddb6a900fa2b585dd299e03d12fa4293bc"
          ],
          "data": "0x00000000000000000000000000000000000000000000000000000000ee6a1a2a",
          "blockHash": "0xda78607b5c943794370f4c727427fb670d7ab419978ae44615de2928be11b6a9",
          "blockNumber": "0x173c17d",
          "blockTimestamp": "0x697fd99e",
          "transactionHash": "0x53de9c43e1ff3bae1e6e48ccb47d1b24d6df1921ecca26e4ab4a4138e08fd4c1",
          "transactionIndex": "0x0",
          "logIndex": "0x0",
          "removed": false
        }
      ],
      "logsBloom": "0x00000000004000000004000000000000000000000000000000000000000000000000000000000000000000000000000000000000000000000000400000100000000000000000000000000008000100000000000000000000000000000000000000000000000000000000000000000000000800000000000000000010000000000000020000000000000000000000040000000000000000000000000000000000000000000000200000000000000000000000000000000000000000000000000000000002000000000000000000000000000000000000000000000000000000000000000000000000000000000000000000000000000000000000000000000000",
      "type": "0x2",
      "transactionHash": "0x53de9c43e1ff3bae1e6e48ccb47d1b24d6df1921ecca26e4ab4a4138e08fd4c1",
      "transactionIndex": "0x0",
      "blockHash": "0xda78607b5c943794370f4c727427fb670d7ab419978ae44615de2928be11b6a9",
      "blockNumber": "0x173c17d",
      "gasUsed": "0x21cf3",
      "effectiveGasPrice": "0xb45ba",
      "blobGasPrice": "0x1",
      "from": "0x3c44cdddb6a900fa2b585dd299e03d12fa4293bc",
      "to": "0x636c8d1011678625bfbb95ff608bf12c4314946f",
      "contractAddress": null
    },
    {
      "status": "0x1",
      "cumulativeGasUsed": "0x26fba",
      "logs": [
        {
          "address": "0x000000000004444c5dc75cb358380d2e3de08a90",
          "topics": [
            "0x40e9cecb9f5f1f1c5b9c97dec2917b7ee92e57ba5563708daca94dd84ad7112f",
            "0x3509745444ed1275bf3cc6196dcab60943ac6b87c5b249d3e64fa8e35e5b5f69",
            "0x000000000000000000000000de37b79c9cfbc7514caf00ea404752931a3591e6"
          ],
          "data": "0xffffffffffffffffffffffffffffffffffffffffffffffffffffffffa8fdaecd00000000000000000000000000000000000000000000000000000001791110b400000000000000000000000000000000000000020ed49421b1ae0615fdb2c1690000000000000000000000000000000000000000000000000000001e1717e9e3000000000000000000000000000000000000000000000000000000000000386200000000000000000000000000000000000000000000000000000000000001f4",
          "blockHash": "0xee83149c3b163862a5f655897b1c32f48cccdf3d08c62e7dd6a71e81341facc3",
          "blockNumber": "0x173c17e",
          "blockTimestamp": "0x697fd99e",
          "transactionHash": "0x1849cc8d0271ada3f67995e6f621b95ad92889978aec2a6ecab2d69abf513060",
          "transactionIndex": "0x0",
          "logIndex": "0x0",
          "removed": false
        },
        {
          "address": "0x9ed4f4724b521326a9d9d2420252440bd05556c4",
          "topics": [
            "0xddf252ad1be2c89b69c2b068fc378daa952ba7f163c4a11628f55a4df523b3ef",
            "0x0000000000000000000000003c44cdddb6a900fa2b585dd299e03d12fa4293bc",
            "0x000000000000000000000000000000000004444c5dc75cb358380d2e3de08a90"
          ],
          "data": "0x0000000000000000000000000000000000000000000000000000000057025133",
          "blockHash": "0xee83149c3b163862a5f655897b1c32f48cccdf3d08c62e7dd6a71e81341facc3",
          "blockNumber": "0x173c17e",
          "blockTimestamp": "0x697fd99e",
          "transactionHash": "0x1849cc8d0271ada3f67995e6f621b95ad92889978aec2a6ecab2d69abf513060",
          "transactionIndex": "0x0",
          "logIndex": "0x1",
          "removed": false
        },
        {
          "address": "0xd1620dac6d79be34f8500756b47cf91b1fa5cc8c",
          "topics": [
            "0xddf252ad1be2c89b69c2b068fc378daa952ba7f163c4a11628f55a4df523b3ef",
            "0x000000000000000000000000000000000004444c5dc75cb358380d2e3de08a90",
            "0x0000000000000000000000003c44cdddb6a900fa2b585dd299e03d12fa4293bc"
          ],
          "data": "0x00000000000000000000000000000000000000000000000000000001791110b4",
          "blockHash": "0xee83149c3b163862a5f655897b1c32f48cccdf3d08c62e7dd6a71e81341facc3",
          "blockNumber": "0x173c17e",
          "blockTimestamp": "0x697fd99e",
          "transactionHash": "0x1849cc8d0271ada3f67995e6f621b95ad92889978aec2a6ecab2d69abf513060",
          "transactionIndex": "0x0",
          "logIndex": "0x2",
          "removed": false
        }
      ],
      "logsBloom": "0x00000000004000008004000000000000000000000000000000000000000000000000000020000000001000000000000000000000040000000000000000108002000000000000000000000008000000000000000000000020000000004010000000000000000000008000000000000000000800000000000000000010000000000000022800000000000000000000000000000000000000000000000000000000000000000000200000000000100000000000000000000000000000000000000000000802000000000000000000000000000000400000000000000000000000000000000000000000004000000000000000000100000000000000000000000000",
      "type": "0x2",
      "transactionHash": "0x1849cc8d0271ada3f67995e6f621b95ad92889978aec2a6ecab2d69abf513060",
      "transactionIndex": "0x0",
      "blockHash": "0xee83149c3b163862a5f655897b1c32f48cccdf3d08c62e7dd6a71e81341facc3",
      "blockNumber": "0x173c17e",
      "gasUsed": "0x26fba",
      "effectiveGasPrice": "0x9df68",
      "blobGasPrice": "0x1",
      "from": "0x3c44cdddb6a900fa2b585dd299e03d12fa4293bc",
      "to": "0xde37b79c9cfbc7514caf00ea404752931a3591e6",
      "contractAddress": null
    },
    {
      "status": "0x1",
      "cumulativeGasUsed": "0x72d5",
      "logs": [
        {
          "address": "0xd1620dac6d79be34f8500756b47cf91b1fa5cc8c",
          "topics": [
            "0xddf252ad1be2c89b69c2b068fc378daa952ba7f163c4a11628f55a4df523b3ef",
            "0x0000000000000000000000003c44cdddb6a900fa2b585dd299e03d12fa4293bc",
            "0x000000000000000000000000636c8d1011678625bfbb95ff608bf12c4314946f"
          ],
          "data": "0x00000000000000000000000000000000000000000000000000000001791110b4",
          "blockHash": "0x58f9855564cddfddbf4dcf260c00054004e464bc6be5705d0355dd020a68c577",
          "blockNumber": "0x173c17f",
          "blockTimestamp": "0x697fd99e",
          "transactionHash": "0xe42a6edb30f4ea55d1cd1a11f4641e674d127551a9a58efe157b1c67687213da",
          "transactionIndex": "0x0",
          "logIndex": "0x0",
          "removed": false
        }
      ],
      "logsBloom": "0x00000000000000008000000000000000000000000000000000000000000000000000000000000000000000000000000000000000000000000000400000100000000000000000000000000008000100000000000000000000000000004000000000000000000000000000000000000000000800000000000000000010000000000000002000000000000000000000040000000000000000000000000000000000000000000000200000000000000000000000000000000000000000000000000000000002000000000000000000000000000000000000000000000000000000000000000000000000000000000000000000000000000000000000000000000000",
      "type": "0x2",
      "transactionHash": "0xe42a6edb30f4ea55d1cd1a11f4641e674d127551a9a58efe157b1c67687213da",
      "transactionIndex": "0x0",
      "blockHash": "0x58f9855564cddfddbf4dcf260c00054004e464bc6be5705d0355dd020a68c577",
      "blockNumber": "0x173c17f",
      "gasUsed": "0x72d5",
      "effectiveGasPrice": "0x8a5e4",
      "blobGasPrice": "0x1",
      "from": "0x3c44cdddb6a900fa2b585dd299e03d12fa4293bc",
      "to": "0xd1620dac6d79be34f8500756b47cf91b1fa5cc8c",
      "contractAddress": null
    },
    {
      "status": "0x1",
      "cumulativeGasUsed": "0x33b7b",
      "logs": [
        {
          "address": "0x9ed4f4724b521326a9d9d2420252440bd05556c4",
          "topics": [
            "0xddf252ad1be2c89b69c2b068fc378daa952ba7f163c4a11628f55a4df523b3ef",
            "0x0000000000000000000000000000000000000000000000000000000000000000",
            "0x000000000000000000000000636c8d1011678625bfbb95ff608bf12c4314946f"
          ],
          "data": "0x000000000000000000000000000000000000000000000000000000001e2a5341",
          "blockHash": "0x77a723093ce2fc98fbd4cbf13cc80e76050fe64b3fbde7eba8cda18c797c472e",
          "blockNumber": "0x173c180",
          "blockTimestamp": "0x697fd99e",
          "transactionHash": "0x2d8c338b68f47d13af25f3a630778efd42fa760e0051b4e98e1f688b0d916fcb",
          "transactionIndex": "0x0",
          "logIndex": "0x0",
          "removed": false
        },
        {
          "address": "0x766542304e16e3585d569705b0eff4756efa6cac",
          "topics": [
            "0x343ef6bfd54be4f7cb6918335f3d2788a88dfadfc586a5c32c67c2f3b61c6338",
            "0x5b171c28fb0eebf8c4f6bebf3f5a0f12611acb1d4a0734c51fbae996b6e9dfdf",
            "0x000000000000000000000000636c8d1011678625bfbb95ff608bf12c4314946f"
          ],
          "data": "0x00000000000000000000000000000000000000000000000000000001791110b4000000000000000000000000000000000000000000000000000000001e2a5341",
          "blockHash": "0x77a723093ce2fc98fbd4cbf13cc80e76050fe64b3fbde7eba8cda18c797c472e",
          "blockNumber": "0x173c180",
          "blockTimestamp": "0x697fd99e",
          "transactionHash": "0x2d8c338b68f47d13af25f3a630778efd42fa760e0051b4e98e1f688b0d916fcb",
          "transactionIndex": "0x0",
          "logIndex": "0x1",
          "removed": false
        },
        {
          "address": "0xd1620dac6d79be34f8500756b47cf91b1fa5cc8c",
          "topics": [
            "0x8c5be1e5ebec7d5bd14f71427d1e84f3dd0314c0f7b2291e5b200ac8c7c3b925",
            "0x000000000000000000000000636c8d1011678625bfbb95ff608bf12c4314946f",
            "0x000000000000000000000000766542304e16e3585d569705b0eff4756efa6cac"
          ],
          "data": "0x00000000000000000000000000000000000000000000000000000001791110b4",
          "blockHash": "0x77a723093ce2fc98fbd4cbf13cc80e76050fe64b3fbde7eba8cda18c797c472e",
          "blockNumber": "0x173c180",
          "blockTimestamp": "0x697fd99e",
          "transactionHash": "0x2d8c338b68f47d13af25f3a630778efd42fa760e0051b4e98e1f688b0d916fcb",
          "transactionIndex": "0x0",
          "logIndex": "0x2",
          "removed": false
        }
      ],
      "logsBloom": "0x00000000004000008004000000000000000000000000080000000000000000000000000000000000400000100000000000000000000000080000400000200000000000000000000000000008000100080000000000000000000000004000000000000000024000000000000000000800000000000000000000000010000000000000022000000000000000000000040000000000000000000000000000000002020000000000000000000100000000000000000000000000000000000000000000000002000000000000000000000000008000000000000000000010000020100010000000010000000000000000000000000000000000000000000000000000",
      "type": "0x2",
      "transactionHash": "0x2d8c338b68f47d13af25f3a630778efd42fa760e0051b4e98e1f688b0d916fcb",
      "transactionIndex": "0x0",
      "blockHash": "0x77a723093ce2fc98fbd4cbf13cc80e76050fe64b3fbde7eba8cda18c797c472e",
      "blockNumber": "0x173c180",
      "gasUsed": "0x33b7b",
      "effectiveGasPrice": "0x79229",
      "blobGasPrice": "0x1",
      "from": "0x3c44cdddb6a900fa2b585dd299e03d12fa4293bc",
      "to": "0x636c8d1011678625bfbb95ff608bf12c4314946f",
      "contractAddress": null
    },
    {
      "status": "0x1",
      "cumulativeGasUsed": "0x21cf3",
      "logs": [
        {
          "address": "0x9ed4f4724b521326a9d9d2420252440bd05556c4",
          "topics": [
            "0xddf252ad1be2c89b69c2b068fc378daa952ba7f163c4a11628f55a4df523b3ef",
            "0x000000000000000000000000636c8d1011678625bfbb95ff608bf12c4314946f",
            "0x0000000000000000000000003c44cdddb6a900fa2b585dd299e03d12fa4293bc"
          ],
          "data": "0x000000000000000000000000000000000000000000000000000000001e2a5341",
          "blockHash": "0x9ffda634e43a66760f0ece2a887f302879b7abf152d47ae8d7d319f61d15044d",
          "blockNumber": "0x173c181",
          "blockTimestamp": "0x697fd99e",
          "transactionHash": "0x942fade91207db6a963f8bc3aad2c4aa8c3c2a579db4d990b313e076f4939731",
          "transactionIndex": "0x0",
          "logIndex": "0x0",
          "removed": false
        }
      ],
      "logsBloom": "0x00000000004000000004000000000000000000000000000000000000000000000000000000000000000000000000000000000000000000000000400000100000000000000000000000000008000100000000000000000000000000000000000000000000000000000000000000000000000800000000000000000010000000000000020000000000000000000000040000000000000000000000000000000000000000000000200000000000000000000000000000000000000000000000000000000002000000000000000000000000000000000000000000000000000000000000000000000000000000000000000000000000000000000000000000000000",
      "type": "0x2",
      "transactionHash": "0x942fade91207db6a963f8bc3aad2c4aa8c3c2a579db4d990b313e076f4939731",
      "transactionIndex": "0x0",
      "blockHash": "0x9ffda634e43a66760f0ece2a887f302879b7abf152d47ae8d7d319f61d15044d",
      "blockNumber": "0x173c181",
      "gasUsed": "0x21cf3",
      "effectiveGasPrice": "0x6a254",
      "blobGasPrice": "0x1",
      "from": "0x3c44cdddb6a900fa2b585dd299e03d12fa4293bc",
      "to": "0x636c8d1011678625bfbb95ff608bf12c4314946f",
      "contractAddress": null
    },
    {
      "status": "0x1",
      "cumulativeGasUsed": "0x26531",
      "logs": [
        {
          "address": "0x000000000004444c5dc75cb358380d2e3de08a90",
          "topics": [
            "0x40e9cecb9f5f1f1c5b9c97dec2917b7ee92e57ba5563708daca94dd84ad7112f",
            "0x3509745444ed1275bf3cc6196dcab60943ac6b87c5b249d3e64fa8e35e5b5f69",
            "0x000000000000000000000000de37b79c9cfbc7514caf00ea404752931a3591e6"
          ],
          "data": "0xffffffffffffffffffffffffffffffffffffffffffffffffffffffffb2ca5fa900000000000000000000000000000000000000000000000000000001403912c200000000000000000000000000000000000000020430339c98b629707cda70460000000000000000000000000000000000000000000000000000001e1717e9e300000000000000000000000000000000000000000000000000000000000036ca00000000000000000000000000000000000000000000000000000000000001f4",
          "blockHash": "0x9c7694e77b7b8c0ae82e7d3de28f6317471d591c8b34f40f862392947f16afae",
          "blockNumber": "0x173c182",
          "blockTimestamp": "0x697fd99e",
          "transactionHash": "0x789d9f5a1d3ccdf99abf431b78c536638fc697a27d34be2cb54264f485dd2c56",
          "transactionIndex": "0x0",
          "logIndex": "0x0",
          "removed": false
        },
        {
          "address": "0x9ed4f4724b521326a9d9d2420252440bd05556c4",
          "topics": [
            "0xddf252ad1be2c89b69c2b068fc378daa952ba7f163c4a11628f55a4df523b3ef",
            "0x0000000000000000000000003c44cdddb6a900fa2b585dd299e03d12fa4293bc",
            "0x000000000000000000000000000000000004444c5dc75cb358380d2e3de08a90"
          ],
          "data": "0x000000000000000000000000000000000000000000000000000000004d35a057",
          "blockHash": "0x9c7694e77b7b8c0ae82e7d3de28f6317471d591c8b34f40f862392947f16afae",
          "blockNumber": "0x173c182",
          "blockTimestamp": "0x697fd99e",
          "transactionHash": "0x789d9f5a1d3ccdf99abf431b78c536638fc697a27d34be2cb54264f485dd2c56",
          "transactionIndex": "0x0",
          "logIndex": "0x1",
          "removed": false
        },
        {
          "address": "0xd1620dac6d79be34f8500756b47cf91b1fa5cc8c",
          "topics": [
            "0xddf252ad1be2c89b69c2b068fc378daa952ba7f163c4a11628f55a4df523b3ef",
            "0x000000000000000000000000000000000004444c5dc75cb358380d2e3de08a90",
            "0x0000000000000000000000003c44cdddb6a900fa2b585dd299e03d12fa4293bc"
          ],
          "data": "0x00000000000000000000000000000000000000000000000000000001403912c2",
          "blockHash": "0x9c7694e77b7b8c0ae82e7d3de28f6317471d591c8b34f40f862392947f16afae",
          "blockNumber": "0x173c182",
          "blockTimestamp": "0x697fd99e",
          "transactionHash": "0x789d9f5a1d3ccdf99abf431b78c536638fc697a27d34be2cb54264f485dd2c56",
          "transactionIndex": "0x0",
          "logIndex": "0x2",
          "removed": false
        }
      ],
      "logsBloom": "0x00000000004000008004000000000000000000000000000000000000000000000000000020000000001000000000000000000000040000000000000000108002000000000000000000000008000000000000000000000020000000004010000000000000000000008000000000000000000800000000000000000010000000000000022800000000000000000000000000000000000000000000000000000000000000000000200000000000100000000000000000000000000000000000000000000802000000000000000000000000000000400000000000000000000000000000000000000000004000000000000000000100000000000000000000000000",
      "type": "0x2",
      "transactionHash": "0x789d9f5a1d3ccdf99abf431b78c536638fc697a27d34be2cb54264f485dd2c56",
      "transactionIndex": "0x0",
      "blockHash": "0x9c7694e77b7b8c0ae82e7d3de28f6317471d591c8b34f40f862392947f16afae",
      "blockNumber": "0x173c182",
      "gasUsed": "0x26531",
      "effectiveGasPrice": "0x5cfc0",
      "blobGasPrice": "0x1",
      "from": "0x3c44cdddb6a900fa2b585dd299e03d12fa4293bc",
      "to": "0xde37b79c9cfbc7514caf00ea404752931a3591e6",
      "contractAddress": null
    },
    {
      "status": "0x1",
      "cumulativeGasUsed": "0x72d5",
      "logs": [
        {
          "address": "0xd1620dac6d79be34f8500756b47cf91b1fa5cc8c",
          "topics": [
            "0xddf252ad1be2c89b69c2b068fc378daa952ba7f163c4a11628f55a4df523b3ef",
            "0x0000000000000000000000003c44cdddb6a900fa2b585dd299e03d12fa4293bc",
            "0x000000000000000000000000636c8d1011678625bfbb95ff608bf12c4314946f"
          ],
          "data": "0x00000000000000000000000000000000000000000000000000000001403912c2",
          "blockHash": "0x7092e3b9faab30bfb7973f43c265cf801db9496a63f6e2f82bdc72a2e74105bf",
          "blockNumber": "0x173c183",
          "blockTimestamp": "0x697fd99e",
          "transactionHash": "0xd47dae97fa5e90620a89d440ed02d62c2e1e2b2b131adc5a7c6bcf3ea3d1238b",
          "transactionIndex": "0x0",
          "logIndex": "0x0",
          "removed": false
        }
      ],
      "logsBloom": "0x00000000000000008000000000000000000000000000000000000000000000000000000000000000000000000000000000000000000000000000400000100000000000000000000000000008000100000000000000000000000000004000000000000000000000000000000000000000000800000000000000000010000000000000002000000000000000000000040000000000000000000000000000000000000000000000200000000000000000000000000000000000000000000000000000000002000000000000000000000000000000000000000000000000000000000000000000000000000000000000000000000000000000000000000000000000",
      "type": "0x2",
      "transactionHash": "0xd47dae97fa5e90620a89d440ed02d62c2e1e2b2b131adc5a7c6bcf3ea3d1238b",
      "transactionIndex": "0x0",
      "blockHash": "0x7092e3b9faab30bfb7973f43c265cf801db9496a63f6e2f82bdc72a2e74105bf",
      "blockNumber": "0x173c183",
      "gasUsed": "0x72d5",
      "effectiveGasPrice": "0x5177c",
      "blobGasPrice": "0x1",
      "from": "0x3c44cdddb6a900fa2b585dd299e03d12fa4293bc",
      "to": "0xd1620dac6d79be34f8500756b47cf91b1fa5cc8c",
      "contractAddress": null
    },
    {
      "status": "0x1",
      "cumulativeGasUsed": "0x33b7b",
      "logs": [
        {
          "address": "0x9ed4f4724b521326a9d9d2420252440bd05556c4",
          "topics": [
            "0xddf252ad1be2c89b69c2b068fc378daa952ba7f163c4a11628f55a4df523b3ef",
            "0x0000000000000000000000000000000000000000000000000000000000000000",
            "0x000000000000000000000000636c8d1011678625bfbb95ff608bf12c4314946f"
          ],
          "data": "0x00000000000000000000000000000000000000000000000000000000199e2a75",
          "blockHash": "0xe0a9b01abfe5fc39ec6e9ebd4adbfcad12c0484876fd3a99de95811b88158168",
          "blockNumber": "0x173c184",
          "blockTimestamp": "0x697fd99e",
          "transactionHash": "0xaa5552ccd503ea3868927c27f54c83a3e99a44ca671cea043df5baefb210363c",
          "transactionIndex": "0x0",
          "logIndex": "0x0",
          "removed": false
        },
        {
          "address": "0x766542304e16e3585d569705b0eff4756efa6cac",
          "topics": [
            "0x343ef6bfd54be4f7cb6918335f3d2788a88dfadfc586a5c32c67c2f3b61c6338",
            "0x5b171c28fb0eebf8c4f6bebf3f5a0f12611acb1d4a0734c51fbae996b6e9dfdf",
            "0x000000000000000000000000636c8d1011678625bfbb95ff608bf12c4314946f"
          ],
          "data": "0x00000000000000000000000000000000000000000000000000000001403912c200000000000000000000000000000000000000000000000000000000199e2a75",
          "blockHash": "0xe0a9b01abfe5fc39ec6e9ebd4adbfcad12c0484876fd3a99de95811b88158168",
          "blockNumber": "0x173c184",
          "blockTimestamp": "0x697fd99e",
          "transactionHash": "0xaa5552ccd503ea3868927c27f54c83a3e99a44ca671cea043df5baefb210363c",
          "transactionIndex": "0x0",
          "logIndex": "0x1",
          "removed": false
        },
        {
          "address": "0xd1620dac6d79be34f8500756b47cf91b1fa5cc8c",
          "topics": [
            "0x8c5be1e5ebec7d5bd14f71427d1e84f3dd0314c0f7b2291e5b200ac8c7c3b925",
            "0x000000000000000000000000636c8d1011678625bfbb95ff608bf12c4314946f",
            "0x000000000000000000000000766542304e16e3585d569705b0eff4756efa6cac"
          ],
          "data": "0x00000000000000000000000000000000000000000000000000000001403912c2",
          "blockHash": "0xe0a9b01abfe5fc39ec6e9ebd4adbfcad12c0484876fd3a99de95811b88158168",
          "blockNumber": "0x173c184",
          "blockTimestamp": "0x697fd99e",
          "transactionHash": "0xaa5552ccd503ea3868927c27f54c83a3e99a44ca671cea043df5baefb210363c",
          "transactionIndex": "0x0",
          "logIndex": "0x2",
          "removed": false
        }
      ],
      "logsBloom": "0x00000000004000008004000000000000000000000000080000000000000000000000000000000000400000100000000000000000000000080000400000200000000000000000000000000008000100080000000000000000000000004000000000000000024000000000000000000800000000000000000000000010000000000000022000000000000000000000040000000000000000000000000000000002020000000000000000000100000000000000000000000000000000000000000000000002000000000000000000000000008000000000000000000010000020100010000000010000000000000000000000000000000000000000000000000000",
      "type": "0x2",
      "transactionHash": "0xaa5552ccd503ea3868927c27f54c83a3e99a44ca671cea043df5baefb210363c",
      "transactionIndex": "0x0",
      "blockHash": "0xe0a9b01abfe5fc39ec6e9ebd4adbfcad12c0484876fd3a99de95811b88158168",
      "blockNumber": "0x173c184",
      "gasUsed": "0x33b7b",
      "effectiveGasPrice": "0x47571",
      "blobGasPrice": "0x1",
      "from": "0x3c44cdddb6a900fa2b585dd299e03d12fa4293bc",
      "to": "0x636c8d1011678625bfbb95ff608bf12c4314946f",
      "contractAddress": null
    },
    {
      "status": "0x1",
      "cumulativeGasUsed": "0x21cf3",
      "logs": [
        {
          "address": "0x9ed4f4724b521326a9d9d2420252440bd05556c4",
          "topics": [
            "0xddf252ad1be2c89b69c2b068fc378daa952ba7f163c4a11628f55a4df523b3ef",
            "0x000000000000000000000000636c8d1011678625bfbb95ff608bf12c4314946f",
            "0x0000000000000000000000003c44cdddb6a900fa2b585dd299e03d12fa4293bc"
          ],
          "data": "0x00000000000000000000000000000000000000000000000000000000199e2a75",
          "blockHash": "0x68ae81003b6e764f30b1afb3af100968bc561ef5cddb8b028bac1f4e994b8691",
          "blockNumber": "0x173c185",
          "blockTimestamp": "0x697fd99e",
          "transactionHash": "0x3baf4cc5e6761ec221a9c5d3784b979783f3940733315996ba1ce24289ed8130",
          "transactionIndex": "0x0",
          "logIndex": "0x0",
          "removed": false
        }
      ],
      "logsBloom": "0x00000000004000000004000000000000000000000000000000000000000000000000000000000000000000000000000000000000000000000000400000100000000000000000000000000008000100000000000000000000000000000000000000000000000000000000000000000000000800000000000000000010000000000000020000000000000000000000040000000000000000000000000000000000000000000000200000000000000000000000000000000000000000000000000000000002000000000000000000000000000000000000000000000000000000000000000000000000000000000000000000000000000000000000000000000000",
      "type": "0x2",
      "transactionHash": "0x3baf4cc5e6761ec221a9c5d3784b979783f3940733315996ba1ce24289ed8130",
      "transactionIndex": "0x0",
      "blockHash": "0x68ae81003b6e764f30b1afb3af100968bc561ef5cddb8b028bac1f4e994b8691",
      "blockNumber": "0x173c185",
      "gasUsed": "0x21cf3",
      "effectiveGasPrice": "0x3e87f",
      "blobGasPrice": "0x1",
      "from": "0x3c44cdddb6a900fa2b585dd299e03d12fa4293bc",
      "to": "0x636c8d1011678625bfbb95ff608bf12c4314946f",
      "contractAddress": null
    },
    {
      "status": "0x1",
      "cumulativeGasUsed": "0x2544a",
      "logs": [
        {
          "address": "0x000000000004444c5dc75cb358380d2e3de08a90",
          "topics": [
            "0x40e9cecb9f5f1f1c5b9c97dec2917b7ee92e57ba5563708daca94dd84ad7112f",
            "0x3509745444ed1275bf3cc6196dcab60943ac6b87c5b249d3e64fa8e35e5b5f69",
            "0x000000000000000000000000de37b79c9cfbc7514caf00ea404752931a3591e6"
          ],
          "data": "0xffffffffffffffffffffffffffffffffffffffffffffffffffffffffbcbb2945000000000000000000000000000000000000000000000000000000010ca19ce00000000000000000000000000000000000000001fb42c0e034932c6004247dc20000000000000000000000000000000000000000000000000000001e1717e9e3000000000000000000000000000000000000000000000000000000000000356d00000000000000000000000000000000000000000000000000000000000001f4",
          "blockHash": "0xbbb9607ff60b0c0caa71ed2b3396b1d8a07c9f5cd26097f370235c5428c9efaa",
          "blockNumber": "0x173c186",
          "blockTimestamp": "0x697fd99e",
          "transactionHash": "0x0af87da1dd30f96cd7c60fb9066b9701dfc48784dc3f1e5a14417cbf31266c04",
          "transactionIndex": "0x0",
          "logIndex": "0x0",
          "removed": false
        },
        {
          "address": "0x9ed4f4724b521326a9d9d2420252440bd05556c4",
          "topics": [
            "0xddf252ad1be2c89b69c2b068fc378daa952ba7f163c4a11628f55a4df523b3ef",
            "0x0000000000000000000000003c44cdddb6a900fa2b585dd299e03d12fa4293bc",
            "0x000000000000000000000000000000000004444c5dc75cb358380d2e3de08a90"
          ],
          "data": "0x000000000000000000000000000000000000000000000000000000004344d6bb",
          "blockHash": "0xbbb9607ff60b0c0caa71ed2b3396b1d8a07c9f5cd26097f370235c5428c9efaa",
          "blockNumber": "0x173c186",
          "blockTimestamp": "0x697fd99e",
          "transactionHash": "0x0af87da1dd30f96cd7c60fb9066b9701dfc48784dc3f1e5a14417cbf31266c04",
          "transactionIndex": "0x0",
          "logIndex": "0x1",
          "removed": false
        },
        {
          "address": "0xd1620dac6d79be34f8500756b47cf91b1fa5cc8c",
          "topics": [
            "0xddf252ad1be2c89b69c2b068fc378daa952ba7f163c4a11628f55a4df523b3ef",
            "0x000000000000000000000000000000000004444c5dc75cb358380d2e3de08a90",
            "0x0000000000000000000000003c44cdddb6a900fa2b585dd299e03d12fa4293bc"
          ],
          "data": "0x000000000000000000000000000000000000000000000000000000010ca19ce0",
          "blockHash": "0xbbb9607ff60b0c0caa71ed2b3396b1d8a07c9f5cd26097f370235c5428c9efaa",
          "blockNumber": "0x173c186",
          "blockTimestamp": "0x697fd99e",
          "transactionHash": "0x0af87da1dd30f96cd7c60fb9066b9701dfc48784dc3f1e5a14417cbf31266c04",
          "transactionIndex": "0x0",
          "logIndex": "0x2",
          "removed": false
        }
      ],
      "logsBloom": "0x00000000004000008004000000000000000000000000000000000000000000000000000020000000001000000000000000000000040000000000000000108002000000000000000000000008000000000000000000000020000000004010000000000000000000008000000000000000000800000000000000000010000000000000022800000000000000000000000000000000000000000000000000000000000000000000200000000000100000000000000000000000000000000000000000000802000000000000000000000000000000400000000000000000000000000000000000000000004000000000000000000100000000000000000000000000",
      "type": "0x2",
      "transactionHash": "0x0af87da1dd30f96cd7c60fb9066b9701dfc48784dc3f1e5a14417cbf31266c04",
      "transactionIndex": "0x0",
      "blockHash": "0xbbb9607ff60b0c0caa71ed2b3396b1d8a07c9f5cd26097f370235c5428c9efaa",
      "blockNumber": "0x173c186",
      "gasUsed": "0x2544a",
      "effectiveGasPrice": "0x36cbe",
      "blobGasPrice": "0x1",
      "from": "0x3c44cdddb6a900fa2b585dd299e03d12fa4293bc",
      "to": "0xde37b79c9cfbc7514caf00ea404752931a3591e6",
      "contractAddress": null
    },
    {
      "status": "0x1",
      "cumulativeGasUsed": "0x72d5",
      "logs": [
        {
          "address": "0xd1620dac6d79be34f8500756b47cf91b1fa5cc8c",
          "topics": [
            "0xddf252ad1be2c89b69c2b068fc378daa952ba7f163c4a11628f55a4df523b3ef",
            "0x0000000000000000000000003c44cdddb6a900fa2b585dd299e03d12fa4293bc",
            "0x000000000000000000000000636c8d1011678625bfbb95ff608bf12c4314946f"
          ],
          "data": "0x000000000000000000000000000000000000000000000000000000010ca19ce0",
          "blockHash": "0xc66c38007c1e4c9465edef3289358251d3ed29e23fbb8904674ca1fb3cda8c58",
          "blockNumber": "0x173c187",
          "blockTimestamp": "0x697fd99e",
          "transactionHash": "0x07d2370fe2c96ba2abf839c8edd6cd73aca276722b69a5abd7fb8b47943c6706",
          "transactionIndex": "0x0",
          "logIndex": "0x0",
          "removed": false
        }
      ],
      "logsBloom": "0x00000000000000008000000000000000000000000000000000000000000000000000000000000000000000000000000000000000000000000000400000100000000000000000000000000008000100000000000000000000000000004000000000000000000000000000000000000000000800000000000000000010000000000000002000000000000000000000040000000000000000000000000000000000000000000000200000000000000000000000000000000000000000000000000000000002000000000000000000000000000000000000000000000000000000000000000000000000000000000000000000000000000000000000000000000000",
      "type": "0x2",
      "transactionHash": "0x07d2370fe2c96ba2abf839c8edd6cd73aca276722b69a5abd7fb8b47943c6706",
      "transactionIndex": "0x0",
      "blockHash": "0xc66c38007c1e4c9465edef3289358251d3ed29e23fbb8904674ca1fb3cda8c58",
      "blockNumber": "0x173c187",
      "gasUsed": "0x72d5",
      "effectiveGasPrice": "0x30070",
      "blobGasPrice": "0x1",
      "from": "0x3c44cdddb6a900fa2b585dd299e03d12fa4293bc",
      "to": "0xd1620dac6d79be34f8500756b47cf91b1fa5cc8c",
      "contractAddress": null
    },
    {
      "status": "0x1",
      "cumulativeGasUsed": "0x2671f",
      "logs": [
        {
          "address": "0x766542304e16e3585d569705b0eff4756efa6cac",
          "topics": [
            "0x343ef6bfd54be4f7cb6918335f3d2788a88dfadfc586a5c32c67c2f3b61c6338",
            "0x5b171c28fb0eebf8c4f6bebf3f5a0f12611acb1d4a0734c51fbae996b6e9dfdf",
            "0x000000000000000000000000636c8d1011678625bfbb95ff608bf12c4314946f"
          ],
          "data": "0x000000000000000000000000000000000000000000000000000000010ca19ce00000000000000000000000000000000000000000000000000000000000000000",
          "blockHash": "0xfd054c44e30739c33b0cbb00a74247da7d593fc0e7577f51826fe69a5d01c612",
          "blockNumber": "0x173c188",
          "blockTimestamp": "0x697fd99e",
          "transactionHash": "0xb49b589a1ddbb79b737d66b29d48f293f483fb25630845b1eec51ff7843d6e74",
          "transactionIndex": "0x0",
          "logIndex": "0x0",
          "removed": false
        },
        {
          "address": "0xd1620dac6d79be34f8500756b47cf91b1fa5cc8c",
          "topics": [
            "0x8c5be1e5ebec7d5bd14f71427d1e84f3dd0314c0f7b2291e5b200ac8c7c3b925",
            "0x000000000000000000000000636c8d1011678625bfbb95ff608bf12c4314946f",
            "0x000000000000000000000000766542304e16e3585d569705b0eff4756efa6cac"
          ],
          "data": "0x000000000000000000000000000000000000000000000000000000010ca19ce0",
          "blockHash": "0xfd054c44e30739c33b0cbb00a74247da7d593fc0e7577f51826fe69a5d01c612",
          "blockNumber": "0x173c188",
          "blockTimestamp": "0x697fd99e",
          "transactionHash": "0xb49b589a1ddbb79b737d66b29d48f293f483fb25630845b1eec51ff7843d6e74",
          "transactionIndex": "0x0",
          "logIndex": "0x1",
          "removed": false
        }
      ],
      "logsBloom": "0x00000000000000008000000000000000000000000000080000000000000000000000000000000000400000100000000000000000000000080000400000200000000000000000000000000000000100080000000000000000000000004000000000000000004000000000000000000000000000000000000000000000000000000000002000000000000000000000040000000000000000000000000000000002020000000000000000000100000000000000000000000000000000000000000000000000000000000000000000000000008000000000000000000010000000100010000000010000000000000000000000000000000000000000000000000000",
      "type": "0x2",
      "transactionHash": "0xb49b589a1ddbb79b737d66b29d48f293f483fb25630845b1eec51ff7843d6e74",
      "transactionIndex": "0x0",
      "blockHash": "0xfd054c44e30739c33b0cbb00a74247da7d593fc0e7577f51826fe69a5d01c612",
      "blockNumber": "0x173c188",
      "gasUsed": "0x2671f",
      "effectiveGasPrice": "0x2a136",
      "blobGasPrice": "0x1",
      "from": "0x3c44cdddb6a900fa2b585dd299e03d12fa4293bc",
      "to": "0x636c8d1011678625bfbb95ff608bf12c4314946f",
      "contractAddress": null
    }
  ],
  "libraries": [],
  "pending": [],
  "returns": {},
  "timestamp": 1770034319770,
  "chain": 1,
  "commit": "290e97f"
}