{
  "transactions": [
    {
      "hash": "0x4f4cd550678dc403718d8ada56c59715e8f13e0b458b0f511bba232ad5748d07",
      "transactionType": "CREATE",
      "contractName": "ShortRouter",
      "contractAddress": "0x42599facdc09d2b3a497269f5eaca0afa1710697",
      "function": null,
      "arguments": [
        "0x000000000004444c5dc75cB358380D2e3dE08A90"
      ],
      "transaction": {
        "from": "0x3c44cdddb6a900fa2b585dd299e03d12fa4293bc",
        "value": "0x0",
        "input": "0x60a034607357601f610abf38819003918201601f19168301916001600160401b03831184841017607757808492602094604052833981010312607357516001600160a01b0381168103607357608052604051610a33908161008c8239608051818181608b0152818161040601526105ab0152f35b5f80fd5b634e487b7160e01b5f52604160045260245ffdfe60806040526004361015610011575f80fd5b5f3560e01c80631e2817de14610435578063481c6a75146103f1576391dd73461461003a575f80fd5b346103ad5760203660031901126103ad5760043567ffffffffffffffff81116103ad57366023820112156103ad57806004013567ffffffffffffffff81116103ad578101903660248301116103ad577f00000000000000000000000000000000000000000000000000000000000000006001600160a01b0381169290338490036103c357610120838303126103ad576040516100d5816106a2565b6100e1602485016106fc565b815260a0601f1985850301126103ad57604051926100fe846106be565b61010a604486016106fc565b8452610118606486016106fc565b6020850152608485013562ffffff811681036103ad57604085015260a48501358060020b81036103ad57606085015260c48501356001600160a01b03811681036103ad5760808501526020820193845260609085900360bf1901126103ad5760405193610184856106a2565b60e48101359081151582036103ad5790855261010481013560208601526101240135936001600160a01b03851685036103ad57610237955f9560408301526040830191808352855191610210602098899461024b6040516101e588826106da565b838152601f1988013689830137604051633cf3645360e21b81529d8e97889687956004870190610734565b8051151560a4860152602081015160c4860152604001516001600160a01b031660e4850152565b610120610104840152610124830190610710565b03925af19586156103b8575f96610385575b5051511561030d578460801d600f0b5f81126102dd575b5084600f0b915f83136102b5575b505050505b604051918183015280825261029d6040836106da565b6102b1604051928284938452830190610710565b0390f35b925184015190516102d4936001600160a01b0391821692909116610997565b5f808080610282565b8351518251610307926001600160a01b039283169290911690859061030190610786565b926107c2565b5f610274565b84600f0b5f8112610359575b508460801d600f0b915f8313610333575b50505050610287565b9251519051610350936001600160a01b0391821692909116610997565b5f80808061032a565b8351850151825161037f926001600160a01b039283169290911690859061030190610786565b5f610319565b9095508481813d83116103b1575b61039d81836106da565b810103126103ad5751945f61025d565b5f80fd5b503d610393565b6040513d5f823e3d90fd5b60405162461bcd60e51b81526020600482015260066024820152654e6f7420504d60d01b6044820152606490fd5b346103ad575f3660031901126103ad576040517f00000000000000000000000000000000000000000000000000000000000000006001600160a01b03168152602090f35b346103ad57366003190161010081126103ad5760a0136103ad5760405161045b816106be565b6004356001600160a01b03811681036103ad5781526024356001600160a01b03811681036103ad57602082015260443562ffffff811681036103ad5760408201526064358060020b81036103ad5760608201526084356001600160a01b03811681036103ad57608082015260603660a31901126103ad576040516104de816106a2565b60a43580151581036103ad57815260c435602082015260e435916001600160a01b03831683036103ad57610573826105a69460405f95015260408051610523816106a2565b338152602081019485520190815261054960405193336020860152516040850190610734565b518051151560e08401526020810151610100840152604001516001600160a01b0316610120830152565b6101208152610584610140826106da565b604051809381926348c8949160e01b8352602060048401526024830190610710565b0381837f00000000000000000000000000000000000000000000000000000000000000006001600160a01b03165af19081156103b8575f91610604575b50602081519181808201938492010103126103ad5760209051604051908152f35b90503d805f833e61061581836106da565b8101906020818303126103ad5780519067ffffffffffffffff82116103ad570181601f820112156103ad5780519067ffffffffffffffff821161068e576040519261066a601f8401601f1916602001856106da565b828452602083830101116103ad57815f9260208093018386015e83010152816105e3565b634e487b7160e01b5f52604160045260245ffd5b6060810190811067ffffffffffffffff82111761068e57604052565b60a0810190811067ffffffffffffffff82111761068e57604052565b90601f8019910116810190811067ffffffffffffffff82111761068e57604052565b35906001600160a01b03821682036103ad57565b805180835260209291819084018484015e5f828201840152601f01601f1916010190565b80516001600160a01b03908116835260208083015182169084015260408083015162ffffff169084015260608083015160020b9084015260809182015116910152565b908160209103126103ad575190565b600160ff1b8114610796575f0390565b634e487b7160e01b5f52601160045260245ffd5b908160209103126103ad575180151581036103ad5790565b9192916001600160a01b0316806108305750604051630476982d60e21b81529250602091839160049183916001600160a01b03165af180156103b8576108055750565b6108269060203d602011610829575b61081e81836106da565b810190610777565b50565b503d610814565b6001600160a01b0390911691823b156103ad57604051632961046560e21b815260048101839052935a945f816024818389819bf180156103b857610982575b506001600160a01b031684308214610927576020929160649160405195869485936323b872dd60e01b8552600485015288602485015260448401525af1801561091c579160209184936108ef575b505b600460405180958193630476982d60e21b83525af19081156108e357506108055750565b604051903d90823e3d90fd5b61090e90833d8511610915575b61090681836106da565b8101906107aa565b505f6108bd565b503d6108fc565b6040513d85823e3d90fd5b9290506044602092604051948593849263a9059cbb60e01b845288600485015260248401525af1801561091c57916020918493610965575b506108bf565b61097b90833d85116109155761090681836106da565b505f61095f565b61098f9195505f906106da565b5f935f61086f565b91906001600160a01b0316803b156103ad57604051630b0d9c0960e01b81526001600160a01b03938416600482015291909216602482015260448101929092525f908290606490829084905af180156103b8576109f15750565b5f6109fb916106da565b56fea2646970667358221220662069c861c5f809cdb58212a724ae9dec0c469590dc2d32a9ef57efac3a564364736f6c634300081a0033000000000000000000000000000000000004444c5dc75cb358380d2e3de08a90",
        "nonce": "0x979",
        "chainId": "0x1"
      },
      "additionalContracts": [],
      "isFixedGasLimit": false
    },
    {
      "hash": "0xab017768f3b61fd9c86b7a29493b75111429bb4e07dc8421b0495f8240b01b84",
      "transactionType": "CALL",
      "contractName": null,
      "contractAddress": "0xd1620dac6d79be34f8500756b47cf91b1fa5cc8c",
      "function": "approve(address,uint256)",
      "arguments": [
        "0x42599FAcdC09D2B3A497269f5EACa0afa1710697",
        "115792089237316195423570985008687907853269984665640564039457584007913129639935"
      ],
      "transaction": {
        "from": "0x3c44cdddb6a900fa2b585dd299e03d12fa4293bc",
        "to": "0xd1620dac6d79be34f8500756b47cf91b1fa5cc8c",
        "value": "0x0",
        "input": "0x095ea7b300000000000000000000000042599facdc09d2b3a497269f5eaca0afa1710697ffffffffffffffffffffffffffffffffffffffffffffffffffffffffffffffff",
        "nonce": "0x97a",
        "chainId": "0x1"
      },
      "additionalContracts": [],
      "isFixedGasLimit": false
    },
    {
      "hash": "0x819c8c876120672b133300fb372517b5d745a3d061d334111a703387d94274f0",
      "transactionType": "CALL",
      "contractName": null,
      "contractAddress": "0x9ed4f4724b521326a9d9d2420252440bd05556c4",
      "function": "approve(address,uint256)",
      "arguments": [
        "0x42599FAcdC09D2B3A497269f5EACa0afa1710697",
        "115792089237316195423570985008687907853269984665640564039457584007913129639935"
      ],
      "transaction": {
        "from": "0x3c44cdddb6a900fa2b585dd299e03d12fa4293bc",
        "to": "0x9ed4f4724b521326a9d9d2420252440bd05556c4",
        "value": "0x0",
        "input": "0x095ea7b300000000000000000000000042599facdc09d2b3a497269f5eaca0afa1710697ffffffffffffffffffffffffffffffffffffffffffffffffffffffffffffffff",
        "nonce": "0x97b",
        "chainId": "0x1"
      },
      "additionalContracts": [],
      "isFixedGasLimit": false
    },
    {
      "hash": "0x502197a2000338fb3a1eb2670fb54eaa54341c9aaad6ac2e831a37dd505fdb08",
      "transactionType": "CALL",
      "contractName": null,
      "contractAddress": "0xd1620dac6d79be34f8500756b47cf91b1fa5cc8c",
      "function": "approve(address,uint256)",
      "arguments": [
        "0x000000000004444c5dc75cB358380D2e3dE08A90",
        "115792089237316195423570985008687907853269984665640564039457584007913129639935"
      ],
      "transaction": {
        "from": "0x3c44cdddb6a900fa2b585dd299e03d12fa4293bc",
        "to": "0xd1620dac6d79be34f8500756b47cf91b1fa5cc8c",
        "value": "0x0",
        "input": "0x095ea7b3000000000000000000000000000000000004444c5dc75cb358380d2e3de08a90ffffffffffffffffffffffffffffffffffffffffffffffffffffffffffffffff",
        "nonce": "0x97c",
        "chainId": "0x1"
      },
      "additionalContracts": [],
      "isFixedGasLimit": false
    },
    {
      "hash": "0xca50d891c3e56c920ff00f9d98251a02385915e6d612dfbbe9db02e7f46dee3f",
      "transactionType": "CALL",
      "contractName": null,
      "contractAddress": "0x9ed4f4724b521326a9d9d2420252440bd05556c4",
      "function": "approve(address,uint256)",
      "arguments": [
        "0x000000000004444c5dc75cB358380D2e3dE08A90",
        "115792089237316195423570985008687907853269984665640564039457584007913129639935"
      ],
      "transaction": {
        "from": "0x3c44cdddb6a900fa2b585dd299e03d12fa4293bc",
        "to": "0x9ed4f4724b521326a9d9d2420252440bd05556c4",
        "value": "0x0",
        "input": "0x095ea7b3000000000000000000000000000000000004444c5dc75cb358380d2e3de08a90ffffffffffffffffffffffffffffffffffffffffffffffffffffffffffffffff",
        "nonce": "0x97d",
        "chainId": "0x1"
      },
      "additionalContracts": [],
      "isFixedGasLimit": false
    },
    {
      "hash": "0xedd596881114612e9e1ab4f7ca88b799de7a4d835d66a425506f53641de1bab9",
      "transactionType": "CALL",
      "contractName": null,
      "contractAddress": "0x9554b52516f306360a239746f70f88c23d187b63",
      "function": "createBroker(bytes32)",
      "arguments": [
        "0x226b7c5c47b6347c1ff06accba870e8cba9cbfa636bcb69f4ef41541af83bd56"
      ],
      "transaction": {
        "from": "0x3c44cdddb6a900fa2b585dd299e03d12fa4293bc",
        "to": "0x9554b52516f306360a239746f70f88c23d187b63",
        "value": "0x0",
        "input": "0x26f4f123226b7c5c47b6347c1ff06accba870e8cba9cbfa636bcb69f4ef41541af83bd56",
        "nonce": "0x97e",
        "chainId": "0x1"
      },
      "additionalContracts": [],
      "isFixedGasLimit": false
    },
    {
      "hash": "0x5f6c550e44995972512f16ebdaeb450ed5beb7c5682dea1c80279a2cdbbab6af",
      "transactionType": "CALL",
      "contractName": null,
      "contractAddress": "0xd1620dac6d79be34f8500756b47cf91b1fa5cc8c",
      "function": "transfer(address,uint256)",
      "arguments": [
        "0xd104ebB70f861E6ecb037f7AcCdce51fAe0e11cE",
        "49999568170"
      ],
      "transaction": {
        "from": "0x3c44cdddb6a900fa2b585dd299e03d12fa4293bc",
        "to": "0xd1620dac6d79be34f8500756b47cf91b1fa5cc8c",
        "value": "0x0",
        "input": "0xa9059cbb000000000000000000000000d104ebb70f861e6ecb037f7accdce51fae0e11ce0000000000000000000000000000000000000000000000000000000ba434dd2a",
        "nonce": "0x97f",
        "chainId": "0x1"
      },
      "additionalContracts": [],
      "isFixedGasLimit": false
    },
    {
      "hash": "0x74a533a8d850003b59ec75311b801f0e59d39b2b451b7b1b57e710ee777c6c86",
      "transactionType": "CALL",
      "contractName": null,
      "contractAddress": "0xd104ebb70f861e6ecb037f7accdce51fae0e11ce",
      "function": "modifyPosition(bytes32,int256,int256)",
      "arguments": [
        "0x5b171c28fb0eebf8c4f6bebf3f5a0f12611acb1d4a0734c51fbae996b6e9dfdf",
        "49999568170",
        "3999965453"
      ],
      "transaction": {
        "from": "0x3c44cdddb6a900fa2b585dd299e03d12fa4293bc",
        "to": "0xd104ebb70f861e6ecb037f7accdce51fae0e11ce",
        "value": "0x0",
        "input": "0x1b89f3d45b171c28fb0eebf8c4f6bebf3f5a0f12611acb1d4a0734c51fbae996b6e9dfdf0000000000000000000000000000000000000000000000000000000ba434dd2a00000000000000000000000000000000000000000000000000000000ee6aa10d",
        "nonce": "0x980",
        "chainId": "0x1"
      },
      "additionalContracts": [],
      "isFixedGasLimit": false
    },
    {
      "hash": "0x96bdd4af161df26d8a20997d080658be9cd028149f8e0dccabffff91aad7d45d",
      "transactionType": "CALL",
      "contractName": null,
      "contractAddress": "0xd104ebb70f861e6ecb037f7accdce51fae0e11ce",
      "function": "withdrawPositionToken(address,uint256)",
      "arguments": [
        "0x3C44CdDdB6a900fa2b585dd299e03d12FA4293BC",
        "3999965453"
      ],
      "transaction": {
        "from": "0x3c44cdddb6a900fa2b585dd299e03d12fa4293bc",
        "to": "0xd104ebb70f861e6ecb037f7accdce51fae0e11ce",
        "value": "0x0",
        "input": "0x14776d760000000000000000000000003c44cdddb6a900fa2b585dd299e03d12fa4293bc00000000000000000000000000000000000000000000000000000000ee6aa10d",
        "nonce": "0x981",
        "chainId": "0x1"
      },
      "additionalContracts": [],
      "isFixedGasLimit": false
    },
    {
      "hash": "0x0e921c0e889b27b7e74f41d29f902fe4225091da8e438949f4f9f5dc009729aa",
      "transactionType": "CALL",
      "contractName": "ShortRouter",
      "contractAddress": "0x42599facdc09d2b3a497269f5eaca0afa1710697",
      "function": "swap((address,address,uint24,int24,address),(bool,int256,uint160))",
      "arguments": [
        "(0x9ed4F4724b521326a9d9d2420252440bD05556c4, 0xD1620Dac6d79BE34F8500756B47cf91B1fA5Cc8C, 500, 5, 0x7e0C07EEabb2459D70dba5b8d100Dca44c652aC0)",
        "(true, 3999965453, 4295128740)"
      ],
      "transaction": {
        "from": "0x3c44cdddb6a900fa2b585dd299e03d12fa4293bc",
        "to": "0x42599facdc09d2b3a497269f5eaca0afa1710697",
        "value": "0x0",
        "input": "0x1e2817de0000000000000000000000009ed4f4724b521326a9d9d2420252440bd05556c4000000000000000000000000d1620dac6d79be34f8500756b47cf91b1fa5cc8c00000000000000000000000000000000000000000000000000000000000001f400000000000000000000000000000000000000000000000000000000000000050000000000000000000000007e0c07eeabb2459d70dba5b8d100dca44c652ac0000000000000000000000000000000000000000000000000000000000000000100000000000000000000000000000000000000000000000000000000ee6aa10d00000000000000000000000000000000000000000000000000000001000276a4",
        "nonce": "0x982",
        "chainId": "0x1"
      },
      "additionalContracts": [],
      "isFixedGasLimit": false
    },
    {
      "hash": "0x37f62e15570026b99b3e2fd0c246cbf0084d65554ebdf6c218f1246c282eb652",
      "transactionType": "CALL",
      "contractName": null,
      "contractAddress": "0xd1620dac6d79be34f8500756b47cf91b1fa5cc8c",
      "function": "transfer(address,uint256)",
      "arguments": [
        "0xd104ebB70f861E6ecb037f7AcCdce51fAe0e11cE",
        "3999965453"
      ],
      "transaction": {
        "from": "0x3c44cdddb6a900fa2b585dd299e03d12fa4293bc",
        "to": "0xd1620dac6d79be34f8500756b47cf91b1fa5cc8c",
        "value": "0x0",
        "input": "0xa9059cbb000000000000000000000000d104ebb70f861e6ecb037f7accdce51fae0e11ce00000000000000000000000000000000000000000000000000000000ee6aa10d",
        "nonce": "0x983",
        "chainId": "0x1"
      },
      "additionalContracts": [],
      "isFixedGasLimit": false
    },
    {
      "hash": "0x9c93e17747f596c9c4f7b899fa17bf3a94dd913b01b79c875f0783365c8c570c",
      "transactionType": "CALL",
      "contractName": null,
      "contractAddress": "0xd104ebb70f861e6ecb037f7accdce51fae0e11ce",
      "function": "modifyPosition(bytes32,int256,int256)",
      "arguments": [
        "0x5b171c28fb0eebf8c4f6bebf3f5a0f12611acb1d4a0734c51fbae996b6e9dfdf",
        "3999965453",
        "319997236"
      ],
      "transaction": {
        "from": "0x3c44cdddb6a900fa2b585dd299e03d12fa4293bc",
        "to": "0xd104ebb70f861e6ecb037f7accdce51fae0e11ce",
        "value": "0x0",
        "input": "0x1b89f3d45b171c28fb0eebf8c4f6bebf3f5a0f12611acb1d4a0734c51fbae996b6e9dfdf00000000000000000000000000000000000000000000000000000000ee6aa10d000000000000000000000000000000000000000000000000000000001312c534",
        "nonce": "0x984",
        "chainId": "0x1"
      },
      "additionalContracts": [],
      "isFixedGasLimit": false
    },
    {
      "hash": "0xc01c5c5d9707a04c3c6254adf80e9d6b49980b92418572504d1f51698ec752b3",
      "transactionType": "CALL",
      "contractName": null,
      "contractAddress": "0xd104ebb70f861e6ecb037f7accdce51fae0e11ce",
      "function": "withdrawPositionToken(address,uint256)",
      "arguments": [
        "0x3C44CdDdB6a900fa2b585dd299e03d12FA4293BC",
        "319997236"
      ],
      "transaction": {
        "from": "0x3c44cdddb6a900fa2b585dd299e03d12fa4293bc",
        "to": "0xd104ebb70f861e6ecb037f7accdce51fae0e11ce",
        "value": "0x0",
        "input": "0x14776d760000000000000000000000003c44cdddb6a900fa2b585dd299e03d12fa4293bc000000000000000000000000000000000000000000000000000000001312c534",
        "nonce": "0x985",
        "chainId": "0x1"
      },
      "additionalContracts": [],
      "isFixedGasLimit": false
    },
    {
      "hash": "0xf358989a9f0bc2f3f53448859b20498120f89be76d34d126a13f97bf6d7f2e16",
      "transactionType": "CALL",
      "contractName": "ShortRouter",
      "contractAddress": "0x42599facdc09d2b3a497269f5eaca0afa1710697",
      "function": "swap((address,address,uint24,int24,address),(bool,int256,uint160))",
      "arguments": [
        "(0x9ed4F4724b521326a9d9d2420252440bD05556c4, 0xD1620Dac6d79BE34F8500756B47cf91B1fA5Cc8C, 500, 5, 0x7e0C07EEabb2459D70dba5b8d100Dca44c652aC0)",
        "(true, 3471911890, 4295128740)"
      ],
      "transaction": {
        "from": "0x3c44cdddb6a900fa2b585dd299e03d12fa4293bc",
        "to": "0x42599facdc09d2b3a497269f5eaca0afa1710697",
        "value": "0x0",
        "input": "0x1e2817de0000000000000000000000009ed4f4724b521326a9d9d2420252440bd05556c4000000000000000000000000d1620dac6d79be34f8500756b47cf91b1fa5cc8c00000000000000000000000000000000000000000000000000000000000001f400000000000000000000000000000000000000000000000000000000000000050000000000000000000000007e0c07eeabb2459d70dba5b8d100dca44c652ac0000000000000000000000000000000000000000000000000000000000000000100000000000000000000000000000000000000000000000000000000cef12bd200000000000000000000000000000000000000000000000000000001000276a4",
        "nonce": "0x986",
        "chainId": "0x1"
      },
      "additionalContracts": [],
      "isFixedGasLimit": false
    },
    {
      "hash": "0x15612ed398252780c76c9151824d69b84edabf2a6ecc3b7cb605eef1ffcd5edf",
      "transactionType": "CALL",
      "contractName": null,
      "contractAddress": "0xd1620dac6d79be34f8500756b47cf91b1fa5cc8c",
      "function": "transfer(address,uint256)",
      "arguments": [
        "0xd104ebB70f861E6ecb037f7AcCdce51fAe0e11cE",
        "3471911890"
      ],
      "transaction": {
        "from": "0x3c44cdddb6a900fa2b585dd299e03d12fa4293bc",
        "to": "0xd1620dac6d79be34f8500756b47cf91b1fa5cc8c",
        "value": "0x0",
        "input": "0xa9059cbb000000000000000000000000d104ebb70f861e6ecb037f7accdce51fae0e11ce00000000000000000000000000000000000000000000000000000000cef12bd2",
        "nonce": "0x987",
        "chainId": "0x1"
      },
      "additionalContracts": [],
      "isFixedGasLimit": false
    },
    {
      "hash": "0x30a5bcc62d949e1c58caa0e8414686d3bd179d9552d216965b767b61bf9fd153",
      "transactionType": "CALL",
      "contractName": null,
      "contractAddress": "0xd104ebb70f861e6ecb037f7accdce51fae0e11ce",
      "function": "modifyPosition(bytes32,int256,int256)",
      "arguments": [
        "0x5b171c28fb0eebf8c4f6bebf3f5a0f12611acb1d4a0734c51fbae996b6e9dfdf",
        "3471911890",
        "277752951"
      ],
      "transaction": {
        "from": "0x3c44cdddb6a900fa2b585dd299e03d12fa4293bc",
        "to": "0xd104ebb70f861e6ecb037f7accdce51fae0e11ce",
        "value": "0x0",
        "input": "0x1b89f3d45b171c28fb0eebf8c4f6bebf3f5a0f12611acb1d4a0734c51fbae996b6e9dfdf00000000000000000000000000000000000000000000000000000000cef12bd200000000000000000000000000000000000000000000000000000000108e2c77",
        "nonce": "0x988",
        "chainId": "0x1"
      },
      "additionalContracts": [],
      "isFixedGasLimit": false
    },
    {
      "hash": "0xb41cfb6e286de8bec160a8bcf06cdd2b5491f32202d51ddf304c5d4fd776179d",
      "transactionType": "CALL",
      "contractName": null,
      "contractAddress": "0xd104ebb70f861e6ecb037f7accdce51fae0e11ce",
      "function": "withdrawPositionToken(address,uint256)",
      "arguments": [
        "0x3C44CdDdB6a900fa2b585dd299e03d12FA4293BC",
        "277752951"
      ],
      "transaction": {
        "from": "0x3c44cdddb6a900fa2b585dd299e03d12fa4293bc",
        "to": "0xd104ebb70f861e6ecb037f7accdce51fae0e11ce",
        "value": "0x0",
        "input": "0x14776d760000000000000000000000003c44cdddb6a900fa2b585dd299e03d12fa4293bc00000000000000000000000000000000000000000000000000000000108e2c77",
        "nonce": "0x989",
        "chainId": "0x1"
      },
      "additionalContracts": [],
      "isFixedGasLimit": false
    },
    {
      "hash": "0x2661276bc0571c38b787b724d94f039f7de5e3361675055eda22b7b05f263357",
      "transactionType": "CALL",
      "contractName": "ShortRouter",
      "contractAddress": "0x42599facdc09d2b3a497269f5eaca0afa1710697",
      "function": "swap((address,address,uint24,int24,address),(bool,int256,uint160))",
      "arguments": [
        "(0x9ed4F4724b521326a9d9d2420252440bD05556c4, 0xD1620Dac6d79BE34F8500756B47cf91B1fA5Cc8C, 500, 5, 0x7e0C07EEabb2459D70dba5b8d100Dca44c652aC0)",
        "(true, 2993589310, 4295128740)"
      ],
      "transaction": {
        "from": "0x3c44cdddb6a900fa2b585dd299e03d12fa4293bc",
        "to": "0x42599facdc09d2b3a497269f5eaca0afa1710697",
        "value": "0x0",
        "input": "0x1e2817de0000000000000000000000009ed4f4724b521326a9d9d2420252440bd05556c4000000000000000000000000d1620dac6d79be34f8500756b47cf91b1fa5cc8c00000000000000000000000000000000000000000000000000000000000001f400000000000000000000000000000000000000000000000000000000000000050000000000000000000000007e0c07eeabb2459d70dba5b8d100dca44c652ac0000000000000000000000000000000000000000000000000000000000000000100000000000000000000000000000000000000000000000000000000b26e8c3e00000000000000000000000000000000000000000000000000000001000276a4",
        "nonce": "0x98a",
        "chainId": "0x1"
      },
      "additionalContracts": [],
      "isFixedGasLimit": false
    },
    {
      "hash": "0x002dd88fbfca9c9e9f48cd0b28b9ae18c34265436c4d0cdeac25ff5021da838d",
      "transactionType": "CALL",
      "contractName": null,
      "contractAddress": "0xd1620dac6d79be34f8500756b47cf91b1fa5cc8c",
      "function": "transfer(address,uint256)",
      "arguments": [
        "0xd104ebB70f861E6ecb037f7AcCdce51fAe0e11cE",
        "2993589310"
      ],
      "transaction": {
        "from": "0x3c44cdddb6a900fa2b585dd299e03d12fa4293bc",
        "to": "0xd1620dac6d79be34f8500756b47cf91b1fa5cc8c",
        "value": "0x0",
        "input": "0xa9059cbb000000000000000000000000d104ebb70f861e6ecb037f7accdce51fae0e11ce00000000000000000000000000000000000000000000000000000000b26e8c3e",
        "nonce": "0x98b",
        "chainId": "0x1"
      },
      "additionalContracts": [],
      "isFixedGasLimit": false
    },
    {
      "hash": "0x8342a3573dae188d290b32bc4dd2f06781527e85e68e237e98b17cb1804729fa",
      "transactionType": "CALL",
      "contractName": null,
      "contractAddress": "0xd104ebb70f861e6ecb037f7accdce51fae0e11ce",
      "function": "modifyPosition(bytes32,int256,int256)",
      "arguments": [
        "0x5b171c28fb0eebf8c4f6bebf3f5a0f12611acb1d4a0734c51fbae996b6e9dfdf",
        "2993589310",
        "0"
      ],
      "transaction": {
        "from": "0x3c44cdddb6a900fa2b585dd299e03d12fa4293bc",
        "to": "0xd104ebb70f861e6ecb037f7accdce51fae0e11ce",
        "value": "0x0",
        "input": "0x1b89f3d45b171c28fb0eebf8c4f6bebf3f5a0f12611acb1d4a0734c51fbae996b6e9dfdf00000000000000000000000000000000000000000000000000000000b26e8c3e0000000000000000000000000000000000000000000000000000000000000000",
        "nonce": "0x98c",
        "chainId": "0x1"
      },
      "additionalContracts": [],
      "isFixedGasLimit": false
    }
  ],
  "receipts": [
    {
      "status": "0x1",
      "cumulativeGasUsed": "0x972e3",
      "logs": [],
      "logsBloom": "0x00000000000000000000000000000000000000000000000000000000000000000000000000000000000000000000000000000000000000000000000000000000000000000000000000000000000000000000000000000000000000000000000000000000000000000000000000000000000000000000000000000000000000000000000000000000000000000000000000000000000000000000000000000000000000000000000000000000000000000000000000000000000000000000000000000000000000000000000000000000000000000000000000000000000000000000000000000000000000000000000000000000000000000000000000000000",
      "type": "0x2",
      "transactionHash": "0x4f4cd550678dc403718d8ada56c59715e8f13e0b458b0f511bba232ad5748d07",
      "transactionIndex": "0x0",
      "blockHash": "0x430b0f148e7ff621050e79307a319080ca5cb82dfb53d2ee075dfdf7c751fc7d",
      "blockNumber": "0x173c15b",
      "gasUsed": "0x972e3",
      "effectiveGasPrice": "0x4050df7",
      "blobGasPrice": "0x1",
      "from": "0x3c44cdddb6a900fa2b585dd299e03d12fa4293bc",
      "to": null,
      "contractAddress": "0x42599facdc09d2b3a497269f5eaca0afa1710697"
    },
    {
      "status": "0x1",
      "cumulativeGasUsed": "0xb4bf",
      "logs": [
        {
          "address": "0xd1620dac6d79be34f8500756b47cf91b1fa5cc8c",
          "topics": [
            "0x8c5be1e5ebec7d5bd14f71427d1e84f3dd0314c0f7b2291e5b200ac8c7c3b925",
            "0x0000000000000000000000003c44cdddb6a900fa2b585dd299e03d12fa4293bc",
            "0x00000000000000000000000042599facdc09d2b3a497269f5eaca0afa1710697"
          ],
          "data": "0xffffffffffffffffffffffffffffffffffffffffffffffffffffffffffffffff",
          "blockHash": "0x7d7e4cd5ddd73cdfd17e4b26e70fb8b6fc147d410471902fce1d61fe9667815c",
          "blockNumber": "0x173c15c",
          "blockTimestamp": "0x697fbd7b",
          "transactionHash": "0xab017768f3b61fd9c86b7a29493b75111429bb4e07dc8421b0495f8240b01b84",
          "transactionIndex": "0x0",
          "logIndex": "0x0",
          "removed": false
        }
      ],
      "logsBloom": "0x00000000000000008000000000800000000000000000000000000000000000000000000000000000000000000000000000000000000000000000000000300000000000080000000000000000000000000000000000000000000000004000000000000000000000000000000000000000000800000000000000000000000000000000002000000000000000000000000000000000000000000000000000000000020000000000200000000000000000000000000000000000008000000000000000000000000000000000000000000000000000000000000000000000000000000010000000000000000000000000000000000000000000000000000000000000",
      "type": "0x2",
      "transactionHash": "0xab017768f3b61fd9c86b7a29493b75111429bb4e07dc8421b0495f8240b01b84",
      "transactionIndex": "0x0",
      "blockHash": "0x7d7e4cd5ddd73cdfd17e4b26e70fb8b6fc147d410471902fce1d61fe9667815c",
      "blockNumber": "0x173c15c",
      "gasUsed": "0xb4bf",
      "effectiveGasPrice": "0x38714a6",
      "blobGasPrice": "0x1",
      "from": "0x3c44cdddb6a900fa2b585dd299e03d12fa4293bc",
      "to": "0xd1620dac6d79be34f8500756b47cf91b1fa5cc8c",
      "contractAddress": null
    },
    {
      "status": "0x1",
      "cumulativeGasUsed": "0xb4a9",
      "logs": [
        {
          "address": "0x9ed4f4724b521326a9d9d2420252440bd05556c4",
          "topics": [
            "0x8c5be1e5ebec7d5bd14f71427d1e84f3dd0314c0f7b2291e5b200ac8c7c3b925",
            "0x0000000000000000000000003c44cdddb6a900fa2b585dd299e03d12fa4293bc",
            "0x00000000000000000000000042599facdc09d2b3a497269f5eaca0afa1710697"
          ],
          "data": "0xffffffffffffffffffffffffffffffffffffffffffffffffffffffffffffffff",
          "blockHash": "0x7d98f3f77e91d0ecc2712f2fbc31bc0f343d8f3116e379d9634f4e0c79e8d328",
          "blockNumber": "0x173c15d",
          "blockTimestamp": "0x697fbd7b",
          "transactionHash": "0x819c8c876120672b133300fb372517b5d745a3d061d334111a703387d94274f0",
          "transactionIndex": "0x0",
          "logIndex": "0x0",
          "removed": false
        }
      ],
      "logsBloom": "0x00000000004000000004000000800000000000000000000000000000000000000000000000000000000000000000000000000000000000000000000000300000000000080000000000000000000000000000000000000000000000000000000000000000000000000000000000000000000800000000000000000000000000000000020000000000000000000000000000000000000000000000000000000000020000000000200000000000000000000000000000000000008000000000000000000000000000000000000000000000000000000000000000000000000000000010000000000000000000000000000000000000000000000000000000000000",
      "type": "0x2",
      "transactionHash": "0x819c8c876120672b133300fb372517b5d745a3d061d334111a703387d94274f0",
      "transactionIndex": "0x0",
      "blockHash": "0x7d98f3f77e91d0ecc2712f2fbc31bc0f343d8f3116e379d9634f4e0c79e8d328",
      "blockNumber": "0x173c15d",
      "gasUsed": "0xb4a9",
      "effectiveGasPrice": "0x3165f5f",
      "blobGasPrice": "0x1",
      "from": "0x3c44cdddb6a900fa2b585dd299e03d12fa4293bc",
      "to": "0x9ed4f4724b521326a9d9d2420252440bd05556c4",
      "contractAddress": null
    },
    {
      "status": "0x1",
      "cumulativeGasUsed": "0xb483",
      "logs": [
        {
          "address": "0xd1620dac6d79be34f8500756b47cf91b1fa5cc8c",
          "topics": [
            "0x8c5be1e5ebec7d5bd14f71427d1e84f3dd0314c0f7b2291e5b200ac8c7c3b925",
            "0x0000000000000000000000003c44cdddb6a900fa2b585dd299e03d12fa4293bc",
            "0x000000000000000000000000000000000004444c5dc75cb358380d2e3de08a90"
          ],
          "data": "0xffffffffffffffffffffffffffffffffffffffffffffffffffffffffffffffff",
          "blockHash": "0x71f21a96f35c341316561e638b0b2f027d87ecabef178694332eb1541d169f8e",
          "blockNumber": "0x173c15e",
          "blockTimestamp": "0x697fbd7b",
          "transactionHash": "0x502197a2000338fb3a1eb2670fb54eaa54341c9aaad6ac2e831a37dd505fdb08",
          "transactionIndex": "0x0",
          "logIndex": "0x0",
          "removed": false
        }
      ],
      "logsBloom": "0x00000000000000008000000000000000000000000000000000000000000000000000000000000000001000000000000000000000000000000000000000300000000000000000000000000000000000000000000000000000000000004000000000000000000000000000000000000000000800000000000000000000000000000000002800000000000000000000000000000000000000000000000000000000020000000000200000000000000000000000000000000000000000000000000000000000000000000000000000000000000000400000000000000000000000000010000000000000000000000000000000000000000000000000000000000000",
      "type": "0x2",
      "transactionHash": "0x502197a2000338fb3a1eb2670fb54eaa54341c9aaad6ac2e831a37dd505fdb08",
      "transactionIndex": "0x0",
      "blockHash": "0x71f21a96f35c341316561e638b0b2f027d87ecabef178694332eb1541d169f8e",
      "blockNumber": "0x173c15e",
      "gasUsed": "0xb483",
      "effectiveGasPrice": "0x2b3bb2c",
      "blobGasPrice": "0x1",
      "from": "0x3c44cdddb6a900fa2b585dd299e03d12fa4293bc",
      "to": "0xd1620dac6d79be34f8500756b47cf91b1fa5cc8c",
      "contractAddress": null
    },
    {
      "status": "0x1",
      "cumulativeGasUsed": "0xb46d",
      "logs": [
        {
          "address": "0x9ed4f4724b521326a9d9d2420252440bd05556c4",
          "topics": [
            "0x8c5be1e5ebec7d5bd14f71427d1e84f3dd0314c0f7b2291e5b200ac8c7c3b925",
            "0x0000000000000000000000003c44cdddb6a900fa2b585dd299e03d12fa4293bc",
            "0x000000000000000000000000000000000004444c5dc75cb358380d2e3de08a90"
          ],
          "data": "0xffffffffffffffffffffffffffffffffffffffffffffffffffffffffffffffff",
          "blockHash": "0x3721320240fb03c08bfccbb44aaa221e2323c71cdbf6a75cc3c63f9c1b1e0ddb",
          "blockNumber": "0x173c15f",
          "blockTimestamp": "0x697fbd7b",
          "transactionHash": "0xca50d891c3e56c920ff00f9d98251a02385915e6d612dfbbe9db02e7f46dee3f",
          "transactionIndex": "0x0",
          "logIndex": "0x0",
          "removed": false
        }
      ],
      "logsBloom": "0x00000000004000000004000000000000000000000000000000000000000000000000000000000000001000000000000000000000000000000000000000300000000000000000000000000000000000000000000000000000000000000000000000000000000000000000000000000000000800000000000000000000000000000000020800000000000000000000000000000000000000000000000000000000020000000000200000000000000000000000000000000000000000000000000000000000000000000000000000000000000000400000000000000000000000000010000000000000000000000000000000000000000000000000000000000000",
      "type": "0x2",
      "transactionHash": "0xca50d891c3e56c920ff00f9d98251a02385915e6d612dfbbe9db02e7f46dee3f",
      "transactionIndex": "0x0",
      "blockHash": "0x3721320240fb03c08bfccbb44aaa221e2323c71cdbf6a75cc3c63f9c1b1e0ddb",
      "blockNumber": "0x173c15f",
      "gasUsed": "0xb46d",
      "effectiveGasPrice": "0x25d669b",
      "blobGasPrice": "0x1",
      "from": "0x3c44cdddb6a900fa2b585dd299e03d12fa4293bc",
      "to": "0x9ed4f4724b521326a9d9d2420252440bd05556c4",
      "contractAddress": null
    },
    {
      "status": "0x1",
      "cumulativeGasUsed": "0x53edf",
      "logs": [
        {
          "address": "0x9554b52516f306360a239746f70f88c23d187b63",
          "topics": [
            "0xddf252ad1be2c89b69c2b068fc378daa952ba7f163c4a11628f55a4df523b3ef",
            "0x0000000000000000000000000000000000000000000000000000000000000000",
            "0x0000000000000000000000003c44cdddb6a900fa2b585dd299e03d12fa4293bc",
            "0x000000000000000000000000d104ebb70f861e6ecb037f7accdce51fae0e11ce"
          ],
          "data": "0x",
          "blockHash": "0x4491b419222e6c0fc67734b3cb8a05fb553050eb3ace8c3eb1581bfa34d87aaa",
          "blockNumber": "0x173c160",
          "blockTimestamp": "0x697fbd7b",
          "transactionHash": "0xedd596881114612e9e1ab4f7ca88b799de7a4d835d66a425506f53641de1bab9",
          "transactionIndex": "0x0",
          "logIndex": "0x0",
          "removed": false
        },
        {
          "address": "0x9554b52516f306360a239746f70f88c23d187b63",
          "topics": [
            "0xc418c83b1622e1e32aac5d6d2848134a7e89eb8e96c8514afd1757d25ee5ef71",
            "0x000000000000000000000000d104ebb70f861e6ecb037f7accdce51fae0e11ce",
            "0x0000000000000000000000003c44cdddb6a900fa2b585dd299e03d12fa4293bc"
          ],
          "data": "0x000000000000000000000000d104ebb70f861e6ecb037f7accdce51fae0e11ce",
          "blockHash": "0x4491b419222e6c0fc67734b3cb8a05fb553050eb3ace8c3eb1581bfa34d87aaa",
          "blockNumber": "0x173c160",
          "blockTimestamp": "0x697fbd7b",
          "transactionHash": "0xedd596881114612e9e1ab4f7ca88b799de7a4d835d66a425506f53641de1bab9",
          "transactionIndex": "0x0",
          "logIndex": "0x1",
          "removed": false
        }
      ],
      "logsBloom": "0x00000000000000000000100020000000000000000000000000000000000000000000000000000000000080000000000000000200000000000000000000100000000000000000000000000008000000000000000000000100008000000000000000000000020000000000000000008800000800000000000000000010000000000000000000000000000000000000000000000000000000000000000000000000000000000000200000400000000000000000000000800000000000000000000000000002000000000000000000000000000000000000000000000000000020000000000000000000000000000000000000000000000000000000000000000000",
      "type": "0x2",
      "transactionHash": "0xedd596881114612e9e1ab4f7ca88b799de7a4d835d66a425506f53641de1bab9",
      "transactionIndex": "0x0",
      "blockHash": "0x4491b419222e6c0fc67734b3cb8a05fb553050eb3ace8c3eb1581bfa34d87aaa",
      "blockNumber": "0x173c160",
      "gasUsed": "0x53edf",
      "effectiveGasPrice": "0x211d857",
      "blobGasPrice": "0x1",
      "from": "0x3c44cdddb6a900fa2b585dd299e03d12fa4293bc",
      "to": "0x9554b52516f306360a239746f70f88c23d187b63",
      "contractAddress": null
    },
    {
      "status": "0x1",
      "cumulativeGasUsed": "0xb5a1",
      "logs": [
        {
          "address": "0xd1620dac6d79be34f8500756b47cf91b1fa5cc8c",
          "topics": [
            "0xddf252ad1be2c89b69c2b068fc378daa952ba7f163c4a11628f55a4df523b3ef",
            "0x0000000000000000000000003c44cdddb6a900fa2b585dd299e03d12fa4293bc",
            "0x000000000000000000000000d104ebb70f861e6ecb037f7accdce51fae0e11ce"
          ],
          "data": "0x0000000000000000000000000000000000000000000000000000000ba434dd2a",
          "blockHash": "0x5156f33d538e18dd318796cf8ea49a9e74488be54168d309d7d7b94fa2a5a719",
          "blockNumber": "0x173c161",
          "blockTimestamp": "0x697fbd7b",
          "transactionHash": "0x5f6c550e44995972512f16ebdaeb450ed5beb7c5682dea1c80279a2cdbbab6af",
          "transactionIndex": "0x0",
          "logIndex": "0x0",
          "removed": false
        }
      ],
      "logsBloom": "0x00000000000000008000000000000000000000000000000000000000000000000000000000000000000080000000000000000000000000000000000000100000000000000000000000000008000000000000000000000000000000004000000000000000000000000000000000000000000800000000000000000010000000000000002000000000000000000000000000000000000000000000000000000000000000000000200000400000000000000000000000800000000000000000000000000002000000000000000000000000000000000000000000000000000000000000000000000000000000000000000000000000000000000000000000000000",
      "type": "0x2",
      "transactionHash": "0x5f6c550e44995972512f16ebdaeb450ed5beb7c5682dea1c80279a2cdbbab6af",
      "transactionIndex": "0x0",
      "blockHash": "0x5156f33d538e18dd318796cf8ea49a9e74488be54168d309d7d7b94fa2a5a719",
      "blockNumber": "0x173c161",
      "gasUsed": "0xb5a1",
      "effectiveGasPrice": "0x1d06050",
      "blobGasPrice": "0x1",
      "from": "0x3c44cdddb6a900fa2b585dd299e03d12fa4293bc",
      "to": "0xd1620dac6d79be34f8500756b47cf91b1fa5cc8c",
      "contractAddress": null
    },
    {
      "status": "0x1",
      "cumulativeGasUsed": "0x50be9",
      "logs": [
        {
          "address": "0x9ed4f4724b521326a9d9d2420252440bd05556c4",
          "topics": [
            "0xddf252ad1be2c89b69c2b068fc378daa952ba7f163c4a11628f55a4df523b3ef",
            "0x0000000000000000000000000000000000000000000000000000000000000000",
            "0x000000000000000000000000d104ebb70f861e6ecb037f7accdce51fae0e11ce"
          ],
          "data": "0x00000000000000000000000000000000000000000000000000000000ee6aa10d",
          "blockHash": "0xb50bd78151b5b2afa4146c74a91a2bdd50360e5f90a446eb340b8005e6b81ca8",
          "blockNumber": "0x173c162",
          "blockTimestamp": "0x697fbd7b",
          "transactionHash": "0x74a533a8d850003b59ec75311b801f0e59d39b2b451b7b1b57e710ee777c6c86",
          "transactionIndex": "0x0",
          "logIndex": "0x0",
          "removed": false
        },
        {
          "address": "0x766542304e16e3585d569705b0eff4756efa6cac",
          "topics": [
            "0x343ef6bfd54be4f7cb6918335f3d2788a88dfadfc586a5c32c67c2f3b61c6338",
            "0x5b171c28fb0eebf8c4f6bebf3f5a0f12611acb1d4a0734c51fbae996b6e9dfdf",
            "0x000000000000000000000000d104ebb70f861e6ecb037f7accdce51fae0e11ce"
          ],
          "data": "0x0000000000000000000000000000000000000000000000000000000ba434dd2a00000000000000000000000000000000000000000000000000000000ee6aa10d",
          "blockHash": "0xb50bd78151b5b2afa4146c74a91a2bdd50360e5f90a446eb340b8005e6b81ca8",
          "blockNumber": "0x173c162",
          "blockTimestamp": "0x697fbd7b",
          "transactionHash": "0x74a533a8d850003b59ec75311b801f0e59d39b2b451b7b1b57e710ee777c6c86",
          "transactionIndex": "0x0",
          "logIndex": "0x1",
          "removed": false
        },
        {
          "address": "0xd1620dac6d79be34f8500756b47cf91b1fa5cc8c",
          "topics": [
            "0x8c5be1e5ebec7d5bd14f71427d1e84f3dd0314c0f7b2291e5b200ac8c7c3b925",
            "0x000000000000000000000000d104ebb70f861e6ecb037f7accdce51fae0e11ce",
            "0x000000000000000000000000766542304e16e3585d569705b0eff4756efa6cac"
          ],
          "data": "0x0000000000000000000000000000000000000000000000000000000ba434dd2a",
          "blockHash": "0xb50bd78151b5b2afa4146c74a91a2bdd50360e5f90a446eb340b8005e6b81ca8",
          "blockNumber": "0x173c162",
          "blockTimestamp": "0x697fbd7b",
          "transactionHash": "0x74a533a8d850003b59ec75311b801f0e59d39b2b451b7b1b57e710ee777c6c86",
          "transactionIndex": "0x0",
          "logIndex": "0x2",
          "removed": false
        }
      ],
      "logsBloom": "0x00000000004000008004000000000000000000000000080000000000000000000000000000000000400080100000000000000000000000080000000000200000000000000000000000000008000000080000000000000000000000004000000000000000024000000000000000000800000000000000000000000010000000000000022000000000000000000000000000000000000000000000000000000002020000000000000000400100000000000000000000800000000000000000000000000002000000000000000000000000008000000000000000000010000020100010000000010000000000000000000000000000000000000000000000000000",
      "type": "0x2",
      "transactionHash": "0x74a533a8d850003b59ec75311b801f0e59d39b2b451b7b1b57e710ee777c6c86",
      "transactionIndex": "0x0",
      "blockHash": "0xb50bd78151b5b2afa4146c74a91a2bdd50360e5f90a446eb340b8005e6b81ca8",
      "blockNumber": "0x173c162",
      "gasUsed": "0x50be9",
      "effectiveGasPrice": "0x1966c0a",
      "blobGasPrice": "0x1",
      "from": "0x3c44cdddb6a900fa2b585dd299e03d12fa4293bc",
      "to": "0xd104ebb70f861e6ecb037f7accdce51fae0e11ce",
      "contractAddress": null
    },
    {
      "status": "0x1",
      "cumulativeGasUsed": "0x25fbf",
      "logs": [
        {
          "address": "0x9ed4f4724b521326a9d9d2420252440bd05556c4",
          "topics": [
            "0xddf252ad1be2c89b69c2b068fc378daa952ba7f163c4a11628f55a4df523b3ef",
            "0x000000000000000000000000d104ebb70f861e6ecb037f7accdce51fae0e11ce",
            "0x0000000000000000000000003c44cdddb6a900fa2b585dd299e03d12fa4293bc"
          ],
          "data": "0x00000000000000000000000000000000000000000000000000000000ee6aa10d",
          "blockHash": "0x0d24444ff937abb91dbd9765c2c3088b2d4f84a74aa246c13d7a07dcf1dd73ab",
          "blockNumber": "0x173c163",
          "blockTimestamp": "0x697fbd7b",
          "transactionHash": "0x96bdd4af161df26d8a20997d080658be9cd028149f8e0dccabffff91aad7d45d",
          "transactionIndex": "0x0",
          "logIndex": "0x0",
          "removed": false
        }
      ],
      "logsBloom": "0x00000000004000000004000000000000000000000000000000000000000000000000000000000000000080000000000000000000000000000000000000100000000000000000000000000008000000000000000000000000000000000000000000000000000000000000000000000000000800000000000000000010000000000000020000000000000000000000000000000000000000000000000000000000000000000000200000400000000000000000000000800000000000000000000000000002000000000000000000000000000000000000000000000000000000000000000000000000000000000000000000000000000000000000000000000000",
      "type": "0x2",
      "transactionHash": "0x96bdd4af161df26d8a20997d080658be9cd028149f8e0dccabffff91aad7d45d",
      "transactionIndex": "0x0",
      "blockHash": "0x0d24444ff937abb91dbd9765c2c3088b2d4f84a74aa246c13d7a07dcf1dd73ab",
      "blockNumber": "0x173c163",
      "gasUsed": "0x25fbf",
      "effectiveGasPrice": "0x1642ea3",
      "blobGasPrice": "0x1",
      "from": "0x3c44cdddb6a900fa2b585dd299e03d12fa4293bc",
      "to": "0xd104ebb70f861e6ecb037f7accdce51fae0e11ce",
      "contractAddress": null
    },
    {
      "status": "0x1",
      "cumulativeGasUsed": "0x2af29",
      "logs": [
        {
          "address": "0x000000000004444c5dc75cb358380d2e3de08a90",
          "topics": [
            "0x40e9cecb9f5f1f1c5b9c97dec2917b7ee92e57ba5563708daca94dd84ad7112f",
            "0x3509745444ed1275bf3cc6196dcab60943ac6b87c5b249d3e64fa8e35e5b5f69",
            "0x00000000000000000000000042599facdc09d2b3a497269f5eaca0afa1710697"
          ],
          "data": "0xffffffffffffffffffffffffffffffffffffffffffffffffffffffffcd73c59100000000000000000000000000000000000000000000000000000000ee6aa10d0000000000000000000000000000000000000002282b3ba85e799d1d54fd4d0b0000000000000000000000000000000000000000000000000000001e1717e9e30000000000000000000000000000000000000000000000000000000000003c0e00000000000000000000000000000000000000000000000000000000000001f4",
          "blockHash": "0x97a60b56e9d1306d6ccc1591d86142d91b9ed065c528c321556ebcc779123674",
          "blockNumber": "0x173c164",
          "blockTimestamp": "0x697fbd7b",
          "transactionHash": "0x0e921c0e889b27b7e74f41d29f902fe4225091da8e438949f4f9f5dc009729aa",
          "transactionIndex": "0x0",
          "logIndex": "0x0",
          "removed": false
        },
        {
          "address": "0x9ed4f4724b521326a9d9d2420252440bd05556c4",
          "topics": [
            "0xddf252ad1be2c89b69c2b068fc378daa952ba7f163c4a11628f55a4df523b3ef",
            "0x0000000000000000000000003c44cdddb6a900fa2b585dd299e03d12fa4293bc",
            "0x000000000000000000000000000000000004444c5dc75cb358380d2e3de08a90"
          ],
          "data": "0x00000000000000000000000000000000000000000000000000000000328c3a6f",
          "blockHash": "0x97a60b56e9d1306d6ccc1591d86142d91b9ed065c528c321556ebcc779123674",
          "blockNumber": "0x173c164",
          "blockTimestamp": "0x697fbd7b",
          "transactionHash": "0x0e921c0e889b27b7e74f41d29f902fe4225091da8e438949f4f9f5dc009729aa",
          "transactionIndex": "0x0",
          "logIndex": "0x1",
          "removed": false
        },
        {
          "address": "0xd1620dac6d79be34f8500756b47cf91b1fa5cc8c",
          "topics": [
            "0xddf252ad1be2c89b69c2b068fc378daa952ba7f163c4a11628f55a4df523b3ef",
            "0x000000000000000000000000000000000004444c5dc75cb358380d2e3de08a90",
            "0x0000000000000000000000003c44cdddb6a900fa2b585dd299e03d12fa4293bc"
          ],
          "data": "0x00000000000000000000000000000000000000000000000000000000ee6aa10d",
          "blockHash": "0x97a60b56e9d1306d6ccc1591d86142d91b9ed065c528c321556ebcc779123674",
          "blockNumber": "0x173c164",
          "blockTimestamp": "0x697fbd7b",
          "transactionHash": "0x0e921c0e889b27b7e74f41d29f902fe4225091da8e438949f4f9f5dc009729aa",
          "transactionIndex": "0x0",
          "logIndex": "0x2",
          "removed": false
        }
      ],
      "logsBloom": "0x00000000004000008004000000800000000000000000000000000000000000000000000020000000001000000000000000000000040000000000000000108000000000080000000000000008000000000000000000000020000000004000000000000000000000008000000000000000000800000000000000000010000000000000022800000000000000000000000000000000000000000000000000000000000000000000200000000000100000000000000000000000008000000000000000000802000000000000000000000000000000400000000000000000000000000000000000000000004000000000000000000100000000000000000000000000",
      "type": "0x2",
      "transactionHash": "0x0e921c0e889b27b7e74f41d29f902fe4225091da8e438949f4f9f5dc009729aa",
      "transactionIndex": "0x0",
      "blockHash": "0x97a60b56e9d1306d6ccc1591d86142d91b9ed065c528c321556ebcc779123674",
      "blockNumber": "0x173c164",
      "gasUsed": "0x2af29",
      "effectiveGasPrice": "0x137e4a6",
      "blobGasPrice": "0x1",
      "from": "0x3c44cdddb6a900fa2b585dd299e03d12fa4293bc",
      "to": "0x42599facdc09d2b3a497269f5eaca0afa1710697",
      "contractAddress": null
    },
    {
      "status": "0x1",
      "cumulativeGasUsed": "0x72c9",
      "logs": [
        {
          "address": "0xd1620dac6d79be34f8500756b47cf91b1fa5cc8c",
          "topics": [
            "0xddf252ad1be2c89b69c2b068fc378daa952ba7f163c4a11628f55a4df523b3ef",
            "0x0000000000000000000000003c44cdddb6a900fa2b585dd299e03d12fa4293bc",
            "0x000000000000000000000000d104ebb70f861e6ecb037f7accdce51fae0e11ce"
          ],
          "data": "0x00000000000000000000000000000000000000000000000000000000ee6aa10d",
          "blockHash": "0x938ae4f024a564b0abfcfced68a1cd11db89d777b40c0153a8a9b36a21414cb8",
          "blockNumber": "0x173c165",
          "blockTimestamp": "0x697fbd7b",
          "transactionHash": "0x37f62e15570026b99b3e2fd0c246cbf0084d65554ebdf6c218f1246c282eb652",
          "transactionIndex": "0x0",
          "logIndex": "0x0",
          "removed": false
        }
      ],
      "logsBloom": "0x00000000000000008000000000000000000000000000000000000000000000000000000000000000000080000000000000000000000000000000000000100000000000000000000000000008000000000000000000000000000000004000000000000000000000000000000000000000000800000000000000000010000000000000002000000000000000000000000000000000000000000000000000000000000000000000200000400000000000000000000000800000000000000000000000000002000000000000000000000000000000000000000000000000000000000000000000000000000000000000000000000000000000000000000000000000",
      "type": "0x2",
      "transactionHash": "0x37f62e15570026b99b3e2fd0c246cbf0084d65554ebdf6c218f1246c282eb652",
      "transactionIndex": "0x0",
      "blockHash": "0x938ae4f024a564b0abfcfced68a1cd11db89d777b40c0153a8a9b36a21414cb8",
      "blockNumber": "0x173c165",
      "gasUsed": "0x72c9",
      "effectiveGasPrice": "0x1112352",
      "blobGasPrice": "0x1",
      "from": "0x3c44cdddb6a900fa2b585dd299e03d12fa4293bc",
      "to": "0xd1620dac6d79be34f8500756b47cf91b1fa5cc8c",
      "contractAddress": null
    },
    {
      "status": "0x1",
      "cumulativeGasUsed": "0x33b6f",
      "logs": [
        {
          "address": "0x9ed4f4724b521326a9d9d2420252440bd05556c4",
          "topics": [
            "0xddf252ad1be2c89b69c2b068fc378daa952ba7f163c4a11628f55a4df523b3ef",
            "0x0000000000000000000000000000000000000000000000000000000000000000",
            "0x000000000000000000000000d104ebb70f861e6ecb037f7accdce51fae0e11ce"
          ],
          "data": "0x000000000000000000000000000000000000000000000000000000001312c534",
          "blockHash": "0x04893a270ae0348b2f6f12fa6f1d057b33287bd85ee8845fd861a494a6cceb61",
          "blockNumber": "0x173c166",
          "blockTimestamp": "0x697fbd7b",
          "transactionHash": "0x9c93e17747f596c9c4f7b899fa17bf3a94dd913b01b79c875f0783365c8c570c",
          "transactionIndex": "0x0",
          "logIndex": "0x0",
          "removed": false
        },
        {
          "address": "0x766542304e16e3585d569705b0eff4756efa6cac",
          "topics": [
            "0x343ef6bfd54be4f7cb6918335f3d2788a88dfadfc586a5c32c67c2f3b61c6338",
            "0x5b171c28fb0eebf8c4f6bebf3f5a0f12611acb1d4a0734c51fbae996b6e9dfdf",
            "0x000000000000000000000000d104ebb70f861e6ecb037f7accdce51fae0e11ce"
          ],
          "data": "0x00000000000000000000000000000000000000000000000000000000ee6aa10d000000000000000000000000000000000000000000000000000000001312c534",
          "blockHash": "0x04893a270ae0348b2f6f12fa6f1d057b33287bd85ee8845fd861a494a6cceb61",
          "blockNumber": "0x173c166",
          "blockTimestamp": "0x697fbd7b",
          "transactionHash": "0x9c93e17747f596c9c4f7b899fa17bf3a94dd913b01b79c875f0783365c8c570c",
          "transactionIndex": "0x0",
          "logIndex": "0x1",
          "removed": false
        },
        {
          "address": "0xd1620dac6d79be34f8500756b47cf91b1fa5cc8c",
          "topics": [
            "0x8c5be1e5ebec7d5bd14f71427d1e84f3dd0314c0f7b2291e5b200ac8c7c3b925",
            "0x000000000000000000000000d104ebb70f861e6ecb037f7accdce51fae0e11ce",
            "0x000000000000000000000000766542304e16e3585d569705b0eff4756efa6cac"
          ],
          "data": "0x00000000000000000000000000000000000000000000000000000000ee6aa10d",
          "blockHash": "0x04893a270ae0348b2f6f12fa6f1d057b33287bd85ee8845fd861a494a6cceb61",
          "blockNumber": "0x173c166",
          "blockTimestamp": "0x697fbd7b",
          "transactionHash": "0x9c93e17747f596c9c4f7b899fa17bf3a94dd913b01b79c875f0783365c8c570c",
          "transactionIndex": "0x0",
          "logIndex": "0x2",
          "removed": false
        }
      ],
      "logsBloom": "0x00000000004000008004000000000000000000000000080000000000000000000000000000000000400080100000000000000000000000080000000000200000000000000000000000000008000000080000000000000000000000004000000000000000024000000000000000000800000000000000000000000010000000000000022000000000000000000000000000000000000000000000000000000002020000000000000000400100000000000000000000800000000000000000000000000002000000000000000000000000008000000000000000000010000020100010000000010000000000000000000000000000000000000000000000000000",
      "type": "0x2",
      "transactionHash": "0x9c93e17747f596c9c4f7b899fa17bf3a94dd913b01b79c875f0783365c8c570c",
      "transactionIndex": "0x0",
      "blockHash": "0x04893a270ae0348b2f6f12fa6f1d057b33287bd85ee8845fd861a494a6cceb61",
      "blockNumber": "0x173c166",
      "gasUsed": "0x33b6f",
      "effectiveGasPrice": "0xef0833",
      "blobGasPrice": "0x1",
      "from": "0x3c44cdddb6a900fa2b585dd299e03d12fa4293bc",
      "to": "0xd104ebb70f861e6ecb037f7accdce51fae0e11ce",
      "contractAddress": null
    },
    {
      "status": "0x1",
      "cumulativeGasUsed": "0x21cf3",
      "logs": [
        {
          "address": "0x9ed4f4724b521326a9d9d2420252440bd05556c4",
          "topics": [
            "0xddf252ad1be2c89b69c2b068fc378daa952ba7f163c4a11628f55a4df523b3ef",
            "0x000000000000000000000000d104ebb70f861e6ecb037f7accdce51fae0e11ce",
            "0x0000000000000000000000003c44cdddb6a900fa2b585dd299e03d12fa4293bc"
          ],
          "data": "0x000000000000000000000000000000000000000000000000000000001312c534",
          "blockHash": "0xd1ffcb1f8f64fdb3a4fa39fe91aeb04e9be75b73d72bd6406cb6495f906f042c",
          "blockNumber": "0x173c167",
          "blockTimestamp": "0x697fbd7b",
          "transactionHash": "0xc01c5c5d9707a04c3c6254adf80e9d6b49980b92418572504d1f51698ec752b3",
          "transactionIndex": "0x0",
          "logIndex": "0x0",
          "removed": false
        }
      ],
      "logsBloom": "0x00000000004000000004000000000000000000000000000000000000000000000000000000000000000080000000000000000000000000000000000000100000000000000000000000000008000000000000000000000000000000000000000000000000000000000000000000000000000800000000000000000010000000000000020000000000000000000000000000000000000000000000000000000000000000000000200000400000000000000000000000800000000000000000000000000002000000000000000000000000000000000000000000000000000000000000000000000000000000000000000000000000000000000000000000000000",
      "type": "0x2",
      "transactionHash": "0xc01c5c5d9707a04c3c6254adf80e9d6b49980b92418572504d1f51698ec752b3",
      "transactionIndex": "0x0",
      "blockHash": "0xd1ffcb1f8f64fdb3a4fa39fe91aeb04e9be75b73d72bd6406cb6495f906f042c",
      "blockNumber": "0x173c167",
      "gasUsed": "0x21cf3",
      "effectiveGasPrice": "0xd15de9",
      "blobGasPrice": "0x1",
      "from": "0x3c44cdddb6a900fa2b585dd299e03d12fa4293bc",
      "to": "0xd104ebb70f861e6ecb037f7accdce51fae0e11ce",
      "contractAddress": null
    },
    {
      "status": "0x1",
      "cumulativeGasUsed": "0x2689a",
      "logs": [
        {
          "address": "0x000000000004444c5dc75cb358380d2e3de08a90",
          "topics": [
            "0x40e9cecb9f5f1f1c5b9c97dec2917b7ee92e57ba5563708daca94dd84ad7112f",
            "0x3509745444ed1275bf3cc6196dcab60943ac6b87c5b249d3e64fa8e35e5b5f69",
            "0x00000000000000000000000042599facdc09d2b3a497269f5eaca0afa1710697"
          ],
          "data": "0xffffffffffffffffffffffffffffffffffffffffffffffffffffffffd2ef33f500000000000000000000000000000000000000000000000000000000cef12bd20000000000000000000000000000000000000002214a9f14ce693e90b99ee4810000000000000000000000000000000000000000000000000000001e1717e9e30000000000000000000000000000000000000000000000000000000000003b1300000000000000000000000000000000000000000000000000000000000001f4",
          "blockHash": "0x8fc9357e7f75c7bfc9c8fc7318a318128dd69e9f6d588a954653e03d24c60128",
          "blockNumber": "0x173c168",
          "blockTimestamp": "0x697fbd7b",
          "transactionHash": "0xf358989a9f0bc2f3f53448859b20498120f89be76d34d126a13f97bf6d7f2e16",
          "transactionIndex": "0x0",
          "logIndex": "0x0",
          "removed": false
        },
        {
          "address": "0x9ed4f4724b521326a9d9d2420252440bd05556c4",
          "topics": [
            "0xddf252ad1be2c89b69c2b068fc378daa952ba7f163c4a11628f55a4df523b3ef",
            "0x0000000000000000000000003c44cdddb6a900fa2b585dd299e03d12fa4293bc",
            "0x000000000000000000000000000000000004444c5dc75cb358380d2e3de08a90"
          ],
          "data": "0x000000000000000000000000000000000000000000000000000000002d10cc0b",
          "blockHash": "0x8fc9357e7f75c7bfc9c8fc7318a318128dd69e9f6d588a954653e03d24c60128",
          "blockNumber": "0x173c168",
          "blockTimestamp": "0x697fbd7b",
          "transactionHash": "0xf358989a9f0bc2f3f53448859b20498120f89be76d34d126a13f97bf6d7f2e16",
          "transactionIndex": "0x0",
          "logIndex": "0x1",
          "removed": false
        },
        {
          "address": "0xd1620dac6d79be34f8500756b47cf91b1fa5cc8c",
          "topics": [
            "0xddf252ad1be2c89b69c2b068fc378daa952ba7f163c4a11628f55a4df523b3ef",
            "0x000000000000000000000000000000000004444c5dc75cb358380d2e3de08a90",
            "0x0000000000000000000000003c44cdddb6a900fa2b585dd299e03d12fa4293bc"
          ],
          "data": "0x00000000000000000000000000000000000000000000000000000000cef12bd2",
          "blockHash": "0x8fc9357e7f75c7bfc9c8fc7318a318128dd69e9f6d588a954653e03d24c60128",
          "blockNumber": "0x173c168",
          "blockTimestamp": "0x697fbd7b",
          "transactionHash": "0xf358989a9f0bc2f3f53448859b20498120f89be76d34d126a13f97bf6d7f2e16",
          "transactionIndex": "0x0",
          "logIndex": "0x2",
          "removed": false
        }
      ],
      "logsBloom": "0x00000000004000008004000000800000000000000000000000000000000000000000000020000000001000000000000000000000040000000000000000108000000000080000000000000008000000000000000000000020000000004000000000000000000000008000000000000000000800000000000000000010000000000000022800000000000000000000000000000000000000000000000000000000000000000000200000000000100000000000000000000000008000000000000000000802000000000000000000000000000000400000000000000000000000000000000000000000004000000000000000000100000000000000000000000000",
      "type": "0x2",
      "transactionHash": "0xf358989a9f0bc2f3f53448859b20498120f89be76d34d126a13f97bf6d7f2e16",
      "transactionIndex": "0x0",
      "blockHash": "0x8fc9357e7f75c7bfc9c8fc7318a318128dd69e9f6d588a954653e03d24c60128",
      "blockNumber": "0x173c168",
      "gasUsed": "0x2689a",
      "effectiveGasPrice": "0xb751d4",
      "blobGasPrice": "0x1",
      "from": "0x3c44cdddb6a900fa2b585dd299e03d12fa4293bc",
      "to": "0x42599facdc09d2b3a497269f5eaca0afa1710697",
      "contractAddress": null
    },
    {
      "status": "0x1",
      "cumulativeGasUsed": "0x72c9",
      "logs": [
        {
          "address": "0xd1620dac6d79be34f8500756b47cf91b1fa5cc8c",
          "topics": [
            "0xddf252ad1be2c89b69c2b068fc378daa952ba7f163c4a11628f55a4df523b3ef",
            "0x0000000000000000000000003c44cdddb6a900fa2b585dd299e03d12fa4293bc",
            "0x000000000000000000000000d104ebb70f861e6ecb037f7accdce51fae0e11ce"
          ],
          "data": "0x00000000000000000000000000000000000000000000000000000000cef12bd2",
          "blockHash": "0x47b3dfb33ba230bd6a0a0963643a7f2e7012f5159141e700930bd4f9f7cb31a1",
          "blockNumber": "0x173c169",
          "blockTimestamp": "0x697fbd7b",
          "transactionHash": "0x15612ed398252780c76c9151824d69b84edabf2a6ecc3b7cb605eef1ffcd5edf",
          "transactionIndex": "0x0",
          "logIndex": "0x0",
          "removed": false
        }
      ],
      "logsBloom": "0x00000000000000008000000000000000000000000000000000000000000000000000000000000000000080000000000000000000000000000000000000100000000000000000000000000008000000000000000000000000000000004000000000000000000000000000000000000000000800000000000000000010000000000000002000000000000000000000000000000000000000000000000000000000000000000000200000400000000000000000000000800000000000000000000000000002000000000000000000000000000000000000000000000000000000000000000000000000000000000000000000000000000000000000000000000000",
      "type": "0x2",
      "transactionHash": "0x15612ed398252780c76c9151824d69b84edabf2a6ecc3b7cb605eef1ffcd5edf",
      "transactionIndex": "0x0",
      "blockHash": "0x47b3dfb33ba230bd6a0a0963643a7f2e7012f5159141e700930bd4f9f7cb31a1",
      "blockNumber": "0x173c169",
      "gasUsed": "0x72c9",
      "effectiveGasPrice": "0xa08732",
      "blobGasPrice": "0x1",
      "from": "0x3c44cdddb6a900fa2b585dd299e03d12fa4293bc",
      "to": "0xd1620dac6d79be34f8500756b47cf91b1fa5cc8c",
      "contractAddress": null
    },
    {
      "status": "0x1",
      "cumulativeGasUsed": "0x33b6f",
      "logs": [
        {
          "address": "0x9ed4f4724b521326a9d9d2420252440bd05556c4",
          "topics": [
            "0xddf252ad1be2c89b69c2b068fc378daa952ba7f163c4a11628f55a4df523b3ef",
            "0x0000000000000000000000000000000000000000000000000000000000000000",
            "0x000000000000000000000000d104ebb70f861e6ecb037f7accdce51fae0e11ce"
          ],
          "data": "0x00000000000000000000000000000000000000000000000000000000108e2c77",
          "blockHash": "0x6c79e8845b04fc77e4fecd8c33e19f3624df1bd481d927922aefb2d6d086f735",
          "blockNumber": "0x173c16a",
          "blockTimestamp": "0x697fbd7b",
          "transactionHash": "0x30a5bcc62d949e1c58caa0e8414686d3bd179d9552d216965b767b61bf9fd153",
          "transactionIndex": "0x0",
          "logIndex": "0x0",
          "removed": false
        },
        {
          "address": "0x766542304e16e3585d569705b0eff4756efa6cac",
          "topics": [
            "0x343ef6bfd54be4f7cb6918335f3d2788a88dfadfc586a5c32c67c2f3b61c6338",
            "0x5b171c28fb0eebf8c4f6bebf3f5a0f12611acb1d4a0734c51fbae996b6e9dfdf",
            "0x000000000000000000000000d104ebb70f861e6ecb037f7accdce51fae0e11ce"
          ],
          "data": "0x00000000000000000000000000000000000000000000000000000000cef12bd200000000000000000000000000000000000000000000000000000000108e2c77",
          "blockHash": "0x6c79e8845b04fc77e4fecd8c33e19f3624df1bd481d927922aefb2d6d086f735",
          "blockNumber": "0x173c16a",
          "blockTimestamp": "0x697fbd7b",
          "transactionHash": "0x30a5bcc62d949e1c58caa0e8414686d3bd179d9552d216965b767b61bf9fd153",
          "transactionIndex": "0x0",
          "logIndex": "0x1",
          "removed": false
        },
        {
          "address": "0xd1620dac6d79be34f8500756b47cf91b1fa5cc8c",
          "topics": [
            "0x8c5be1e5ebec7d5bd14f71427d1e84f3dd0314c0f7b2291e5b200ac8c7c3b925",
            "0x000000000000000000000000d104ebb70f861e6ecb037f7accdce51fae0e11ce",
            "0x000000000000000000000000766542304e16e3585d569705b0eff4756efa6cac"
          ],
          "data": "0x00000000000000000000000000000000000000000000000000000000cef12bd2",
          "blockHash": "0x6c79e8845b04fc77e4fecd8c33e19f3624df1bd481d927922aefb2d6d086f735",
          "blockNumber": "0x173c16a",
          "blockTimestamp": "0x697fbd7b",
          "transactionHash": "0x30a5bcc62d949e1c58caa0e8414686d3bd179d9552d216965b767b61bf9fd153",
          "transactionIndex": "0x0",
          "logIndex": "0x2",
          "removed": false
        }
      ],
      "logsBloom": "0x00000000004000008004000000000000000000000000080000000000000000000000000000000000400080100000000000000000000000080000000000200000000000000000000000000008000000080000000000000000000000004000000000000000024000000000000000000800000000000000000000000010000000000000022000000000000000000000000000000000000000000000000000000002020000000000000000400100000000000000000000800000000000000000000000000002000000000000000000000000008000000000000000000010000020100010000000010000000000000000000000000000000000000000000000000000",
      "type": "0x2",
      "transactionHash": "0x30a5bcc62d949e1c58caa0e8414686d3bd179d9552d216965b767b61bf9fd153",
      "transactionIndex": "0x0",
      "blockHash": "0x6c79e8845b04fc77e4fecd8c33e19f3624df1bd481d927922aefb2d6d086f735",
      "blockNumber": "0x173c16a",
      "gasUsed": "0x33b6f",
      "effectiveGasPrice": "0x8c7c10",
      "blobGasPrice": "0x1",
      "from": "0x3c44cdddb6a900fa2b585dd299e03d12fa4293bc",
      "to": "0xd104ebb70f861e6ecb037f7accdce51fae0e11ce",
      "contractAddress": null
    },
    {
      "status": "0x1",
      "cumulativeGasUsed": "0x21cf3",
      "logs": [
        {
          "address": "0x9ed4f4724b521326a9d9d2420252440bd05556c4",
          "topics": [
            "0xddf252ad1be2c89b69c2b068fc378daa952ba7f163c4a11628f55a4df523b3ef",
            "0x000000000000000000000000d104ebb70f861e6ecb037f7accdce51fae0e11ce",
            "0x0000000000000000000000003c44cdddb6a900fa2b585dd299e03d12fa4293bc"
          ],
          "data": "0x00000000000000000000000000000000000000000000000000000000108e2c77",
          "blockHash": "0x0e5e0b26ba888c0bb432d881d7a55b28dc16f091eba7fcefae07c7c745b2e66c",
          "blockNumber": "0x173c16b",
          "blockTimestamp": "0x697fbd7b",
          "transactionHash": "0xb41cfb6e286de8bec160a8bcf06cdd2b5491f32202d51ddf304c5d4fd776179d",
          "transactionIndex": "0x0",
          "logIndex": "0x0",
          "removed": false
        }
      ],
      "logsBloom": "0x00000000004000000004000000000000000000000000000000000000000000000000000000000000000080000000000000000000000000000000000000100000000000000000000000000008000000000000000000000000000000000000000000000000000000000000000000000000000800000000000000000010000000000000020000000000000000000000000000000000000000000000000000000000000000000000200000400000000000000000000000800000000000000000000000000002000000000000000000000000000000000000000000000000000000000000000000000000000000000000000000000000000000000000000000000000",
      "type": "0x2",
      "transactionHash": "0xb41cfb6e286de8bec160a8bcf06cdd2b5491f32202d51ddf304c5d4fd776179d",
      "transactionIndex": "0x0",
      "blockHash": "0x0e5e0b26ba888c0bb432d881d7a55b28dc16f091eba7fcefae07c7c745b2e66c",
      "blockNumber": "0x173c16b",
      "gasUsed": "0x21cf3",
      "effectiveGasPrice": "0x7b0d07",
      "blobGasPrice": "0x1",
      "from": "0x3c44cdddb6a900fa2b585dd299e03d12fa4293bc",
      "to": "0xd104ebb70f861e6ecb037f7accdce51fae0e11ce",
      "contractAddress": null
    },
    {
      "status": "0x1",
      "cumulativeGasUsed": "0x2543e",
      "logs": [
        {
          "address": "0x000000000004444c5dc75cb358380d2e3de08a90",
          "topics": [
            "0x40e9cecb9f5f1f1c5b9c97dec2917b7ee92e57ba5563708daca94dd84ad7112f",
            "0x3509745444ed1275bf3cc6196dcab60943ac6b87c5b249d3e64fa8e35e5b5f69",
            "0x00000000000000000000000042599facdc09d2b3a497269f5eaca0afa1710697"
          ],
          "data": "0xffffffffffffffffffffffffffffffffffffffffffffffffffffffffd8386a4c00000000000000000000000000000000000000000000000000000000b26e8c3e00000000000000000000000000000000000000021b5c915fda780f14447af6b90000000000000000000000000000000000000000000000000000001e1717e9e30000000000000000000000000000000000000000000000000000000000003a3800000000000000000000000000000000000000000000000000000000000001f4",
          "blockHash": "0x8a3a1a157738dcbd46fe9401be1a80bae438ef8aeed715525264fa875fda3c47",
          "blockNumber": "0x173c16c",
          "blockTimestamp": "0x697fbd7b",
          "transactionHash": "0x2661276bc0571c38b787b724d94f039f7de5e3361675055eda22b7b05f263357",
          "transactionIndex": "0x0",
          "logIndex": "0x0",
          "removed": false
        },
        {
          "address": "0x9ed4f4724b521326a9d9d2420252440bd05556c4",
          "topics": [
            "0xddf252ad1be2c89b69c2b068fc378daa952ba7f163c4a11628f55a4df523b3ef",
            "0x0000000000000000000000003c44cdddb6a900fa2b585dd299e03d12fa4293bc",
            "0x000000000000000000000000000000000004444c5dc75cb358380d2e3de08a90"
          ],
          "data": "0x0000000000000000000000000000000000000000000000000000000027c795b4",
          "blockHash": "0x8a3a1a157738dcbd46fe9401be1a80bae438ef8aeed715525264fa875fda3c47",
          "blockNumber": "0x173c16c",
          "blockTimestamp": "0x697fbd7b",
          "transactionHash": "0x2661276bc0571c38b787b724d94f039f7de5e3361675055eda22b7b05f263357",
          "transactionIndex": "0x0",
          "logIndex": "0x1",
          "removed": false
        },
        {
          "address": "0xd1620dac6d79be34f8500756b47cf91b1fa5cc8c",
          "topics": [
            "0xddf252ad1be2c89b69c2b068fc378daa952ba7f163c4a11628f55a4df523b3ef",
            "0x000000000000000000000000000000000004444c5dc75cb358380d2e3de08a90",
            "0x0000000000000000000000003c44cdddb6a900fa2b585dd299e03d12fa4293bc"
          ],
          "data": "0x00000000000000000000000000000000000000000000000000000000b26e8c3e",
          "blockHash": "0x8a3a1a157738dcbd46fe9401be1a80bae438ef8aeed715525264fa875fda3c47",
          "blockNumber": "0x173c16c",
          "blockTimestamp": "0x697fbd7b",
          "transactionHash": "0x2661276bc0571c38b787b724d94f039f7de5e3361675055eda22b7b05f263357",
          "transactionIndex": "0x0",
          "logIndex": "0x2",
          "removed": false
        }
      ],
      "logsBloom": "0x00000000004000008004000000800000000000000000000000000000000000000000000020000000001000000000000000000000040000000000000000108000000000080000000000000008000000000000000000000020000000004000000000000000000000008000000000000000000800000000000000000010000000000000022800000000000000000000000000000000000000000000000000000000000000000000200000000000100000000000000000000000008000000000000000000802000000000000000000000000000000400000000000000000000000000000000000000000004000000000000000000100000000000000000000000000",
      "type": "0x2",
      "transactionHash": "0x2661276bc0571c38b787b724d94f039f7de5e3361675055eda22b7b05f263357",
      "transactionIndex": "0x0",
      "blockHash": "0x8a3a1a157738dcbd46fe9401be1a80bae438ef8aeed715525264fa875fda3c47",
      "blockNumber": "0x173c16c",
      "gasUsed": "0x2543e",
      "effectiveGasPrice": "0x6bbe4e",
      "blobGasPrice": "0x1",
      "from": "0x3c44cdddb6a900fa2b585dd299e03d12fa4293bc",
      "to": "0x42599facdc09d2b3a497269f5eaca0afa1710697",
      "contractAddress": null
    },
    {
      "status": "0x1",
      "cumulativeGasUsed": "0x72c9",
      "logs": [
        {
          "address": "0xd1620dac6d79be34f8500756b47cf91b1fa5cc8c",
          "topics": [
            "0xddf252ad1be2c89b69c2b068fc378daa952ba7f163c4a11628f55a4df523b3ef",
            "0x0000000000000000000000003c44cdddb6a900fa2b585dd299e03d12fa4293bc",
            "0x000000000000000000000000d104ebb70f861e6ecb037f7accdce51fae0e11ce"
          ],
          "data": "0x00000000000000000000000000000000000000000000000000000000b26e8c3e",
          "blockHash": "0x9c658399d849565aa8df9ced84c13143587cbd4faa4d5a76b6e4b5817da62e1e",
          "blockNumber": "0x173c16d",
          "blockTimestamp": "0x697fbd7b",
          "transactionHash": "0x002dd88fbfca9c9e9f48cd0b28b9ae18c34265436c4d0cdeac25ff5021da838d",
          "transactionIndex": "0x0",
          "logIndex": "0x0",
          "removed": false
        }
      ],
      "logsBloom": "0x00000000000000008000000000000000000000000000000000000000000000000000000000000000000080000000000000000000000000000000000000100000000000000000000000000008000000000000000000000000000000004000000000000000000000000000000000000000000800000000000000000010000000000000002000000000000000000000000000000000000000000000000000000000000000000000200000400000000000000000000000800000000000000000000000000002000000000000000000000000000000000000000000000000000000000000000000000000000000000000000000000000000000000000000000000000",
      "type": "0x2",
      "transactionHash": "0x002dd88fbfca9c9e9f48cd0b28b9ae18c34265436c4d0cdeac25ff5021da838d",
      "transactionIndex": "0x0",
      "blockHash": "0x9c658399d849565aa8df9ced84c13143587cbd4faa4d5a76b6e4b5817da62e1e",
      "blockNumber": "0x173c16d",
      "gasUsed": "0x72c9",
      "effectiveGasPrice": "0x5e58ca",
      "blobGasPrice": "0x1",
      "from": "0x3c44cdddb6a900fa2b585dd299e03d12fa4293bc",
      "to": "0xd1620dac6d79be34f8500756b47cf91b1fa5cc8c",
      "contractAddress": null
    },
    {
      "status": "0x1",
      "cumulativeGasUsed": "0x26713",
      "logs": [
        {
          "address": "0x766542304e16e3585d569705b0eff4756efa6cac",
          "topics": [
            "0x343ef6bfd54be4f7cb6918335f3d2788a88dfadfc586a5c32c67c2f3b61c6338",
            "0x5b171c28fb0eebf8c4f6bebf3f5a0f12611acb1d4a0734c51fbae996b6e9dfdf",
            "0x000000000000000000000000d104ebb70f861e6ecb037f7accdce51fae0e11ce"
          ],
          "data": "0x00000000000000000000000000000000000000000000000000000000b26e8c3e0000000000000000000000000000000000000000000000000000000000000000",
          "blockHash": "0x019b0d57ab4f780f3fa110566689ea6d67b0d969e086a651c1ce43759f593b7a",
          "blockNumber": "0x173c16e",
          "blockTimestamp": "0x697fbd7b",
          "transactionHash": "0x8342a3573dae188d290b32bc4dd2f06781527e85e68e237e98b17cb1804729fa",
          "transactionIndex": "0x0",
          "logIndex": "0x0",
          "removed": false
        },
        {
          "address": "0xd1620dac6d79be34f8500756b47cf91b1fa5cc8c",
          "topics": [
            "0x8c5be1e5ebec7d5bd14f71427d1e84f3dd0314c0f7b2291e5b200ac8c7c3b925",
            "0x000000000000000000000000d104ebb70f861e6ecb037f7accdce51fae0e11ce",
            "0x000000000000000000000000766542304e16e3585d569705b0eff4756efa6cac"
          ],
          "data": "0x00000000000000000000000000000000000000000000000000000000b26e8c3e",
          "blockHash": "0x019b0d57ab4f780f3fa110566689ea6d67b0d969e086a651c1ce43759f593b7a",
          "blockNumber": "0x173c16e",
          "blockTimestamp": "0x697fbd7b",
          "transactionHash": "0x8342a3573dae188d290b32bc4dd2f06781527e85e68e237e98b17cb1804729fa",
          "transactionIndex": "0x0",
          "logIndex": "0x1",
          "removed": false
        }
      ],
      "logsBloom": "0x00000000000000008000000000000000000000000000080000000000000000000000000000000000400080100000000000000000000000080000000000200000000000000000000000000000000000080000000000000000000000004000000000000000004000000000000000000000000000000000000000000000000000000000002000000000000000000000000000000000000000000000000000000002020000000000000000400100000000000000000000800000000000000000000000000000000000000000000000000000008000000000000000000010000000100010000000010000000000000000000000000000000000000000000000000000",
      "type": "0x2",
      "transactionHash": "0x8342a3573dae188d290b32bc4dd2f06781527e85e68e237e98b17cb1804729fa",
      "transactionIndex": "0x0",
      "blockHash": "0x019b0d57ab4f780f3fa110566689ea6d67b0d969e086a651c1ce43759f593b7a",
      "blockNumber": "0x173c16e",
      "gasUsed": "0x26713",
      "effectiveGasPrice": "0x529162",
      "blobGasPrice": "0x1",
      "from": "0x3c44cdddb6a900fa2b585dd299e03d12fa4293bc",
      "to": "0xd104ebb70f861e6ecb037f7accdce51fae0e11ce",
      "contractAddress": null
    }
  ],
  "libraries": [],
  "pending": [],
  "returns": {},
  "timestamp": 1770034316381,
  "chain": 1,
  "commit": "290e97f"
}