{
  "transactions": [
    {
      "hash": "0x6a08be1cd633066eb9da09ce3a41953b9c0a896ed03d8b7d19171ce2cfaae4f6",
      "transactionType": "CALL",
      "contractName": null,
      "contractAddress": "0xbd216513d74c8cf14cf4747e6aaa6420ff64ee9e",
      "function": "modifyLiquidities(bytes,uint256)",
      "arguments": [
        "0x0000000000000000000000000000000000000000000000000000000000000040000000000000000000000000000000000000000000000000000000000000008000000000000000000000000000000000000000000000000000000000000000030212120000000000000000000000000000000000000000000000000000000000000000000000000000000000000000000000000000000000000000000000000300000000000000000000000000000000000000000000000000000000000000600000000000000000000000000000000000000000000000000000000000000220000000000000000000000000000000000000000000000000000000000000026000000000000000000000000000000000000000000000000000000000000001a00000000000000000000000002fe19128a8257182fdd77f90ea96d27ca342897a000000000000000000000000cf6c6272e9e353fc1f3e9a747a7b7aade3c8338900000000000000000000000000000000000000000000000000000000000001f400000000000000000000000000000000000000000000000000000000000000050000000000000000000000007e0c07eeabb2459d70dba5b8d100dca44c652ac0ffffffffffffffffffffffffffffffffffffffffffffffffffffffffffff8afdffffffffffffffffffffffffffffffffffffffffffffffffffffffffffffe4ee000000000000000000000000000000000000000000000000000002919bb9059800000000000000000000000000000000ffffffffffffffffffffffffffffffff00000000000000000000000000000000ffffffffffffffffffffffffffffffff000000000000000000000000f39fd6e51aad88f6f4ce6ab8827279cfffb922660000000000000000000000000000000000000000000000000000000000000180000000000000000000000000000000000000000000000000000000000000000000000000000000000000000000000000000000000000000000000000000000200000000000000000000000002fe19128a8257182fdd77f90ea96d27ca342897a0000000000000000000000000000000000000000000000000000000000000020000000000000000000000000cf6c6272e9e353fc1f3e9a747a7b7aade3c83389",
        "1737783311"
      ],
      "transaction": {
        "from": "0xf39fd6e51aad88f6f4ce6ab8827279cfffb92266",
        "to": "0xbd216513d74c8cf14cf4747e6aaa6420ff64ee9e",
        "gas": "0x9f905",
        "value": "0x0",
        "input": "0xdd46508f0000000000000000000000000000000000000000000000000000000000000040000000000000000000000000000000000000000000000000000000006794780f00000000000000000000000000000000000000000000000000000000000003400000000000000000000000000000000000000000000000000000000000000040000000000000000000000000000000000000000000000000000000000000008000000000000000000000000000000000000000000000000000000000000000030212120000000000000000000000000000000000000000000000000000000000000000000000000000000000000000000000000000000000000000000000000300000000000000000000000000000000000000000000000000000000000000600000000000000000000000000000000000000000000000000000000000000220000000000000000000000000000000000000000000000000000000000000026000000000000000000000000000000000000000000000000000000000000001a00000000000000000000000002fe19128a8257182fdd77f90ea96d27ca342897a000000000000000000000000cf6c6272e9e353fc1f3e9a747a7b7aade3c8338900000000000000000000000000000000000000000000000000000000000001f400000000000000000000000000000000000000000000000000000000000000050000000000000000000000007e0c07eeabb2459d70dba5b8d100dca44c652ac0ffffffffffffffffffffffffffffffffffffffffffffffffffffffffffff8afdffffffffffffffffffffffffffffffffffffffffffffffffffffffffffffe4ee000000000000000000000000000000000000000000000000000002919bb9059800000000000000000000000000000000ffffffffffffffffffffffffffffffff00000000000000000000000000000000ffffffffffffffffffffffffffffffff000000000000000000000000f39fd6e51aad88f6f4ce6ab8827279cfffb922660000000000000000000000000000000000000000000000000000000000000180000000000000000000000000000000000000000000000000000000000000000000000000000000000000000000000000000000000000000000000000000000200000000000000000000000002fe19128a8257182fdd77f90ea96d27ca342897a0000000000000000000000000000000000000000000000000000000000000020000000000000000000000000cf6c6272e9e353fc1f3e9a747a7b7aade3c83389",
        "nonce": "0x365",
        "chainId": "0x1"
      },
      "additionalContracts": [],
      "isFixedGasLimit": false
    }
  ],
  "receipts": [
    {
      "status": "0x1",
      "cumulativeGasUsed": "0x73858",
      "logs": [
        {
          "address": "0xbd216513d74c8cf14cf4747e6aaa6420ff64ee9e",
          "topics": [
            "0xddf252ad1be2c89b69c2b068fc378daa952ba7f163c4a11628f55a4df523b3ef",
            "0x0000000000000000000000000000000000000000000000000000000000000000",
            "0x000000000000000000000000f39fd6e51aad88f6f4ce6ab8827279cfffb92266",
            "0x000000000000000000000000000000000000000000000000000000000000000c"
          ],
          "data": "0x",
          "blockHash": "0x0d5027438ddf7782675a776ee6529a59b6ffa11b62ffda9e585f7e8dc210a809",
          "blockNumber": "0x14b1823",
          "blockTimestamp": "0x67946a01",
          "transactionHash": "0x6a08be1cd633066eb9da09ce3a41953b9c0a896ed03d8b7d19171ce2cfaae4f6",
          "transactionIndex": "0x0",
          "logIndex": "0x0",
          "removed": false
        },
        {
          "address": "0x000000000004444c5dc75cb358380d2e3de08a90",
          "topics": [
            "0xf208f4912782fd25c7f114ca3723a2d5dd6f3bcc3ac8db5af63baa85f711d5ec",
            "0xda100fc1dc21b46f06f5280dc915ca828c53bb63f3b33f171b40f25288da2e93",
            "0x000000000000000000000000bd216513d74c8cf14cf4747e6aaa6420ff64ee9e"
          ],
          "data": "0xffffffffffffffffffffffffffffffffffffffffffffffffffffffffffff8afdffffffffffffffffffffffffffffffffffffffffffffffffffffffffffffe4ee000000000000000000000000000000000000000000000000000002919bb90598000000000000000000000000000000000000000000000000000000000000000c",
          "blockHash": "0x0d5027438ddf7782675a776ee6529a59b6ffa11b62ffda9e585f7e8dc210a809",
          "blockNumber": "0x14b1823",
          "blockTimestamp": "0x67946a01",
          "transactionHash": "0x6a08be1cd633066eb9da09ce3a41953b9c0a896ed03d8b7d19171ce2cfaae4f6",
          "transactionIndex": "0x0",
          "logIndex": "0x1",
          "removed": false
        },
        {
          "address": "0x2fe19128a8257182fdd77f90ea96d27ca342897a",
          "topics": [
            "0xddf252ad1be2c89b69c2b068fc378daa952ba7f163c4a11628f55a4df523b3ef",
            "0x000000000000000000000000f39fd6e51aad88f6f4ce6ab8827279cfffb92266",
            "0x000000000000000000000000000000000004444c5dc75cb358380d2e3de08a90"
          ],
          "data": "0x0000000000000000000000000000000000000000000000000000048c27395000",
          "blockHash": "0x0d5027438ddf7782675a776ee6529a59b6ffa11b62ffda9e585f7e8dc210a809",
          "blockNumber": "0x14b1823",
          "blockTimestamp": "0x67946a01",
          "transactionHash": "0x6a08be1cd633066eb9da09ce3a41953b9c0a896ed03d8b7d19171ce2cfaae4f6",
          "transactionIndex": "0x0",
          "logIndex": "0x2",
          "removed": false
        },
        {
          "address": "0xcf6c6272e9e353fc1f3e9a747a7b7aade3c83389",
          "topics": [
            "0xddf252ad1be2c89b69c2b068fc378daa952ba7f163c4a11628f55a4df523b3ef",
            "0x000000000000000000000000f39fd6e51aad88f6f4ce6ab8827279cfffb92266",
            "0x000000000000000000000000000000000004444c5dc75cb358380d2e3de08a90"
          ],
          "data": "0x0000000000000000000000000000000000000000000000000000003b70054c88",
          "blockHash": "0x0d5027438ddf7782675a776ee6529a59b6ffa11b62ffda9e585f7e8dc210a809",
          "blockNumber": "0x14b1823",
          "blockTimestamp": "0x67946a01",
          "transactionHash": "0x6a08be1cd633066eb9da09ce3a41953b9c0a896ed03d8b7d19171ce2cfaae4f6",
          "transactionIndex": "0x0",
          "logIndex": "0x3",
          "removed": false
        }
      ],
      "logsBloom": "0x00000040000000020000000000000000000002000000000000000000000004000000000020000200001000004000000400000000000000000000000000000000000000000000000000000008000000000000000000000080008000002000000000000000020000000000000100000800000000080000000000000010100008000000000801200000000000000000000000000000000000000000000000000000000004000000000000000000100000000040000000000000000000000000000000000802000000200000000000000000000000402000000000000000000020200000000000008000000000000000000024000000000000000000000000000000",
      "type": "0x2",
      "transactionHash": "0x6a08be1cd633066eb9da09ce3a41953b9c0a896ed03d8b7d19171ce2cfaae4f6",
      "transactionIndex": "0x0",
      "blockHash": "0x0d5027438ddf7782675a776ee6529a59b6ffa11b62ffda9e585f7e8dc210a809",
      "blockNumber": "0x14b1823",
      "gasUsed": "0x73858",
      "effectiveGasPrice": "0x1aef6c1b",
      "blobGasPrice": "0x20ccc68",
      "from": "0xf39fd6e51aad88f6f4ce6ab8827279cfffb92266",
      "to": "0xbd216513d74c8cf14cf4747e6aaa6420ff64ee9e",
      "contractAddress": null
    }
  ],
  "libraries": [],
  "pending": [],
  "returns": {},
  "timestamp": 1770058488422,
  "chain": 1,
  "commit": "290e97f"
}