{
  "transactions": [
    {
      "hash": "0x43fa1c4e28edf4ecb54255acdb61aa59782ce72e610e8e8dc1be429d367ea7fc",
      "transactionType": "CALL",
      "contractName": null,
      "contractAddress": "0xbd216513d74c8cf14cf4747e6aaa6420ff64ee9e",
      "function": "modifyLiquidities(bytes,uint256)",
      "arguments": [
        "0x0000000000000000000000000000000000000000000000000000000000000040000000000000000000000000000000000000000000000000000000000000008000000000000000000000000000000000000000000000000000000000000000030212120000000000000000000000000000000000000000000000000000000000000000000000000000000000000000000000000000000000000000000000000300000000000000000000000000000000000000000000000000000000000000600000000000000000000000000000000000000000000000000000000000000220000000000000000000000000000000000000000000000000000000000000026000000000000000000000000000000000000000000000000000000000000001a0000000000000000000000000b9b0c96e4e7181926d2a7ed331c9c346dfa59b4d000000000000000000000000cf6c6272e9e353fc1f3e9a747a7b7aade3c8338900000000000000000000000000000000000000000000000000000000000001f40000000000000000000000000000000000000000000000000000000000000005000000000000000000000000775708422797b42bd1017d1ccb67caba2cedaac0ffffffffffffffffffffffffffffffffffffffffffffffffffffffffffff8afdffffffffffffffffffffffffffffffffffffffffffffffffffffffffffffe4ee00000000000000000000000000000000000000000000000000000588462c085a00000000000000000000000000000000ffffffffffffffffffffffffffffffff00000000000000000000000000000000ffffffffffffffffffffffffffffffff000000000000000000000000f39fd6e51aad88f6f4ce6ab8827279cfffb92266000000000000000000000000000000000000000000000000000000000000018000000000000000000000000000000000000000000000000000000000000000000000000000000000000000000000000000000000000000000000000000000020000000000000000000000000b9b0c96e4e7181926d2a7ed331c9c346dfa59b4d0000000000000000000000000000000000000000000000000000000000000020000000000000000000000000cf6c6272e9e353fc1f3e9a747a7b7aade3c83389",
        "1737783332"
      ],
      "transaction": {
        "from": "0xf39fd6e51aad88f6f4ce6ab8827279cfffb92266",
        "to": "0xbd216513d74c8cf14cf4747e6aaa6420ff64ee9e",
        "gas": "0x9f916",
        "value": "0x0",
        "input": "0xdd46508f0000000000000000000000000000000000000000000000000000000000000040000000000000000000000000000000000000000000000000000000006794782400000000000000000000000000000000000000000000000000000000000003400000000000000000000000000000000000000000000000000000000000000040000000000000000000000000000000000000000000000000000000000000008000000000000000000000000000000000000000000000000000000000000000030212120000000000000000000000000000000000000000000000000000000000000000000000000000000000000000000000000000000000000000000000000300000000000000000000000000000000000000000000000000000000000000600000000000000000000000000000000000000000000000000000000000000220000000000000000000000000000000000000000000000000000000000000026000000000000000000000000000000000000000000000000000000000000001a0000000000000000000000000b9b0c96e4e7181926d2a7ed331c9c346dfa59b4d000000000000000000000000cf6c6272e9e353fc1f3e9a747a7b7aade3c8338900000000000000000000000000000000000000000000000000000000000001f40000000000000000000000000000000000000000000000000000000000000005000000000000000000000000775708422797b42bd1017d1ccb67caba2cedaac0ffffffffffffffffffffffffffffffffffffffffffffffffffffffffffff8afdffffffffffffffffffffffffffffffffffffffffffffffffffffffffffffe4ee00000000000000000000000000000000000000000000000000000588462c085a00000000000000000000000000000000ffffffffffffffffffffffffffffffff00000000000000000000000000000000ffffffffffffffffffffffffffffffff000000000000000000000000f39fd6e51aad88f6f4ce6ab8827279cfffb92266000000000000000000000000000000000000000000000000000000000000018000000000000000000000000000000000000000000000000000000000000000000000000000000000000000000000000000000000000000000000000000000020000000000000000000000000b9b0c96e4e7181926d2a7ed331c9c346dfa59b4d0000000000000000000000000000000000000000000000000000000000000020000000000000000000000000cf6c6272e9e353fc1f3e9a747a7b7aade3c83389",
        "nonce": "0x367",
        "chainId": "0x1"
      },
      "additionalContracts": [],
      "isFixedGasLimit": false
    }
  ],
  "receipts": [
    {
      "status": "0x1",
      "cumulativeGasUsed": "0x73864",
      "logs": [
        {
          "address": "0xbd216513d74c8cf14cf4747e6aaa6420ff64ee9e",
          "topics": [
            "0xddf252ad1be2c89b69c2b068fc378daa952ba7f163c4a11628f55a4df523b3ef",
            "0x0000000000000000000000000000000000000000000000000000000000000000",
            "0x000000000000000000000000f39fd6e51aad88f6f4ce6ab8827279cfffb92266",
            "0x000000000000000000000000000000000000000000000000000000000000000c"
          ],
          "data": "0x",
          "blockHash": "0x925e689504b3c50d641f2b9bf7fae666a9fa748367f65222fd4f716c4c77eeaf",
          "blockNumber": "0x14b1832",
          "blockTimestamp": "0x67946a17",
          "transactionHash": "0x43fa1c4e28edf4ecb54255acdb61aa59782ce72e610e8e8dc1be429d367ea7fc",
          "transactionIndex": "0x0",
          "logIndex": "0x0",
          "removed": false
        },
        {
          "address": "0x000000000004444c5dc75cb358380d2e3de08a90",
          "topics": [
            "0xf208f4912782fd25c7f114ca3723a2d5dd6f3bcc3ac8db5af63baa85f711d5ec",
            "0x10f968295adbff8393e64099c47501983ec64d9be08058c9be68d4eff887f4db",
            "0x000000000000000000000000bd216513d74c8cf14cf4747e6aaa6420ff64ee9e"
          ],
          "data": "0xffffffffffffffffffffffffffffffffffffffffffffffffffffffffffff8afdffffffffffffffffffffffffffffffffffffffffffffffffffffffffffffe4ee00000000000000000000000000000000000000000000000000000588462c085a000000000000000000000000000000000000000000000000000000000000000c",
          "blockHash": "0x925e689504b3c50d641f2b9bf7fae666a9fa748367f65222fd4f716c4c77eeaf",
          "blockNumber": "0x14b1832",
          "blockTimestamp": "0x67946a17",
          "transactionHash": "0x43fa1c4e28edf4ecb54255acdb61aa59782ce72e610e8e8dc1be429d367ea7fc",
          "transactionIndex": "0x0",
          "logIndex": "0x1",
          "removed": false
        },
        {
          "address": "0xb9b0c96e4e7181926d2a7ed331c9c346dfa59b4d",
          "topics": [
            "0xddf252ad1be2c89b69c2b068fc378daa952ba7f163c4a11628f55a4df523b3ef",
            "0x000000000000000000000000f39fd6e51aad88f6f4ce6ab8827279cfffb92266",
            "0x000000000000000000000000000000000004444c5dc75cb358380d2e3de08a90"
          ],
          "data": "0x0000000000000000000000000000000000000000000000000000048c27395000",
          "blockHash": "0x925e689504b3c50d641f2b9bf7fae666a9fa748367f65222fd4f716c4c77eeaf",
          "blockNumber": "0x14b1832",
          "blockTimestamp": "0x67946a17",
          "transactionHash": "0x43fa1c4e28edf4ecb54255acdb61aa59782ce72e610e8e8dc1be429d367ea7fc",
          "transactionIndex": "0x0",
          "logIndex": "0x2",
          "removed": false
        },
        {
          "address": "0xcf6c6272e9e353fc1f3e9a747a7b7aade3c83389",
          "topics": [
            "0xddf252ad1be2c89b69c2b068fc378daa952ba7f163c4a11628f55a4df523b3ef",
            "0x000000000000000000000000f39fd6e51aad88f6f4ce6ab8827279cfffb92266",
            "0x000000000000000000000000000000000004444c5dc75cb358380d2e3de08a90"
          ],
          "data": "0x0000000000000000000000000000000000000000000000000000013ca0c5cd96",
          "blockHash": "0x925e689504b3c50d641f2b9bf7fae666a9fa748367f65222fd4f716c4c77eeaf",
          "blockNumber": "0x14b1832",
          "blockTimestamp": "0x67946a17",
          "transactionHash": "0x43fa1c4e28edf4ecb54255acdb61aa59782ce72e610e8e8dc1be429d367ea7fc",
          "transactionIndex": "0x0",
          "logIndex": "0x3",
          "removed": false
        }
      ],
      "logsBloom": "0x00000040000000000000000040000000000002000000000000000000000004000000000020000200003000000000000400000000000000000000000000000000000000000000000000000008000000000000000000000000108000000000000000000000020000000000000100000800000000080000000000000010100008000000000801200000000000000000000000000000000000000000000000000000000004000000000000000000100000000000000000000400000000000000001000000802000000200000000000000000000000402000000000000000000020200000000000008000000000000000000004000000000000000000000100000000",
      "type": "0x2",
      "transactionHash": "0x43fa1c4e28edf4ecb54255acdb61aa59782ce72e610e8e8dc1be429d367ea7fc",
      "transactionIndex": "0x0",
      "blockHash": "0x925e689504b3c50d641f2b9bf7fae666a9fa748367f65222fd4f716c4c77eeaf",
      "blockNumber": "0x14b1832",
      "gasUsed": "0x73864",
      "effectiveGasPrice": "0x2e06069",
      "blobGasPrice": "0x59ae8e",
      "from": "0xf39fd6e51aad88f6f4ce6ab8827279cfffb92266",
      "to": "0xbd216513d74c8cf14cf4747e6aaa6420ff64ee9e",
      "contractAddress": null
    }
  ],
  "libraries": [],
  "pending": [],
  "returns": {},
  "timestamp": 1770328319622,
  "chain": 1,
  "commit": "de3e04a"
}