{
  "transactions": [
    {
      "hash": "0x00949dd02f73a1d8125c8e2a9b991955d4a300c1b20555f06eb07c15c22e5583",
      "transactionType": "CALL",
      "contractName": null,
      "contractAddress": "0xbd216513d74c8cf14cf4747e6aaa6420ff64ee9e",
      "function": "modifyLiquidities(bytes,uint256)",
      "arguments": [
        "0x0000000000000000000000000000000000000000000000000000000000000040000000000000000000000000000000000000000000000000000000000000008000000000000000000000000000000000000000000000000000000000000000030212120000000000000000000000000000000000000000000000000000000000000000000000000000000000000000000000000000000000000000000000000300000000000000000000000000000000000000000000000000000000000000600000000000000000000000000000000000000000000000000000000000000220000000000000000000000000000000000000000000000000000000000000026000000000000000000000000000000000000000000000000000000000000001a00000000000000000000000008abb0fb72155756625412fd1e943720956e52adb000000000000000000000000f93ddc4186828351b8d31623cc4f3700bf579f2500000000000000000000000000000000000000000000000000000000000001f400000000000000000000000000000000000000000000000000000000000000050000000000000000000000007e0c07eeabb2459d70dba5b8d100dca44c652ac0ffffffffffffffffffffffffffffffffffffffffffffffffffffffffffff8afdffffffffffffffffffffffffffffffffffffffffffffffffffffffffffffe4ee0000000000000000000000000000000000000000000000000000001e317abd2800000000000000000000000000000000ffffffffffffffffffffffffffffffff00000000000000000000000000000000ffffffffffffffffffffffffffffffff000000000000000000000000f39fd6e51aad88f6f4ce6ab8827279cfffb922660000000000000000000000000000000000000000000000000000000000000180000000000000000000000000000000000000000000000000000000000000000000000000000000000000000000000000000000000000000000000000000000200000000000000000000000008abb0fb72155756625412fd1e943720956e52adb0000000000000000000000000000000000000000000000000000000000000020000000000000000000000000f93ddc4186828351b8d31623cc4f3700bf579f25",
        "1770005170"
      ],
      "transaction": {
        "from": "0xf39fd6e51aad88f6f4ce6ab8827279cfffb92266",
        "to": "0xbd216513d74c8cf14cf4747e6aaa6420ff64ee9e",
        "value": "0x0",
        "input": "0xdd46508f000000000000000000000000000000000000000000000000000000000000004000000000000000000000000000000000000000000000000000000000698022b200000000000000000000000000000000000000000000000000000000000003400000000000000000000000000000000000000000000000000000000000000040000000000000000000000000000000000000000000000000000000000000008000000000000000000000000000000000000000000000000000000000000000030212120000000000000000000000000000000000000000000000000000000000000000000000000000000000000000000000000000000000000000000000000300000000000000000000000000000000000000000000000000000000000000600000000000000000000000000000000000000000000000000000000000000220000000000000000000000000000000000000000000000000000000000000026000000000000000000000000000000000000000000000000000000000000001a00000000000000000000000008abb0fb72155756625412fd1e943720956e52adb000000000000000000000000f93ddc4186828351b8d31623cc4f3700bf579f2500000000000000000000000000000000000000000000000000000000000001f400000000000000000000000000000000000000000000000000000000000000050000000000000000000000007e0c07eeabb2459d70dba5b8d100dca44c652ac0ffffffffffffffffffffffffffffffffffffffffffffffffffffffffffff8afdffffffffffffffffffffffffffffffffffffffffffffffffffffffffffffe4ee0000000000000000000000000000000000000000000000000000001e317abd2800000000000000000000000000000000ffffffffffffffffffffffffffffffff00000000000000000000000000000000ffffffffffffffffffffffffffffffff000000000000000000000000f39fd6e51aad88f6f4ce6ab8827279cfffb922660000000000000000000000000000000000000000000000000000000000000180000000000000000000000000000000000000000000000000000000000000000000000000000000000000000000000000000000000000000000000000000000200000000000000000000000008abb0fb72155756625412fd1e943720956e52adb0000000000000000000000000000000000000000000000000000000000000020000000000000000000000000f93ddc4186828351b8d31623cc4f3700bf579f25",
        "nonce": "0x1281",
        "chainId": "0x1"
      },
      "additionalContracts": [],
      "isFixedGasLimit": false
    }
  ],
  "receipts": [
    {
      "status": "0x1",
      "cumulativeGasUsed": "0x732aa",
      "logs": [
        {
          "address": "0xbd216513d74c8cf14cf4747e6aaa6420ff64ee9e",
          "topics": [
            "0xddf252ad1be2c89b69c2b068fc378daa952ba7f163c4a11628f55a4df523b3ef",
            "0x0000000000000000000000000000000000000000000000000000000000000000",
            "0x000000000000000000000000f39fd6e51aad88f6f4ce6ab8827279cfffb92266",
            "0x000000000000000000000000000000000000000000000000000000000002431d"
          ],
          "data": "0x",
          "blockHash": "0x9e1359937d765e2890413c8299e433f41635e49199395dbe06d429a5598b8b55",
          "blockNumber": "0x173c16b",
          "blockTimestamp": "0x698014a4",
          "transactionHash": "0x00949dd02f73a1d8125c8e2a9b991955d4a300c1b20555f06eb07c15c22e5583",
          "transactionIndex": "0x0",
          "logIndex": "0x0",
          "removed": false
        },
        {
          "address": "0x000000000004444c5dc75cb358380d2e3de08a90",
          "topics": [
            "0xf208f4912782fd25c7f114ca3723a2d5dd6f3bcc3ac8db5af63baa85f711d5ec",
            "0xa9b52f776c15c6ac361f1202c36f6599f20322d3d39b1492c82e4b8535d37137",
            "0x000000000000000000000000bd216513d74c8cf14cf4747e6aaa6420ff64ee9e"
          ],
          "data": "0xffffffffffffffffffffffffffffffffffffffffffffffffffffffffffff8afdffffffffffffffffffffffffffffffffffffffffffffffffffffffffffffe4ee0000000000000000000000000000000000000000000000000000001e317abd28000000000000000000000000000000000000000000000000000000000002431d",
          "blockHash": "0x9e1359937d765e2890413c8299e433f41635e49199395dbe06d429a5598b8b55",
          "blockNumber": "0x173c16b",
          "blockTimestamp": "0x698014a4",
          "transactionHash": "0x00949dd02f73a1d8125c8e2a9b991955d4a300c1b20555f06eb07c15c22e5583",
          "transactionIndex": "0x0",
          "logIndex": "0x1",
          "removed": false
        },
        {
          "address": "0x8abb0fb72155756625412fd1e943720956e52adb",
          "topics": [
            "0xddf252ad1be2c89b69c2b068fc378daa952ba7f163c4a11628f55a4df523b3ef",
            "0x000000000000000000000000f39fd6e51aad88f6f4ce6ab8827279cfffb92266",
            "0x000000000000000000000000000000000004444c5dc75cb358380d2e3de08a90"
          ],
          "data": "0x000000000000000000000000000000000000000000000000000000174876e800",
          "blockHash": "0x9e1359937d765e2890413c8299e433f41635e49199395dbe06d429a5598b8b55",
          "blockNumber": "0x173c16b",
          "blockTimestamp": "0x698014a4",
          "transactionHash": "0x00949dd02f73a1d8125c8e2a9b991955d4a300c1b20555f06eb07c15c22e5583",
          "transactionIndex": "0x0",
          "logIndex": "0x2",
          "removed": false
        },
        {
          "address": "0xf93ddc4186828351b8d31623cc4f3700bf579f25",
          "topics": [
            "0xddf252ad1be2c89b69c2b068fc378daa952ba7f163c4a11628f55a4df523b3ef",
            "0x000000000000000000000000f39fd6e51aad88f6f4ce6ab8827279cfffb92266",
            "0x000000000000000000000000000000000004444c5dc75cb358380d2e3de08a90"
          ],
          "data": "0x00000000000000000000000000000000000000000000000000000007107867c5",
          "blockHash": "0x9e1359937d765e2890413c8299e433f41635e49199395dbe06d429a5598b8b55",
          "blockNumber": "0x173c16b",
          "blockTimestamp": "0x698014a4",
          "transactionHash": "0x00949dd02f73a1d8125c8e2a9b991955d4a300c1b20555f06eb07c15c22e5583",
          "transactionIndex": "0x0",
          "logIndex": "0x3",
          "removed": false
        }
      ],
      "logsBloom": "0x00000040000000000000000000000000000000000000000040000000000000000000000022000000001000000000000400000000000000000000000000000000000000000000000000000808040000000000000000000000000000000040000000000000020000000000000100000800000000080000000000000010100008000000000801000000000000000000000020000000000000000000000000000000000004000000000000000000100000000000000000000200000000100000000000000802000000200002000000000000000000402000000000000000000020100000000000008000000000000000000004000008000000040000000000000000",
      "type": "0x2",
      "transactionHash": "0x00949dd02f73a1d8125c8e2a9b991955d4a300c1b20555f06eb07c15c22e5583",
      "transactionIndex": "0x0",
      "blockHash": "0x9e1359937d765e2890413c8299e433f41635e49199395dbe06d429a5598b8b55",
      "blockNumber": "0x173c16b",
      "gasUsed": "0x732aa",
      "effectiveGasPrice": "0x7dafe3",
      "blobGasPrice": "0x1",
      "from": "0xf39fd6e51aad88f6f4ce6ab8827279cfffb92266",
      "to": "0xbd216513d74c8cf14cf4747e6aaa6420ff64ee9e",
      "contractAddress": null
    }
  ],
  "libraries": [],
  "pending": [],
  "returns": {},
  "timestamp": 1770055455506,
  "chain": 1,
  "commit": "290e97f"
}