{
  "transactions": [
    {
      "hash": "0xb66bad58cdbe6d9f91bf50130064de1e35cb8778b5ca56d7e4083069e582f0dd",
      "transactionType": "CREATE",
      "contractName": "StressTestRouter",
      "contractAddress": "0x9923cf0c92eeb014ce0942a9e262202da19cc0f5",
      "function": null,
      "arguments": [
        "0x000000000004444c5dc75cB358380D2e3dE08A90"
      ],
      "transaction": {
        "from": "0x70997970c51812dc3a010c7d01b50e0d17dc79c8",
        "value": "0x0",
        "input": "0x60a034607357601f610abf38819003918201601f19168301916001600160401b03831184841017607757808492602094604052833981010312607357516001600160a01b0381168103607357608052604051610a33908161008c8239608051818181608b0152818161040601526105ab0152f35b5f80fd5b634e487b7160e01b5f52604160045260245ffdfe60806040526004361015610011575f80fd5b5f3560e01c80631e2817de14610435578063481c6a75146103f1576391dd73461461003a575f80fd5b346103ad5760203660031901126103ad5760043567ffffffffffffffff81116103ad57366023820112156103ad57806004013567ffffffffffffffff81116103ad578101903660248301116103ad577f00000000000000000000000000000000000000000000000000000000000000006001600160a01b0381169290338490036103c357610120838303126103ad576040516100d5816106a2565b6100e1602485016106fc565b815260a0601f1985850301126103ad57604051926100fe846106be565b61010a604486016106fc565b8452610118606486016106fc565b6020850152608485013562ffffff811681036103ad57604085015260a48501358060020b81036103ad57606085015260c48501356001600160a01b03811681036103ad5760808501526020820193845260609085900360bf1901126103ad5760405193610184856106a2565b60e48101359081151582036103ad5790855261010481013560208601526101240135936001600160a01b03851685036103ad57610237955f9560408301526040830191808352855191610210602098899461024b6040516101e588826106da565b838152601f1988013689830137604051633cf3645360e21b81529d8e97889687956004870190610734565b8051151560a4860152602081015160c4860152604001516001600160a01b031660e4850152565b610120610104840152610124830190610710565b03925af19586156103b8575f96610385575b5051511561030d578460801d600f0b5f81126102dd575b5084600f0b915f83136102b5575b505050505b604051918183015280825261029d6040836106da565b6102b1604051928284938452830190610710565b0390f35b925184015190516102d4936001600160a01b0391821692909116610997565b5f808080610282565b8351518251610307926001600160a01b039283169290911690859061030190610786565b926107c2565b5f610274565b84600f0b5f8112610359575b508460801d600f0b915f8313610333575b50505050610287565b9251519051610350936001600160a01b0391821692909116610997565b5f80808061032a565b8351850151825161037f926001600160a01b039283169290911690859061030190610786565b5f610319565b9095508481813d83116103b1575b61039d81836106da565b810103126103ad5751945f61025d565b5f80fd5b503d610393565b6040513d5f823e3d90fd5b60405162461bcd60e51b81526020600482015260066024820152654e6f7420504d60d01b6044820152606490fd5b346103ad575f3660031901126103ad576040517f00000000000000000000000000000000000000000000000000000000000000006001600160a01b03168152602090f35b346103ad57366003190161010081126103ad5760a0136103ad5760405161045b816106be565b6004356001600160a01b03811681036103ad5781526024356001600160a01b03811681036103ad57602082015260443562ffffff811681036103ad5760408201526064358060020b81036103ad5760608201526084356001600160a01b03811681036103ad57608082015260603660a31901126103ad576040516104de816106a2565b60a43580151581036103ad57815260c435602082015260e435916001600160a01b03831683036103ad57610573826105a69460405f95015260408051610523816106a2565b338152602081019485520190815261054960405193336020860152516040850190610734565b518051151560e08401526020810151610100840152604001516001600160a01b0316610120830152565b6101208152610584610140826106da565b604051809381926348c8949160e01b8352602060048401526024830190610710565b0381837f00000000000000000000000000000000000000000000000000000000000000006001600160a01b03165af19081156103b8575f91610604575b50602081519181808201938492010103126103ad5760209051604051908152f35b90503d805f833e61061581836106da565b8101906020818303126103ad5780519067ffffffffffffffff82116103ad570181601f820112156103ad5780519067ffffffffffffffff821161068e576040519261066a601f8401601f1916602001856106da565b828452602083830101116103ad57815f9260208093018386015e83010152816105e3565b634e487b7160e01b5f52604160045260245ffd5b6060810190811067ffffffffffffffff82111761068e57604052565b60a0810190811067ffffffffffffffff82111761068e57604052565b90601f8019910116810190811067ffffffffffffffff82111761068e57604052565b35906001600160a01b03821682036103ad57565b805180835260209291819084018484015e5f828201840152601f01601f1916010190565b80516001600160a01b03908116835260208083015182169084015260408083015162ffffff169084015260608083015160020b9084015260809182015116910152565b908160209103126103ad575190565b600160ff1b8114610796575f0390565b634e487b7160e01b5f52601160045260245ffd5b908160209103126103ad575180151581036103ad5790565b9192916001600160a01b0316806108305750604051630476982d60e21b81529250602091839160049183916001600160a01b03165af180156103b8576108055750565b6108269060203d602011610829575b61081e81836106da565b810190610777565b50565b503d610814565b6001600160a01b0390911691823b156103ad57604051632961046560e21b815260048101839052935a945f816024818389819bf180156103b857610982575b506001600160a01b031684308214610927576020929160649160405195869485936323b872dd60e01b8552600485015288602485015260448401525af1801561091c579160209184936108ef575b505b600460405180958193630476982d60e21b83525af19081156108e357506108055750565b604051903d90823e3d90fd5b61090e90833d8511610915575b61090681836106da565b8101906107aa565b505f6108bd565b503d6108fc565b6040513d85823e3d90fd5b9290506044602092604051948593849263a9059cbb60e01b845288600485015260248401525af1801561091c57916020918493610965575b506108bf565b61097b90833d85116109155761090681836106da565b505f61095f565b61098f9195505f906106da565b5f935f61086f565b91906001600160a01b0316803b156103ad57604051630b0d9c0960e01b81526001600160a01b03938416600482015291909216602482015260448101929092525f908290606490829084905af180156103b8576109f15750565b5f6109fb916106da565b56fea2646970667358221220ad8cb0128024c5f5bee14675f900b4bbccfe0bf48a0bf35889c25dc543e191cc64736f6c634300081a0033000000000000000000000000000000000004444c5dc75cb358380d2e3de08a90",
        "nonce": "0xf29",
        "chainId": "0x1"
      },
      "additionalContracts": [],
      "isFixedGasLimit": false
    },
    {
      "hash": "0x6d77bcdc4df72d9e4f28d930b9e9beac86b7cf0b74a7a0c250a4d69e532d40ae",
      "transactionType": "CALL",
      "contractName": null,
      "contractAddress": "0xd1620dac6d79be34f8500756b47cf91b1fa5cc8c",
      "function": "approve(address,uint256)",
      "arguments": [
        "0x9923CF0C92EEb014CE0942a9e262202DA19cC0F5",
        "115792089237316195423570985008687907853269984665640564039457584007913129639935"
      ],
      "transaction": {
        "from": "0x70997970c51812dc3a010c7d01b50e0d17dc79c8",
        "to": "0xd1620dac6d79be34f8500756b47cf91b1fa5cc8c",
        "value": "0x0",
        "input": "0x095ea7b30000000000000000000000009923cf0c92eeb014ce0942a9e262202da19cc0f5ffffffffffffffffffffffffffffffffffffffffffffffffffffffffffffffff",
        "nonce": "0xf2a",
        "chainId": "0x1"
      },
      "additionalContracts": [],
      "isFixedGasLimit": false
    },
    {
      "hash": "0xa2400a93aa3aec2426828f33414d228c64cef312cf81bc243932b0620f5f4d8c",
      "transactionType": "CALL",
      "contractName": null,
      "contractAddress": "0x9ed4f4724b521326a9d9d2420252440bd05556c4",
      "function": "approve(address,uint256)",
      "arguments": [
        "0x9923CF0C92EEb014CE0942a9e262202DA19cC0F5",
        "115792089237316195423570985008687907853269984665640564039457584007913129639935"
      ],
      "transaction": {
        "from": "0x70997970c51812dc3a010c7d01b50e0d17dc79c8",
        "to": "0x9ed4f4724b521326a9d9d2420252440bd05556c4",
        "value": "0x0",
        "input": "0x095ea7b30000000000000000000000009923cf0c92eeb014ce0942a9e262202da19cc0f5ffffffffffffffffffffffffffffffffffffffffffffffffffffffffffffffff",
        "nonce": "0xf2b",
        "chainId": "0x1"
      },
      "additionalContracts": [],
      "isFixedGasLimit": false
    },
    {
      "hash": "0x4c01fe64f06b3d02e64247f5ee3ef2677487be63a1a6c26036cc6e6c0d91b3dd",
      "transactionType": "CALL",
      "contractName": null,
      "contractAddress": "0xd1620dac6d79be34f8500756b47cf91b1fa5cc8c",
      "function": "approve(address,uint256)",
      "arguments": [
        "0x000000000004444c5dc75cB358380D2e3dE08A90",
        "115792089237316195423570985008687907853269984665640564039457584007913129639935"
      ],
      "transaction": {
        "from": "0x70997970c51812dc3a010c7d01b50e0d17dc79c8",
        "to": "0xd1620dac6d79be34f8500756b47cf91b1fa5cc8c",
        "value": "0x0",
        "input": "0x095ea7b3000000000000000000000000000000000004444c5dc75cb358380d2e3de08a90ffffffffffffffffffffffffffffffffffffffffffffffffffffffffffffffff",
        "nonce": "0xf2c",
        "chainId": "0x1"
      },
      "additionalContracts": [],
      "isFixedGasLimit": false
    },
    {
      "hash": "0x21daf470133c060cd66f6611c45f84455cc145bcc73b31a55839efb056a68202",
      "transactionType": "CALL",
      "contractName": null,
      "contractAddress": "0x9ed4f4724b521326a9d9d2420252440bd05556c4",
      "function": "approve(address,uint256)",
      "arguments": [
        "0x000000000004444c5dc75cB358380D2e3dE08A90",
        "115792089237316195423570985008687907853269984665640564039457584007913129639935"
      ],
      "transaction": {
        "from": "0x70997970c51812dc3a010c7d01b50e0d17dc79c8",
        "to": "0x9ed4f4724b521326a9d9d2420252440bd05556c4",
        "value": "0x0",
        "input": "0x095ea7b3000000000000000000000000000000000004444c5dc75cb358380d2e3de08a90ffffffffffffffffffffffffffffffffffffffffffffffffffffffffffffffff",
        "nonce": "0xf2d",
        "chainId": "0x1"
      },
      "additionalContracts": [],
      "isFixedGasLimit": false
    },
    {
      "hash": "0xcb3ebe81827bd86ca96a38d994b6c5b428e770575de7a8c8f9cefab01afc021a",
      "transactionType": "CALL",
      "contractName": "StressTestRouter",
      "contractAddress": "0x9923cf0c92eeb014ce0942a9e262202da19cc0f5",
      "function": "swap((address,address,uint24,int24,address),(bool,int256,uint160))",
      "arguments": [
        "(0x9ed4F4724b521326a9d9d2420252440bD05556c4, 0xD1620Dac6d79BE34F8500756B47cf91B1fA5Cc8C, 500, 5, 0x7e0C07EEabb2459D70dba5b8d100Dca44c652aC0)",
        "(false, 100000000, 1461446703485210103287273052203988822378723970341)"
      ],
      "transaction": {
        "from": "0x70997970c51812dc3a010c7d01b50e0d17dc79c8",
        "to": "0x9923cf0c92eeb014ce0942a9e262202da19cc0f5",
        "value": "0x0",
        "input": "0x1e2817de0000000000000000000000009ed4f4724b521326a9d9d2420252440bd05556c4000000000000000000000000d1620dac6d79be34f8500756b47cf91b1fa5cc8c00000000000000000000000000000000000000000000000000000000000001f400000000000000000000000000000000000000000000000000000000000000050000000000000000000000007e0c07eeabb2459d70dba5b8d100dca44c652ac000000000000000000000000000000000000000000000000000000000000000000000000000000000000000000000000000000000000000000000000005f5e100000000000000000000000000fffd8963efd1fc6a506488495d951d5263988d25",
        "nonce": "0xf2e",
        "chainId": "0x1"
      },
      "additionalContracts": [],
      "isFixedGasLimit": false
    },
    {
      "hash": "0x75e576a2cd1aed9fac5e9531fa522ab70a1e4ae80da253224c21a9df02626c80",
      "transactionType": "CALL",
      "contractName": "StressTestRouter",
      "contractAddress": "0x9923cf0c92eeb014ce0942a9e262202da19cc0f5",
      "function": "swap((address,address,uint24,int24,address),(bool,int256,uint160))",
      "arguments": [
        "(0x9ed4F4724b521326a9d9d2420252440bD05556c4, 0xD1620Dac6d79BE34F8500756B47cf91B1fA5Cc8C, 500, 5, 0x7e0C07EEabb2459D70dba5b8d100Dca44c652aC0)",
        "(true, 100000000, 4295128740)"
      ],
      "transaction": {
        "from": "0x70997970c51812dc3a010c7d01b50e0d17dc79c8",
        "to": "0x9923cf0c92eeb014ce0942a9e262202da19cc0f5",
        "value": "0x0",
        "input": "0x1e2817de0000000000000000000000009ed4f4724b521326a9d9d2420252440bd05556c4000000000000000000000000d1620dac6d79be34f8500756b47cf91b1fa5cc8c00000000000000000000000000000000000000000000000000000000000001f400000000000000000000000000000000000000000000000000000000000000050000000000000000000000007e0c07eeabb2459d70dba5b8d100dca44c652ac000000000000000000000000000000000000000000000000000000000000000010000000000000000000000000000000000000000000000000000000005f5e10000000000000000000000000000000000000000000000000000000001000276a4",
        "nonce": "0xf2f",
        "chainId": "0x1"
      },
      "additionalContracts": [],
      "isFixedGasLimit": false
    },
    {
      "hash": "0xe51d968df19cdc57452bb2d51e910cfab6d6af86fddc08235fbc0cee253413a9",
      "transactionType": "CALL",
      "contractName": "StressTestRouter",
      "contractAddress": "0x9923cf0c92eeb014ce0942a9e262202da19cc0f5",
      "function": "swap((address,address,uint24,int24,address),(bool,int256,uint160))",
      "arguments": [
        "(0x9ed4F4724b521326a9d9d2420252440bD05556c4, 0xD1620Dac6d79BE34F8500756B47cf91B1fA5Cc8C, 500, 5, 0x7e0C07EEabb2459D70dba5b8d100Dca44c652aC0)",
        "(false, -100000000, 1461446703485210103287273052203988822378723970341)"
      ],
      "transaction": {
        "from": "0x70997970c51812dc3a010c7d01b50e0d17dc79c8",
        "to": "0x9923cf0c92eeb014ce0942a9e262202da19cc0f5",
        "value": "0x0",
        "input": "0x1e2817de0000000000000000000000009ed4f4724b521326a9d9d2420252440bd05556c4000000000000000000000000d1620dac6d79be34f8500756b47cf91b1fa5cc8c00000000000000000000000000000000000000000000000000000000000001f400000000000000000000000000000000000000000000000000000000000000050000000000000000000000007e0c07eeabb2459d70dba5b8d100dca44c652ac00000000000000000000000000000000000000000000000000000000000000000fffffffffffffffffffffffffffffffffffffffffffffffffffffffffa0a1f00000000000000000000000000fffd8963efd1fc6a506488495d951d5263988d25",
        "nonce": "0xf30",
        "chainId": "0x1"
      },
      "additionalContracts": [],
      "isFixedGasLimit": false
    },
    {
      "hash": null,
      "transactionType": "CALL",
      "contractName": "StressTestRouter",
      "contractAddress": "0x9923cf0c92eeb014ce0942a9e262202da19cc0f5",
      "function": "swap((address,address,uint24,int24,address),(bool,int256,uint160))",
      "arguments": [
        "(0x9ed4F4724b521326a9d9d2420252440bD05556c4, 0xD1620Dac6d79BE34F8500756B47cf91B1fA5Cc8C, 500, 5, 0x7e0C07EEabb2459D70dba5b8d100Dca44c652aC0)",
        "(true, -100000000, 4295128740)"
      ],
      "transaction": {
        "from": "0x70997970c51812dc3a010c7d01b50e0d17dc79c8",
        "to": "0x9923cf0c92eeb014ce0942a9e262202da19cc0f5",
        "value": "0x0",
        "input": "0x1e2817de0000000000000000000000009ed4f4724b521326a9d9d2420252440bd05556c4000000000000000000000000d1620dac6d79be34f8500756b47cf91b1fa5cc8c00000000000000000000000000000000000000000000000000000000000001f400000000000000000000000000000000000000000000000000000000000000050000000000000000000000007e0c07eeabb2459d70dba5b8d100dca44c652ac00000000000000000000000000000000000000000000000000000000000000001fffffffffffffffffffffffffffffffffffffffffffffffffffffffffa0a1f0000000000000000000000000000000000000000000000000000000001000276a4",
        "nonce": "0xf31",
        "chainId": "0x1"
      },
      "additionalContracts": [],
      "isFixedGasLimit": false
    }
  ],
  "receipts": [
    {
      "status": "0x1",
      "cumulativeGasUsed": "0x972d7",
      "logs": [],
      "logsBloom": "0x00000000000000000000000000000000000000000000000000000000000000000000000000000000000000000000000000000000000000000000000000000000000000000000000000000000000000000000000000000000000000000000000000000000000000000000000000000000000000000000000000000000000000000000000000000000000000000000000000000000000000000000000000000000000000000000000000000000000000000000000000000000000000000000000000000000000000000000000000000000000000000000000000000000000000000000000000000000000000000000000000000000000000000000000000000000",
      "type": "0x2",
      "transactionHash": "0xb66bad58cdbe6d9f91bf50130064de1e35cb8778b5ca56d7e4083069e582f0dd",
      "transactionIndex": "0x0",
      "blockHash": "0x3cda55c2b3d9de69e4bdb9bd804d1cb2f6c6ad868795299071c81941f5881f8c",
      "blockNumber": "0x173c15d",
      "gasUsed": "0x972d7",
      "effectiveGasPrice": "0x3155833",
      "blobGasPrice": "0x1",
      "from": "0x70997970c51812dc3a010c7d01b50e0d17dc79c8",
      "to": null,
      "contractAddress": "0x9923cf0c92eeb014ce0942a9e262202da19cc0f5"
    },
    {
      "status": "0x1",
      "cumulativeGasUsed": "0xb4bf",
      "logs": [
        {
          "address": "0xd1620dac6d79be34f8500756b47cf91b1fa5cc8c",
          "topics": [
            "0x8c5be1e5ebec7d5bd14f71427d1e84f3dd0314c0f7b2291e5b200ac8c7c3b925",
            "0x00000000000000000000000070997970c51812dc3a010c7d01b50e0d17dc79c8",
            "0x0000000000000000000000009923cf0c92eeb014ce0942a9e262202da19cc0f5"
          ],
          "data": "0xffffffffffffffffffffffffffffffffffffffffffffffffffffffffffffffff",
          "blockHash": "0x742bae4790baa7e4ef6693e10041afcb4d0315cf9f0991a3fcf83b10cec41726",
          "blockNumber": "0x173c15e",
          "blockTimestamp": "0x697fa19a",
          "transactionHash": "0x6d77bcdc4df72d9e4f28d930b9e9beac86b7cf0b74a7a0c250a4d69e532d40ae",
          "transactionIndex": "0x0",
          "logIndex": "0x0",
          "removed": false
        }
      ],
      "logsBloom": "0x00000000000000008002000000000000000000000000000000000000000000000000000000000000000000000000000000000000000000000000000000200000000000000000000000000000000000000000000000000000000000004000000000000800000000001000000000000000000000000000000000000000000000000000002000000000000000000000000000000000000000000000000000000000020000000000000000000000000000000000000000000000000000000000000000000000000000000000000000000000000000000000004000000000000000000010000000000000000000000000000001200000000000000000000000000000",
      "type": "0x2",
      "transactionHash": "0x6d77bcdc4df72d9e4f28d930b9e9beac86b7cf0b74a7a0c250a4d69e532d40ae",
      "transactionIndex": "0x0",
      "blockHash": "0x742bae4790baa7e4ef6693e10041afcb4d0315cf9f0991a3fcf83b10cec41726",
      "blockNumber": "0x173c15e",
      "gasUsed": "0xb4bf",
      "effectiveGasPrice": "0x2b4b742",
      "blobGasPrice": "0x1",
      "from": "0x70997970c51812dc3a010c7d01b50e0d17dc79c8",
      "to": "0xd1620dac6d79be34f8500756b47cf91b1fa5cc8c",
      "contractAddress": null
    },
    {
      "status": "0x1",
      "cumulativeGasUsed": "0xb4a9",
      "logs": [
        {
          "address": "0x9ed4f4724b521326a9d9d2420252440bd05556c4",
          "topics": [
            "0x8c5be1e5ebec7d5bd14f71427d1e84f3dd0314c0f7b2291e5b200ac8c7c3b925",
            "0x00000000000000000000000070997970c51812dc3a010c7d01b50e0d17dc79c8",
            "0x0000000000000000000000009923cf0c92eeb014ce0942a9e262202da19cc0f5"
          ],
          "data": "0xffffffffffffffffffffffffffffffffffffffffffffffffffffffffffffffff",
          "blockHash": "0xeb5936e43c4a61b36ec5e4a5494c3e4b50bcaa8ca1d704e60a43830e9fe78649",
          "blockNumber": "0x173c15f",
          "blockTimestamp": "0x697fa19a",
          "transactionHash": "0xa2400a93aa3aec2426828f33414d228c64cef312cf81bc243932b0620f5f4d8c",
          "transactionIndex": "0x0",
          "logIndex": "0x0",
          "removed": false
        }
      ],
      "logsBloom": "0x00000000004000000006000000000000000000000000000000000000000000000000000000000000000000000000000000000000000000000000000000200000000000000000000000000000000000000000000000000000000000000000000000000800000000001000000000000000000000000000000000000000000000000000020000000000000000000000000000000000000000000000000000000000020000000000000000000000000000000000000000000000000000000000000000000000000000000000000000000000000000000000004000000000000000000010000000000000000000000000000001200000000000000000000000000000",
      "type": "0x2",
      "transactionHash": "0xa2400a93aa3aec2426828f33414d228c64cef312cf81bc243932b0620f5f4d8c",
      "transactionIndex": "0x0",
      "blockHash": "0xeb5936e43c4a61b36ec5e4a5494c3e4b50bcaa8ca1d704e60a43830e9fe78649",
      "blockNumber": "0x173c15f",
      "gasUsed": "0xb4a9",
      "effectiveGasPrice": "0x25e4346",
      "blobGasPrice": "0x1",
      "from": "0x70997970c51812dc3a010c7d01b50e0d17dc79c8",
      "to": "0x9ed4f4724b521326a9d9d2420252440bd05556c4",
      "contractAddress": null
    },
    {
      "status": "0x1",
      "cumulativeGasUsed": "0xb483",
      "logs": [
        {
          "address": "0xd1620dac6d79be34f8500756b47cf91b1fa5cc8c",
          "topics": [
            "0x8c5be1e5ebec7d5bd14f71427d1e84f3dd0314c0f7b2291e5b200ac8c7c3b925",
            "0x00000000000000000000000070997970c51812dc3a010c7d01b50e0d17dc79c8",
            "0x000000000000000000000000000000000004444c5dc75cb358380d2e3de08a90"
          ],
          "data": "0xffffffffffffffffffffffffffffffffffffffffffffffffffffffffffffffff",
          "blockHash": "0xf1b66533933410762cd0d3b2b34ef6a6afcd1165fa452d5415ae56f9a26a5198",
          "blockNumber": "0x173c160",
          "blockTimestamp": "0x697fa19a",
          "transactionHash": "0x4c01fe64f06b3d02e64247f5ee3ef2677487be63a1a6c26036cc6e6c0d91b3dd",
          "transactionIndex": "0x0",
          "logIndex": "0x0",
          "removed": false
        }
      ],
      "logsBloom": "0x00000000000000008002000000000000000000000000000000000000000000000000000000000000001000000000000000000000000000000000000000200000000000000000000000000000000000000000000000000000000000004000000000000800000000000000000000000000000000000000000000000000000000000000002800000000000000000000000000000000000000000000000000000000020000000000000000000000000000000000000000000000000000000000000000000000000000000000000000000000000000400000000000000000000000000010000000000000000000000000000001000000000000000000000000000000",
      "type": "0x2",
      "transactionHash": "0x4c01fe64f06b3d02e64247f5ee3ef2677487be63a1a6c26036cc6e6c0d91b3dd",
      "transactionIndex": "0x0",
      "blockHash": "0xf1b66533933410762cd0d3b2b34ef6a6afcd1165fa452d5415ae56f9a26a5198",
      "blockNumber": "0x173c160",
      "gasUsed": "0xb483",
      "effectiveGasPrice": "0x2129981",
      "blobGasPrice": "0x1",
      "from": "0x70997970c51812dc3a010c7d01b50e0d17dc79c8",
      "to": "0xd1620dac6d79be34f8500756b47cf91b1fa5cc8c",
      "contractAddress": null
    },
    {
      "status": "0x1",
      "cumulativeGasUsed": "0xb46d",
      "logs": [
        {
          "address": "0x9ed4f4724b521326a9d9d2420252440bd05556c4",
          "topics": [
            "0x8c5be1e5ebec7d5bd14f71427d1e84f3dd0314c0f7b2291e5b200ac8c7c3b925",
            "0x00000000000000000000000070997970c51812dc3a010c7d01b50e0d17dc79c8",
            "0x000000000000000000000000000000000004444c5dc75cb358380d2e3de08a90"
          ],
          "data": "0xffffffffffffffffffffffffffffffffffffffffffffffffffffffffffffffff",
          "blockHash": "0x4e913de3f308c0877e2e9b23e0afecc254194f55a42d838526f698ce12d89547",
          "blockNumber": "0x173c161",
          "blockTimestamp": "0x697fa19a",
          "transactionHash": "0x21daf470133c060cd66f6611c45f84455cc145bcc73b31a55839efb056a68202",
          "transactionIndex": "0x0",
          "logIndex": "0x0",
          "removed": false
        }
      ],
      "logsBloom": "0x00000000004000000006000000000000000000000000000000000000000000000000000000000000001000000000000000000000000000000000000000200000000000000000000000000000000000000000000000000000000000000000000000000800000000000000000000000000000000000000000000000000000000000000020800000000000000000000000000000000000000000000000000000000020000000000000000000000000000000000000000000000000000000000000000000000000000000000000000000000000000400000000000000000000000000010000000000000000000000000000001000000000000000000000000000000",
      "type": "0x2",
      "transactionHash": "0x21daf470133c060cd66f6611c45f84455cc145bcc73b31a55839efb056a68202",
      "transactionIndex": "0x0",
      "blockHash": "0x4e913de3f308c0877e2e9b23e0afecc254194f55a42d838526f698ce12d89547",
      "blockNumber": "0x173c161",
      "gasUsed": "0xb46d",
      "effectiveGasPrice": "0x1d06134",
      "blobGasPrice": "0x1",
      "from": "0x70997970c51812dc3a010c7d01b50e0d17dc79c8",
      "to": "0x9ed4f4724b521326a9d9d2420252440bd05556c4",
      "contractAddress": null
    },
    {
      "status": "0x1",
      "cumulativeGasUsed": "0x2a763",
      "logs": [
        {
          "address": "0x000000000004444c5dc75cb358380d2e3de08a90",
          "topics": [
            "0x40e9cecb9f5f1f1c5b9c97dec2917b7ee92e57ba5563708daca94dd84ad7112f",
            "0x3509745444ed1275bf3cc6196dcab60943ac6b87c5b249d3e64fa8e35e5b5f69",
            "0x0000000000000000000000009923cf0c92eeb014ce0942a9e262202da19cc0f5"
          ],
          "data": "0x0000000000000000000000000000000000000000000000000000000005f5e100ffffffffffffffffffffffffffffffffffffffffffffffffffffffffe367fa8a0000000000000000000000000000000000000002310ac4dbccb80f3f3c80a69e0000000000000000000000000000000000000000000000000000001e1717e9e30000000000000000000000000000000000000000000000000000000000003d4d00000000000000000000000000000000000000000000000000000000000001f4",
          "blockHash": "0xfdcc6d0fabc23bcbff717a3e1f23b26501eac508bb88347470be0ab599073f4a",
          "blockNumber": "0x173c162",
          "blockTimestamp": "0x697fa19a",
          "transactionHash": "0xcb3ebe81827bd86ca96a38d994b6c5b428e770575de7a8c8f9cefab01afc021a",
          "transactionIndex": "0x0",
          "logIndex": "0x0",
          "removed": false
        },
        {
          "address": "0xd1620dac6d79be34f8500756b47cf91b1fa5cc8c",
          "topics": [
            "0xddf252ad1be2c89b69c2b068fc378daa952ba7f163c4a11628f55a4df523b3ef",
            "0x00000000000000000000000070997970c51812dc3a010c7d01b50e0d17dc79c8",
            "0x000000000000000000000000000000000004444c5dc75cb358380d2e3de08a90"
          ],
          "data": "0x000000000000000000000000000000000000000000000000000000001c980576",
          "blockHash": "0xfdcc6d0fabc23bcbff717a3e1f23b26501eac508bb88347470be0ab599073f4a",
          "blockNumber": "0x173c162",
          "blockTimestamp": "0x697fa19a",
          "transactionHash": "0xcb3ebe81827bd86ca96a38d994b6c5b428e770575de7a8c8f9cefab01afc021a",
          "transactionIndex": "0x0",
          "logIndex": "0x1",
          "removed": false
        },
        {
          "address": "0x9ed4f4724b521326a9d9d2420252440bd05556c4",
          "topics": [
            "0xddf252ad1be2c89b69c2b068fc378daa952ba7f163c4a11628f55a4df523b3ef",
            "0x000000000000000000000000000000000004444c5dc75cb358380d2e3de08a90",
            "0x00000000000000000000000070997970c51812dc3a010c7d01b50e0d17dc79c8"
          ],
          "data": "0x0000000000000000000000000000000000000000000000000000000005f5e100",
          "blockHash": "0xfdcc6d0fabc23bcbff717a3e1f23b26501eac508bb88347470be0ab599073f4a",
          "blockNumber": "0x173c162",
          "blockTimestamp": "0x697fa19a",
          "transactionHash": "0xcb3ebe81827bd86ca96a38d994b6c5b428e770575de7a8c8f9cefab01afc021a",
          "transactionIndex": "0x0",
          "logIndex": "0x2",
          "removed": false
        }
      ],
      "logsBloom": "0x00000000004000008006000000000000000000000000000000000000000000000000000020000000001000000000000000000000040000000000000000008000000000000000000000000008000000000000000000000020000000004000000000000800000000009000000000000000000000000000000000000010000000000000022800000000000000000000000000000000000000000000000000000000000000000000000000000000100000000000000000000000000000000000000000000802000000000000000000000000000000400000004000000000000000000000000000000000004000000000000001200100000000000000000000000000",
      "type": "0x2",
      "transactionHash": "0xcb3ebe81827bd86ca96a38d994b6c5b428e770575de7a8c8f9cefab01afc021a",
      "transactionIndex": "0x0",
      "blockHash": "0xfdcc6d0fabc23bcbff717a3e1f23b26501eac508bb88347470be0ab599073f4a",
      "blockNumber": "0x173c162",
      "gasUsed": "0x2a763",
      "effectiveGasPrice": "0x1966caa",
      "blobGasPrice": "0x1",
      "from": "0x70997970c51812dc3a010c7d01b50e0d17dc79c8",
      "to": "0x9923cf0c92eeb014ce0942a9e262202da19cc0f5",
      "contractAddress": null
    },
    {
      "status": "0x1",
      "cumulativeGasUsed": "0x2542e",
      "logs": [
        {
          "address": "0x000000000004444c5dc75cb358380d2e3de08a90",
          "topics": [
            "0x40e9cecb9f5f1f1c5b9c97dec2917b7ee92e57ba5563708daca94dd84ad7112f",
            "0x3509745444ed1275bf3cc6196dcab60943ac6b87c5b249d3e64fa8e35e5b5f69",
            "0x0000000000000000000000009923cf0c92eeb014ce0942a9e262202da19cc0f5"
          ],
          "data": "0xfffffffffffffffffffffffffffffffffffffffffffffffffffffffffec208e10000000000000000000000000000000000000000000000000000000005f5e100000000000000000000000000000000000000000230d80f0f999912f2d6a3d35c0000000000000000000000000000000000000000000000000000001e1717e9e30000000000000000000000000000000000000000000000000000000000003d4600000000000000000000000000000000000000000000000000000000000001f4",
          "blockHash": "0xbf8e2e71bf45fd3fafb82f12269f736d9494213258a989ba5d038b0f64f7335f",
          "blockNumber": "0x173c163",
          "blockTimestamp": "0x697fa19a",
          "transactionHash": "0x75e576a2cd1aed9fac5e9531fa522ab70a1e4ae80da253224c21a9df02626c80",
          "transactionIndex": "0x0",
          "logIndex": "0x0",
          "removed": false
        },
        {
          "address": "0x9ed4f4724b521326a9d9d2420252440bd05556c4",
          "topics": [
            "0xddf252ad1be2c89b69c2b068fc378daa952ba7f163c4a11628f55a4df523b3ef",
            "0x00000000000000000000000070997970c51812dc3a010c7d01b50e0d17dc79c8",
            "0x000000000000000000000000000000000004444c5dc75cb358380d2e3de08a90"
          ],
          "data": "0x00000000000000000000000000000000000000000000000000000000013df71f",
          "blockHash": "0xbf8e2e71bf45fd3fafb82f12269f736d9494213258a989ba5d038b0f64f7335f",
          "blockNumber": "0x173c163",
          "blockTimestamp": "0x697fa19a",
          "transactionHash": "0x75e576a2cd1aed9fac5e9531fa522ab70a1e4ae80da253224c21a9df02626c80",
          "transactionIndex": "0x0",
          "logIndex": "0x1",
          "removed": false
        },
        {
          "address": "0xd1620dac6d79be34f8500756b47cf91b1fa5cc8c",
          "topics": [
            "0xddf252ad1be2c89b69c2b068fc378daa952ba7f163c4a11628f55a4df523b3ef",
            "0x000000000000000000000000000000000004444c5dc75cb358380d2e3de08a90",
            "0x00000000000000000000000070997970c51812dc3a010c7d01b50e0d17dc79c8"
          ],
          "data": "0x0000000000000000000000000000000000000000000000000000000005f5e100",
          "blockHash": "0xbf8e2e71bf45fd3fafb82f12269f736d9494213258a989ba5d038b0f64f7335f",
          "blockNumber": "0x173c163",
          "blockTimestamp": "0x697fa19a",
          "transactionHash": "0x75e576a2cd1aed9fac5e9531fa522ab70a1e4ae80da253224c21a9df02626c80",
          "transactionIndex": "0x0",
          "logIndex": "0x2",
          "removed": false
        }
      ],
      "logsBloom": "0x00000000004000008006000000000000000000000000000000000000000000000000000020000000001000000000000000000000040000000000000000008000000000000000000000000008000000000000000000000020000000004000000000000800000000009000000000000000000000000000000000000010000000000000022800000000000000000000000000000000000000000000000000000000000000000000000000000000100000000000000000000000000000000000000000000802000000000000000000000000000000400000004000000000000000000000000000000000004000000000000001200100000000000000000000000000",
      "type": "0x2",
      "transactionHash": "0x75e576a2cd1aed9fac5e9531fa522ab70a1e4ae80da253224c21a9df02626c80",
      "transactionIndex": "0x0",
      "blockHash": "0xbf8e2e71bf45fd3fafb82f12269f736d9494213258a989ba5d038b0f64f7335f",
      "blockNumber": "0x173c163",
      "gasUsed": "0x2542e",
      "effectiveGasPrice": "0x163eb36",
      "blobGasPrice": "0x1",
      "from": "0x70997970c51812dc3a010c7d01b50e0d17dc79c8",
      "to": "0x9923cf0c92eeb014ce0942a9e262202da19cc0f5",
      "contractAddress": null
    },
    {
      "status": "0x1",
      "cumulativeGasUsed": "0x21104",
      "logs": [
        {
          "address": "0x000000000004444c5dc75cb358380d2e3de08a90",
          "topics": [
            "0x40e9cecb9f5f1f1c5b9c97dec2917b7ee92e57ba5563708daca94dd84ad7112f",
            "0x3509745444ed1275bf3cc6196dcab60943ac6b87c5b249d3e64fa8e35e5b5f69",
            "0x0000000000000000000000009923cf0c92eeb014ce0942a9e262202da19cc0f5"
          ],
          "data": "0x00000000000000000000000000000000000000000000000000000000013da5bffffffffffffffffffffffffffffffffffffffffffffffffffffffffffa0a1f000000000000000000000000000000000000000002310abe5e212c656492fac7ca0000000000000000000000000000000000000000000000000000001e1717e9e30000000000000000000000000000000000000000000000000000000000003d4d00000000000000000000000000000000000000000000000000000000000001f4",
          "blockHash": "0x4bb757773d95eee0f92cd83367a70619cf87804bafede89ff4558d7106630e0d",
          "blockNumber": "0x173c164",
          "blockTimestamp": "0x697fa19a",
          "transactionHash": "0xe51d968df19cdc57452bb2d51e910cfab6d6af86fddc08235fbc0cee253413a9",
          "transactionIndex": "0x0",
          "logIndex": "0x0",
          "removed": false
        },
        {
          "address": "0xd1620dac6d79be34f8500756b47cf91b1fa5cc8c",
          "topics": [
            "0xddf252ad1be2c89b69c2b068fc378daa952ba7f163c4a11628f55a4df523b3ef",
            "0x00000000000000000000000070997970c51812dc3a010c7d01b50e0d17dc79c8",
            "0x000000000000000000000000000000000004444c5dc75cb358380d2e3de08a90"
          ],
          "data": "0x0000000000000000000000000000000000000000000000000000000005f5e100",
          "blockHash": "0x4bb757773d95eee0f92cd83367a70619cf87804bafede89ff4558d7106630e0d",
          "blockNumber": "0x173c164",
          "blockTimestamp": "0x697fa19a",
          "transactionHash": "0xe51d968df19cdc57452bb2d51e910cfab6d6af86fddc08235fbc0cee253413a9",
          "transactionIndex": "0x0",
          "logIndex": "0x1",
          "removed": false
        },
        {
          "address": "0x9ed4f4724b521326a9d9d2420252440bd05556c4",
          "topics": [
            "0xddf252ad1be2c89b69c2b068fc378daa952ba7f163c4a11628f55a4df523b3ef",
            "0x000000000000000000000000000000000004444c5dc75cb358380d2e3de08a90",
            "0x00000000000000000000000070997970c51812dc3a010c7d01b50e0d17dc79c8"
          ],
          "data": "0x00000000000000000000000000000000000000000000000000000000013da5bf",
          "blockHash": "0x4bb757773d95eee0f92cd83367a70619cf87804bafede89ff4558d7106630e0d",
          "blockNumber": "0x173c164",
          "blockTimestamp": "0x697fa19a",
          "transactionHash": "0xe51d968df19cdc57452bb2d51e910cfab6d6af86fddc08235fbc0cee253413a9",
          "transactionIndex": "0x0",
          "logIndex": "0x2",
          "removed": false
        }
      ],
      "logsBloom": "0x00000000004000008006000000000000000000000000000000000000000000000000000020000000001000000000000000000000040000000000000000008000000000000000000000000008000000000000000000000020000000004000000000000800000000009000000000000000000000000000000000000010000000000000022800000000000000000000000000000000000000000000000000000000000000000000000000000000100000000000000000000000000000000000000000000802000000000000000000000000000000400000004000000000000000000000000000000000004000000000000001200100000000000000000000000000",
      "type": "0x2",
      "transactionHash": "0xe51d968df19cdc57452bb2d51e910cfab6d6af86fddc08235fbc0cee253413a9",
      "transactionIndex": "0x0",
      "blockHash": "0x4bb757773d95eee0f92cd83367a70619cf87804bafede89ff4558d7106630e0d",
      "blockNumber": "0x173c164",
      "gasUsed": "0x21104",
      "effectiveGasPrice": "0x137a87c",
      "blobGasPrice": "0x1",
      "from": "0x70997970c51812dc3a010c7d01b50e0d17dc79c8",
      "to": "0x9923cf0c92eeb014ce0942a9e262202da19cc0f5",
      "contractAddress": null
    }
  ],
  "libraries": [],
  "pending": [],
  "returns": {},
  "timestamp": 1770030146517,
  "chain": 1,
  "commit": "290e97f"
}