{
  "transactions": [
    {
      "hash": "0x8ff92205220613b45aef474985c00f47a2f65067dc851086a462904a5ee29d13",
      "transactionType": "CREATE",
      "contractName": "SimpleSwapRouter",
      "contractAddress": "0xf9ffccdb71d68eeba284e6b8cbf35146f018c9b9",
      "function": null,
      "arguments": [
        "0x000000000004444c5dc75cB358380D2e3dE08A90"
      ],
      "transaction": {
        "from": "0x70997970c51812dc3a010c7d01b50e0d17dc79c8",
        "gas": "0xbfcc8",
        "value": "0x0",
        "input": "0x60a034607357601f610a7a38819003918201601f19168301916001600160401b03831184841017607757808492602094604052833981010312607357516001600160a01b03811681036073576080526040516109ee908161008c8239608051818181608b015281816103b601526105560152f35b5f80fd5b634e487b7160e01b5f52604160045260245ffdfe60806040526004361015610011575f80fd5b5f3560e01c80631e2817de146103e5578063481c6a75146103a1576391dd73461461003a575f80fd5b3461035d57602036600319011261035d5760043567ffffffffffffffff811161035d573660238201121561035d57806004013567ffffffffffffffff811161035d5781019036602483011161035d577f00000000000000000000000000000000000000000000000000000000000000006001600160a01b038116929033849003610373576101208383031261035d57604051906100d68261064d565b6100e2602485016106a7565b825260a0601f19858503011261035d57604051926100ff84610669565b61010b604486016106a7565b8452610119606486016106a7565b6020850152608485013562ffffff8116810361035d57604085015260a48501358060020b810361035d57606085015260c48501356001600160a01b038116810361035d5760808501526020830193845260609085900360bf19011261035d57604051936101858561064d565b60e481013590811515820361035d5790855261010481013560208601526101240135936001600160a01b038516850361035d57610238955f9560408301526040840191808352855191610211602098899461024c6040516101e68882610685565b838152601f1988013689830137604051633cf3645360e21b81529d8e978896879560048701906106df565b8051151560a4860152602081015160c4860152604001516001600160a01b031660e4850152565b6101206101048401526101248301906106bb565b03925af1958615610368575f96610335575b505151156102e55782515182516102b79491610298916001600160a01b0391821691168461028f60808b901d610731565b600f0b9261077d565b518401519151600f86900b926001600160a01b03918216929116610952565b60405191818301528082526102cd604083610685565b6102e16040519282849384528301906106bb565b0390f35b825184015182516103309491610310916001600160a01b0391821691168461028f600f8b900b610731565b51519151608086901d600f0b926001600160a01b03918216929116610952565b6102b7565b9095508481813d8311610361575b61034d8183610685565b8101031261035d5751945f61025e565b5f80fd5b503d610343565b6040513d5f823e3d90fd5b60405162461bcd60e51b81526020600482015260066024820152654e6f7420504d60d01b6044820152606490fd5b3461035d575f36600319011261035d576040517f00000000000000000000000000000000000000000000000000000000000000006001600160a01b03168152602090f35b3660031901610100811261035d5760a01361035d5760405161040681610669565b6004356001600160a01b038116810361035d5781526024356001600160a01b038116810361035d57602082015260443562ffffff8116810361035d5760408201526064358060020b810361035d5760608201526084356001600160a01b038116810361035d57608082015260603660a319011261035d576040516104898161064d565b60a435801515810361035d57815260c435602082015260e435916001600160a01b038316830361035d5761051e826105519460405f950152604080516104ce8161064d565b33815260208101948552019081526104f4604051933360208601525160408501906106df565b518051151560e08401526020810151610100840152604001516001600160a01b0316610120830152565b610120815261052f61014082610685565b604051809381926348c8949160e01b83526020600484015260248301906106bb565b0381837f00000000000000000000000000000000000000000000000000000000000000006001600160a01b03165af1908115610368575f916105af575b506020815191818082019384920101031261035d5760209051604051908152f35b90503d805f833e6105c08183610685565b81019060208183031261035d5780519067ffffffffffffffff821161035d570181601f8201121561035d5780519067ffffffffffffffff82116106395760405192610615601f8401601f191660200185610685565b8284526020838301011161035d57815f9260208093018386015e830101528161058e565b634e487b7160e01b5f52604160045260245ffd5b6060810190811067ffffffffffffffff82111761063957604052565b60a0810190811067ffffffffffffffff82111761063957604052565b90601f8019910116810190811067ffffffffffffffff82111761063957604052565b35906001600160a01b038216820361035d57565b805180835260209291819084018484015e5f828201840152601f01601f1916010190565b80516001600160a01b03908116835260208083015182169084015260408083015162ffffff169084015260608083015160020b9084015260809182015116910152565b9081602091031261035d575190565b600f0b6f7fffffffffffffffffffffffffffffff198114610751575f0390565b634e487b7160e01b5f52601160045260245ffd5b9081602091031261035d5751801515810361035d5790565b9192916001600160a01b0316806107eb5750604051630476982d60e21b81529250602091839160049183916001600160a01b03165af18015610368576107c05750565b6107e19060203d6020116107e4575b6107d98183610685565b810190610722565b50565b503d6107cf565b6001600160a01b0390911691823b1561035d57604051632961046560e21b815260048101839052935a945f816024818389819bf180156103685761093d575b506001600160a01b0316843082146108e2576020929160649160405195869485936323b872dd60e01b8552600485015288602485015260448401525af180156108d7579160209184936108aa575b505b600460405180958193630476982d60e21b83525af190811561089e57506107c05750565b604051903d90823e3d90fd5b6108c990833d85116108d0575b6108c18183610685565b810190610765565b505f610878565b503d6108b7565b6040513d85823e3d90fd5b9290506044602092604051948593849263a9059cbb60e01b845288600485015260248401525af180156108d757916020918493610920575b5061087a565b61093690833d85116108d0576108c18183610685565b505f61091a565b61094a9195505f90610685565b5f935f61082a565b91906001600160a01b0316803b1561035d57604051630b0d9c0960e01b81526001600160a01b03938416600482015291909216602482015260448101929092525f908290606490829084905af18015610368576109ac5750565b5f6109b691610685565b56fea26469706673582212206102b6a29064515e2db10155f5b604b6be2f4d8d76b18e30457c10a18701b7ed64736f6c634300081a0033000000000000000000000000000000000004444c5dc75cb358380d2e3de08a90",
        "nonce": "0xae",
        "chainId": "0x1"
      },
      "additionalContracts": [],
      "isFixedGasLimit": false
    },
    {
      "hash": "0xdab543fb6d552dfe8f1e23cf7131a163dc60f2b50765eb851332ebfa52c672df",
      "transactionType": "CALL",
      "contractName": null,
      "contractAddress": "0x2fe19128a8257182fdd77f90ea96d27ca342897a",
      "function": "approve(address,uint256)",
      "arguments": [
        "0xf9FFCCdb71D68eeBa284e6b8cbF35146f018C9b9",
        "115792089237316195423570985008687907853269984665640564039457584007913129639935"
      ],
      "transaction": {
        "from": "0x70997970c51812dc3a010c7d01b50e0d17dc79c8",
        "to": "0x2fe19128a8257182fdd77f90ea96d27ca342897a",
        "gas": "0xf9a6",
        "value": "0x0",
        "input": "0x095ea7b3000000000000000000000000f9ffccdb71d68eeba284e6b8cbf35146f018c9b9ffffffffffffffffffffffffffffffffffffffffffffffffffffffffffffffff",
        "nonce": "0xaf",
        "chainId": "0x1"
      },
      "additionalContracts": [],
      "isFixedGasLimit": false
    },
    {
      "hash": "0x68db1fa93df0b3bb865b634f078467032338d2bd35a094e0ec3277235491a72a",
      "transactionType": "CALL",
      "contractName": null,
      "contractAddress": "0x2fe19128a8257182fdd77f90ea96d27ca342897a",
      "function": "approve(address,uint256)",
      "arguments": [
        "0x000000000004444c5dc75cB358380D2e3dE08A90",
        "115792089237316195423570985008687907853269984665640564039457584007913129639935"
      ],
      "transaction": {
        "from": "0x70997970c51812dc3a010c7d01b50e0d17dc79c8",
        "to": "0x2fe19128a8257182fdd77f90ea96d27ca342897a",
        "gas": "0x107ff",
        "value": "0x0",
        "input": "0x095ea7b3000000000000000000000000000000000004444c5dc75cb358380d2e3de08a90ffffffffffffffffffffffffffffffffffffffffffffffffffffffffffffffff",
        "nonce": "0xb0",
        "chainId": "0x1"
      },
      "additionalContracts": [],
      "isFixedGasLimit": false
    },
    {
      "hash": "0x46c420ec9a763c5c5b56c57bda71c07761cc48f24816f9430f81631240d7a150",
      "transactionType": "CALL",
      "contractName": "SimpleSwapRouter",
      "contractAddress": "0xf9ffccdb71d68eeba284e6b8cbf35146f018c9b9",
      "function": "swap((address,address,uint24,int24,address),(bool,int256,uint160))",
      "arguments": [
        "(0x2fe19128A8257182fdD77f90eA96D27cA342897A, 0xcF6c6272E9e353fc1F3e9A747A7B7AADE3c83389, 500, 5, 0x7e0C07EEabb2459D70dba5b8d100Dca44c652aC0)",
        "(true, 50000000, 4295128740)"
      ],
      "transaction": {
        "from": "0x70997970c51812dc3a010c7d01b50e0d17dc79c8",
        "to": "0xf9ffccdb71d68eeba284e6b8cbf35146f018c9b9",
        "gas": "0x3aaec",
        "value": "0x0",
        "input": "0x1e2817de0000000000000000000000002fe19128a8257182fdd77f90ea96d27ca342897a000000000000000000000000cf6c6272e9e353fc1f3e9a747a7b7aade3c8338900000000000000000000000000000000000000000000000000000000000001f400000000000000000000000000000000000000000000000000000000000000050000000000000000000000007e0c07eeabb2459d70dba5b8d100dca44c652ac000000000000000000000000000000000000000000000000000000000000000010000000000000000000000000000000000000000000000000000000002faf08000000000000000000000000000000000000000000000000000000001000276a4",
        "nonce": "0xb1",
        "chainId": "0x1"
      },
      "additionalContracts": [],
      "isFixedGasLimit": false
    }
  ],
  "receipts": [
    {
      "status": "0x1",
      "cumulativeGasUsed": "0x9389a",
      "logs": [],
      "logsBloom": "0x00000000000000000000000000000000000000000000000000000000000000000000000000000000000000000000000000000000000000000000000000000000000000000000000000000000000000000000000000000000000000000000000000000000000000000000000000000000000000000000000000000000000000000000000000000000000000000000000000000000000000000000000000000000000000000000000000000000000000000000000000000000000000000000000000000000000000000000000000000000000000000000000000000000000000000000000000000000000000000000000000000000000000000000000000000000",
      "type": "0x2",
      "transactionHash": "0x8ff92205220613b45aef474985c00f47a2f65067dc851086a462904a5ee29d13",
      "transactionIndex": "0x0",
      "blockHash": "0x689ecfbc138ee1eeca8d8403c4b8b288bea932ef2c10beb15a3271c3d65b1673",
      "blockNumber": "0x14b182d",
      "gasUsed": "0x9389a",
      "effectiveGasPrice": "0xb4e37a4",
      "blobGasPrice": "0xa19c11",
      "from": "0x70997970c51812dc3a010c7d01b50e0d17dc79c8",
      "to": null,
      "contractAddress": "0xf9ffccdb71d68eeba284e6b8cbf35146f018c9b9"
    },
    {
      "status": "0x1",
      "cumulativeGasUsed": "0xb4bf",
      "logs": [
        {
          "address": "0x2fe19128a8257182fdd77f90ea96d27ca342897a",
          "topics": [
            "0x8c5be1e5ebec7d5bd14f71427d1e84f3dd0314c0f7b2291e5b200ac8c7c3b925",
            "0x00000000000000000000000070997970c51812dc3a010c7d01b50e0d17dc79c8",
            "0x000000000000000000000000f9ffccdb71d68eeba284e6b8cbf35146f018c9b9"
          ],
          "data": "0xffffffffffffffffffffffffffffffffffffffffffffffffffffffffffffffff",
          "blockHash": "0x6a36efe516ebcaab9372fc69d730dc2c1f910a7c894ef1620e33156b7c21fdc4",
          "blockNumber": "0x14b182e",
          "blockTimestamp": "0x679486fa",
          "transactionHash": "0x46c420ec9a763c5c5b56c57bda71c07761cc48f24816f9430f81631240d7a150",
          "transactionIndex": "0x0",
          "logIndex": "0x0",
          "removed": false
        }
      ],
      "logsBloom": "0x00000000000000000002000000000000000000000000000000000000000000000000000000000000000000004000000000000000000008000000000000200000000000001000000000000000000000000000000000000000000000000000000000000800000000000000000000000000000000000000000000000000000000000000000000000000000000000000000000000000000000040000000000000000020000000000000000000000000000000040000000000000000000000000000000000000000000000000000000000000000000000000000000000000000000000010000000000000000000000000000021000000000000000000000000000000",
      "type": "0x2",
      "transactionHash": "0x46c420ec9a763c5c5b56c57bda71c07761cc48f24816f9430f81631240d7a150",
      "transactionIndex": "0x0",
      "blockHash": "0x6a36efe516ebcaab9372fc69d730dc2c1f910a7c894ef1620e33156b7c21fdc4",
      "blockNumber": "0x14b182e",
      "gasUsed": "0xb4bf",
      "effectiveGasPrice": "0xa9ffbe6",
      "blobGasPrice": "0x8fa72c",
      "from": "0x70997970c51812dc3a010c7d01b50e0d17dc79c8",
      "to": "0x2fe19128a8257182fdd77f90ea96d27ca342897a",
      "contractAddress": null
    },
    {
      "status": "0x1",
      "cumulativeGasUsed": "0x16942",
      "logs": [
        {
          "address": "0x2fe19128a8257182fdd77f90ea96d27ca342897a",
          "topics": [
            "0x8c5be1e5ebec7d5bd14f71427d1e84f3dd0314c0f7b2291e5b200ac8c7c3b925",
            "0x00000000000000000000000070997970c51812dc3a010c7d01b50e0d17dc79c8",
            "0x000000000000000000000000000000000004444c5dc75cb358380d2e3de08a90"
          ],
          "data": "0xffffffffffffffffffffffffffffffffffffffffffffffffffffffffffffffff",
          "blockHash": "0x6a36efe516ebcaab9372fc69d730dc2c1f910a7c894ef1620e33156b7c21fdc4",
          "blockNumber": "0x14b182e",
          "blockTimestamp": "0x679486fa",
          "transactionHash": "0xdab543fb6d552dfe8f1e23cf7131a163dc60f2b50765eb851332ebfa52c672df",
          "transactionIndex": "0x1",
          "logIndex": "0x1",
          "removed": false
        }
      ],
      "logsBloom": "0x00000000000000000002000000000000000000000000000000000000000000000000000000000000001000004000000000000000000000000000000000200000000000000000000000000000000000000000000000000000000000000000000000000800000000000000000000000000000000000000000000000000000000000000000800000000000000000000000000000000000000000000000000000000020000000000000000000000000000000040000000000000000000000000000000000000000000000000000000000000000000400000000000000000000000000010000000000000000000000000000021000000000000000000000000000000",
      "type": "0x2",
      "transactionHash": "0xdab543fb6d552dfe8f1e23cf7131a163dc60f2b50765eb851332ebfa52c672df",
      "transactionIndex": "0x1",
      "blockHash": "0x6a36efe516ebcaab9372fc69d730dc2c1f910a7c894ef1620e33156b7c21fdc4",
      "blockNumber": "0x14b182e",
      "gasUsed": "0xb483",
      "effectiveGasPrice": "0xa9ffbe6",
      "blobGasPrice": "0x8fa72c",
      "from": "0x70997970c51812dc3a010c7d01b50e0d17dc79c8",
      "to": "0x2fe19128a8257182fdd77f90ea96d27ca342897a",
      "contractAddress": null
    },
    {
      "status": "0x1",
      "cumulativeGasUsed": "0x2a7c4",
      "logs": [
        {
          "address": "0x000000000004444c5dc75cb358380d2e3de08a90",
          "topics": [
            "0x40e9cecb9f5f1f1c5b9c97dec2917b7ee92e57ba5563708daca94dd84ad7112f",
            "0xda100fc1dc21b46f06f5280dc915ca828c53bb63f3b33f171b40f25288da2e93",
            "0x000000000000000000000000f9ffccdb71d68eeba284e6b8cbf35146f018c9b9"
          ],
          "data": "0xffffffffffffffffffffffffffffffffffffffffffffffffffffffffe1ade3d20000000000000000000000000000000000000000000000000000000002faf0800000000000000000000000000000000000000000502a85e1f3733ef05521d5760000000000000000000000000000000000000000000000000000000d26f45726ffffffffffffffffffffffffffffffffffffffffffffffffffffffffffffa54900000000000000000000000000000000000000000000000000000000000001f4",
          "blockHash": "0x0b1b0e4fa7b42ce8af9aae3f3409b4c55143f8ce00fba85c58f24e03c877a854",
          "blockNumber": "0x14b182f",
          "blockTimestamp": "0x679486fa",
          "transactionHash": "0x68db1fa93df0b3bb865b634f078467032338d2bd35a094e0ec3277235491a72a",
          "transactionIndex": "0x0",
          "logIndex": "0x0",
          "removed": false
        },
        {
          "address": "0x2fe19128a8257182fdd77f90ea96d27ca342897a",
          "topics": [
            "0xddf252ad1be2c89b69c2b068fc378daa952ba7f163c4a11628f55a4df523b3ef",
            "0x00000000000000000000000070997970c51812dc3a010c7d01b50e0d17dc79c8",
            "0x000000000000000000000000000000000004444c5dc75cb358380d2e3de08a90"
          ],
          "data": "0x000000000000000000000000000000000000000000000000000000001e521c2e",
          "blockHash": "0x0b1b0e4fa7b42ce8af9aae3f3409b4c55143f8ce00fba85c58f24e03c877a854",
          "blockNumber": "0x14b182f",
          "blockTimestamp": "0x679486fa",
          "transactionHash": "0x68db1fa93df0b3bb865b634f078467032338d2bd35a094e0ec3277235491a72a",
          "transactionIndex": "0x0",
          "logIndex": "0x1",
          "removed": false
        },
        {
          "address": "0xcf6c6272e9e353fc1f3e9a747a7b7aade3c83389",
          "topics": [
            "0xddf252ad1be2c89b69c2b068fc378daa952ba7f163c4a11628f55a4df523b3ef",
            "0x000000000000000000000000000000000004444c5dc75cb358380d2e3de08a90",
            "0x00000000000000000000000070997970c51812dc3a010c7d01b50e0d17dc79c8"
          ],
          "data": "0x0000000000000000000000000000000000000000000000000000000002faf080",
          "blockHash": "0x0b1b0e4fa7b42ce8af9aae3f3409b4c55143f8ce00fba85c58f24e03c877a854",
          "blockNumber": "0x14b182f",
          "blockTimestamp": "0x679486fa",
          "transactionHash": "0x68db1fa93df0b3bb865b634f078467032338d2bd35a094e0ec3277235491a72a",
          "transactionIndex": "0x0",
          "logIndex": "0x2",
          "removed": false
        }
      ],
      "logsBloom": "0x000000000000000200020000000000000000000000000000000000000000040000000000200000000010000040000000000000000400080000000000000000000000000010000000000000080000000000000000000000a0008000002000000000000800000000000000000000000000000000000000000000000010000000000000000800200000000000000000000000000000000000040000000000000000000000000000000000000000100000000040000000000000000000000000000000000802000000000000000000000000000000400000000000000000000000000000000000000000004000000000000021000000000000000000000000000000",
      "type": "0x2",
      "transactionHash": "0x68db1fa93df0b3bb865b634f078467032338d2bd35a094e0ec3277235491a72a",
      "transactionIndex": "0x0",
      "blockHash": "0x0b1b0e4fa7b42ce8af9aae3f3409b4c55143f8ce00fba85c58f24e03c877a854",
      "blockNumber": "0x14b182f",
      "gasUsed": "0x2a7c4",
      "effectiveGasPrice": "0xa0136a7",
      "blobGasPrice": "0x7fb10a",
      "from": "0x70997970c51812dc3a010c7d01b50e0d17dc79c8",
      "to": "0xf9ffccdb71d68eeba284e6b8cbf35146f018c9b9",
      "contractAddress": null
    }
  ],
  "libraries": [],
  "pending": [],
  "returns": {},
  "timestamp": 1770056174358,
  "chain": 1,
  "commit": "290e97f"
}