{
  "transactions": [
    {
      "hash": "0xa2c0b336935f97384e04897c98bcc09f02a1db126b9a09140c2d3607e10b6b9f",
      "transactionType": "CALL",
      "contractName": null,
      "contractAddress": "0xb9b0c96e4e7181926d2a7ed331c9c346dfa59b4d",
      "function": "approve(address,uint256)",
      "arguments": [
        "0x775708422797b42bd1017D1CCb67caBA2CeDaAc0",
        "10000000000"
      ],
      "transaction": {
        "from": "0x3c44cdddb6a900fa2b585dd299e03d12fa4293bc",
        "to": "0xb9b0c96e4e7181926d2a7ed331c9c346dfa59b4d",
        "gas": "0xa4ba",
        "value": "0x0",
        "input": "0x095ea7b3000000000000000000000000775708422797b42bd1017d1ccb67caba2cedaac000000000000000000000000000000000000000000000000000000002540be400",
        "nonce": "0x39",
        "chainId": "0x1"
      },
      "additionalContracts": [],
      "isFixedGasLimit": false
    },
    {
      "hash": "0x022428b3fab42b7a7b59232b66823e8c8e3359f313e97f3d381b67c0661c0201",
      "transactionType": "CALL",
      "contractName": null,
      "contractAddress": "0x775708422797b42bd1017d1ccb67caba2cedaac0",
      "function": "submitOrder(((address,address,uint24,int24,address),bool,uint256,uint256))",
      "arguments": [
        "((0xb9b0c96e4E7181926D2A7ed331C9C346dfa59b4D, 0xcF6c6272E9e353fc1F3e9A747A7B7AADE3c83389, 500, 5, 0x775708422797b42bd1017D1CCb67caBA2CeDaAc0), true, 3600, 10000000000)"
      ],
      "transaction": {
        "from": "0x3c44cdddb6a900fa2b585dd299e03d12fa4293bc",
        "to": "0x775708422797b42bd1017d1ccb67caba2cedaac0",
        "gas": "0x37c81",
        "value": "0x0",
        "input": "0x676f863a000000000000000000000000b9b0c96e4e7181926d2a7ed331c9c346dfa59b4d000000000000000000000000cf6c6272e9e353fc1f3e9a747a7b7aade3c8338900000000000000000000000000000000000000000000000000000000000001f40000000000000000000000000000000000000000000000000000000000000005000000000000000000000000775708422797b42bd1017d1ccb67caba2cedaac000000000000000000000000000000000000000000000000000000000000000010000000000000000000000000000000000000000000000000000000000000e1000000000000000000000000000000000000000000000000000000002540be400",
        "nonce": "0x3a",
        "chainId": "0x1"
      },
      "additionalContracts": [],
      "isFixedGasLimit": false
    }
  ],
  "receipts": [
    {
      "status": "0x1",
      "cumulativeGasUsed": "0x70a3",
      "logs": [
        {
          "address": "0xb9b0c96e4e7181926d2a7ed331c9c346dfa59b4d",
          "topics": [
            "0x8c5be1e5ebec7d5bd14f71427d1e84f3dd0314c0f7b2291e5b200ac8c7c3b925",
            "0x0000000000000000000000003c44cdddb6a900fa2b585dd299e03d12fa4293bc",
            "0x000000000000000000000000775708422797b42bd1017d1ccb67caba2cedaac0"
          ],
          "data": "0x00000000000000000000000000000000000000000000000000000002540be400",
          "blockHash": "0xebbf11f47050307e56a7720a7c29fb1adc942d94bbcfc2f57567a6ea2e66a005",
          "blockNumber": "0x14b18b5",
          "blockTimestamp": "0x6794a2d8",
          "transactionHash": "0xa2c0b336935f97384e04897c98bcc09f02a1db126b9a09140c2d3607e10b6b9f",
          "transactionIndex": "0x0",
          "logIndex": "0x0",
          "removed": false
        }
      ],
      "logsBloom": "0x00000000000000000000001000000000000000000000000000000000000000000000000000000000000000000000000000000000000000000000000000300000000000000000000000000000000000000000000000000000120000000000000000000000000000000000000000000000000800000000000000000000000000000000000000000000000000000000000000000000000000001000000000000000020000000000200000000000000000000000000000000000000000000000001000000000000000000000000000000000000000000000000000000000000000000010000000000000000000000000000000000000000000000000000100000000",
      "type": "0x2",
      "transactionHash": "0xa2c0b336935f97384e04897c98bcc09f02a1db126b9a09140c2d3607e10b6b9f",
      "transactionIndex": "0x0",
      "blockHash": "0xebbf11f47050307e56a7720a7c29fb1adc942d94bbcfc2f57567a6ea2e66a005",
      "blockNumber": "0x14b18b5",
      "gasUsed": "0x70a3",
      "effectiveGasPrice": "0x3b9aca07",
      "blobGasPrice": "0x1",
      "from": "0x3c44cdddb6a900fa2b585dd299e03d12fa4293bc",
      "to": "0xb9b0c96e4e7181926d2a7ed331c9c346dfa59b4d",
      "contractAddress": null
    },
    {
      "status": "0x1",
      "cumulativeGasUsed": "0x2d2e6",
      "logs": [
        {
          "address": "0xb9b0c96e4e7181926d2a7ed331c9c346dfa59b4d",
          "topics": [
            "0xddf252ad1be2c89b69c2b068fc378daa952ba7f163c4a11628f55a4df523b3ef",
            "0x0000000000000000000000003c44cdddb6a900fa2b585dd299e03d12fa4293bc",
            "0x000000000000000000000000775708422797b42bd1017d1ccb67caba2cedaac0"
          ],
          "data": "0x00000000000000000000000000000000000000000000000000000002540bd910",
          "blockHash": "0xebbf11f47050307e56a7720a7c29fb1adc942d94bbcfc2f57567a6ea2e66a005",
          "blockNumber": "0x14b18b5",
          "blockTimestamp": "0x6794a2d8",
          "transactionHash": "0x022428b3fab42b7a7b59232b66823e8c8e3359f313e97f3d381b67c0661c0201",
          "transactionIndex": "0x1",
          "logIndex": "0x1",
          "removed": false
        },
        {
          "address": "0x775708422797b42bd1017d1ccb67caba2cedaac0",
          "topics": [
            "0xaad1dbbd649002bdbd8281df7f1bc9398548f080a76b5ccece0b61709e2b69cc",
            "0x10f968295adbff8393e64099c47501983ec64d9be08058c9be68d4eff887f4db",
            "0xc05ce7fb9ff64207e31b012dc5fbc7d94405f1d61bc4e36241ed131cb1e1140d",
            "0x0000000000000000000000003c44cdddb6a900fa2b585dd299e03d12fa4293bc"
          ],
          "data": "0x00000000000000000000000000000000000000000000000000000002540be400000000000000000000000000000000000000000000000000000000006794a810000000000000000000000000000000000000000000000000000000000000000100000000000000000000000000000000000000000000000000000000002a62b10000000000000000000000000000000000000000000000000001036847569cd7",
          "blockHash": "0xebbf11f47050307e56a7720a7c29fb1adc942d94bbcfc2f57567a6ea2e66a005",
          "blockNumber": "0x14b18b5",
          "blockTimestamp": "0x6794a2d8",
          "transactionHash": "0x022428b3fab42b7a7b59232b66823e8c8e3359f313e97f3d381b67c0661c0201",
          "transactionIndex": "0x1",
          "logIndex": "0x2",
          "removed": false
        }
      ],
      "logsBloom": "0x00000000000000020000001040000000000000000000000000000000000000000000000000000000002000000000000000000001000000000000000000100000000000000000000000000008000000000000000000000000120000000000000000000000000000000000002002000000000800400000000010000010000000000000000000000000000000000000000000000000000000001000000000000000000000000000200000000000020000000000000000000400000000000000001000000002000000000000000000000000000000000000000000000000000000000000000000000040000000000000000000800000000000000000000100000000",
      "type": "0x2",
      "transactionHash": "0x022428b3fab42b7a7b59232b66823e8c8e3359f313e97f3d381b67c0661c0201",
      "transactionIndex": "0x1",
      "blockHash": "0xebbf11f47050307e56a7720a7c29fb1adc942d94bbcfc2f57567a6ea2e66a005",
      "blockNumber": "0x14b18b5",
      "gasUsed": "0x26243",
      "effectiveGasPrice": "0x3b9aca07",
      "blobGasPrice": "0x1",
      "from": "0x3c44cdddb6a900fa2b585dd299e03d12fa4293bc",
      "to": "0x775708422797b42bd1017d1ccb67caba2cedaac0",
      "contractAddress": null
    }
  ],
  "libraries": [],
  "pending": [],
  "returns": {},
  "timestamp": 1770328448505,
  "chain": 1,
  "commit": "de3e04a"
}