{
  "transactions": [
    {
      "hash": "0xb7c90990e369435395e0576f6f65e229994cf1819230a3bb7a276ffbd88e1485",
      "transactionType": "CALL",
      "contractName": null,
      "contractAddress": "0xb9b0c96e4e7181926d2a7ed331c9c346dfa59b4d",
      "function": "approve(address,uint256)",
      "arguments": [
        "0xA49885dCCE26fAbd0828ae11402bEb6cecFCaAc0",
        "10000000000"
      ],
      "transaction": {
        "from": "0x3c44cdddb6a900fa2b585dd299e03d12fa4293bc",
        "to": "0xb9b0c96e4e7181926d2a7ed331c9c346dfa59b4d",
        "gas": "0xf7d6",
        "value": "0x0",
        "input": "0x095ea7b3000000000000000000000000a49885dcce26fabd0828ae11402beb6cecfcaac000000000000000000000000000000000000000000000000000000002540be400",
        "nonce": "0x37",
        "chainId": "0x1"
      },
      "additionalContracts": [],
      "isFixedGasLimit": false
    },
    {
      "hash": "0x5be364a04889681b3375ddc69d68de84d97e99f621b7ab2b4b8afbe676d213b1",
      "transactionType": "CALL",
      "contractName": null,
      "contractAddress": "0xa49885dcce26fabd0828ae11402beb6cecfcaac0",
      "function": "submitOrder(((address,address,uint24,int24,address),bool,uint256,uint256))",
      "arguments": [
        "((0xb9b0c96e4E7181926D2A7ed331C9C346dfa59b4D, 0xcF6c6272E9e353fc1F3e9A747A7B7AADE3c83389, 500, 5, 0xA49885dCCE26fAbd0828ae11402bEb6cecFCaAc0), true, 3600, 10000000000)"
      ],
      "transaction": {
        "from": "0x3c44cdddb6a900fa2b585dd299e03d12fa4293bc",
        "to": "0xa49885dcce26fabd0828ae11402beb6cecfcaac0",
        "gas": "0x36c82",
        "value": "0x0",
        "input": "0x676f863a000000000000000000000000b9b0c96e4e7181926d2a7ed331c9c346dfa59b4d000000000000000000000000cf6c6272e9e353fc1f3e9a747a7b7aade3c8338900000000000000000000000000000000000000000000000000000000000001f40000000000000000000000000000000000000000000000000000000000000005000000000000000000000000a49885dcce26fabd0828ae11402beb6cecfcaac000000000000000000000000000000000000000000000000000000000000000010000000000000000000000000000000000000000000000000000000000000e1000000000000000000000000000000000000000000000000000000002540be400",
        "nonce": "0x38",
        "chainId": "0x1"
      },
      "additionalContracts": [],
      "isFixedGasLimit": false
    }
  ],
  "receipts": [
    {
      "status": "0x1",
      "cumulativeGasUsed": "0xb36f",
      "logs": [
        {
          "address": "0xb9b0c96e4e7181926d2a7ed331c9c346dfa59b4d",
          "topics": [
            "0x8c5be1e5ebec7d5bd14f71427d1e84f3dd0314c0f7b2291e5b200ac8c7c3b925",
            "0x0000000000000000000000003c44cdddb6a900fa2b585dd299e03d12fa4293bc",
            "0x000000000000000000000000a49885dcce26fabd0828ae11402beb6cecfcaac0"
          ],
          "data": "0x00000000000000000000000000000000000000000000000000000002540be400",
          "blockHash": "0x34010922ed48b18cdc7ad9a199dc8ed9d839a0608052d979e472c03e36ba7dad",
          "blockNumber": "0x14b18a1",
          "blockTimestamp": "0x67946a86",
          "transactionHash": "0xb7c90990e369435395e0576f6f65e229994cf1819230a3bb7a276ffbd88e1485",
          "transactionIndex": "0x0",
          "logIndex": "0x0",
          "removed": false
        }
      ],
      "logsBloom": "0x00000000000000000000000000000000000000000000000000000000000000000000000000000000000000000000000002000000000000000000000000300000000000000000000000000000000000000000000000000000100000000000000000000000000000000000000000000000000800000000000000000000000000000000000000000000000000000000000000000000010000000000000000000000020000000000200000000000000000200000000000000000000000000000001000000000000000000000000000000000000000000000000000000000000000000010000000000000000000000000000000000000000000000000000100000000",
      "type": "0x2",
      "transactionHash": "0xb7c90990e369435395e0576f6f65e229994cf1819230a3bb7a276ffbd88e1485",
      "transactionIndex": "0x0",
      "blockHash": "0x34010922ed48b18cdc7ad9a199dc8ed9d839a0608052d979e472c03e36ba7dad",
      "blockNumber": "0x14b18a1",
      "gasUsed": "0xb36f",
      "effectiveGasPrice": "0x17",
      "blobGasPrice": "0xc",
      "from": "0x3c44cdddb6a900fa2b585dd299e03d12fa4293bc",
      "to": "0xb9b0c96e4e7181926d2a7ed331c9c346dfa59b4d",
      "contractAddress": null
    },
    {
      "status": "0x1",
      "cumulativeGasUsed": "0x30ac2",
      "logs": [
        {
          "address": "0xb9b0c96e4e7181926d2a7ed331c9c346dfa59b4d",
          "topics": [
            "0xddf252ad1be2c89b69c2b068fc378daa952ba7f163c4a11628f55a4df523b3ef",
            "0x0000000000000000000000003c44cdddb6a900fa2b585dd299e03d12fa4293bc",
            "0x000000000000000000000000a49885dcce26fabd0828ae11402beb6cecfcaac0"
          ],
          "data": "0x00000000000000000000000000000000000000000000000000000002540bd910",
          "blockHash": "0x34010922ed48b18cdc7ad9a199dc8ed9d839a0608052d979e472c03e36ba7dad",
          "blockNumber": "0x14b18a1",
          "blockTimestamp": "0x67946a86",
          "transactionHash": "0x5be364a04889681b3375ddc69d68de84d97e99f621b7ab2b4b8afbe676d213b1",
          "transactionIndex": "0x1",
          "logIndex": "0x1",
          "removed": false
        },
        {
          "address": "0xa49885dcce26fabd0828ae11402beb6cecfcaac0",
          "topics": [
            "0xaad1dbbd649002bdbd8281df7f1bc9398548f080a76b5ccece0b61709e2b69cc",
            "0x505563b524bcbd01b3045aabb166ca18cd153154bf84a64a70ca6a98aab1c2aa",
            "0xa7cc1b714ad4df49fcd0ff12b49db27a723d41fb347a64f90fedfc9d551092ef",
            "0x0000000000000000000000003c44cdddb6a900fa2b585dd299e03d12fa4293bc"
          ],
          "data": "0x00000000000000000000000000000000000000000000000000000002540be4000000000000000000000000000000000000000000000000000000000067946fd0000000000000000000000000000000000000000000000000000000000000000100000000000000000000000000000000000000000000000000000000002a62b10000000000000000000000000000000000000000000000000000000000000000",
          "blockHash": "0x34010922ed48b18cdc7ad9a199dc8ed9d839a0608052d979e472c03e36ba7dad",
          "blockNumber": "0x14b18a1",
          "blockTimestamp": "0x67946a86",
          "transactionHash": "0x5be364a04889681b3375ddc69d68de84d97e99f621b7ab2b4b8afbe676d213b1",
          "transactionIndex": "0x1",
          "logIndex": "0x2",
          "removed": false
        }
      ],
      "logsBloom": "0x00000000000000000000000000000000000000000000000000000000000000000000000000000000000000000000000002000000000000000000000000100000000000000000000000004008000000000000000000000000100000000040000000000000000000000000002000000000000800000020000000008010000000000000000000000000000000000000000000000000010000000000000000000000000000000000200000000000020000200000000000000000000000000000001020000002000000200000000000001000000000000000000000000000081000000000000000000040000000000000000000000000000000000000000100000000",
      "type": "0x2",
      "transactionHash": "0x5be364a04889681b3375ddc69d68de84d97e99f621b7ab2b4b8afbe676d213b1",
      "transactionIndex": "0x1",
      "blockHash": "0x34010922ed48b18cdc7ad9a199dc8ed9d839a0608052d979e472c03e36ba7dad",
      "blockNumber": "0x14b18a1",
      "gasUsed": "0x25753",
      "effectiveGasPrice": "0x17",
      "blobGasPrice": "0xc",
      "from": "0x3c44cdddb6a900fa2b585dd299e03d12fa4293bc",
      "to": "0xa49885dcce26fabd0828ae11402beb6cecfcaac0",
      "contractAddress": null
    }
  ],
  "libraries": [],
  "pending": [],
  "returns": {},
  "timestamp": 1770330208744,
  "chain": 1,
  "commit": "de3e04a"
}