{
  "transactions": [
    {
      "hash": "0x61b4e4a8cabb97aebcf122ae1efb14ee54a82d0f2be2f2b5e66f4cc222321acd",
      "transactionType": "CALL",
      "contractName": null,
      "contractAddress": "0xb9b0c96e4e7181926d2a7ed331c9c346dfa59b4d",
      "function": "approve(address,uint256)",
      "arguments": [
        "0xA49885dCCE26fAbd0828ae11402bEb6cecFCaAc0",
        "5000000000"
      ],
      "transaction": {
        "from": "0x3c44cdddb6a900fa2b585dd299e03d12fa4293bc",
        "to": "0xb9b0c96e4e7181926d2a7ed331c9c346dfa59b4d",
        "gas": "0xa4ba",
        "value": "0x0",
        "input": "0x095ea7b3000000000000000000000000a49885dcce26fabd0828ae11402beb6cecfcaac0000000000000000000000000000000000000000000000000000000012a05f200",
        "nonce": "0x3a",
        "chainId": "0x1"
      },
      "additionalContracts": [],
      "isFixedGasLimit": false
    },
    {
      "hash": "0x0fb648a539f4159c8538971fd27ae6386c7c9c2b735e8dc0feb3023aeabcbfd6",
      "transactionType": "CALL",
      "contractName": null,
      "contractAddress": "0xa49885dcce26fabd0828ae11402beb6cecfcaac0",
      "function": "submitOrder(((address,address,uint24,int24,address),bool,uint256,uint256))",
      "arguments": [
        "((0xb9b0c96e4E7181926D2A7ed331C9C346dfa59b4D, 0xcF6c6272E9e353fc1F3e9A747A7B7AADE3c83389, 500, 5, 0xA49885dCCE26fAbd0828ae11402bEb6cecFCaAc0), true, 3600, 5000000000)"
      ],
      "transaction": {
        "from": "0x3c44cdddb6a900fa2b585dd299e03d12fa4293bc",
        "to": "0xa49885dcce26fabd0828ae11402beb6cecfcaac0",
        "gas": "0x47f59",
        "value": "0x0",
        "input": "0x676f863a000000000000000000000000b9b0c96e4e7181926d2a7ed331c9c346dfa59b4d000000000000000000000000cf6c6272e9e353fc1f3e9a747a7b7aade3c8338900000000000000000000000000000000000000000000000000000000000001f40000000000000000000000000000000000000000000000000000000000000005000000000000000000000000a49885dcce26fabd0828ae11402beb6cecfcaac000000000000000000000000000000000000000000000000000000000000000010000000000000000000000000000000000000000000000000000000000000e10000000000000000000000000000000000000000000000000000000012a05f200",
        "nonce": "0x3b",
        "chainId": "0x1"
      },
      "additionalContracts": [],
      "isFixedGasLimit": false
    }
  ],
  "receipts": [
    {
      "status": "0x1",
      "cumulativeGasUsed": "0x70a3",
      "logs": [
        {
          "address": "0xb9b0c96e4e7181926d2a7ed331c9c346dfa59b4d",
          "topics": [
            "0x8c5be1e5ebec7d5bd14f71427d1e84f3dd0314c0f7b2291e5b200ac8c7c3b925",
            "0x0000000000000000000000003c44cdddb6a900fa2b585dd299e03d12fa4293bc",
            "0x000000000000000000000000a49885dcce26fabd0828ae11402beb6cecfcaac0"
          ],
          "data": "0x000000000000000000000000000000000000000000000000000000012a05f200",
          "blockHash": "0x8b590822ce218b75f2e5113fecbf09288d2c3dc9cac3315b75021d68238ad3d7",
          "blockNumber": "0x14b18d0",
          "blockTimestamp": "0x6794a2f4",
          "transactionHash": "0x61b4e4a8cabb97aebcf122ae1efb14ee54a82d0f2be2f2b5e66f4cc222321acd",
          "transactionIndex": "0x0",
          "logIndex": "0x0",
          "removed": false
        }
      ],
      "logsBloom": "0x00000000000000000000000000000000000000000000000000000000000000000000000000000000000000000000000002000000000000000000000000300000000000000000000000000000000000000000000000000000100000000000000000000000000000000000000000000000000800000000000000000000000000000000000000000000000000000000000000000000010000000000000000000000020000000000200000000000000000200000000000000000000000000000001000000000000000000000000000000000000000000000000000000000000000000010000000000000000000000000000000000000000000000000000100000000",
      "type": "0x2",
      "transactionHash": "0x61b4e4a8cabb97aebcf122ae1efb14ee54a82d0f2be2f2b5e66f4cc222321acd",
      "transactionIndex": "0x0",
      "blockHash": "0x8b590822ce218b75f2e5113fecbf09288d2c3dc9cac3315b75021d68238ad3d7",
      "blockNumber": "0x14b18d0",
      "gasUsed": "0x70a3",
      "effectiveGasPrice": "0x8",
      "blobGasPrice": "0x1",
      "from": "0x3c44cdddb6a900fa2b585dd299e03d12fa4293bc",
      "to": "0xb9b0c96e4e7181926d2a7ed331c9c346dfa59b4d",
      "contractAddress": null
    },
    {
      "status": "0x1",
      "cumulativeGasUsed": "0x3b232",
      "logs": [
        {
          "address": "0xb9b0c96e4e7181926d2a7ed331c9c346dfa59b4d",
          "topics": [
            "0xddf252ad1be2c89b69c2b068fc378daa952ba7f163c4a11628f55a4df523b3ef",
            "0x0000000000000000000000003c44cdddb6a900fa2b585dd299e03d12fa4293bc",
            "0x000000000000000000000000a49885dcce26fabd0828ae11402beb6cecfcaac0"
          ],
          "data": "0x000000000000000000000000000000000000000000000000000000012a05e580",
          "blockHash": "0x8b590822ce218b75f2e5113fecbf09288d2c3dc9cac3315b75021d68238ad3d7",
          "blockNumber": "0x14b18d0",
          "blockTimestamp": "0x6794a2f4",
          "transactionHash": "0x0fb648a539f4159c8538971fd27ae6386c7c9c2b735e8dc0feb3023aeabcbfd6",
          "transactionIndex": "0x1",
          "logIndex": "0x1",
          "removed": false
        },
        {
          "address": "0xa49885dcce26fabd0828ae11402beb6cecfcaac0",
          "topics": [
            "0xaad1dbbd649002bdbd8281df7f1bc9398548f080a76b5ccece0b61709e2b69cc",
            "0x505563b524bcbd01b3045aabb166ca18cd153154bf84a64a70ca6a98aab1c2aa",
            "0xc05ce7fb9ff64207e31b012dc5fbc7d94405f1d61bc4e36241ed131cb1e1140d",
            "0x0000000000000000000000003c44cdddb6a900fa2b585dd299e03d12fa4293bc"
          ],
          "data": "0x000000000000000000000000000000000000000000000000000000012a05f200000000000000000000000000000000000000000000000000000000006794a8100000000000000000000000000000000000000000000000000000000000000001000000000000000000000000000000000000000000000000000000000015315800000000000000000000000000000000000002c06496067e7b9d7092518c1ec8",
          "blockHash": "0x8b590822ce218b75f2e5113fecbf09288d2c3dc9cac3315b75021d68238ad3d7",
          "blockNumber": "0x14b18d0",
          "blockTimestamp": "0x6794a2f4",
          "transactionHash": "0x0fb648a539f4159c8538971fd27ae6386c7c9c2b735e8dc0feb3023aeabcbfd6",
          "transactionIndex": "0x1",
          "logIndex": "0x2",
          "removed": false
        }
      ],
      "logsBloom": "0x00000000000000020000000000000000000000000000000000000000000000000000000000000000000000000000000002000001000000000000000000100000000000000000000000004008000000000000000000000000100000000000000000000000000000000000002000000000000800400020000000008010000000000000000000000000000000000000000000000000010000000000000000000000000000000000200000000000020000200000000000000000000000000000001020000002000000000000000000000000000000000000000000000000081000000000000000000040000000000000000000000000000000000000000100000000",
      "type": "0x2",
      "transactionHash": "0x0fb648a539f4159c8538971fd27ae6386c7c9c2b735e8dc0feb3023aeabcbfd6",
      "transactionIndex": "0x1",
      "blockHash": "0x8b590822ce218b75f2e5113fecbf09288d2c3dc9cac3315b75021d68238ad3d7",
      "blockNumber": "0x14b18d0",
      "gasUsed": "0x3418f",
      "effectiveGasPrice": "0x8",
      "blobGasPrice": "0x1",
      "from": "0x3c44cdddb6a900fa2b585dd299e03d12fa4293bc",
      "to": "0xa49885dcce26fabd0828ae11402beb6cecfcaac0",
      "contractAddress": null
    }
  ],
  "libraries": [],
  "pending": [],
  "returns": {},
  "timestamp": 1770330750089,
  "chain": 1,
  "commit": "de3e04a"
}