{
  "transactions": [
    {
      "hash": "0xddc93485babfab03766f2917d379ab7cfeaf66a25c23b807a163af4749d0e260",
      "transactionType": "CALL",
      "contractName": null,
      "contractAddress": "0xb9b0c96e4e7181926d2a7ed331c9c346dfa59b4d",
      "function": "approve(address,uint256)",
      "arguments": [
        "0x775708422797b42bd1017D1CCb67caBA2CeDaAc0",
        "99999994970"
      ],
      "transaction": {
        "from": "0x3c44cdddb6a900fa2b585dd299e03d12fa4293bc",
        "to": "0xb9b0c96e4e7181926d2a7ed331c9c346dfa59b4d",
        "gas": "0x1067d",
        "value": "0x0",
        "input": "0x095ea7b3000000000000000000000000775708422797b42bd1017d1ccb67caba2cedaac0000000000000000000000000000000000000000000000000000000174876d45a",
        "nonce": "0x33",
        "chainId": "0x1"
      },
      "additionalContracts": [],
      "isFixedGasLimit": false
    },
    {
      "hash": "0xd0f4b8fc20340c9020d664a877ab559a1ac551e2f8f6520b4dda5fa2edcf352f",
      "transactionType": "CALL",
      "contractName": null,
      "contractAddress": "0x775708422797b42bd1017d1ccb67caba2cedaac0",
      "function": "submitOrder(((address,address,uint24,int24,address),bool,uint256,uint256))",
      "arguments": [
        "((0xb9b0c96e4E7181926D2A7ed331C9C346dfa59b4D, 0xcF6c6272E9e353fc1F3e9A747A7B7AADE3c83389, 500, 5, 0x775708422797b42bd1017D1CCb67caBA2CeDaAc0), true, 3600, 99999994970)"
      ],
      "transaction": {
        "from": "0x3c44cdddb6a900fa2b585dd299e03d12fa4293bc",
        "to": "0x775708422797b42bd1017d1ccb67caba2cedaac0",
        "gas": "0x33be0",
        "value": "0x0",
        "input": "0x676f863a000000000000000000000000b9b0c96e4e7181926d2a7ed331c9c346dfa59b4d000000000000000000000000cf6c6272e9e353fc1f3e9a747a7b7aade3c8338900000000000000000000000000000000000000000000000000000000000001f40000000000000000000000000000000000000000000000000000000000000005000000000000000000000000775708422797b42bd1017d1ccb67caba2cedaac000000000000000000000000000000000000000000000000000000000000000010000000000000000000000000000000000000000000000000000000000000e10000000000000000000000000000000000000000000000000000000174876d45a",
        "nonce": "0x34",
        "chainId": "0x1"
      },
      "additionalContracts": [],
      "isFixedGasLimit": false
    }
  ],
  "receipts": [
    {
      "status": "0x1",
      "cumulativeGasUsed": "0xb37b",
      "logs": [
        {
          "address": "0xb9b0c96e4e7181926d2a7ed331c9c346dfa59b4d",
          "topics": [
            "0x8c5be1e5ebec7d5bd14f71427d1e84f3dd0314c0f7b2291e5b200ac8c7c3b925",
            "0x0000000000000000000000003c44cdddb6a900fa2b585dd299e03d12fa4293bc",
            "0x000000000000000000000000775708422797b42bd1017d1ccb67caba2cedaac0"
          ],
          "data": "0x000000000000000000000000000000000000000000000000000000174876d45a",
          "blockHash": "0x7eb862546b214a5ecfd3381064f421ee6e2dd6535669255d4134d8ace7a84ccc",
          "blockNumber": "0x14b1840",
          "blockTimestamp": "0x67946a25",
          "transactionHash": "0xddc93485babfab03766f2917d379ab7cfeaf66a25c23b807a163af4749d0e260",
          "transactionIndex": "0x0",
          "logIndex": "0x0",
          "removed": false
        }
      ],
      "logsBloom": "0x00000000000000000000001000000000000000000000000000000000000000000000000000000000000000000000000000000000000000000000000000300000000000000000000000000000000000000000000000000000120000000000000000000000000000000000000000000000000800000000000000000000000000000000000000000000000000000000000000000000000000001000000000000000020000000000200000000000000000000000000000000000000000000000001000000000000000000000000000000000000000000000000000000000000000000010000000000000000000000000000000000000000000000000000100000000",
      "type": "0x2",
      "transactionHash": "0xddc93485babfab03766f2917d379ab7cfeaf66a25c23b807a163af4749d0e260",
      "transactionIndex": "0x0",
      "blockHash": "0x7eb862546b214a5ecfd3381064f421ee6e2dd6535669255d4134d8ace7a84ccc",
      "blockNumber": "0x14b1840",
      "gasUsed": "0xb37b",
      "effectiveGasPrice": "0x74393d",
      "blobGasPrice": "0x113dc3",
      "from": "0x3c44cdddb6a900fa2b585dd299e03d12fa4293bc",
      "to": "0xb9b0c96e4e7181926d2a7ed331c9c346dfa59b4d",
      "contractAddress": null
    },
    {
      "status": "0x1",
      "cumulativeGasUsed": "0x30ada",
      "logs": [
        {
          "address": "0xb9b0c96e4e7181926d2a7ed331c9c346dfa59b4d",
          "topics": [
            "0xddf252ad1be2c89b69c2b068fc378daa952ba7f163c4a11628f55a4df523b3ef",
            "0x0000000000000000000000003c44cdddb6a900fa2b585dd299e03d12fa4293bc",
            "0x000000000000000000000000775708422797b42bd1017d1ccb67caba2cedaac0"
          ],
          "data": "0x000000000000000000000000000000000000000000000000000000174876cf00",
          "blockHash": "0x7eb862546b214a5ecfd3381064f421ee6e2dd6535669255d4134d8ace7a84ccc",
          "blockNumber": "0x14b1840",
          "blockTimestamp": "0x67946a25",
          "transactionHash": "0xd0f4b8fc20340c9020d664a877ab559a1ac551e2f8f6520b4dda5fa2edcf352f",
          "transactionIndex": "0x1",
          "logIndex": "0x1",
          "removed": false
        },
        {
          "address": "0x775708422797b42bd1017d1ccb67caba2cedaac0",
          "topics": [
            "0xaad1dbbd649002bdbd8281df7f1bc9398548f080a76b5ccece0b61709e2b69cc",
            "0x10f968295adbff8393e64099c47501983ec64d9be08058c9be68d4eff887f4db",
            "0xa7cc1b714ad4df49fcd0ff12b49db27a723d41fb347a64f90fedfc9d551092ef",
            "0x0000000000000000000000003c44cdddb6a900fa2b585dd299e03d12fa4293bc"
          ],
          "data": "0x000000000000000000000000000000000000000000000000000000174876d45a0000000000000000000000000000000000000000000000000000000067946fd000000000000000000000000000000000000000000000000000000000000000010000000000000000000000000000000000000000000000000000000001a7daf00000000000000000000000000000000000000000000000000000000000000000",
          "blockHash": "0x7eb862546b214a5ecfd3381064f421ee6e2dd6535669255d4134d8ace7a84ccc",
          "blockNumber": "0x14b1840",
          "blockTimestamp": "0x67946a25",
          "transactionHash": "0xd0f4b8fc20340c9020d664a877ab559a1ac551e2f8f6520b4dda5fa2edcf352f",
          "transactionIndex": "0x1",
          "logIndex": "0x2",
          "removed": false
        }
      ],
      "logsBloom": "0x00000000000000000000001040000000000000000000000000000000000000000000000000000000002000000000000000000000000000000000000000100000000000000000000000000008000000000000000000000000120000000040000000000000000000000000002002000000000800000000000010000010000000000000000000000000000000000000000000000000000000001000000000000000000000000000200000000000020000000000000000000400000000000000001000000002000000200000000000001000000000000000000000000000000000000000000000000040000000000000000000800000000000000000000100000000",
      "type": "0x2",
      "transactionHash": "0xd0f4b8fc20340c9020d664a877ab559a1ac551e2f8f6520b4dda5fa2edcf352f",
      "transactionIndex": "0x1",
      "blockHash": "0x7eb862546b214a5ecfd3381064f421ee6e2dd6535669255d4134d8ace7a84ccc",
      "blockNumber": "0x14b1840",
      "gasUsed": "0x2575f",
      "effectiveGasPrice": "0x74393d",
      "blobGasPrice": "0x113dc3",
      "from": "0x3c44cdddb6a900fa2b585dd299e03d12fa4293bc",
      "to": "0x775708422797b42bd1017d1ccb67caba2cedaac0",
      "contractAddress": null
    }
  ],
  "libraries": [],
  "pending": [],
  "returns": {},
  "timestamp": 1770328333566,
  "chain": 1,
  "commit": "de3e04a"
}