{
  "transactions": [
    {
      "hash": "0x5d652d9a5c374b90ce30f2575faa0c73c27ddf5c0101d57b54392a30dc734ac5",
      "transactionType": "CALL",
      "contractName": null,
      "contractAddress": "0x2fe19128a8257182fdd77f90ea96d27ca342897a",
      "function": "approve(address,uint256)",
      "arguments": [
        "0x7e0C07EEabb2459D70dba5b8d100Dca44c652aC0",
        "99999998742"
      ],
      "transaction": {
        "from": "0x3c44cdddb6a900fa2b585dd299e03d12fa4293bc",
        "to": "0x2fe19128a8257182fdd77f90ea96d27ca342897a",
        "gas": "0xf7d6",
        "value": "0x0",
        "input": "0x095ea7b30000000000000000000000007e0c07eeabb2459d70dba5b8d100dca44c652ac0000000000000000000000000000000000000000000000000000000174876e316",
        "nonce": "0x33",
        "chainId": "0x1"
      },
      "additionalContracts": [],
      "isFixedGasLimit": false
    },
    {
      "hash": "0xf7cce4f82eba8e9a2482fbe651f0b032c8d2befeddb1f07348fe8216a3fd8ccd",
      "transactionType": "CALL",
      "contractName": null,
      "contractAddress": "0x7e0c07eeabb2459d70dba5b8d100dca44c652ac0",
      "function": "submitOrder(((address,address,uint24,int24,address),bool,uint256,uint256))",
      "arguments": [
        "((0x2fe19128A8257182fdD77f90eA96D27cA342897A, 0xcF6c6272E9e353fc1F3e9A747A7B7AADE3c83389, 500, 5, 0x7e0C07EEabb2459D70dba5b8d100Dca44c652aC0), true, 3600, 99999998742)"
      ],
      "transaction": {
        "from": "0x3c44cdddb6a900fa2b585dd299e03d12fa4293bc",
        "to": "0x7e0c07eeabb2459d70dba5b8d100dca44c652ac0",
        "gas": "0x36c82",
        "value": "0x0",
        "input": "0x676f863a0000000000000000000000002fe19128a8257182fdd77f90ea96d27ca342897a000000000000000000000000cf6c6272e9e353fc1f3e9a747a7b7aade3c8338900000000000000000000000000000000000000000000000000000000000001f400000000000000000000000000000000000000000000000000000000000000050000000000000000000000007e0c07eeabb2459d70dba5b8d100dca44c652ac000000000000000000000000000000000000000000000000000000000000000010000000000000000000000000000000000000000000000000000000000000e10000000000000000000000000000000000000000000000000000000174876e316",
        "nonce": "0x34",
        "chainId": "0x1"
      },
      "additionalContracts": [],
      "isFixedGasLimit": false
    }
  ],
  "receipts": [
    {
      "status": "0x1",
      "cumulativeGasUsed": "0xb36f",
      "logs": [
        {
          "address": "0x2fe19128a8257182fdd77f90ea96d27ca342897a",
          "topics": [
            "0x8c5be1e5ebec7d5bd14f71427d1e84f3dd0314c0f7b2291e5b200ac8c7c3b925",
            "0x0000000000000000000000003c44cdddb6a900fa2b585dd299e03d12fa4293bc",
            "0x0000000000000000000000007e0c07eeabb2459d70dba5b8d100dca44c652ac0"
          ],
          "data": "0x000000000000000000000000000000000000000000000000000000174876e316",
          "blockHash": "0x09a0f46bf34a38084c3166d0ea45ab9af3908f54166851086d1aa083aed77af5",
          "blockNumber": "0x14b1830",
          "blockTimestamp": "0x67946a3c",
          "transactionHash": "0x5d652d9a5c374b90ce30f2575faa0c73c27ddf5c0101d57b54392a30dc734ac5",
          "transactionIndex": "0x0",
          "logIndex": "0x0",
          "removed": false
        }
      ],
      "logsBloom": "0x00000000000000000000000000000000000000000000000000000000000000000000000000000000000000004000000000000000000002000000000000300000000000000000000000000000000000000000000000000000000000000000000000000000000000000000000000000000000800000000000000000000000000000000000000000000000000000000000000000000000000000000000000000000020000000000200000000000000000000040000000000000000000000000000000000000000000000000000000000000000000000000001000000000000000000010000000000000000000000000000020000000000002000000000000000000",
      "type": "0x2",
      "transactionHash": "0x5d652d9a5c374b90ce30f2575faa0c73c27ddf5c0101d57b54392a30dc734ac5",
      "transactionIndex": "0x0",
      "blockHash": "0x09a0f46bf34a38084c3166d0ea45ab9af3908f54166851086d1aa083aed77af5",
      "blockNumber": "0x14b1830",
      "gasUsed": "0xb36f",
      "effectiveGasPrice": "0x9799b5d",
      "blobGasPrice": "0x7180ec",
      "from": "0x3c44cdddb6a900fa2b585dd299e03d12fa4293bc",
      "to": "0x2fe19128a8257182fdd77f90ea96d27ca342897a",
      "contractAddress": null
    },
    {
      "status": "0x1",
      "cumulativeGasUsed": "0x25753",
      "logs": [
        {
          "address": "0x2fe19128a8257182fdd77f90ea96d27ca342897a",
          "topics": [
            "0xddf252ad1be2c89b69c2b068fc378daa952ba7f163c4a11628f55a4df523b3ef",
            "0x0000000000000000000000003c44cdddb6a900fa2b585dd299e03d12fa4293bc",
            "0x0000000000000000000000007e0c07eeabb2459d70dba5b8d100dca44c652ac0"
          ],
          "data": "0x000000000000000000000000000000000000000000000000000000174876dd10",
          "blockHash": "0xaa149b8c1f9634bb2e8d1c0c8a666322df99a6f328be4609dc4946e362fd91b7",
          "blockNumber": "0x14b1831",
          "blockTimestamp": "0x67946a3c",
          "transactionHash": "0xf7cce4f82eba8e9a2482fbe651f0b032c8d2befeddb1f07348fe8216a3fd8ccd",
          "transactionIndex": "0x0",
          "logIndex": "0x0",
          "removed": false
        },
        {
          "address": "0x7e0c07eeabb2459d70dba5b8d100dca44c652ac0",
          "topics": [
            "0xaad1dbbd649002bdbd8281df7f1bc9398548f080a76b5ccece0b61709e2b69cc",
            "0xda100fc1dc21b46f06f5280dc915ca828c53bb63f3b33f171b40f25288da2e93",
            "0xa7cc1b714ad4df49fcd0ff12b49db27a723d41fb347a64f90fedfc9d551092ef",
            "0x0000000000000000000000003c44cdddb6a900fa2b585dd299e03d12fa4293bc"
          ],
          "data": "0x000000000000000000000000000000000000000000000000000000174876e3160000000000000000000000000000000000000000000000000000000067946fd000000000000000000000000000000000000000000000000000000000000000010000000000000000000000000000000000000000000000000000000001a7daf10000000000000000000000000000000000000000000000000000000000000000",
          "blockHash": "0xaa149b8c1f9634bb2e8d1c0c8a666322df99a6f328be4609dc4946e362fd91b7",
          "blockNumber": "0x14b1831",
          "blockTimestamp": "0x67946a3c",
          "transactionHash": "0xf7cce4f82eba8e9a2482fbe651f0b032c8d2befeddb1f07348fe8216a3fd8ccd",
          "transactionIndex": "0x0",
          "logIndex": "0x1",
          "removed": false
        }
      ],
      "logsBloom": "0x00000000000000020000000000000000000000000000000000000000000000000000000000000000000000004000000000000000000002000000000000100000000000000000000000000008000000000000000000000080000000002040000000000000000000000000002000000000000800000000000000000010000000000000000000000000000000000000000000000000000000000000000000000000000000000000200040000000060000000040000000000000000000000000000000000002000000200000000000001000010000000000001000000000000000000000000000000040000000000000000020000000000002000000000000000000",
      "type": "0x2",
      "transactionHash": "0xf7cce4f82eba8e9a2482fbe651f0b032c8d2befeddb1f07348fe8216a3fd8ccd",
      "transactionIndex": "0x0",
      "blockHash": "0xaa149b8c1f9634bb2e8d1c0c8a666322df99a6f328be4609dc4946e362fd91b7",
      "blockNumber": "0x14b1831",
      "gasUsed": "0x25753",
      "effectiveGasPrice": "0x8ff06bb",
      "blobGasPrice": "0x64e460",
      "from": "0x3c44cdddb6a900fa2b585dd299e03d12fa4293bc",
      "to": "0x7e0c07eeabb2459d70dba5b8d100dca44c652ac0",
      "contractAddress": null
    }
  ],
  "libraries": [],
  "pending": [],
  "returns": {},
  "timestamp": 1770061954078,
  "chain": 1,
  "commit": "290e97f"
}