{
  "transactions": [
    {
      "hash": "0x1509764ed04a65807ebfe39eb88ae5f1ec9401e07e37a515412866e156ac6307",
      "transactionType": "CALL",
      "contractName": null,
      "contractAddress": "0xb9b0c96e4e7181926d2a7ed331c9c346dfa59b4d",
      "function": "approve(address,uint256)",
      "arguments": [
        "0xA49885dCCE26fAbd0828ae11402bEb6cecFCaAc0",
        "40000000000"
      ],
      "transaction": {
        "from": "0x3c44cdddb6a900fa2b585dd299e03d12fa4293bc",
        "to": "0xb9b0c96e4e7181926d2a7ed331c9c346dfa59b4d",
        "gas": "0xa4ba",
        "value": "0x0",
        "input": "0x095ea7b3000000000000000000000000a49885dcce26fabd0828ae11402beb6cecfcaac000000000000000000000000000000000000000000000000000000009502f9000",
        "nonce": "0x40",
        "chainId": "0x1"
      },
      "additionalContracts": [],
      "isFixedGasLimit": false
    },
    {
      "hash": "0x7012705e12f4cb646593229730d5f153ff9e0fd3bb2aeb8d206f2aac5c1f51e9",
      "transactionType": "CALL",
      "contractName": null,
      "contractAddress": "0xa49885dcce26fabd0828ae11402beb6cecfcaac0",
      "function": "submitOrder(((address,address,uint24,int24,address),bool,uint256,uint256))",
      "arguments": [
        "((0xb9b0c96e4E7181926D2A7ed331C9C346dfa59b4D, 0xcF6c6272E9e353fc1F3e9A747A7B7AADE3c83389, 500, 5, 0xA49885dCCE26fAbd0828ae11402bEb6cecFCaAc0), true, 14400, 40000000000)"
      ],
      "transaction": {
        "from": "0x3c44cdddb6a900fa2b585dd299e03d12fa4293bc",
        "to": "0xa49885dcce26fabd0828ae11402beb6cecfcaac0",
        "gas": "0x37c81",
        "value": "0x0",
        "input": "0x676f863a000000000000000000000000b9b0c96e4e7181926d2a7ed331c9c346dfa59b4d000000000000000000000000cf6c6272e9e353fc1f3e9a747a7b7aade3c8338900000000000000000000000000000000000000000000000000000000000001f40000000000000000000000000000000000000000000000000000000000000005000000000000000000000000a49885dcce26fabd0828ae11402beb6cecfcaac00000000000000000000000000000000000000000000000000000000000000001000000000000000000000000000000000000000000000000000000000000384000000000000000000000000000000000000000000000000000000009502f9000",
        "nonce": "0x41",
        "chainId": "0x1"
      },
      "additionalContracts": [],
      "isFixedGasLimit": false
    }
  ],
  "receipts": [
    {
      "status": "0x1",
      "cumulativeGasUsed": "0x70a3",
      "logs": [
        {
          "address": "0xb9b0c96e4e7181926d2a7ed331c9c346dfa59b4d",
          "topics": [
            "0x8c5be1e5ebec7d5bd14f71427d1e84f3dd0314c0f7b2291e5b200ac8c7c3b925",
            "0x0000000000000000000000003c44cdddb6a900fa2b585dd299e03d12fa4293bc",
            "0x000000000000000000000000a49885dcce26fabd0828ae11402beb6cecfcaac0"
          ],
          "data": "0x00000000000000000000000000000000000000000000000000000009502f9000",
          "blockHash": "0x4b1dcaa858043821d8e8bd457b119d667fcd674fec55f883a7f8686b5146fc4e",
          "blockNumber": "0x14b1a21",
          "blockTimestamp": "0x6795279a",
          "transactionHash": "0x1509764ed04a65807ebfe39eb88ae5f1ec9401e07e37a515412866e156ac6307",
          "transactionIndex": "0x0",
          "logIndex": "0x0",
          "removed": false
        }
      ],
      "logsBloom": "0x00000000000000000000000000000000000000000000000000000000000000000000000000000000000000000000000002000000000000000000000000300000000000000000000000000000000000000000000000000000100000000000000000000000000000000000000000000000000800000000000000000000000000000000000000000000000000000000000000000000010000000000000000000000020000000000200000000000000000200000000000000000000000000000001000000000000000000000000000000000000000000000000000000000000000000010000000000000000000000000000000000000000000000000000100000000",
      "type": "0x2",
      "transactionHash": "0x1509764ed04a65807ebfe39eb88ae5f1ec9401e07e37a515412866e156ac6307",
      "transactionIndex": "0x0",
      "blockHash": "0x4b1dcaa858043821d8e8bd457b119d667fcd674fec55f883a7f8686b5146fc4e",
      "blockNumber": "0x14b1a21",
      "gasUsed": "0x70a3",
      "effectiveGasPrice": "0x3b9aca07",
      "blobGasPrice": "0x1",
      "from": "0x3c44cdddb6a900fa2b585dd299e03d12fa4293bc",
      "to": "0xb9b0c96e4e7181926d2a7ed331c9c346dfa59b4d",
      "contractAddress": null
    },
    {
      "status": "0x1",
      "cumulativeGasUsed": "0x2d2e6",
      "logs": [
        {
          "address": "0xb9b0c96e4e7181926d2a7ed331c9c346dfa59b4d",
          "topics": [
            "0xddf252ad1be2c89b69c2b068fc378daa952ba7f163c4a11628f55a4df523b3ef",
            "0x0000000000000000000000003c44cdddb6a900fa2b585dd299e03d12fa4293bc",
            "0x000000000000000000000000a49885dcce26fabd0828ae11402beb6cecfcaac0"
          ],
          "data": "0x00000000000000000000000000000000000000000000000000000009502f6440",
          "blockHash": "0x4b1dcaa858043821d8e8bd457b119d667fcd674fec55f883a7f8686b5146fc4e",
          "blockNumber": "0x14b1a21",
          "blockTimestamp": "0x6795279a",
          "transactionHash": "0x7012705e12f4cb646593229730d5f153ff9e0fd3bb2aeb8d206f2aac5c1f51e9",
          "transactionIndex": "0x1",
          "logIndex": "0x1",
          "removed": false
        },
        {
          "address": "0xa49885dcce26fabd0828ae11402beb6cecfcaac0",
          "topics": [
            "0xaad1dbbd649002bdbd8281df7f1bc9398548f080a76b5ccece0b61709e2b69cc",
            "0x505563b524bcbd01b3045aabb166ca18cd153154bf84a64a70ca6a98aab1c2aa",
            "0xfe9194d89b0009ffca8e817772c9431c6a9f9fe5adf2a9c008cc45a68124817b",
            "0x0000000000000000000000003c44cdddb6a900fa2b585dd299e03d12fa4293bc"
          ],
          "data": "0x00000000000000000000000000000000000000000000000000000009502f90000000000000000000000000000000000000000000000000000000000067955ee0000000000000000000000000000000000000000000000000000000000000000100000000000000000000000000000000000000000000000000000000002a62b1000000000000000000000000000000000000100cfac7125e277122e2bce24b3f",
          "blockHash": "0x4b1dcaa858043821d8e8bd457b119d667fcd674fec55f883a7f8686b5146fc4e",
          "blockNumber": "0x14b1a21",
          "blockTimestamp": "0x6795279a",
          "transactionHash": "0x7012705e12f4cb646593229730d5f153ff9e0fd3bb2aeb8d206f2aac5c1f51e9",
          "transactionIndex": "0x1",
          "logIndex": "0x2",
          "removed": false
        }
      ],
      "logsBloom": "0x00000000000000000000000000000000000000000000000000000000000000000000080000000000000000000000000002000000000000000000000000100000000000000000000000004008000000000000000000000000100000001000000000000000000000000000002000000000000800000020000000008010000000000000000000000000000000000000000000000000010000000000000000000000000000000000200000000000020000200000000000000000000000000000001020000002000000000000000020000000000000000000000000000000081000000000000000000040000000000000000000000000000000000000000100000000",
      "type": "0x2",
      "transactionHash": "0x7012705e12f4cb646593229730d5f153ff9e0fd3bb2aeb8d206f2aac5c1f51e9",
      "transactionIndex": "0x1",
      "blockHash": "0x4b1dcaa858043821d8e8bd457b119d667fcd674fec55f883a7f8686b5146fc4e",
      "blockNumber": "0x14b1a21",
      "gasUsed": "0x26243",
      "effectiveGasPrice": "0x3b9aca07",
      "blobGasPrice": "0x1",
      "from": "0x3c44cdddb6a900fa2b585dd299e03d12fa4293bc",
      "to": "0xa49885dcce26fabd0828ae11402beb6cecfcaac0",
      "contractAddress": null
    }
  ],
  "libraries": [],
  "pending": [],
  "returns": {},
  "timestamp": 1770331086199,
  "chain": 1,
  "commit": "de3e04a"
}