{
  "transactions": [
    {
      "hash": "0xcb6357756aa57fe235c28dd86fa144c8f2a98b924647922c2b01355a122b0a19",
      "transactionType": "CALL",
      "contractName": null,
      "contractAddress": "0x2fe19128a8257182fdd77f90ea96d27ca342897a",
      "function": "approve(address,uint256)",
      "arguments": [
        "0x7e0C07EEabb2459D70dba5b8d100Dca44c652aC0",
        "50000000"
      ],
      "transaction": {
        "from": "0x3c44cdddb6a900fa2b585dd299e03d12fa4293bc",
        "to": "0x2fe19128a8257182fdd77f90ea96d27ca342897a",
        "gas": "0x10659",
        "value": "0x0",
        "input": "0x095ea7b30000000000000000000000007e0c07eeabb2459d70dba5b8d100dca44c652ac00000000000000000000000000000000000000000000000000000000002faf080",
        "nonce": "0x33",
        "chainId": "0x1"
      },
      "additionalContracts": [],
      "isFixedGasLimit": false
    },
    {
      "hash": "0x534456d4879cfb87b3cada1812226b69511b6a43b64c7c11e4b3c9d212ad79fc",
      "transactionType": "CALL",
      "contractName": null,
      "contractAddress": "0x7e0c07eeabb2459d70dba5b8d100dca44c652ac0",
      "function": "submitOrder(((address,address,uint24,int24,address),bool,uint256,uint256))",
      "arguments": [
        "((0x2fe19128A8257182fdD77f90eA96D27cA342897A, 0xcF6c6272E9e353fc1F3e9A747A7B7AADE3c83389, 500, 5, 0x7e0C07EEabb2459D70dba5b8d100Dca44c652aC0), true, 3600, 50000000)"
      ],
      "transaction": {
        "from": "0x3c44cdddb6a900fa2b585dd299e03d12fa4293bc",
        "to": "0x7e0c07eeabb2459d70dba5b8d100dca44c652ac0",
        "gas": "0x33bbf",
        "value": "0x0",
        "input": "0x676f863a0000000000000000000000002fe19128a8257182fdd77f90ea96d27ca342897a000000000000000000000000cf6c6272e9e353fc1f3e9a747a7b7aade3c8338900000000000000000000000000000000000000000000000000000000000001f400000000000000000000000000000000000000000000000000000000000000050000000000000000000000007e0c07eeabb2459d70dba5b8d100dca44c652ac000000000000000000000000000000000000000000000000000000000000000010000000000000000000000000000000000000000000000000000000000000e100000000000000000000000000000000000000000000000000000000002faf080",
        "nonce": "0x34",
        "chainId": "0x1"
      },
      "additionalContracts": [],
      "isFixedGasLimit": false
    }
  ],
  "receipts": [
    {
      "status": "0x1",
      "cumulativeGasUsed": "0xb363",
      "logs": [
        {
          "address": "0x2fe19128a8257182fdd77f90ea96d27ca342897a",
          "topics": [
            "0x8c5be1e5ebec7d5bd14f71427d1e84f3dd0314c0f7b2291e5b200ac8c7c3b925",
            "0x0000000000000000000000003c44cdddb6a900fa2b585dd299e03d12fa4293bc",
            "0x0000000000000000000000007e0c07eeabb2459d70dba5b8d100dca44c652ac0"
          ],
          "data": "0x0000000000000000000000000000000000000000000000000000000002faf080",
          "blockHash": "0x22886e668461db8f82fd9a2c0938a795db208387773efd2f486fd7f24e8a41fb",
          "blockNumber": "0x14b1835",
          "blockTimestamp": "0x67948712",
          "transactionHash": "0xcb6357756aa57fe235c28dd86fa144c8f2a98b924647922c2b01355a122b0a19",
          "transactionIndex": "0x0",
          "logIndex": "0x0",
          "removed": false
        }
      ],
      "logsBloom": "0x00000000000000000000000000000000000000000000000000000000000000000000000000000000000000004000000000000000000002000000000000300000000000000000000000000000000000000000000000000000000000000000000000000000000000000000000000000000000800000000000000000000000000000000000000000000000000000000000000000000000000000000000000000000020000000000200000000000000000000040000000000000000000000000000000000000000000000000000000000000000000000000001000000000000000000010000000000000000000000000000020000000000002000000000000000000",
      "type": "0x2",
      "transactionHash": "0xcb6357756aa57fe235c28dd86fa144c8f2a98b924647922c2b01355a122b0a19",
      "transactionIndex": "0x0",
      "blockHash": "0x22886e668461db8f82fd9a2c0938a795db208387773efd2f486fd7f24e8a41fb",
      "blockNumber": "0x14b1835",
      "gasUsed": "0xb363",
      "effectiveGasPrice": "0x79b95b8",
      "blobGasPrice": "0x3efc87",
      "from": "0x3c44cdddb6a900fa2b585dd299e03d12fa4293bc",
      "to": "0x2fe19128a8257182fdd77f90ea96d27ca342897a",
      "contractAddress": null
    },
    {
      "status": "0x1",
      "cumulativeGasUsed": "0x25747",
      "logs": [
        {
          "address": "0x2fe19128a8257182fdd77f90ea96d27ca342897a",
          "topics": [
            "0xddf252ad1be2c89b69c2b068fc378daa952ba7f163c4a11628f55a4df523b3ef",
            "0x0000000000000000000000003c44cdddb6a900fa2b585dd299e03d12fa4293bc",
            "0x0000000000000000000000007e0c07eeabb2459d70dba5b8d100dca44c652ac0"
          ],
          "data": "0x0000000000000000000000000000000000000000000000000000000002fae400",
          "blockHash": "0xa49baae3cfb2fee57c60baf14d52c2b1eec9fa28bc3725374fbc64aa0444b015",
          "blockNumber": "0x14b1836",
          "blockTimestamp": "0x67948712",
          "transactionHash": "0x534456d4879cfb87b3cada1812226b69511b6a43b64c7c11e4b3c9d212ad79fc",
          "transactionIndex": "0x0",
          "logIndex": "0x0",
          "removed": false
        },
        {
          "address": "0x7e0c07eeabb2459d70dba5b8d100dca44c652ac0",
          "topics": [
            "0xaad1dbbd649002bdbd8281df7f1bc9398548f080a76b5ccece0b61709e2b69cc",
            "0xda100fc1dc21b46f06f5280dc915ca828c53bb63f3b33f171b40f25288da2e93",
            "0x5ad7885d17460cd63895004ac4dc6a1ec959504ffd3f989d3f1c8c98746d206a",
            "0x0000000000000000000000003c44cdddb6a900fa2b585dd299e03d12fa4293bc"
          ],
          "data": "0x0000000000000000000000000000000000000000000000000000000002faf0800000000000000000000000000000000000000000000000000000000067948bf0000000000000000000000000000000000000000000000000000000000000000100000000000000000000000000000000000000000000000000000000000036400000000000000000000000000000000000000000000000000000000000000000",
          "blockHash": "0xa49baae3cfb2fee57c60baf14d52c2b1eec9fa28bc3725374fbc64aa0444b015",
          "blockNumber": "0x14b1836",
          "blockTimestamp": "0x67948712",
          "transactionHash": "0x534456d4879cfb87b3cada1812226b69511b6a43b64c7c11e4b3c9d212ad79fc",
          "transactionIndex": "0x0",
          "logIndex": "0x1",
          "removed": false
        }
      ],
      "logsBloom": "0x04000000000000020000000000000000000000000000000000000000000000000000000000000000000000004000000000000000000002000000000000100000000000000000000000000008000000000000000000000080000000002000000000000000000000000000002000000000000800000000000000000010000000000000000000000000000000000000000000010000000000000000000000000000000000000000200040000000064000000040000000000000000000000000000000000002000000000000000000000000010000000000001000000000000000000000000000000040000000000000000020000000000002000000000000000000",
      "type": "0x2",
      "transactionHash": "0x534456d4879cfb87b3cada1812226b69511b6a43b64c7c11e4b3c9d212ad79fc",
      "transactionIndex": "0x0",
      "blockHash": "0xa49baae3cfb2fee57c60baf14d52c2b1eec9fa28bc3725374fbc64aa0444b015",
      "blockNumber": "0x14b1836",
      "gasUsed": "0x25747",
      "effectiveGasPrice": "0x75c9306",
      "blobGasPrice": "0x37fce9",
      "from": "0x3c44cdddb6a900fa2b585dd299e03d12fa4293bc",
      "to": "0x7e0c07eeabb2459d70dba5b8d100dca44c652ac0",
      "contractAddress": null
    }
  ],
  "libraries": [],
  "pending": [],
  "returns": {},
  "timestamp": 1770056198642,
  "chain": 1,
  "commit": "290e97f"
}