{
  "transactions": [
    {
      "hash": "0x8a7d4fff54e28c38fb2482dc640da1d8061f8a31c3a0f59a3bbbee7b7cfc84ee",
      "transactionType": "CALL",
      "contractName": null,
      "contractAddress": "0x8abb0fb72155756625412fd1e943720956e52adb",
      "function": "approve(address,uint256)",
      "arguments": [
        "0x7e0C07EEabb2459D70dba5b8d100Dca44c652aC0",
        "500000000"
      ],
      "transaction": {
        "from": "0x3c44cdddb6a900fa2b585dd299e03d12fa4293bc",
        "to": "0x8abb0fb72155756625412fd1e943720956e52adb",
        "gas": "0xf7b6",
        "value": "0x0",
        "input": "0x095ea7b30000000000000000000000007e0c07eeabb2459d70dba5b8d100dca44c652ac0000000000000000000000000000000000000000000000000000000001dcd6500",
        "nonce": "0x979",
        "chainId": "0x1"
      },
      "additionalContracts": [],
      "isFixedGasLimit": false
    },
    {
      "hash": "0x2278bf8af2968bd4543c08ed4247216b30bbb22200f7ad71b812fea135e3dd5e",
      "transactionType": "CALL",
      "contractName": null,
      "contractAddress": "0x7e0c07eeabb2459d70dba5b8d100dca44c652ac0",
      "function": "submitOrder(((address,address,uint24,int24,address),bool,uint256,uint256))",
      "arguments": [
        "((0x8AbB0Fb72155756625412FD1E943720956e52adb, 0xF93ddc4186828351b8d31623cc4F3700bF579F25, 500, 5, 0x7e0C07EEabb2459D70dba5b8d100Dca44c652aC0), true, 3600, 500000000)"
      ],
      "transaction": {
        "from": "0x3c44cdddb6a900fa2b585dd299e03d12fa4293bc",
        "to": "0x7e0c07eeabb2459d70dba5b8d100dca44c652ac0",
        "gas": "0x33b9e",
        "value": "0x0",
        "input": "0x676f863a0000000000000000000000008abb0fb72155756625412fd1e943720956e52adb000000000000000000000000f93ddc4186828351b8d31623cc4f3700bf579f2500000000000000000000000000000000000000000000000000000000000001f400000000000000000000000000000000000000000000000000000000000000050000000000000000000000007e0c07eeabb2459d70dba5b8d100dca44c652ac000000000000000000000000000000000000000000000000000000000000000010000000000000000000000000000000000000000000000000000000000000e10000000000000000000000000000000000000000000000000000000001dcd6500",
        "nonce": "0x97a",
        "chainId": "0x1"
      },
      "additionalContracts": [],
      "isFixedGasLimit": false
    }
  ],
  "receipts": [
    {
      "status": "0x1",
      "cumulativeGasUsed": "0xb357",
      "logs": [
        {
          "address": "0x8abb0fb72155756625412fd1e943720956e52adb",
          "topics": [
            "0x8c5be1e5ebec7d5bd14f71427d1e84f3dd0314c0f7b2291e5b200ac8c7c3b925",
            "0x0000000000000000000000003c44cdddb6a900fa2b585dd299e03d12fa4293bc",
            "0x0000000000000000000000007e0c07eeabb2459d70dba5b8d100dca44c652ac0"
          ],
          "data": "0x000000000000000000000000000000000000000000000000000000001dcd6500",
          "blockHash": "0x43555ffa212f6e946cdd692014d45c79054fe8f5e72382c888cf26f1ec511289",
          "blockNumber": "0x173c176",
          "blockTimestamp": "0x6980154d",
          "transactionHash": "0x8a7d4fff54e28c38fb2482dc640da1d8061f8a31c3a0f59a3bbbee7b7cfc84ee",
          "transactionIndex": "0x0",
          "logIndex": "0x0",
          "removed": false
        }
      ],
      "logsBloom": "0x00000000000000000000000000000000000000000000000000000000000000000000000000000000000000000000000000000000000002000000000000300000000000000000000000000000040000000000000000000000000000000000000000000000000000000000000000000000000800000000000000000000000000000000000000000000000000000000000000000000000000000000000000000000020000000000200000000000000000000000000000000000000000000000000000000000000000000000000000000000000000000000001000000000000000100010000000000000000000000000000000000008000002000000000000000000",
      "type": "0x2",
      "transactionHash": "0x8a7d4fff54e28c38fb2482dc640da1d8061f8a31c3a0f59a3bbbee7b7cfc84ee",
      "transactionIndex": "0x0",
      "blockHash": "0x43555ffa212f6e946cdd692014d45c79054fe8f5e72382c888cf26f1ec511289",
      "blockNumber": "0x173c176",
      "gasUsed": "0xb357",
      "effectiveGasPrice": "0x1d279e",
      "blobGasPrice": "0x1",
      "from": "0x3c44cdddb6a900fa2b585dd299e03d12fa4293bc",
      "to": "0x8abb0fb72155756625412fd1e943720956e52adb",
      "contractAddress": null
    },
    {
      "status": "0x1",
      "cumulativeGasUsed": "0x2572f",
      "logs": [
        {
          "address": "0x8abb0fb72155756625412fd1e943720956e52adb",
          "topics": [
            "0xddf252ad1be2c89b69c2b068fc378daa952ba7f163c4a11628f55a4df523b3ef",
            "0x0000000000000000000000003c44cdddb6a900fa2b585dd299e03d12fa4293bc",
            "0x0000000000000000000000007e0c07eeabb2459d70dba5b8d100dca44c652ac0"
          ],
          "data": "0x000000000000000000000000000000000000000000000000000000001dcd5880",
          "blockHash": "0x186fc1c3417025214bba47fef261bca338040169472a48f301c366a20014f88a",
          "blockNumber": "0x173c177",
          "blockTimestamp": "0x6980154d",
          "transactionHash": "0x2278bf8af2968bd4543c08ed4247216b30bbb22200f7ad71b812fea135e3dd5e",
          "transactionIndex": "0x0",
          "logIndex": "0x0",
          "removed": false
        },
        {
          "address": "0x7e0c07eeabb2459d70dba5b8d100dca44c652ac0",
          "topics": [
            "0xaad1dbbd649002bdbd8281df7f1bc9398548f080a76b5ccece0b61709e2b69cc",
            "0xa9b52f776c15c6ac361f1202c36f6599f20322d3d39b1492c82e4b8535d37137",
            "0x8a52bef81f9268e769ad3eb6269f1624945285bd2d9a6765c3c2763972b57362",
            "0x0000000000000000000000003c44cdddb6a900fa2b585dd299e03d12fa4293bc"
          ],
          "data": "0x000000000000000000000000000000000000000000000000000000001dcd6500000000000000000000000000000000000000000000000000000000006980214000000000000000000000000000000000000000000000000000000000000000010000000000000000000000000000000000000000000000000000000000021e880000000000000000000000000000000000000000000000000000000000000000",
          "blockHash": "0x186fc1c3417025214bba47fef261bca338040169472a48f301c366a20014f88a",
          "blockNumber": "0x173c177",
          "blockTimestamp": "0x6980154d",
          "transactionHash": "0x2278bf8af2968bd4543c08ed4247216b30bbb22200f7ad71b812fea135e3dd5e",
          "transactionIndex": "0x0",
          "logIndex": "0x1",
          "removed": false
        }
      ],
      "logsBloom": "0x00000000000000000000000000000000000000000000000000000000000000000000000000000000000000000000000000000000000002000000000000100000000000000000000000000008040000000000000000000000000000000040000000000000000000000000002000000000000800000000000000000030000000000000000000000000000000000000000020000000000400000000000000000000000000000000200040000000060000000000000000000000000000000000000000000002000000000002000000000000010000000000001000000000000000100000000000040040000000000000000000000008000002000000000000000000",
      "type": "0x2",
      "transactionHash": "0x2278bf8af2968bd4543c08ed4247216b30bbb22200f7ad71b812fea135e3dd5e",
      "transactionIndex": "0x0",
      "blockHash": "0x186fc1c3417025214bba47fef261bca338040169472a48f301c366a20014f88a",
      "blockNumber": "0x173c177",
      "gasUsed": "0x2572f",
      "effectiveGasPrice": "0x1984d3",
      "blobGasPrice": "0x1",
      "from": "0x3c44cdddb6a900fa2b585dd299e03d12fa4293bc",
      "to": "0x7e0c07eeabb2459d70dba5b8d100dca44c652ac0",
      "contractAddress": null
    }
  ],
  "libraries": [],
  "pending": [],
  "returns": {},
  "timestamp": 1770055624940,
  "chain": 1,
  "commit": "290e97f"
}