{
  "transactions": [
    {
      "hash": "0x5b5d6d5771ada157da224d8f7f2fc9b8630cc8579fa3942cab6667cfa7d115f7",
      "transactionType": "CALL",
      "contractName": null,
      "contractAddress": "0xe5079266f1efe32c4bcf36d60f08b240f1b347de",
      "function": "execute(address,bytes,bytes[])",
      "arguments": [
        "0x6Ab7099A30097f4865efF560C4ECF8B6c4d4182E",
        "0x10bf56838760cc57ebe477b78b3a2e02ae2f41649caf3cdf540784e84ce2df7860e1999e9ca85885751f9c292dd863252ef0688e93c39f79dc7f0b5ba33af9881c",
        "[0x350c35e9000000000000000000000000e5079266f1efe32c4bcf36d60f08b240f1b347de000000000000000000000000000000000000000000000000000000174876e800, 0x14776d76000000000000000000000000e5079266f1efe32c4bcf36d60f08b240f1b347de000000000000000000000000000000000000000000000000000000174876e800]"
      ],
      "transaction": {
        "from": "0xf39fd6e51aad88f6f4ce6ab8827279cfffb92266",
        "to": "0xe5079266f1efe32c4bcf36d60f08b240f1b347de",
        "value": "0x0",
        "input": "0xa12a82340000000000000000000000006ab7099a30097f4865eff560c4ecf8b6c4d4182e000000000000000000000000000000000000000000000000000000000000006000000000000000000000000000000000000000000000000000000000000000e0000000000000000000000000000000000000000000000000000000000000004110bf56838760cc57ebe477b78b3a2e02ae2f41649caf3cdf540784e84ce2df7860e1999e9ca85885751f9c292dd863252ef0688e93c39f79dc7f0b5ba33af9881c000000000000000000000000000000000000000000000000000000000000000000000000000000000000000000000000000000000000000000000000000002000000000000000000000000000000000000000000000000000000000000004000000000000000000000000000000000000000000000000000000000000000c00000000000000000000000000000000000000000000000000000000000000044350c35e9000000000000000000000000e5079266f1efe32c4bcf36d60f08b240f1b347de000000000000000000000000000000000000000000000000000000174876e80000000000000000000000000000000000000000000000000000000000000000000000000000000000000000000000000000000000000000000000004414776d76000000000000000000000000e5079266f1efe32c4bcf36d60f08b240f1b347de000000000000000000000000000000000000000000000000000000174876e80000000000000000000000000000000000000000000000000000000000",
        "nonce": "0x1274",
        "chainId": "0x1"
      },
      "additionalContracts": [],
      "isFixedGasLimit": false
    }
  ],
  "receipts": [
    {
      "status": "0x1",
      "cumulativeGasUsed": "0x44eaf",
      "logs": [
        {
          "address": "0x6ab7099a30097f4865eff560c4ecf8b6c4d4182e",
          "topics": [
            "0x966c160e1c4dbc7df8d69af4ace01e9297c3cf016397b7914971f2fbfa32672d",
            "0x000000000000000000000000e5079266f1efe32c4bcf36d60f08b240f1b347de"
          ],
          "data": "0x0000000000000000000000000000000000000000000000000000000000000001",
          "blockHash": "0x8ed56a102cef69e981106a6ffe7dcaea114740398fd5066be3c94b54c0b5118e",
          "blockNumber": "0x173c155",
          "blockTimestamp": "0x697fa142",
          "transactionHash": "0x5b5d6d5771ada157da224d8f7f2fc9b8630cc8579fa3942cab6667cfa7d115f7",
          "transactionIndex": "0x0",
          "logIndex": "0x0",
          "removed": false
        },
        {
          "address": "0xd1620dac6d79be34f8500756b47cf91b1fa5cc8c",
          "topics": [
            "0xddf252ad1be2c89b69c2b068fc378daa952ba7f163c4a11628f55a4df523b3ef",
            "0x0000000000000000000000006ab7099a30097f4865eff560c4ecf8b6c4d4182e",
            "0x000000000000000000000000e5079266f1efe32c4bcf36d60f08b240f1b347de"
          ],
          "data": "0x000000000000000000000000000000000000000000000000000000174876e800",
          "blockHash": "0x8ed56a102cef69e981106a6ffe7dcaea114740398fd5066be3c94b54c0b5118e",
          "blockNumber": "0x173c155",
          "blockTimestamp": "0x697fa142",
          "transactionHash": "0x5b5d6d5771ada157da224d8f7f2fc9b8630cc8579fa3942cab6667cfa7d115f7",
          "transactionIndex": "0x0",
          "logIndex": "0x1",
          "removed": false
        },
        {
          "address": "0x9ed4f4724b521326a9d9d2420252440bd05556c4",
          "topics": [
            "0xddf252ad1be2c89b69c2b068fc378daa952ba7f163c4a11628f55a4df523b3ef",
            "0x0000000000000000000000006ab7099a30097f4865eff560c4ecf8b6c4d4182e",
            "0x000000000000000000000000e5079266f1efe32c4bcf36d60f08b240f1b347de"
          ],
          "data": "0x000000000000000000000000000000000000000000000000000000174876e800",
          "blockHash": "0x8ed56a102cef69e981106a6ffe7dcaea114740398fd5066be3c94b54c0b5118e",
          "blockNumber": "0x173c155",
          "blockTimestamp": "0x697fa142",
          "transactionHash": "0x5b5d6d5771ada157da224d8f7f2fc9b8630cc8579fa3942cab6667cfa7d115f7",
          "transactionIndex": "0x0",
          "logIndex": "0x2",
          "removed": false
        },
        {
          "address": "0x6ab7099a30097f4865eff560c4ecf8b6c4d4182e",
          "topics": [
            "0x966c160e1c4dbc7df8d69af4ace01e9297c3cf016397b7914971f2fbfa32672d",
            "0x000000000000000000000000e5079266f1efe32c4bcf36d60f08b240f1b347de"
          ],
          "data": "0x0000000000000000000000000000000000000000000000000000000000000000",
          "blockHash": "0x8ed56a102cef69e981106a6ffe7dcaea114740398fd5066be3c94b54c0b5118e",
          "blockNumber": "0x173c155",
          "blockTimestamp": "0x697fa142",
          "transactionHash": "0x5b5d6d5771ada157da224d8f7f2fc9b8630cc8579fa3942cab6667cfa7d115f7",
          "transactionIndex": "0x0",
          "logIndex": "0x3",
          "removed": false
        }
      ],
      "logsBloom": "0x00000000104000008004100000000000000400000000000000000000000000000000000000000000000000000000000200000000040000000000000000000000002000000000000000000008000000000400800000000000000000004000000000000000000000000000000000000000020000000000000000000010000000000000022000000000000000000000000000000000000000000000000008000000000000000000000000000000000000000000000000000000000000000000000000000002000000000000000000000000000000000000000000080000000000000000000000000000000000100000000000000000000000000000000000000000",
      "type": "0x2",
      "transactionHash": "0x5b5d6d5771ada157da224d8f7f2fc9b8630cc8579fa3942cab6667cfa7d115f7",
      "transactionIndex": "0x0",
      "blockHash": "0x8ed56a102cef69e981106a6ffe7dcaea114740398fd5066be3c94b54c0b5118e",
      "blockNumber": "0x173c155",
      "gasUsed": "0x44eaf",
      "effectiveGasPrice": "0x8e54d37",
      "blobGasPrice": "0x1",
      "from": "0xf39fd6e51aad88f6f4ce6ab8827279cfffb92266",
      "to": "0xe5079266f1efe32c4bcf36d60f08b240f1b347de",
      "contractAddress": null
    }
  ],
  "libraries": [],
  "pending": [],
  "returns": {},
  "timestamp": 1769988120432,
  "chain": 1,
  "commit": "290e97f"
}