{
  "transactions": [
    {
      "hash": "0xbceb24f37ea57d5e40c541a3bd05f496d730201c2afe73ae2435cbd67ca8121b",
      "transactionType": "CALL",
      "contractName": null,
      "contractAddress": "0xe5079266f1efe32c4bcf36d60f08b240f1b347de",
      "function": "execute(address,bytes,(address,bytes)[])",
      "arguments": [
        "0x0F14870509E3Bb914fBB4316232ed0520eC4Ea58",
        "0x088ad24458c7c563a9678f73352f292f8aca6d939de24829e25a8d6c250b675947281257fd3cb84f43240b4d82be46983c1a6299ba7261cb5e5b6ad96530664f1b",
        "[(0x0F14870509E3Bb914fBB4316232ed0520eC4Ea58, 0x350c35e9000000000000000000000000e5079266f1efe32c4bcf36d60f08b240f1b347de000000000000000000000000000000000000000000000000000000174876e800), (0x0F14870509E3Bb914fBB4316232ed0520eC4Ea58, 0x14776d76000000000000000000000000e5079266f1efe32c4bcf36d60f08b240f1b347de000000000000000000000000000000000000000000000000000000174876e800), (0xD1620Dac6d79BE34F8500756B47cf91B1fA5Cc8C, 0x095ea7b3000000000000000000000000000000000022d473030f116ddee9f6b43ac78ba3ffffffffffffffffffffffffffffffffffffffffffffffffffffffffffffffff), (0x9ed4F4724b521326a9d9d2420252440bD05556c4, 0x095ea7b3000000000000000000000000000000000022d473030f116ddee9f6b43ac78ba3ffffffffffffffffffffffffffffffffffffffffffffffffffffffffffffffff), (0x000000000022D473030F116dDEE9F6B43aC78BA3, 0x87517c45000000000000000000000000d1620dac6d79be34f8500756b47cf91b1fa5cc8c000000000000000000000000bd216513d74c8cf14cf4747e6aaa6420ff64ee9e000000000000000000000000ffffffffffffffffffffffffffffffffffffffff00000000000000000000000000000000000000000000000000000000697faf96), (0x000000000022D473030F116dDEE9F6B43aC78BA3, 0x87517c450000000000000000000000009ed4f4724b521326a9d9d2420252440bd05556c4000000000000000000000000bd216513d74c8cf14cf4747e6aaa6420ff64ee9e000000000000000000000000ffffffffffffffffffffffffffffffffffffffff00000000000000000000000000000000000000000000000000000000697faf96), (0xbD216513d74C8cf14cf4747E6AaA6420FF64ee9e, 0xdd46508f000000000000000000000000000000000000000000000000000000000000004000000000000000000000000000000000000000000000000000000000697faf9600000000000000000000000000000000000000000000000000000000000003400000000000000000000000000000000000000000000000000000000000000040000000000000000000000000000000000000000000000000000000000000008000000000000000000000000000000000000000000000000000000000000000030212120000000000000000000000000000000000000000000000000000000000000000000000000000000000000000000000000000000000000000000000000300000000000000000000000000000000000000000000000000000000000000600000000000000000000000000000000000000000000000000000000000000220000000000000000000000000000000000000000000000000000000000000026000000000000000000000000000000000000000000000000000000000000001a00000000000000000000000009ed4f4724b521326a9d9d2420252440bd05556c4000000000000000000000000d1620dac6d79be34f8500756b47cf91b1fa5cc8c00000000000000000000000000000000000000000000000000000000000001f400000000000000000000000000000000000000000000000000000000000000050000000000000000000000007e0c07eeabb2459d70dba5b8d100dca44c652ac00000000000000000000000000000000000000000000000000000000000001b1200000000000000000000000000000000000000000000000000000000000075080000000000000000000000000000000000000000000000000000001e1717e9e300000000000000000000000000000000ffffffffffffffffffffffffffffffff00000000000000000000000000000000ffffffffffffffffffffffffffffffff000000000000000000000000e5079266f1efe32c4bcf36d60f08b240f1b347de0000000000000000000000000000000000000000000000000000000000000180000000000000000000000000000000000000000000000000000000000000000000000000000000000000000000000000000000000000000000000000000000200000000000000000000000009ed4f4724b521326a9d9d2420252440bd05556c40000000000000000000000000000000000000000000000000000000000000020000000000000000000000000d1620dac6d79be34f8500756b47cf91b1fa5cc8c), (0xbD216513d74C8cf14cf4747E6AaA6420FF64ee9e, 0x23b872dd000000000000000000000000e5079266f1efe32c4bcf36d60f08b240f1b347de0000000000000000000000000f14870509e3bb914fbb4316232ed0520ec4ea58000000000000000000000000000000000000000000000000000000000002431d), (0x0F14870509E3Bb914fBB4316232ed0520eC4Ea58, 0x1fbaa88f000000000000000000000000000000000000000000000000000000000002431d)]"
      ],
      "transaction": {
        "from": "0xf39fd6e51aad88f6f4ce6ab8827279cfffb92266",
        "to": "0xe5079266f1efe32c4bcf36d60f08b240f1b347de",
        "value": "0x0",
        "input": "0x4d16f9c80000000000000000000000000f14870509e3bb914fbb4316232ed0520ec4ea58000000000000000000000000000000000000000000000000000000000000006000000000000000000000000000000000000000000000000000000000000000e00000000000000000000000000000000000000000000000000000000000000041088ad24458c7c563a9678f73352f292f8aca6d939de24829e25a8d6c250b675947281257fd3cb84f43240b4d82be46983c1a6299ba7261cb5e5b6ad96530664f1b000000000000000000000000000000000000000000000000000000000000000000000000000000000000000000000000000000000000000000000000000009000000000000000000000000000000000000000000000000000000000000012000000000000000000000000000000000000000000000000000000000000001e000000000000000000000000000000000000000000000000000000000000002a000000000000000000000000000000000000000000000000000000000000003600000000000000000000000000000000000000000000000000000000000000420000000000000000000000000000000000000000000000000000000000000052000000000000000000000000000000000000000000000000000000000000006200000000000000000000000000000000000000000000000000000000000000a400000000000000000000000000000000000000000000000000000000000000b200000000000000000000000000f14870509e3bb914fbb4316232ed0520ec4ea5800000000000000000000000000000000000000000000000000000000000000400000000000000000000000000000000000000000000000000000000000000044350c35e9000000000000000000000000e5079266f1efe32c4bcf36d60f08b240f1b347de000000000000000000000000000000000000000000000000000000174876e800000000000000000000000000000000000000000000000000000000000000000000000000000000000f14870509e3bb914fbb4316232ed0520ec4ea580000000000000000000000000000000000000000000000000000000000000040000000000000000000000000000000000000000000000000000000000000004414776d76000000000000000000000000e5079266f1efe32c4bcf36d60f08b240f1b347de000000000000000000000000000000000000000000000000000000174876e80000000000000000000000000000000000000000000000000000000000000000000000000000000000d1620dac6d79be34f8500756b47cf91b1fa5cc8c00000000000000000000000000000000000000000000000000000000000000400000000000000000000000000000000000000000000000000000000000000044095ea7b3000000000000000000000000000000000022d473030f116ddee9f6b43ac78ba3ffffffffffffffffffffffffffffffffffffffffffffffffffffffffffffffff000000000000000000000000000000000000000000000000000000000000000000000000000000009ed4f4724b521326a9d9d2420252440bd05556c400000000000000000000000000000000000000000000000000000000000000400000000000000000000000000000000000000000000000000000000000000044095ea7b3000000000000000000000000000000000022d473030f116ddee9f6b43ac78ba3ffffffffffffffffffffffffffffffffffffffffffffffffffffffffffffffff00000000000000000000000000000000000000000000000000000000000000000000000000000000000000000022d473030f116ddee9f6b43ac78ba30000000000000000000000000000000000000000000000000000000000000040000000000000000000000000000000000000000000000000000000000000008487517c45000000000000000000000000d1620dac6d79be34f8500756b47cf91b1fa5cc8c000000000000000000000000bd216513d74c8cf14cf4747e6aaa6420ff64ee9e000000000000000000000000ffffffffffffffffffffffffffffffffffffffff00000000000000000000000000000000000000000000000000000000697faf9600000000000000000000000000000000000000000000000000000000000000000000000000000000000000000022d473030f116ddee9f6b43ac78ba30000000000000000000000000000000000000000000000000000000000000040000000000000000000000000000000000000000000000000000000000000008487517c450000000000000000000000009ed4f4724b521326a9d9d2420252440bd05556c4000000000000000000000000bd216513d74c8cf14cf4747e6aaa6420ff64ee9e000000000000000000000000ffffffffffffffffffffffffffffffffffffffff00000000000000000000000000000000000000000000000000000000697faf9600000000000000000000000000000000000000000000000000000000000000000000000000000000bd216513d74c8cf14cf4747e6aaa6420ff64ee9e000000000000000000000000000000000000000000000000000000000000004000000000000000000000000000000000000000000000000000000000000003a4dd46508f000000000000000000000000000000000000000000000000000000000000004000000000000000000000000000000000000000000000000000000000697faf9600000000000000000000000000000000000000000000000000000000000003400000000000000000000000000000000000000000000000000000000000000040000000000000000000000000000000000000000000000000000000000000008000000000000000000000000000000000000000000000000000000000000000030212120000000000000000000000000000000000000000000000000000000000000000000000000000000000000000000000000000000000000000000000000300000000000000000000000000000000000000000000000000000000000000600000000000000000000000000000000000000000000000000000000000000220000000000000000000000000000000000000000000000000000000000000026000000000000000000000000000000000000000000000000000000000000001a00000000000000000000000009ed4f4724b521326a9d9d2420252440bd05556c4000000000000000000000000d1620dac6d79be34f8500756b47cf91b1fa5cc8c00000000000000000000000000000000000000000000000000000000000001f400000000000000000000000000000000000000000000000000000000000000050000000000000000000000007e0c07eeabb2459d70dba5b8d100dca44c652ac00000000000000000000000000000000000000000000000000000000000001b1200000000000000000000000000000000000000000000000000000000000075080000000000000000000000000000000000000000000000000000001e1717e9e300000000000000000000000000000000ffffffffffffffffffffffffffffffff00000000000000000000000000000000ffffffffffffffffffffffffffffffff000000000000000000000000e5079266f1efe32c4bcf36d60f08b240f1b347de0000000000000000000000000000000000000000000000000000000000000180000000000000000000000000000000000000000000000000000000000000000000000000000000000000000000000000000000000000000000000000000000200000000000000000000000009ed4f4724b521326a9d9d2420252440bd05556c40000000000000000000000000000000000000000000000000000000000000020000000000000000000000000d1620dac6d79be34f8500756b47cf91b1fa5cc8c00000000000000000000000000000000000000000000000000000000000000000000000000000000bd216513d74c8cf14cf4747e6aaa6420ff64ee9e0000000000000000000000000000000000000000000000000000000000000040000000000000000000000000000000000000000000000000000000000000006423b872dd000000000000000000000000e5079266f1efe32c4bcf36d60f08b240f1b347de0000000000000000000000000f14870509e3bb914fbb4316232ed0520ec4ea58000000000000000000000000000000000000000000000000000000000002431d000000000000000000000000000000000000000000000000000000000000000000000000000000000f14870509e3bb914fbb4316232ed0520ec4ea58000000000000000000000000000000000000000000000000000000000000004000000000000000000000000000000000000000000000000000000000000000241fbaa88f000000000000000000000000000000000000000000000000000000000002431d00000000000000000000000000000000000000000000000000000000",
        "nonce": "0x1274",
        "chainId": "0x1"
      },
      "additionalContracts": [],
      "isFixedGasLimit": false
    }
  ],
  "receipts": [
    {
      "status": "0x1",
      "cumulativeGasUsed": "0xdcaa8",
      "logs": [
        {
          "address": "0x0f14870509e3bb914fbb4316232ed0520ec4ea58",
          "topics": [
            "0x966c160e1c4dbc7df8d69af4ace01e9297c3cf016397b7914971f2fbfa32672d",
            "0x000000000000000000000000e5079266f1efe32c4bcf36d60f08b240f1b347de"
          ],
          "data": "0x0000000000000000000000000000000000000000000000000000000000000001",
          "blockHash": "0xff2e0523c7924688aa5596c66543e79f4dd29dc1e4c869c8f35a1b83de3f936e",
          "blockNumber": "0x173c156",
          "blockTimestamp": "0x697fa18b",
          "transactionHash": "0xbceb24f37ea57d5e40c541a3bd05f496d730201c2afe73ae2435cbd67ca8121b",
          "transactionIndex": "0x0",
          "logIndex": "0x0",
          "removed": false
        },
        {
          "address": "0xd1620dac6d79be34f8500756b47cf91b1fa5cc8c",
          "topics": [
            "0xddf252ad1be2c89b69c2b068fc378daa952ba7f163c4a11628f55a4df523b3ef",
            "0x0000000000000000000000000f14870509e3bb914fbb4316232ed0520ec4ea58",
            "0x000000000000000000000000e5079266f1efe32c4bcf36d60f08b240f1b347de"
          ],
          "data": "0x000000000000000000000000000000000000000000000000000000174876e800",
          "blockHash": "0xff2e0523c7924688aa5596c66543e79f4dd29dc1e4c869c8f35a1b83de3f936e",
          "blockNumber": "0x173c156",
          "blockTimestamp": "0x697fa18b",
          "transactionHash": "0xbceb24f37ea57d5e40c541a3bd05f496d730201c2afe73ae2435cbd67ca8121b",
          "transactionIndex": "0x0",
          "logIndex": "0x1",
          "removed": false
        },
        {
          "address": "0x9ed4f4724b521326a9d9d2420252440bd05556c4",
          "topics": [
            "0xddf252ad1be2c89b69c2b068fc378daa952ba7f163c4a11628f55a4df523b3ef",
            "0x0000000000000000000000000f14870509e3bb914fbb4316232ed0520ec4ea58",
            "0x000000000000000000000000e5079266f1efe32c4bcf36d60f08b240f1b347de"
          ],
          "data": "0x000000000000000000000000000000000000000000000000000000174876e800",
          "blockHash": "0xff2e0523c7924688aa5596c66543e79f4dd29dc1e4c869c8f35a1b83de3f936e",
          "blockNumber": "0x173c156",
          "blockTimestamp": "0x697fa18b",
          "transactionHash": "0xbceb24f37ea57d5e40c541a3bd05f496d730201c2afe73ae2435cbd67ca8121b",
          "transactionIndex": "0x0",
          "logIndex": "0x2",
          "removed": false
        },
        {
          "address": "0xd1620dac6d79be34f8500756b47cf91b1fa5cc8c",
          "topics": [
            "0x8c5be1e5ebec7d5bd14f71427d1e84f3dd0314c0f7b2291e5b200ac8c7c3b925",
            "0x000000000000000000000000e5079266f1efe32c4bcf36d60f08b240f1b347de",
            "0x000000000000000000000000000000000022d473030f116ddee9f6b43ac78ba3"
          ],
          "data": "0xffffffffffffffffffffffffffffffffffffffffffffffffffffffffffffffff",
          "blockHash": "0xff2e0523c7924688aa5596c66543e79f4dd29dc1e4c869c8f35a1b83de3f936e",
          "blockNumber": "0x173c156",
          "blockTimestamp": "0x697fa18b",
          "transactionHash": "0xbceb24f37ea57d5e40c541a3bd05f496d730201c2afe73ae2435cbd67ca8121b",
          "transactionIndex": "0x0",
          "logIndex": "0x3",
          "removed": false
        },
        {
          "address": "0x9ed4f4724b521326a9d9d2420252440bd05556c4",
          "topics": [
            "0x8c5be1e5ebec7d5bd14f71427d1e84f3dd0314c0f7b2291e5b200ac8c7c3b925",
            "0x000000000000000000000000e5079266f1efe32c4bcf36d60f08b240f1b347de",
            "0x000000000000000000000000000000000022d473030f116ddee9f6b43ac78ba3"
          ],
          "data": "0xffffffffffffffffffffffffffffffffffffffffffffffffffffffffffffffff",
          "blockHash": "0xff2e0523c7924688aa5596c66543e79f4dd29dc1e4c869c8f35a1b83de3f936e",
          "blockNumber": "0x173c156",
          "blockTimestamp": "0x697fa18b",
          "transactionHash": "0xbceb24f37ea57d5e40c541a3bd05f496d730201c2afe73ae2435cbd67ca8121b",
          "transactionIndex": "0x0",
          "logIndex": "0x4",
          "removed": false
        },
        {
          "address": "0x000000000022d473030f116ddee9f6b43ac78ba3",
          "topics": [
            "0xda9fa7c1b00402c17d0161b249b1ab8bbec047c5a52207b9c112deffd817036b",
            "0x000000000000000000000000e5079266f1efe32c4bcf36d60f08b240f1b347de",
            "0x000000000000000000000000d1620dac6d79be34f8500756b47cf91b1fa5cc8c",
            "0x000000000000000000000000bd216513d74c8cf14cf4747e6aaa6420ff64ee9e"
          ],
          "data": "0x000000000000000000000000ffffffffffffffffffffffffffffffffffffffff00000000000000000000000000000000000000000000000000000000697faf96",
          "blockHash": "0xff2e0523c7924688aa5596c66543e79f4dd29dc1e4c869c8f35a1b83de3f936e",
          "blockNumber": "0x173c156",
          "blockTimestamp": "0x697fa18b",
          "transactionHash": "0xbceb24f37ea57d5e40c541a3bd05f496d730201c2afe73ae2435cbd67ca8121b",
          "transactionIndex": "0x0",
          "logIndex": "0x5",
          "removed": false
        },
        {
          "address": "0x000000000022d473030f116ddee9f6b43ac78ba3",
          "topics": [
            "0xda9fa7c1b00402c17d0161b249b1ab8bbec047c5a52207b9c112deffd817036b",
            "0x000000000000000000000000e5079266f1efe32c4bcf36d60f08b240f1b347de",
            "0x0000000000000000000000009ed4f4724b521326a9d9d2420252440bd05556c4",
            "0x000000000000000000000000bd216513d74c8cf14cf4747e6aaa6420ff64ee9e"
          ],
          "data": "0x000000000000000000000000ffffffffffffffffffffffffffffffffffffffff00000000000000000000000000000000000000000000000000000000697faf96",
          "blockHash": "0xff2e0523c7924688aa5596c66543e79f4dd29dc1e4c869c8f35a1b83de3f936e",
          "blockNumber": "0x173c156",
          "blockTimestamp": "0x697fa18b",
          "transactionHash": "0xbceb24f37ea57d5e40c541a3bd05f496d730201c2afe73ae2435cbd67ca8121b",
          "transactionIndex": "0x0",
          "logIndex": "0x6",
          "removed": false
        },
        {
          "address": "0xbd216513d74c8cf14cf4747e6aaa6420ff64ee9e",
          "topics": [
            "0xddf252ad1be2c89b69c2b068fc378daa952ba7f163c4a11628f55a4df523b3ef",
            "0x0000000000000000000000000000000000000000000000000000000000000000",
            "0x000000000000000000000000e5079266f1efe32c4bcf36d60f08b240f1b347de",
            "0x000000000000000000000000000000000000000000000000000000000002431d"
          ],
          "data": "0x",
          "blockHash": "0xff2e0523c7924688aa5596c66543e79f4dd29dc1e4c869c8f35a1b83de3f936e",
          "blockNumber": "0x173c156",
          "blockTimestamp": "0x697fa18b",
          "transactionHash": "0xbceb24f37ea57d5e40c541a3bd05f496d730201c2afe73ae2435cbd67ca8121b",
          "transactionIndex": "0x0",
          "logIndex": "0x7",
          "removed": false
        },
        {
          "address": "0x000000000004444c5dc75cb358380d2e3de08a90",
          "topics": [
            "0xf208f4912782fd25c7f114ca3723a2d5dd6f3bcc3ac8db5af63baa85f711d5ec",
            "0x3509745444ed1275bf3cc6196dcab60943ac6b87c5b249d3e64fa8e35e5b5f69",
            "0x000000000000000000000000bd216513d74c8cf14cf4747e6aaa6420ff64ee9e"
          ],
          "data": "0x0000000000000000000000000000000000000000000000000000000000001b1200000000000000000000000000000000000000000000000000000000000075080000000000000000000000000000000000000000000000000000001e1717e9e3000000000000000000000000000000000000000000000000000000000002431d",
          "blockHash": "0xff2e0523c7924688aa5596c66543e79f4dd29dc1e4c869c8f35a1b83de3f936e",
          "blockNumber": "0x173c156",
          "blockTimestamp": "0x697fa18b",
          "transactionHash": "0xbceb24f37ea57d5e40c541a3bd05f496d730201c2afe73ae2435cbd67ca8121b",
          "transactionIndex": "0x0",
          "logIndex": "0x8",
          "removed": false
        },
        {
          "address": "0x9ed4f4724b521326a9d9d2420252440bd05556c4",
          "topics": [
            "0xddf252ad1be2c89b69c2b068fc378daa952ba7f163c4a11628f55a4df523b3ef",
            "0x000000000000000000000000e5079266f1efe32c4bcf36d60f08b240f1b347de",
            "0x000000000000000000000000000000000004444c5dc75cb358380d2e3de08a90"
          ],
          "data": "0x000000000000000000000000000000000000000000000000000000070678b59c",
          "blockHash": "0xff2e0523c7924688aa5596c66543e79f4dd29dc1e4c869c8f35a1b83de3f936e",
          "blockNumber": "0x173c156",
          "blockTimestamp": "0x697fa18b",
          "transactionHash": "0xbceb24f37ea57d5e40c541a3bd05f496d730201c2afe73ae2435cbd67ca8121b",
          "transactionIndex": "0x0",
          "logIndex": "0x9",
          "removed": false
        },
        {
          "address": "0xd1620dac6d79be34f8500756b47cf91b1fa5cc8c",
          "topics": [
            "0xddf252ad1be2c89b69c2b068fc378daa952ba7f163c4a11628f55a4df523b3ef",
            "0x000000000000000000000000e5079266f1efe32c4bcf36d60f08b240f1b347de",
            "0x000000000000000000000000000000000004444c5dc75cb358380d2e3de08a90"
          ],
          "data": "0x000000000000000000000000000000000000000000000000000000174876e800",
          "blockHash": "0xff2e0523c7924688aa5596c66543e79f4dd29dc1e4c869c8f35a1b83de3f936e",
          "blockNumber": "0x173c156",
          "blockTimestamp": "0x697fa18b",
          "transactionHash": "0xbceb24f37ea57d5e40c541a3bd05f496d730201c2afe73ae2435cbd67ca8121b",
          "transactionIndex": "0x0",
          "logIndex": "0xa",
          "removed": false
        },
        {
          "address": "0xbd216513d74c8cf14cf4747e6aaa6420ff64ee9e",
          "topics": [
            "0xddf252ad1be2c89b69c2b068fc378daa952ba7f163c4a11628f55a4df523b3ef",
            "0x000000000000000000000000e5079266f1efe32c4bcf36d60f08b240f1b347de",
            "0x0000000000000000000000000f14870509e3bb914fbb4316232ed0520ec4ea58",
            "0x000000000000000000000000000000000000000000000000000000000002431d"
          ],
          "data": "0x",
          "blockHash": "0xff2e0523c7924688aa5596c66543e79f4dd29dc1e4c869c8f35a1b83de3f936e",
          "blockNumber": "0x173c156",
          "blockTimestamp": "0x697fa18b",
          "transactionHash": "0xbceb24f37ea57d5e40c541a3bd05f496d730201c2afe73ae2435cbd67ca8121b",
          "transactionIndex": "0x0",
          "logIndex": "0xb",
          "removed": false
        },
        {
          "address": "0x0f14870509e3bb914fbb4316232ed0520ec4ea58",
          "topics": [
            "0x966c160e1c4dbc7df8d69af4ace01e9297c3cf016397b7914971f2fbfa32672d",
            "0x000000000000000000000000e5079266f1efe32c4bcf36d60f08b240f1b347de"
          ],
          "data": "0x0000000000000000000000000000000000000000000000000000000000000000",
          "blockHash": "0xff2e0523c7924688aa5596c66543e79f4dd29dc1e4c869c8f35a1b83de3f936e",
          "blockNumber": "0x173c156",
          "blockTimestamp": "0x697fa18b",
          "transactionHash": "0xbceb24f37ea57d5e40c541a3bd05f496d730201c2afe73ae2435cbd67ca8121b",
          "transactionIndex": "0x0",
          "logIndex": "0xc",
          "removed": false
        }
      ],
      "logsBloom": "0x00010040104000008004100000000000000400000000000040000000000000000000000022000001001000000000000400000000800000000000000000288000000000000000000000004808000000000000000000000800000000004000000000000000020000008000000000040800020000080000000000000010100008000020022801080000000000000000000040000000000008000000000000000000020004000000000000000000100000000000000000008000000020080000000000000802000000000080000000000000000000400010000040080000000020000010000400008000000000100000000004080100000000000000000010000400",
      "type": "0x2",
      "transactionHash": "0xbceb24f37ea57d5e40c541a3bd05f496d730201c2afe73ae2435cbd67ca8121b",
      "transactionIndex": "0x0",
      "blockHash": "0xff2e0523c7924688aa5596c66543e79f4dd29dc1e4c869c8f35a1b83de3f936e",
      "blockNumber": "0x173c156",
      "gasUsed": "0xdcaa8",
      "effectiveGasPrice": "0x7cc8a15",
      "blobGasPrice": "0x1",
      "from": "0xf39fd6e51aad88f6f4ce6ab8827279cfffb92266",
      "to": "0xe5079266f1efe32c4bcf36d60f08b240f1b347de",
      "contractAddress": null
    }
  ],
  "libraries": [],
  "pending": [],
  "returns": {},
  "timestamp": 1770027736601,
  "chain": 1,
  "commit": "290e97f"
}