{
  "transactions": [
    {
      "hash": "0x8b1fe0e93ec48c2d959227dd42740be5a7719287b1ca60cbf4fafcef00d83f7d",
      "transactionType": "CALL",
      "contractName": null,
      "contractAddress": "0x9554b52516f306360a239746f70f88c23d187b63",
      "function": "createBroker(bytes32)",
      "arguments": [
        "0x4f49954db40a87d71ecb859de0c10834ec5997686591d76e8506e773c62745e1"
      ],
      "transaction": {
        "from": "0x3c44cdddb6a900fa2b585dd299e03d12fa4293bc",
        "to": "0x9554b52516f306360a239746f70f88c23d187b63",
        "value": "0x0",
        "input": "0x26f4f1234f49954db40a87d71ecb859de0c10834ec5997686591d76e8506e773c62745e1",
        "nonce": "0x979",
        "chainId": "0x1"
      },
      "additionalContracts": [],
      "isFixedGasLimit": false
    },
    {
      "hash": "0x71e6a9bccb7d960137b87f3d9ff8c4891fd57d9ac7d7cfa0ec8d4abcdaeac36e",
      "transactionType": "CALL",
      "contractName": null,
      "contractAddress": "0xd1620dac6d79be34f8500756b47cf91b1fa5cc8c",
      "function": "transfer(address,uint256)",
      "arguments": [
        "0x33B22a0B4d19a53f9eF9E7d3CAC1A37af91CCC4F",
        "49999568051"
      ],
      "transaction": {
        "from": "0x3c44cdddb6a900fa2b585dd299e03d12fa4293bc",
        "to": "0xd1620dac6d79be34f8500756b47cf91b1fa5cc8c",
        "value": "0x0",
        "input": "0xa9059cbb00000000000000000000000033b22a0b4d19a53f9ef9e7d3cac1a37af91ccc4f0000000000000000000000000000000000000000000000000000000ba434dcb3",
        "nonce": "0x97a",
        "chainId": "0x1"
      },
      "additionalContracts": [],
      "isFixedGasLimit": false
    },
    {
      "hash": "0xcdbb6752106fb1111828d99d16bcabe85e2004e2174772f1328742bd3e541ac7",
      "transactionType": "CALL",
      "contractName": null,
      "contractAddress": "0xeccf611a0df54b426ed23f06f1c8790ea0695df6",
      "function": "executeLeverageShort(address,bytes32,address,address,uint256,uint256,(address,address,uint24,int24,address),bytes)",
      "arguments": [
        "0x33B22a0B4d19a53f9eF9E7d3CAC1A37af91CCC4F",
        "0x5b171c28fb0eebf8c4f6bebf3f5a0f12611acb1d4a0734c51fbae996b6e9dfdf",
        "0xD1620Dac6d79BE34F8500756B47cf91B1fA5Cc8C",
        "0x9ed4F4724b521326a9d9d2420252440bD05556c4",
        "49999568051",
        "6666609073",
        "(0x9ed4F4724b521326a9d9d2420252440bD05556c4, 0xD1620Dac6d79BE34F8500756B47cf91B1fA5Cc8C, 500, 5, 0x7e0C07EEabb2459D70dba5b8d100Dca44c652aC0)",
        "0x329f03e9bb6c2234c09a1358016af01062ffd12cf7045396edb70fff177cfb4247f4f615fbe8a4c45a7aa41d4f8b30948b72069bb3cefdfe01b482cc154d65041c"
      ],
      "transaction": {
        "from": "0x3c44cdddb6a900fa2b585dd299e03d12fa4293bc",
        "to": "0xeccf611a0df54b426ed23f06f1c8790ea0695df6",
        "value": "0x0",
        "input": "0xf13278c700000000000000000000000033b22a0b4d19a53f9ef9e7d3cac1a37af91ccc4f5b171c28fb0eebf8c4f6bebf3f5a0f12611acb1d4a0734c51fbae996b6e9dfdf000000000000000000000000d1620dac6d79be34f8500756b47cf91b1fa5cc8c0000000000000000000000009ed4f4724b521326a9d9d2420252440bd05556c40000000000000000000000000000000000000000000000000000000ba434dcb3000000000000000000000000000000000000000000000000000000018d5c61b10000000000000000000000009ed4f4724b521326a9d9d2420252440bd05556c4000000000000000000000000d1620dac6d79be34f8500756b47cf91b1fa5cc8c00000000000000000000000000000000000000000000000000000000000001f400000000000000000000000000000000000000000000000000000000000000050000000000000000000000007e0c07eeabb2459d70dba5b8d100dca44c652ac000000000000000000000000000000000000000000000000000000000000001800000000000000000000000000000000000000000000000000000000000000041329f03e9bb6c2234c09a1358016af01062ffd12cf7045396edb70fff177cfb4247f4f615fbe8a4c45a7aa41d4f8b30948b72069bb3cefdfe01b482cc154d65041c00000000000000000000000000000000000000000000000000000000000000",
        "nonce": "0x97b",
        "chainId": "0x1"
      },
      "additionalContracts": [],
      "isFixedGasLimit": false
    }
  ],
  "receipts": [
    {
      "status": "0x1",
      "cumulativeGasUsed": "0x53edf",
      "logs": [
        {
          "address": "0x9554b52516f306360a239746f70f88c23d187b63",
          "topics": [
            "0xddf252ad1be2c89b69c2b068fc378daa952ba7f163c4a11628f55a4df523b3ef",
            "0x0000000000000000000000000000000000000000000000000000000000000000",
            "0x0000000000000000000000003c44cdddb6a900fa2b585dd299e03d12fa4293bc",
            "0x00000000000000000000000033b22a0b4d19a53f9ef9e7d3cac1a37af91ccc4f"
          ],
          "data": "0x",
          "blockHash": "0xfbfd5845a8cd5f6454398c07dec0968c4bbe6e4554c56a4b3c64c05efae02d33",
          "blockNumber": "0x173c15f",
          "blockTimestamp": "0x697fbdbb",
          "transactionHash": "0x8b1fe0e93ec48c2d959227dd42740be5a7719287b1ca60cbf4fafcef00d83f7d",
          "transactionIndex": "0x0",
          "logIndex": "0x0",
          "removed": false
        },
        {
          "address": "0x9554b52516f306360a239746f70f88c23d187b63",
          "topics": [
            "0xc418c83b1622e1e32aac5d6d2848134a7e89eb8e96c8514afd1757d25ee5ef71",
            "0x00000000000000000000000033b22a0b4d19a53f9ef9e7d3cac1a37af91ccc4f",
            "0x0000000000000000000000003c44cdddb6a900fa2b585dd299e03d12fa4293bc"
          ],
          "data": "0x00000000000000000000000033b22a0b4d19a53f9ef9e7d3cac1a37af91ccc4f",
          "blockHash": "0xfbfd5845a8cd5f6454398c07dec0968c4bbe6e4554c56a4b3c64c05efae02d33",
          "blockNumber": "0x173c15f",
          "blockTimestamp": "0x697fbdbb",
          "transactionHash": "0x8b1fe0e93ec48c2d959227dd42740be5a7719287b1ca60cbf4fafcef00d83f7d",
          "transactionIndex": "0x0",
          "logIndex": "0x1",
          "removed": false
        }
      ],
      "logsBloom": "0x00000000020000000000100020000000000000000000000000000000000000000000000000000000000000000000000000000200000000000000000000100000000000000000000000000008000000000000400000000100008000000000000000000000020000000000000000008800000800000000000000000010000000000000000000000000000000000000000000002000000000000000000000000000000000000000200000000000000000000000000000000000000000000000000000000002000000000000000000000000000000000000000000000000000020000000000000000000000000000000000000000000000000000000000000000000",
      "type": "0x2",
      "transactionHash": "0x8b1fe0e93ec48c2d959227dd42740be5a7719287b1ca60cbf4fafcef00d83f7d",
      "transactionIndex": "0x0",
      "blockHash": "0xfbfd5845a8cd5f6454398c07dec0968c4bbe6e4554c56a4b3c64c05efae02d33",
      "blockNumber": "0x173c15f",
      "gasUsed": "0x53edf",
      "effectiveGasPrice": "0x25f30a8",
      "blobGasPrice": "0x1",
      "from": "0x3c44cdddb6a900fa2b585dd299e03d12fa4293bc",
      "to": "0x9554b52516f306360a239746f70f88c23d187b63",
      "contractAddress": null
    },
    {
      "status": "0x1",
      "cumulativeGasUsed": "0xb5a1",
      "logs": [
        {
          "address": "0xd1620dac6d79be34f8500756b47cf91b1fa5cc8c",
          "topics": [
            "0xddf252ad1be2c89b69c2b068fc378daa952ba7f163c4a11628f55a4df523b3ef",
            "0x0000000000000000000000003c44cdddb6a900fa2b585dd299e03d12fa4293bc",
            "0x00000000000000000000000033b22a0b4d19a53f9ef9e7d3cac1a37af91ccc4f"
          ],
          "data": "0x0000000000000000000000000000000000000000000000000000000ba434dcb3",
          "blockHash": "0xa7d1bed06793abee3b965ffa4d2ff978321438fb2c13eea20567bb5cb908af25",
          "blockNumber": "0x173c160",
          "blockTimestamp": "0x697fbdbb",
          "transactionHash": "0x71e6a9bccb7d960137b87f3d9ff8c4891fd57d9ac7d7cfa0ec8d4abcdaeac36e",
          "transactionIndex": "0x0",
          "logIndex": "0x0",
          "removed": false
        }
      ],
      "logsBloom": "0x00000000020000008000000000000000000000000000000000000000000000000000000000000000000000000000000000000000000000000000000000100000000000000000000000000008000000000000400000000000000000004000000000000000000000000000000000000000000800000000000000000010000000000000002000000000000000000000000000002000000000000000000000000000000000000000200000000000000000000000000000000000000000000000000000000002000000000000000000000000000000000000000000000000000000000000000000000000000000000000000000000000000000000000000000000000",
      "type": "0x2",
      "transactionHash": "0x71e6a9bccb7d960137b87f3d9ff8c4891fd57d9ac7d7cfa0ec8d4abcdaeac36e",
      "transactionIndex": "0x0",
      "blockHash": "0xa7d1bed06793abee3b965ffa4d2ff978321438fb2c13eea20567bb5cb908af25",
      "blockNumber": "0x173c160",
      "gasUsed": "0xb5a1",
      "effectiveGasPrice": "0x21429f4",
      "blobGasPrice": "0x1",
      "from": "0x3c44cdddb6a900fa2b585dd299e03d12fa4293bc",
      "to": "0xd1620dac6d79be34f8500756b47cf91b1fa5cc8c",
      "contractAddress": null
    },
    {
      "status": "0x1",
      "cumulativeGasUsed": "0x9121e",
      "logs": [
        {
          "address": "0x33b22a0b4d19a53f9ef9e7d3cac1a37af91ccc4f",
          "topics": [
            "0x966c160e1c4dbc7df8d69af4ace01e9297c3cf016397b7914971f2fbfa32672d",
            "0x000000000000000000000000eccf611a0df54b426ed23f06f1c8790ea0695df6"
          ],
          "data": "0x0000000000000000000000000000000000000000000000000000000000000001",
          "blockHash": "0x2ba8e2c72293b69efaccc870e2532359679083d701fe3c619d5a851b6645f859",
          "blockNumber": "0x173c161",
          "blockTimestamp": "0x697fbdbb",
          "transactionHash": "0xcdbb6752106fb1111828d99d16bcabe85e2004e2174772f1328742bd3e541ac7",
          "transactionIndex": "0x0",
          "logIndex": "0x0",
          "removed": false
        },
        {
          "address": "0x9ed4f4724b521326a9d9d2420252440bd05556c4",
          "topics": [
            "0xddf252ad1be2c89b69c2b068fc378daa952ba7f163c4a11628f55a4df523b3ef",
            "0x0000000000000000000000000000000000000000000000000000000000000000",
            "0x00000000000000000000000033b22a0b4d19a53f9ef9e7d3cac1a37af91ccc4f"
          ],
          "data": "0x000000000000000000000000000000000000000000000000000000018d5c61b1",
          "blockHash": "0x2ba8e2c72293b69efaccc870e2532359679083d701fe3c619d5a851b6645f859",
          "blockNumber": "0x173c161",
          "blockTimestamp": "0x697fbdbb",
          "transactionHash": "0xcdbb6752106fb1111828d99d16bcabe85e2004e2174772f1328742bd3e541ac7",
          "transactionIndex": "0x0",
          "logIndex": "0x1",
          "removed": false
        },
        {
          "address": "0x766542304e16e3585d569705b0eff4756efa6cac",
          "topics": [
            "0x343ef6bfd54be4f7cb6918335f3d2788a88dfadfc586a5c32c67c2f3b61c6338",
            "0x5b171c28fb0eebf8c4f6bebf3f5a0f12611acb1d4a0734c51fbae996b6e9dfdf",
            "0x00000000000000000000000033b22a0b4d19a53f9ef9e7d3cac1a37af91ccc4f"
          ],
          "data": "0x0000000000000000000000000000000000000000000000000000000ba434dcb3000000000000000000000000000000000000000000000000000000018d5c61b1",
          "blockHash": "0x2ba8e2c72293b69efaccc870e2532359679083d701fe3c619d5a851b6645f859",
          "blockNumber": "0x173c161",
          "blockTimestamp": "0x697fbdbb",
          "transactionHash": "0xcdbb6752106fb1111828d99d16bcabe85e2004e2174772f1328742bd3e541ac7",
          "transactionIndex": "0x0",
          "logIndex": "0x2",
          "removed": false
        },
        {
          "address": "0xd1620dac6d79be34f8500756b47cf91b1fa5cc8c",
          "topics": [
            "0x8c5be1e5ebec7d5bd14f71427d1e84f3dd0314c0f7b2291e5b200ac8c7c3b925",
            "0x00000000000000000000000033b22a0b4d19a53f9ef9e7d3cac1a37af91ccc4f",
            "0x000000000000000000000000766542304e16e3585d569705b0eff4756efa6cac"
          ],
          "data": "0x0000000000000000000000000000000000000000000000000000000ba434dcb3",
          "blockHash": "0x2ba8e2c72293b69efaccc870e2532359679083d701fe3c619d5a851b6645f859",
          "blockNumber": "0x173c161",
          "blockTimestamp": "0x697fbdbb",
          "transactionHash": "0xcdbb6752106fb1111828d99d16bcabe85e2004e2174772f1328742bd3e541ac7",
          "transactionIndex": "0x0",
          "logIndex": "0x3",
          "removed": false
        },
        {
          "address": "0x9ed4f4724b521326a9d9d2420252440bd05556c4",
          "topics": [
            "0xddf252ad1be2c89b69c2b068fc378daa952ba7f163c4a11628f55a4df523b3ef",
            "0x00000000000000000000000033b22a0b4d19a53f9ef9e7d3cac1a37af91ccc4f",
            "0x000000000000000000000000eccf611a0df54b426ed23f06f1c8790ea0695df6"
          ],
          "data": "0x000000000000000000000000000000000000000000000000000000018d5c61b1",
          "blockHash": "0x2ba8e2c72293b69efaccc870e2532359679083d701fe3c619d5a851b6645f859",
          "blockNumber": "0x173c161",
          "blockTimestamp": "0x697fbdbb",
          "transactionHash": "0xcdbb6752106fb1111828d99d16bcabe85e2004e2174772f1328742bd3e541ac7",
          "transactionIndex": "0x0",
          "logIndex": "0x4",
          "removed": false
        },
        {
          "address": "0x9ed4f4724b521326a9d9d2420252440bd05556c4",
          "topics": [
            "0x8c5be1e5ebec7d5bd14f71427d1e84f3dd0314c0f7b2291e5b200ac8c7c3b925",
            "0x000000000000000000000000eccf611a0df54b426ed23f06f1c8790ea0695df6",
            "0x000000000000000000000000000000000004444c5dc75cb358380d2e3de08a90"
          ],
          "data": "0x000000000000000000000000000000000000000000000000000000018d5c61b1",
          "blockHash": "0x2ba8e2c72293b69efaccc870e2532359679083d701fe3c619d5a851b6645f859",
          "blockNumber": "0x173c161",
          "blockTimestamp": "0x697fbdbb",
          "transactionHash": "0xcdbb6752106fb1111828d99d16bcabe85e2004e2174772f1328742bd3e541ac7",
          "transactionIndex": "0x0",
          "logIndex": "0x5",
          "removed": false
        },
        {
          "address": "0x000000000004444c5dc75cb358380d2e3de08a90",
          "topics": [
            "0x40e9cecb9f5f1f1c5b9c97dec2917b7ee92e57ba5563708daca94dd84ad7112f",
            "0x3509745444ed1275bf3cc6196dcab60943ac6b87c5b249d3e64fa8e35e5b5f69",
            "0x000000000000000000000000eccf611a0df54b426ed23f06f1c8790ea0695df6"
          ],
          "data": "0xffffffffffffffffffffffffffffffffffffffffffffffffffffffffaaf0a435000000000000000000000000000000000000000000000000000000018d5c61b1000000000000000000000000000000000000000222e2f960f045bcbfe1e150110000000000000000000000000000000000000000000000000000001e1717e9e30000000000000000000000000000000000000000000000000000000000003b4e00000000000000000000000000000000000000000000000000000000000001f4",
          "blockHash": "0x2ba8e2c72293b69efaccc870e2532359679083d701fe3c619d5a851b6645f859",
          "blockNumber": "0x173c161",
          "blockTimestamp": "0x697fbdbb",
          "transactionHash": "0xcdbb6752106fb1111828d99d16bcabe85e2004e2174772f1328742bd3e541ac7",
          "transactionIndex": "0x0",
          "logIndex": "0x6",
          "removed": false
        },
        {
          "address": "0x9ed4f4724b521326a9d9d2420252440bd05556c4",
          "topics": [
            "0xddf252ad1be2c89b69c2b068fc378daa952ba7f163c4a11628f55a4df523b3ef",
            "0x000000000000000000000000eccf611a0df54b426ed23f06f1c8790ea0695df6",
            "0x000000000000000000000000000000000004444c5dc75cb358380d2e3de08a90"
          ],
          "data": "0x00000000000000000000000000000000000000000000000000000000550f5bcb",
          "blockHash": "0x2ba8e2c72293b69efaccc870e2532359679083d701fe3c619d5a851b6645f859",
          "blockNumber": "0x173c161",
          "blockTimestamp": "0x697fbdbb",
          "transactionHash": "0xcdbb6752106fb1111828d99d16bcabe85e2004e2174772f1328742bd3e541ac7",
          "transactionIndex": "0x0",
          "logIndex": "0x7",
          "removed": false
        },
        {
          "address": "0xd1620dac6d79be34f8500756b47cf91b1fa5cc8c",
          "topics": [
            "0xddf252ad1be2c89b69c2b068fc378daa952ba7f163c4a11628f55a4df523b3ef",
            "0x000000000000000000000000000000000004444c5dc75cb358380d2e3de08a90",
            "0x000000000000000000000000eccf611a0df54b426ed23f06f1c8790ea0695df6"
          ],
          "data": "0x000000000000000000000000000000000000000000000000000000018d5c61b1",
          "blockHash": "0x2ba8e2c72293b69efaccc870e2532359679083d701fe3c619d5a851b6645f859",
          "blockNumber": "0x173c161",
          "blockTimestamp": "0x697fbdbb",
          "transactionHash": "0xcdbb6752106fb1111828d99d16bcabe85e2004e2174772f1328742bd3e541ac7",
          "transactionIndex": "0x0",
          "logIndex": "0x8",
          "removed": false
        },
        {
          "address": "0xd1620dac6d79be34f8500756b47cf91b1fa5cc8c",
          "topics": [
            "0xddf252ad1be2c89b69c2b068fc378daa952ba7f163c4a11628f55a4df523b3ef",
            "0x000000000000000000000000eccf611a0df54b426ed23f06f1c8790ea0695df6",
            "0x00000000000000000000000033b22a0b4d19a53f9ef9e7d3cac1a37af91ccc4f"
          ],
          "data": "0x000000000000000000000000000000000000000000000000000000018d5c61b1",
          "blockHash": "0x2ba8e2c72293b69efaccc870e2532359679083d701fe3c619d5a851b6645f859",
          "blockNumber": "0x173c161",
          "blockTimestamp": "0x697fbdbb",
          "transactionHash": "0xcdbb6752106fb1111828d99d16bcabe85e2004e2174772f1328742bd3e541ac7",
          "transactionIndex": "0x0",
          "logIndex": "0x9",
          "removed": false
        },
        {
          "address": "0x766542304e16e3585d569705b0eff4756efa6cac",
          "topics": [
            "0x343ef6bfd54be4f7cb6918335f3d2788a88dfadfc586a5c32c67c2f3b61c6338",
            "0x5b171c28fb0eebf8c4f6bebf3f5a0f12611acb1d4a0734c51fbae996b6e9dfdf",
            "0x00000000000000000000000033b22a0b4d19a53f9ef9e7d3cac1a37af91ccc4f"
          ],
          "data": "0x000000000000000000000000000000000000000000000000000000018d5c61b10000000000000000000000000000000000000000000000000000000000000000",
          "blockHash": "0x2ba8e2c72293b69efaccc870e2532359679083d701fe3c619d5a851b6645f859",
          "blockNumber": "0x173c161",
          "blockTimestamp": "0x697fbdbb",
          "transactionHash": "0xcdbb6752106fb1111828d99d16bcabe85e2004e2174772f1328742bd3e541ac7",
          "transactionIndex": "0x0",
          "logIndex": "0xa",
          "removed": false
        },
        {
          "address": "0xd1620dac6d79be34f8500756b47cf91b1fa5cc8c",
          "topics": [
            "0x8c5be1e5ebec7d5bd14f71427d1e84f3dd0314c0f7b2291e5b200ac8c7c3b925",
            "0x00000000000000000000000033b22a0b4d19a53f9ef9e7d3cac1a37af91ccc4f",
            "0x000000000000000000000000766542304e16e3585d569705b0eff4756efa6cac"
          ],
          "data": "0x000000000000000000000000000000000000000000000000000000018d5c61b1",
          "blockHash": "0x2ba8e2c72293b69efaccc870e2532359679083d701fe3c619d5a851b6645f859",
          "blockNumber": "0x173c161",
          "blockTimestamp": "0x697fbdbb",
          "transactionHash": "0xcdbb6752106fb1111828d99d16bcabe85e2004e2174772f1328742bd3e541ac7",
          "transactionIndex": "0x0",
          "logIndex": "0xb",
          "removed": false
        },
        {
          "address": "0x33b22a0b4d19a53f9ef9e7d3cac1a37af91ccc4f",
          "topics": [
            "0x966c160e1c4dbc7df8d69af4ace01e9297c3cf016397b7914971f2fbfa32672d",
            "0x000000000000000000000000eccf611a0df54b426ed23f06f1c8790ea0695df6"
          ],
          "data": "0x0000000000000000000000000000000000000000000000000000000000000000",
          "blockHash": "0x2ba8e2c72293b69efaccc870e2532359679083d701fe3c619d5a851b6645f859",
          "blockNumber": "0x173c161",
          "blockTimestamp": "0x697fbdbb",
          "transactionHash": "0xcdbb6752106fb1111828d99d16bcabe85e2004e2174772f1328742bd3e541ac7",
          "transactionIndex": "0x0",
          "logIndex": "0xc",
          "removed": false
        }
      ],
      "logsBloom": "0x00000800024000008014100000000000000000000000080000000000000000000000000020000000401000100000000000000000040000080000000000208000000000000000000000000008000000080000400000000020000000004000004000000000024000008000000000000800020000000000000000000010000000000000022800000000000000000000000000002000000000000000000000000002020000080000000000000100100000000000000000000000100000000000000000000802000000000000000000000000008000400000000000000010000020100010000000010000004000100000000000000100000000000000000000000000",
      "type": "0x2",
      "transactionHash": "0xcdbb6752106fb1111828d99d16bcabe85e2004e2174772f1328742bd3e541ac7",
      "transactionIndex": "0x0",
      "blockHash": "0x2ba8e2c72293b69efaccc870e2532359679083d701fe3c619d5a851b6645f859",
      "blockNumber": "0x173c161",
      "gasUsed": "0x9121e",
      "effectiveGasPrice": "0x1d1bfd6",
      "blobGasPrice": "0x1",
      "from": "0x3c44cdddb6a900fa2b585dd299e03d12fa4293bc",
      "to": "0xeccf611a0df54b426ed23f06f1c8790ea0695df6",
      "contractAddress": null
    }
  ],
  "libraries": [],
  "pending": [],
  "returns": {},
  "timestamp": 1770034199236,
  "chain": 1,
  "commit": "290e97f"
}