{
  "transactions": [
    {
      "hash": "0x97bf40ebb5b4d4aa04ecf9922c2683c92f91a17e7baa31dd1f2bac4d21cb5eaa",
      "transactionType": "CALL",
      "contractName": null,
      "contractAddress": "0x9554b52516f306360a239746f70f88c23d187b63",
      "function": "createBroker(bytes32)",
      "arguments": [
        "0x110872ada85738e0aa99c08801def6a58667513f0c6dcfdef56d4cf015466a59"
      ],
      "transaction": {
        "from": "0x3c44cdddb6a900fa2b585dd299e03d12fa4293bc",
        "to": "0x9554b52516f306360a239746f70f88c23d187b63",
        "value": "0x0",
        "input": "0x26f4f123110872ada85738e0aa99c08801def6a58667513f0c6dcfdef56d4cf015466a59",
        "nonce": "0x9a9",
        "chainId": "0x1"
      },
      "additionalContracts": [],
      "isFixedGasLimit": false
    },
    {
      "hash": "0xe8c3c74e080056d996e27b535b10615a7603a53044a730906c3f83f2ee6e58d4",
      "transactionType": "CALL",
      "contractName": null,
      "contractAddress": "0xd1620dac6d79be34f8500756b47cf91b1fa5cc8c",
      "function": "transfer(address,uint256)",
      "arguments": [
        "0xEc71253aD2f552119862444eeAdDCE3B2d1Ae3E3",
        "49998703116"
      ],
      "transaction": {
        "from": "0x3c44cdddb6a900fa2b585dd299e03d12fa4293bc",
        "to": "0xd1620dac6d79be34f8500756b47cf91b1fa5cc8c",
        "value": "0x0",
        "input": "0xa9059cbb000000000000000000000000ec71253ad2f552119862444eeaddce3b2d1ae3e30000000000000000000000000000000000000000000000000000000ba427aa0c",
        "nonce": "0x9aa",
        "chainId": "0x1"
      },
      "additionalContracts": [],
      "isFixedGasLimit": false
    },
    {
      "hash": "0x87574a1e55c12f7eddabe28692f365ca380ca2664bcedcc6dea214abbd63be3d",
      "transactionType": "CALL",
      "contractName": null,
      "contractAddress": "0xeccf611a0df54b426ed23f06f1c8790ea0695df6",
      "function": "executeLeverageShort(address,bytes32,address,address,uint256,uint256,(address,address,uint24,int24,address),bytes)",
      "arguments": [
        "0xEc71253aD2f552119862444eeAdDCE3B2d1Ae3E3",
        "0x5b171c28fb0eebf8c4f6bebf3f5a0f12611acb1d4a0734c51fbae996b6e9dfdf",
        "0xD1620Dac6d79BE34F8500756B47cf91B1fA5Cc8C",
        "0x9ed4F4724b521326a9d9d2420252440bD05556c4",
        "49998703116",
        "6666493748",
        "(0x9ed4F4724b521326a9d9d2420252440bD05556c4, 0xD1620Dac6d79BE34F8500756B47cf91B1fA5Cc8C, 500, 5, 0x7e0C07EEabb2459D70dba5b8d100Dca44c652aC0)",
        "0xf3057a3580df9df715ce8fe5a87cae7abfffb3565b9890be013a79d76435ea6344fe1ed7ca971c8e31eb6c440688b8ac2b0dff308b2b66a5ba2eaee89c671ffa1c"
      ],
      "transaction": {
        "from": "0x3c44cdddb6a900fa2b585dd299e03d12fa4293bc",
        "to": "0xeccf611a0df54b426ed23f06f1c8790ea0695df6",
        "value": "0x0",
        "input": "0xf13278c7000000000000000000000000ec71253ad2f552119862444eeaddce3b2d1ae3e35b171c28fb0eebf8c4f6bebf3f5a0f12611acb1d4a0734c51fbae996b6e9dfdf000000000000000000000000d1620dac6d79be34f8500756b47cf91b1fa5cc8c0000000000000000000000009ed4f4724b521326a9d9d2420252440bd05556c40000000000000000000000000000000000000000000000000000000ba427aa0c000000000000000000000000000000000000000000000000000000018d5a9f340000000000000000000000009ed4f4724b521326a9d9d2420252440bd05556c4000000000000000000000000d1620dac6d79be34f8500756b47cf91b1fa5cc8c00000000000000000000000000000000000000000000000000000000000001f400000000000000000000000000000000000000000000000000000000000000050000000000000000000000007e0c07eeabb2459d70dba5b8d100dca44c652ac000000000000000000000000000000000000000000000000000000000000001800000000000000000000000000000000000000000000000000000000000000041f3057a3580df9df715ce8fe5a87cae7abfffb3565b9890be013a79d76435ea6344fe1ed7ca971c8e31eb6c440688b8ac2b0dff308b2b66a5ba2eaee89c671ffa1c00000000000000000000000000000000000000000000000000000000000000",
        "nonce": "0x9ab",
        "chainId": "0x1"
      },
      "additionalContracts": [],
      "isFixedGasLimit": false
    }
  ],
  "receipts": [
    {
      "status": "0x1",
      "cumulativeGasUsed": "0x4fc13",
      "logs": [
        {
          "address": "0x9554b52516f306360a239746f70f88c23d187b63",
          "topics": [
            "0xddf252ad1be2c89b69c2b068fc378daa952ba7f163c4a11628f55a4df523b3ef",
            "0x0000000000000000000000000000000000000000000000000000000000000000",
            "0x0000000000000000000000003c44cdddb6a900fa2b585dd299e03d12fa4293bc",
            "0x000000000000000000000000ec71253ad2f552119862444eeaddce3b2d1ae3e3"
          ],
          "data": "0x",
          "blockHash": "0x5edda5e687ff5e4da2a624c9abe186a4ac5e148c3b03f2c125f47551eb485e39",
          "blockNumber": "0x173c190",
          "blockTimestamp": "0x697ff5e4",
          "transactionHash": "0x97bf40ebb5b4d4aa04ecf9922c2683c92f91a17e7baa31dd1f2bac4d21cb5eaa",
          "transactionIndex": "0x0",
          "logIndex": "0x0",
          "removed": false
        },
        {
          "address": "0x9554b52516f306360a239746f70f88c23d187b63",
          "topics": [
            "0xc418c83b1622e1e32aac5d6d2848134a7e89eb8e96c8514afd1757d25ee5ef71",
            "0x000000000000000000000000ec71253ad2f552119862444eeaddce3b2d1ae3e3",
            "0x0000000000000000000000003c44cdddb6a900fa2b585dd299e03d12fa4293bc"
          ],
          "data": "0x000000000000000000000000ec71253ad2f552119862444eeaddce3b2d1ae3e3",
          "blockHash": "0x5edda5e687ff5e4da2a624c9abe186a4ac5e148c3b03f2c125f47551eb485e39",
          "blockNumber": "0x173c190",
          "blockTimestamp": "0x697ff5e4",
          "transactionHash": "0x97bf40ebb5b4d4aa04ecf9922c2683c92f91a17e7baa31dd1f2bac4d21cb5eaa",
          "transactionIndex": "0x0",
          "logIndex": "0x1",
          "removed": false
        }
      ],
      "logsBloom": "0x00000000000000000000100020000000000000000000000000000000000000000000000000000000000000000000000000000200000000000400000000100000000000000000000000000008100000000000000000000100008000000000000000000000020000000000000000008800000800000000000000000010000000000000000000000000000000000000000000000000000000000004000000000000000000000000200000000000000000000000000000000000000000000000000000000002000000000000000000000000000000000000000000000000000020000000000000000000000000000000000000000000000000000000000000000000",
      "type": "0x2",
      "transactionHash": "0x97bf40ebb5b4d4aa04ecf9922c2683c92f91a17e7baa31dd1f2bac4d21cb5eaa",
      "transactionIndex": "0x0",
      "blockHash": "0x5edda5e687ff5e4da2a624c9abe186a4ac5e148c3b03f2c125f47551eb485e39",
      "blockNumber": "0x173c190",
      "gasUsed": "0x4fc13",
      "effectiveGasPrice": "0xecfc",
      "blobGasPrice": "0x1",
      "from": "0x3c44cdddb6a900fa2b585dd299e03d12fa4293bc",
      "to": "0x9554b52516f306360a239746f70f88c23d187b63",
      "contractAddress": null
    },
    {
      "status": "0x1",
      "cumulativeGasUsed": "0xb5a1",
      "logs": [
        {
          "address": "0xd1620dac6d79be34f8500756b47cf91b1fa5cc8c",
          "topics": [
            "0xddf252ad1be2c89b69c2b068fc378daa952ba7f163c4a11628f55a4df523b3ef",
            "0x0000000000000000000000003c44cdddb6a900fa2b585dd299e03d12fa4293bc",
            "0x000000000000000000000000ec71253ad2f552119862444eeaddce3b2d1ae3e3"
          ],
          "data": "0x0000000000000000000000000000000000000000000000000000000ba427aa0c",
          "blockHash": "0x382e0cb3e19d1d31ff9b07d70d80770e456115350e059049002fcb8d6fe2c53f",
          "blockNumber": "0x173c191",
          "blockTimestamp": "0x697ff5e4",
          "transactionHash": "0xe8c3c74e080056d996e27b535b10615a7603a53044a730906c3f83f2ee6e58d4",
          "transactionIndex": "0x0",
          "logIndex": "0x0",
          "removed": false
        }
      ],
      "logsBloom": "0x00000000000000008000000000000000000000000000000000000000000000000000000000000000000000000000000000000000000000000400000000100000000000000000000000000008100000000000000000000000000000004000000000000000000000000000000000000000000800000000000000000010000000000000002000000000000000000000000000000000000000000004000000000000000000000000200000000000000000000000000000000000000000000000000000000002000000000000000000000000000000000000000000000000000000000000000000000000000000000000000000000000000000000000000000000000",
      "type": "0x2",
      "transactionHash": "0xe8c3c74e080056d996e27b535b10615a7603a53044a730906c3f83f2ee6e58d4",
      "transactionIndex": "0x0",
      "blockHash": "0x382e0cb3e19d1d31ff9b07d70d80770e456115350e059049002fcb8d6fe2c53f",
      "blockNumber": "0x173c191",
      "gasUsed": "0xb5a1",
      "effectiveGasPrice": "0xd069",
      "blobGasPrice": "0x1",
      "from": "0x3c44cdddb6a900fa2b585dd299e03d12fa4293bc",
      "to": "0xd1620dac6d79be34f8500756b47cf91b1fa5cc8c",
      "contractAddress": null
    },
    {
      "status": "0x1",
      "cumulativeGasUsed": "0x8bab6",
      "logs": [
        {
          "address": "0xec71253ad2f552119862444eeaddce3b2d1ae3e3",
          "topics": [
            "0x966c160e1c4dbc7df8d69af4ace01e9297c3cf016397b7914971f2fbfa32672d",
            "0x000000000000000000000000eccf611a0df54b426ed23f06f1c8790ea0695df6"
          ],
          "data": "0x0000000000000000000000000000000000000000000000000000000000000001",
          "blockHash": "0x63803778ee122919cd348d4706864cde84acd3ab86d87f947ff8f20ef4337d80",
          "blockNumber": "0x173c192",
          "blockTimestamp": "0x697ff5e4",
          "transactionHash": "0x87574a1e55c12f7eddabe28692f365ca380ca2664bcedcc6dea214abbd63be3d",
          "transactionIndex": "0x0",
          "logIndex": "0x0",
          "removed": false
        },
        {
          "address": "0x9ed4f4724b521326a9d9d2420252440bd05556c4",
          "topics": [
            "0xddf252ad1be2c89b69c2b068fc378daa952ba7f163c4a11628f55a4df523b3ef",
            "0x0000000000000000000000000000000000000000000000000000000000000000",
            "0x000000000000000000000000ec71253ad2f552119862444eeaddce3b2d1ae3e3"
          ],
          "data": "0x000000000000000000000000000000000000000000000000000000018d5a9f34",
          "blockHash": "0x63803778ee122919cd348d4706864cde84acd3ab86d87f947ff8f20ef4337d80",
          "blockNumber": "0x173c192",
          "blockTimestamp": "0x697ff5e4",
          "transactionHash": "0x87574a1e55c12f7eddabe28692f365ca380ca2664bcedcc6dea214abbd63be3d",
          "transactionIndex": "0x0",
          "logIndex": "0x1",
          "removed": false
        },
        {
          "address": "0x766542304e16e3585d569705b0eff4756efa6cac",
          "topics": [
            "0x343ef6bfd54be4f7cb6918335f3d2788a88dfadfc586a5c32c67c2f3b61c6338",
            "0x5b171c28fb0eebf8c4f6bebf3f5a0f12611acb1d4a0734c51fbae996b6e9dfdf",
            "0x000000000000000000000000ec71253ad2f552119862444eeaddce3b2d1ae3e3"
          ],
          "data": "0x0000000000000000000000000000000000000000000000000000000ba427aa0c000000000000000000000000000000000000000000000000000000018d5a9f34",
          "blockHash": "0x63803778ee122919cd348d4706864cde84acd3ab86d87f947ff8f20ef4337d80",
          "blockNumber": "0x173c192",
          "blockTimestamp": "0x697ff5e4",
          "transactionHash": "0x87574a1e55c12f7eddabe28692f365ca380ca2664bcedcc6dea214abbd63be3d",
          "transactionIndex": "0x0",
          "logIndex": "0x2",
          "removed": false
        },
        {
          "address": "0xd1620dac6d79be34f8500756b47cf91b1fa5cc8c",
          "topics": [
            "0x8c5be1e5ebec7d5bd14f71427d1e84f3dd0314c0f7b2291e5b200ac8c7c3b925",
            "0x000000000000000000000000ec71253ad2f552119862444eeaddce3b2d1ae3e3",
            "0x000000000000000000000000766542304e16e3585d569705b0eff4756efa6cac"
          ],
          "data": "0x0000000000000000000000000000000000000000000000000000000ba427aa0c",
          "blockHash": "0x63803778ee122919cd348d4706864cde84acd3ab86d87f947ff8f20ef4337d80",
          "blockNumber": "0x173c192",
          "blockTimestamp": "0x697ff5e4",
          "transactionHash": "0x87574a1e55c12f7eddabe28692f365ca380ca2664bcedcc6dea214abbd63be3d",
          "transactionIndex": "0x0",
          "logIndex": "0x3",
          "removed": false
        },
        {
          "address": "0x9ed4f4724b521326a9d9d2420252440bd05556c4",
          "topics": [
            "0xddf252ad1be2c89b69c2b068fc378daa952ba7f163c4a11628f55a4df523b3ef",
            "0x000000000000000000000000ec71253ad2f552119862444eeaddce3b2d1ae3e3",
            "0x000000000000000000000000eccf611a0df54b426ed23f06f1c8790ea0695df6"
          ],
          "data": "0x000000000000000000000000000000000000000000000000000000018d5a9f34",
          "blockHash": "0x63803778ee122919cd348d4706864cde84acd3ab86d87f947ff8f20ef4337d80",
          "blockNumber": "0x173c192",
          "blockTimestamp": "0x697ff5e4",
          "transactionHash": "0x87574a1e55c12f7eddabe28692f365ca380ca2664bcedcc6dea214abbd63be3d",
          "transactionIndex": "0x0",
          "logIndex": "0x4",
          "removed": false
        },
        {
          "address": "0x9ed4f4724b521326a9d9d2420252440bd05556c4",
          "topics": [
            "0x8c5be1e5ebec7d5bd14f71427d1e84f3dd0314c0f7b2291e5b200ac8c7c3b925",
            "0x000000000000000000000000eccf611a0df54b426ed23f06f1c8790ea0695df6",
            "0x000000000000000000000000000000000004444c5dc75cb358380d2e3de08a90"
          ],
          "data": "0x000000000000000000000000000000000000000000000000000000018d5a9f34",
          "blockHash": "0x63803778ee122919cd348d4706864cde84acd3ab86d87f947ff8f20ef4337d80",
          "blockNumber": "0x173c192",
          "blockTimestamp": "0x697ff5e4",
          "transactionHash": "0x87574a1e55c12f7eddabe28692f365ca380ca2664bcedcc6dea214abbd63be3d",
          "transactionIndex": "0x0",
          "logIndex": "0x5",
          "removed": false
        },
        {
          "address": "0x000000000004444c5dc75cb358380d2e3de08a90",
          "topics": [
            "0x40e9cecb9f5f1f1c5b9c97dec2917b7ee92e57ba5563708daca94dd84ad7112f",
            "0x3509745444ed1275bf3cc6196dcab60943ac6b87c5b249d3e64fa8e35e5b5f69",
            "0x000000000000000000000000eccf611a0df54b426ed23f06f1c8790ea0695df6"
          ],
          "data": "0xffffffffffffffffffffffffffffffffffffffffffffffffffffffff980a2487000000000000000000000000000000000000000000000000000000018d5a9f340000000000000000000000000000000000000001ee0e2a2591731bd1c93a708e0000000000000000000000000000000000000000000000000000001e1717e9e3000000000000000000000000000000000000000000000000000000000000335e00000000000000000000000000000000000000000000000000000000000001f4",
          "blockHash": "0x63803778ee122919cd348d4706864cde84acd3ab86d87f947ff8f20ef4337d80",
          "blockNumber": "0x173c192",
          "blockTimestamp": "0x697ff5e4",
          "transactionHash": "0x87574a1e55c12f7eddabe28692f365ca380ca2664bcedcc6dea214abbd63be3d",
          "transactionIndex": "0x0",
          "logIndex": "0x6",
          "removed": false
        },
        {
          "address": "0x9ed4f4724b521326a9d9d2420252440bd05556c4",
          "topics": [
            "0xddf252ad1be2c89b69c2b068fc378daa952ba7f163c4a11628f55a4df523b3ef",
            "0x000000000000000000000000eccf611a0df54b426ed23f06f1c8790ea0695df6",
            "0x000000000000000000000000000000000004444c5dc75cb358380d2e3de08a90"
          ],
          "data": "0x0000000000000000000000000000000000000000000000000000000067f5db79",
          "blockHash": "0x63803778ee122919cd348d4706864cde84acd3ab86d87f947ff8f20ef4337d80",
          "blockNumber": "0x173c192",
          "blockTimestamp": "0x697ff5e4",
          "transactionHash": "0x87574a1e55c12f7eddabe28692f365ca380ca2664bcedcc6dea214abbd63be3d",
          "transactionIndex": "0x0",
          "logIndex": "0x7",
          "removed": false
        },
        {
          "address": "0xd1620dac6d79be34f8500756b47cf91b1fa5cc8c",
          "topics": [
            "0xddf252ad1be2c89b69c2b068fc378daa952ba7f163c4a11628f55a4df523b3ef",
            "0x000000000000000000000000000000000004444c5dc75cb358380d2e3de08a90",
            "0x000000000000000000000000eccf611a0df54b426ed23f06f1c8790ea0695df6"
          ],
          "data": "0x000000000000000000000000000000000000000000000000000000018d5a9f34",
          "blockHash": "0x63803778ee122919cd348d4706864cde84acd3ab86d87f947ff8f20ef4337d80",
          "blockNumber": "0x173c192",
          "blockTimestamp": "0x697ff5e4",
          "transactionHash": "0x87574a1e55c12f7eddabe28692f365ca380ca2664bcedcc6dea214abbd63be3d",
          "transactionIndex": "0x0",
          "logIndex": "0x8",
          "removed": false
        },
        {
          "address": "0xd1620dac6d79be34f8500756b47cf91b1fa5cc8c",
          "topics": [
            "0xddf252ad1be2c89b69c2b068fc378daa952ba7f163c4a11628f55a4df523b3ef",
            "0x000000000000000000000000eccf611a0df54b426ed23f06f1c8790ea0695df6",
            "0x000000000000000000000000ec71253ad2f552119862444eeaddce3b2d1ae3e3"
          ],
          "data": "0x000000000000000000000000000000000000000000000000000000018d5a9f34",
          "blockHash": "0x63803778ee122919cd348d4706864cde84acd3ab86d87f947ff8f20ef4337d80",
          "blockNumber": "0x173c192",
          "blockTimestamp": "0x697ff5e4",
          "transactionHash": "0x87574a1e55c12f7eddabe28692f365ca380ca2664bcedcc6dea214abbd63be3d",
          "transactionIndex": "0x0",
          "logIndex": "0x9",
          "removed": false
        },
        {
          "address": "0x766542304e16e3585d569705b0eff4756efa6cac",
          "topics": [
            "0x343ef6bfd54be4f7cb6918335f3d2788a88dfadfc586a5c32c67c2f3b61c6338",
            "0x5b171c28fb0eebf8c4f6bebf3f5a0f12611acb1d4a0734c51fbae996b6e9dfdf",
            "0x000000000000000000000000ec71253ad2f552119862444eeaddce3b2d1ae3e3"
          ],
          "data": "0x000000000000000000000000000000000000000000000000000000018d5a9f340000000000000000000000000000000000000000000000000000000000000000",
          "blockHash": "0x63803778ee122919cd348d4706864cde84acd3ab86d87f947ff8f20ef4337d80",
          "blockNumber": "0x173c192",
          "blockTimestamp": "0x697ff5e4",
          "transactionHash": "0x87574a1e55c12f7eddabe28692f365ca380ca2664bcedcc6dea214abbd63be3d",
          "transactionIndex": "0x0",
          "logIndex": "0xa",
          "removed": false
        },
        {
          "address": "0xd1620dac6d79be34f8500756b47cf91b1fa5cc8c",
          "topics": [
            "0x8c5be1e5ebec7d5bd14f71427d1e84f3dd0314c0f7b2291e5b200ac8c7c3b925",
            "0x000000000000000000000000ec71253ad2f552119862444eeaddce3b2d1ae3e3",
            "0x000000000000000000000000766542304e16e3585d569705b0eff4756efa6cac"
          ],
          "data": "0x000000000000000000000000000000000000000000000000000000018d5a9f34",
          "blockHash": "0x63803778ee122919cd348d4706864cde84acd3ab86d87f947ff8f20ef4337d80",
          "blockNumber": "0x173c192",
          "blockTimestamp": "0x697ff5e4",
          "transactionHash": "0x87574a1e55c12f7eddabe28692f365ca380ca2664bcedcc6dea214abbd63be3d",
          "transactionIndex": "0x0",
          "logIndex": "0xb",
          "removed": false
        },
        {
          "address": "0xec71253ad2f552119862444eeaddce3b2d1ae3e3",
          "topics": [
            "0x966c160e1c4dbc7df8d69af4ace01e9297c3cf016397b7914971f2fbfa32672d",
            "0x000000000000000000000000eccf611a0df54b426ed23f06f1c8790ea0695df6"
          ],
          "data": "0x0000000000000000000000000000000000000000000000000000000000000000",
          "blockHash": "0x63803778ee122919cd348d4706864cde84acd3ab86d87f947ff8f20ef4337d80",
          "blockNumber": "0x173c192",
          "blockTimestamp": "0x697ff5e4",
          "transactionHash": "0x87574a1e55c12f7eddabe28692f365ca380ca2664bcedcc6dea214abbd63be3d",
          "transactionIndex": "0x0",
          "logIndex": "0xc",
          "removed": false
        }
      ],
      "logsBloom": "0x00000800004000008004100000000000000000000000080000000000000000000000000020000000401000100000000000100000040000080400000000208000000000000000000000000008100000080000000000000020000000004000004000000000024000008000000000000800020000000000000000000010000000000000022800000000000000000000000000000000000000000004000000000002020000000000000000000100100000000000000000000000100000000000000000000802000000000000000000000000008000400000000000000010000020100010000000010000004000100000000000000900000000000000000000000001",
      "type": "0x2",
      "transactionHash": "0x87574a1e55c12f7eddabe28692f365ca380ca2664bcedcc6dea214abbd63be3d",
      "transactionIndex": "0x0",
      "blockHash": "0x63803778ee122919cd348d4706864cde84acd3ab86d87f947ff8f20ef4337d80",
      "blockNumber": "0x173c192",
      "gasUsed": "0x8bab6",
      "effectiveGasPrice": "0xb722",
      "blobGasPrice": "0x1",
      "from": "0x3c44cdddb6a900fa2b585dd299e03d12fa4293bc",
      "to": "0xeccf611a0df54b426ed23f06f1c8790ea0695df6",
      "contractAddress": null
    }
  ],
  "libraries": [],
  "pending": [],
  "returns": {},
  "timestamp": 1770034357386,
  "chain": 1,
  "commit": "290e97f"
}